:100000000C9495020C94F21D0C94CB1D0C9462116F
:100010000C9471110C94BD020C9434110C94BD021B
:100020000C94BD020C94BD020C94BD020C94BD0254
:100030000C94BD020C94BD020C94BD020C94BD0244
:100040000C94811D0C94BD020C947E1C0C94581CC5
:100050000C94BD020C94BD020C94BD020C94BD0224
:100060000C94BD020C94BD0241542B435245473FB2
:100070000041542B434349440041542B44444554CC
:100080003D310D0A00415426570D0A0041542B43BF
:100090004C54533D310D0A0041542B4353434C4BB8
:1000A0003D310D0A0041542B434E4D493D322C3118
:1000B0002C302C302C300D0A0041542B434D474638
:1000C0003D310D0A0041542B434C43433D310D0A51
:1000D0000041542B434C49503D310D0A0041540D11
:1000E0000A004D415843454444004345525200558F
:1000F000504453554343004154410041542B444420
:1001000045543D310D0A0041542B4346554E3D3177
:100110002C310D0A002B4350494E3A204E4F5420AB
:1001200052454144590D0043616C6C205265616435
:10013000790D0041542B434D4744413D2244454CE9
:1001400020414C4C220D0A0041542B465450474547
:1001500054544F46533D302C226D2E62696E220D51
:100160000A000D002B465450474554544F46533A0D
:1001700020302C002B46545053495A453A20312CFC
:10018000302C0041542B46545053495A450D0A0017
:10019000504154483D222F220D0A0041542B465411
:1001A0005047455400220D0A004E414D453D220066
:1001B00041542B465450474554006D2E62696E00E1
:1001C00041542B46545050573D223132333435364A
:1001D000373839220D0A0041542B465450554E3DB4
:1001E00022726168756C6E726174686F646B636CA7
:1001F000220D0A00220D0A0041542B46545053454B
:1002000052563D220041542B4654504349443D31FF
:100210000D0A0041542B53415042523D312C310DB7
:100220000A00220D0A0041504E222C220041542B7C
:1002300053415042523D332C312C2200436F6E54B7
:10024000797065222C2247505253220D0A004154E6
:100250002B53415042523D332C312C220041542B20
:10026000434F50533D320D0A00415426570D0A00AA
:1002700041542B4353434C4B3D300D0A0041542B0A
:1002800053415042523D302C310D0A00444300533B
:1002900055500050524755504400564D5230320090
:1002A000564D4D3031002A2A2A2A4D2B00310D009F
:1002B000300D002E616D72222C302C3130302C002C
:1002C00041542B435245433D342C22433A5C5573F1
:1002D00065725C4654505C002B435245473A00001F
:1002E00041542B435245433D350D003730343131B5
:1002F0003936393539000A4E6574776F726B3A00BA
:100300000A426174253A00204F46460A00204F4EAB
:100310000A00204F4E0A004D6F746F723A00204F52
:1003200046460A0020322050484153450A004155B4
:10033000544F4F4646004155544F4F4E0041542BA9
:10034000434357413D302C300D0A004552524F5225
:10035000203A20004F4B203A200041542B43555364
:10036000443D312C220042414C004155544F5449E8
:100370004D45004155544F54494D45005354415249
:1003800054494D45005354415254494D450053542E
:1003900041474500535441474500414D4F464600B3
:1003A000414D4F4E0041542B4342430041542B4397
:1003B00053510053544154555300554E4452004F2D
:1003C000565200534A4D50005245535000444E443B
:1003D0004F464600444E444F4E004259504F464609
:1003E000004259504F4E004155544F4F4646004130
:1003F00055544F4F4E004449440052455345540014
:100400004E6F204E756D626572004E554D0044452D
:100410004641554C5400434C454152414C4C0057C9
:100420004149540000000000240027002A00000079
:100430000000250028002B000000000023002600FB
:100440002900040404040404040402020202020257
:100450000303030303030102040810204080010288
:100460000408102001020408102000000008000207
:1004700001000003040700000000000000003935FF
:10048000383631333539373800373338333632324E
:100490003637380037333833363134323134003779
:1004A000363938343339323031003730343131393C
:1004B000363935390037303431313936393539004C
:1004C0004E4F20414E535745520D00425553590D42
:1004D000004E4F20434152524945520D002B434C90
:1004E00043433A20312C302C000041542B434855D3
:1004F0005000222C320041542B5654533D22002BE5
:1005000053415042523A20312C0041542B53415018
:1005100042523D322C310D0A000A49443A004154FE
:100520002B4342430000A133423311241FBECFEFBF
:10053000D8E0DEBFCDBF23E0AAECB1E001C01D9240
:10054000A834B207E1F711E0A0E0B1E0EAE3F4E794
:1005500002C005900D92AA3CB107D9F712E0C4E998
:10056000D2E004C02197FE010E94AB37C339D10706
:10057000C9F70E941F290C94103A0C9458112F921D
:100580003F924F925F927F928F929F92AF92BF92D3
:10059000CF92DF92EF92FF920F931F93CF93DF934F
:1005A000CDB7DEB7C254D1090FB6F894DEBF0FBE87
:1005B000CDBF809119038823B1F00E94451D0091A1
:1005C0001A0310911B0320911C0330911D03DC01C1
:1005D000CB01801B910BA20BB30B813D9740A10572
:1005E000B10508F0FFC58091F302882371F10E94E4
:1005F000451D0091F6021091F7022091F80230910A
:10060000F902AB01BC01401B510B620B730B209133
:10061000F4023091F502E4E6E29FC001E39F900D01
:100620001124A0E0B0E0481759076A077B0768F07B
:10063000E091DF02F091E0028389811106C060E061
:1006400084E00E94D91C1092F3028091FA028E3449
:1006500009F052C08091FB028E3409F0BBC080913A
:100660000703811116C00E94451D009108031091D7
:10067000090320910A0330910B03DC01CB01801B9D
:10068000910BA20BB30B893E9340A105B10508F075
:10069000ACC58091FF02882309F49CC0E091DD0283
:1006A000F091DE02158580910703882309F492C03A
:1006B0008091FE02813009F475C00E94451DC090F2
:1006C0000003D0900103E0900203F09003039B012C
:1006D000AC012C193D094E095F0969017A01212FEE
:1006E00030E0A0E6BAEE0E94FB366C157D058E0563
:1006F0009F0508F457C06EC0893419F0823509F09F
:1007000069C00E94451D0091ED021091EE022091FA
:10071000EF023091F002AB01BC01401B510B620BA8
:10072000730B2091EB023091EC02E4E6E29FC001F2
:10073000E39F900D1124A0E0B0E0481759076A0725
:100740007B0760F08091050323968FAF23970E946B
:10075000272123968FAD23970E946D238091E70276
:100760008823C1F10E94451DE091E2020091E3025D
:100770001091E4022091E5023091E602AB01BC0148
:10078000401B510B620B730B34E6E39FC001112435
:10079000092E000CAA0BBB0B84179507A607B707F9
:1007A000C8F427C580910403809305031092FF02CB
:1007B000E091DD02F091DE02858D8E3459F081E00A
:1007C000809306038DED92E00E94600E8DED92E025
:1007D0000E94060F9FE4E92E22E5D22E39E4F32E83
:1007E0008091160390911703DC01ED91FC91008438
:1007F000F185E02D0995181619060CF0F4C6CE0106
:10080000CC960E945D2421960FAD219701506DE199
:1008100071E0CE0101960E94E11B26E0AE014F5F20
:100820005F4FBE01645C7F4F8DED92E00E94660DCC
:10083000182FCE0101960E94CA1B112321F080912E
:10084000F20281111EC521960FAD2197015064E27D
:1008500071E0CE0101960E94E11B2CE0AE014F5FDA
:100860005F4FBE01645C7F4F8DED92E00E94660D8C
:10087000182FCE0101960E94CA1B112369F1BE01F7
:10088000645C7F4FCE01C0960E94D81B6BE271E082
:10089000CE0189960E94E11BBE01605D7F4FCE01B3
:1008A00089960E94341BBE01675D7F4FCE01019681
:1008B0000E94D81BBE016F5F7F4F8DED92E00E94BA
:1008C0002426CE0101960E94CA1BCE0189960E9461
:1008D000CA1BCE01C096A3C264E371E0CE010196AB
:1008E0000E94E11B02E228E1AE014F5F5F4FBE01B3
:1008F000645C7F4F8DED92E00E94660D182FCE0153
:1009000001960E94CA1BBE01645C7F4FCE01112379
:1009100009F442C201960E94D81BCE0101960E94A2
:100920009A23982ECE0101960E94CA1BBE01645CD8
:100930007F4FCE0101960E94D81BBE016F5F7F4F93
:100940008091DD029091DE020E944A0CC82ECE01F9
:1009500001960E94CA1B911026C0BE01645C7F4FA5
:10096000CE0101960E94D81BBE016F5F7F4F809120
:10097000DD029091DE020E94FB0B81110CC0C110C0
:100980000BC0E091DD02F091DE0211E0808188234E
:1009900019F010E001C0182FCE0101960E94CA1B69
:1009A000112309F49BC1CE0101960E945D24BE0172
:1009B0006F5F7F4FCE01CC960E94911BCE010196B6
:1009C0000E94CA1BACACBDACA114B10441F4E091CF
:1009D000DD02F091DE028081882371F03CC0D501F8
:1009E0008C918823A1F3082E000C990B0E94AD393D
:1009F000F50181935F01F3CF91102DC066EA72E09B
:100A0000CE0101960E94CF1BBE016F5F7F4FCE01CA
:100A1000CC960E94481A182FCE0101960E94CA1B3C
:100A2000112309F4FEC122962EAD3FAD229744E07A
:100A300050E0BE01645C7F4FCE0101960E94F61B20
:100A4000BE016F5F7F4FCE01CC960E94911BCE01FD
:100A500001960E94CA1B6BE371E0CE0101960E94D1
:100A6000E11BBE016F5F7F4FCE01CC960E94481AFA
:100A7000182FCE0101960E94CA1B1123D1F0229695
:100A80002EAD3FAD229741E050E0BE01645C7F4F48
:100A9000CE0101960E94F61BBE016F5F7F4FCE0113
:100AA000CC960E94911BCE0101960E94CA1B11E0B8
:100AB00001C010E0BE01645C7F4FCE01992009F4B3
:100AC00002C1C6960E94D81B81E08093F1020AAD54
:100AD000015063E972E0CE0101960E94CF1B26E02F
:100AE000AE014F5F5F4FBE016A5C7F4F8DED92E0BC
:100AF0000E94660D782ECE0101960E94CA1B7720B7
:100B000009F4CEC08091FA028E3411F40E9427219C
:100B1000111110C06FE872E0CE0101960E94CF1B48
:100B200040E061E0CE0101960E944A22CE0101968A
:100B30000E94CA1BAEA8BFA80E943727811156C0C9
:100B40006DE371E0C5010E941B354C016EE571E05B
:100B500080E090E00E941B355C016EE472E0CE0103
:100B600001960E940B356CE372E0CE0101960E9463
:100B70000035CE0101960E94B427882309F457C09E
:100B80006DE272E0CE0101960E940B3566E272E0E2
:100B9000CE0101960E940035B401CE0101960E945B
:100BA000BE3962E272E0CE0101960E940035CE01AC
:100BB00001960E94B4278823D1F161E083E192E09D
:100BC0000E94A024882399F164E18DED92E00E94B7
:100BD0003B0D0CE0015059F162E38DED92E00E9473
:100BE0003B0D0E9437278823A9F302C0A12CB12C0A
:100BF00061E085E092E00E94A0248823C1F068EFC4
:100C000071E0CE0101960E940B35B501CE0101962F
:100C10000E94BE3964EF71E0CE0101960E9400355A
:100C200061E0CE0101960E94B52681113EC361E0CC
:100C30008DE792E00E94A024E091DD02F091DE02B7
:100C400012861982BE016F5F7F4F84E893E00E9495
:100C50007F1E1A821982BE016F5F7F4F84E993E085
:100C60000E941F2801E00983BE016F5F7F4F80E96A
:100C700093E00E947F1E0093F102111113C06FE3F5
:100C800071E0CE0101960E94E11B40E061E0CE01DF
:100C900001960E944A22CE0101960E94CA1B02C000
:100CA0001092F102CE01C6960E94CA1B71106EC04E
:100CB000BE01645C7F4FCE0101960E94D81B2C2D93
:100CC000412F61E006C001960E94D81B2C2D412FB8
:100CD00060E0CE0101960E94861154C0BE01645CA2
:100CE0007F4FCE0101960E94D81BBE016F5F7F4FE0
:100CF0008091DD029091DE020E94510C182FCE01EE
:100D000001960E94CA1B112309F440C0CE0101962E
:100D10000E945D24BE016F5F7F4FCE01CC960E9482
:100D2000911BCE0101960E94CA1B60EA72E0CE01BF
:100D300001960E94CF1BBE016F5F7F4FCE01CC9604
:100D40000E94481A182FCE0101960E94CA1B112337
:100D5000E9F0E091DD02F091DE0281E08483BF01E1
:100D60006C5F7F4F8CE590E00E947F1E6AE972E025
:100D7000CE0101960E94CF1B42E061E0CE010196B8
:100D80000E944A22CE0101960E94CA1B60E083E3C2
:100D900091E00E94A02445C089960E94D81B67E27A
:100DA00071E0CE0101960E94CF1BBE016F5F7F4FA5
:100DB000CE0189960E94821A182FCE0101960E94B8
:100DC000CA1BCE0189960E94CA1B112321F081E023
:100DD0008093180326C0BE01645C7F4FCE018996C4
:100DE0000E94D81B65E171E0CE0101960E94CF1BE5
:100DF000BE016F5F7F4FCE0189960E94821A182F25
:100E0000CE0101960E94CA1B112339F00E942721AE
:100E100060E087E091E00E94A024CE0189960E94C4
:100E2000CA1B909106038091FA029111FBC08E3487
:100E300019F0823509F081C19091FB029E3419F0BE
:100E4000993409F0DCC0BE01645C7F4FCE0101968D
:100E50000E94D81B62E471E0CE0101960E94631AE1
:100E6000182FCE0101960E94CA1B112309F4B1C0AC
:100E700081E08093E902D092FA02F092FB02809125
:100E8000FC028F5F8093FC02853008F064C08130E3
:100E900091F440E06BEF70E08DED92E00E94810EE6
:100EA0008091160390911703DC01ED91FC9106806F
:100EB000F781E02D09956EE571E0CE01C0960E94A4
:100EC000E11BCE0101960E945D24BE016F5F7F4F42
:100ED000CE01C0960E94911BCE0101960E94CA1BB2
:100EE00068E471E0CE0101960E94E11B05E12BE070
:100EF000AE014F5F5F4FBE01605D7F4F8DED92E0B1
:100F00000E94660D182FCE0101960E94CA1B112364
:100F1000C1F20E94451D6093ED027093EE02809332
:100F2000EF029093F0028CA99DA90A9778F0CE0168
:100F3000C0960E941B24882349F08091FC028230D5
:100F400028F08091E102882309F420C3CE01C096E5
:100F50000E94CA1B06C08091E102811102C00E945A
:100F600027218091E102882309F437C10E94451DA1
:100F70006093ED027093EE028093EF029093F00283
:100F80001092E10281E08093FD028091160390911E
:100F90001703DC01ED91FC910680F781E02D0995A6
:100FA00041E067EF70E08DED92E00E94810E80914C
:100FB000160390911703DC01ED91FC910680F781F7
:100FC000E02D0995F092FA02F092FB0241E06DE407
:100FD000AFC0BE01645C7F4FCE0101960E94D81B5A
:100FE000CE0101960E94EE21182FCE0101960E949B
:100FF000CA1B112309F4F1C00E942721EEC08934D5
:1010000089F49091FB02993469F4BE01645C7F4FCE
:10101000CE0101960E94D81BCE0101960E94EE21BE
:10102000182FB7C08E3419F0823509F089C010919D
:10103000FB021F3409F0D1C0BE01645C7F4FCE01BA
:1010400001960E94D81BCE0101960E949F21082F75
:10105000CE0101960E94CA1B023579F40E94451DFB
:101060006093ED027093EE028093EF029093F00292
:101070000093FA021093FB02B0C0BE01645C7F4F84
:10108000CE0101960E94D81BCE0101960E94EE214E
:10109000182F811113C0BE01645C7F4FCE01899669
:1010A0000E94D81BCE0189960E949F2111E08534B1
:1010B00009F010E0CE0189960E94CA1BCE0101966C
:1010C0000E94CA1B112369F08091050323968FAFFC
:1010D00023970E94272123968FAD23970E946D238B
:1010E0007CC0BE01645C7F4FCE0101960E94D81B7C
:1010F000CE0101960E949F21182FCE0101960E94D9
:10110000CA1B193409F069C00E94451D6093ED02A5
:101110007093EE028093EF029093F0021093FA0224
:10112000E092FB0281E08093FD0241E060910503C3
:101130008DED92E00E94C90E50C0893409F461CF50
:10114000893409F04AC08091FB028F3409F045C010
:10115000BE01645C7F4FCE0101960E94D81BCE0178
:1011600001960E94EE21182F811113C0BE01645C0C
:101170007F4FCE0189960E94D81BCE0189960E948E
:101180009F2111E0853409F010E0CE0189960E947C
:10119000CA1BCE0101960E94CA1B11112DCFCE0190
:1011A000CC960E94F820BE01645C7F4F882349F0F2
:1011B000CE0101960E94D81BCE0101960E943E1FCF
:1011C00008C0CE0101960E94D81BCE0101960E9454
:1011D000D125CE0101960E94CA1BCE01CC960E9459
:1011E000CA1BFECA10921903FEC981E0809307034F
:1011F00050CA8091160390911703DC01ED91FC9188
:101200000680F781E02D099540E060EC72E08DEDFD
:1012100092E00E94810E6091E8028DED92E02396AB
:101220006FAF23970E94600E23966FAD2397809136
:101230001603909117030E943C1C40E063EB72E0A0
:101240008DED92E00E94810E80910D03823020F09E
:1012500041E060EB72E003C041E06DEA72E08DEDC9
:1012600092E00E94810E8091160390911703DC0199
:10127000ED91FC910680F781E02D09951092E7022F
:10128000A9CABE01645C7F4FCE0101960E94D81BA3
:1012900040E061E0CE0101960E944A22CE01019613
:1012A0000E94CA1B1092F202CECA61E087ED91E063
:1012B0000E94A024882309F4BACC61E080EC91E07C
:1012C0000E94A024882309F4B2CC60EB71E0CE0127
:1012D00001960E940B3569EA71E0CE0101960E94E9
:1012E00000356AEB71E0CE0101960E94003565EA97
:1012F00071E0CE0101960E94003561E0CE010196B9
:101300000E94B526982E882309F491CC6BE971E0F0
:10131000CE0101960E940B3560E971E0CE01019685
:101320000E94003560E0CE0101960E94B526E09152
:10133000DD02F091DE028285811177C00E94451D99
:101340001B012C0140E063E871E08DED92E00E940A
:10135000810E0E94451DDC01CB0182199309A4096D
:10136000B509803C944DA140B10508F060CC809156
:10137000160390911703DC01ED91FC910084F18537
:10138000E02D0995892B29F36091160370911703BD
:10139000CE0189960E9440240DA5015064E771E0BA
:1013A000CE0101960E94CF1B2EE0AE014F5F5F4F32
:1013B000BE01675D7F4F8DED92E00E94660D082FA4
:1013C000CE0101960E94CA1BCE018996002351F1DD
:1013D0000E94DE19E091DD02F091DE0221E0228719
:1013E00066837783808791872F01B6E04B0E511C6F
:1013F00088E8A82E83E0B82EF20161912F01BA820D
:10140000A982CE0101960E94F90CFFEFAF1ABF0A24
:101410002CE8A21623E0B20679F7CE0189960E9445
:10142000CA1B03C00E94CA1B94CFE091DD02F09159
:10143000DE024AE0BE01675D7F4F868197810E9490
:10144000473564E671E0CE0101960E940B35BE017E
:10145000675D7F4FCE0101960E94BE3962E671E062
:10146000CE0101960E9400350E94451D1B012C01F2
:1014700040E068E471E08DED92E00E94810E0E94F0
:10148000451DDC01CB0182199309A409B509803CF3
:10149000944DA140B10508F0CACB809116039091FC
:1014A0001703DC01ED91FC910084F185E02D099595
:1014B000892B29F36091160370911703CE01C09612
:1014C0000E944024BE016F5F7F4F88A999A90E94A6
:1014D000C939892B41F4CE01C0960E94CA1B9920BC
:1014E00009F4A5CB05C0CE01C0960E94CA1BC7CF88
:1014F00081E08093F102111110C06CE872E0CE011E
:1015000001960E94CF1B40E061E0CE0101960E944F
:101510004A22CE0101960E94CA1B61E08DE792E04B
:101520000E94A02460E080E792E00E94A02460E096
:1015300089E692E00E94A02460E08DE592E00E949E
:10154000A02481E08983BE016F5F7F4F84E893E030
:101550000E947F1E1A821982BE016F5F7F4F84E94D
:1015600093E00E941F281982BE016F5F7F4F80E9C0
:1015700093E00E947F1E64E68DED92E00E943B0D99
:101580008DED92E00E94F10F792C8CCBBE01605D55
:101590007F4FCE0189960E94D81BBE01675D7F4FA9
:1015A000CE0101960E94D81BCE0101960E949A237B
:1015B000182F81110DC0BE01675D7F4F8091DD0244
:1015C0009091DE020E94830C11E08F3F09F410E03D
:1015D000CE0101960E94CA1B1093E102CE018996AA
:1015E0000E94CA1BB3CCCE5BDF4F0FB6F894DEBFB0
:1015F0000FBECDBFDF91CF911F910F91FF90EF9064
:10160000DF90CF90BF90AF909F908F907F905F9032
:101610004F903F902F90089581E080933E0208956F
:10162000CF92DF92EF92FF92CF93DF93EC016C8920
:101630007D8980E090E00E94B3356B017C018E894A
:10164000682F70E080E090E00E94B3359B01AC0110
:10165000C701B6010E94F03520E030E048EC52E4CA
:101660000E940A370E947C377B8B6A8BBE016E5EBC
:101670007F4F80EB90E00E94401E6C897D8980E066
:1016800090E00E94B3356B017C018F89682F70E078
:1016900080E090E00E94B3359B01AC01C701B60128
:1016A0000E94F03520E030E048EC52E40E940A3716
:1016B0000E947C37798B688BBE01605F7F4F8CEA1C
:1016C00090E0DF91CF91FF90EF90DF90CF900C945E
:1016D000401E0E94451D60931A0370931B03809364
:1016E0001C0390931D0381E0809319030895FB016F
:1016F00084819581409770F0CB0160E070E00E949A
:10170000371A282F880F330B2053310981E02A30F4
:10171000310508F080E008951F93CF93DF932FEFFA
:10172000260F233680F4EC016E8BBC016A5E7F4F7E
:1017300084EB90E00E947F1E1E85112331F0CE01C4
:101740000E94100B03C010E001C011E0812FDF9157
:10175000CF911F9108951F93CF93DF93653680F04B
:10176000EC016F8BBC01695E7F4F88EB90E00E94BB
:101770007F1E1E85112331F0CE010E94100B03C085
:1017800010E001C011E0812FDF91CF911F910895EA
:10179000CF93DF93EC016B87BC01655F7F4F80E0E7
:1017A00090E00E947F1E8B85882311F061E001C0CC
:1017B00060E082E1DF91CF910C94D91CCF93DF934D
:1017C000EC01FB018081882369F08181882319F075
:1017D0004EE150E002C040E351E02AE0CE010E9419
:1017E000971E05C06BEE72E0CE010E94CF1BCE01AA
:1017F000DF91CF910895DF92EF92FF920F931F93A5
:10180000CF93DF9300D000D000D0CDB7DEB7FC017E
:101810002081222369F17B018C012AE040E351E021
:10182000BC01CE0101960E94971EB701CE01019620
:101830000E94821AD82ECE0101960E94CA1BD11096
:1018400019C0B701CE0101960E94D81BF801808112
:10185000882341F0BE016F5F7F4FC8010E940C1FBB
:10186000182F01C010E0CE0101960E94CA1B03C0D0
:1018700010E001C011E0812F26960FB6F894DEBF6C
:101880000FBECDBFDF91CF911F910F91FF90EF90D1
:10189000DF900895FC01208121110C940C1F80E041
:1018A00008950F931F93CF93DF9300D000D000D003
:1018B000CDB7DEB7FC0183818823C1F08B01BF0166
:1018C0002AE040E650E0CE0101960E94971EBE013C
:1018D0006F5F7F4FC8010E94821A11E0811101C021
:1018E00010E0CE0101960E94CA1B01C010E0812FBA
:1018F00026960FB6F894DEBF0FBECDBFDF91CF9115
:101900001F910F910895CF92DF92EF92FF920F9364
:101910001F93CF93DF9300D000D000D0CDB7DEB7B8
:101920007C016B01FC018081811106C0F70184817B
:10193000882309F443C030C0CE0101960E94D81B11
:10194000BE016F5F7F4FC7010E94FB0B182FCE01B6
:1019500001960E94CA1B111133C011E0F70180816A
:10196000181720F7FBE01F9FA0011124405D5E4F78
:101970002AE0B701CE0101960E94971EB601CE0162
:1019800001960E94821A082FCE0101960E94CA1B5E
:10199000011118C01F5FE2CFB601CE0101960E946F
:1019A000D81BBE016F5F7F4FC7010E94510C182FDB
:1019B000CE0101960E94CA1B111106C08FEF05C00F
:1019C00080E003C0812F01C08EEF26960FB6F894F9
:1019D000DEBF0FBECDBFDF91CF911F910F91FF9062
:1019E000EF90DF90CF900895FC01808191810C945D
:1019F000AE360F931F93CF93DF931F92CDB7DEB711
:101A00008C0169830E94F40C6981681729F0F80140
:101A1000808191810E94B636C8010F90DF91CF91ED
:101A20001F910F910895CF93DF9300D0CDB7DEB70C
:101A3000FC01668784EA90E09A838983CE0101964F
:101A40000E94F90C0F900F90DF91CF910895CF93E2
:101A5000DF9300D0CDB7DEB7FC01658F8EE090E05C
:101A60009A838983CE0101960E94F90C0F900F9002
:101A7000DF91CF9108958F929F92AF92BF92CF92B4
:101A8000DF92EF92FF92C62E0E94451D4B015C0132
:101A900084E6C89E600111240D2C000CEE08FF089E
:101AA0000E94451DDC01CB0188199909AA09BB09CF
:101AB0008C159D05AE05BF0598F3FF90EF90DF9064
:101AC000CF90BF90AF909F908F900895EF92FF922C
:101AD0000F931F93CF93DF9300D000D000D0CDB7EA
:101AE000DEB77B01122FBA01C7010E94481A882372
:101AF000A9F0202F30E0412F50E0B701CE01019630
:101B00000E94F61BBE016F5F7F4FC7010E94911BB1
:101B1000CE0101960E94CA1B81E001C080E026969A
:101B20000FB6F894DEBF0FBECDBFDF91CF911F91EE
:101B30000F91FF90EF900895CF92DF92EF92FF9276
:101B40000F93CF93DF9300D000D000D0CDB7DEB796
:101B50006C017B01FB010481035061E571E0CE0162
:101B600001960E94E11B25E0AE014F5F5F4FB70178
:101B7000C6010E94660D082FCE0101960E94CA1B65
:101B8000802F26960FB6F894DEBF0FBECDBFDF9133
:101B9000CF910F91FF90EF90DF90CF9008958F92AB
:101BA0009F92AF92BF92CF92DF92EF92FF920F93EC
:101BB000CF93DF93CDB7DEB72C970FB6F894DEBF87
:101BC0000FBECDBF5C016B01FB01048101506DE3D1
:101BD00071E0CE0107960E94E11BF6018481958198
:101BE000892B69F0808091806F817885C4010E9483
:101BF000F639009721F07C01E818F90803C0EE24BB
:101C0000EA94FE2C66E571E0CE0101960E94E11B8C
:101C100021E02E0DAE014F5F5F4FB601C5010E945E
:101C2000660D082FCE0101960E94CA1BCE010796B1
:101C30000E94CA1B802F2C960FB6F894DEBF0FBEF1
:101C4000CDBFDF91CF910F91FF90EF90DF90CF90BC
:101C5000BF90AF909F908F900895CF92DF92EF92B8
:101C6000FF920F93CF93DF9300D000D000D0CDB779
:101C7000DEB76C017B01FB010481015068ED72E06D
:101C8000CE0101960E94CF1B26E0AE014F5F5F4F51
:101C9000B701C6010E94660D082FCE0101960E9471
:101CA000CA1B802F26960FB6F894DEBF0FBECDBF9D
:101CB000DF91CF910F91FF90EF90DF90CF9008953B
:101CC000CF93DF93EC018E89811112C061E084E033
:101CD0000E94D91C81E08E8B0E94451D698F7A8FEE
:101CE0008B8F9C8F61E0CE01DF91CF910C943B0DE7
:101CF0000E94451D698F7A8F8B8F9C8FDF91CF91CA
:101D00000895FF920F931F93CF93DF938C01EB0104
:101D1000F42E0E94600E2097C9F0FE016491219676
:101D2000662331F0F80181AD92AD0E943C1CF5CFE5
:101D3000FF2061F06CE571E0F80181AD92ADDF91BB
:101D4000CF911F910F91FF900C94431CDF91CF9185
:101D50001F910F91FF900895CF93DF93EC0189AD10
:101D60009AADDC01ED91FC910680F781E02D09959B
:101D700041E060EE72E0CE010E94810E89AD9AAD25
:101D8000DC01ED91FC910680F781E02DDF91CF9190
:101D90000994EF92FF921F93CF93DF931F92CDB7D9
:101DA000DEB77C01162FDC01D9968D919C91DA97D4
:101DB000DC01ED91FC910680F781E02D49830995C6
:101DC000C7010E94AC0E0E94451DF7016683778310
:101DD0008087918781E082874981442329F080AB05
:101DE00017A611AB12AA10A7D7011B961C930F9030
:101DF000DF91CF911F91FF90EF900895FC01258D09
:101E0000293419F441E00C94C90E0895CF92DF9261
:101E1000FF920F931F93CF93DF93CDB7DEB76297F7
:101E20000FB6F894DEBF0FBECDBF8C0181E0D801A4
:101E30001C968C93C8010E94600EF80181AD92AD92
:101E4000DC01ED91FC910680F781E02D09956FE5AD
:101E500071E0CE0107960E94E11BF801F1A0C0805D
:101E6000D180FF2059F16EE571E0CE010D960E9400
:101E7000E11BD6018C91F816B8F4BBE0FB9EA001E3
:101E80001124405D5E4F2AE0B601CE0101960E940A
:101E9000971EBE016F5F7F4FCE010D960E94911B72
:101EA000CE0101960E94CA1BBE01635F7F4FCE0127
:101EB00007960E94341BCE010D960EC0B601CE01CE
:101EC00001960E94DE0BBE016F5F7F4FCE01079629
:101ED0000E94341BCE0101960E94CA1B6BE3CE0107
:101EE00007960E94121BBE01695F7F4FCE010196CB
:101EF0000E94D81BBE016F5F7F4FC8010E9424263D
:101F0000CE0101960E94CA1B61E0C8010E943B0DF0
:101F100041E06FED72E0C8010E94810E0E94451DF4
:101F2000F801608B718B828B938B82E5858F8FE4B8
:101F3000868FCE0107960E94CA1B62960FB6F89450
:101F4000DEBF0FBECDBFDF91CF911F910F91FF90EC
:101F5000DF90CF9008950F931F93CF93DF93EC0101
:101F6000E881F9818081811102C011E034C0858D42
:101F70008E34D9F38BAD8823C1F38AA1811103C0BC
:101F800098A5961791F39D8D9E3421F59E8D9E34D4
:101F900009F51AA51123F9F081111CC0062F19A209
:101FA0008585882351F00E94451D6BA37CA38DA3DA
:101FB0009EA30FA381E08AA30EC068A7858D8E34EF
:101FC000A1F281E089A7CE010E94600ECE010E949D
:101FD000060F01C010E0812FDF91CF911F910F916B
:101FE00008950C94003C089561E081E10C94D91CA3
:101FF0000F931F93CF93DF93EC0141110EC08A8999
:1020000081110BC0662301F16DE28A819B81DF9112
:10201000CF911F910F910C94FE0E022F162F198E47
:1020200061E08DE00E94D91C0E94451D6FA378A736
:1020300089A79AA781E08EA31A8A60E080E10E94B6
:10204000D91C1E87088B1D86DF91CF911F910F91A0
:102050000895FC01A081B1811C968C9191898823FF
:1020600021F0992321F083890895892F089581E033
:1020700008951F93CF93DF93EC01162F1C8A8B8951
:10208000882329F0CE010E94291081110FC08A8176
:102090009B81112331F06EE4DF91CF911F910C945D
:1020A000FE0E6EE40E94AB0F8FAB25C08A898111B2
:1020B0001CC0F89460E08DE00E94D91C60E08CE0C8
:1020C0000E94D91C0E94F40F0E94451D69A37AA3A7
:1020D0008BA39CA381E08F8F1C868A8B61E080E1BB
:1020E0000E94D91C1D861F8706C0112321F06BE2B8
:1020F0008A819B81D1CFDF91CF911F9108951F934A
:10210000CF93DF93EC011B89112331F00E9429103A
:10211000882311F081E00BC0CE010E942910882392
:1021200021F0111104C084E002C082E000C0DF9100
:10213000CF911F910895CF93DF93FC012289211144
:1021400010C0EC010E942910882359F08B89882344
:1021500041F081E08C8B0E94451D6D8B7E8B8F8BB7
:10216000988FDF91CF9108951F93CF93DF93EC0168
:10217000162FE881F981838581110CC08A8981112C
:102180001BC08B898823C1F061E08DE00E94D91CBF
:102190001C8A12C08EA181110FC08B89882361F027
:1021A00060E08DE00E94D91C112331F0CE01DF9157
:1021B000CF911F910C949B10DF91CF911F910895A7
:1021C000EF92FF920F931F93CF93DF937B018A01CE
:1021D000E901F8948AE00E94B01C31E0892B09F4EF
:1021E00030E0F70130838BE00E94B01C31E0892B96
:1021F00009F030E0F801308383E00E94B01C31E048
:10220000892B09F430E038837894DF91CF911F91C6
:102210000F91FF90EF9008950F931F93CF93DF934B
:1022200000D01F92CDB7DEB78C019E012F5F3F4FCC
:10223000AE014E5F5F4FBE016D5F7F4F0E94E010A9
:102240009A81F801928B992311F061E001C060E05E
:1022500080E10E94D91C8A810F900F900F90DF912E
:10226000CF911F910F9108951F920F920FB60F9269
:1022700011248F939F9381E08093CA019091E10193
:102280009F5F9093E1019091E1019E3250F0809325
:10229000CC019091FE01911102C08093CB0110926C
:1022A000E1019F918F910F900FBE0F901F90189595
:1022B0001F920F920FB60F9211240F900FBE0F9026
:1022C0001F9018951F920F920FB60F9211248F93A3
:1022D00081E080933E028F910F900FBE0F901F9070
:1022E00018951F920F920FB60F9211248F9381E0D1
:1022F00080933F028F910F900FBE0F901F90189503
:10230000E0E6F0E098E1908380830895AF92BF9279
:10231000DF92EF92FF920F931F93CF93DF93CDB78E
:10232000DEB762970FB6F894DEBF0FBECDBF7C015B
:10233000B62ED42EA22E6093F102BC01CE010D96D2
:102340000E94D81B6FE174E0CE0101960E94CF1B62
:10235000BE016F5F7F4FC7010E94481A182FCE0140
:1023600001960E94CA1B112331F061E08DE393E0D6
:102370000E94A0244FC666E174E0CE0101960E943F
:10238000CF1BBE016F5F7F4FC7010E94481A182FF5
:10239000CE0101960E94CA1B112311F1E090DD02CB
:1023A000F090DE02BB2019F0F701108203C081E03B
:1023B000F7018083B7018CE291E00E947F1EF70154
:1023C0001182B7016F5F7F4F8AE190E00E947F1E0C
:1023D000F7011282B7016E5F7F4F86E190E018C669
:1023E0006EE074E0CE0101960E94CF1BBE016F5FCC
:1023F0007F4FC7010E94481A182FCE0101960E94F4
:10240000CA1B112309F466C060E08091DD0290913F
:10241000DE020E94C80B6DE78091DD029091DE0222
:102420000E94AB0B6BE48091DD029091DE020E9472
:102430008C0B60E08091DD029091DE020E94130D12
:10244000E091DD02F091DE021586BF01635F7F4FF0
:102450008AE390E00E947F1EE091DD02F091DE02AF
:102460001486BF01645F7F4F86E390E00E947F1E69
:10247000E091DD02F091DE02148EBF01645E7F4FB9
:102480008CE090E00E947F1E63E48091DD029091D9
:10249000DE020E94270DE091DD02F091DE0282E370
:1024A00090E0918F808FBF01685E7F4F84E090E065
:1024B0000E94401EE091DD02F091DE0282E090E099
:1024C000938F828FBF01665E7F4F82E190E00E9412
:1024D000401EA0C56AE074E0CE0101960E94CF1BA9
:1024E000BE016F5F7F4FC7010E94481A182FCE01AF
:1024F00001960E94CA1B1123F1F1E090DD02F090D9
:10250000DE026EE571E0CE0107960E94E11B10E04D
:10251000F70180811817F8F4FBE01F9FA001112438
:10252000405D5E4F2AE0B701CE0101960E94971EE2
:10253000BE016F5F7F4FCE0107960E94341BCE0114
:1025400001960E94CA1B6DE571E0CE0107960E94BC
:10255000251B1F5FDDCF6EE571E0CE0107960E945F
:10256000631A882309F46EC560E074E0CE01079613
:102570000E943B1B67C56AEF73E0CE0101960E9483
:10258000CF1BBE016F5F7F4FC7010E94481A182FF3
:10259000CE0101960E94CA1B112329F08DED92E015
:1025A0000E94F10F78C566EF73E0CE0101960E949C
:1025B000CF1BBE016F5F7F4FC7010E94481A182FC3
:1025C000CE0101960E94CA1B112319F00E944628D1
:1025D0004EC56FEE73E0CE0101960E94CF1BBE0187
:1025E0006F5F7F4FC7010E94481A182FCE010196D6
:1025F0000E94CA1B112311F061E014C067EE73E062
:10260000CE0101960E94CF1BBE016F5F7F4FC701B5
:102610000E94481A182FCE0101960E94CA1B11234E
:1026200079F060E08091DD029091DE020E94C80B9B
:1026300061E08091DF029091E0020E94B410EAC450
:1026400061EE73E0CE0101960E94CF1BBE016F5F69
:102650007F4FC7010E94481A182FCE0101960E9491
:10266000CA1B112339F0E091DD02F091DE0281E016
:10267000848718C06AED73E0CE0101960E94CF1BDB
:10268000BE016F5F7F4FC7010E94481A182FCE010D
:1026900001960E94CA1B112359F0E091DD02F091CE
:1026A000DE021486BF01645F7F4F86E390E0B0C412
:1026B00064ED73E0CE0101960E94CF1BBE016F5FF7
:1026C0007F4FC7010E94481A182FCE0101960E9421
:1026D000CA1B112339F0E091DD02F091DE0281E0A6
:1026E000848F18C06DEC73E0CE0101960E94CF1B61
:1026F000BE016F5F7F4FC7010E94481A182FCE019D
:1027000001960E94CA1B112359F0E091DD02F0915D
:10271000DE02148EBF01645E7F4F8CE090E078C4CF
:1027200068EC73E0CE0101960E94CF1BBE016F5F83
:102730007F4FC7010E94481A182FCE0101960E94B0
:10274000CA1B1123E1F0F70184819581059708F4F4
:10275000A2C464E070E0C7010E94371A982F9D7FE1
:10276000913429F0843519F08E3409F094C4682F1F
:102770008091DD029091DE020E94270D4BC463EC34
:1027800073E0CE0101960E94CF1BBE016F5F7F4FA9
:10279000C7010E94481A182FCE0101960E94CA1B39
:1027A000F7011123D9F084819581059708F473C44A
:1027B00064E070E0C7010E94371A90ED980F8153D2
:1027C000833008F068C4E091DD02F091DE02978763
:1027D000BF01615F7F4F8CEB90E01AC40481015010
:1027E0006FEB73E0CE0101960E94CF1B23E0AE0198
:1027F0004F5F5F4FB7018DED92E00E94660D182F7D
:10280000CE0101960E94CA1B1123A1F0C7010E94AC
:102810001B24882309F43FC4C7010E94DE196F36C8
:10282000710508F438C48091DD029091DE020E94A7
:10283000AB0BF0C3F701048101506AEB73E0CE01EA
:1028400001960E94CF1B24E0AE014F5F5F4FB7019E
:102850008DED92E00E94660D182FCE0101960E9428
:10286000CA1B1123B9F0C7010E941B24882309F455
:1028700012C4C7010E94DE199B01215031092E3577
:10288000310508F008C48091DD029091DE020E94BB
:102890008C0BC0C366E671E0CE0101960E94E11B7D
:1028A000BE016F5F7F4FC7010E94481A082FCE01FB
:1028B00001960E94CA1B002309F46FC064E871E00E
:1028C000CE0107960E94E11B0E94A226BC01CE0108
:1028D00007960E9446336CE671E0CE0107960E948F
:1028E000251BE091DD02F091DE0264897589CE013D
:1028F00007960E94463360E771E0CE0107960E947A
:10290000251BE091DD02F091DE0260897189CE0124
:1029100007960E94463364E771E0CE0107960E9455
:10292000251BE091DD02F091DE0262897389CE0100
:1029300007960E94463368E771E0CE0107960E9431
:10294000251BE091DD02F091DE026789CE0107963A
:102950000E9476336DE771E0CE0107960E94251B39
:10296000E091DD02F091DE026689CE0107960E94B9
:102970007633BE01695F7F4FCE0101960E94D81B5E
:1029800040E061E0CE0101960E944A22CE0101960C
:102990000E94CA1BCE010796F4C263EB73E0CE011E
:1029A00001960E94CF1BBE016F5F7F4FC7010E943F
:1029B000481A082FCE0101960E94CA1B002309F471
:1029C000BCC06CEA73E0C7010E943B1B4CE95DE0B0
:1029D00060E070E0C7010E941C25882339F0C70120
:1029E0000E94DE19162F110F160F01C01FEF65E0B0
:1029F0008DED92E00E943B0D65EA73E0C7010E94F5
:102A00003B1B4FEC5DE060E070E0C7010E941C25BD
:102A1000882349F16DE371E0CE0107960E94E11B26
:102A2000F701448155818B859C85481B590BBE015C
:102A3000695F7F4FC7010E94E9199C0140E050E0A7
:102A4000B701CE0101960E94F61BCE0101960E94AD
:102A5000DE19062FCE0101960E94CA1BCE010796F1
:102A60000E94CA1B01C00FEFA090DF02B090E002ED
:102A7000C5010E947F10F82EF501E28866E373E03D
:102A8000CE0101960E94CF1BE091DD02F091DE02A3
:102A90008385811106C06EE273E0CE0101960E942B
:102AA0003B1B62E871E0CE0101960E94251BF1E01C
:102AB000FF1631F082E0F81631F06EE173E005C0E8
:102AC00062E173E002C064E273E0CE0101960E940D
:102AD000B41A67E173E0CE0101960E94B41AE110C6
:102AE00003C067E073E002C06DE073E0CE010196C1
:102AF0000E94B41A0F3F59F060E073E0CE010196D6
:102B00000E94B41A602FCE0101960E9476331F3FB7
:102B100059F066EF72E0CE0101960E94B41A612F5F
:102B2000CE0101960E94763340E061E0CE0101962D
:102B30000E944A22CE01019698C260EA73E0CE015B
:102B400001960E94CF1BBE016F5F7F4FC7010E949D
:102B5000481A882329F0BB2011F011E001C01A2D7A
:102B6000CE0101960E94CA1B112359F0E091DD02AB
:102B7000F091DE028281882309F48DC281E0818395
:102B800018C06AE973E0CE0101960E94CF1BBE0116
:102B90006F5F7F4FC7010E94481A182FCE01019620
:102BA0000E94CA1B112359F0E091DD02F091DE0270
:102BB0001182BF016F5F7F4F8AE190E029C2F70168
:102BC0000481015064E973E0CE0101960E94CF1B9D
:102BD00025E0AE014F5F5F4FB7018DED92E00E949F
:102BE000660D182FCE0101960E94CA1B1123F1F029
:102BF000C7010E941B24882309F44DC2C7010E940B
:102C0000DE198B016630710510F005E010E0E091EF
:102C1000DD02F091DE020587BF01635F7F4F8AE32B
:102C200090E00E947F1E6EE873E07BC0F701048194
:102C3000015065E873E0CE0101960E94CF1B28E0A9
:102C4000AE014F5F5F4FB7018DED92E00E94660DC0
:102C5000182FCE0101960E94CA1B112329F1C7012A
:102C60000E941B24882309F416C2C7010E94DE19A2
:102C70008B016230710530F0613B744028F000EB4D
:102C800014E002C002E010E0E091DD02F091DE020B
:102C9000138F028FBF01665E7F4F82E190E00E943A
:102CA000401E6CE773E03DC0F7010481015063E70B
:102CB00073E0CE0101960E94CF1B28E0AE014F5F6A
:102CC0005F4FB7018DED92E00E94660D182FCE0187
:102CD00001960E94CA1B112371F1C7010E941B2497
:102CE000882309F4D8C1C7010E94DE198B01623321
:102CF000710530F06138704728F000E810E702C035
:102D000002E310E0E091DD02F091DE02118F008F0E
:102D1000BF01685E7F4F84E090E00E94401E6AE63B
:102D200073E0CE010D960E943B1BB801CE010D96BB
:102D30000E9446336FC1F7010481015066E673E0DB
:102D4000CE0101960E94CF1B23E0AE014F5F5F4F83
:102D5000B7018DED92E00E94660D182FCE0101960D
:102D60000E94CA1B112319F16AE573E0CE01079690
:102D70000E94CF1BB701CE0107960E94341B6FE45F
:102D800071E0CE0107960E94251B81E08093F2023C
:102D9000BE01695F7F4FCE0101960E94D81BBE0124
:102DA0006F5F7F4F8DED92E00E94242658C167E847
:102DB00071E0CE0101960E94E11B0CE022E0AE0121
:102DC0004F5F5F4FB7018DED92E00E94660D182FA7
:102DD000CE0101960E94CA1B112309F448C0C70105
:102DE0000E941B24882309F456C10091DD02109132
:102DF000DE02F8018081823008F44DC1B701C801BC
:102E00000E94830CF82E8FEF8F0D8D3F08F043C189
:102E10008BE0E82E2F2D30E0F8019081492F50E013
:102E20004150510924173507FCF42F5F3F4FE29EB4
:102E30005001E39EB00C1124A501405D5E4F2AE0D5
:102E4000B801CE0101960E94971EB5016B5D7E4FC1
:102E5000AE014F5F5F4FC8010E94D132CE01019693
:102E60000E94CA1BF394D6CF9150908348C06BE860
:102E700071E0CE0101960E94E11B0CE022E0AE0160
:102E80004F5F5F4FB7018DED92E00E94660D182FE6
:102E9000CE0101960E94CA1B1123A9F1C7010E940D
:102EA0001B24882309F4F7C00091DD021091DE0293
:102EB000F80180818F3009F4EEC0B701C8010E948B
:102EC000830C8F3F09F0E7C0B701CE0101960E9445
:102ED000D81BF8016081FBE06F9FB0011124605D99
:102EE0007E4FAE014F5F5F4FC8010E94D132CE01CD
:102EF00001960E94CA1BF80180818F5F8083B80110
:102F00008CE291E085C06AE871E0CE0101960E94F2
:102F1000E11B0DE023E0AE014F5F5F4FB7018DED88
:102F200092E00E94660D182FCE0101960E94CA1BE6
:102F3000112351F1C7010E941B24882309F4ABC05F
:102F40000091DD021091DE02F8018081882309F4EE
:102F5000A2C081E08283B8016E5F7F4F86E190E07E
:102F60000E947F1EB701CE0101960E94D81BAE01C0
:102F70004F5F5F4F6EE170E0C8010E94D132CE0119
:102F800001960E94CA1B46C06EE871E0CE01019610
:102F90000E94E11B0DE023E0AE014F5F5F4FB701E0
:102FA0008DED92E00E94660D182FCE0101960E94D1
:102FB000CA1B112309F46FC0C7010E941B24882378
:102FC00009F469C00091DD021091DE0281E0F80190
:102FD0008383B8016D5F7F4F88E590E00E947F1E7C
:102FE000B701CE0101960E94D81BAE014F5F5F4F23
:102FF00060E670E0C8010E94D132CE0101960E94C5
:10300000CA1BF8011482B8016C5F7F4F8CE590E019
:103010000E947F1E11E0D1102AC064E573E0CE014A
:1030200007960E94CF1B111106C06BE473E0CE011E
:1030300007960E943B1BBE01635F7F4FCE01079640
:103040000E94341BBE01695F7F4FCE0101960E9432
:10305000D81B40E061E0CE0101960E944A22CE01D9
:1030600001960E94CA1BCE0107960E94CA1BCE0180
:103070000D960E94CA1B62960FB6F894DEBF0FBE73
:10308000CDBFDF91CF911F910F91FF90EF90DF9017
:10309000BF90AF90089510E0BECF0895CF92DF9219
:1030A000EF92FF920F931F93CF93DF936C017A01FE
:1030B0008B01C0E0D0E0CE15DF0589F0D8016D911D
:1030C0008D01D601ED91FC910190F081E02DC601BA
:1030D0000995892B11F47E0102C02196ECCFC7011E
:1030E000DF91CF911F910F91FF90EF90DF90CF90E4
:1030F0000895089580E090E00895FC01538D448D7B
:10310000252F30E0842F90E0821B930B541710F092
:10311000CF96089501970895FC01918D828D98179F
:1031200061F0828DDF01A80FB11D5D968C91928DAB
:103130009F5F9F73928F90E008958FEF9FEF0895A8
:10314000FC01918D828D981731F0828DE80FF11D71
:10315000858D90E008958FEF9FEF0895FC01918D8C
:10316000228D892F90E0805C9F4F821B91098F7385
:103170009927089580E492E00E94AE1821E0892BFF
:1031800009F420E0822F0895FC01848DDF01A80F4F
:10319000B11DA35ABF4F2C91848D90E001968F737F
:1031A0009927848FA689B7892C93A089B1898C919E
:1031B00080648C93938D848D981306C00288F38964
:1031C000E02D80818F7D80830895EF92FF920F9391
:1031D0001F93CF93DF93EC0181E0888F9B8D8C8DC3
:1031E000981305C0E889F989808185FD24C0F62EF1
:1031F0000B8D10E00F5F1F4F0F731127E02E8C8D8A
:10320000E8120CC00FB607FCFACFE889F989808173
:1032100085FFF5CFCE010E94C418F1CF8B8DFE0142
:10322000E80FF11DE35AFF4FF0820B8FEA89FB890B
:103230008081806207C0EE89FF896083E889F9890F
:1032400080818064808381E090E0DF91CF911F9145
:103250000F91FF90EF900895CF93DF93EC01888D4D
:103260008823C9F0EA89FB89808185FD05C0A8898A
:10327000B9898C9186FD0FC00FB607FCF5CF808110
:1032800085FFF2CFA889B9898C9185FFEDCFCE015A
:103290000E94C418E7CFDF91CF91089580E090E0BD
:1032A000892B29F00E94BA1881110C94000008950E
:1032B000833081F028F4813099F08230A1F00895B4
:1032C0008730A9F08830B9F08430D1F48091800043
:1032D0008F7D03C0809180008F7780938000089558
:1032E00084B58F7702C084B58F7D84BD08958091A9
:1032F000B0008F7703C08091B0008F7D8093B000C5
:10330000089508950E94A839CF93DF93EC01888136
:103310009981009711F00E944638198218821D8207
:103320001C821B821A82DF91CF9108950F931F9305
:10333000CF93DF93EC0188819981009729F02A814E
:103340003B812617370788F48B016F5F7F4F0E9400
:10335000DE38009761F0998388831B830A832C8170
:103360003D81232B11F4FC01108281E001C080E03B
:10337000DF91CF911F910F910895EF92FF920F93DC
:103380001F93CF93DF93EC017B018A01BA010E9466
:103390009619811104C0CE010E94841907C01D83B3
:1033A0000C83B701888199810E94D239CE01DF91C7
:1033B000CF911F910F91FF90EF900895FC018081B4
:1033C0009181009711F00C94D93460E070E0CB014A
:1033D0000895AF92BF92CF92DF92EF92FF920F9338
:1033E0001F93CF93DF937B018A01FB0144815581B9
:1033F0004115510561F1FC0124813581211531050B
:1034000031F12417350718F10217130718F0890155
:1034100001501109FC01A080B180C501DFEFCFEFA1
:103420006501C00ED11EC816D906A0F0F701608153
:1034300071810E94F639009769F09C012A193B09B5
:103440000217130710F0D22FC32F0196ECCF8FEF86
:103450009FEF02C08D2F9C2FDF91CF911F910F9175
:10346000FF90EF90DF90CF90BF90AF900895FC0158
:10347000248135816217730748F480819181009718
:1034800029F0FC01E60FF71F8081089580E0089580
:10349000FB0144815581FC012481358124173507C6
:1034A00078F080819181009759F0FB0160817181F2
:1034B0006115710529F00E94D93921E0892B09F0A5
:1034C00020E0822F0895FC0124813581232B31F4E3
:1034D00021E061157105A1F0FB0108C0FC018081AC
:1034E00091816115710531F421E0FC01808188230F
:1034F00039F005C00E94C93921E0892B09F020E08C
:10350000822F0895FC0124813581FB01448155817E
:103510002417350721F5FC0180819181FB01608131
:103520007181009719F061157105A1F4611571059C
:1035300049F0232BB1F0FB01808190E091958195BA
:1035400091090AC0009769F0232B59F0FC01808192
:1035500090E002C00E94C93921E0892B19F020E0D7
:1035600001C021E0822F0895EF92FF920F931F93E5
:10357000CF93DF936115710511F480E01EC08B01BC
:10358000EC01CB010E9412350097B1F02C813D81F6
:103590007C01E20EF31EB701CE010E94961988232A
:1035A00061F3288139818C819D81B801820F931F3D
:1035B0000E940B35FD82EC8281E0DF91CF911F915B
:1035C0000F91FF90EF900895EF92FF920F931F934A
:1035D000CF93DF93FC01248135816115710511F4CE
:1035E00080E019C041155105A9F07B01EC018A0169
:1035F000020F131FB8010E949619882389F32881AE
:1036000039818C819D81B701820F931F0E94D2392D
:103610001D830C8381E0DF91CF911F910F91FF906B
:10362000EF900895CF93DF9300D0CDB7DEB76983D5
:103630001A8241E050E0BE016F5F7F4F0E94E41AA2
:103640000F900F90DF91CF9108956115710551F0A2
:10365000FB0101900020E9F73197AF01461B570BA2
:103660000C94E41A80E00895FB0144815581608147
:1036700071810C94E41AEF92FF920F931F93CF93F2
:10368000DF93EC018B016115710551F0CB010E94B4
:1036900012357C01BC01CE010E949619811104C033
:1036A000CE010E94841907C0FD82EC82B801888196
:1036B00099810E940B35CE01DF91CF911F910F911F
:1036C000FF90EF900895CF93DF93EC0161157105A2
:1036D00059F0FB0101900020E9F73197AF01461B3B
:1036E000570B0E94BD1902C00E948419CE01DF91C0
:1036F000CF910895CF93DF93EC01FB0186179707D5
:1037000061F0608171816115710529F044815581F5
:103710000E94BD1902C00E948419CE01DF91CF9191
:1037200008950F931F93CF93DF938C01EB01FC015E
:10373000808191810097B1F068817981611571056F
:1037400079F0428153812C813D814217530740F02B
:103750000E94D2398C819D81F8019583848313C0A6
:103760000E94463888819981F801918380838A81FB
:103770009B81938382838C819D819583848319822D
:1037800018821B821A821D821C82DF91CF911F91A9
:103790000F910895FC01808191810C944638FC01C1
:1037A0001182108213821282158214820C943B1BA8
:1037B000FC011182108213821282158214820C94F1
:1037C0007A1BFC01118210821382128215821482EC
:1037D0006115710551F0FB0101900020E9F7319767
:1037E000AF01461B570B0C94BD190895BF92CF92A1
:1037F000DF92EF92FF920F931F93CF93DF937C01A1
:103800006B018A01E9012417350720F4812F890112
:10381000C42FD82F6EE571E0C7010E94E11BD601CD
:1038200014968D919C91159708171907D0F48C1751
:103830009D0708F4EC01D601ED91FC911197EC0F76
:10384000FD1FB08010824D915C91BA01600F711F15
:10385000C7010E94631BD601ED91FC91EC0FFD1F87
:10386000B082C701DF91CF911F910F91FF90EF9030
:10387000DF90CF90BF900895DC01ED91FC91019015
:10388000F081E02D09946115710579F0FB0101903B
:103890000020E9F73197AF01461B570BDC01ED9192
:1038A000FC910280F381E02D099480E090E008957E
:1038B0001F920F920FB60F9211242F933F934F93A5
:1038C0005F936F937F938F939F93AF93BF93EF9388
:1038D000FF9380E492E00E94C418FF91EF91BF91A2
:1038E000AF919F918F917F916F915F914F913F9198
:1038F0002F910F900FBE0F901F9018951F920F924F
:103900000FB60F9211242F938F939F93EF93FF93F2
:10391000E0915002F09151028081E0915602F091C5
:10392000570282FD12C09081809159028F5F8F7380
:1039300020915A02821751F0E0915902F0E0E05CC8
:10394000FD4F958F8093590201C08081FF91EF91C7
:103950009F918F912F910F900FBE0F901F901895F0
:10396000CF93DF93282F30E0F901E659FB4F849184
:10397000F901EA5AFB4FD491F901EE5BFB4FC49178
:10398000CC2391F081110E945819EC2FF0E0EE0F3A
:10399000FF1FE85CFB4FA591B491EC91ED2381E012
:1039A00090E021F480E002C080E090E0DF91CF91D0
:1039B00008951F93CF93DF93282F30E0F901E65944
:1039C000FB4F8491F901EA5AFB4FD491F901EE5B68
:1039D000FB4FC491CC23C9F0162F81110E945819B6
:1039E000EC2FF0E0EE0FFF1FE25DFB4FA591B491CD
:1039F0008FB7F894111105C09C91ED2FE095E92344
:103A000002C0EC91ED2BEC938FBFDF91CF911F9112
:103A10000895CF93DF9390E0FC01EA5AFB4F249185
:103A2000FC01EE5BFB4F8491882361F190E0880FED
:103A3000991FFC01EC5DFB4FC591D491FC01E25D47
:103A4000FB4FA591B491611109C09FB7F89488818B
:103A5000209582238883EC912E230BC0623061F481
:103A60009FB7F8943881822F809583238883EC91C7
:103A70002E2B2C939FBF06C08FB7F894E8812E2B76
:103A800028838FBFDF91CF9108952FB7F89460916D
:103A9000E7017091E8018091E9019091EA012FBF5F
:103AA00008950F931F93CF93DF93EC010E94451D60
:103AB000688779878A879B87E881F9810284F38503
:103AC000E02DCE01099597FF17C00E94451D08857E
:103AD00019852A853B85DC01CB01801B910BA20B4C
:103AE000B30B0C811D812E813F8180179107A207A6
:103AF000B30710F38FEF9FEFDF91CF911F910F91DD
:103B000008951F920F920FB60F9211242F933F9397
:103B10008F939F93AF93BF938091E7019091E801BA
:103B2000A091E901B091EA013091E60126E0230F6E
:103B30002D3720F40296A11DB11D05C029E8230FE1
:103B40000396A11DB11D2093E6018093E701909398
:103B5000E801A093E901B093EA018091E20190911C
:103B6000E301A091E401B091E5010196A11DB11D11
:103B70008093E2019093E301A093E401B093E50107
:103B8000BF91AF919F918F913F912F910F900FBE59
:103B90000F901F9018951F920F920FB60F9211243D
:103BA0002F933F934F935F936F937F938F939F9345
:103BB000AF93BF93EF93FF93E0910201F091030164
:103BC0000995FF91EF91BF91AF919F918F917F9157
:103BD0006F915F914F913F912F910F900FBE0F907A
:103BE0001F9018951F920F920FB60F9211242F93CA
:103BF0003F934F935F936F937F938F939F93AF9375
:103C0000BF93EF93FF93E0910001F09101010995BB
:103C1000FF91EF91BF91AF919F918F917F916F91A4
:103C20005F914F913F912F910F900FBE0F901F907A
:103C30001895EF92FF920F931F93CF93DF9300D0CD
:103C4000CDB7DEB78C017B019A838983CE010196C3
:103C50000E94F40CF70180830F5F1F4F1A830983C2
:103C6000CE0101960E94F40CF7018183C7010F90E9
:103C70000F90DF91CF911F910F91FF90EF900895DA
:103C8000EF92FF920F931F93CF93DF9300D0CDB7A6
:103C9000DEB78C017B01FB0160819A838983CE01B1
:103CA00001960E94F90CF70161810F5F1F4F1A8383
:103CB0000983CE0101960E94F90CC7010F900F9065
:103CC000DF91CF911F910F91FF90EF9008950F9387
:103CD0001F93CF93DF9300D0CDB7DEB78B019A83CC
:103CE0008983CE0101960E94F40CF8018083C801FB
:103CF0000F900F90DF91CF911F910F9108950F9327
:103D00001F93CF93DF9300D0CDB7DEB78B01FB01BC
:103D100060819A838983CE0101960E94F90CC801C3
:103D20000F900F90DF91CF911F910F9108956F9297
:103D30007F928F929F92AF92BF92CF92DF92EF923B
:103D4000FF920F931F93CF93DF9300D0CDB7DEB7D1
:103D50006C013A01ADB6BEB6822F90E001964DB728
:103D60005EB7481B590B0FB6F8945EBF0FBE4DBF30
:103D70008DB79EB701964C01611494E0790688F5E1
:103D8000FF24F394F20E69F1E1E0FE1202C0F401A7
:103D900027C07A826982CE0101960E94F40CF40158
:103DA0008083EE24E3948823E1F00E2D10E0EF14DD
:103DB00098F4C801860D971D8115F4E09F0760F403
:103DC0009A838983CE0101960E94F40CF401E00FDE
:103DD000F11F8083E394E7CF080D191DF801319797
:103DE0001082B401C6010E94E11BC6010FB6F8940F
:103DF000BEBE0FBEADBE0F900F90DF91CF911F9151
:103E00000F91FF90EF90DF90CF90BF90AF909F9079
:103E10008F907F906F9008950F931F93CF93DF93B0
:103E200000D000D000D0CDB7DEB7FC01828188235E
:103E3000C1F08B01BF012AE04EE150E0CE010196B6
:103E40000E94971EBE016F5F7F4FC8010E94821AB9
:103E500011E0811101C010E0CE0101960E94CA1B41
:103E600001C010E0812F26960FB6F894DEBF0FBE7A
:103E7000CDBFDF91CF911F910F9108952F923F9267
:103E80004F925F926F927F928F929F92AF92BF926A
:103E9000CF92DF92EF92FF920F931F93CF93DF9316
:103EA00000D01F92CDB7DEB760E070E00E94371AF5
:103EB000813351F40E94152661E08091DF029091D8
:103EC000E0020E9439107EC1823361F40E941526FF
:103ED00020E040E061E08091DF029091E0020E94EA
:103EE000F80F70C1833309F066C00E941526009157
:103EF000DF021091E002C8010E947F10843011F4AB
:103F00008CE40EC0823011F481E40AC0813049F49F
:103F1000C8010E940C11882311F08BE201C08FE5CB
:103F20008983D801ED91FC918385882311F089E282
:103F300001C08BE58A831B82F80102811381D801BD
:103F4000D9968D919C91DA97DC01ED91FC910680D8
:103F5000F781E02D0995BE016F5F7F4FFB01019056
:103F60000020E9F73197E61BF70B389708F02AC1D4
:103F7000F80117A6FB0101900020E9F73197E61B35
:103F8000F70BD801D096EC93C801C1960E94D239A4
:103F90000E94451DF801668377838087918787A5F6
:103FA000E80FF11D81A9D8011B968C931B9781E026
:103FB0001A968C9307C1803309F065C08091EA029C
:103FC000882309F45CC00091DF021091E002F8013F
:103FD0008289882309F4B3C0878D8111B0C080A184
:103FE0008111ADC086A18111AAC0C8010E9429100B
:103FF0008111ADC0A4C0B60180E090E00E94B3354D
:104000002B013C01F701668970E080E090E00E949E
:10401000B3359B01AC01C301B2010E94F03520E031
:1040200030E048EC52E40E940A370E947C374B0192
:104030005C01D70157966C9170E080E090E00E949F
:10404000B3359B01AC01C301B2010E94F03520E001
:1040500030E048EC52E40E940A370E947C372B0182
:104060003C016F3F734008F47EC068E2D8011296AD
:104070008D919C9113970E94FE0E0E94152681E05F
:104080008093EA029FC08434B1F461E08091DD0244
:104090009091DE020E94C80B61E08091DF02909156
:1040A000E0020E94B41060E08091DF029091E00293
:1040B0000E94391012C0833499F460E08091DD02CF
:1040C0009091DE020E94C80B21E040E060E0809108
:1040D000DF029091E0020E94F80F0E944D2672C00C
:1040E000883399F40E94152661E08091DD02909159
:1040F000DE020E94C80B61E08091DF029091E00235
:104100000E94B41041E069E215C0893309F05AC039
:104110000E94152660E08091DD029091DE020E94EF
:10412000C80B61E08091DF029091E0020E94B41020
:1041300041E06BE58DED92E00E94C90E43C060E066
:10414000F801808191810E94130D69E58FCF0E9453
:10415000A2266C01F801E080F180C29708F04BCFF5
:1041600060E0C701F0CFE0E48E16910408F47DCF43
:10417000F701D58AC48AB7016C5E7F4F88EA90E068
:104180000E94401ED801ED91FC91938A828ABF0162
:104190006E5E7F4F80EB90E00E94401ED801ED9153
:1041A000FC91518A408ABF01605F7F4F8CEA90E0AA
:1041B0000E94401E61E0F801808191810E94130DF0
:1041C0006BE454CF0F900F900F90DF91CF911F9120
:1041D0000F91FF90EF90DF90CF90BF90AF909F90A6
:1041E0008F907F906F905F904F903F902F900895A9
:1041F000EF92FF920F931F93CF93DF9300D000D0E5
:1042000000D0CDB7DEB77C0162E971E0CE01019646
:104210000E94E11B08E027E0AE014F5F5F4FB7014E
:104220008DED92E00E94660D182FCE0101960E943E
:10423000CA1B812F26960FB6F894DEBF0FBECDBFE6
:10424000DF91CF911F910F91FF90EF900895109201
:10425000FC021092E9028091160390911703DC0191
:10426000ED91FC910680F781E02D099541E06AEE21
:1042700074E08DED92E00E94810E0E94451D61E088
:104280008DED92E00E943B0D41E069EE74E08DED12
:1042900092E00E94810E8091160390911703DC0139
:1042A000ED91FC910680F781E02D099510920603AF
:1042B0001092EA028091FA028E3411F0823549F5AB
:1042C0008091FB028F3429F58091FE02811121C07B
:1042D0008091FD0281111DC0E091DD02F091DE02AE
:1042E000858D8435B1F48081823098F081E08093AF
:1042F000FE028093FF020E94451D609300037093AD
:10430000010380930203909303038091050380933C
:1043100004031092FD028EE48093FA028093FB0264
:104320001092E1020E94451D6093080370930903F7
:1043300080930A0390930B03109207030895FF9252
:104340000F931F93CF93DF9300D000D000D0CDB751
:10435000DEB78C016DED74E0CE0101960E94CF1B9B
:10436000BE016F5F7F4FC8010E94481AF82ECE0130
:1043700001960E94CA1BFF20E1F02CE030E04BE0E8
:1043800050E0B801CE0101960E94F61B60E070E09B
:10439000CE0101960E94371A182FCE0101960E9475
:1043A000CA1B123341F0133341F0103341F016337E
:1043B00041F08EE407C084E405C082E503C089E4CF
:1043C00001C085E426960FB6F894DEBF0FBECDBFC0
:1043D000DF91CF911F910F91FF900895FF920F935E
:1043E0001F93CF93DF9300D000D000D0CDB7DEB7BE
:1043F0008C0161ED74E0CE0101960E94CF1BBE01DD
:104400006F5F7F4FC8010E94821AF82ECE0101967D
:104410000E94CA1BFF2011F091E02FC06BEC74E0EA
:10442000CE0101960E94CF1BBE016F5F7F4FC80176
:104430000E94821AF82ECE0101960E94CA1BF1102A
:10444000EBCF60EC74E0CE0101960E94CF1BBE0161
:104450006F5F7F4FC8010E94821AF82ECE0101962D
:104460000E94CA1BF110D8CF6AE971E0C8010E940E
:10447000631A91E0811101C090E0892F26960FB652
:10448000F894DEBF0FBECDBFDF91CF911F910F918A
:10449000FF900895EF92FF920F931F93CF93DF93B6
:1044A000CDB7DEB762970FB6F894DEBF0FBECDBFB3
:1044B0007C01062F142F81E08093E902809116037E
:1044C00090911703DC01ED91FC910680F781E02DBE
:1044D0000995B701CE010D960E94D81B011126C087
:1044E000809105038F34B1F034F4833499F086342D
:1044F00009F0E2C00FC0833521F0853509F0DCC03A
:1045000009C061EA71E0CE010D960E94631B68EA62
:1045100071E008C061EA71E0CE010D960E94631B54
:104520006BEA71E0CE010D960E94251B6FEA71E0E7
:10453000CE0107960E94E11B1230B9F46091DD02B2
:104540007091DE02FB018381882341F02AE040E67E
:1045500050E0CE0101960E94971E1AC06EE571E0F0
:10456000CE0101960E94E11B13C08091F1028823C5
:1045700039F065EB74E0CE0107960E94B41A13C0BF
:104580006091DD027091DE02CE0101960E94DE0B89
:10459000BE016F5F7F4FCE0107960E94341BCE0194
:1045A00001960E94CA1B6FE471E0CE0107960E943B
:1045B000251B8091160390911703DC01ED91FC916E
:1045C0000680F781E02D0995BE01695F7F4FCE011E
:1045D00001960E94D81BBE016F5F7F4F8DED92E068
:1045E0000E942426CE0101960E94CA1B80911603C8
:1045F00090911703DC01ED91FC910680F781E02D8D
:1046000009956AE08DED92E00E943B0DBE01635F6B
:104610007F4FCE0101960E94D81BBE016F5F7F4F76
:104620008DED92E00E942426CE0101960E94CA1BC5
:104630008091160390911703DC01ED91FC910680A7
:10464000F781E02D09956AE08DED92E00E943B0D27
:104650008091160390911703DC01ED91FC91068087
:10466000F781E02D09958DED92E00E94600E00919A
:104670001603109117036AE1C8010E943C1C6CE507
:1046800071E0C8010E94431C8091160390911703AA
:10469000DC01ED91FC910680F781E02D09956AE03F
:1046A0008DED92E00E943B0D1092F1021092E90212
:1046B000CE0107960E94CA1BCE010D960E94CA1B0E
:1046C00062960FB6F894DEBF0FBECDBFDF91CF91DB
:1046D0001F910F91FF90EF900895CF93DF9300D03B
:1046E00000D000D0CDB7DEB79091FD02911119C076
:1046F000E091DD02F091DE02958D913491F480938A
:1047000005036EE571E0CE0101960E94E11B40E0D9
:1047100060E0CE0101960E944A22CE0101960E94DD
:10472000CA1B26960FB6F894DEBF0FBECDBFDF9131
:10473000CF9108950F931F93CF93DF93CDB7DEB73B
:104740006E970FB6F894DEBF0FBECDBF8C016AEA3C
:1047500074E0CE0101960E94CF1BBE016F5F7F4FB8
:10476000C8010E94821A81114DC06FE974E0CE0128
:1047700007960E94CF1BBE01695F7F4FC8010E9450
:10478000821A811141C064E974E0CE010D960E9445
:10479000CF1BBE01635F7F4FC8010E94821A811147
:1047A00035C069E874E0CE0143960E94CF1BBE017C
:1047B0006D5E7F4FC8010E94821A811115C06EE79D
:1047C00074E0CE0149960E94CF1BBE01675E7F4F09
:1047D000C8010E94821A11E0811101C010E0CE01CF
:1047E00049960E94CA1B01C011E0CE0143960E9467
:1047F000CA1BCE010D960E94CA1BCE0107960E94CD
:10480000CA1B09C080E004C081E002C011E0F1CF02
:1048100011E08111F2CFCE0101960E94CA1B812FB7
:104820006E960FB6F894DEBF0FBECDBFDF91CF916D
:104830001F910F910895EF92FF920F931F93CF93C3
:104840008C01FC01E480F580C0E06C2F70E06E15F7
:104850007F0568F4C8010E94371A282F880F330B90
:10486000205331092A30310520F4CF5FEECF81E0AB
:1048700001C080E0CF911F910F91FF90EF900895BC
:104880000F931F93CF93DF93EC018B016EE571E0E3
:104890000E94E11BC8010E94511D97FD08C08A308B
:1048A000910529F0682FCE010E94121BF3CFCE0193
:1048B000DF91CF911F910F910895EF92FF920F9387
:1048C0001F93CF93DF9300D000D000D0CDB7DEB7D9
:1048D0008C016EE571E00E94E11B809116039091BE
:1048E0001703DC01ED91FC910084F185E02D099521
:1048F00018161906BCF48DED92E00E94600E6091CE
:10490000160370911703CE0101967C010E9440248A
:104910000E151F0521F0B701C8010E94911BC701A8
:104920000E94CA1BC80126960FB6F894DEBF0FBEC0
:10493000CDBFDF91CF911F910F91FF90EF90089520
:104940008F929F92AF92BF92CF92DF92EF92FF929F
:104950001F93CF93DF9300D000D000D0CDB7DEB748
:10496000162F40E0BC018DED92E00E94810E0E9466
:10497000451D4B015C01112339F090E6C92E9AEEDA
:10498000D92EE12CF12C15C088EBC82E8BE0D82E47
:10499000E12CF12C0EC08091160390911703DC01DD
:1049A000ED91FC910084F185E02D0995181619060A
:1049B00074F00E94451DDC01CB0188199909AA09F0
:1049C000BB098C159D05AE05BF0528F321C0CE019E
:1049D00001960E945D246CEB71E0CE0101960E946D
:1049E000631A81110DC06AE971E0CE0101960E943F
:1049F000631A811107C0CE0101960E94CA1BD9CF4C
:104A000011E001C010E0CE0101960E94CA1B01C056
:104A100010E0812F26960FB6F894DEBF0FBECDBFF3
:104A2000DF91CF911F91FF90EF90DF90CF90BF90DB
:104A3000AF909F908F9008958F929F92AF92BF9268
:104A4000CF92DF92EF92FF920F931F93CF93DF935A
:104A500000D000D000D0CDB7DEB76C017A010E9443
:104A6000451D4B015C01B601CE0101960E94D81B89
:104A7000BE016F5F7F4F8DED92E00E942426CE0134
:104A800001960E94CA1B0E94451D8B019C010819BA
:104A900019092A093B09003A1F402105310530F563
:104AA0008091160390911703DC01ED91FC91008435
:104AB000F185E02D0995892B31F3CE0101960E94F5
:104AC0005D24BE016F5F7F4F8DED92E0F701099588
:104AD000182F8823A1F2BE016F5F7F4FC6010E948D
:104AE0007A1BCE0101960E94CA1B01C010E0812FE3
:104AF00026960FB6F894DEBF0FBECDBFDF91CF91E3
:104B00001F910F91FF90EF90DF90CF90BF90AF90EB
:104B10009F908F900895FC01A089B18982E08C93C9
:104B2000A485B5851C92A685B78583E38C93108EEA
:104B3000A489B58986E08C93A289B3898C91806120
:104B40008C93A289B3898C9188608C93A289B38954
:104B50008C9180688C930288F389E02D80818F7D11
:104B6000808308958091F202811119C09091FA0218
:104B70009E34B1F49091FB029E3491F4909107031E
:104B8000992371F09091060391110AC09091E90266
:104B9000911106C09091190381E08927089580E062
:104BA00008951F93CF93DF9300D000D000D0CDB7EE
:104BB000DEB72091E70221112EC0BC01CE01019683
:104BC0000E94D81B60EC71E0CE0101960E94631A2E
:104BD000182FCE0101960E94CA1B1123E1F080918B
:104BE0000D038230C0F0E0910C032E2F30E090E0F6
:104BF0000197281739074CF4EF5FE0930C03F0E0BE
:104C0000E352FD4F40E061A902C041E06DE48DED4B
:104C100092E00E94C90E26960FB6F894DEBF0FBE32
:104C2000CDBFDF91CF911F9108958DED92E00E944D
:104C3000AC0E0E94451D6093ED027093EE028093CE
:104C4000EF029093F00208950F931F93CF93DF9399
:104C5000EC018B010E94600E6EE571E0C8010E94BC
:104C6000631A09ACDAADC02D81110EC0E881F9815B
:104C7000D80114964D915C9115976D917C910280AD
:104C8000F381E02DCE0109956CE571E0CE01DF9155
:104C9000CF911F910F910C94431C0F931F93CF93AF
:104CA000DF93CDB7DEB72C970FB6F894DEBF0FBEFB
:104CB000CDBF66EF74E0CE0107960E94CF1B61E482
:104CC000CE0107960E94121B62EF74E0CE01079698
:104CD0000E94B41A0DED12E0D801D9968D919C91E5
:104CE000DA97DC01ED91FC910680F781E02D0995C2
:104CF000BE01695F7F4FCE0101960E94D81BBE01A5
:104D00006F5F7F4FC8010E942426CE0101960E944A
:104D1000CA1BF80181AD92ADDC01ED91FC910680DA
:104D2000F781E02D0995CE0107960E94CA1B2C96AB
:104D30000FB6F894DEBF0FBECDBFDF91CF911F91AC
:104D40000F91089585E480937C0080917A008064BF
:104D500080937A0080917A0086FDFCCF8091780064
:104D60002091790090E0922B08958F929F92AF92BC
:104D7000BF92CF92DF92EF92FF921F93CF93DF9378
:104D800000D000D000D0CDB7DEB77C01162F8DED5E
:104D900092E00E94600EB701809116039091170374
:104DA0000E94431C0E94451D4B015C01112339F0F8
:104DB00090E6C92E9AEED92EE12CF12C15C088EB85
:104DC000C82E8BE0D82EE12CF12C0EC0809116035A
:104DD00090911703DC01ED91FC910084F185E02DA9
:104DE00009951816190674F00E94451DDC01CB01C7
:104DF00088199909AA09BB098C159D05AE05BF053F
:104E000028F321C0CE0101960E945D246CEB71E075
:104E1000CE0101960E94631A81110DC06AE971E00A
:104E2000CE0101960E94631A811107C0CE0101963E
:104E30000E94CA1BD9CF11E001C010E0CE0101963B
:104E40000E94CA1B01C010E0812F26960FB6F8946D
:104E5000DEBF0FBECDBFDF91CF911F91FF90EF90CE
:104E6000DF90CF90BF90AF909F908F900895CF929A
:104E7000DF92EF92FF920F931F93CF93DF93CDB703
:104E8000DEB72C970FB6F894DEBF0FBECDBF40E063
:104E90006AE075E08DED92E00E94810E0E94451D52
:104EA0006B017C010E94451DDC01CB018C199D0921
:104EB000AE09BF0988389341A105B10508F043C088
:104EC0008091160390911703DC01ED91FC91008411
:104ED000F185E02D0995892B29F3609116037091D6
:104EE0001703CE0107960E9440246FEF74E0CE01B5
:104EF00001960E94CF1B0BE02AE0AE014F5F5F4F8F
:104F0000BE01695F7F4F8DED92E00E94660D182F04
:104F1000CE0101960E94CA1B112351F060E070E09F
:104F2000CE0107960E94371A833339F0813331F06E
:104F3000CE0107960E94CA1BB5CF10E0CE0107969E
:104F40000E94CA1B01C010E0812F2C960FB6F89466
:104F5000DEBF0FBECDBFDF91CF911F910F91FF90AC
:104F6000EF90DF90CF900895CF92DF92EF92FF9273
:104F70001F93CF93DF9300D000D000D0CDB7DEB722
:104F80007C018DED92E00E94600EB70180911603C6
:104F9000909117030E94431C0E94451D6B017C01E8
:104FA0000E94451DDC01CB018C199D09AE09BF098A
:104FB00088389341A105B10590F580911603909131
:104FC0001703DC01ED91FC910084F185E02D09953A
:104FD000892B31F36091160370911703CE0101966E
:104FE0000E9440246CEB71E0CE0101960E94631A8E
:104FF00081110DC06AE971E0CE0101960E94631A29
:10500000811107C0CE0101960E94CA1BC9CF11E0D1
:1050100001C010E0CE0101960E94CA1B01C010E041
:10502000812F26960FB6F894DEBF0FBECDBFDF915D
:10503000CF911F91FF90EF90DF90CF900895EF9266
:10504000FF920F931F93CF93DF9300D0CDB7DEB7BE
:105050008C017B01FB0160819A838983CE010196DB
:105060000E94F90CF70161810F5F1F4F1A830983BA
:10507000CE0101960E94F90CC7010F900F90DF91AD
:10508000CF911F910F91FF90EF900895CF92DF92F3
:10509000EF92FF920F931F93CF93DF93CDB7DEB7BD
:1050A00067970FB6F894DEBF0FBECDBF81E0809347
:1050B000F1026EE571E0CE010E960E94E11B4AE01E
:1050C0008E010F5F1F4FB8018BE990E00E944735BA
:1050D000F80101900020E9F73197AF01401B510B17
:1050E000B801CE010E960E94E41A69E175E0CE0186
:1050F0000E960E94B41A6E0184E1C80ED11C88E499
:10510000E82E83E0F82EFA82E982C8010E94F40CAE
:10511000F60181936F01FFEFEF1AFF0A8CE4E816A6
:1051200083E0F80681F76C897D898E899F892AE062
:10513000A8010E946735F80101900020E9F7319736
:10514000AF01401B510BB801CE010E960E94E41A2C
:1051500040E061E0CE010E960E944A22CE010E96FA
:105160000E94CA1B67960FB6F894DEBF0FBECDBF74
:10517000DF91CF911F910F91FF90EF90DF90CF9033
:1051800008950F931F93CF93DF93CDB7DEB72C977E
:105190000FB6F894DEBF0FBECDBF6EE175E0CE0155
:1051A00007960E94CF1B4FEC5DE060E070E0CE01FF
:1051B00007960E941C25882381F16DE371E0CE01E2
:1051C00001960E94E11B4B855C858D819E81481B69
:1051D000590BBE016F5F7F4FCE0107960E94E91900
:1051E0008C01CE0101960E94CA1BA80155279A0185
:1051F0002C5F3F4F4F5F5F4FBE01695F7F4FCE0116
:1052000001960E94F61BCE0101960E94DE198B01C9
:10521000CE0101960E94CA1B02C000E010E0CE0140
:1052200007960E94CA1BC8012C960FB6F894DEBFE1
:105230000FBECDBFDF91CF911F910F910895CF93F6
:10524000DF93CDB7DEB76A970FB6F894DEBF0FBE17
:10525000CDBF789484B5826084BD84B5816084BDFF
:1052600085B5826085BD85B5816085BD80916E0004
:10527000816080936E001092810080918100826035
:105280008093810080918100816080938100809172
:1052900080008160809380008091B1008460809361
:1052A000B1008091B00081608093B00080917A005D
:1052B000846080937A0080917A00826080937A0083
:1052C00080917A008E7F80937A0080917A00806846
:1052D00080937A001092C10084B762E089E00E9456
:1052E000091D61E088E00E94091DBE016F5F7F4FCC
:1052F00080EA90E00E94671E8981882311F060E0B7
:1053000001C061E088E00E94D91C61E373E08AE398
:1053100090E00E94671E809131038F3F41F410920C
:10532000310361E373E08AE390E00E947F1E60E353
:1053300073E086E390E00E94671E809130038F3F08
:1053400041F41092300360E373E086E390E00E9442
:105350007F1E68E273E08CE590E00E94671E8091FA
:1053600028038F3F41F41092280368E273E08CE534
:1053700090E00E947F1E67E273E088E590E00E9463
:10538000671E809127038F3F41F41092270367E245
:1053900073E088E590E00E947F1E6FE273E080E09A
:1053A00090E00E94671E80912F038F3F29F460E0F8
:1053B00084E293E00E94C80B6CE373E084E090E029
:1053C0000E94191E80913C0390913D03019661F467
:1053D00082E390E090933D0380933C036CE373E0A1
:1053E00084E090E00E94401E60E473E08CE090E076
:1053F0000E94671E809140038F3F41F4109240034A
:1054000060E473E08CE090E00E947F1E8EE090E00C
:105410009A838983CE0101960E94F40C8093410304
:105420008F3F29F464E584E293E00E94270D64E253
:1054300073E08CE291E00E94671E8091240380312A
:1054400040F01092240364E273E08CE291E00E9449
:105450007F1E66E273E086E190E00E94671E809105
:1054600026038F3F41F41092260366E273E086E143
:1054700090E00E947F1E65E273E08AE190E00E9466
:10548000671E809125038F3F41F41092250365E24A
:1054900073E08AE190E00E947F1E69E273E080E29F
:1054A00093E00E94671E809129038F3F41F4109280
:1054B000290369E273E080E293E00E947F1E6EE3BD
:1054C00073E082E190E00E94191E80913E0390916A
:1054D0003F03019661F482E090E090933F03809354
:1054E0003E036EE373E082E190E00E94401E81E0A3
:1054F0008093320360E084E293E00E94130D6AE33C
:1055000073E084EB90E00E94671E80913A038F3F26
:1055100029F46BE484E293E00E948C0B6BE373E06C
:1055200088EB90E00E94671E80913B038F3F29F437
:105530006DE784E293E00E94AB0B63E373E08CEBD6
:1055400090E00E94671E809133038F3F49F481E011
:105550008093330363E373E08CEB90E00E947F1E43
:1055600068E373E088EA90E00E94191E64E373E048
:105570008CEA90E00E94191E66E373E080EB90E0F5
:105580000E94191E84E293E09093DE028093DD0274
:105590008BEE91E09093E0028093DF0280E492E052
:1055A0000E948B25809168008160809368008091C3
:1055B000680082608093680080916C0081608093B5
:1055C0006C0080916C00826080936C00F89480E0A5
:1055D0000E94801181E60E948011789461E081E14F
:1055E0000E94091D61E086E00E94091D61E087E0DC
:1055F0000E94091D61E085E00E94091D11E08CE018
:10560000282E8BE0382E8091CC018823C1F1809127
:10561000E902811134C080911903811130C068E61C
:1056200070E0CE0101960E94CF1B9DE2492E9EE0C4
:10563000592E612C712CB301A201CE0101960E945A
:105640001C25082F882371F08D819E81049708F412
:105650004AC563E070E0CE0101960E94371A81339B
:1056600009F03DC5CE0101960E94CA1B011105C07B
:1056700060E087E091E00E94A0241092CC0180912C
:10568000CB018823E9F10E94B2258823C9F18091DA
:10569000E902811135C080911903811131C00E9446
:1056A000451D2091DD013091DE014091DF015091D7
:1056B000E001DC01CB01821B930BA40BB50B893EEF
:1056C0009340A105B105E0F00E94C1287C01009142
:1056D000DC010F5F0093DC010E94451D6093DD013A
:1056E0007093DE018093DF019093E0014CE6E416B5
:1056F00041E0F40608F445C71092CB011092DC019A
:105700008091D701882309F10E94451DC090D801DE
:10571000D090D901E090DA01F090DB01DC01CB01FF
:105720008C199D09AE09BF0981319742A105B105C8
:1057300060F01092D7010E94B225882331F00E94B8
:10574000C1288C36914008F4D0C48091D6018111D3
:1057500067C18091D50181111BC00E94451D603435
:105760007F4181059105A0F00E94C1288C369140AF
:1057700008F4C0C461E088E00E94D91C1093D501F0
:105780001982BE016F5F7F4F80EA90E00E947F1E0A
:105790008091D401811108C00E94451D683B7B4067
:1057A0008105910508F0B3C48091D501882321F1CA
:1057B0000E94451D2091CD013091CE01DC01CB012D
:1057C000821B930BA109B109853F9140A105B10549
:1057D00098F080910401812780930401882311F0BF
:1057E00061E001C060E081E10E94D91C0E94451D7A
:1057F0007093CE016093CD010E94451D683A7146B9
:105800008105910508F468C461E08DED90E00E9487
:10581000A024882309F48BC060E081ED90E00E9411
:10582000A024882309F483C060E085EC90E00E9406
:10583000A024882309F47BC060E089EB90E00E94FB
:10584000A024882309F473C060E085EA90E00E94F8
:10585000A024882309F46BC060E088E990E00E94EE
:10586000A02460E08CE890E00E94A02460E085E83D
:1058700090E00E94A0241093180360E089E790E074
:105880000E94A02461E770E0CE010D960E94CF1B1C
:1058900087E7882E8BE0982EA12CB12CB501A401AE
:1058A000CE010D960E941C258823E9F16EE571E07A
:1058B000CE0107960E94E11BE090DD02F090DE022F
:1058C000F701858181112BC40E944628E090DD02FA
:1058D000F090DE02F7011583B7016B5F7F4F80E226
:1058E00093E00E947F1E89898B8BBE016D5E7F4F86
:1058F00084E293E00E947F1EBE01635F7F4FCE0172
:1059000001960E94D81BAE014F5F5F4F68E273E0C3
:10591000C7010E94D132CE0101960E94CA1BCE015E
:1059200007960E94CA1BCE010D960E94CA1BBE019B
:105930006F5F7F4F8CE893E00E94671E0981809122
:105940001803882309F410C48FEF800F8E3F08F0EE
:105950000BC46FEE70E0CE0107960E94CF1B0230A1
:1059600019F46AEE70E004C0033031F462EE70E0C6
:10597000CE0107960E943B1B1093F102BE01695FA6
:105980007F4FCE0101960E94D81B40E061E0CE011E
:1059900001960E944A22CE0101960E94CA1BCE01A6
:1059A00007960E94CA1B1A821982BE016F5F7F4F41
:1059B0008CE893E00E941F2810933E0260E08BEE7B
:1059C00091E00E94B41080916B00846080936B0022
:1059D00080916B00886080936B003092030120926D
:1059E000020180916900837F846080936900E99A55
:1059F00009E6C02E0BE0D02ED0920101C09200012A
:105A0000809169008C7F816080936900E89A10938F
:105A1000D6011092040160E081E10E94D91C5CC3B0
:105A200080910A0281116AC180911102811166C1BF
:105A30008091FD01882309F47DC0E091EB01F09194
:105A4000EC018685882309F475C080910B028111D1
:105A500071C00E94451DC090EF01D090F001E09010
:105A6000F101F090F201DC01CB018C199D09AE0926
:105A7000BF09843F9140A105B10508F45BC0809146
:105A8000F7018823B1F00E94451DC0900C02D09010
:105A90000D02E0900E02F0900F02DC01CB018C1998
:105AA0009D09AE09BF0981339547A105B10508F0ED
:105AB000BFC30E94451D6093EF017093F001809376
:105AC000F1019093F2010E94A2266091F701E0910A
:105AD000EB01F091EC0124893589662309F44AC36E
