:100000000C9458020C9453250C942C250C941E141B
:100010000C9483140C9454140C9480020C9480025D
:100020000C9480020C9480020C9480020C94800248
:100030000C9480020C9480020C9480020C94800238
:100040000C94E2240C9480020C94DF230C94B923CA
:100050000C9480020C9480020C9480020C94800218
:100060000C9480020C94800241542B434349440079
:1000700041542B444445543D310D0A004154265708
:100080000D0A0041542B434C54533D310D0A00419D
:10009000542B4353434C4B3D310D0A0041542B43E9
:1000A0004E4D493D322C312C302C302C300D0A0075
:1000B00041542B434D47463D310D0A0041542B43DB
:1000C0004C43433D310D0A0041542B434C49503DB4
:1000D000310D0A004D4158434544440043455252B6
:1000E0000055504453554343004154410041542B63
:1000F000444445543D310D0A002B4350494E3A20AB
:100100004E4F542052454144590D0043616C6C20C0
:1001100052656164790D0041542B434D4744413D84
:100120002244454C20414C4C220D0A0041542B46A0
:10013000545050573D223132333435363738392216
:100140000D0A0041542B465450554E3D22726168B1
:10015000756C6E726174686F646B636C220D0A005B
:1001600041542B465450534552563D220041542B86
:100170004654504349443D310D0A002B46545053D8
:10018000495A453A20312C302C0041542B465450CA
:1001900053495A450D0A0041542B46545047455483
:1001A0000041542B53415042523D312C310D0A0035
:1001B00041504E222C220041542B53415042523D7B
:1001C000332C312C2200436F6E54797065222C221F
:1001D00047505253220D0A0041542B534150425272
:1001E0003D332C312C22004F4B203A2000524555F4
:1001F00050440050524753495A4500444300535518
:10020000500050524755504400564D52303200561F
:100210004D52303200564D4D3031002A2A2A2A4D97
:100220002B002E616D72222C302C3130302C310D90
:100230000041542B435245433D342C220041542B62
:10024000435245433D350D0037303431313936396D
:100250003539000A4E6574776F726B3A000A426155
:1002600074253A00204F46460A00204F4E0A0020CF
:100270004F4E0A004D6F746F723A00204F46460A87
:100280000020322050484153450A004155544F4FF9
:100290004646004155544F4F4E00564D4D303100AB
:1002A0004552524F52203A20004F4B203A200041F5
:1002B000542B435553443D312C220042414C0041C4
:1002C00055544F54494D45004155544F54494D459F
:1002D000005354415254494D4500535441525449DE
:1002E0004D45005354414745005354414745004153
:1002F0004D4F464600414D4F4E0041542B43424323
:100300000041542B43535100535441545553004D15
:10031000324D4F4646004D324D4F4E0052455350E0
:1003200000444E444F464600444E444F4E0042590E
:10033000504F4646004259504F4E004155544F4F82
:100340004646004155544F4F4E00444944005245E3
:10035000534554004E6F204E756D626572004E55C8
:100360004D0044454641554C5400434C4541524193
:100370004C4C00574149540037303431313936390B
:100380003539004E4F20414E535745520D004255CE
:1003900053590D004E4F20434152524945520D00D2
:1003A0002B434C43433A20312C302C0041542B43F7
:1003B00048555000222C320041542B5654533D22B4
:1003C0000000000000240027002A00000000002593
:1003D0000028002B00000000002300260029000454
:1003E00004040404040404020202020202030303DC
:1003F00003030301020408102040800102040810D6
:100400002001020408102000000008000201000082
:10041000030407000000000000000041542B434388
:1004200057413D302C300D0A0049443A0041542BCD
:100430004346554E3D312C310D0A003935383631A1
:100440003335393738003733383336323236373888
:1004500000373338333631343231340037363938B7
:10046000343339323031003730343131393639357F
:1004700039002B53415042523A20312C0041542B29
:1004800053415042523D302C310D0A0041542B4310
:100490004F50533D320D0A00415426570D0A00417A
:1004A000542B4353434C4B3D300D0A001C3418343D
:1004B00011241FBECFEFD8E0DEBFCDBF12E0A0E019
:1004C000B1E0ECEBF2E702C005900D92A430B10769
:1004D000D9F723E0A4E0B2E001C01D92AE37B20725
:1004E000E1F712E0C7E5D2E004C02197FE010E94C7
:1004F000F035C635D107C9F70E94E0290C9451396F
:100500000C9414144F925F926F927F928F929F92ED
:10051000AF92BF92CF92DF92EF92FF920F931F9311
:10052000CF93DF93CDB7DEB7A5970FB6F894DEBFB4
:100530000FBECDBF80914A038823B1F00E94A6244C
:1005400000914B0310914C0320914D0330914E03C9
:10055000DC01CB01801B910BA20BB30B813D9740BB
:10056000A105B10508F02BC680912703882371F1FE
:100570000E94A62400912A0310912B0320912C03A2
:1005800030912D03AB01BC01401B510B620B730B6F
:100590002091280330912903E4E6E29FC001E39F04
:1005A000900D1124A0E0B0E0481759076A077B07B7
:1005B00068F0E0911303F091140387A5811106C040
:1005C00060E084E00E943A241092270380912E0379
:1005D0008E3409F058C080912F038E3409F0C7C0C3
:1005E00080914203811116C00E94A624009143030A
:1005F000109144032091450330914603DC01CB0167
:10060000801B910BA20BB30B893E9340A105B10552
:1006100008F0D8C580913903811107C08091350356
:10062000882309F4A4C011E005C0E0911103F09102
:100630001203128980914203882309F498C08091A3
:100640003203813009F4C2C50E94A624C0903A0347
:10065000D0903B03E0903C03F0903D039B01AC0144
:100660002C193D094E095F0969017A01212F30E0FB
:10067000A0E6BAEE0E9442396C157D058E059F05F5
:1006800008F4A4C574C0893419F0823509F06FC02C
:100690000E94A6240091210310912203209123039C
:1006A00030912403AB01BC01401B510B620B730B57
:1006B00020911F0330912003E4E6E29FC001E39FF5
:1006C000900D1124A0E0B0E0481759076A077B0796
:1006D00040F080913F038DA30E94FD1B8DA10E94DD
:1006E000B525809136038823F1F08091310388236A
:1006F000D1F080913803811116C00E94A624009188
:100700002103109122032091230330912403DC0163
:10071000CB01801B910BA20BB30B813D9740A10530
:10072000B10508F070C580911C03882301F10E9477
:10073000A624E0911703009118031091190320914A
:100740001A0330911B03AB01BC01401B510B620B20
:10075000730BA4E6EA9FC0011124092E000CAA0B1A
:10076000BB0B84179507A607B70708F454C58FE499
:10077000C82E92E5B92E29E4D22E8091470390919C
:100780004803DC01ED91FC910480F581E02D099591
:100790001816190614F00C94710CCE014F960E9495
:1007A000FF250BA1015060E271E0CE0101960E948D
:1007B000532326E0AE014F5F5F4FBE01615E7F4F66
:1007C00081E193E00E940410182FCE0101960E944F
:1007D0003C23112321F08091260381117EC50BA1BA
:1007E000015067E271E0CE0101960E9453232CE094
:1007F000AE014F5F5F4FBE01615E7F4F81E193E0CD
:100800000E940410E82ECE0101960E943C23EE20A7
:1008100071F1BE01615E7F4FCE010D960E944A23A9
:100820006EE271E0CE0107960E945323BE01635F22
:100830007F4FCE0107960E94A622BE01695F7F4FBF
:10084000CE0101960E944A2341E0BE016F5F7F4FB7
:1008500081E193E00E94EC10CE0101960E943C23BE
:10086000CE0107960E943C23CE010D96BBC267E3E2
:1008700071E0CE0101960E94532302E228E1AE010D
:100880004F5F5F4FBE01615E7F4F81E193E00E9449
:100890000410982ECE0101960E943C23BE01615E99
:1008A0007F4FCE01992009F45DC201960E944A2330
:1008B000CE0101960E946726F82ECE0101960E9475
:1008C0003C23BE01615E7F4FCE0101960E944A2308
:1008D000BE016F5F7F4F80911103909112030E94C0
:1008E000830EA82ECE0101960E943C23F11027C052
:1008F000BE01615E7F4FCE0101960E944A23BE0178
:100900006F5F7F4F80911103909112030E94340E0C
:10091000182F81110DC0A1100AC0E0911103F091B0
:10092000120311E08081882319F010E001C0192D15
:10093000CE0101960E943C23112309F4ADC1CE01E2
:1009400001960E94FF25BE016F5F7F4FCE014F963B
:100950000E940323CE0101960E943C230F8D18A113
:100960000115110541F4E0911103F091120380810A
:10097000882371F03AC0D8018C918823A1F3082E06
:10098000000C990B0E94FA37F80181938F01F3CF85
:10099000F1102BC06BE172E0CE0101960E94412361
:1009A000BE016F5F7F4FCE014F960E94B721182F77
:1009B000CE0101960E943C23112309F415C22BA1FC
:1009C0003CA144E050E0BE01615E7F4FCE01019644
:1009D0000E946823BE016F5F7F4FCE014F960E9439
:1009E0000323CE0101960E943C236EE371E0CE0109
:1009F00001960E945323BE016F5F7F4FCE014F9639
:100A00000E94B721182FCE0101960E943C2311238A
:100A1000C1F02BA13CA141E050E0BE01615E7F4FDF
:100A2000CE0101960E946823BE016F5F7F4FCE0109
:100A30004F960E940323CE0101960E943C2311E0B1
:100A400001C010E0BE01615E7F4FCE01FF2009F4BE
:100A500018C149960E944A2381E0809325030D8D99
:100A6000015062E072E0CE0101960E94412326E02F
:100A7000AE014F5F5F4FBE01675E7F4F81E193E044
:100A80000E940410F82ECE0101960E943C23FF2004
:100A900009F4B0C080912E038E3411F40E94FD1B26
:100AA000111110C06EEF71E0CE0101960E9441233A
:100AB00040E061E0CE0101960E94BC1ECE0101968D
:100AC0000E943C23898C9A8C8114910429F40E9401
:100AD000E828811174C40DC0D4018C918823B9F326
:100AE000082E000C990B0E94F237F40181934F01FC
:100AF000F3CF60E471E0CE010D960E94532368EDC0
:100B000071E0CE0107960E94412366EC71E0CE01B0
:100B100007960E942322BE01695F7F4FCE01019696
:100B20000E944A23CE0101960E947029082FCE010F
:100B300001960E943C23011102C000E042C067EB15
:100B400071E0CE0107960E94AD2260EB71E0CE010C
:100B500007960E942322BE01635F7F4FCE01079656
:100B60000E94A6226CE571E0CE0107960E949722B2
:100B7000BE01695F7F4FCE0101960E944A23CE01DC
:100B800001960E947029082FCE0101960E943C23F5
:100B9000002399F261EA71E0CE0101960E9441239F
:100BA00061E0CE0101960E94E826082FCE01019651
:100BB0000E943C23002309F264E181E193E00E945A
:100BC000D90FCE0107960E943C23CE010D960E94BC
:100BD0003C23002309F4E9C50CE0015009F4E5C504
:100BE00062E381E193E00E94D90F0E94E828882304
:100BF000A1F3E5C30D8D015063EF71E0CE010196C5
:100C00000E94412327E0AE014F5F5F4FBE01675E48
:100C10007F4F81E193E00E940410082FCE010196DE
:100C20000E943C230111F7C50D8D01506DEE71E05E
:100C3000CE0101960E94412325E0AE014F5F5F4F38
:100C4000BE01675E7F4F81E193E00E940410F82EA1
:100C5000CE0101960E943C23F110DFC510922503BE
:100C6000CE0149960E943C23F1106EC0BE01615E28
:100C70007F4FCE0101960E944A232A2D412F61E029
:100C800006C001960E944A232A2D412F60E0CE0122
:100C900001960E94921454C0BE01615E7F4FCE0146
:100CA00001960E944A23BE016F5F7F4F809111031E
:100CB000909112030E948A0E182FCE0101960E9475
:100CC0003C23112309F41DC3CE0101960E94FF2588
:100CD000BE016F5F7F4FCE014F960E940323CE016E
:100CE00001960E943C2365E172E0CE0101960E94CC
:100CF0004123BE016F5F7F4FCE014F960E94B72107
:100D0000182FCE0101960E943C231123E9F0E091B7
:100D10001103F091120381E08483BF016C5F7F4F68
:100D20008CE590E00E94630F6FE072E0CE010196C7
:100D30000E94412342E061E0CE0101960E94BC1E68
:100D4000CE0101960E943C2367E171E0CE0101963D
:100D50000E94412360E0CE0101960E94E826CE0168
:100D6000019640C007960E944A236BE071E0CE01D5
:100D700001960E944123BE016F5F7F4FCE0107960F
:100D80000E94F121182FCE0101960E943C23CE0132
:100D900007960E943C23112321F081E080934903B0
:100DA00023C0BE01615E7F4FCE0107960E944A2399
:100DB00069EF70E0CE0101960E944123BE016F5F92
:100DC0007F4FCE0107960E94F121182FCE01019688
:100DD0000E943C23112321F00E94FD1B0E946F27DB
:100DE000CE0107960E943C239091400380912E03F0
:100DF000911110C18E3419F0823509F095C190918E
:100E00002F039E3419F0993409F0F1C0BE01615EE0
:100E10007F4FCE0101960E944A2363E671E0CE0126
:100E200001960E94D221182FCE0101960E943C23E8
:100E3000112309F4C8C081E080931E03B0922E03F1
:100E4000D0922F03809130038F5F809330038430E2
:100E500008F0B2C08130E9F46DEE70E0CE01019689
:100E60000E94412340E0BE016F5F7F4F81E193E02C
:100E70000E94EC10CE0101960E943C238091470312
:100E800090914803DC01ED91FC910284F385E02D03
:100E900009956FE571E0CE010D960E945323CE01B6
:100EA00001960E94FF25BE016F5F7F4FCE010D9618
:100EB0000E940323CE0101960E943C2369E671E063
:100EC000CE0101960E94532305E12BE0AE014F5F56
:100ED0005F4FBE01635F7F4F81E193E00E9404108A
:100EE000182FCE0101960E943C231123C1F20E94CB
:100EF000A62460932103709322038093230390938D
:100F0000240389899A890A9778F0CE010D960E9468
:100F10004226882349F080913003823028F0809166
:100F20001503882309F4B0C480911503882309F4BC
:100F300040C00E94A62460932103709322038093F3
:100F40002303909324031092150381E080933103CF
:100F50008091470390914803DC01ED91FC9102845C
:100F6000F385E02D099569EE70E0CE0101960E94AF
:100F7000412341E0BE016F5F7F4F81E193E00E941A
:100F8000EC10CE0101960E943C2380914703909182
:100F90004803DC01ED91FC910284F385E02D099575
:100FA000D0922E03D0922F036DE481E193E00E9452
:100FB000801BCE010D96FCC0809115038111FAC0F3
:100FC0000E94FD1BF7C0BE01615E7F4FCE010196FE
:100FD0000E944A23CE0101960E94601E182FCE0166
:100FE00001960E943C23112309F4E4C0E9CF89341F
:100FF00089F490912F03993469F4BE01615E7F4FAB
:10100000CE0101960E944A23CE0101960E94601EE5
:10101000182FB5C08E3419F0823509F088C01091B0
:101020002F031F3409F0C6C0BE01615E7F4FCE01A1
:1010300001960E944A23CE0101960E94111E082F9C
:10104000CE0101960E943C23023579F40E94A62429
:1010500060932103709322038093230390932403CE
:1010600000932E0310932F03A5C0BE01615E7F4F36
:10107000CE0101960E944A23CE0101960E94601E75
:10108000182F811113C0BE01615E7F4FCE010796FC
:101090000E944A23CE0107960E94111E11E085345A
:1010A00009F010E0CE0107960E943C23CE01019684
:1010B0000E943C23112349F080913F038DA30E949D
:1010C000FD1B8DA10E94B52575C0BE01615E7F4FDD
:1010D000CE0101960E944A23CE0101960E94111E64
:1010E000182FCE0101960E943C23193409F062C0EA
:1010F0000E94A6246093210370932203809323030C
:101100009093240310932E03C0922F0381E08093C9
:1011100031038091360381114DC060913F0381E11D
:1011200093E00E94801B46C0893409F462CF893461
:1011300009F040C080912F038F34E1F5BE01615E5C
:101140007F4FCE0101960E944A23CE0101960E9454
:10115000601E182F811113C0BE01615E7F4FCE014A
:1011600007960E944A23CE0107960E94111E11E0A5
:10117000853409F010E0CE0107960E943C23CE0191
:1011800001960E943C2311111BCFCE014F960E9465
:10119000E21D882379F0BE01615E7F4FCE0101968A
:1011A0000E944A23CE0101960E94F81CCE010196AE
:1011B0000E943C23CE014F960E943C23DECA10922F
:1011C0004A03D2C981E08093420324CA8091390343
:1011D000882339F080913E0380933F0310923903B6
:1011E0000DC080913503882349F080913E038093A0
:1011F000370381E0809336031092350381E193E059
:101200000E941C11B4CA81E0809338038091370397
:101210000E949F1B88CA8091470390914803DC017C
:10122000ED91FC910284F385E02D099561E372E074
:10123000CE0101960E94412340E0BE016F5F7F4FC7
:1012400081E193E00E94EC10CE0101960E943C23C4
:1012500062E771E0CE0101960E94532340E0BE0197
:101260006F5F7F4F81E193E00E94EC10CE01019609
:101270000E943C2360911D0381E193E06DA30E94D5
:10128000CB108091470390914803DC01ED91FC91D4
:101290000190F081E02D6DA1099562E272E0CE012E
:1012A00001960E94412341E0BE016F5F7F4F81E1C3
:1012B00093E00E94EC10CE0101960E943C238091A5
:1012C000470390914803DC01ED91FC910284F38582
:1012D000E02D099510921C034ACABE01615E7F4F42
:1012E000CE0101960E944A2340E061E0CE010196C2
:1012F0000E94BC1ECE0101960E943C231092260340
:101300006ECABE01615E7F4FCE0101960E944A23E4
:10131000BE016F5F7F4F80911103909112030E9475
:10132000C40D182FCE0101960E943C23112309F40D
:101330000BCDCE0101960E94FF25BE016F5F7F4F4E
:10134000CE014F960E940323CE0101960E943C23BA
:1013500069E072E0CE0101960E944123BE016F5FF9
:101360007F4FCE014F960E94B721182FCE010196D4
:101370000E943C23112309F4E7CCE0911103F09182
:10138000120311E0158BBF016B5E7F4F86E490E086
:101390000E94630FE0911103F0911203138BBF01C0
:1013A0006D5E7F4F8EE390E00E94630FBE01615E31
:1013B0007F4FCE0101960E944A2340E0BCCCBE0183
:1013C000675E7F4FCE010D960E944A236DE671E065
:1013D000CE0101960E94412361E0CE0101960E9458
:1013E000E826082FCE0101960E943C23002309F431
:1013F00054C060E671E0CE0107960E944123BE0111
:10140000635F7F4FCE0107960E94A6226CE571E0D4
:10141000CE0107960E949722BE01695F7F4FCE01E1
:1014200001960E944A2361E0CE0101960E94E826BF
:10143000082FCE0101960E943C23002349F163E46A
:1014400071E0CE0101960E94412361E0CE01019638
:101450000E94E826082FCE0101960E943C2300231B
:10146000B9F06CE271E0CE0101960E94412361E087
:10147000CE0101960E94E826082FCE0101960E9417
:101480003C23002329F0CE0107960E943C2305C08F
:10149000CE0107960E943C2300E0CE010D960E94EB
:1014A0003C23002309F481C168E471E0CE01439636
:1014B0000E94532367E971E0CE010D960E944123FB
:1014C000BE01635F7F4FCE0107960E944A236EE400
:1014D00071E0CE0107960E949722BE016D5E7F4F9C
:1014E000CE0107960E94A6226CE571E0CE01079618
:1014F0000E949722BE01695F7F4FCE0101960E9434
:101500004A2361E0CE0101960E94E826982ECE0182
:1015100001960E943C239920E9F0BE01635F7F4F52
:10152000CE0107960E94EC2265E571E0CE01079698
:101530000E949722BE01695F7F4FCE0101960E94F3
:101540004A2360E0CE0101960E94E826CE01019672
:101550000E943C23CE0107960E943C23CE010D96AB
:101560000E943C23CE0143960E943C23992009F41B
:101570001CC1E0911103F09112038285811164C0B6
:101580000E94A6242B013C016AE871E0CE0101967D
:101590000E94412340E0BE016F5F7F4F81E193E0F5
:1015A0000E94EC10CE0101960E943C230E94A624CA
:1015B000DC01CB0184199509A609B709803C944D3B
:1015C000A140B10508F0F1C0809147039091480314
:1015D000DC01ED91FC910480F581E02D0995892BCA
:1015E00029F36091470370914803CE0107960E944A
:1015F000E2250B8501506BE771E0CE0101960E9458
:1016000041232EE0AE014F5F5F4FBE01695F7F4F08
:1016100081E193E00E940410082FCE0101960E9400
:101620003C23CE010796002309F4BECF0E949B21E4
:10163000AB01BC0180911103909112030E949F0F96
:10164000CE0107960E943C23E0911103F091120312
:1016500046805780608471846FE771E0CE014396C5
:101660000E945323BE016D5E7F4FCE010D960E94F6
:101670004A236BE871E0CE010D960E949722B301D8
:10168000A201CE010D960E94532267E671E0CE01C1
:101690000D960E94972260E971E0CE0107960E94A4
:1016A0005323BE016D5E7F4FCE0107960E94A62296
:1016B00063E971E0CE0107960E9497220E94A6245A
:1016C0002B013C01BE01695F7F4FCE0101960E9454
:1016D0004A2340E0BE016F5F7F4F81E193E00E94AB
:1016E000EC10CE0101960E943C230E94A624DC014E
:1016F000CB0184199509A609B709803C944DA140F6
:10170000B10550F58091470390914803DC01ED91BC
:10171000FC910480F581E02D0995892B31F36091CE
:10172000470370914803CE0101960E94E225BE0155
:101730006F5F7F4FCE0107960E940323CE01019673
:101740000E943C23BE01635F7F4FCE0107960E943B
:10175000F121882351F2E92CCE0107960E943C2307
:10176000CE010D960E943C23CE0143960E943C235D
:10177000EE20D9F081E080932503111110C06BEFAA
:1017800071E0CE0101960E94412340E061E0CE016C
:1017900001960E94BC1ECE0101960E943C230E942D
:1017A000C5280E946528FE2C5BCA0E94C528E091CE
:1017B0001103F091120312861982BE016F5F7F4FF1
:1017C00084E893E00E94630F1A821982BE016F5F62
:1017D0007F4F84E993E00E94061B01E00983BE016C
:1017E0006F5F7F4F80E993E00E94630F00932503B2
:1017F000111136CA60E671E0CE0101960E945323B2
:1018000040E061E0CE0101960E94BC1ECE0101962F
:101810000E943C2325CA01E001C002E0CE014996A6
:101820000E949B21AB01BC01809111039091120396
:101830000E949F0F67EE71E0CE0107960E94412340
:10184000BE01675E7F4FCE0107960E94A62211114E
:1018500011C0BE01695F7F4FCE0101960E944A23ED
:1018600040E061E0CE0101960E94BC1ECE010196CF
:101870000E943C23023011F40E946528CE01079695
:101880000E943C23F92CECC9BE01635F7F4FCE015F
:1018900007960E944A23BE01695F7F4FCE010196E1
:1018A0000E944A23CE0101960E946726182F8111BB
:1018B0000DC0BE01695F7F4F8091110390911203AB
:1018C0000E94BC0E11E08F3F09F410E0CE0101969A
:1018D0000E943C2310931503CE0107960E943C23DF
:1018E00023CBA5960FB6F894DEBF0FBECDBFDF9118
:1018F000CF911F910F91FF90EF90DF90CF90BF900D
:10190000AF909F908F907F906F905F904F900895D1
:1019100081E080936D0208950E94A624E1E1F3E046
:1019200062AF73AF84AF95AF81E081AF0895FB01E3
:1019300084819581409770F0CB0160E070E00E9457
:10194000A621282F880F330B2053310981E02A303C
:10195000310508F080E00895CF93DF93EB010E94FA
:10196000F5388883CE01DF91CF9108956F927F92F1
:101970008F929F92AF92BF92CF92DF92EF92FF929F
:101980000F931F93CF93DF93CDB7DEB76C013A016E
:10199000ADB6BEB6822F90E001964DB75EB7481B3C
:1019A000590B0FB6F8945EBF0FBE4DBF8DB79EB7F3
:1019B00001964C01611494E0790650F5FF24F394EC
:1019C000F20E31F1E1E0FE1202C0F40120C0C301C9
:1019D0000E94F538F4018083EE24E3948823C1F05B
:1019E0000E2D10E0EF1478F4C801860D971D8115B7
:1019F000F4E09F0740F40E94F538F401E00FF11F76
:101A00008083E394EBCF080D191DF8013197108204
:101A1000B401C6010E945323C6010FB6F894BEBE9E
:101A20000FBEADBEDF91CF911F910F91FF90EF9050
:101A3000DF90CF90BF90AF909F908F907F906F90EE
:101A400008950F931F93CF93DF9300D000D000D061
:101A5000CDB7DEB7FC0182818823C1F08B01BF01C5
:101A60002AE04EE150E0CE0101960E94B60CBE0184
:101A70006F5F7F4FC8010E94F12111E0811101C009
:101A800010E0CE0101960E943C2301C010E0812F9E
:101A900026960FB6F894DEBF0FBECDBFDF91CF9173
:101AA0001F910F9108958F929F92AF92BF92CF9204
:101AB000DF92EF92FF920F931F93CF93DF93CDB7F7
:101AC000DEB76B01ADB6BEB6FA01E480F580C701A2
:101AD00001962DB73EB7281B390B0FB6F8943EBFC1
:101AE0000FBE2DBF0DB71EB70F5F1F4F892B99F08B
:101AF0000115110581F0E114F10411F4F8010AC097
:101B0000FA0160817181A701C8010E942938F8019A
:101B1000EE0DFF1D1082F80101900020E9F73197CA
:101B2000E01BF10BC11424E0D206D8F4FF24F39497
:101B3000FE0EC6018F0D911D8115944090F4480151
:101B4000C01AD10A882D801B8F1548F4C601880D54
:101B5000991DF40161914F010E94FD38F3CF81E09E
:101B600001C080E00FB6F894BEBE0FBEADBEDF91DF
:101B7000CF911F910F91FF90EF90DF90CF90BF908A
:101B8000AF909F908F9008950F931F93CF93DF9303
:101B900000D000D000D0CDB7DEB7FC018489882307
:101BA000C1F08B01BF012AE04AE450E0CE0101966A
:101BB0000E94B60CBE016F5F7F4FC8010E94F121E9
:101BC00011E0811101C010E0CE0101960E943C237A
:101BD00001C010E0812F26960FB6F894DEBF0FBE2D
:101BE000CDBFDF91CF911F910F910895CF93DF93D8
:101BF000EC01FB018489882339F02AE04AE450E0B3
:101C0000CE010E94B60C05C06FE571E0CE010E94C6
:101C10005323CE01DF91CF910895FC018385882362
:101C200011F061E001C060E082E10C943A24CF93AE
:101C3000DF93EC01FB018081882369F08181882397
:101C400019F04EE150E002C040E351E02AE0CE013D
:101C50000E94B60C05C068E472E0CE010E944123E8
:101C6000CE01DF91CF910895DF92EF92FF920F9313
:101C70001F93CF93DF9300D000D000D0CDB7DEB755
:101C8000FC012081222369F17B018C012AE040E3E1
:101C900051E0BC01CE0101960E94B60CB701CE0105
:101CA00001960E94F121D82ECE0101960E943C237C
:101CB000D11019C0B701CE0101960E944A23F80144
:101CC0008081882341F0BE016F5F7F4FC8010E9471
:101CD000210D182F01C010E0CE0101960E943C2377
:101CE00003C010E001C011E0812F26960FB6F894D2
:101CF000DEBF0FBECDBFDF91CF911F910F91FF903F
:101D0000EF90DF900895FC01208121110C94210DAA
:101D100080E008950F931F93CF93DF9300D000D0FE
:101D200000D0CDB7DEB7FC0183818823C1F08B01E1
:101D3000BF012AE040E650E0CE0101960E94B60CB9
:101D4000BE016F5F7F4FC8010E94F12111E0811138
:101D500001C010E0CE0101960E943C2301C010E0BA
:101D6000812F26960FB6F894DEBF0FBECDBFDF9150
:101D7000CF911F910F910895CF92DF92EF92FF9232
:101D80000F931F93CF93DF9300D000D000D0CDB737
:101D9000DEB77C016B01FC018081811106C0F70177
:101DA0008481882309F443C030C0CE0101960E948B
:101DB0004A23BE016F5F7F4FC7010E94340E182F68
:101DC000CE0101960E943C2311114BC011E0F70196
:101DD0008081181720F7FBE01F9FA0011124405DB0
:101DE0005E4F2AE0B701CE0101960E94B60CB60103
:101DF000CE0101960E94F121082FCE0101960E948A
:101E00003C23011130C01F5FE2CFB601CE01019625
:101E10000E944A23BE016F5F7F4FC7010E948A0E56
:101E2000182FCE0101960E943C23111116C0F70114
:101E300085898823A1F0B601CE0101960E944A232C
:101E4000BE016F5F7F4FC7010E94C40D182FCE01E6
:101E500001960E943C23112311F08EEF05C08FEFF5
:101E600003C080E001C0812F26960FB6F894DEBF34
:101E70000FBECDBFDF91CF911F910F91FF90EF90DB
:101E8000DF90CF900895EF92FF920F931F93CF931F
:101E9000DF931F92CDB7DEB77C01FC010081118179
:101EA000C80169830E94F5386981681719F0C80173
:101EB0000E94FD38C7010F90DF91CF911F910F91C4
:101EC000FF90EF9008950F931F93CF93DF9300D06F
:101ED000CDB7DEB78B01FB0160819A838983CE0188
:101EE00001960E94430FC8010F900F90DF91CF9190
:101EF0001F910F910895CF93DF93EC016B87BC0185
:101F0000655F7F4F80E090E00E94630FCE01DF911C
:101F1000CF910C940D0ECF93DF9300D0CDB7DEB7E9
:101F2000FC01638F8EE090E09A838983CE01019655
:101F30000E94430F0F900F90DF91CF910895EF9281
:101F4000FF920F931F93CF93DF9300D0CDB7DEB7EF
:101F500021E0FC01228746835783608771878C01CB
:101F60000A5F1F4F88E8E82E83E0F82EF8016191A0
:101F70008F01FA82E982CE0101960E94430FFFEFA2
:101F8000EF1AFF0A8CE8E81683E0F80679F70F905D
:101F90000F90DF91CF911F910F91FF90EF900895D7
:101FA000FC01258D293421F421E025830C94801B2C
:101FB00008958F929F92AF92BF92CF92DF92EF924D
:101FC000FF92C62E0E94A6244B015C0184E6C89EA7
:101FD000600111240D2C000CEE08FF080E94A624BD
:101FE000DC01CB0188199909AA09BB098C159D054B
:101FF000AE05BF0598F3FF90EF90DF90CF90BF90B4
:10200000AF909F908F900895EF92FF920F931F9340
:10201000CF93DF9300D000D000D0CDB7DEB77B01E7
:10202000122FBA01C7010E94B7218823A9F0202FDF
:1020300030E0412F50E0B701CE0101960E946823A5
:10204000BE016F5F7F4FC7010E940323CE0101963F
:102050000E943C2381E001C080E026960FB6F894F0
:10206000DEBF0FBECDBFDF91CF911F910F91FF90CB
:10207000EF900895CF92DF92EF92FF920F93CF935C
:10208000DF9300D000D000D0CDB7DEB76C017B016C
:10209000FB010481035060EA71E0CE0101960E94C9
:1020A000532325E0AE014F5F5F4FB701C6010E9489
:1020B0000410082FCE0101960E943C23802F269603
:1020C0000FB6F894DEBF0FBECDBFDF91CF910F9159
:1020D000FF90EF90DF90CF9008958F929F92AF92F4
:1020E000BF92CF92DF92EF92FF920F93CF93DF9345
:1020F000CDB7DEB72C970FB6F894DEBF0FBECDBFBD
:102100005C016B01FB01048101506EE871E0CE01BE
:1021100007960E945323F60184819581892B69F0EB
:10212000808091806F817885C4010E943838009743
:1021300021F07C01E818F90803C0EE24EA94FE2C93
:1021400065EA71E0CE0101960E94532321E02E0D35
:10215000AE014F5F5F4FB601C5010E940410082F0A
:10216000CE0101960E943C23CE0107960E943C239B
:10217000802F2C960FB6F894DEBF0FBECDBFDF9137
:10218000CF910F91FF90EF90DF90CF90BF90AF90E5
:102190009F908F900895CF93DF93EC018E898111EA
:1021A00012C061E084E00E943A2481E08E8B0E949C
:1021B000A624698F7A8F8B8F9C8F61E0CE01DF918F
:1021C000CF910C94D90F0E94A624698F7A8F8B8FA0
:1021D0009C8FDF91CF910895FF920F931F93CF9320
:1021E000DF93EC018B01F42E0E94CB106FE571E0C0
:1021F000C8010E94D2210EA8DFA9C02D811114C0F0
:10220000F8014481558160817181E881F981028002
:10221000F381E02DCE01F11006C0DF91CF911F9127
:102220000F91FF9009940995CE01DF91CF911F91F5
:102230000F91FF900C94AE23CF92DF92FF920F93F9
:102240001F93CF93DF93CDB7DEB762970FB6F894A5
:10225000DEBF0FBECDBFDC01ED91FC911197238D48
:102260002E3429F495962C91222309F4A8C08C01D0
:10227000FF24F394FC01F7A60E94CB10D8011D9611
:10228000FC92C8010E94CB10F80186A997A9DC0135
:10229000ED91FC910284F385E02D09956BEA71E0E4
:1022A000CE010D960E945323F801C080D180D60143
:1022B00053968C91882349F085A1882331F0B6018B
:1022C000CE0101960E94F60D34C0F801F1A0FF2066
:1022D00059F16FE571E0CE0107960E945323D601B4
:1022E0008C91F816B8F4BBE0FB9EA0011124405D70
:1022F0005E4F2AE0B601CE0101960E94B60CBE01E7
:102300006F5F7F4FCE0107960E940323CE01019697
:102310000E943C23BE01695F7F4FCE010D960E9453
:10232000A622CE0107960EC0B601CE0101960E94EC
:10233000170EBE016F5F7F4FCE010D960E94A62241
:10234000CE0101960E943C236BE3CE010D960E94C4
:102350008422BE01635F7F4FCE0101960E944A2313
:1023600041E0BE016F5F7F4FC8010E94EC10CE01BB
:1023700001960E943C2361E0C8010E94D90F6FE5DD
:1023800071E0CE0101960E94532341E0BE016F5FD0
:102390007F4FC8010E94EC10CE0101960E943C23A1
:1023A0000E94A624F801608B718B828B938B82E54F
:1023B000858F8FE4868FCE010D960E943C23629616
:1023C0000FB6F894DEBF0FBECDBFDF91CF911F9146
:1023D0000F91FF90DF90CF9008950F931F93CF93AD
:1023E000DF93FC01A081B1818C91882391F15B96F0
:1023F0008C915B978E3469F110AD112351F180A55A
:10240000811103C096A5961739F1958D9E3419F563
:10241000968D9E3401F511A91123F1F081111BC095
:1024200084A1811118C0062FEF0111A252968C9140
:10243000882351F00E94A62469A77AA78BA79CA79E
:102440000DA781E088A708C06EA7CF010E941C11CC
:1024500003C011E001C010E0812FDF91CF911F91E7
:102460000F9108950F931F93CF93DF9300D000D067
:1024700000D0CDB7DEB78C01DC01D6968D919C9152
:10248000D797DC01ED91FC910284F385E02D09954D
:102490006DE372E0CE0101960E94412341E0BE014E
:1024A0006F5F7F4FC8010E94EC10CE0101960E9421
:1024B0003C23F80186A997A9DC01ED91FC910284E7
:1024C000F385E02D099526960FB6F894DEBF0FBE72
:1024D000CDBFDF91CF911F910F9108950C94003CD7
:1024E000089561E081E10C943A240F931F93CF93F8
:1024F000DF93EC0141110EC08EA581110BC0662344
:1025000019F162E38A819B81DF91CF911F910F9135
:102510000C94D00F022F162F1DAA61E08DE00E94AF
:102520003A240E94A624FE01ED5BFF4F6083718375
:1025300082839383319781E080831EA660E080E1EF
:102540000E943A241AA70CA7DF91CF911F910F91F7
:102550000895FC01A081B1811C968C9195A58823DA
:1025600021F0992321F087A50895892F089581E00E
:1025700008951F93CF93DF93EC011FA5112331F032
:102580000E94A912882311F081E00BC0CE010E94A5
:10259000A912882321F0111104C084E002C082E056
:1025A00000C0DF91CF911F910895CF93DF93FC017D
:1025B00026A5211110C0EC010E94A912882359F010
:1025C0008FA5882341F081E088AB0E94A62469ABE7
:1025D0007AAB8BAB9CABDF91CF9108951F93CF93D8
:1025E000DF93EC01162FE881F981838581110CC0FE
:1025F0008EA581111EC08FA58823D9F061E08DE0E2
:102600000E943A2418AA15C0FE01EE5BFF4F80819C
:1026100081110FC08FA5882361F060E08DE00E94DA
:102620003A24112331F0CE01DF91CF911F910C9408
:10263000D512DF91CF911F910895EF92FF920F93E2
:102640001F93CF93DF937B018A01E901F8948AE01D
:102650000E94112431E0892B09F430E0F701308326
:102660008BE00E94112431E0892B09F030E0F80161
:10267000308383E00E94112431E0892B09F430E09B
:1026800038837894DF91CF911F910F91FF90EF9055
:1026900008950F931F93CF93DF9300D01F92CDB770
:1026A000DEB78C019E012F5F3F4FAE014E5F5F4F43
:1026B000BE016D5F7F4F0E941D139A81F80196A79E
:1026C000992311F061E001C060E080E10E943A24AA
:1026D0008A810F900F900F90DF91CF911F910F91F2
:1026E0000895EF92FF920F931F93CF93DF937B0197
:1026F0008A01E901F89486E00E94112431E0892BD7
:1027000009F430E0F701308387E00E94112431E0C2
:10271000892B09F430E0F801308385E00E94112410
:1027200031E0892B09F430E038837894DF91CF9140
:102730001F910F91FF90EF900895CF93DF9300D0FA
:102740001F92CDB7DEB79E012F5F3F4FAE014E5FA8
:102750005F4FBE016D5F7F4F0E9471138B818111AE
:1027600008C08A81811107C08981811106C083E078
:1027700005C080E003C081E001C082E00F900F90AF
:102780000F90DF91CF9108951F93CF93DF93EC01CA
:10279000162F18AA8FA5882329F0CE010E94A9120E
:1027A00081110FC08A819B81112331F06EE4DF918A
:1027B000CF911F910C94D00F6EE40E94ED118C8389
:1027C0002FC08EA5811126C0CE010E949D138111BC
:1027D00006C08A819B81112379F364E5E8CF60E02C
:1027E0008DE00E943A2460E08CE00E943A240E942E
:1027F00071120E94A624FE01FD966083718382837C
:10280000938381E08BAF8EA761E080E10E943A2440
:102810001BA706C0112321F061E38A819B81C7CFEA
:10282000DF91CF911F9108951F920F920FB60F92D3
:1028300011240F900FBE0F901F9018951F920F92AA
:102840000FB60F9211242F933F934F935F936F9383
:102850007F938F939F93AF93BF93EF93FF9389E001
:102860000E94112490910502891304C081E0809395
:102870006D0209C091E0811101C090E090930502C2
:1028800081E080930402FF91EF91BF91AF919F91FE
:102890008F917F916F915F914F913F912F910F9009
:1028A0000FBE0F901F9018951F920F920FB60F92A8
:1028B00011242F933F934F935F936F937F938F9345
:1028C0009F93AF93BF93EF93FF930E94A6246093CF
:1028D000700270937102809372029093730281E090
:1028E00080936F02FF91EF91BF91AF919F918F9174
:1028F0007F916F915F914F913F912F910F900FBEFC
:102900000F901F9018951F920F920FB60F921124DF
:102910008F9381E080936E028F910F900FBE0F9086
:102920001F9018955F926F927F928F929F92AF92B5
:10293000BF92CF92DF92EF92FF920F931F93CF93AC
:10294000DF93CDB7DEB762970FB6F894DEBF0FBE48
:10295000CDBF7C01C62ED42E122F60932503BC015F
:10296000CE010D960E944A2363E773E0CE010196E3
:102970000E944123BE016F5F7F4FC7010E94B721B4
:10298000082FCE0101960E943C23002319F00E94DB
:102990004628F3C56AE673E0CE0101960E94412302
:1029A000BE016F5F7F4FC7010E94B721082FCE0184
:1029B00001960E943C23002311F100911103109114
:1029C0001203CC2019F0F801108203C081E0F80155
:1029D0008083B8018CE291E00E94630FF8011182BC
:1029E000B8016F5F7F4F8AE190E00E94630FF801AA
:1029F0001282B8016E5F7F4F86E190E0BCC562E64F
:102A000073E0CE0101960E944123BE016F5F7F4FAC
:102A1000C7010E94B721082FCE0101960E943C23D6
:102A2000002309F45DC060E08091110390911203CE
:102A30000E947B0FE0911103F0911203138ABF01F2
:102A40006D5E7F4F8EE390E00E94630FE091110373
:102A5000F0911203128ABF016E5E7F4F8AE390E00D
:102A60000E94630FE0911103F09112031486BF01DD
:102A7000645F7F4F86E390E00E94630FE091110353
:102A8000F0911203128EBF01665E7F4F8CE090E0E2
:102A90000E94630F63E480911103909112030E94DE
:102AA0008B0FE0911103F091120382E390E0978B7A
:102AB000868BBF016A5E7F4F84E090E00E948E2586
:102AC000E0911103F091120382E090E0918F808FEA
:102AD000BF01685E7F4F82E190E00E948E254DC568
:102AE0006EE573E0CE0101960E944123BE016F5F47
:102AF0007F4FC7010E94B721082FCE0101960E9487
:102B00003C230023F1F1E0901103F09012036FE5F4
:102B100071E0CE0107960E94532310E0F7018081F7
:102B20001817F8F4FBE01F9FA0011124405D5E4FD1
:102B30002AE0B701CE0101960E94B60CBE016F5F7C
:102B40007F4FCE0107960E94A622CE0101960E94D9
:102B50003C236EE571E0CE0107960E9497221F5F2D
:102B6000DDCF6FE571E0CE0107960E94D221882368
:102B700009F41BC564E573E0CE0107960E94AD22FF
:102B800014C56EE473E0CE0101960E944123BE019C
:102B90006F5F7F4FC7010E94B721082FCE010196BA
:102BA0000E943C23002329F081E193E00E946E12F1
:102BB0002BC56AE473E0CE0101960E944123BE0159
:102BC0006F5F7F4FC7010E94B721082FCE0101968A
:102BD0000E943C23002319F00E94FE27FBC463E4FB
:102BE00073E0CE0101960E944123BE016F5F7F4FCB
:102BF000C7010E94B721082FCE0101960E943C23F5
:102C0000002311F061E014C06BE373E0CE01019684
:102C10000E944123BE016F5F7F4FC7010E94B72111
:102C2000082FCE0101960E943C23002379F060E03A
:102C300080911103909112030E947B0F61E08091BB
:102C40001303909114030E94EE1297C465E373E09E
:102C5000CE0101960E944123BE016F5F7F4FC701E5
:102C60000E94B721082FCE0101960E943C23002329
:102C700039F0E0911103F091120381E0848718C0CC
:102C80006EE273E0CE0101960E944123BE016F5FA8
:102C90007F4FC7010E94B721082FCE0101960E94E5
:102CA0003C23002359F0E0911103F09112031486A4
:102CB000BF01645F7F4F86E390E05DC468E273E02C
:102CC000CE0101960E944123BE016F5F7F4FC70175
:102CD0000E94B721082FCE0101960E943C230023B9
:102CE00039F0E0911103F091120381E0828F18C056
:102CF00061E273E0CE0101960E944123BE016F5F45
:102D00007F4FC7010E94B721082FCE0101960E9474
:102D10003C23002359F0E0911103F0911203128E2D
:102D2000BF01665E7F4F8CE090E025C46CE173E0EC
:102D3000CE0101960E944123BE016F5F7F4FC70104
:102D40000E94B721082FCE0101960E943C23002348
:102D5000E1F0F70184819581059708F455C464E09A
:102D600070E0C7010E94A621982F9D7F913429F021
:102D7000843519F08E3409F047C4682F809111030F
:102D8000909112030E948B0FF8C366E173E0CE01AD
:102D900001960E944123BE016F5F7F4FC7010E94D1
:102DA000B721082FCE0101960E943C23002399F001
:102DB000E0911103F09112038489882309F424C45B
:102DC0008589811121C46AE972E0CE0101960E94D1
:102DD000412341E00FC16FE073E0CE0101960E94F4
:102DE0004123BE016F5F7F4FC7010E94B721082FAB
:102DF000CE0101960E943C23002339F0E09111039B
:102E0000F0911203138ABF01B2C368E073E0CE01F0
:102E100001960E944123BE016F5F7F4FC7010E9450
:102E2000B721082FCE0101960E943C23002309F40C
:102E3000E9C061E073E0C7010E94AD224AE350E1BE
:102E400060E070E0C7010E948E27882339F0C70137
:102E50000E949B21162F110F160F01C01FEF65E076
:102E600081E193E00E94D90F6AEF72E0C7010E94EE
:102E7000AD224DE650E160E070E0C7010E948E2770
:102E8000882309F455C06EE871E0CE0107960E94D0
:102E90005323F701848195812B853C856C01C21AEF
:102EA000D30A2115310551F1009741F1821793079B
:102EB00028F1C816D90620F06C01F1E0CF1AD1082C
:102EC000F701608071808F809884C30155245A94E3
:102ED0000FEF5301AC0CBD1CA816B90690F0B4015D
:102EE0000E943838009769F0AC0146195709C4169A
:102EF000D50610F0542E052F0196EECF2FEF3FEFA1
:102F000002C0252D302F40E050E0B701CE010196E0
:102F10000E946823CE0101960E949B21062FCE01BC
:102F200001960E943C23CE0107960E943C2301C0DB
:102F30000FEFC0901303D0901403C6010E94B91282
:102F4000F82EF601E6A463E972E0CE0101960E9434
:102F50004123E0911103F09112038385811106C092
:102F60006BE872E0CE0101960E94AD2262EB71E047
:102F7000CE0101960E949722F1E0FF1631F022E087
:102F8000F21631F06BE772E005C06FE672E002C046
:102F900061E872E0CE0101960E94232264E772E0AC
:102FA000CE0101960E942322E11003C064E672E084
:102FB00002C06AE672E0CE0101960E9423220F3F12
:102FC00059F06DE572E0CE0101960E942322602F38
:102FD000CE0101960E94C5351F3F59F063E572E0AE
:102FE000CE0101960E942322612FCE0101960E94FC
:102FF000C53540E061E0CE0101960E94BC1ECE01C5
:103000000196E6C265EF72E0CE0101960E9441236F
:10301000BE016F5F7F4FC7010E94B721882321F057
:10302000CC2019F011E001C010E0CE0101960E9401
:103030003C23112359F0E0911103F0911203828196
:10304000882309F4E1C281E0818318C06FEE72E049
:10305000CE0101960E944123BE016F5F7F4FC701E1
:103060000E94B721182FCE0101960E943C23112304
:1030700059F0E0911103F09112031182BF016F5FCB
:103080007F4F8AE190E077C2F7010481015069EE39
:1030900072E0CE0101960E94412325E0AE014F5F10
:1030A0005F4FB70181E193E00E940410182FCE0119
:1030B00001960E943C231123F1F0C7010E94422691
:1030C000882309F4A1C2C7010E949B218B016630AD
:1030D000710510F005E010E0E0911103F09112038A
:1030E000028BBF016E5E7F4F8AE390E00E94630F08
:1030F00063EE72E07BC0F701048101506AED72E07B
:10310000CE0101960E94412328E0AE014F5F5F4F40
:10311000B70181E193E00E940410182FCE010196BF
:103120000E943C23112329F1C7010E9442268823D3
:1031300009F46AC2C7010E949B218B0162307105AC
:1031400030F0613B744028F000EB14E002C002E074
:1031500010E0E0911103F0911203118F008FBF0175
:10316000685E7F4F82E190E00E948E2561ED72E003
:103170003DC0F7010481015068EC72E0CE01019678
:103180000E94412328E0AE014F5F5F4FB70181E10C
:1031900093E00E940410182FCE0101960E943C2358
:1031A000112371F1C7010E944226882309F42CC221
:1031B000C7010E949B218B016233710530F0613899
:1031C000704728F000E810E702C002E310E0E09149
:1031D0001103F0911203178B068BBF016A5E7F4FBC
:1031E00084E090E00E948E256FEB72E0CE010D9698
:1031F0000E94AD22B801CE010D960E949535BDC149
:10320000F701048101506BEB72E0CE0101960E9440
:10321000412323E0AE014F5F5F4FB70181E193E0AF
:103220000E940410182FCE0101960E943C23112306
:1032300021F16FEA72E0CE0107960E944123B701A7
:10324000CE0107960E94A62260E771E0CE010796A4
:103250000E94972281E080932603BE01695F7F4F21
:10326000CE0101960E944A2341E0BE016F5F7F4F6D
:1032700081E193E00E94EC10A5C167EB71E0CE0103
:1032800001960E9453230CE022E0AE014F5F5F4F96
:10329000B70181E193E00E940410182FCE0101963E
:1032A0000E943C23112309F448C0C7010E94422612
:1032B000882309F4A9C10091110310911203F801A8
:1032C0008081823008F4A0C1B701C8010E94BC0E01
:1032D000F82E8FEF8F0D8D3F08F096C18BE0E82E12
:1032E0002F2D30E0F8019081492F50E041505109D5
:1032F00024173507FCF42F5F3F4FE29E5001E39EF9
:10330000B00C1124A501405D5E4F2AE0B801CE014A
:1033100001960E94B60CB5016B5D7E4FAE014F5F0A
:103320005F4FC8010E94530DCE0101960E943C23BD
:10333000F394D6CF9150908348C06BEB71E0CE01EF
:1033400001960E9453230CE022E0AE014F5F5F4FD5
:10335000B70181E193E00E940410182FCE0101967D
:103360000E943C231123A9F1C7010E944226882311
:1033700009F44AC10091110310911203F8018081F0
:103380008F3009F441C1B701C8010E94BC0E8F3FC4
:1033900009F03AC1B701CE0101960E944A23F80113
:1033A0006081FBE06F9FB0011124605D7E4FAE0134
:1033B0004F5F5F4FC8010E94530DCE0101960E94DE
:1033C0003C23F80180818F5F8083B8018CE291E01B
:1033D000D2C06AEB71E0CE0101960E9453230DE04A
:1033E00023E0AE014F5F5F4FB70181E193E00E94A0
:1033F0000410182FCE0101960E943C23112351F195
:10340000C7010E944226882309F4FEC000911103DF
:1034100010911203F8018081882309F4F5C081E03E
:103420008283B8016E5F7F4F86E190E00E94630F58
:10343000B701CE0101960E944A23AE014F5F5F4F54
:103440006EE170E0C8010E94530DCE0101960E940A
:103450003C2393C06EEB71E0CE0101960E94532392
:103460000DE023E0AE014F5F5F4FB70181E193E0D4
:103470000E940410182FCE0101960E943C231123B4
:1034800069F1C7010E944226882309F4BDC000915A
:1034900011031091120381E0F8018383B8016D5F7D
:1034A0007F4F88E590E00E94630FB701CE0101963F
:1034B0000E944A23AE014F5F5F4F60E670E0C80193
:1034C0000E94530DCE0101960E943C23F801148204
:1034D000B8016C5F7F4F8CE590E04DC062EC71E00D
:1034E000CE0101960E9453230DE023E0AE014F5F11
:1034F0005F4FB70181E193E00E940410182FCE01C5
:1035000001960E943C23112309F47EC0C7010E944A
:103510004226882309F478C0009111031091120308
:1035200081E0F801848BB8016C5E7F4F82E490E00B
:103530000E94630FB701CE0101960E944A23AE019B
:103540004F5F5F4F6AE470E0C8010E94530DCE01E7
:1035500001960E943C23F801158AB8016B5E7F4FEB
:1035600086E490E00E94630FF801138AB8016D5E53
:103570007F4F8EE390E00E94630F11E0D1102AC0CC
:1035800069EA72E0CE0107960E944123111106C03C
:1035900060EA72E0CE0107960E94AD22BE01635F31
:1035A0007F4FCE0107960E94A622BE01695F7F4F22
:1035B000CE0101960E944A2340E061E0CE010196CF
:1035C0000E94BC1ECE0101960E943C23CE010796AC
:1035D0000E943C23CE010D960E943C2362960FB6BA
:1035E000F894DEBF0FBECDBFDF91CF911F910F9139
:1035F000FF90EF90DF90CF90BF90AF909F908F9013
:103600007F906F905F90089510E0B8CFEF92FF9297
:103610000F931F93CF93DF9300D0CDB7DEB78C010C
:103620007B01FB0160819A838983CE0101960E9410
:10363000430FF70161810F5F1F4F1A830983CE018A
:1036400001960E94430FC7010F900F90DF91CF9119
:103650001F910F91FF90EF90089581E193E00E94F8
:1036600032120E94A6246093210370932203809358
:103670002303909324030895FC01A089B18982E07B
:103680008C93A485B5851C92A685B78583E38C931E
:10369000108EA489B58986E08C93A289B3898C9118
:1036A00080618C93A289B3898C9188608C93A28964
:1036B000B3898C9180688C930288F389E02D808196
:1036C0008F7D8083089580912603811111C0909190
:1036D0002E039E3471F490912F039E3451F4809107
:1036E0004203882331F09091400381E089270895B7
:1036F00080E00895E0E6F0E088E18083108208959C
:103700001F93CF93DF93EC01162F8EA99FA9DC01A5
:10371000ED91FC910284F385E02D0995CE010E9484
:1037200032120E94A6246F83788789879A8781E066
:103730008B871EA71C87DF91CF911F9108951F9340
:10374000CF93DF93CDB7DEB72C970FB6F894DEBFDB
:103750000FBECDBF182F68EB73E0CE0107960E9415
:1037600041231F3F11F461E407C0111102C064E45A
:1037700003C0113029F463E4CE0107960E9484222D
:1037800064EB73E0CE0107960E94232280914703E9
:1037900090914803DC01ED91FC910284F385E02DCA
:1037A0000995BE01695F7F4FCE0101960E944A23B1
:1037B00041E0BE016F5F7F4F81E193E00E94EC101A
:1037C000CE0101960E943C238091470390914803CB
:1037D000DC01ED91FC910284F385E02D0995CE0189
:1037E00007960E943C232C960FB6F894DEBF0FBEBE
:1037F000CDBFDF91CF911F910895CF93DF9300D07C
:1038000000D000D0CDB7DEB71092300310921E0367
:103810008091470390914803DC01ED91FC91028473
:10382000F385E02D09956CEA73E0CE0101960E94C4
:10383000412341E0BE016F5F7F4F81E193E00E9431
:10384000EC10CE0101960E943C230E94A62461E068
:1038500081E193E00E94D90F6FE571E0CE010196FE
:103860000E94532341E0BE016F5F7F4F81E193E0EF
:103870000E94EC10CE0101960E943C2380914703E8
:1038800090914803DC01ED91FC910284F385E02DD9
:1038900009951092400380912E038E3411F08235E9
:1038A00069F580912F038F3449F58091360381119A
:1038B00025C080913203811121C080913103811193
:1038C0001DC0E0911103F0911203838D8435B1F492
:1038D0008081823098F081E08093320380933903B5
:1038E0000E94A62460933A0370933B0380933C03A9
:1038F00090933D0380913F0380933E0380912E037C
:10390000893409F051C080912F038F3409F04CC0E5
:1039100080913603882309F447C0E0911103F091A8
:1039200012038389882309F43FC0809134038F5F99
:103930008093340390913303992351F0E091130362
:10394000F091140380913703E80FF11D16A22AC0ED
:10395000823090F40E94A62460933A0370933B0354
:1039600080933C0390933D038091370380933E0303
:1039700081E08093350316C0809113039091140366
:1039800020913703FC01E20FF11D26A1223041F402
:1039900020A5DC01A20FB11D14961C9280E001C08D
:1039A00083E086A3109236031092380310923303FB
:1039B00010923103109216038EE480932E038093AD
:1039C0002F03109215030E94A62460934303709363
:1039D0004403809345039093460310924203269636
:1039E0000FB6F894DEBF0FBECDBFDF91CF91089523
:1039F000CF93DF9360E070E00E94A62190913603A0
:103A0000992351F0813409F0DAC081E080933303C7
:103A1000DF91CF910C94FD1B813371F483E580938A
:103A200041030E942D1B61E08091130390911403C8
:103A3000DF91CF910C94C413823381F48FE480938F
:103A400041030E942D1B20E040E061E080911303C0
:103A500090911403DF91CF910C947512833341F54B
:103A600084E5809341030E942D1BC0911303D091E4
:103A70001403CE010E94B912843011F46CE403C027
:103A8000823039F461E48A819B81DF91CF910C947B
:103A9000D00F813009F093C0CE010E9449132A81D2
:103AA0003B81882311F061E301C063E3C901EDCFDD
:103AB0008433E9F487E5809341030E942D1BC09174
:103AC0001303D0911403CE010E949D13811102C0F3
:103AD00064E5D9CF813011F461E5D5CF823011F49E
:103AE00062E5D1CF833009F06AC065E4CCCF84347D
:103AF000C9F481E38093410361E0809111039091C7
:103B000012030E947B0F61E08091130390911403D4
:103B10000E94EE1260E080911303909114030E94C2
:103B2000C41315C08334C1F482E38093410360E081
:103B300080911103909112030E947B0F21E040E0DD
:103B400060E080911303909114030E9475128FEF2F
:103B5000DF91CF910C949F1B8833A9F40E942D1BF9
:103B600061E080911103909112030E947B0F61E04C
:103B700080911303909114030E94EE1281E08093D0
:103B8000160368E316C08933D1F40E942D1B60E050
:103B900080911103909112030E947B0F61E080914C
:103BA0001303909114030E94EE1281E08093160398
:103BB00069E381E193E0DF91CF910C94801BDF9169
:103BC000CF910895EF92FF920F931F93CF93DF93BE
:103BD00000D000D000D0CDB7DEB77C0166EC71E03C
:103BE000CE0101960E94532308E027E0AE014F5F0B
:103BF0005F4FB70181E193E00E940410182FCE01BE
:103C000001960E943C23812F26960FB6F894DEBFC2
:103C10000FBECDBFDF91CF911F910F91FF90EF901D
:103C20000895FF920F931F93CF93DF9300D000D09E
:103C300000D0CDB7DEB78C0160EA73E0CE0101960B
:103C40000E944123BE016F5F7F4FC8010E94B721D0
:103C5000F82ECE0101960E943C23FF20E1F02CE0DB
:103C600030E04BE050E0B801CE0101960E9468239D
:103C700060E070E0CE0101960E94A621182FCE01CF
:103C800001960E943C23123341F0133341F010336C
:103C900041F0163341F08EE407C084E405C082E5AC
:103CA00003C089E401C085E426960FB6F894DEBF10
:103CB0000FBECDBFDF91CF911F910F91FF9008955F
:103CC000FF920F931F93CF93DF9300D000D000D0CB
:103CD000CDB7DEB78C0164E973E0CE0101960E9496
:103CE0004123BE016F5F7F4FC8010E94F121F82E72
:103CF000CE0101960E943C23FF2011F091E02FC0DD
:103D00006EE873E0CE0101960E944123BE016F5F11
:103D10007F4FC8010E94F121F82ECE0101960E942A
:103D20003C23F110EBCF63E873E0CE0101960E94D3
:103D30004123BE016F5F7F4FC8010E94F121F82E21
:103D4000CE0101960E943C23F110D8CF6EEC71E0B9
:103D5000C8010E94D22191E0811101C090E0892F19
:103D600026960FB6F894DEBF0FBECDBFDF91CF9180
:103D70001F910F91FF900895EF92FF920F931F9361
:103D8000CF93DF93CDB7DEB762970FB6F894DEBF5F
:103D90000FBECDBF7C01062F142F81E080931E0340
:103DA0008091470390914803DC01ED91FC910284DE
:103DB000F385E02D0995B701CE010D960E944A23A7
:103DC000011126C080913F038F34B1F034F4833465
:103DD00099F0863409F0F2C00FC0833521F08535A3
:103DE00009F0ECC009C065ED71E0CE010D960E94AE
:103DF000D5226CED71E008C065ED71E0CE010D9645
:103E00000E94D5226FED71E0CE010D960E9497229F
:103E100063EE71E0CE0107960E9453231230B9F48D
:103E20006091110370911203FB018381882341F09B
:103E30002AE040E650E0CE0101960E94B60C25C073
:103E40006FE571E0CE0101960E9453231EC0113030
:103E500049F46091110370911203CE0101960E9402
:103E6000F60D13C080912503882339F068E773E0CD
:103E7000CE0107960E94232213C060911103709116
:103E80001203CE0101960E94170EBE016F5F7F4F95
:103E9000CE0107960E94A622CE0101960E943C23E5
:103EA00060E771E0CE0107960E9497228091470358
:103EB00090914803DC01ED91FC910284F385E02DA3
:103EC0000995BE01695F7F4FCE0101960E944A238A
:103ED00041E0BE016F5F7F4F81E193E00E94EC10F3
:103EE000CE0101960E943C238091470390914803A4
:103EF000DC01ED91FC910284F385E02D09956AE0E7
:103F000081E193E00E94D90FBE01635F7F4FCE0134
:103F100001960E944A2341E0BE016F5F7F4F81E11D
:103F200093E00E94EC10CE0101960E943C23809108
:103F3000470390914803DC01ED91FC910284F385E5
:103F4000E02D09956AE081E193E00E94D90F80910C
:103F5000470390914803DC01ED91FC910284F385C5
:103F6000E02D099581E193E00E94CB100091470379
:103F700010914803D801ED91FC910190F081E02D62
:103F80006AE1C8010995C8010E94AE2380914703E8
:103F900090914803DC01ED91FC910284F385E02DC2
:103FA00009956AE081E193E00E94D90F1092250300
:103FB00010921E03CE0107960E943C23CE010D965F
:103FC0000E943C2362960FB6F894DEBF0FBECDBFB1
:103FD000DF91CF911F910F91FF90EF900895089579
:103FE000CF92DF92EF92FF920F931F93CF93DF93C5
:103FF0006C017A018B01C0E0D0E0CE15DF0589F0BD
:10400000D8016D918D01D601ED91FC910190F08167
:10401000E02DC6010995892B11F47E0102C021967D
:10402000ECCFC701DF91CF911F910F91FF90EF90DF
:10403000DF90CF900895FC01918D828D981761F0EB
:10404000828DDF01A80FB11D5D968C91928D9F5FCF
:104050009F73928F90E008958FEF9FEF0895FC017A
:10406000918D828D981731F0828DE80FF11D858D2D
:1040700090E008958FEF9FEF0895FC01918D228DC0
:10408000892F90E0805C9F4F821B91098F73992745
:10409000089584E792E00E943D2021E0892B09F4F5
:1040A00020E0822F0895FC01848DDF01A80FB11D4F
:1040B000A35ABF4F2C91848D90E001968F7399275E
:1040C000848FA689B7892C93A089B1898C9180644B
:1040D0008C93938D848D981306C00288F389E02D0C
:1040E00080818F7D80830895EF92FF920F931F93BD
:1040F000CF93DF93EC0181E0888F9B8D8C8D98139B
:1041000005C0E889F989808185FD24C0F62E0B8DD4
:1041100010E00F5F1F4F0F731127E02E8C8DE812F8
:104120000CC00FB607FCFACFE889F989808185FFBA
:10413000F5CFCE010E945320F1CF8B8DFE01E80F09
:10414000F11DE35AFF4FF0820B8FEA89FB898081D2
:10415000806207C0EE89FF896083E889F9898081E0
:104160008064808381E090E0DF91CF911F910F9177
:10417000FF90EF900895CF93DF93EC01888D882313
:10418000C9F0EA89FB89808185FD05C0A889B989C4
:104190008C9186FD0FC00FB607FCF5CF808185FF9F
:1041A000F2CFA889B9898C9185FFEDCFCE010E940D
:1041B0005320E7CFDF91CF91089580E090E0892BE5
:1041C00029F00E94492081110C9400000895833049
:1041D00081F028F4813099F08230A1F00895873081
:1041E000A9F08830B9F08430D1F4809180008F7DBF
:1041F00003C0809180008F7780938000089584B5FC
:104200008F7702C084B58F7D84BD08958091B00002
:104210008F7703C08091B0008F7D8093B0000895A8
:1042200008950E94ED37CF93DF93EC018881998147
:10423000009711F00E948B36198218821D821C8211
:104240001B821A82DF91CF9108950F931F93CF9312
:10425000DF93EC0188819981009729F02A813B81C5
:104260002617370788F48B016F5F7F4F0E94233733
:10427000009761F0998388831B830A832C813D8199
:10428000232B11F4FC01108281E001C080E0DF915A
:10429000CF911F910F910895EF92FF920F931F936B
:1042A000CF93DF93FC01248135816115710511F4F1
:1042B00080E019C041155105A9F07B01EC018A018C
:1042C000020F131FB8010E942521882389F328813A
:1042D00039818C819D81B701820F931F0E94143810
:1042E0001D830C8381E0DF91CF911F910F91FF908F
:1042F000EF900895EF92FF920F931F93CF93DF9368
:10430000EC017B018A01BA010E942521811104C0C0
:10431000CE010E94132107C01D830C83B701888141
:1043200099810E941438CE01DF91CF911F910F9196
:10433000FF90EF900895FC0180819181009711F02A
:104340000C94523860E070E0CB010895FC012481A8
:1043500035816217730748F480819181009729F0B5
:10436000FC01E60FF71F8081089580E00895FB01AE
:1043700044815581FC01248135812417350778F06B
:1043800080819181009759F0FB01608171816115F5
:10439000710529F00E941B3821E0892B09F020E0EB
:1043A000822F0895FC0124813581232B31F421E0F3
:1043B00061157105A1F0FB0108C0FC0180819181AC
:1043C0006115710531F421E0FC018081882339F009
:1043D00005C00E940B3821E0892B09F020E0822FD4
:1043E0000895FC0124813581FB0144815581241706
:1043F000350721F5FC0180819181FB01608171818C
:10440000009719F061157105A1F46115710549F066
:10441000232BB1F0FB01808190E09195819591096A
:104420000AC0009769F0232B59F0FC01808190E0CD
:1044300002C00E940B3821E0892B19F020E001C056
:1044400021E0822F0895EF92FF920F931F93CF9355
:10445000DF936115710511F480E01EC08B01EC0142
:10446000CB010E9480380097B1F02C813D817C0106
:10447000E20EF31EB701CE010E942521882361F3CD
:10448000288139818C819D81B801820F931F0E9400
:104490007938FD82EC8281E0DF91CF911F910F91FD
:1044A000FF90EF900895EF92FF920F931F93CF9399
:1044B000DF93CDB7DEB72D970FB6F894DEBF0FBEF2
:1044C000CDBF7C01CB01BA012AE08E010F5F1F4FE7
:1044D000A8010E94A938F80101900020E9F731975E
:1044E000AF01401B510BB801C7010E944C212D9612
:1044F0000FB6F894DEBF0FBECDBFDF91CF911F91F5
:104500000F91FF90EF900895CF93DF9300D0CDB738
:10451000DEB769831A8241E050E0BE016F5F7F4FD2
:104520000E944C210F900F90DF91CF91089561155B
:10453000710551F0FB0101900020E9F73197AF01BF
:10454000461B570B0C944C2180E00895FB014481DD
:104550005581608171810C944C21EF92FF920F93F1
:104560001F93CF93DF93EC018B016115710551F01F
:10457000CB010E9480387C01BC01CE010E94252124
:10458000811104C0CE010E94132107C0FD82EC827C
:10459000B801888199810E947938CE01DF91CF914D
:1045A0001F910F91FF90EF900895CF93DF93EC014F
:1045B0006115710559F0FB0101900020E9F7319771
:1045C000AF01461B570B0E947A2102C00E941321A3
:1045D000CE01DF91CF910895CF93DF93EC01FB01E2
:1045E0008617970761F0608171816115710529F067
:1045F000448155810E947A2102C00E941321CE017C
:10460000DF91CF9108950F931F93CF93DF938C0188
:10461000EB01FC01808191810097B1F06881798183
:104620006115710579F0428153812C813D814217DA
:10463000530740F00E9414388C819D81F8019583C6
:10464000848313C00E948B3688819981F8019183FD
:1046500080838A819B81938382838C819D819583D2
:104660008483198218821B821A821D821C82DF9128
:10467000CF911F910F910895FC01808191810C943D
:104680008B36FC01118210821382128215821482F1
:104690000C94AD22FC0111821082138212821582C9
:1046A00014820C94EC22FC0111821082138212827B
:1046B000158214826115710551F0FB0101900020F3
:1046C000E9F73197AF01461B570B0C947A210895F7
:1046D000BF92CF92DF92EF92FF920F931F93CF93EF
:1046E000DF937C016B018A01E9012417350720F46F
:1046F000812F8901C42FD82F6FE571E0C7010E9477
:104700005323D60114968D919C911597081719077C
:10471000D0F48C179D0708F4EC01D601ED91FC91C3
:104720001197EC0FFD1FB08010824D915C91BA0182
:10473000600F711FC7010E94D522D601ED91FC9137
:10474000EC0FFD1FB082C701DF91CF911F910F9138
:10475000FF90EF90DF90CF90BF900895DC01ED9136
:10476000FC910280F381E02D42E050E06DE571E0C4
:1047700009941F920F920FB60F9211242F933F931B
:104780004F935F936F937F938F939F93AF93BF9359
:10479000EF93FF9384E792E00E945320FF91EF9103
:1047A000BF91AF919F918F917F916F915F914F9149
:1047B0003F912F910F900FBE0F901F9018951F9251
:1047C0000F920FB60F9211242F938F939F93EF9315
:1047D000FF93E0918402F09185028081E0918A024A
:1047E000F0918B0282FD12C0908180918D028F5FCB
:1047F0008F7320918E02821751F0E0918D02F0E0CC
:10480000EC58FD4F958F80938D0201C08081FF9100
:10481000EF919F918F912F910F900FBE0F901F904E
:104820001895CF93DF93282F30E0F901E95FFB4F14
:104830008491F901ED50FC4FD491F901E152FC4F04
:10484000C491CC2391F081110E94E720EC2FF0E07D
:10485000EE0FFF1FEB52FC4FA591B491EC91ED23AD
:1048600081E090E021F480E002C080E090E0DF9100
:10487000CF9108951F93CF93DF93282F30E0F90154
:10488000E95FFB4F8491F901ED50FC4FD491F901A0
:10489000E152FC4FC491CC23C9F0162F81110E9424
:1048A000E720EC2FF0E0EE0FFF1FE553FC4FA59142
:1048B000B4918FB7F894111105C09C91ED2FE0953C
:1048C000E92302C0EC91ED2BEC938FBFDF91CF91E8
:1048D0001F910895CF93DF9390E0FC01ED50FC4FC2
:1048E0002491FC01E152FC4F8491882361F190E016
:1048F000880F991FFC01EF53FC4FC591D491FC0127
:10490000E553FC4FA591B491611109C09FB7F8948C
:104910008881209582238883EC912E230BC06230FE
:1049200061F49FB7F8943881822F80958323888320
:10493000EC912E2B2C939FBF06C08FB7F894E88183
:104940002E2B28838FBFDF91CF9108952FB7F89436
:104950006091760370917703809178039091790349
:104960002FBF08950F931F93CF93DF93EC010E9405
:10497000A624688779878A879B87E881F9810680E2
:10498000F781E02DCE01099597FF17C00E94A6245C
:10499000088519852A853B85DC01CB01801B910B9D
:1049A000A20BB30B0C811D812E813F8180179107D3
:1049B000A207B30710F38FEF9FEFDF91CF911F9105
:1049C0000F9108951F920F920FB60F9211242F93FB
:1049D0003F938F939F93AF93BF9380917603909172
:1049E0007703A0917803B09179033091750326E0A5
:1049F000230F2D3720F40296A11DB11D05C029E813
:104A0000230F0396A11DB11D209375038093760398
:104A100090937703A0937803B09379038091710307
:104A200090917203A0917303B09174030196A11D3C
:104A3000B11D8093710390937203A0937303B0939D
:104A40007403BF91AF919F918F913F912F910F90E0
:104A50000FBE0F901F9018951F920F920FB60F92D6
:104A600011242F933F934F935F936F937F938F9373
:104A70009F93AF93BF93EF93FF93E0910201F09167
:104A800003010995FF91EF91BF91AF919F918F9194
:104A90007F916F915F914F913F912F910F900FBE3A
:104AA0000F901F9018951F920F920FB60F9211241E
:104AB0002F933F934F935F936F937F938F939F9326
:104AC000AF93BF93EF93FF93E0910001F091010149
:104AD0000995FF91EF91BF91AF919F918F917F9138
:104AE0006F915F914F913F912F910F900FBE0F905B
:104AF0001F9018950F931F93CF93DF938C01EB01B9
:104B00000E94F5388883C80101960E94F538898390
:104B1000CE01DF91CF911F910F910895EF92FF92F7
:104B20000F931F93CF93DF9300D0CDB7DEB78C01E7
:104B30007B01FB0160819A838983CE0101960E94EB
:104B4000430FF70161810F5F1F4F1A830983CE0165
:104B500001960E94430FC7010F900F90DF91CF91F4
:104B60001F910F91FF90EF900895CF93DF9300D0A6
:104B700000D000D0CDB7DEB790913103911119C0AC
:104B8000E0911103F0911203938D913491F480938D
:104B90003F036FE571E0CE0101960E94532340E090
:104BA00060E0CE0101960E94BC1ECE0101960E94DB
:104BB0003C2326960FB6F894DEBF0FBECDBFDF9123
:104BC000CF9108950F931F93CF93DF93EC018B0147
:104BD0006FE571E00E945323C8010E94B22497FD43
:104BE00008C08A30910529F0682FCE010E948422E6
:104BF000F3CFCE01DF91CF911F910F910895EF92E6
:104C0000FF920F931F93CF93DF9300D000D000D07B
:104C1000CDB7DEB78C016FE571E00E945323809120
:104C2000470390914803DC01ED91FC910480F581EC
:104C3000E02D099518161906BCF481E193E00E9455
:104C4000CB106091470370914803CE0101967C011F
:104C50000E94E2250E151F0521F0B701C8010E9430
:104C60000323C7010E943C23C80126960FB6F8947F
:104C7000DEBF0FBECDBFDF91CF911F910F91FF908F
:104C8000EF900895EF92FF920F931F93CF938C01B3
:104C9000FC01E480F580C0E06C2F70E06E157F05AC
:104CA00068F4C8010E94A621282F880F330B2053D7
:104CB00031092A30310520F4CF5FEECF81E001C009
:104CC00080E0CF911F910F91FF90EF9008950F9387
:104CD0001F93CF93DF93CDB7DEB76E970FB6F894DF
:104CE000DEBF0FBECDBF8C0167E674E0CE0101963A
:104CF0000E944123BE016F5F7F4FC8010E94F121D6
:104D000081114DC06CE574E0CE0107960E944123ED
:104D1000BE01695F7F4FC8010E94F121811141C02E
:104D200061E574E0CE010D960E944123BE01635FF0
:104D30007F4FC8010E94F121811135C066E474E003
:104D4000CE0143960E944123BE016D5E7F4FC80194
:104D50000E94F121811115C06BE374E0CE014996E8
:104D60000E944123BE01675E7F4FC8010E94F1216E
:104D700011E0811101C010E0CE0149960E943C2350
:104D800001C011E0CE0143960E943C23CE010D9656
:104D90000E943C23CE0107960E943C2309C080E07C
:104DA00004C081E002C011E0F1CF11E08111F2CF27
:104DB000CE0101960E943C23812F6E960FB6F89487
:104DC000DEBF0FBECDBFDF91CF911F910F91089530
:104DD0008F929F92AF92BF92CF92DF92EF92FF920B
:104DE0001F93CF93DF9300D000D000D0CDB7DEB7B4
:104DF000162FBC01CE0101960E944A2340E0BE015D
:104E00006F5F7F4F81E193E00E94EC10CE0101962D
:104E10000E943C230E94A6244B015C01112339F01F
:104E200090E6C92E9AEED92EE12CF12C15C088EB14
:104E3000C82E8BE0D82EE12CF12C0EC080914703B8
:104E400090914803DC01ED91FC910480F581E02D07
:104E500009951816190674F00E94A624DC01CB01EE
:104E600088199909AA09BB098C159D05AE05BF05CE
:104E700028F321C0CE0101960E94FF2560EF71E06A
:104E8000CE0101960E94D22181110DC06EEC71E01D
:104E9000CE0101960E94D221811107C0CE01019658
:104EA0000E943C23D9CF11E001C010E0CE01019651
:104EB0000E943C2301C010E0812F26960FB6F89483
:104EC000DEBF0FBECDBFDF91CF911F91FF90EF905E
:104ED000DF90CF90BF90AF909F908F900895CF9329
:104EE000DF9300D000D000D0CDB7DEB76DE274E024
:104EF000CE0101960E94412360E0CE0101960E94FE
:104F0000E826CE0101960E943C2326960FB6F8941F
:104F1000DEBF0FBECDBFDF91CF9108958F929F92DC
:104F2000AF92BF92CF92DF92EF92FF920F931F93B7
:104F3000CF93DF9300D000D000D0CDB7DEB76C01A7
:104F40007A010E94A6244B015C01B601CE010196B4
:104F50000E944A2341E0BE016F5F7F4F81E193E0F1
:104F60000E94EC10CE0101960E943C230E94A624D0
:104F70008B019C01081919092A093B09003A1F40B5
:104F80002105310530F58091470390914803DC01FC
:104F9000ED91FC910480F581E02D0995892B31F389
:104FA000CE0101960E94FF25BE016F5F7F4F81E118
:104FB00093E0F7010995182F8823A1F2BE016F5FD6
:104FC0007F4FC6010E94EC22CE0101960E943C2335
:104FD00001C010E0812F26960FB6F894DEBF0FBEF9
:104FE000CDBFDF91CF911F910F91FF90EF90DF9098
:104FF000CF90BF90AF909F908F900895EF92FF92C7
:105000000F931F93CF93DF93CDB7DEB72A970FB6D9
:10501000F894DEBF0FBECDBF81E08093250369E227
:1050200074E0CE0101960E9441237E0187E0E80EE4
:10503000F11C08E413E0C8010E94F538F7018193E0
:105040007F010F5F1F4F0C34F3E01F07A1F74F8163
:10505000588569857A85CE0101960E94532240E0E9
:1050600061E0CE0101960E94BC1ECE0101960E9415
:105070003C232A960FB6F894DEBF0FBECDBFDF915A
:10508000CF911F910F91FF90EF900895CF93DF93F1
:1050900000D000D000D0CDB7DEB76BE174E0CE0118
:1050A00001960E94412360E0CE0101960E94E8260D
:1050B000CE0101960E943C2326960FB6F894DEBFDF
:1050C0000FBECDBFDF91CF910895CF93DF9300D076
:1050D00000D000D0CDB7DEB76FE974E0CE01019605
:1050E0000E94412360E0CE0101960E94E826CE0195
:1050F00001960E943C2368E974E0CE0101960E946B
:10510000412360E0CE0101960E94E826CE0101967F
:105110000E943C236CE874E0CE0101960E9441237A
:1051200060E0CE0101960E94E826CE0101960E9421
:105130003C2381E08983BE016F5F7F4F84E893E069
:105140000E94630F1A821982BE016F5F7F4F84E94C
:1051500093E00E94061B1982BE016F5F7F4F80E9BA
:1051600093E00E94630F64E681E193E00E94D90F0F
:1051700081E193E00E946E1226960FB6F894DEBF8E
:105180000FBECDBFDF91CF9108951F93CF93DF93D3
:1051900000D000D000D0CDB7DEB76DE774E0CE010F
:1051A00001960E94412361E0CE0101960E94E8260B
:1051B000182FCE0101960E943C23812F26960FB610
:1051C000F894DEBF0FBECDBFDF91CF911F91089540
:1051D000CF92DF92EF92FF920F931F93CF93DF93C3
:1051E000CDB7DEB72C970FB6F894DEBF0FBECDBF9C
:1051F00064EF71E0CE0101960E94532340E0BE01AE
:105200006F5F7F4F81E193E00E94EC10CE01019629
:105210000E943C230E94A6246B017C010E94A624CC
:10522000DC01CB018C199D09AE09BF098838934177
:10523000A105B10508F043C0809147039091480350
:10524000DC01ED91FC910480F581E02D0995892B1D
:1052500029F36091470370914803CE0107960E949D
:10526000E22562E774E0CE0101960E9441230BE043
:105270002AE0AE014F5F5F4FBE01695F7F4F81E162
:1052800093E00E940410182FCE0101960E943C2347
:10529000112351F060E070E0CE0107960E94A62134
:1052A000833339F0813331F0CE0107960E943C23DD
:1052B000B5CF10E0CE0107960E943C2301C010E05C
:1052C000812F2C960FB6F894DEBF0FBECDBFDF91B5
:1052D000CF911F910F91FF90EF90DF90CF900895A5
:1052E000CF92DF92EF92FF921F93CF93DF9300D084
:1052F00000D000D0CDB7DEB7BC01CE0101960E9430
:105300004A2340E0BE016F5F7F4F81E193E00E943E
:10531000EC10CE0101960E943C230E94A6246B0152
:105320007C010E94A624DC01CB018C199D09AE09E9
:10533000BF0988389341A105B10590F580914703D5
:1053400090914803DC01ED91FC910480F581E02D02
:105350000995892B31F36091470370914803CE0181
:1053600001960E94E22560EF71E0CE0101960E9455
:10537000D22181110DC06EEC71E0CE0101960E9428
:10538000D221811107C0CE0101960E943C23C9CFD2
:1053900011E001C010E0CE0101960E943C2301C043
:1053A00010E0812F26960FB6F894DEBF0FBECDBF5A
:1053B000DF91CF911F91FF90EF90DF90CF900895F4
:1053C000CF93DF93CDB7DEB764970FB6F894DEBF07
:1053D0000FBECDBF789484B5826084BD84B58160F2
:1053E00084BD85B5826085BD85B5816085BD8091B0
:1053F0006E00816080936E00109281008091810028
:10540000826080938100809181008160809381001F
:10541000809180008160809380008091B1008460E1
:105420008093B1008091B00081608093B000809142
:105430007A00846080937A0080917A008260809301
:105440007A0080917A008E7F80937A0080917A0032
:10545000806880937A001092C10084B761E088E090
:105460000E946A2460E088E00E943A2462E089E0B9
:105470000E946A2489E00E941124892B39F4109239
:10548000050260E088E00E943A2407C061E088E0FD
:105490000E943A2481E08093050280916800816037
:1054A000809368008091680082608093680080919A
:1054B0006B00826080936B0080916C0081608093B0
:1054C0006C0080916C00826080936C0080916C0015
:1054D000806280936C008091680084608093680093
:1054E00080916D00806280936D0080916D0080647A
:1054F00080936D0080916D00806880936D00F894BA
:105500000E947A1B789484E792E00E943C1B61E041
:1055100081E10E946A2467E673E08AE390E00E94DA
:10552000AC0C809167038F3F41F41092670367E6EC
:1055300073E08AE390E00E94630F61E673E086E324
:1055400090E00E94AC0C809161038F3F41F4109277
:10555000610361E673E086E390E00E94630F69E512
:1055600073E08CE590E00E94AC0C809159038F3F72
:1055700041F41092590369E573E08CE590E00E94D4
:10558000630F68E573E088E590E00E94AC0C8091C1
:1055900058038F3F41F41092580368E573E088E5A3
:1055A00090E00E94630F60E673E080E090E00E946C
:1055B000AC0C809160038F3F29F460E085E593E0B7
:1055C0000E947B0F85E593E00E940D0E6BE673E071
:1055D00084E090E00E947A2580916B0390916C03A7
:1055E000019661F482E390E090936C0380936B03E7
:1055F0006BE673E084E090E00E948E256FE673E036
:105600008CE090E00E94AC0C80916F038F3F41F4DE
:1056100010926F036FE673E08CE090E00E94630FDE
:105620008EE090E00E94F538809370038F3F29F45C
:1056300064E585E593E00E948B0F66E673E086E9FA
:1056400090E00E94AC0C809166038F3F61F5109250
:10565000660366E673E086E990E00E94630F80913E
:105660006603882301F11092620310926303109283
:1056700064031092650362E673E088E990E00E949B
:10568000630F63E673E08AE990E00E94630F64E6CB
:1056900073E08CE990E00E94630F65E673E08EE9A9
:1056A00090E00E94630F809166038823C1F062E658
:1056B00073E088E990E00E94AC0C63E673E08AE94D
:1056C00090E00E94AC0C64E673E08CE990E00E94EC
:1056D000AC0C65E673E08EE990E00E94AC0C65E5E9
:1056E00073E08CE291E00E94AC0C80915503803114
:1056F00040F01092550365E573E08CE291E00E9462
:10570000630F67E573E086E190E00E94AC0C809146
:1057100057038F3F41F41092570367E573E086E12A
:1057200090E00E94630F66E573E08AE190E00E94DA
:10573000AC0C809156038F3F41F41092560366E5FE
:1057400073E08AE190E00E94630F6AE573E080E213
:1057500093E00E94AC0C80915A038F3F41F4109269
:105760005A036AE573E080E293E00E94630F6DE6FE
:1057700073E082E190E00E947A2580916D03909120
:105780006E03019661F482E090E090936E03809343
:105790006D036DE673E082E190E00E948E2568E67D
:1057A00073E08EE390E00E94AC0C809168038F3F21
:1057B00041F41092680368E673E08EE390E00E9483
:1057C000630F69E673E082E490E00E94AC0C809184
:1057D00069038F3F41F41092690369E673E082E444
:1057E00090E00E94630F6AE673E086E490E00E9416
:1057F000AC0C80916A038F3F41F410926A036AE611
:1058000073E086E490E00E94630F85E593E0909357
:1058100012038093110386E192E090931403809326
:10582000130311E002E042E0342E5AE0252E80916D
:1058300015028823F9F00E94A6248090110290900E
:105840001202A0901302B0901402DC01CB0188195F
:105850009909AA09BB0981319742A105B10550F008
:105860001092150280910502811104C00E94631BF1
:1058700081116CC580910402882399F01092040272
:105880008091050281278093100281110AC061E096
:1058900088E00E943A2480910F02811102C0109387
:1058A0000F0280911002882369F00E94631B8823F5
:1058B00049F080911E03811105C080914A0388231D
:1058C00009F4A7C780910E028111D9C180910D0200
:1058D000811108C00E94A624603D77408105910592
:1058E00008F039C580910F02882321F10E94A62477
:1058F0002091060230910702DC01CB01821B930B41
:10590000A109B109853F9140A105B10598F08091A9
:105910000401812780930401882311F061E001C014
:1059200060E081E10E943A240E94A624709307025D
:10593000609306020E94A624683A7146810591058B
:1059400008F401C56BE171E0CE0101960E9453237A
:1059500060E0CE0101960E94E826CE0101960E94E9
:105960003C2368EC70E0CE0101960E94412360E088
:10597000CE0101960E94E826F82ECE0101960E94E3
:105980003C23FF2009F4F2C06CEB70E0CE010D96D1
:105990000E94412360E0CE010D960E94E8268823F4
:1059A00009F4E0C060EB70E0CE0107960E9441234D
:1059B00060E0CE0107960E94E826F82E882381F049
:1059C0006CE970E0CE0101960E94412360E0CE01B7
:1059D00001960E94E826F82ECE0101960E943C23F3
:1059E000CE0107960E943C23CE010D960E943C23D7
:1059F000FF2009F4BBC06FE870E0CE0101960E9461
:105A0000412360E0CE0101960E94E826CE01019676
:105A10000E943C2363E870E0CE0101960E9441237E
:105A200060E0CE0101960E94E826CE0101960E9418
:105A30003C236CE770E0CE0101960E94412360E0B8
:105A4000CE0101960E94E826CE0101960E943C23D9
:105A50001093490360E770E0CE0101960E94412354
:105A600060E0CE0101960E94E826CE0101960E94D8
:105A70003C2368E670E0CE010D960E94412337E991
:105A8000432E3CE0532E612C712CB301A201CE01B8
:105A90000D960E948E27882309F464C06FE571E09B
:105AA000CE0107960E945323E0901103F090120359
:105AB000F701858181112EC00E94FE270E94462891
:105AC000E0901103F0901203F7011583B7016B5FAB
:105AD0007F4F80E293E00E94630F89898B8BBE0128
