:100000000C9463000C948B000C948B000C9472176E
:100010000C94C4100C94C4100C948B000C948B00A2
:100020000C948B000C948B000C948B000C948B0024
:100030000C948B000C948B000C948B000C948B0014
:100040000C947A100C948B000C94770F0C94510F35
:100050000C948B000C948B000C948B000C948B00F4
:100060000C948B000C948B000000000024002700EF
:100070002A0000000008000201000003040700003D
:1000800000000000000000000000250028002B00F8
:1000900000000000230026002900040404040404D6
:1000A0000404020202020202030303030303010227
:1000B00004081020408001020408102001020408F6
:1000C00010209F21F62311241FBECFEFD8E0DEBF02
:1000D000CDBF13E0A0E0B1E0ECE2F3E502C0059093
:1000E0000D92A634B107D9F725E0A6E4B3E001C02C
:1000F0001D92A831B207E1F710E0C2E6D0E004C0DB
:100100002197FE010E945D24C136D107C9F70E94E4
:10011000461B0C9489290C9468172F923F924F929A
:100120005F926F927F928F929F92AF92BF92CF9287
:10013000DF92EF92FF920F931F93CF93DF93CDB790
:10014000DEB76C970FB6F894DEBF0FBECDBF8091BF
:10015000A904882301F10E943E10E091AA040091B5
:10016000AB041091AC042091AD043091AE04AB010E
:10017000BC01401B510B620B730B24E6E29FC001D4
:100180001124092E000CAA0BBB0B481759076A074C
:100190007B0708F002C18091AF048E3421F5809175
:1001A000B704811116C00E943E100091B80410914E
:1001B000B9042091BA043091BB04DC01CB01801B4F
:1001C000910BA20BB30B893E9340A105B10508F03A
:1001D000E7C08091B304882309F47DC08DE894E0E2
:1001E0000E94131678C0893419F0823509F073C063
:1001F0000E943E100091A1041091A2042091A3043A
:100200003091A404AB01BC01401B510B620B730B7A
:1002100020919F043091A004E4E6E29FC001E39F97
:10022000900D1124A0E0B0E0481759076A077B073A
:1002300070F16091B4041091A5048091A60481111D
:1002400024C06C8F0E946C186C8D123038F410939F
:10025000A5048DE894E00E94BC1619C0E0918D04BD
:10026000F0918E0485A9813491F466EA72E0CE01A2
:1002700001960E94310F60E0CE0101960E94FC19A8
:10028000CE0101960E94230F02C00E946C1880913B
:100290009D04882301F10E943E10E0919804009192
:1002A000990410919A0420919B0430919C04AB0115
:1002B000BC01401B510B620B730BA4E6EA9FC0010B
:1002C0001124092E000CAA0BBB0B84179507A60757
:1002D000B70708F469C011E002EB202E02E0302ECF
:1002E0008CE6482E82E0582E8091BC049091BD048B
:1002F000DC01ED91FC910480F581E02D0995181643
:10030000190614F00C94AA0B66EA72E0CE0143962B
:100310000E94310FCE0101960E94B012BE016F5FA4
:100320007F4FCE0143960E94EA0ECE0101960E94B5
:10033000230F2F89215061E371E0CE0101962C8FAC
:100340000E94310F2C8D46E0BE016F5F7F4FCE01C2
:1003500043960E942A14082FCE0101960E94230F73
:10036000002309F4E5C28091A804882309F4E0C2BF
:100370001092A804BE016D5E7F4FCE0101960E94CF
:10038000280F61E0CE0101960E94FC19CE01019672
:100390000E94230F69E572E0BBC01092A904FBCE56
:1003A00081E08093B70415CF8091BC049091BD0487
:1003B000DC01ED91FC910284F385E02D09956AE35F
:1003C00072E0CE0101960E94310F40E0BE016F5FE6
:1003D0007F4F8DE894E00E94E315CE0101960E94C4
:1003E000230F66E472E0CE0101960E94310F40E0D7
:1003F000BE016F5F7F4F8DE894E00E94E315CE0150
:1004000001960E94230F60919E048DE894E06C8F0A
:100410000E94B6158091BC049091BD04DC01ED9161
:10042000FC910190F081E02D6C8D09956AE472E0F9
:10043000CE0101960E94310F41E0BE016F5F7F4FF8
:100440008DE894E00E94E315CE0101960E94230FEF
:100450008091BC049091BD04DC01ED91FC9102847B
:10046000F385E02D099510929D0435CF61E471E08C
:10047000CE0101960E94310F22E248E1BE016F5F7A
:100480007F4FCE0143960E942A14082FCE01019679
:100490000E94230FBE016D5E7F4FCE01002311F439
:1004A0000C94570A01960E94280F62E974E0CE016D
:1004B00001960E94100EDD24D394811101C0D12C2D
:1004C000CE0101960E94230FD1109DC2BE016D5E28
:1004D0007F4FCE0101960E94280FE0908D04F0908E
:1004E0008E04F7018081882309F4C9C2BE016F5FC1
:1004F0007F4FC70104960E94100E882309F4B0C2F2
:10050000CE0101960E94230F01117DC26EED71E0B4
:10051000CE0101960E94310F41E0BE016F5F7F4F17
:100520008DE894E00E94E315CE0101960E94230F0E
:100530000091B5048091AF0401110BC18E3419F004
:10054000823509F0B0C19091B0049E3419F099340D
:1005500009F0E3C0BE016D5E7F4FCE0101960E949F
:10056000280F6BE172E0CE0101960E94F10DF82E8A
:10057000CE0101960E94230FFF2009F4D4C1E0911F
:100580008D04F0918E04138382E58093AF0499E487
:10059000F92EF092B0048091B1048F5F8093B10482
:1005A000833008F07DC08130E9F461E272E0CE0171
:1005B00001960E94310F40E0BE016F5F7F4F8DE8D2
:1005C00094E00E94E315CE0101960E94230F8091D2
:1005D000BC049091BD04DC01ED91FC910284F38593
:1005E000E02D099566EA72E0CE0107960E94310F70
:1005F000CE0101960E94B012BE016F5F7F4FCE0107
:1006000007960E94EA0ECE0101960E94230F6DE22A
:1006100072E0CE0101960E94310F25E14BE0BE0150
:100620006F5F7F4FCE0107960E942A14F82ECE01ED
:1006300001960E94230FFF20D9F20E943E10609382
:10064000A1047093A2048093A3049093A4048B85C7
:100650009C850A9710F1CE0107960E94241B8823DF
:10066000E1F08091B1048230C0F0BE01695F7F4F3C
:10067000CE0101960E94280F62E974E0CE01019636
:100680000E94100E882311F40C94990BCE01019650
:100690000E94230F01110E946C18CE01079641C1E0
:1006A000833009F040C10E943E106093A104709312
:1006B000A2048093A3049093A4041093B2048091A5
:1006C000BC049091BD04DC01ED91FC910284F385A2
:1006D000E02D099566E372E0CE0101960E94310F8C
:1006E00041E0BE016F5F7F4F8DE894E00E94E3150B
:1006F000CE0101960E94230F8091BC049091BD040D
:10070000DC01ED91FC910284F385E02D0995F092D6
:10071000AF04F092B0046DE4C1C08934D1F490917B
:10072000B0049934B1F4BE016D5E7F4FCE010196E5
:100730000E94280FCE0101960E946A19082FCE014F
:1007400001960E94230F002309F4D8C00E946C1860
:10075000EAC08E3419F0823509F0A8C00091B004C7
:100760000F3409F0E0C0BE016D5E7F4FCE010196EF
:100770000E94280FCE0101960E94F618F82ECE0195
:1007800001960E94230FB4E4FB1203C01093A60449
:10079000CAC0BE016D5E7F4FCE0101960E94280F38
:1007A000CE0101960E94F618F82ECE0101960E9405
:1007B000230FE2E5FE120FC00E943E106093A104D9
:1007C0007093A2048093A3049093A404F092AF04C6
:1007D0000093B004A8C0BE016D5E7F4FCE010196AC
:1007E0000E94280FCE0101960E946A19082F8111DC
:1007F00013C0BE016D5E7F4FCE0107960E94280F89
:10080000CE0107960E94F61801E0853409F000E059
:10081000CE0107960E94230FCE0101960E94230F5E
:100820000023B1F00E946C18E0918D04F0918E04C9
:1008300085A9813409F077C066EA72E0CE0101969D
:100840000E94310F60E0CE0101960E94FC1967C042
:10085000BE016D5E7F4FCE0101960E94280FCE0132
:1008600001960E94F618082FCE0101960E94230FD0
:10087000093409F058C00E943E106093A10470939F
:10088000A2048093A3049093A4040093AF048FE484
:100890008093B0041093B2046091B4048DE894E0A6
:1008A0000E94BA1340C0893409F439CF8934D9F58C
:1008B0008091B0048F34B9F5BE016D5E7F4FCE01DB
:1008C00001960E94280FCE0101960E946A19082FF6
:1008D000811135CFBE016D5E7F4FCE0107960E941C
:1008E000280FCE0107960E94F61801E0853409F022
:1008F00000E0CE0107960E94230F21CFCE01439640
:100900000E944318882379F0BE016D5E7F4FCE01AF
:1009100001960E94280FCE0101960E94D613CE01A7
:1009200001960E94230FCE0143960E94230FDCCC38
:100930002F89235067EB71E0CE0101962C8F0E9426
:10094000310F2C8D45E0BE016F5F7F4FCE01439686
:100950000E942A14082FCE0101960E94230F002323
:1009600021F08091A704811114C62F89215063E6DC
:1009700072E0CE0101962C8F0E94310F2C8D4CE03D
:10098000BE016F5F7F4FCE0143960E942A14082F4D
:10099000CE0101960E94230F002309F467CDBE010A
:1009A0006D5E7F4FCE010D960E94280F66EA72E0C1
:1009B000CE0107960E94310F68E371E0CE010796E1
:1009C0000E94BC0EBE01635F7F4FCE0107960E945E
:1009D000B50EBE01695F7F4FCE0101960E94280FC0
:1009E00041E0BE016F5F7F4F8DE894E00E94E31508
:1009F000CE0101960E94230FCE0107960E94230F7D
:100A0000CE010D9693CDCE0101960E94B012BE018B
:100A10006F5F7F4FCE0143960E94EA0ECE01019692
:100A20000E94230FBE016D5E7F4FCE010D960E9486
:100A3000280F2989215068E471E0CE0101962C8F9E
:100A40000E94310F2C8D48E0BE016F5F7F4FCE01B9
:100A50000D960E942A14082F882399F00D2D11C09D
:100A6000D70198968C91882351F0BE016F5F7F4F1C
:100A7000C70182960E94100E01E0811141CD00E075
:100A80003FCDCE0101960E94230F002309F45AC0E6
:100A9000E0908D04F0908E04D11006C0F701108311
:100AA000B7E2CB2ED12C0BC0D7011C9266EA72E0C4
:100AB000C70104960E94BC0EACE1CA2ED12C47019E
:100AC000BAE08B0E911C5701E2E2AE0EB11C66EA51
:100AD00072E0C4010E94BC0EF6E08F0E911C8A14D5
:100AE0009B04A9F76FEFC6010E9435292FEFC21AA8
:100AF000D20A44E5C416D104A9F7F2E8CF2ED12CCE
:100B00006FEFC6010E9435298FEFC81AD80A9EE8F8
:100B1000C916D104A9F7B70188E190E00E948311BA
:100B2000D70198961C92B701685D7F4F8EE790E0E1
:100B30000E948311F70111A6B701675D7F4F8AE715
:100B400090E07BC42989215061E571E0CE010196D6
:100B50002C8F0E94310F2C8D44E0BE016F5F7F4FC0
:100B6000CE010D960E942A14082FCE0101960E94F4
:100B7000230F002359F1CE010D960E94241B8823D8
:100B800009F4D1C3CE010D960E94E60D62337105C2
:100B900030F06135710528F060E570E002C062E375
:100BA00070E0E0908D04F0908E047A8F698FBE0122
:100BB000675E7F4F88E090E00E945211B701665D4A
:100BC0007F4F88E090E00E943E11ADC329892150FB
:100BD00066E571E0CE0101962C8F0E94310F2C8DBD
:100BE00047E0BE016F5F7F4FCE010D960E942A1431
:100BF000082FCE0101960E94230F002309F459C04B
:100C0000E0918D04F0918E0411ABBF016F5C7F4FBA
:100C100080E090E00E948311E0918D04F0918E04B9
:100C200014AABF016C5C7F4F8CE090E00E9483119E
:100C300063E480918D0490918E040E944412E090B0
:100C40008D04F0908E04D7019E968D919C919F9774
:100C50008D36924068F0F70155A644A6B701645D51
:100C60007F4F80E190E00E945211D701D0961C93F3
:100C7000E0908D04F0908E04F70184A595A5823B49
:100C8000924070F4D7019F963C922E929E97B701A6
:100C9000625D7F4F84E190E00E945211F70110AB3A
:100CA000E0918D04F0918E048EE190E093AB82ABE5
:100CB000B9C2298921506EE571E0CE0101962C8FD1
:100CC0000E94310F2C8D46E0BE016F5F7F4FCE0139
:100CD0000D960E942A14082FCE0101960E94230F20
:100CE000002331F0E0918D04F0918E0411AB1EC011
:100CF0002989215065E671E0CE0101962C8F0E9472
:100D0000310F2C8D47E0BE016F5F7F4FCE010D96F6
:100D10000E942A14082FCE0101960E94230F00235F
:100D200069F0E0918D04F0918E0411AABF016F5C0F
:100D30007F4F80E090E00E948311F5C22989215005
:100D40006DE671E0CE0101962C8F0E94310F2C8D43
:100D500045E0BE016F5F7F4FCE010D960E942A14C1
:100D6000082FCE0101960E94230F002331F0E0915D
:100D70008D04F0918E0414AB1EC02989215063E7C5
:100D800071E0CE0101962C8F0E94310F2C8D46E030
:100D9000BE016F5F7F4FCE010D960E942A14082F6F
:100DA000CE0101960E94230F002359F0E0918D049B
:100DB000F0918E0414AABF016C5C7F4F8CE090E030
:100DC000BACF298921506AE771E0CE0101962C8FB4
:100DD0000E94310F2C8D45E0BE016F5F7F4FCE0129
:100DE0000D960E942A14082FCE0101960E94230F0F
:100DF000002311F063E41AC02989215060E871E0F2
:100E0000CE0101962C8F0E94310F2C8D45E0BE0142
:100E10006F5F7F4FCE010D960E942A14082FCE01DE
:100E200001960E94230F002341F061E480918D041C
:100E300090918E040E94441276C22989215066E85E
:100E400071E0CE0101962C8F0E94310F2C8D48E06D
:100E5000BE016F5F7F4FCE010D960E942A14082FAE
:100E6000CE0101960E94230F002309F1CE010D96B9
:100E70000E94E60DE0908D04F0908E046736A2E0AB
:100E80007A0708F450C2F70146A557A564177507FD
:100E900008F049C275A764A7B701645D7F4F80E180
:100EA00090E00E945211D701D0961C933CC2298930
:100EB00021506FE871E0CE0101962C8F0E94310F16
:100EC0002C8D47E0BE016F5F7F4FCE010D960E94D3
:100ED0002A14082FCE0101960E94230F002319F136
:100EE000CE010D960E94E60DE0908D04F0908E04E8
:100EF000F70144A555A54617570708F014C2673CEB
:100F0000F2E07F0708F00FC2D7019F967C936E93A3
:100F10009E97B701625D7F4F84E190E00E9452117D
:100F2000F70110AB00C22989215067E971E0CE01B9
:100F300001962C8F0E94310F2C8D46E0BE016F5F11
:100F40007F4FCE010D960E942A14082FCE010196E4
:100F50000E94230F002309F435C1E0918D04F09124
:100F60008E047280A0918F04B09190048D919C9119
:100F7000DC0114960C91B181BB8F0E94FD17BC015E
:100F800080E090E00E940E2820E030E048EC52E43F
:100F90000E94D0244B015C010E9442256B017C0120
:100FA00066EA72E0CE0107960E94310F6EE971E0A9
:100FB000CE0107960E94BC0E711005C0EBE26E2EAA
:100FC000E1E07E2E04C076E2672E71E0772EBE014E
:100FD000695F7F4FCE0101960E94280FB301CE01B9
:100FE00001960E948621BC01CE0107960E94D30E75
:100FF000CE0101960E94230FBE01695F7F4FCE0193
:1010000001960E94280F6FE971E0CE0101960E94BF
:101010008621BC01CE0107960E94D30ECE01019617
:101020000E94230F011105C06BE2662E61E0762E4F
:1010300004C056E2652E51E0752EBE01695F7F4FF8
:10104000CE0101960E94280FB301CE0101960E94A5
:101050008621BC01CE0107960E94D30ECE010196D7
:101060000E94230FBE01695F7F4FCE0101960E944F
:10107000280F62EA71E0CE0101960E948621BC0130
:10108000CE0107960E94D30ECE0101960E94230F37
:10109000EB8DE11105C04BE2642E41E0742E04C0DB
:1010A00036E2632E31E0732EBE01695F7F4FCE01C1
:1010B00001960E94280FB301CE0101960E9486215D
:1010C000BC01CE0107960E94D30ECE0101960E946C
:1010D000230FBE01695F7F4FCE0101960E94280F4A
:1010E00065EA71E0CE0101960E948621BC01CE0125
:1010F00007960E94D30ECE0101960E94230FBE01D7
:10110000695F7F4FCE0101960E94280FB601CE0184
:1011100001960E94700EBC01CE0107960E94D30E6C
:10112000CE0101960E94230FBE01695F7F4FCE0161
:1011300001960E94280F6AEA71E0CE0101960E9492
:101140008621BC01CE0107960E94D30ECE010196E6
:101150000E94230FB60180E090E00E940E289B01C0
:10116000AC01C501B4010E94632420E030E048ECEA
:1011700052E40E946F286B017C01BE01695F7F4FC2
:10118000CE0101960E94280FC701B6010E94422598
:10119000CE0101960E94700EBC01CE0107960E94FE
:1011A000D30ECE0101960E94230FBE01695F7F4FCF
:1011B000CE0101960E94280F61E0CE0101960E94A7
:1011C000FC19A9C0298921506CEA71E0CE01019671
:1011D0002C8F0E94310F2C8D48E0BE016F5F7F4F36
:1011E000CE010D960E942A14082FCE0101960E946E
:1011F000230F0023F9F0CE010D960E94241B8823B3
:1012000009F491C0CE010D960E94E60DE0918D0487
:10121000F0918E04613E21E0720710F060EE71E003
:1012200073AB62ABBF016E5C7F4F84E090E00E94C5
:10123000521179C02989215065EB71E0CE010196E8
:101240002C8F0E94310F2C8D46E0BE016F5F7F4FC7
:10125000CE010D960E942A14082FCE0101960E94FD
:10126000230F0023A9F065EB71E0CE0101960E94E7
:10127000310F41E0BE016F5F7F4F8DE894E00E9427
:10128000E315CE0101960E94230F1093A7044BC0D3
:10129000298921506CEB71E0CE0101962C8F0E94C0
:1012A000310F2C8D43E0BE016F5F7F4FCE010D9655
:1012B0000E942A14082FCE0101960E94230F0023BA
:1012C00091F166EA72E0CE0107960E94310F60EC60
:1012D00071E0CE0107960E94BC0EBE01635F7F4F96
:1012E000CE0107960E94B50E64E372E0CE01079628
:1012F0000E94A60E1093A804BE01695F7F4FCE0125
:1013000001960E94280F41E0BE016F5F7F4F8DE87C
:1013100094E00E94E315CE0101960E94230FCE01B6
:1013200007960E94230F6CEC71E0CE0101960E949B
:10133000310F2CE042E0BE016F5F7F4FCE010D9672
:101340000E942A14082FCE0101960E94230F002329
:1013500061F089899A890A9709F0A4C0CE010D9697
:101360000E94241B81114AC19DC06BED71E0CE012A
:1013700001960E94310F2CE042E0BE016F5F7F4F6B
:10138000CE010D960E942A14082FCE0101960E94CC
:10139000230F002361F089899A890A9709F082C096
:1013A000CE010D960E94241B81116BC07BC0298940
:1013B00021506FEC71E0CE0101962C8F0E94310F0D
:1013C0002C8D44E0BE016F5F7F4FCE010D960E94D1
:1013D0002A14082FCE0101960E94230F002351F0FA
:1013E000E0918D04F0918E0481A5882309F45AC000
:1013F00010A71EC02989215064ED71E0CE0101962D
:101400002C8F0E94310F2C8D45E0BE016F5F7F4F06
:10141000CE010D960E942A14082FCE0101960E943B
:10142000230F002369F0E0918D04F0918E0410A643
:10143000BF01685D7F4F8EE790E00E94831132C04C
:101440006AED71E0CE0101960E94310F2DE043E07C
:10145000BE016F5F7F4FCE010D960E942A14082FA8
:10146000CE0101960E94230F0023E1F089899A8919
:101470000A97C1F4CE010D960E94241B81112AC146
:1014800011C0E0908D04F0908E04D7010C910530CE
:1014900049F0BE01635F7F4FC7010E9403158F3F74
:1014A00009F4F4C0CE010D960E94230F2FC80796B1
:1014B0000E94280F61EF71E0CE0107960E94F10DA6
:1014C000811103C0CE01079631C80E946C1880912B
:1014D000BC049091BD04DC01ED91FC910284F38584
:1014E000E02D099563E072E0CE0101960E94310F74
:1014F00040E0BE016F5F7F4F8DE894E00E94E315EE
:10150000CE0101960E94230F8091BC049091BD04EE
:10151000DC01ED91FC910284F385E02D09950E9498
:101520003E106B017C010E943E10DC01CB018C1946
:101530009D09AE09BF094497A105B105A0F36FE06D
:1015400072E0CE0101960E94310F40E0BE016F5F54
:101550007F4F8DE894E00E94E315CE0101960E9432
:10156000230F8091BC049091BD04DC01ED91FC91AE
:101570000284F385E02D09950E943E10DC01CB0129
:101580008C199D09AE09BF094497A105B105A0F3C7
:1015900099CF1092A704CE0143960E94E60D6B01ED
:1015A0007C0167ED72E0CE0143960E94BC0EBE0145
:1015B0006D5E7F4FCE0101960E94280FB601660F27
:1015C000771F6C0D7D1DCE0101960E94700EBC012F
:1015D000CE0143960E94D30ECE0101960E94230FA6
:1015E000BE016D5E7F4FCE0101960E94280F61E023
:1015F000CE0101960E94FC190C949402E0908D0497
:10160000F0908E04F7018081823008F44BCFBE0148
:10161000635F7F4FC7010E940315082F8FEF800F74
:101620008E3F08F03FCF202F30E02150310946E0B7
:10163000429FC001439F900D11240A9666EA72E012
:101640008E0D9F1D0E94BC0E26E0D22ED7018C91DC
:101650000817C8F4802F90E0D89EB001D99E700D75
:101660001124665F7F4F6E0D7F1D0197D89E9001FC
:10167000D99E300D1124C9010A968E0D9F1D0E941E
:10168000D30E0F5FE3CF81508C930DC001110FC0BB
:10169000BE01635F7F4FC70104960E94D30EF7011E
:1016A00080818F5F8083C7010E94A414FBCE053028
:1016B000B0F7202F30E02150310946E0429FC001B1
:1016C000439F900D11240A96BE01635F7F4F8E0DDC
:1016D0009F1DE3CFE0908D04F0908E04F701808190
:1016E000882309F4DFCE6701F2E2CF0ED11CBE01E0
:1016F000635F7F4FC6010E94D30ED70199961C935A
:10170000B701675D7F4F8AE790E00E948311B601C1
:10171000CE0101960E94280FAE014F5F5F4F62E835
:1017200070E0C7010E94D111CE0101960E94230FE3
:10173000B9CEBE016F5F7F4F80918D0490918E0472
:101740000E94031501E08F3F11F40C94460300E062
:101750000C9446036C960FB6F894DEBF0FBECDBF57
:10176000DF91CF911F910F91FF90EF90DF90CF907D
:10177000BF90AF909F908F907F906F905F904F90B1
:101780003F902F9008950895CF92DF92EF92FF92AD
:101790000F931F93CF93DF936C017A018B01C0E00D
:1017A000D0E0CE15DF0589F0D8016D918D01D6010D
:1017B000ED91FC910190F081E02DC6010995892BF6
:1017C00011F47E0102C02196ECCFC701DF91CF91C9
:1017D0001F910F91FF90EF90DF90CF900895FC0143
:1017E000918D828D981761F0828DDF01A80FB11D58
:1017F0005D968C91928D9F5F9F73928F90E008957C
:101800008FEF9FEF0895FC01918D828D981731F035
:10181000828DE80FF11D858D90E008958FEF9FEF89
:101820000895FC01918D228D892F90E0805C9F4F5F
:10183000821B91098F739927089580E993E00E9494
:10184000110C21E0892B09F420E0822F0895FC017E
:10185000848DDF01A80FB11DA35ABF4F2C91848D39
:1018600090E001968F739927848FA689B7892C936E
:10187000A089B1898C9180648C93938D848D981309
:1018800006C00288F389E02D80818F7D80830895D2
:10189000EF92FF920F931F93CF93DF93EC0181E0C0
:1018A000888F9B8D8C8D981305C0E889F98980817C
:1018B00085FD24C0F62E0B8D10E00F5F1F4F0F73B8
:1018C0001127E02E8C8DE8120CC00FB607FCFACF62
:1018D000E889F989808185FFF5CFCE010E94270C28
:1018E000F1CF8B8DFE01E80FF11DE35AFF4FF0821F
:1018F0000B8FEA89FB898081806207C0EE89FF89AE
:101900006083E889F98980818064808381E090E048
:10191000DF91CF911F910F91FF90EF900895CF939A
:10192000DF93EC01888D8823C9F0EA89FB898081E7
:1019300085FD05C0A889B9898C9186FD0FC00FB6B9
:1019400007FCF5CF808185FFF2CFA889B9898C91FA
:1019500085FFEDCFCE010E94270CE7CFDF91CF911D
:10196000089580E090E0892B29F00E941D0C8111E0
:101970000C9400000895833081F028F4813099F0B0
:101980008230A1F008958730A9F08830B9F0843012
:10199000D1F4809180008F7D03C0809180008F778B
:1019A00080938000089584B58F7702C084B58F7DC1
:1019B00084BD08958091B0008F7703C08091B000FE
:1019C0008F7D8093B000089520912F0430913004D2
:1019D0002817390771F490912D0480912E049817DF
:1019E00041F0E0912D04F0E0E95BFC4F808190E054
:1019F00008958FEF9FEF089508951F93CF93DF937E
:101A0000DC015C962D913C915D972115310539F4EF
:101A100081E090E013969C938E9312973DC051966F
:101A2000ED91FC91529750969C915097892F8095FB
:101A30001FB75E964C915E9741FB772770F941FD89
:101A40006095F8944081772311F0492B01C0482319
:101A50004083E9012197F1F748E0508160FF02C01F
:101A6000592B01C058235083E9012197F1F766955E
:101A7000415099F7772321F090818923808303C017
:101A80008081982B90831FBF5C968D919C915D9770
:101A90000197F1F721E030E0C901DF91CF911F916B
:101AA000089520912F04309130042817390771F4DC
:101AB00080912E0420912D0490E0805C9F4F821B2A
:101AC000910960E470E00E943524089580E090E080
:101AD000089520912F043091300428173907B9F464
:101AE00090912D0480912E04981789F0E0912D0497
:101AF000F0E0E95BFC4F808120912D0430E02F5F06
:101B00003F4F2F73332720932D0490E008958FEFDC
:101B10009FEF08950E946827CF93DF93EC0188819F
:101B20009981009711F00E940626198218821D8261
:101B30001C821B821A82DF91CF9108950F931F930D
:101B4000CF93DF93EC0188819981009729F02A8156
:101B50003B812617370788F48B016F5F7F4F0E9408
:101B60009E26009761F0998388831B830A832C81CA
:101B70003D81232B11F4FC01108281E001C080E043
:101B8000DF91CF911F910F910895EF92FF920F93E4
:101B90001F93CF93DF93EC017B018A01BA010E946E
:101BA0009E0D811104C0CE010E948C0D07C01D83C3
:101BB0000C83B701888199810E947F27CE01DF9134
:101BC000CF911F910F91FF90EF900895FC018081BC
:101BD0009181009711F00C94A32760E070E0CB0195
:101BE0000895FC0124813581232B31F421E0611516
:101BF0007105A1F0FB0108C0FC0180819181611594
:101C0000710531F421E0FC018081882339F005C0A1
:101C10000E94762721E0892B09F020E0822F089589
:101C2000FC0124813581FB0144815581241735074E
:101C300021F5FC0180819181FB0160817181009718
:101C400019F061157105A1F46115710549F0232B97
:101C5000B1F0FB01808190E09195819591090AC0D6
:101C6000009769F0232B59F0FC01808190E002C0BD
:101C70000E94762721E0892B19F020E001C021E0A5
:101C8000822F0895EF92FF920F931F93CF93DF93CC
:101C9000FC01248135816115710511F480E019C0C2
:101CA00041155105A9F07B01EC018A01020F131FB8
:101CB000B8010E949E0D882389F3288139818C8187
:101CC0009D81B701820F931F0E947F271D830C8384
:101CD00081E0DF91CF911F910F91FF90EF900895D8
:101CE000EF92FF920F931F93CF93DF93CDB7DEB7A1
:101CF00027970FB6F894DEBF0FBECDBF7C01CB0196
:101D00004AE08E010F5F1F4FB8010E94DF27F801E4
:101D100001900020E9F73197AF01401B510BB8014A
:101D2000C7010E94420E811103C0C7010E948C0DA1
:101D3000C70127960FB6F894DEBF0FBECDBFDF9167
:101D4000CF911F910F91FF90EF900895611571054C
:101D500051F0FB0101900020E9F73197AF01461BDC
:101D6000570B0C94420E80E00895FB01448155818D
:101D7000608171810C94420ECF93DF93EC01611569
:101D8000710559F0FB0101900020E9F73197AF018F
:101D9000461B570B0E94C50D02C00E948C0DCE0140
:101DA000DF91CF910895CF93DF93EC01FB0186176C
:101DB000970761F0608171816115710529F0448197
:101DC00055810E94C50D02C00E948C0DCE01DF918D
:101DD000CF9108950F931F93CF93DF938C01EB0165
:101DE000FC01808191810097B1F068817981611552
:101DF000710579F0428153812C813D81421753074F
:101E000040F00E947F278C819D81F8019583848317
:101E100013C00E94062688819981F80191838083EE
:101E20008A819B81938382838C819D819583848326
:101E3000198218821B821A821D821C82DF91CF9127
:101E40001F910F910895FC01808191810C940626C9
:101E5000FC011182108213821282158214820C946A
:101E6000D30EFC0111821082138212821582148219
:101E70006115710551F0FB0101900020E9F73197E0
:101E8000AF01461B570B0C94C50D0895DC01ED9175
:101E9000FC910280F381E02D42E050E064EA72E0C0
:101EA00009941F920F920FB60F9211242F933F9314
:101EB0004F935F936F937F938F939F93AF93BF9352
:101EC000EF93FF9380E993E00E94270CFF91EF913D
:101ED000BF91AF919F918F917F916F915F914F9142
:101EE0003F912F910F900FBE0F901F9018951F924A
:101EF0000F920FB60F9211242F938F939F93EF930E
:101F0000FF93E091A003F091A1038081E091A603EB
:101F1000F091A70382FD12C090818091A9038F5F89
:101F20008F732091AA03821751F0E091A903F0E08A
:101F3000E057FC4F958F8093A90301C08081FF91EA
:101F4000EF919F918F912F910F900FBE0F901F9047
:101F50001895CF93DF93282F30E0F901EE58FF4F0B
:101F60008491F901E255FF4FD491F901E656FF4FF4
:101F7000C491CC2391F081110E94BB0CEC2FF0E0B6
:101F8000EE0FFF1FE057FF4FA591B491EC91ED23A9
:101F900081E090E021F480E002C080E090E0DF91F9
:101FA000CF9108951F93CF93DF93282F30E0F9014D
:101FB000EE58FF4F8491F901E255FF4FD491F9019A
:101FC000E656FF4FC491CC23C9F0162F81110E9411
:101FD000BB0CEC2FF0E0EE0FFF1FEA57FF4FA5916F
:101FE000B4918FB7F894111105C09C91ED2FE09535
:101FF000E92302C0EC91ED2BEC938FBFDF91CF91E1
:102000001F910895CF93DF9390E0FC01E255FF4FBD
:102010002491FC01E656FF4F8491882361F190E002
:10202000880F991FFC01E859FF4FC591D491FC011D
:10203000EA57FF4FA591B491611109C09FB7F89479
:102040008881209582238883EC912E230BC06230F7
:1020500061F49FB7F8943881822F80958323888319
:10206000EC912E2B2C939FBF06C08FB7F894E8817C
:102070002E2B28838FBFDF91CF9108952FB7F8942F
:1020800060918C0370918D0380918E0390918F03EA
:102090002FBF08950F931F93CF93DF93EC010E94FE
:1020A0003E10688779878A879B87E881F981068057
:1020B000F781E02DCE01099597FF17C00E943E10D1
:1020C000088519852A853B85DC01CB01801B910B96
:1020D000A20BB30B0C811D812E813F8180179107CC
:1020E000A207B30710F38FEF9FEFDF91CF911F91FE
:1020F0000F9108951F920F920FB60F9211242F93F4
:102100003F938F939F93AF93BF9380918C03909154
:102110008D03A0918E03B0918F0330918B0326E045
:10212000230F2D3720F40296A11DB11D05C029E80B
:10213000230F0396A11DB11D20938B0380938C0365
:1021400090938D03A0938E03B0938F0380918703A8
:1021500090918803A0918903B0918A030196A11DF3
:10216000B11D8093870390938803A0938903B09354
:102170008A03BF91AF919F918F913F912F910F90C3
:102180000FBE0F901F9018951F920F920FB60F92CF
:1021900011242F933F934F935F936F937F938F936C
:1021A0009F93AF93BF93EF93FF93E0912F04F09130
:1021B0003004309709F451C0968DA685B785858582
:1021C00091FF04C09C91892329F447C09C918923E5
:1021D00009F043C0A389B4899C918589809589239E
:1021E0008C93868997890197F1F7608D718DA6850B
:1021F000B785558538E020E0CB010197F1F7822FB4
:1022000090E095958795282F4C91452309F02068FB
:10221000315091F7868D81FD209580912E0490E0BC
:1022200001968F73992730912D04381749F0A091AA
:102230002E04B0E0A95BBC4F2C9380932E0403C006
:10224000868D8160868F828D938D0197F1F7A389AA
:10225000B4899C918589892B8C93FF91EF91BF91D3
:10226000AF919F918F917F916F915F914F913F912E
:102270002F910F900FBE0F901F9018950F931F93E3
:10228000CF93DF938C01EB010E942D298883C80135
:1022900001960E942D298983CE01DF91CF911F9154
:1022A0000F910895EF92FF920F931F93CF93DF93B7
:1022B00000D0CDB7DEB78C017B01FB0160819A8332
:1022C0008983CE0101960E944815F70161810F5F55
:1022D0001F4F1A830983CE0101960E944815C7013A
:1022E0000F900F90DF91CF911F910F91FF90EF9082
:1022F0000895CF93DF93EB010E942D298883CE01AF
:10230000DF91CF9108950F931F93CF93DF9300D068
:10231000CDB7DEB78B01FB0160819A838983CE0143
:1023200001960E944815C8010F900F90DF91CF9140
:102330001F910F910895CF92DF92EF92FF920F932A
:102340001F93CF93DF937C018B016A010E942D299B
:10235000F8018083C1E0D0E08823C9F0CC15DD0509
:102360007CF4CE018E0D9F1D8115F4E09F0744F48F
:102370000E942D29F801EC0FFD1F80832196ECCFE0
:102380001C161D0624F4C00FD11F2197188281E06E
:10239000DF91CF911F910F91FF90EF90DF90CF9041
:1023A00008958F929F92AF92BF92CF92DF92EF9259
:1023B000FF920F931F93CF93DF93CDB7DEB75B01EF
:1023C000CDB6DEB6FA01E480F580C70101962DB7DF
:1023D0003EB7281B390B0FB6F8943EBF0FBE2DBF7A
:1023E0000DB71EB70F5F1F4F892B99F0011511050F
:1023F00081F0E114F10411F4F8010AC0FA016081DE
:102400007181A701C8010E949427F801EE0DFF1DFC
:102410001082F80101900020E9F73197E01BF10BE1
:10242000A11424E0B206E8F47F013FEFE31AF30AB7
:10243000C5018E0D9F1D8115944098F4812C912C1F
:102440008E149F0464F4F80161918F01C4018A0D18
:102450009B1D0E943529FFEF8F1A9F0AF1CF81E063
:1024600001C080E00FB6F894DEBE0FBECDBEDF9196
:10247000CF911F910F91FF90EF90DF90CF90BF9081
:10248000AF909F908F900895CF93DF9300D0CDB7FA
:10249000DEB7FC0165AB8EE090E09A838983CE01C4
:1024A00001960E9448150F900F90DF91CF910895EB
:1024B0000F931F93CF93DF9300D000D000D0CDB700
:1024C000DEB70E943E100DE814E0D80154966D93DB
:1024D0007D938D939C9357979F968D919C91D097C8
:1024E000DC01ED91FC910284F385E02D099567EA0A
:1024F00072E0CE0101960E94310F41E0BE016F5F94
:102500007F4FC8010E94E315CE0101960E94230F60
:10251000F80187A590A9DC01ED91FC910284F38577
:10252000E02D099526960FB6F894DEBF0FBECDBFFD
:10253000DF91CF911F910F91089582E480937C00E9
:1025400080917A00806480937A0080917A0086FD81
:10255000FCCF809178002091790090E0922B089533
:10256000CF92DF92EF92FF920F931F93CF93DF935F
:10257000CDB7DEB728970FB6F894DEBF0FBECDBF3C
:102580007C0166EA72E00E94310F8091BC04909158
:10259000BD04DC01ED91FC910480F581E02D0995ED
:1025A000181619066CF58DE894E00E94B615C090D7
:1025B000BC04D090BD0466EA72E08E010F5F1F4F2D
:1025C000C8010E94310FC6010E944A1097FD0EC03B
:1025D0008A30910559F08F83188641E050E0BE01A2
:1025E000695F7F4FC8010E94420EEDCFE016F106F1
:1025F00021F0B801C7010E94EA0EC8010E94230F12
:10260000C70128960FB6F894DEBF0FBECDBFDF918D
:10261000CF911F910F91FF90EF90DF90CF90089591
:10262000CF92DF92EF92FF921F93CF93DF93CDB7BC
:10263000DEB762970FB6F894DEBF0FBECDBFBC0108
:10264000CE0101960E94280F40E0BE016F5F7F4FD0
:102650008DE894E00E94E315CE0101960E94230FBD
:102660000E943E106B017C0166EA72E0CE010D967D
:102670000E94310F0E943E10DC01CB018C199D0994
:10268000AE09BF09883B9B40A105B10508F05CC0BD
:102690008091BC049091BD04DC01ED91FC9104801B
:1026A000F581E02D09951816190624F7CE0101963B
:1026B0000E94B012BE016F5F7F4FCE010D960E9447
:1026C000EA0ECE0101960E94230F6DEB72E0CE015F
:1026D00001960E94310FBE01635F7F4FCE010796C6
:1026E0000E94280FBE016F5F7F4FCE0107960E94A8
:1026F000100E182FCE0107960E94230FCE010196CF
:102700000E94230F111122C061EC72E0CE010196EC
:102710000E94310FBE01635F7F4FCE0107960E947A
:10272000280FBE016F5F7F4FCE0107960E94100EEB
:10273000182FCE0107960E94230FCE0101960E940A
:10274000230F112309F496CF10E001C011E0CE0150
:102750000D960E94230F812F62960FB6F894DEBF6C
:102760000FBECDBFDF91CF911F91FF90EF90DF9013
:10277000CF9008951F93CF93DF93EC01162F8FA571
:1027800098A9DC01ED91FC910284F385E02D099577
:102790000E943E106C877D878E879F8781E0888BA3
:1027A0001FA3198BDF91CF911F910895CF93DF93D2
:1027B000EC0164E473E00E94F10D882371F083E57D
:1027C0008093B6040E94581261E080918F0490912A
:1027D0009004DF91CF910C940E176CEE72E0CE0155
:1027E0000E94F10D882379F08FE48093B6040E9453
:1027F000581240E061E080918F0490919004DF9145
:10280000CF910C94E21669EF72E0CE010E94F10DB7
:102810008823E9F084E58093B6040E945812C091A1
:102820008F04D0919004CE010E949F172C813D818E
:10283000882311F064E406C08C8D811102C06CE421
:1028400001C06FE4C901DF91CF910C946815DF914D
:10285000CF910895BF92CF92DF92EF92FF920F93A4
:102860001F93CF93DF9300D000D000D0CDB7DEB759
:10287000FC01C42EDB0114964D915C911597848167
:1028800095818417950708F44EC080819181009747
:1028900009F449C06D917C916115710509F443C03B
:1028A000022F7F010E948627892BE9F510E0D12CA9
:1028B0000C151D0528F49C2D8D2D6801092F182F4E
:1028C00066EA72E0CE0101960E94310FF701848121
:1028D0009581C816D906D8F48017910708F48C01A1
:1028E000D701ED91FC911197E00FF11FB08010829C
:1028F0006D917C916C0D7D1DCE0101960E94BC0EE8
:10290000F70120813181F901E00FF11FB082BE0192
:102910006F5F7F4FC7010E94EA0ECE0101960E94B1
:10292000230F81E001C080E026960FB6F894DEBF49
:102930000FBECDBFDF91CF911F910F91FF90EF9010
:10294000DF90CF90BF900895EF92FF920F931F9367
:10295000CF93DF9300D000D000D0CDB7DEB78C018D
:10296000BC0188E190E00E948311F80180818823F6
:10297000E9F1B8016C5F7F4FCE0101960E94280FEC
:10298000AE014F5F5F4F6CE170E0C8010E94D11152
:10299000CE0101960E94230FFF24F39486E0E82ED7
:1029A000F8018081F81610F58F2D90E00197E89ED0
:1029B000B001E99E700D1124665F7F4F600F711F9B
:1029C000CE0101960E94280FFBE0FF9EB00111246A
:1029D000645E7F4FAE014F5F5F4FC8010E94D1110F
:1029E000CE0101960E94230FF394DACF26960FB6FC
:1029F000F894DEBF0FBECDBFDF91CF911F910F9135
:102A0000FF90EF900895CF92DF92EF92FF920F9395
:102A10001F93CF93DF93FC01E080EE2069F16B01FF
:102A20008C0180A5882331F0CF0182960E94100E80
:102A3000811124C0B601C80104960E94100E8111B4
:102A40001DC0C0E0F12CF1E0EF1AF108D6E02C2F08
:102A500030E02E153F0584F4D29FC001D39F900D26
:102A600011240A96B601800F911F0E94100ECF5FAD
:102A7000882369F38C2F03C08FEF01C080E0DF91C2
:102A8000CF911F910F91FF90EF90DF90CF9008951D
:102A9000EF92FF920F931F93CF93DF931F92CDB7C7
:102AA000DEB77C01FC0100811181C80169830E94AD
:102AB0002D296981681719F0C8010E943529C701BD
:102AC0000F90DF91CF911F910F91FF90EF9008959C
:102AD000FC0121A5233571F421E024836C3411F429
:102AE0006EE423C06F3411F461E31FC0643409F550
:102AF00063E51BC02F3479F421E0FC0124836C349E
:102B000011F460E512C06F3411F462E30EC0643456
:102B100081F46FE40AC024E5FC0121A721E02483AD
:102B20006C3419F06F3419F463E30C94BA13643401
:102B3000D9F20895CF93DF93EC01DB01ED91FC9185
:102B40008081882351F080A5BF01811103C06C5F93
:102B50007F4F05C06E5D7F4F02C06B5F7F4FCE0120
:102B60000E94280FCE01DF91CF9108950F931F93FC
:102B7000CF93DF93EC018C8D81111AC081E08C8F93
:102B80000E943E106E8F7F8F88A399A30E943E10F3
:102B90000E8D1F8D28A139A1DC01CB01801B910B6B
:102BA000A20BB30B85369105A105B10578F306C0DC
:102BB0000E943E106E8F7F8F88A399A3DF91CF91E3
:102BC0001F910F910895FF920F931F93CF93DF935F
:102BD000EC018B01F42E0E94B61566EA72E0C80182
:102BE0000E94F10D0FA4D8A9C02D811114C0F801C5
:102BF0004481558160817181E881F9810280F3818E
:102C0000E02DCE01F11006C0DF91CF911F910F9101
:102C1000FF9009940995CE01DF91CF911F910F91FB
:102C2000FF900C94460FCF92DF92EF92FF920F939A
:102C30001F93CF93DF93CDB7DEB72C970FB6F894E1
:102C4000DEBF0FBECDBFDC0196961C929697ED912C
:102C5000FC9125A92D7F213409F07FC08C010E94B1
:102C6000B615F80187A590A9DC01ED91FC910284CD
:102C7000F385E02D099566EA72E0CE0107960E9481
:102C8000310F68EC72E0CE0107960E94BC0EB801CD
:102C9000CE0101960E949A15BE016F5F7F4FCE0153
:102CA00007960E94B50ECE0101960E94230F6FEC8D
:102CB00072E0CE0107960E94A60EBE01695F7F4FAB
:102CC000CE0101960E94280F41E0BE016F5F7F4F49
:102CD000C8010E94E315CE0101960E94230F0E94B5
:102CE0003E100E940E286B017C010E943E100E9443
:102CF0000E28A70196010E94632420E030E048ECF2
:102D000052E40E94092887FDF0CF66EA72E0CE0106
:102D100001960E94310F41E0BE016F5F7F4FC801F5
:102D20000E94E315CE0101960E94230FD801ED9178
:102D3000FC9181E083830E943E10F801648B758BC7
:102D4000868B978B82E582A38FE483A3808D8F5F30
:102D5000808FCE0107960E94230F2C960FB6F89411
:102D6000DEBF0FBECDBFDF91CF911F910F91FF90BE
:102D7000EF90DF90CF9008950F931F93CF93DF9341
:102D8000FC0181A98823A9F082A18E34A1F483A13A
:102D90008E3489F412A5112379F0062FEF0181E01A
:102DA00080A7CF010E94B6150FA3CE010E94131673
:102DB00003C011E001C010E0812FDF91CF911F917E
:102DC0000F9108951F93CF93DF93EC0141110FC032
:102DD000EA81FB81818181110AC06623D9F06FE409
:102DE0008C819D81DF91CF911F910C946815162FD6
:102DF0001D8E1FA660E083E10E94D20F0E943E104C
:102E00006CAF7DAF8EAF9FAF81E08BAFEA81FB816E
:102E10001182188FDF91CF911F9108951F93CF9347
:102E2000DF93EC01EA81FB818181811113C0162FB0
:102E30001D8E60E082E10E94D20F0E943E106EABB8
:102E40007FAB88AF99AF81E08DABEA81FB81818355
:102E5000198F0AC0662341F06FE48C819D81DF9158
:102E6000CF911F910C946815DF91CF911F91089518
:102E7000EF92FF920F931F93CF93DF937B018A0111
:102E8000E901FC01E95BFF4F1082F89489E00E94A0
:102E9000A90F31E0892B09F030E0F70130838AE097
:102EA0000E94A90F31E0892B09F030E0F80130834E
:102EB0008BE00E94A90F31E0892B09F030E03883C4
:102EC0007894DF91CF911F910F91FF90EF9008952B
:102ED0001F920F920FB60F9211240F900FBE0F90FA
:102EE0001F9018951F920F920FB60F9211248F9377
:102EF00081E080937E048F910F900FBE0F901F9002
:102F000018951F93CF93DF93FC018585882399F053
:102F10008481811110C011E01587A281B3811296BE
:102F20008C91882339F0EF0161E081E10E94D20F9A
:102F30001C8301C01482DF91CF911F910895EF92FD
:102F4000FF920F931F93CF93DF9300D01F92CDB7C3
:102F5000DEB78C019E012F5F3F4FAE014E5F5F4F8A
:102F6000BE016D5F7F4F0E9438179981D80112967C
:102F7000ED91FC91139792835C968C915C979923C9
:102F800039F0811117C08D919C910E94811712C058
:102F9000882381F0F801E080F180D70114968C91AC
:102FA000882341F060E081E10E94D20FF701148292
:102FB00081E085873B8129819A81332329F0892FFC
:102FC000992319F0822F01C080E0D8011296ED916B
:102FD000FC91139781835A963C935A975B969C93E6
:102FE0005B975C962C930F900F900F90DF91CF9191
:102FF0001F910F91FF90EF900895CF92DF92EF9283
:10300000FF92CF93DF93EC0161E08FE00E94D20F3B
:1030100081E08A870E949D120E949D12BC01990F37
:10302000880B990B0E9410286B017C0160E08FE0F7
:103030000E94D20F1A860E943E106E837F8388877B
:103040009987A7019601C701B6010E94642420E078
:1030500030E040E850E40E946F2820E030E040E893
:103060005AE30E946F2820E030E048EC52E40E94CE
:103070006F280E944225CB01DF91CF91FF90EF9006
:10308000DF90CF9008950F931F93CF93DF9300D0DD
:1030900000D000D0CDB7DEB78C0161ED72E0CE017B
:1030A00001960E94310F28E047E0BE016F5F7F4F1D
:1030B000C8010E942A14182FCE0101960E94230FE6
:1030C000812F26960FB6F894DEBF0FBECDBFDF91DD
:1030D000CF911F910F910895CF92DF92EF92FF92BF
:1030E000CF93DF9300D000D000D0CDB7DEB71092E1
:1030F000B1048091BC049091BD04DC01ED91FC9180
:103100000284F385E02D099569ED72E0CE01019608
:103110000E94310F41E0BE016F5F7F4F8DE894E068
:103120000E94E315CE0101960E94230F0E943E10DB
:103130000E940E286B017C010E943E100E940E2806
:10314000A70196010E94632420E030E048EC52E49D
:103150000E94092887FDF0CF66EA72E0CE01019651
:103160000E94310F41E0BE016F5F7F4F8DE894E018
:103170000E94E315CE0101960E94230F8091BC04AA
:103180009091BD04DC01ED91FC910284F385E02D6A
:1031900009951092B5041092A6041092A504E0912E
:1031A0008D04F0918E0413821092B2041092910457
:1031B0008EE48093AF048093B0040E943E1060932D
:1031C000B8047093B9048093BA049093BB0410922E
:1031D000B70426960FB6F894DEBF0FBECDBFDF91C1
:1031E000CF91FF90EF90DF90CF900895FF920F93D3
:1031F0001F93CF93DF9300D000D000D0CDB7DEB7C0
:103200008C0161EE72E0CE0101960E94310F2CE03C
:103210004BE0BE016F5F7F4FC8010E942A14F82E59
:10322000CE0101960E94230FF11041C06EEE72E0B4
:10323000CE0101960E94310F2CE04BE0BE016F5F82
:103240007F4FC8010E942A14F82ECE0101960E94D9
:10325000230FF1102EC06BEF72E0CE0101960E9499
:10326000310F2CE04BE0BE016F5F7F4FC8010E9421
:103270002A14F82ECE0101960E94230FF1101BC0D4
:1032800068E073E0CE0101960E94310F2CE04BE024
:10329000BE016F5F7F4FC8010E942A14182FCE0114
:1032A00001960E94230F111108C08EE407C084E428
:1032B00005C082E503C089E401C085E426960FB607
:1032C000F894DEBF0FBECDBFDF91CF911F910F915C
:1032D000FF900895FF920F931F93CF93DF93CDB785
:1032E000DEB72C970FB6F894DEBF0FBECDBF8C01B2
:1032F00065E173E0CE0101960E94310FB801CE0165
:1033000007960E94280FBE016F5F7F4FCE01079680
:103310000E94100EF82ECE0107960E94230FCE01B8
:1033200001960E94230FFF2011F081E059C061E255
:1033300073E0CE0101960E94310FB801CE010796CD
:103340000E94280FBE016F5F7F4FCE0107960E943B
:10335000100EF82ECE0107960E94230FCE01019683
:103360000E94230FF110E1CF67E273E0CE010796D0
:103370000E94310FB801CE0101960E94280FBE01B4
:10338000695F7F4FCE0101960E94100EF82ECE018C
:1033900001960E94230FCE0107960E94230FF11081
:1033A000C4CF61EC72E0CE0107960E94310FB801E4
:1033B000CE0101960E94280FBE01695F7F4FCE01AA
:1033C00001960E94100E182FCE0101960E94230F25
:1033D000CE0107960E94230F81E0111101C080E009
:1033E0002C960FB6F894DEBF0FBECDBFDF91CF9104
:1033F0001F910F91FF900895CF92DF92EF92FF926D
:103400000F931F93CF93DF93CDB7DEB762970FB6BD
:10341000F894DEBF0FBECDBF8C01F62E8091BC04A8
:103420009091BD04DC01ED91FC910284F385E02DC7
:10343000099566EA72E0CE010D960E94310FF110F7
:1034400020C08091B404833531F0853569F08F3424
:1034500009F0E7C009C062E373E0CE010D960E9457
:10346000BC0E60E771E008C062E373E0CE010D9628
:103470000E94BC0E66E771E0CE010D960E94A60E7A
:1034800005C0B801CE010D960E94D30E66EA72E027
:10349000CE0107960E94310F69E373E0CE010796D3
:1034A0000E94BC0E6DE874E0CE0101960E949A1550
:1034B000BE016F5F7F4FCE0107960E94B50ECE0111
:1034C00001960E94230F64E372E0CE0107960E94EA
:1034D000A60E8091BC049091BD04DC01ED91FC919D
:1034E0000284F385E02D0995BE01695F7F4FCE010F
:1034F00001960E94280F41E0BE016F5F7F4F8DE86B
:1035000094E00E94E315CE0101960E94230F809162
:10351000BC049091BD04DC01ED91FC910284F38523
:10352000E02D09950E943E106B017C010E943E1027
:10353000DC01CB018C199D09AE09BF09883E93407F
:10354000A105B10598F3BE01635F7F4FCE010196DF
:103550000E94280F41E0BE016F5F7F4F8DE894E02D
:103560000E94E315CE0101960E94230F8091BC04B6
:103570009091BD04DC01ED91FC910284F385E02D76
:1035800009950E943E106B017C010E943E10DC01F7
:10359000CB018C199D09AE09BF09883E9340A10556
:1035A000B10598F38091BC049091BD04DC01ED91CC
:1035B000FC910284F385E02D09958DE894E00E944A
:1035C000B6150091BC041091BD04D801ED91FC9199
:1035D0000190F081E02D6AE1C8010995C8010E94BF
:1035E000460F8091BC049091BD04DC01ED91FC91EB
:1035F0000284F385E02D09950E943E106B017C0149
:103600000E943E10DC01CB018C199D09AE09BF0957
:10361000883E9340A105B10598F3CE0107960E941C
:10362000230FCE010D960E94230F62960FB6F894D9
:10363000DEBF0FBECDBFDF91CF911F910F91FF90E5
:10364000EF90DF90CF900895FC016481758190E048
:10365000292F30E026173707A8F440815181411502
:10366000510529F0DA01A20FB31F2C9101C020E00F
:10367000022E000C330B205331092A30310520F47F
:103680009F5FE6CF81E0089580E00895CF93DF93B8
:10369000CDB7DEB76A970FB6F894DEBF0FBECDBFC9
:1036A000789484B5826084BD84B5816084BD85B51D
:1036B000826085BD85B5816085BD80916E00816029
:1036C00080936E00109281008091810082608093CF
:1036D00081008091810081608093810080918000D1
:1036E0008160809380008091B10084608093B100FC
:1036F0008091B00081608093B00080917A008460F6
:1037000080937A0080917A00826080937A00809121
:103710007A008E7F80937A0080917A00806880930F
:103720007A001092C100E091A003F091A10382E021
:103730008083E0919C03F0919D031082E0919E03B1
:10374000F0919F0383E380831092A803E091A40388
:10375000F091A50386E08083E091A203F091A3039A
:10376000808180618083E091A203F091A303808136
:1037700088608083E091A203F091A3038081806838
:103780008083E091A203F091A30380818F7D8083E9
:1037900068E075E088E090E00E943E1180910805A5
:1037A00090910905019689F482E390E09A8F898FC0
:1037B000BE01675E7F4F88E090E00E94521168E092
:1037C00075E088E090E00E943E116FE075E080E0D7
:1037D00090E00E94791180910F058F3F49F481E0BC
:1037E00080930F056FE075E080E090E00E94831108
:1037F00060E175E084E090E00E943E118091100548
:1038000090911105019661F48EE190E0909311057D
:103810008093100560E175E084E090E00E94521111
:1038200062E175E08CE090E00E94791180911205D0
:103830008F3F41F41092120562E175E08CE090E058
:103840000E9483118EE090E00E942D298093130541
:103850008F3F29F463E48EED94E00E9444126AE005
:1038600075E080E190E00E943E1180910A05909100
:103870000B05019679F48CE692E090930B0580930A
:103880000A056AE075E080E190E00E94521181E053
:1038900080930E056CE075E084E190E00E943E119B
:1038A00080910C0590910D05019679F482EB92E0E0
:1038B00090930D0580930C056CE075E084E190E039
:1038C0000E94521181E080930E056EED74E088E154
:1038D00090E00E9479118091DE0481508E3F08F0C3
:1038E00055C04CE050E0BE016F5F7F4F8CE190E02F
:1038F0000E949B11BE016F5F7F4FCE010D960E940B
:10390000310FBE01635F7F4F82EE94E00E94EA0EAA
:10391000CE010D960E94230F11E006E08091DE0497
:10392000181708F049C0C12ED12CEBE01E9FC00132
:1039300011244C968115F4E09F073CF44BE050E0D5
:10394000BE016F5F7F4F0E949B11BE016F5F7F4F73
:10395000CE010D960E94310F0FB6F894DEBF0FBE58
:10396000CDBF21E0C21AD1080C9DC0010D9D900D64
:103970001124BE01635F7F4F88519B4F0E94EA0E66
:10398000CE010D960E94230F1F5FC8CF1092DE0458
:1039900066EA72E082EE94E00E94BC0E00E010E065
:1039A00066EA72E0C80188519B4F0E94BC0E0A5F14
:1039B0001F4F08311105A1F766E075E08EE790E032
:1039C0000E947911809106058F3F41F410920605FF
:1039D00066E075E08EE790E00E94831167E075E095
:1039E0008AE790E00E947911809107058130E1F427
:1039F0004CE050E0BE016F5F7F4F82E890E00E9494
:103A00009B11BE016F5F7F4FCE010D960E94310F5B
:103A1000BE01635F7F4F80E095E00E94EA0ECE0119
:103A20000D960E94230F0AC08F3F41F41982BE01F8
:103A30006F5F7F4F8AE790E00E9483118EED94E0E4
:103A400090938E0480938D0487E394E09093900488
:103A500080938F0484E6F82E80914603811188C0FC
:103A60000E943E10683A71468105910508F46FC3C3
:103A700000E06AE672E0CE0101960E94310FCE01AD
:103A800001960E941013182FCE0101960E94230F59
:103A9000112309F44BC06FE672E0CE0101960E943B
:103AA000310FCE0101960E941013182FCE010196FE
:103AB0000E94230F1123D1F16BE772E0CE014396F0
:103AC0000E94310FCE0143960E941013882351F1BA
:103AD00067E872E0CE010D960E94310FCE010D967F
:103AE0000E941013182F882379F063E972E0CE0149
:103AF00001960E94310FCE0101960E941013182FDB
:103B0000CE0101960E94230FCE010D960E94230F35
:103B1000CE0143960E94230F112341F081E0809350
:103B2000BE040CC0CE0143960E94230F8091BE04B8
:103B3000811104C0011102C001E09BCF91E090937C
:103B40007E048091680081608093680080916B00A2
:103B5000826080936B0080916B00846080936B0027
:103B600080916B00886080936B0090934603EFC256
:103B70000E948D0080918A04882369F080918B04D3
:103B8000811109C062E480917F04909180040E94B9
:103B9000BC1680938B04E0918104F09182048381B0
:103BA000811149C080918904811145C00E943E1055
:103BB000E09184040091850410918604209187048B
:103BC00030918804AB01BC01401B510B620B730B9D
:103BD000F4E6EF9FC0011124092E000CAA0BBB0BC9
:103BE000481759076A077B0730F18FE794E00E9476
:103BF000FD178C01E0918104F091820480A9882353
:103C000089F060E081E10E94D20F1092830410924B
:103C10008C0410928A0410928B04E0918104F0913C
:103C2000820410AA809183048111D3C20D3221E055
:103C3000120708F08FC280916C0481111AC1809123
:103C40007204811116C180917E04882309F411C188
:103C50009E012F5F3F4FAE01435F5F4FBE016D5E20
:103C60007F4F87E394E00E943817E0913904F09188
:103C70003A0481819981882309F4A6C08B89911126
:103C80002DC0811142C02D8521113FC010926004CA
:103C900040E060E087E394E00E94E21663E48091F4
:103CA0003B0490913C040E94BC1680934304E09135
:103CB0003904F0913A0412820091370410913804CB
:103CC000F8018481882309F4CBC060E081E10E947F
:103CD000D20FF801148281E08587C2C0209153047D
:103CE0002223B9F0811115C02D85211114C00E9425
:103CF0003E10609361047093620480936304909318
:103D0000640481E080936004ABC0209153042111CE
:103D10000DC0811104C020915104211107C02D85CF
:103D2000211130C030915204332361F10E943E10C2
:103D300060936704709368048093690490936A04A5
:103D4000DD24D394D09266048981811189C0809149
:103D50005304882309F484C0E0913904F0913A04B3
:103D600012820091370410913804F801848188236D
:103D700009F476C060E081E10E94D20FF80114825C
:103D8000D5866EC0992309F46BC0882309F468C0F6
:103D9000222309F465C080915304882341F0909157
:103DA0005104992321F090915204911159C010921D
:103DB0006604811155C081E082838091370490911F
:103DC00038040E9481174CC0992341F18B898823C4
:103DD000B1F08D85882399F081E081838283809181
:103DE0003704909138040E94811763E580913B0469
:103DF00090913C040E94BC168093440431C0809191
:103E0000530481112DC011E01283809137049091E9
:103E100038040E9481171093780418C080915304CD
:103E20008823F1F012820091370410913804F801D0
:103E30008481882341F060E081E10E94D20FF80183
:103E4000148281E0858781E0809378040E943E108F
:103E50006093790470937A0480937B0490937C043C
:103E60008B89809351048D8580935204898180933E
:103E70005304809178048823B9F10E943E10E091A8
:103E80007D040091790410917A0420917B04309193
:103E90007C04AB01BC01401B510B620B730BF4E6BD
:103EA000EF9FC0011124092E000CAA0BBB0B481771
:103EB00059076A077B07C0F010927804E091390433
:103EC000F0913A048281882309F4B9C181A9882339
:103ED00009F4A8C182A993A9892B09F095C160E0D2
:103EE00087E394E00E940E1780916004882301F11B
:103EF0000E943E10E09165040091610410916204FB
:103F00002091630430916404AB01BC01401B510B50
:103F1000620B730B24E6E29FC0011124092E000CF2
:103F2000AA0BBB0B84179507A607B70708F494C123
:103F300080916604882301F10E943E10E0916B0499
:103F400000916704109168042091690430916A041B
:103F5000AB01BC01401B510B620B730BF4E6EF9FEE
:103F6000C0011124092E000CAA0BBB0B8417950766
:103F7000A607B70708F482C180915404882321F171
:103F80000E943E10E0913904F0913A0422A933A92D
:103F90008090550490905604A0905704B090580417
:103FA0002B013C01481859086A087B08A8EEB3E0C9
:103FB0000E947A29461657066806790628F060E0BE
:103FC00087E394E00E940E1780915904882331F111
:103FD0000E943E1000915A0410915B0420915C04F1
:103FE00030915D04AB01BC01401B510B620B730BA4
:103FF00020915E0430915F04F29EC001F39E900D0B
:104000001124A0E0B0E0481759076A077B0730F099
:1040100040E060E087E394E00E94E21680916C0447
:104020008823D1F10E943E10E091710400916D044B
:1040300010916E0420916F0430917004AB01BC01AB
:10404000401B510B620B730B24E6E29FC00111244D
:10405000092E000CAA0BBB0B84179507A607B70700
:10406000D8F461E082E10E94D20F10926C0480913A
:104070005004882309F41AC11092500487E394E095
:104080000E949F17882309F409C164E480913B04CE
:1040900090913C040E94681580917204882309F471
:1040A0003EC00E943E10E09177040091730410918D
:1040B00074042091750430917604AB01BC01401B5F
:1040C000510B620B730BF4E6EF9FC0011124092E14
:1040D000000CAA0BBB0B84179507A607B707F8F4CB
:1040E00061E083E10E94D20F1092720487E394E0B2
:1040F0000E949F178091510420914F048111F6C0B6
:10410000809152048111F2C0222349F010924F0491
:1041100064E480913B0490913C040E94681500E0A7
:1041200010E0C801895C9B4F6C01FC018681811104
:1041300009C0678580913B0490913C040E94BC16A5
:10414000F60186830F5F1F4F0930110551F70E945A
:10415000B10C82CCE0918104F091820484A595A5F4
:104160008017910708F467CDDD24D394D0928C0496
:104170008281882339F061E081E10E94D20FD092E0
:10418000830402C01092830480918304811153CD73
:1041900080918A04E0918104F091820481110DC024
:1041A00084A595A50F978017910708F444CD109228
:1041B0008B0481E080938A043ECD84A595A5059764
:1041C0000817190708F437CD10928A0410928B044F
:1041D00032CD80918A04882321F010928A041092B3
:1041E0008B04E0918104F091820486A597A50817BD
:1041F000190708F420CD60E081E10E94D20F1092EF
:10420000830410928C0417CD81E0809354040E94A3
:104210003E10609355047093560480935704909316
:10422000580462CE84A981115FCE67E480913B047B
:1042300090913C040E94BC168093410455CE84A901
:10424000811152CE6CE480913B0490913C040E9419
:10425000BC168093420448CE1092600440E060E0B7
:1042600087E394E00E94E21665E580913B0490911B
:104270003C040E94BC1680933F045ACE40E060E0AC
:1042800087E394E00E94E21666E480913B049091FB
:104290003C040E94BC16809340046ECE41E060E076
:1042A00087E394E00E94E2166CE4F0CE87E394E0AA
:1042B0000E949F17882351F063E580913B04909101
:1042C0003C040E94BC1680934404E6CE41E060E0CA
:1042D00087E394E00E94E2166EE480913B049091A3
:1042E0003C040E94BC1680933D04D6CE80913B04D2
:1042F00090913C04222321F010924F046CE40DCFE6
:1043000060E50E94BC1680933E0409CFCF93DF93F3
:10431000EC016115710561F0FB0101900020E9F7E6
:104320003197AF01461B570B0E94420E811103C00B
:10433000CE010E948C0DCE01DF91CF910895CF93D5
:10434000DF93109293031092920388EE93E0A0E023
:10435000B0E08093940390939503A0939603B09359
:1043600097038AE091E0909391038093900385EC0A
:1043700090E090939D0380939C0384EC90E0909355
:104380009F0380939E0380EC90E09093A103809321
:10439000A00381EC90E09093A3038093A20382ECAE
:1043A00090E09093A5038093A40386EC90E0909313
:1043B000A7038093A6031092A9031092AA03109258
:1043C000AB031092AC0366EA72E082EE94E00E94C6
:1043D000310FC0E0D0E066EA72E0CE0188519B4F19
:1043E0000E94310F2696C831D105A9F766EA72E01E
:1043F00080E095E00E94310F1092DE0410920E05CD
:104400001092DF041092E0041092C2041092C104D2
:1044100088EE93E0A0E0B0E08093C3049093C404DE
:10442000A093C504B093C6048AE191E09093C004C0
:104430008093BF041092D6041092D5041092D80431
:104440001092D7041092DA041092D9041092DC046E
:104450001092DB046091DD046E7F6D7F6093DD045C
:104460006695617081E0682786E00E94D20F61E066
:1044700086E00E940210E4EBF0E0E491E093CF04C8
:10448000E0EAF0E0E491F0E0EE0FFF1FEA57FF4FA3
:10449000859194919093D1048093D00460E085E05D
:1044A0000E9402108091DD0481FD04C061E085E07E
:1044B0000E94D20F85E08093CB04E3EBF0E0E4911F
:1044C000E093CC04EFE9F0E0E491F0E0EE0FFF1FA1
:1044D000E057FF4F859194919093CE048093CD0443
:1044E00066EA72E082E994E00E94310F8FEB94E07B
:1044F0009093BD048093BC041092DA041092D90406
:104500001092D8041092D7041092D6041092D504B9
:1045100085E690E09093DC048093DB049091CB04DB
:10452000963108F057C021E230E03093D604209352
:10453000D50423E630E03093D8042093D70422E456
:1045400030E03093DA042093D90420916800983049
:1045500050F031E09E3008F430E081E001C0880F77
:104560003A95EAF701C084E0822B80936800983086
:1045700038F09E3040F0963148F020E030E008C03E
:104580002DE630E005C02BE630E002C02CE630E03E
:104590003093D3042093D204983030F481E001C0EA
:1045A000880F9A95EAF70EC0292F30E09E3018F454
:1045B0002850310902C02E50310981E001C0880F16
:1045C0002A95EAF78093D4048091DB049091DC046F
:1045D0000197F1F78091D9049091DA04892B49F180
:1045E000E0912F04F091300484E0EF3BF80709F1EB
:1045F000309739F0A389B4899C9185898095892366
:104600008C938091DD048E7F8093DD0410922E04C4
:1046100010922D048FEB94E09093300480932F043C
:10462000E091D204F091D30490818091D404892B3D
:10463000808362EB72E082E994E00E94BC0ECDE8D8
:10464000D4E01092BE0488EC8093AA041092A904CE
:1046500061E083E00E9402101092A90485E080933B
:10466000980410929D041092A6041092A5048EE462
:104670008093B4041092B3041092910424E432E0C5
:104680003093A00420939F041092B1048093AF0450
:104690008093B0041092B2041092B50481E080932C
:1046A000B70461E08FE00E94021061E081E10E94A6
:1046B000021060E081E10E94D20F109283041092F8
:1046C0008C048AEF809384041092890410928B04E6
:1046D00010928A04D0938004C0937F048EED94E0FE
:1046E0009093820480938104D0933C04C0933B0454
:1046F00090933A04809339048FE794E090933804C0
:104700008093370461E082E10E94021061E082E15F
:104710000E94D20F61E083E10E94021061E083E118
:104720000E94D20F62E089E00E94021062E08AE0FB
:104730000E94021062E08BE00E94021010924F046F
:104740001092500410927E041092540488E592E076
:1047500090935F0480935E041092590482E38093E7
:1047600065041092600496E490936B0410926604C2
:1047700094E19093710410926C04909377041092DA
:10478000720480937D041092780410925104109268
:10479000520410925304EDE3F4E091E089E08E0FAF
:1047A00091938E13FDCF8EE48093460480E5809331
:1047B000470485E58093480486E48093490487E4B0
:1047C00080934A048CE480934B0483E480934C04EC
:1047D00083E580934D048FE480934E0466EA72E093
:1047E00081E394E0DF91CF910C94310F81E394E069
:1047F0000E94230F82E994E00E94230F8AE191E056
:104800009093C0048093BF0480912F049091300452
:104810008F5B944071F4E091D204F091D3049081C5
:104820008091D40480958923808310923004109263
:104830002F0480E095E00E94230F88EE94E0892BFE
:1048400081F08AEF94E00E94230F84EF94E00E94AD
:10485000230F8EEE94E00E94230F88EE94E00E94D6
:10486000230F82EE94E00C94230F97FB072E16F48F
:10487000009407D077FD09D00E94492407FC05D099
:104880003EF4909581959F4F0895709561957F4F67
:104890000895AA1BBB1B51E107C0AA1FBB1FA61787
:1048A000B70710F0A61BB70B881F991F5A95A9F7D9
:1048B00080959095BC01CD010895EE0FFF1F0590E6
:1048C000F491E02D09945058BB27AA270E947B241D
:1048D0000C94F3280E94E52838F00E94EC2820F080
:1048E00039F49F3F19F426F40C94E2280EF4E09575
:1048F000E7FB0C94DC28E92F0E94042958F3BA172F
:10490000620773078407950720F079F4A6F50C94E5
:1049100026290EF4E0950B2EBA2FA02D0B01B9011C
:1049200090010C01CA01A0011124FF27591B99F025
:10493000593F50F4503E68F11A16F040A22F232F31
:10494000342F4427585FF3CF469537952795A79581
:10495000F0405395C9F77EF41F16BA0B620B730B28
:10496000840BBAF09150A1F0FF0FBB1F661F771F99
:10497000881FC2F70EC0BA0F621F731F841F48F44E
:10498000879577956795B795F7959E3F08F0B0CFD7
:104990009395880F08F09927EE0F979587950895BE
:1049A0000E94E4240C94F3280E94EC2858F00E9402
:1049B000E52840F029F45F3F29F00C94DC285111E0
:1049C0000C9427290C94E2280E94042968F3992367
:1049D000B1F3552391F3951B550BBB27AA276217FB
:1049E0007307840738F09F5F5F4F220F331F441F08
:1049F000AA1FA9F335D00E2E3AF0E0E832D091503C
:104A00005040E695001CCAF72BD0FE2F29D0660F28
:104A1000771F881FBB1F261737074807AB07B0E86B
:104A200009F0BB0B802DBF01FF2793585F4F3AF071
:104A30009E3F510578F00C94DC280C9427295F3FA9
:104A4000E4F3983ED4F3869577956795B795F795F7
:104A50009F5FC9F7880F911D9695879597F90895DF
:104A6000E1E0660F771F881FBB1F6217730784077B
:104A7000BA0720F0621B730B840BBA0BEE1F88F78A
:104A8000E09508950E940C2988F09F5798F0B92F5F
:104A90009927B751B0F0E1F0660F771F881F991F73
:104AA0001AF0BA95C9F714C0B13091F00E942629C6
:104AB000B1E008950C942629672F782F8827B85FD6
:104AC00039F0B93FCCF3869577956795B395D9F7CB
:104AD0003EF490958095709561957F4F8F4F9F4FD5
:104AE0000895CF93DF938230910510F482E090E037
:104AF000E0911605F091170520E030E0C0E0D0E02D
:104B0000309711F14081518148175907C0F048177B
:104B1000590761F482819381209719F09B838A83DE
:104B20002BC0909317058093160526C021153105DB
:104B300019F04217530718F49A01BE01DF01EF0183
:104B40000280F381E02DDCCF2115310509F1281B0E
:104B5000390B2430310590F412968D919C91139766
:104B60006115710521F0FB019383828304C090934A
:104B7000170580931605FD01329644C0FD01E20F32
:104B8000F31F81939193225031092D933C933AC0A6
:104B90002091140530911505232B41F42091020139
:104BA00030910301309315052093140520910001E5
:104BB000309101012115310541F42DB73EB74091E7
:104BC000040150910501241B350BE0911405F0916F
:104BD0001505E217F307A0F42E1B3F0B2817390722
:104BE00078F0AC014E5F5F4F2417350748F04E0F49
:104BF0005F1F50931505409314058193919302C054
:104C0000E0E0F0E0CF01DF91CF9108950F931F9383
:104C1000CF93DF93009709F48CC0FC013297138285
:104C2000128200911605109117050115110581F4E6
:104C300020813181820F931F209114053091150539
:104C40002817390779F5F0931505E093140571C01D
:104C5000D80140E050E0AE17BF0750F412962D91F6
:104C60003C911397AD012115310509F1D901F3CF1D
:104C70009D01DA013383228360817181860F971F42
:104C80008217930769F4EC0128813981260F371FB9
:104C90002E5F3F4F318320838A819B819383828360
:104CA000452B29F4F0931705E093160542C013969F
:104CB000FC93EE931297ED01499159919E01240FB7
:104CC000351FE217F30771F480819181840F951FDE
:104CD000029611969C938E938281938113969C9356
:104CE0008E931297E0E0F0E0D80112968D919C919E
:104CF0001397009719F0F8018C01F6CF8D919C91D4
:104D000098012E5F3F4F820F931F20911405309121
:104D100015052817390769F4309729F410921705FB
:104D20001092160502C0138212821093150500938B
:104D30001405DF91CF911F910F910895A0E0B0E08D
:104D4000E4EAF6E20C944729EC01009721F4CB0148
:104D50000E947125B8C0FC01E60FF71F9C0122508C
:104D60003109E217F30708F4ACC0D9010D911C9189
:104D7000119706171707B0F00530110508F49FC00A
:104D8000C80104978617970708F499C002501109C3
:104D9000061B170B019311936D937C93CF010E9417
:104DA00006268DC05B01A01AB10A4C01800E911E2F
:104DB000A0911605B091170540E050E0E12CF12CD0
:104DC000109709F44AC0A815B905D1F56D907C90EB
:104DD0001197630182E0C80ED11CCA14DB0480F174
:104DE000A3014A195B096A0182E0C80ED11C129620
:104DF000BC9012971396AC91B5E0CB16D10440F05D
:104E0000B282A38351834083D9016D937C930AC0FE
:104E10000E5F1F4FC301800F911FF90191838083A3
:104E2000EB2DFA2FE114F10431F0D7011396FC9326
:104E3000EE93129744C0F0931705E09316053FC018
:104E40008D919C9111974817590708F4AC017D0189
:104E500012960D90BC91A02DB3CF80911405909126
:104E6000150588159905E1F446175707C8F4809190
:104E7000000190910101009741F48DB79EB74091D8
:104E8000040150910501841B950BE817F907C8F43C
:104E9000F0931505E0931405F901718360830FC049
:104EA000CB010E9471257C01009759F0A801BE0139
:104EB0000E946D27CE010E940626C70104C0CE01C4
:104EC00002C080E090E0CDB7DEB7EEE00C9463293D
:104ED00081E090E0F8940C948929FB01DC0102C088
:104EE00001900D9241505040D8F70895FB01DC012C
:104EF0008D91019080190110D9F3990B0895FB0150
:104F0000DC0101900D920020E1F70895FB01DC0126
:104F10004150504030F08D910190801919F40020DB
:104F2000B9F7881B990B0895FB01DC0141505040F3
:104F300048F001900D920020C9F701C01D92415028
:104F40005040E0F708951F93FC0199278827BC0182
:104F5000E89411911032E9F3193010F01E30C8F3C3
:104F60001B3251F01D3249F4689406C00E94CA27D2
:104F7000610F711D811D911D119110531A30B0F3F5
:104F80003EF490958095709561957F4F8F4F9F4F20
:104F90001F910895592F482F372F262F660F771FFF
:104FA000881F991F660F771F881F991F620F731F35
:104FB000841F951F660F771F881F991F0895BB27B1
:104FC000FB015527AA27880F991FAA1FA41710F0C5
:104FD000A41B83955051B9F7A05DAA3308F0A95DD1
:104FE000A193009779F7B111B1931192CB010C9471
:104FF000F927DC01FC01672F71917723E1F73297E4
:1050000004C07C916D9370836291AE17BF07C8F3A3
:1050100008950E944B2808F481E00895E89409C09F
:1050200097FB3EF490958095709561957F4F8F4FDB
:105030009F4F9923A9F0F92F96E9BB279395F695F1
:10504000879577956795B795F111F8CFFAF4BB0F6F
:1050500011F460FF1BC06F5F7F4F8F4F9F4F16C0D3
:10506000882311F096E911C0772321F09EE8872F5D
:10507000762F05C0662371F096E8862F70E060E019
:105080002AF09A95660F771F881FDAF7880F969592
:10509000879597F90895990F0008550FAA0BE0E836
:1050A000FEEF16161706E807F907C0F012161306EA
:1050B000E407F50798F0621B730B840B950B39F42A
:1050C0000A2661F0232B242B252B21F408950A2690
:1050D00009F4A140A6958FEF811D811D08950E94BE
:1050E00082280C94F3280E94E52838F00E94EC28CE
:1050F00020F0952311F00C94DC280C94E228112464
:105100000C9427290E94042970F3959FC1F3950FF1
:1051100050E0551F629FF001729FBB27F00DB11D3B
:10512000639FAA27F00DB11DAA1F649F6627B00DCB
:10513000A11D661F829F2227B00DA11D621F739FB4
:10514000B00DA11D621F839FA00D611D221F749FC2
:105150003327A00D611D231F849F600D211D822F09
:10516000762F6A2F11249F5750409AF0F1F0882330
:105170004AF0EE0FFF1FBB1F661F771F881F91505D
:105180005040A9F79E3F510580F00C94DC280C9408
:1051900027295F3FE4F3983ED4F38695779567958A
:1051A000B795F795E7959F5FC1F7FE2B880F911D87
:1051B0009695879597F9089597F99F6780E870E02D
:1051C00060E008959FEF80EC089500240A9416167D
:1051D000170618060906089500240A9412161306E5
:1051E000140605060895092E0394000C11F4882373
:1051F00052F0BB0F40F4BF2B11F460FF04C06F5F8F
:105200007F4F8F4F9F4F089557FD9058440F551F64
:1052100059F05F3F71F04795880F97FB991F61F038
:105220009F3F79F087950895121613061406551FAF
:10523000F2CF4695F1DF08C0161617061806991F1B
:10524000F1CF86957105610508940895E894BB2710
:1052500066277727CB0197F90895F999FECF92BD7C
:1052600081BDF89A992780B50895262FF999FECF28
:105270001FBA92BD81BD20BD0FB6F894FA9AF99A73
:105280000FBE019608952F923F924F925F926F92B8
:105290007F928F929F92AF92BF92CF92DF92EF92C6
:1052A000FF920F931F93CF93DF93CDB7DEB7CA1B47
:1052B000DB0B0FB6F894DEBF0FBECDBF09942A8872
:1052C000398848885F846E847D848C849B84AA841A
:1052D000B984C884DF80EE80FD800C811B81AA81A7
:1052E000B981CE0FD11D0FB6F894DEBF0FBECDBF72
:1052F000ED010895A29FB001B39FC001A39F700D5F
:10530000811D1124911DB29F700D811D1124911DCD
:10531000089510E0C2E6D0E004C0FE010E945D24C2
:0C5320002196C336D107C9F7F894FFCFDF
:10532C0000001805800000000000480CC40B110C94
:10533C00EF0B030C8F0C00000000FD0CC40B510D87
:10534C00690DE40CFC0C204F4E0A00204F46460A17
:10535C00002B435553443A0041542B434D47523D87
:10536C00002B434D47523A00434C454152414C4C63
:10537C000054454D500044454641554C5400415550
:10538C00544F4F4E004155544F4F464600444E44E7
:10539C004F4E00444E444F46460052455350430036
:1053AC0052455350410042415453544152540042CF
:1053BC00415453544F50005354415455530041439E
:1053CC003A004D3A004241543A002E004155544F98
:1053DC0054494D450041542B4353510042414C001C
:1053EC0041542B435553443D312C22004D2D00414B
:1053FC004D4F4E00414D4F464600414D2B00415400
:10540C002B434D4744413D2244454C20414C4C22BA
:10541C00002B4350494E3A204E4F542052454144A4
:10542C00590D0041542B4346554E3D300D0A004159
:10543C00542B4346554E3D310D0A0052494E470DF3
:10544C000041542B444445543D310D0A002B434C30
:10545C0049503A2022004154410041542B435245BB
:10546C00433D342C2200433A5C002E616D72222C99
:10547C00302C3130302C310D0041542B43555344DA
:10548C003D30002B434D54493A0041540D0A004124
:10549C00542B434C49503D310D0A0041542B434C85
:1054AC0043433D310D0A0041542B434D47463D319A
:1054BC000D0A0041542B434E4D493D322C312C30BA
:1054CC002C302C300D0A0041542B435245433D35B2
:1054DC000D0037303431313936393539004F4B0DF9
:1054EC00004552524F520D004154442B3931003B70
:1054FC00002B44544D463A200041542B4348555000
:10550C00002B434C43433A20312C302C32002B439C
:10551C004C43433A20312C302C33002B434C434327
:10552C003A20312C302C30002B434C43433A203161
:10553C002C302C36004E4F20434152524945520DCF
:10554C0000425553590D004E4F20414E5357455272
:10555C000D004D4F544F52200041542B434D475397
:06556C003D222B39310045
:107800000C94343C0C94513C0C94513C0C94513CE1
:107810000C94513C0C94513C0C94513C0C94513CB4
:107820000C94513C0C94513C0C94513C0C94513CA4
:107830000C94513C0C94513C0C94513C0C94513C94
:107840000C94513C0C94513C0C94513C0C94513C84
:107850000C94513C0C94513C0C94513C0C94513C74
:107860000C94513C0C94513C11241FBECFEFD8E036
:10787000DEBFCDBF11E0A0E0B1E0EAE8FFE702C063
:1078800005900D92A230B107D9F712E0A2E0B1E065
:1078900001C01D92AD30B107E1F70E942D3D0C945F
:1078A000C33F0C94003C982F95959595959595958B
:1078B000905D8F708A307CF0282F295A8091C0000B
:1078C00085FFFCCF9093C6008091C00085FFFCCF60
:1078D0002093C6000895282F205DF0CF982F809127
:1078E000C00085FFFCCF9093C6000895EF92FF92F1
:1078F0000F931F93EE24FF2487018091C00087FD22
:1079000017C00894E11CF11C011D111D81E2E8164D
:1079100081EAF80687E0080780E0180770F3E09135
:107920000401F091050109958091C00087FFE9CF1E
:107930008091C6001F910F91FF90EF9008950E94D3
:10794000763C982F8091C00085FFFCCF9093C600B5
:1079500091362CF490330CF09053892F089597555D
:10796000892F08951F930E949F3C182F0E949F3CCF
:107970001295107F810F1F9108951F93182F882350
:1079800021F00E94763C1150E1F71F9108951F935A
:10799000182F0E94763C803249F0809103018F5F5E
:1079A000809303018530C1F01F9108958091C0003C
:1079B00085FFFCCF84E18093C6008091C00085FFE5
:1079C000FCCF1093C6008091C00085FFFCCF80E102
:1079D0008093C6001F910895E0910401F091050184
:1079E00009951F9108950E94763C803241F0809164
:1079F00003018F5F80930301853081F008958091AA
:107A0000C00085FFFCCF84E18093C6008091C00058
:107A100085FFFCCF80E18093C6000895E0910401CA
:107A2000F09105010995089548EC50E08823A1F0F4
:107A30002D9A28EE33E0FA013197F1F721503040CA
:107A4000D1F72D9828EE33E0FA013197F1F7215064
:107A50003040D1F7815061F708953F924F925F9285
:107A60006F927F928F929F92AF92BF92CF92DF924E
:107A7000EF92FF920F931F93CF93DF93000082E06A
:107A80008093C00080E18093C4001092C50088E11B
:107A90008093C10086E08093C2005098589A259A3E
:107AA00081E00E94143D24E1F22E9EE1E92E85E959
:107AB000D82E0FE0C02E10E1B12EAA24A394B1E479
:107AC0009B2EA6E58A2EF2E57F2EE0E26E2E79E46B
:107AD000572E63E5462E50E5352E0E94763C8033C6
:107AE000B1F18133B9F1803409F46FC0813409F404
:107AF00076C0823409F485C0853409F488C08035A5
:107B000031F1823521F1813511F1853509F485C0D6
:107B1000863509F48DC0843609F496C0843709F49B
:107B200003C1853709F472C1863709F466C08091B4
:107B300003018F5F80930301853079F6E0910401A2
:107B4000F091050109950E94763C803351F60E9420
:107B5000F33CC3CF0E94763C803249F78091C0004D
:107B600085FFFCCFF092C6008091C00085FFFCCF5E
:107B70009092C6008091C00085FFFCCF8092C60025
:107B80008091C00085FFFCCF7092C6008091C0003C
:107B900085FFFCCF6092C6008091C00085FFFCCFBE
:107BA0005092C6008091C00085FFFCCF4092C60075
:107BB0008091C00085FFFCCF3092C6008091C0004C
:107BC00085FFFCCFB092C60088CF0E94763C8638F5
:107BD00008F4BDCF0E94763C0E94F33C7ECF0E9409
:107BE000763C803809F49CC0813809F40BC1823896
:107BF00009F430C1883909F48FC080E00E94C73C85
:107C00006CCF84E10E94BD3C0E94F33C66CF85E0CE
:107C10000E94BD3C0E94F33C60CF0E94763C809362
:107C200006010E94763C809307010E94F33C55CFE9
:107C30000E94763C803309F411C183E00E94BD3C70
:107C400080E00E94C73C49CF0E94763C80930902A5
:107C50000E94763C8093080280910C028E7F809374
:107C60000C020E94763C853409F409C18091080217
:107C700090910902892B89F000E010E00E94763C87
:107C8000F801E85FFE4F80830F5F1F4F809108026D
:107C9000909109020817190788F30E94763C8032F8
:107CA00009F045CF80910C0280FFF5C0609106017C
:107CB00070910701660F771F7093070160930601AB
:107CC000A0910802B09109021097C9F0E8E0F1E034
:107CD0009B01AD014E0F5F1FF999FECF32BD21BD53
:107CE000819180BDFA9AF99A2F5F3F4FE417F5070B
:107CF00099F76A0F7B1F70930701609306018091CB
:107D0000C00085FFFCCFF092C6008091C00085FFC7
:107D1000FCCFB092C600E1CE83E00E94C73CDDCE2E
:107D200082E00E94C73CD9CE0E94763C8093090233
:107D30000E94763C80930802809106019091070191
:107D4000880F991F90930701809306010E94763C4B
:107D5000853409F49AC080910C028E7F80930C02C6
:107D60000E94763C803209F0B8CE8091C00085FF39
