:100000000C94A3020C94691E0C94421E0C944B1287
:100010000C945A120C94CB020C941D120C94CB022B
:100020000C94CB020C94CB020C94CB020C94CB021C
:100030000C94CB020C94CB020C94CB020C94CB020C
:100040000C94F81D0C94CB020C94F51C0C94CF1C52
:100050000C94CB020C94CB020C94CB020C94CB02EC
:100060000C94CB020C94CB0241542B435245473F96
:100070000041542B434349440041542B44444554CC
:100080003D310D0A00415426570D0A0041542B43BF
:100090004C54533D310D0A0041542B4353434C4BB8
:1000A0003D310D0A0041542B434E4D493D322C3118
:1000B0002C302C302C300D0A0041542B434D474638
:1000C0003D310D0A0041542B434C43433D310D0A51
:1000D0000041542B434C49503D310D0A0041540D11
:1000E0000A004D415843454444004345525200558F
:1000F000504453554343004154410041542B444420
:1001000045543D310D0A0041542B4346554E3D3177
:100110002C310D0A002B4350494E3A204E4F5420AB
:1001200052454144590D0043616C6C205265616435
:10013000790D0041542B434D4744413D2244454CE9
:1001400020414C4C220D0A0041542B465450474547
:1001500054544F46533D302C226D2E62696E220D51
:100160000A000D002B465450474554544F46533A0D
:1001700020302C002B46545053495A453A20312CFC
:10018000302C0041542B46545053495A450D0A0017
:10019000504154483D222F220D0A0041542B465411
:1001A0005047455400220D0A004E414D453D220066
:1001B00041542B465450474554006D2E62696E00E1
:1001C00041542B46545050573D223132333435364A
:1001D000373839220D0A0041542B465450554E3DB4
:1001E00022726168756C6E726174686F646B636CA7
:1001F000220D0A00220D0A0041542B46545053454B
:1002000052563D220041542B4654504349443D31FF
:100210000D0A0041542B53415042523D312C310DB7
:100220000A00220D0A0041504E222C220041542B7C
:1002300053415042523D332C312C2200436F6E54B7
:10024000797065222C2247505253220D0A004154E6
:100250002B53415042523D332C312C220041542B20
:10026000434F50533D320D0A00415426570D0A00AA
:1002700041542B4353434C4B3D300D0A0041542B0A
:1002800053415042523D302C310D0A00444300533B
:1002900055500050524755504400564D5230320090
:1002A000564D4D3031002A2A2A2A4D2B00310D009F
:1002B000300D002E616D72222C302C3130302C002C
:1002C00041542B435245433D342C22433A5C5573F1
:1002D00065725C4654505C002B434357413A2030D2
:1002E0002C37002B435245473A000041542B4352D0
:1002F00045433D350D0041542B43424300373034D4
:1003000031313936393539000A4E6574776F726B81
:100310003A000A426174253A00204F46460A0020FE
:100320004F4E0A00204F4E0A004D6F746F723A0014
:10033000204F46460A0020322050484153450A00CB
:100340004155544F4F4646004155544F4F4E00457E
:1003500052524F52203A20004F4B203A2000415435
:100360002B435553443D312C220042414C00415512
:10037000544F54494D45004155544F54494D450043
:100380005354415254494D45005354415254494DE0
:100390004500535441474500535441474500414DA2
:1003A0004F464600414D4F4E0041542B43424300BF
:1003B00041542B4353510053544154555300554E0F
:1003C0004452004F565200534A4D5000524553502C
:1003D00000444E444F464600444E444F4E0042595E
:1003E000504F4646004259504F4E004155544F4FD2
:1003F0004646004155544F4F4E0044494400524533
:10040000534554004E6F204E756D626572004E5517
:100410004D0044454641554C5400434C45415241E2
:100420004C4C0057414954000000000024002700B4
:100430002A0000000000250028002B00000000001A
:100440002300260029000404040404040404020216
:100450000202020203030303030301020408102043
:10046000408001020408102001020408102000004E
:100470000008000201000003040700000000000063
:1004800000003935383631333539373800373338AD
:100490003336323236373800373338333631343248
:1004A000313400373639383433393230310037306F
:1004B0003431313936393539003730343131393624
:1004C000393539004E4F20414E535745520D0042A9
:1004D0005553590D004E4F20434152524945520D3C
:1004E000002B434C43433A20312C302C0000415424
:1004F0002B4348555000222C320041542B56545364
:100500003D22002B53415042523A20312C0041549D
:100510002B53415042523D322C310D0A0041542B95
:10052000434357413D302C300D0A0041542B434387
:1005300057413D302C320D0A000A49443A0030330D
:100540000A00E0334A3311241FBECFEFD8E0DEBFEC
:10055000CDBF23E0AAECB1E001C01D92A834B207E0
:10056000E1F711E0A0E0B1E0E0E8F6E702C00590B5
:100570000D92AA3CB107D9F712E0C2EAD2E004C05A
:100580002197FE010E94CE38C13AD107C9F70E94D7
:100590006D290C94333B0C9441122F923F924F9251
:1005A0005F927F928F929F92AF92BF92CF92DF9293
:1005B000EF92FF920F931F93CF93DF93CDB7DEB7E8
:1005C000C254D1090FB6F894DEBF0FBECDBF8091E3
:1005D00019038823B1F00E94BC1D00911A031091E9
:1005E0001B0320911C0330911D03DC01CB01801BF8
:1005F000910BA20BB30B813D9740A105B10508F00B
:1006000007C68091F302882371F10E94BC1D0091FE
:10061000F6021091F7022091F8023091F902AB0135
:10062000BC01401B510B620B730B2091F402309103
:10063000F502E4E6E29FC001E39F900D1124A0E0E3
:10064000B0E0481759076A077B0768F0E091DF02BE
:10065000F091E0028389811106C060E084E00E948D
:10066000501D1092F3028091FA028E3409F052C0AC
:100670008091FB028E3409F0BBC080910703811189
:1006800016C00E94BC1D009108031091090320911F
:100690000A0330910B03DC01CB01801B910BA20BF1
:1006A000B30B893E9340A105B10508F0B4C5809114
:1006B000FF02882309F49CC0E091DD02F091DE0284
:1006C000158580910703882309F492C08091FE026A
:1006D000813009F475C00E94BC1DC0900003D09009
:1006E0000103E0900203F09003039B01AC012C197D
:1006F0003D094E095F0969017A01212F30E0A0E62A
:10070000BAEE0E9489376C157D058E059F0508F4A9
:1007100057C06EC0893419F0823509F069C00E9453
:10072000BC1D0091ED021091EE022091EF0230917C
:10073000F002AB01BC01401B510B620B730B20910B
:10074000EB023091EC02E4E6E29FC001E39F900DE2
:100750001124A0E0B0E0481759076A077B0760F052
:100760008091050323968FAF23970E94BD21239686
:100770008FAD23970E9402248091E7028823C1F164
:100780000E94BC1DE091E2020091E3021091E4029C
:100790002091E5023091E602AB01BC01401B510BF8
:1007A000620B730B34E6E39FC0011124092E000C89
:1007B000AA0BBB0B84179507A607B707C8F42FC56C
:1007C00080910403809305031092FF02E091DD0203
:1007D000F091DE02858D8E3459F081E0809306031E
:1007E0008DED92E00E94070F8DED92E00E94F00FD8
:1007F0009FE4E92E22E5D22E39E4F32E80911603F0
:1008000090911703DC01ED91FC910084F185E02DBE
:100810000995181619060CF0FCC66DED72E0CE01B4
:10082000CC960E94280F21960FAD219701506DE1C3
:1008300071E0CE0101960E94581C26E0AE014F5F88
:100840005F4FBE01645C7F4F8DED92E00E940D0E04
:10085000182FCE0101960E94301C112321F08091A7
:10086000F202811124C521960FAD2197015064E257
:1008700071E0CE0101960E94581C2CE0AE014F5F42
:100880005F4FBE01645C7F4F8DED92E00E940D0EC4
:10089000182FCE0101960E94301C112369F1BE0170
:1008A000645C7F4FCE01C0960E943E1C6BE271E0FB
:1008B000CE0189960E94581CBE01605D7F4FCE011B
:1008C00089960E94B11BBE01675D7F4FCE010196E4
:1008D0000E943E1CBE016F5F7F4F8DED92E00E9433
:1008E000EC25CE0101960E94301CCE0189960E9413
:1008F000301CCE01C096A7C264E371E0CE01019620
:100900000E94581C02E228E1AE014F5F5F4FBE011A
:10091000645C7F4F8DED92E00E940D0E182FCE018A
:1009200001960E94301CBE01645C7F4FCE011123F2
:1009300009F446C201960E943E1CCE0101960E9417
:100940002F24982ECE0101960E94301CBE01645CBB
:100950007F4FCE0101960E943E1CBE016F5F7F4F0C
:100960008091DD029091DE020E94820CC82ECE01A1
:1009700001960E94301C911026C0BE01645C7F4F1E
:10098000CE0101960E943E1CBE016F5F7F4F809199
:10099000DD029091DE020E94340C81110CC0C11066
:1009A0000BC0E091DD02F091DE0211E0808188232E
:1009B00019F010E001C0182FCE0101960E94301CE2
:1009C000112309F49DC16DED72E0CE0101960E94E4
:1009D000280FBE016F5F7F4FCE01CC960E94F71BA0
:1009E000CE0101960E94301CACACBDACA114B10488
:1009F00041F4E091DD02F091DE028081882371F004
:100A00003CC0D5018C918823A1F3082E000C990BD2
:100A10000E94D03AF50181935F01F3CF91102DC070
:100A200066EA72E0CE0101960E94351CBE016F5F3E
:100A30007F4FCE01CC960E94C51A182FCE01019689
:100A40000E94301C112309F400C222962EAD3FAD46
:100A5000229744E050E0BE01645C7F4FCE010196D6
:100A60000E946D1CBE016F5F7F4FCE01CC960E942D
:100A7000F71BCE0101960E94301C6BE371E0CE01A2
:100A800001960E94581CBE016F5F7F4FCE01CC962D
:100A90000E94C51A182FCE0101960E94301C112306
:100AA000D1F022962EAD3FAD229741E050E0BE013D
:100AB000645C7F4FCE0101960E946D1CBE016F5F8A
:100AC0007F4FCE01CC960E94F71BCE0101960E946B
:100AD000301C11E001C010E0BE01645C7F4FCE010C
:100AE000992009F402C1C6960E943E1C81E08093C1
:100AF000F1020AAD015063E972E0CE0101960E9455
:100B0000351C26E0AE014F5F5F4FBE016A5C7F4F30
:100B10008DED92E00E940D0E782ECE0101960E947E
:100B2000301C772009F4CEC08091FA028E3411F483
:100B30000E94BD21111110C06FE872E0CE01019634
:100B40000E94351C40E061E0CE0101960E94E02247
:100B5000CE0101960E94301CAEA8BFA80E94BA2701
:100B6000811156C06DE371E0C5010E9478354C01DA
:100B70006EE571E080E090E00E9478355C016EE403
:100B800072E0CE0101960E9468356CE372E0CE01FE
:100B900001960E945D35CE0101960E943728882378
:100BA00009F457C06DE272E0CE0101960E946835EB
:100BB00066E272E0CE0101960E945D35B401CE017D
:100BC00001960E94E13A62E272E0CE0101960E9433
:100BD0005D35CE0101960E9437288823D1F161E06E
:100BE00083E192E00E94D524882399F164E18DEDA0
:100BF00092E00E94E20D0CE0015059F162E38DEDAC
:100C000092E00E94E20D0E94BA278823A9F302C055
:100C1000A12CB12C61E085E092E00E94D5248823CC
:100C2000C1F068EF71E0CE0101960E946835B50110
:100C3000CE0101960E94E13A64EF71E0CE01019687
:100C40000E945D3561E0CE0101960E943627811138
:100C500042C361E08DE792E00E94D524E091DD027D
:100C6000F091DE0212861982BE016F5F7F4F84E829
:100C700093E00E94D51E1A821982BE016F5F7F4FDA
:100C800084E993E00E94A22801E00983BE016F5F1E
:100C90007F4F80E993E00E94D51E0093F10211116D
:100CA00013C06FE371E0CE0101960E94581C40E032
:100CB00061E0CE0101960E94E022CE0101960E94E1
:100CC000301C02C01092F102CE01C6960E94301C68
:100CD000711070C0BE01645C7F4FCE0101960E940E
:100CE0003E1C2C2D412F61E006C001960E943E1C47
:100CF0002C2D412F60E0CE0101960E946F1256C04C
:100D0000BE01645C7F4FCE0101960E943E1CBE0175
:100D10006F5F7F4F8091DD029091DE020E94890C0F
:100D2000182FCE0101960E94301C112309F442C0F5
:100D30006DED72E0CE0101960E94280FBE016F5F3B
:100D40007F4FCE01CC960E94F71BCE0101960E94E8
:100D5000301C60EA72E0CE0101960E94351CBE0193
:100D60006F5F7F4FCE01CC960E94C51A182FCE011F
:100D700001960E94301C1123E9F0E091DD02F09110
:100D8000DE0281E08483BF016C5F7F4F8CE590E0E1
:100D90000E94D51E6AE972E0CE0101960E94351CC0
:100DA00042E061E0CE0101960E94E022CE01019670
:100DB0000E94301C60E083E391E00E94D52445C08E
:100DC00089960E943E1C67E271E0CE0101960E9466
:100DD000351CBE016F5F7F4FCE0189960E94FF1ABE
:100DE000182FCE0101960E94301CCE0189960E94D8
:100DF000301C112321F081E08093180326C0BE012E
:100E0000645C7F4FCE0189960E943E1C65E171E0D3
:100E1000CE0101960E94351CBE016F5F7F4FCE014F
:100E200089960E94FF1A182FCE0101960E94301C4D
:100E3000112339F00E94BD2160E087E091E00E941B
:100E4000D524CE0189960E94301C90910603809192
:100E5000FA029111FDC08E3419F0823509F083C178
:100E60009091FB029E3419F0993409F0DEC0BE0166
:100E7000645C7F4FCE0101960E943E1C62E471E0EB
:100E8000CE0101960E94E01A182FCE0101960E9411
:100E9000301C112309F4B3C081E08093E902D092A1
:100EA000FA02F092FB028091FC028F5F8093FC02B9
:100EB000853008F066C0813091F440E06BEF70E05F
:100EC0008DED92E00E946B0F8091160390911703B5
:100ED000DC01ED91FC910680F781E02D09956EE52E
:100EE00071E0CE01C0960E94581C6DED72E0CE01FB
:100EF00001960E94280FBE016F5F7F4FCE01C09602
:100F00000E94F71BCE0101960E94301C68E471E03C
:100F1000CE0101960E94581C05E12BE0AE014F5F07
:100F20005F4FBE01605D7F4F8DED92E00E940D0E20
:100F3000182FCE0101960E94301C1123B1F20E949D
:100F4000BC1D6093ED027093EE028093EF029093CC
:100F5000F0028CA99DA90A9778F0CE01C0960E9454
:100F6000B024882349F08091FC02823028F08091DF
:100F7000E102882309F420C3CE01C0960E94301CF0
:100F800006C08091E102811102C00E94BD218091C2
:100F9000E102882309F437C10E94BC1D6093ED0271
:100FA0007093EE028093EF029093F0021092E102B0
:100FB00081E08093FD028091160390911703DC017C
:100FC000ED91FC910680F781E02D099541E067EFF6
:100FD00070E08DED92E00E946B0F8091160390916E
:100FE0001703DC01ED91FC910680F781E02D099556
:100FF000F092FA02F092FB0241E06DE4AFC0BE0154
:10100000645C7F4FCE0101960E943E1CCE0101968A
:101010000E948422182FCE0101960E94301C1123B9
:1010200009F4F1C00E94BD21EEC0893489F4909189
:10103000FB02993469F4BE01645C7F4FCE010196D6
:101040000E943E1CCE0101960E948422182FB7C038
:101050008E3419F0823509F089C01091FB021F34DB
:1010600009F0D1C0BE01645C7F4FCE0101960E94A1
:101070003E1CCE0101960E943522082FCE0101961A
:101080000E94301C023579F40E94BC1D6093ED0271
:101090007093EE028093EF029093F0020093FA02B5
:1010A0001093FB02B0C0BE01645C7F4FCE0101967D
:1010B0000E943E1CCE0101960E948422182F8111AD
:1010C00013C0BE01645C7F4FCE0189960E943E1C16
:1010D000CE0189960E94352211E0853409F010E096
:1010E000CE0189960E94301CCE0101960E94301CD0
:1010F000112369F08091050323968FAF23970E94F7
:10110000BD2123968FAD23970E9402247CC0BE018F
:10111000645C7F4FCE0101960E943E1CCE01019679
:101120000E943522182FCE0101960E94301C1934DE
:1011300009F069C00E94BC1D6093ED027093EE023D
:101140008093EF029093F0021093FA02E092FB0278
:1011500081E08093FD0241E0609105038DED92E016
:101160000E94B30F50C0893409F461CF893409F06B
:101170004AC08091FB028F3409F045C0BE01645C17
:101180007F4FCE0101960E943E1CCE0101960E9427
:101190008422182F811113C0BE01645C7F4FCE01E1
:1011A00089960E943E1CCE0189960E94352211E04C
:1011B000853409F010E0CE0189960E94301CCE01E2
:1011C00001960E94301C11112DCFCE01CC960E94A9
:1011D0008E21BE01645C7F4F882349F0CE010196C9
:1011E0000E943E1CCE0101960E94521F08C0CE01F3
:1011F00001960E943E1CCE0101960E949925CE01C7
:1012000001960E94301CCE01CC960E94301CF6CA7A
:1012100010921903F6C981E08093070348CA8091B0
:10122000160390911703DC01ED91FC910680F78184
:10123000E02D099540E060EC72E08DED92E00E94B7
:101240006B0F6091E8028DED92E023966FAF2397CC
:101250000E94070F23966FAD2397809116039091FC
:1012600017030E94B31C40E063EB72E08DED92E047
:101270000E946B0F80910D03823020F041E060EB03
:1012800072E003C041E06DEA72E08DED92E00E94F1
:101290006B0F8091160390911703DC01ED91FC9187
:1012A0000680F781E02D09951092E702A1CABE01E0
:1012B000645C7F4FCE0101960E943E1C40E061E0DD
:1012C000CE0101960E94E022CE0101960E94301CC0
:1012D0001092F202C8CA61E087ED91E00E94D52425
:1012E000882309F4B6CC61E080EC91E00E94D5241B
:1012F000882309F4AECC60EB71E0CE0101960E9428
:10130000683569EA71E0CE0101960E945D356AEBAD
:1013100071E0CE0101960E945D3565EA71E0CE0173
:1013200001960E945D3561E0CE0101960E9436274C
:10133000982E882309F48DCC6BE971E0CE010196DB
:101340000E94683560E971E0CE0101960E945D352A
:1013500060E0CE0101960E943627E091DD02F09117
:10136000DE028285811177C00E94BC1D1B012C0109
:1013700040E063E871E08DED92E00E946B0F0E9407
:10138000BC1DDC01CB0182199309A409B509803C7D
:10139000944DA140B10508F05CCC8091160390916A
:1013A0001703DC01ED91FC910084F185E02D099596
:1013B000892B29F36091160370911703CE0189964A
:1013C0000E94A6260DA5015064E771E0CE010196AA
:1013D0000E94351C2EE0AE014F5F5F4FBE01675D7E
:1013E0007F4F8DED92E00E940D0E082FCE010196E9
:1013F0000E94301CCE018996002351F10E94A91A47
:10140000E091DD02F091DE0221E02287668377839E
:10141000808791872F01B6E04B0E511C88E8A82EDB
:1014200083E0B82EF20161912F01BA82A982CE0128
:1014300001960E942A0DFFEFAF1ABF0A2CE8A216F0
:1014400023E0B20679F7CE0189960E94301C03C0D2
:101450000E94301C94CFE091DD02F091DE024AE060
:10146000BE01675D7F4F868197810E94A43564E647
:1014700071E0CE0101960E946835BE01675D7F4F25
:10148000CE0101960E94E13A62E671E0CE0101963A
:101490000E945D350E94BC1D1B012C0140E068E4E8
:1014A00071E08DED92E00E946B0F0E94BC1DDC018B
:1014B000CB0182199309A409B509803C944DA14040
:1014C000B10508F0C6CB8091160390911703DC019B
:1014D000ED91FC910084F185E02D0995892B29F38C
:1014E0006091160370911703CE01C0960E94A62644
:1014F000BE016F5F7F4F88A999A90E94EC3A892BA2
:1015000041F4CE01C0960E94301C992009F4A1CB71
:1015100005C0CE01C0960E94301CC7CF81E08093E9
:10152000F102111110C06CE872E0CE0101960E9428
:10153000351C40E061E0CE0101960E94E022CE0120
:1015400001960E94301C61E08DE792E00E94D52454
:1015500060E080E792E00E94D52460E089E692E0B6
:101560000E94D52460E08DE592E00E94D52481E0C0
:101570008983BE016F5F7F4F84E893E00E94D51E90
:101580001A821982BE016F5F7F4F84E993E00E9447
:10159000A2281982BE016F5F7F4F80E993E00E940D
:1015A000D51E64E68DED92E00E94E20D8DED92E095
:1015B0000E94DA10792C88CBBE01605D7F4FCE018E
:1015C00089960E943E1CBE01675D7F4FCE01019649
:1015D0000E943E1CCE0101960E942F24182F8111DB
:1015E0000DC0BE01675D7F4F8091DD029091DE02EC
:1015F0000E94BA0C11E08F3F09F410E0CE01019671
:101600000E94301C1093E102CE0189960E94301C8A
:10161000B3CCCE5BDF4F0FB6F894DEBF0FBECDBFAD
:10162000DF91CF911F910F91FF90EF90DF90CF90BE
:10163000BF90AF909F908F907F905F904F903F9022
:101640002F90089581E080933E020895CF92DF921B
:10165000EF92FF92CF93DF93EC016C897D8980E05C
:1016600090E00E941D366B017C018E89682F70E02E
:1016700080E090E00E941D369B01AC01C701B601DD
:101680000E947E3620E030E048EC52E40E940538AB
:101690000E9477387B8B6A8BBE016E5E7F4F80EB3A
:1016A00090E00E94A41E6C897D8980E090E00E94F9
:1016B0001D366B017C018F89682F70E080E090E01F
:1016C0000E941D369B01AC01C701B6010E947E3607
:1016D00020E030E048EC52E40E9405380E94773860
:1016E000798B688BBE01605F7F4F8CEA90E0DF9161
:1016F000CF91FF90EF90DF90CF900C94A41E0E94AA
:10170000BC1D60931A0370931B0380931C0390937A
:101710001D0381E08093190308950F931F93CF93C6
:10172000DF9300D000D000D0CDB7DEB78B0168EDDD
:1017300072E0CE0101960E94351CBE016F5F7F4FA3
:10174000C8010E94C51A182FCE0101960E94301CB4
:1017500081E0111101C080E026960FB6F894DEBF3B
:101760000FBECDBFDF91CF911F910F910895FB0167
:1017700084819581409770F0CB0160E070E00E9419
:10178000B41A282F880F330B2053310981E02A30F7
:10179000310508F080E00895CF93DF932FEF260FF7
:1017A000233680F4EC016E8BBC016A5E7F4F84EBC4
:1017B00090E00E94D51E8E85882331F0CE010E94D4
:1017C000260B02C080E001C081E0DF91CF91089537
:1017D000CF93DF93653680F0EC016F8BBC01695EBF
:1017E0007F4F88EB90E00E94D51E8E85882331F0D4
:1017F000CE010E94260B02C080E001C081E0DF9193
:10180000CF910895CF93DF93EC016B87BC01655FA7
:101810007F4F80E090E00E94D51E8B85882311F0D9
:1018200061E001C060E082E1DF91CF910C94501D36
:10183000CF93DF93EC01FB018081882361F08181EC
:10184000882319F04EE150E002C040E351E0CE01A0
:101850000E946A2605C06DEF72E0CE010E94351C21
:10186000CE01DF91CF910895DF92EF92FF920F9317
:101870001F93CF93DF9300D000D000D0CDB7DEB759
:10188000FC012081222361F17B018C0140E351E0C6
:10189000BC01CE0101960E946A26B701CE010196D5
:1018A0000E94FF1AD82ECE0101960E94301CD11042
:1018B00019C0B701CE0101960E943E1CF80180813B
:1018C000882341F0BE016F5F7F4FC8010E94ED1E6B
:1018D000182F01C010E0CE0101960E94301C03C0F9
:1018E00010E001C011E0812F26960FB6F894DEBFFC
:1018F0000FBECDBFDF91CF911F910F91FF90EF9061
:10190000DF900895FC01208121110C94ED1E80E0F0
:1019100008950F931F93CF93DF9300D000D000D092
:10192000CDB7DEB7FC0183818823B9F08B01BF01FD
:1019300040E650E0CE0101960E946A26BE016F5F2C
:101940007F4FC8010E94FF1A11E0811101C010E011
:10195000CE0101960E94301C01C010E0812F269616
:101960000FB6F894DEBF0FBECDBFDF91CF911F91B0
:101970000F910895CF92DF92EF92FF920F931F93F2
:10198000CF93DF9300D000D000D0CDB7DEB77C017D
:101990006B01FC018081811106C0F70184818823DD
:1019A00009F442C02FC0CE0101960E943E1CBE0128
:1019B0006F5F7F4FC7010E94340C182FCE01019634
:1019C0000E94301C111132C011E0F70180811817FC
:1019D00020F7FBE01F9FA0011124405D5E4FB7017F
:1019E000CE0101960E946A26B601CE0101960E94A0
:1019F000FF1A082FCE0101960E94301C011118C059
:101A00001F5FE3CFB601CE0101960E943E1CBE01CE
:101A10006F5F7F4FC7010E94890C182FCE0101967E
:101A20000E94301C111106C08FEF05C080E003C07A
:101A3000812F01C08EEF26960FB6F894DEBF0FBE41
:101A4000CDBFDF91CF911F910F91FF90EF90DF906D
:101A5000CF900895EF92FF920F931F93CF93DF9350
:101A60001F92CDB7DEB77C01FC0100811181C80156
:101A700069830E943C376981681719F0C8010E9488
:101A80004437C7010F90DF91CF911F910F91FF90C5
:101A9000EF900895CF93DF9300D0CDB7DEB7FC0170
:101AA000658F8EE090E09A838983CE0101960E9433
:101AB0002A0D0F900F90DF91CF9108950F931F93F0
:101AC000CF93DF93CDB7DEB72A970FB6F894DEBF7A
:101AD0000FBECDBF03E41EE020E030E0AE014F5F5B
:101AE0005F4F66EF72E00E94C3268823A1F06DE38A
:101AF00071E0CE0101960E9478356EE571E080E0DC
:101B000090E00E9478350E9418356AE070E00E94EB
:101B1000A638CB0102C080E090E02A960FB6F89478
:101B2000DEBF0FBECDBFDF91CF911F910F91089502
:101B30000F931F93CF93DF9300D0CDB7DEB78C0107
:101B4000DC01D9968D919C91DA97DC01ED91FC91A5
:101B50000680F781E02D69837A83099569817A810E
:101B6000FB0101900020E9F73197E61BF70B38974E
:101B700010F5F80117A6FB0101900020E9F7319755
:101B8000E61BF70BD801D096EC93C801C1960E94D2
:101B9000F53A0E94BC1DF8016683778380879187A0
:101BA00087A5E80FF11D81A9D8011B968C931B977F
:101BB00081E01A968C930F900F90DF91CF911F9137
:101BC0000F9108958F929F92AF92BF92CF92DF9222
:101BD000EF92FF92C62E0E94BC1D4B015C0184E671
:101BE000C89E600111240D2C000CEE08FF080E9415
:101BF000BC1DDC01CB0188199909AA09BB098C1508
:101C00009D05AE05BF0598F3FF90EF90DF90CF9054
:101C1000BF90AF909F908F900895EF92FF920F9397
:101C20001F93CF93DF9300D000D000D0CDB7DEB7A5
:101C30007B01122FBA01C7010E94C51A8823A9F09F
:101C4000202F30E0412F50E0B701CE0101960E94D5
:101C50006D1CBE016F5F7F4FC7010E94F71BCE0155
:101C600001960E94301C81E001C080E026960FB6EC
:101C7000F894DEBF0FBECDBFDF91CF911F910F91C2
:101C8000FF90EF9008958F929F92AF92BF92CF9264
:101C9000DF92EF92FF920F93CF93DF93CDB7DEB732
:101CA0002C970FB6F894DEBF0FBECDBF5C016B0161
:101CB000FB01048101506DE371E0CE0107960E94A3
:101CC000581CF60184819581892B69F08080918070
:101CD0006F817885C4010E94193B009721F07C0137
:101CE000E818F90803C0EE24EA94FE2C61E571E0DF
:101CF000CE0101960E94581C21E02E0DAE014F5FCF
:101D00005F4FB601C5010E940D0E082FCE0101964E
:101D10000E94301CCE0107960E94301C802F2C960A
:101D20000FB6F894DEBF0FBECDBFDF91CF910F91FC
:101D3000FF90EF90DF90CF90BF90AF909F908F90EB
:101D40000895CF92DF92EF92FF920F93CF93DF939C
:101D500000D000D000D0CDB7DEB76C017B01FB0115
:101D60000481035067E571E0CE0101960E94581C82
:101D700025E0AE014F5F5F4FB701C6010E940D0E17
:101D8000082FCE0101960E94301C802F26960FB698
:101D9000F894DEBF0FBECDBFDF91CF910F91FF90C2
:101DA000EF90DF90CF900895CF92DF92EF92FF9265
:101DB0000F93CF93DF9300D000D000D0CDB7DEB724
:101DC0006C017B01FB010481015063EE72E0CE01E6
:101DD00001960E94351C26E0AE014F5F5F4FB701B0
:101DE000C6010E940D0E082FCE0101960E94301CE4
:101DF000802F26960FB6F894DEBF0FBECDBFDF91C1
:101E0000CF910F91FF90EF90DF90CF900895CF93F7
:101E1000DF93EC018E89811112C061E084E00E94A1
:101E2000501D81E08E8B0E94BC1D698F7A8F8B8F35
:101E30009C8F61E0CE01DF91CF910C94E20D0E9466
:101E4000BC1D698F7A8F8B8F9C8FDF91CF91089506
:101E5000EF92FF920F931F93CF93DF9300D000D0A8
:101E600000D0CDB7DEB78C017B016EE571E00E943A
:101E7000581CD701D9968D919C91DA97DC01ED9190
:101E8000FC910084F185E02D099518161906ACF433
:101E9000C7010E94070FF70161AD72ADCE01019637
:101EA0007C010E94A6260E151F0521F0B701C8016E
:101EB0000E94F71BC7010E94301CC80126960FB66E
:101EC000F894DEBF0FBECDBFDF91CF911F910F9170
:101ED000FF90EF900895FF920F931F93CF93DF939E
:101EE0008C01EB01F42E0E94070F2097C9F0FE0130
:101EF00064912196662331F0F80181AD92AD0E9484
:101F0000B31CF5CFFF2061F06CE571E0F80181AD05
:101F100092ADDF91CF911F910F91FF900C94BA1C5D
:101F2000DF91CF911F910F91FF900895CF93DF9391
:101F3000EC0189AD9AADDC01ED91FC910680F78151
:101F4000E02D099541E06BEE72E0CE010E946B0F2F
:101F500089AD9AADDC01ED91FC910680F781E02D11
:101F6000DF91CF910994EF92FF921F93CF93DF936C
:101F70001F92CDB7DEB77C01162FDC01D9968D916B
:101F80009C91DA97DC01ED91FC910680F781E02DC0
:101F900049830995C7010E94960F0E94BC1DF70155
:101FA000668377838087918781E082874981442394
:101FB00029F080AB17A611AB12AA10A7D7011B9668
:101FC0001C930F90DF91CF911F91FF90EF90089598
:101FD000FC01258D293419F441E00C94B30F0895C8
:101FE000CF92DF92FF920F931F93CF93DF93CDB7E2
:101FF000DEB762970FB6F894DEBF0FBECDBF8C017F
:1020000081E0D8011C968C93C8010E94070FF8014B
:1020100081AD92ADDC01ED91FC910680F781E02D60
:1020200009956FE571E0CE0107960E94581CF801F2
:10203000F1A0C080D180FF2051F16EE571E0CE01AA
:102040000D960E94581CD6018C91F816B0F4BBE096
:10205000FB9EA0011124405D5E4FB601CE010196AA
:102060000E946A26BE016F5F7F4FCE010D960E94CF
:10207000F71BCE0101960E94301CBE01635F7F4FAB
:10208000CE0107960E94B11BCE010D960EC0B6017F
:10209000CE0101960E94180CBE016F5F7F4FCE01EA
:1020A00007960E94B11BCE0101960E94301C6BE383
:1020B000CE0107960E948F1BBE01695F7F4FCE0144
:1020C00001960E943E1CBE016F5F7F4FC8010E94B7
:1020D000EC25CE0101960E94301C61E0C8010E94EF
:1020E000E20D41E06AEE72E0C8010E946B0F0E94AF
:1020F000BC1DF801608B718B828B938B82E5858F81
:102100008FE4868FCE0107960E94301C62960FB630
:10211000F894DEBF0FBECDBFDF91CF911F910F911D
:10212000FF90DF90CF9008950F931F93CF93DF938D
:10213000EC01E881F9818081811102C011E034C095
:10214000858D8E34D9F38BAD8823C1F38AA181119B
:1021500003C098A5961791F39D8D9E3421F59E8D11
:102160009E3409F51AA51123F9F081111CC0062F20
:1021700019A28585882351F00E94BC1D6BA37CA306
:102180008DA39EA30FA381E08AA30EC068A7858DAF
:102190008E34A1F281E089A7CE010E94070FCE0103
:1021A0000E94F00F01C010E0812FDF91CF911F91AD
:1021B0000F9108950C94003C089561E081E10C9426
:1021C000501D0F931F93CF93DF93EC0141110EC06D
:1021D0008A8981110BC0662301F16DE28A819B819E
:1021E000DF91CF911F910F910C94E80F022F162FC2
:1021F000198E61E08DE00E94501D0E94BC1D6FA3EE
:1022000078A789A79AA781E08EA31A8A60E080E167
:102210000E94501D1E87088B1D86DF91CF911F9154
:102220000F910895FC01A081B1811C968C91918938
:10223000882321F0992321F083890895892F089517
:1022400081E008951F93CF93DF93EC01162F1C8A32
:102250008B89882329F0CE010E94121181110FC0B1
:102260008A819B81112331F06EE4DF91CF911F9120
:102270000C94E80F6EE40E9494108FAB25C08A89FD
:1022800081111CC0F89460E08DE00E94501D60E058
:102290008CE00E94501D0E94DD100E94BC1D69A3AD
:1022A0007AA38BA39CA381E08F8F8A8B61E080E16E
:1022B0000E94501D1C861D861F8706C0112321F019
:1022C0006BE28A819B81D1CFDF91CF911F910895DD
:1022D0001F93CF93DF93EC011B89112331F00E94F0
:1022E0001211882311F081E00BC0CE010E9412115F
:1022F000882321F0111104C084E002C082E000C0F4
:10230000DF91CF911F910895CF93DF93FC01228934
:10231000211110C0EC010E941211882359F08B8901
:10232000882341F081E08C8B0E94BC1D6D8B7E8BDD
:102330008F8B988FDF91CF9108951F93CF93DF9369
:10234000EC01162FE881F981838581110CC08A89FF
:1023500081111BC08B898823C1F061E08DE00E9450
:10236000501D1C8A12C08EA181110FC08B89882339
:1023700061F060E08DE00E94501D112331F0CE012C
:10238000DF91CF911F910C948411DF91CF911F9118
:102390000895EF92FF920F931F93CF93DF937B01EA
:1023A0008A01E901F8948AE00E94271D31E0892B17
:1023B00009F430E0F70130838BE00E94271D31E003
:1023C000892B09F030E0F801308383E00E94271D5B
:1023D00031E0892B09F430E038837894DF91CF9194
:1023E0001F910F91FF90EF9008950F931F93CF933C
:1023F000DF9300D01F92CDB7DEB78C019E012F5F17
:102400003F4FAE014E5F5F4FBE016D5F7F4F0E9439
:10241000C9119A81F801928B992311F061E001C0F2
:1024200060E080E10E94501D8A810F900F900F9014
:10243000DF91CF911F910F9108951F920F920FB6C8
:102440000F9211248F939F9381E08093CA01909102
:10245000E1019F5F9093E1019091E1019E3250F084
:102460008093CC019091FE01911102C08093CB0129
:102470001092E1019F918F910F900FBE0F901F90CE
:1024800018951F920F920FB60F9211240F900FBE46
:102490000F901F9018951F920F920FB60F92112454
:1024A0008F9381E080933E028F910F900FBE0F902B
:1024B0001F9018951F920F920FB60F9211248F93B1
:1024C00081E080933F028F910F900FBE0F901F907D
:1024D0001895E0E6F0E098E1908380830895BF923C
:1024E000CF92DF92EF92FF920F931F93CF93DF93E0
:1024F000CDB7DEB768970FB6F894DEBF0FBECDBF7D
:102500007C01C62ED42EB22E6093F102BC01CE0106
:1025100043960E943E1C63E274E0CE0101960E9445
:10252000351CBE016F5F7F4FC7010E94C51A182F6F
:10253000CE0101960E94301C112319F00E944229FD
:1025400034C66AE174E0CE0101960E94351CBE01DA
:102550006F5F7F4FC7010E94C51A182FCE010196E9
:102560000E94301C112311F1E090DD02F090DE0298
:10257000CC2019F0F701108203C081E0F7018083BD
:10258000B7018CE291E00E94D51EF7011182B701DC
:102590006F5F7F4F8AE190E00E94D51EF7011282A3
:1025A000B7016E5F7F4F86E190E0FDC562E174E0A8
:1025B000CE0101960E94351CBE016F5F7F4FC7019F
:1025C0000E94C51A182FCE0101960E94301C1123BB
:1025D00009F46BC060E08091DD029091DE020E9400
:1025E000020C6DE78091DD029091DE020E94E80B03
:1025F0006BE48091DD029091DE020E94CC0BE091B1
:10260000DD02F091DE021686BF01625F7F4F84EA31
:1026100090E00E94D51EE091DD02F091DE02158669
:10262000BF01635F7F4F8AE390E00E94D51EE09177
:10263000DD02F091DE021486BF01645F7F4F86E306
:1026400090E00E94D51EE091DD02F091DE02148E32
:10265000BF01645E7F4F8CE090E00E94D51E63E472
:102660008091DD029091DE020E944A0DE091DD0230
:10267000F091DE0282E390E0918F808FBF01685E6F
:102680007F4F84E090E00E94A41EE091DD02F09173
:10269000DE0282E090E0938F828FBF01665E7F4F03
:1026A00082E190E00E94A41E80C56EE074E0CE013D
:1026B00001960E94351CBE016F5F7F4FC7010E94CB
:1026C000C51A182FCE0101960E94301C1123E9F182
:1026D000E090DD02F090DE026EE571E0CE010D9635
:1026E0000E94581C10E0F70180811817F0F4FBE0FD
:1026F0001F9FA0011124405D5E4FB701CE010196DE
:102700000E946A26BE016F5F7F4FCE010D960E9428
:10271000B11BCE0101960E94301C6DE571E0CE0127
:102720000D960E94A21B1F5FDECF6EE571E0CE0109
:102730000D960E94E01A882309F44FC564E074E006
:10274000CE010D960E94B81B48C56EEF73E0CE0116
:1027500001960E94351CBE016F5F7F4FC7010E942A
:10276000C51A182FCE0101960E94301C112329F0A2
:102770008DED92E00E94DA1059C56AEF73E0CE0148
:1027800001960E94351CBE016F5F7F4FC7010E94FA
:10279000C51A182FCE0101960E94301C112319F082
:1027A0000E94C9282FC563EF73E0CE0101960E94F5
:1027B000351CBE016F5F7F4FC7010E94C51A182FDD
:1027C000CE0101960E94301C112311F061E014C06B
:1027D0006BEE73E0CE0101960E94351CBE016F5F67
:1027E0007F4FC7010E94C51A182FCE0101960E9483
:1027F000301C112379F060E08091DD029091DE02BF
:102800000E94020C61E08091DF029091E0020E9440
:102810009D11CBC465EE73E0CE0101960E94351C7C
:10282000BE016F5F7F4FC7010E94C51A182FCE01EE
:1028300001960E94301C112339F0E091DD02F091E5
:10284000DE0281E0848718C06EED73E0CE01019650
:102850000E94351CBE016F5F7F4FC7010E94C51AE1
:10286000182FCE0101960E94301C112359F0E091DF
:10287000DD02F091DE021486BF01645F7F4F86E3C4
:1028800090E091C468ED73E0CE0101960E94351C82
:10289000BE016F5F7F4FC7010E94C51A182FCE017E
:1028A00001960E94301C112339F0E091DD02F09175
:1028B000DE0281E0848F18C061ED73E0CE010196E5
:1028C0000E94351CBE016F5F7F4FC7010E94C51A71
:1028D000182FCE0101960E94301C112359F0E0916F
:1028E000DD02F091DE02148EBF01645E7F4F8CE04A
:1028F00090E059C46CEC73E0CE0101960E94351C47
:10290000BE016F5F7F4FC7010E94C51A182FCE010D
:1029100001960E94301C1123E1F0F701848195811A
:10292000059708F483C464E070E0C7010E94B41AFC
:10293000982F9D7F913429F0843519F08E3409F059
:1029400075C4682F8091DD029091DE020E944A0DCD
:102950002CC467EC73E0CE0101960E94351CBE01C9
:102960006F5F7F4FC7010E94C51A182FCE010196D5
:102970000E94301CF7011123D9F0848195810597BD
:1029800008F454C464E070E0C7010E94B41A90EDEA
:10299000980F8153833008F049C4E091DD02F09133
:1029A000DE029787BF01615F7F4F8CEB90E0FBC336
:1029B0000481015063EC73E0CE0101960E94351C46
:1029C00023E0AE014F5F5F4FB7018DED92E00E94B3
:1029D0000D0E182FCE0101960E94301C1123A1F07C
:1029E000C7010E94B024882309F420C4C7010E94B3
:1029F000A91A6936710508F419C48091DD02909115
:102A0000DE020E94E80BD1C3F701048101506EEB96
:102A100073E0CE0101960E94351C24E0AE014F5FA9
:102A20005F4FB7018DED92E00E940D0E182FCE0181
:102A300001960E94301C1123B9F0C7010E94B024F6
:102A4000882309F4F3C3C7010E94A91A9B012150EE
:102A500031092136310508F0E9C38091DD029091FA
:102A6000DE020E94CC0BA1C366E671E0CE010196A6
:102A70000E94581CBE016F5F7F4FC7010E94C51A9C
:102A8000082FCE0101960E94301C002309F46FC06C
:102A900064E871E0CE010D960E94581C0E949326B6
:102AA000BC01CE010D960E944E336CE671E0CE0162
:102AB0000D960E94A21BE091DD02F091DE02648976
:102AC0007589CE010D960E944E3360E771E0CE010C
:102AD0000D960E94A21BE091DD02F091DE0260895A
:102AE0007189CE010D960E944E3364E771E0CE01EC
:102AF0000D960E94A21BE091DD02F091DE02628938
:102B00007389CE010D960E944E3368E771E0CE01C5
:102B10000D960E94A21BE091DD02F091DE02678912
:102B2000CE010D960E947E336DE771E0CE010D96C9
:102B30000E94A21BE091DD02F091DE026689CE01C7
:102B40000D960E947E33BE01635F7F4FCE010196DA
:102B50000E943E1C40E061E0CE0101960E94E0220E
:102B6000CE0101960E94301CCE010D96D5C267EBB6
:102B700073E0CE0101960E94351CBE016F5F7F4F4E
:102B8000C7010E94C51A082FCE0101960E94301C71
:102B9000002309F49EC001EA1EE020E030E0AE010F
:102BA0004F5F5F4F60EB73E08DED92E00E94C326B4
:102BB000882341F0CE0101960E941835F82EFF0CB3
:102BC000F80E02C0FF24FA9465E08DED92E00E94B9
:102BD000E20D03E41EE020E030E0AE014F5F5F4F06
:102BE00069EA73E08DED92E00E94C326882351F0DC
:102BF0006DE371E0CE0101960E9478350E94183590
:102C0000182F01C01FEFC090DF02D090E002C60174
:102C10000E946811082FF601E28868E473E0CE0193
:102C20000D960E94351CE091DD02F091DE02838555
:102C3000811106C060E473E0CE010D960E94B81BBE
:102C400062E871E0CE010D960E94A21B013029F0CE
:102C5000023031F060E373E005C064E273E002C06B
:102C600066E373E0CE010D960E94311B69E273E0CA
:102C7000CE010D960E94311BE11003C069E173E0A3
:102C800002C06FE173E0CE010D960E94311B1F3F21
:102C900059F062E173E0CE010D960E94311B612F65
:102CA000CE010D960E947E33FFEFFF1659F068E0CB
:102CB00073E0CE010D960E94311B6F2DCE010D9653
:102CC0000E947E3340E061E0CE010D960E94E0223A
:102CD00095C264EA73E0CE0101960E94351CBE01E4
:102CE0006F5F7F4FC7010E94C51A882329F0CC204F
:102CF00011F011E001C01B2DCE0101960E94301C85
:102D0000112359F0E091DD02F091DE0282818823E7
:102D100009F48CC281E0818318C06EE973E0CE01B2
:102D200001960E94351CBE016F5F7F4FC7010E9454
:102D3000C51A182FCE0101960E94301C112359F09C
:102D4000E091DD02F091DE021182BF016F5F7F4FE3
:102D50008AE190E028C2F7010481015068E973E03C
:102D6000CE0101960E94351C25E0AE014F5F5F4FFA
:102D7000B7018DED92E00E940D0E182FCE01019645
:102D80000E94301C1123F1F0C7010E94B024882357
:102D900009F44CC2C7010E94A91A8B016630710563
:102DA00010F005E010E0E091DD02F091DE02058711
:102DB000BF01635F7F4F8AE390E00E94D51E62E906
:102DC00073E07BC0F7010481015069E873E0CE0134
:102DD00001960E94351C28E0AE014F5F5F4FB7019E
:102DE0008DED92E00E940D0E182FCE0101960E94EB
:102DF000301C112329F1C7010E94B024882309F453
:102E000015C2C7010E94A91A8B016230710530F00A
:102E1000613B744028F000EB14E002C002E010E0D7
:102E2000E091DD02F091DE02138F028FBF01665E3A
:102E30007F4F82E190E00E94A41E60E873E03DC0F5
:102E4000F7010481015067E773E0CE0101960E940B
:102E5000351C28E0AE014F5F5F4FB7018DED92E06A
:102E60000E940D0E182FCE0101960E94301C1123D6
:102E700071F1C7010E94B024882309F4D7C1C701AA
:102E80000E94A91A8B016233710530F061387047D6
:102E900028F000E810E702C002E310E0E091DD0254
:102EA000F091DE02118F008FBF01685E7F4F84E0DA
:102EB00090E00E94A41E6EE673E0CE0143960E944D
:102EC000B81BB801CE0143960E944E336EC1F70184
:102ED000048101506AE673E0CE0101960E94351C20
:102EE00023E0AE014F5F5F4FB7018DED92E00E948E
:102EF0000D0E182FCE0101960E94301C112319F1DE
:102F00006EE573E0CE010D960E94351CB701CE012F
:102F10000D960E94B11B6FE471E0CE010D960E94E8
:102F2000A21B81E08093F202BE01635F7F4FCE015E
:102F300001960E943E1CBE016F5F7F4F8DED92E0B7
:102F40000E94EC2557C167E871E0CE0101960E940E
:102F5000581C0CE022E0AE014F5F5F4FB7018DEDD2
:102F600092E00E940D0E182FCE0101960E94301C97
:102F7000112309F447C0C7010E94B024882309F433
:102F800055C10091DD021091DE02F801808182308E
:102F900008F44CC1B701C8010E94BA0CC82E8FEFCB
:102FA0008C0D8D3F08F042C18BE0B82E2C2D30E007
:102FB000F8019081492F50E04150510924173507FD
:102FC000F4F42F5F3F4FB29E7001B39EF00C1124BA
:102FD000A701405D5E4FB801CE0101960E946A26AE
:102FE000B7016B5D7E4FAE014F5F5F4FC8010E941E
:102FF000FD32CE0101960E94301CC394D7CF915070
:10300000908348C06BE871E0CE0101960E94581C85
:103010000CE022E0AE014F5F5F4FB7018DED92E013
:103020000E940D0E182FCE0101960E94301C112314
:10303000A9F1C7010E94B024882309F4F7C00091C8
:10304000DD021091DE02F80180818F3009F4EEC0BC
:10305000B701C8010E94BA0C8F3F09F0E7C0B70161
:10306000CE0101960E943E1CF8016081FBE06F9F3B
:10307000B0011124605D7E4FAE014F5F5F4FC8010C
:103080000E94FD32CE0101960E94301CF801808121
:103090008F5F8083B8018CE291E085C06AE871E0BF
:1030A000CE0101960E94581C0DE023E0AE014F5F57
:1030B0005F4FB7018DED92E00E940D0E182FCE01EB
:1030C00001960E94301C112351F1C7010E94B024C7
:1030D000882309F4ABC00091DD021091DE02F801F3
:1030E0008081882309F4A2C081E08283B8016E5FE9
:1030F0007F4F86E190E00E94D51EB701CE01019678
:103100000E943E1CAE014F5F5F4F6EE170E0C80150
:103110000E94FD32CE0101960E94301C46C06EE82E
:1031200071E0CE0101960E94581C0DE023E0AE0133
:103130004F5F5F4FB7018DED92E00E940D0E182F8B
:10314000CE0101960E94301C112309F46FC0C70103
:103150000E94B024882309F469C00091DD02109117
:10316000DE0281E0F8018383B8016D5F7F4F88E55F
:1031700090E00E94D51EB701CE0101960E943E1C30
:10318000AE014F5F5F4F60E670E0C8010E94FD3204
:10319000CE0101960E94301CF8011482B8016C5FC8
:1031A0007F4F8CE590E00E94D51E11E0D1102AC01F
:1031B00068E573E0CE010D960E94351C111106C022
:1031C0006FE473E0CE010D960E94B81BBE016D5EE8
:1031D0007F4FCE010D960E94B11BBE01635F7F4FF2
:1031E000CE0101960E943E1C40E061E0CE010196B6
:1031F0000E94E022CE0101960E94301CCE010D9665
:103200000E94301CCE0143960E94301C68960FB677
:10321000F894DEBF0FBECDBFDF91CF911F910F910C
:10322000FF90EF90DF90CF90BF90089510E0BECF59
:103230000895CF92DF92EF92FF920F931F93CF9357
:10324000DF936C017A018B01C0E0D0E0CE15DF0581
:1032500089F0D8016D918D01D601ED91FC9101901D
:10326000F081E02DC6010995892B11F47E0102C081
:103270002196ECCFC701DF91CF911F910F91FF9065
:10328000EF90DF90CF900895089580E090E008954A
:10329000FC01538D448D252F30E0842F90E0821B5C
:1032A000930B541710F0CF96089501970895FC01E1
:1032B000918D828D981761F0828DDF01A80FB11D6D
:1032C0005D968C91928D9F5F9F73928F90E0089591
:1032D0008FEF9FEF0895FC01918D828D981731F04B
:1032E000828DE80FF11D858D90E008958FEF9FEF9F
:1032F0000895FC01918D228D892F90E0805C9F4F75
:10330000821B91098F739927089580E492E00E94AF
:10331000791921E0892B09F420E0822F0895FC011E
:10332000848DDF01A80FB11DA35ABF4F2C91848D4E
:1033300090E001968F739927848FA689B7892C9383
:10334000A089B1898C9180648C93938D848D98131E
:1033500006C00288F389E02D80818F7D80830895E7
:10336000EF92FF920F931F93CF93DF93EC0181E0D5
:10337000888F9B8D8C8D981305C0E889F989808191
:1033800085FD24C0F62E0B8D10E00F5F1F4F0F73CD
:103390001127E02E8C8DE8120CC00FB607FCFACF77
:1033A000E889F989808185FFF5CFCE010E948F19C8
:1033B000F1CF8B8DFE01E80FF11DE35AFF4FF08234
:1033C0000B8FEA89FB898081806207C0EE89FF89C3
:1033D0006083E889F98980818064808381E090E05E
:1033E000DF91CF911F910F91FF90EF900895CF93B0
:1033F000DF93EC01888D8823C9F0EA89FB898081FD
:1034000085FD05C0A889B9898C9186FD0FC00FB6CE
:1034100007FCF5CF808185FFF2CFA889B9898C910F
:1034200085FFEDCFCE010E948F19E7CFDF91CF91BD
:10343000089580E090E0892B29F00E948519811180
:103440000C9400000895833081F028F4813099F0C5
:103450008230A1F008958730A9F08830B9F0843027
:10346000D1F4809180008F7D03C0809180008F77A0
:1034700080938000089584B58F7702C084B58F7DD6
:1034800084BD08958091B0008F7703C08091B00013
:103490008F7D8093B000089508950E94CB3ACF931A
:1034A000DF93EC0188819981009711F00E946939BE
:1034B000198218821D821C821B821A82DF91CF9191
:1034C00008950F931F93CF93DF93EC018881998127
:1034D000009729F02A813B812617370788F48B0152
:1034E0006F5F7F4F0E94013A009761F09983888354
:1034F0001B830A832C813D81232B11F4FC01108254
:1035000081E001C080E0DF91CF911F910F9108957C
:10351000EF92FF920F931F93CF93DF93EC017B0108
:103520008A01BA010E94611A811104C0CE010E9471
:103530004F1A07C01D830C83B701888199810E94AF
:10354000F53ACE01DF91CF911F910F91FF90EF904F
:103550000895FC0180819181009711F00C9436351B
:1035600060E070E0CB010895FC0124813581621791
:10357000730748F480819181009729F0FC01E60FE0
:10358000F71F8081089580E00895FB0144815581F3
:10359000FC01248135812417350778F080819181E1
:1035A000009759F0FB01608171816115710529F067
:1035B0000E94FC3A21E0892B09F020E0822F089537
:1035C000FC0124813581232B31F421E06115710543
:1035D000A1F0FB0108C0FC0180819181611571059A
:1035E00031F421E0FC018081882339F005C00E947C
:1035F000EC3A21E0892B09F020E0822F0895FC01AC
:1036000024813581FB01448155812417350721F53B
:10361000FC0180819181FB0160817181009719F02B
:1036200061157105A1F46115710549F0232BB1F005
:10363000FB01808190E09195819591090AC00097E6
:1036400069F0232B59F0FC01808190E002C00E94B8
:10365000EC3A21E0892B19F020E001C021E0822F13
:103660000895EF92FF920F931F93CF93DF9361150D
:10367000710511F480E01EC08B01EC01CB010E94AA
:103680006F350097B1F02C813D817C01E20EF31E75
:10369000B701CE010E94611A882361F32881398124
:1036A0008C819D81B801820F931F0E946835FD8235
:1036B000EC8281E0DF91CF911F910F91FF90EF900D
:1036C0000895EF92FF920F931F93CF93DF93FC0126
:1036D000248135816115710511F480E019C041150F
:1036E0005105A9F07B01EC018A01020F131FB801FB
:1036F0000E94611A882389F3288139818C819D81F8
:10370000B701820F931F0E94F53A1D830C8381E05D
:10371000DF91CF911F910F91FF90EF900895CF937C
:10372000DF9300D0CDB7DEB769831A8241E050E065
:10373000BE016F5F7F4F0E94611B0F900F90DF9162
:10374000CF9108956115710551F0FB0101900020A2
:10375000E9F73197AF01461B570B0C94611B80E0D2
:103760000895FB0144815581608171810C94611B36
:10377000EF92FF920F931F93CF93DF93EC018B0196
:103780006115710551F0CB010E946F357C01BC01C0
:10379000CE010E94611A811104C0CE010E944F1A0D
:1037A00007C0FD82EC82B801888199810E9468354A
:1037B000CE01DF91CF911F910F91FF90EF9008956F
:1037C000CF93DF93EC016115710559F0FB01019076
:1037D0000020E9F73197AF01461B570B0E94881A6A
:1037E00002C00E944F1ACE01DF91CF9108950F932E
:1037F0001F93CF93DF938C01EB01FC0180819181BA
:103800000097B1F0688179816115710579F0428185
:1038100053812C813D814217530740F00E94F53AB5
:103820008C819D81F8019583848313C00E9469393E
:1038300088819981F801918380838A819B81938318
:1038400082838C819D8195838483198218821B8257
:103850001A821D821C82DF91CF911F910F910895D2
:10386000FC01808191810C946939FC0111821082E4
:1038700013821282158214820C94B81BFB01DC01A6
:1038800011961C921E9213961C921E9212971596D8
:103890001C921E9214978617970749F060817181D8
:1038A0006115710521F0448155810C94881A0895A1
:1038B000FC0111821082138212821582148261151A
:1038C000710551F0FB0101900020E9F73197AF013C
:1038D000461B570B0C94881A0895BF92CF92DF9223
:1038E000EF92FF920F931F93CF93DF937C016B01B5
:1038F0008A01E9012417350720F4812F8901C42F9B
:10390000D82F6EE571E0C7010E94581CD6011496AD
:103910008D919C91159708171907D0F48C179D0766
:1039200008F4EC01D601ED91FC911197EC0FFD1F0D
:10393000B08010824D915C91BA01600F711FC70178
:103940000E94E01BD601ED91FC91EC0FFD1FB082AF
:10395000C701DF91CF911F910F91FF90EF90DF9002
:10396000CF90BF900895DC01ED91FC910190F08122
:10397000E02D09946115710579F0FB01019000209B
:10398000E9F73197AF01461B570BDC01ED91FC9134
:103990000280F381E02D099480E090E008951F9269
:1039A0000F920FB60F9211242F933F934F935F9373
:1039B0006F937F938F939F93AF93BF93EF93FF93F7
:1039C00080E492E00E948F19FF91EF91BF91AF9137
:1039D0009F918F917F916F915F914F913F912F9127
:1039E0000F900FBE0F901F9018951F920F920FB659
:1039F0000F9211242F938F939F93EF93FF93E09156
:103A00005002F09151028081E0915602F0915702EC
:103A100082FD12C09081809159028F5F8F73209137
:103A20005A02821751F0E0915902F0E0E05CFD4F3C
:103A3000958F8093590201C08081FF91EF919F91F2
:103A40008F912F910F900FBE0F901F901895CF93CD
:103A5000DF93282F30E0F901E259FB4F8491F901FF
:103A6000E65AFB4FD491F901EA5BFB4FC491CC239A
:103A700091F081110E94231AEC2FF0E0EE0FFF1F4E
:103A8000E45CFB4FA591B491EC91ED2381E090E0D3
:103A900021F480E002C080E090E0DF91CF910895B2
:103AA0001F93CF93DF93282F30E0F901E259FB4FAA
:103AB0008491F901E65AFB4FD491F901EA5BFB4F7F
:103AC000C491CC23C9F0162F81110E94231AEC2F28
:103AD000F0E0EE0FFF1FEE5CFB4FA591B4918FB7A6
:103AE000F894111105C09C91ED2FE095E92302C0D7
:103AF000EC91ED2BEC938FBFDF91CF911F91089547
:103B0000CF93DF9390E0FC01E65AFB4F2491FC0138
:103B1000EA5BFB4F8491882361F190E0880F991F45
:103B2000FC01E85DFB4FC591D491FC01EE5CFB4FBD
:103B3000A591B491611109C09FB7F894888120952F
:103B400082238883EC912E230BC0623061F49FB7EF
:103B5000F8943881822F809583238883EC912E2BD3
:103B60002C939FBF06C08FB7F894E8812E2B288333
:103B70008FBFDF91CF9108952FB7F8946091E7013F
:103B80007091E8018091E9019091EA012FBF0895B9
:103B90000F931F93CF93DF93EC010E94BC1D6887A6
:103BA00079878A879B87E881F9810284F385E02DF4
:103BB000CE01099597FF17C00E94BC1D0885198585
:103BC0002A853B85DC01CB01801B910BA20BB30B3B
:103BD0000C811D812E813F8180179107A207B307B9
:103BE00010F38FEF9FEFDF91CF911F910F91089509
:103BF0001F920F920FB60F9211242F933F938F9322
:103C00009F93AF93BF938091E7019091E801A091BA
:103C1000E901B091EA013091E60126E0230F2D374A
:103C200020F40296A11DB11D05C029E8230F0396BB
:103C3000A11DB11D2093E6018093E7019093E80157
:103C4000A093E901B093EA018091E2019091E30130
:103C5000A091E401B091E5010196A11DB11D8093F1
:103C6000E2019093E301A093E401B093E501BF91D9
:103C7000AF919F918F913F912F910F900FBE0F9019
:103C80001F9018951F920F920FB60F9211242F9329
:103C90003F934F935F936F937F938F939F93AF93D4
:103CA000BF93EF93FF93E0910201F0910301099517
:103CB000FF91EF91BF91AF919F918F917F916F9104
:103CC0005F914F913F912F910F900FBE0F901F90DA
:103CD00018951F920F920FB60F9211242F933F93B6
:103CE0004F935F936F937F938F939F93AF93BF9304
:103CF000EF93FF93E0910001F09101010995FF918D
:103D0000EF91BF91AF919F918F917F916F915F9153
:103D10004F913F912F910F900FBE0F901F901895CC
:103D20000F931F93CF93DF938C01EB010E943C37DD
:103D30008883C80101960E943C378983CE01DF91B8
:103D4000CF911F910F910895EF92FF920F931F93C0
:103D5000CF93DF9300D0CDB7DEB78C017B01FB01A1
:103D600060819A838983CE0101960E942A0DF70112
:103D700061810F5F1F4F1A830983CE0101960E9454
:103D80002A0DC7010F900F90DF91CF911F910F91D6
:103D9000FF90EF900895CF93DF93EB010E943C37A3
:103DA0008883CE01DF91CF9108950F931F93CF9316
:103DB000DF9300D0CDB7DEB78B01FB0160819A8322
:103DC0008983CE0101960E942A0DC8010F900F90A1
:103DD000DF91CF911F910F9108950F931F93CF9370
:103DE000DF9300D000D000D0CDB7DEB7FC018281D8
:103DF0008823B9F08B01BF014EE150E0CE0101965E
:103E00000E946A26BE016F5F7F4FC8010E94FF1AA1
:103E100011E0811101C010E0CE0101960E94301C1A
:103E200001C010E0812F26960FB6F894DEBF0FBEBA
:103E3000CDBFDF91CF911F910F910895CF92DF9267
:103E4000EF92FF920F931F93CF93DF936C01EB01DF
:103E5000042F0E943C37888311E08823C9F0101793
:103E600088F4E12EF12CC7018C0D9D1D811524E0F5
:103E7000920740F40E943C37FE01EE0DFF1D808347
:103E80001F5FEBCF112321F0C10FD11D21971882A5
:103E900081E0DF91CF911F910F91FF90EF90DF9024
:103EA000CF9008952F923F924F925F926F927F92A0
:103EB0008F929F92AF92BF92CF92DF92EF92FF923A
:103EC0000F931F93CF93DF93CDB7DEB728970FB62D
:103ED000F894DEBF0FBECDBF60E070E00E94B41A60
:103EE000813351F40E94DD2561E08091DF029091E1
:103EF000E0020E942211F9C1823361F40E94DD25A3
:103F000020E040E061E08091DF029091E0020E94B9
:103F1000E110EBC1833371F50E94DD250091DF02D2
:103F20001091E002C8010E946811843011F48CE401
:103F30000EC0823011F481E40AC0813049F4C80116
:103F40000E94F511882311F08BE201C08FE589836F
:103F5000D801ED91FC918385882311F089E201C09D
:103F60008BE58A831B82BE016F5F7F4FF8018281E0
:103F70009381D6C0803309F043C08091EA02882340
:103F8000D9F10091DF021091E002D80152968C9194
:103F90005297882309F49CC15F968C915F97811199
:103FA00097C190968C919097811192C196968C9121
:103FB00081118EC1C8010E941211882309F488C1A1
:103FC0000E9493266C01D801ED90FC90C29708F0F6
:103FD0000DC1F7011686B701625F7F4F84EA90E05A
:103FE0000E94D51E69E5D80112968D919C91139778
:103FF0000E94E80F0E94DD2581E08093EA0275C1EE
:10400000873309F097C00E94DD250091DF021091EF
:10401000E002D80152968C91882309F484C00E9452
:1040200093263C01F801828193810E945E0D4C0130
:10403000D801ED91FC91B784B1E0BB1649F0E2E004
:10404000BE120DC0C12CD12CE12C20E4F22E0FC0E9
:10405000C12CD12C90E8E92E9FE3F92E08C081E70E
:10406000C82E8DE3D82E82E3E82E80E4F82EB3012B
:1040700080E090E00E941D362B013C01B40180E0FD
:1040800090E00E941D369B01AC01C301B2010E9469
:104090007E3620E030E040E256E40E940538A70179
:1040A00096010E947E366B017C0120E030E040E406
:1040B00051E40E94183687FF19C0F1E0BF1216C004
:1040C000A701960160E070E080E491E40E949837D7
:1040D00026E933E44BE85EE30E947E369B01AC01A7
:1040E000C701B6010E9499376B017C0120E030E0E6
:1040F00040E05FE3C701B6010E9499370E9477381C
:10410000DC01CB014AE0BE016F5F7F4F0E94EE35BC
:10411000BE016F5F7F4FD80112968D919C911397CE
:104120000E94980DE2C06DE2F801828193810E94A5
:10413000E80FDBC08434B1F461E08091DD0290913E
:10414000DE020E94020C61E08091DF029091E002A9
:104150000E949D1160E08091DF029091E0020E9438
:10416000221112C0833499F460E08091DD029091B5
:10417000DE020E94020C21E040E060E08091DF025C
:104180009091E0020E94E1100E941526AEC0883393
:1041900099F40E94DD2561E08091DD029091DE02BC
:1041A0000E94020C61E08091DF029091E0020E9487
:1041B0009D1141E069E215C0893309F096C00E9463
:1041C000DD2560E08091DD029091DE020E94020C0C
:1041D00061E08091DF029091E0020E949D1141E038
:1041E0006BE58DED92E00E94B30F7FC0B60180E0D9
:1041F00090E00E941D362B013C01F701668970E0BA
:1042000080E090E00E941D369B01AC01C301B20129
:104210000E947E3620E030E048EC52E40E940538EF
:104220000E9477384B015C01D70157966C9170E082
:1042300080E090E00E941D369B01AC01C301B201F9
:104240000E947E3620E030E048EC52E40E940538BF
:104250000E9477382B013C016F3F734020F4E0E46B
:104260008E16910410F468E2BECEF701D58AC48A96
:10427000B7016C5E7F4F88EA90E00E94A41ED801CF
:10428000ED91FC91938A828ABF016E5E7F4F80EB35
:1042900090E00E94A41ED801ED91FC91518A408AC1
:1042A000BF01605F7F4F8CEA90E00E94A41ED8019E
:1042B000ED91FC9181E08687BF01625F7F4F84EAC8
:1042C00090E00E94D51E6BE4F8018281938190CE2C
:1042D000D801ED91FC911686BF01625F7F4F84EAA1
:1042E00090E00E94D51E69E5EFCF28960FB6F894AE
:1042F000DEBF0FBECDBFDF91CF911F910F91FF9019
:10430000EF90DF90CF90BF90AF909F908F907F9075
:104310006F905F904F903F902F900895EF92FF9293
:104320000F931F93CF93DF9300D000D000D0CDB771
:10433000DEB77C0162E971E0CE0101960E94581C53
:1043400008E027E0AE014F5F5F4FB7018DED92E0CF
:104350000E940D0E182FCE0101960E94301C812F55
:1043600026960FB6F894DEBF0FBECDBFDF91CF917A
:104370001F910F91FF90EF9008951092FC02109200
:10438000E9028091160390911703DC01ED91FC91F5
:104390000680F781E02D099541E06EEE74E08DED29
:1043A00092E00E946B0F0E94BC1D61E08DED92E0D7
:1043B0000E94E20D41E06DEE74E08DED92E00E940E
:1043C0006B0F8091160390911703DC01ED91FC9126
:1043D0000680F781E02D0995109206031092EA02FB
:1043E0008091FA028E3411F0823549F58091FB02FA
:1043F0008F3429F58091FE02811121C08091FD0248
:1044000081111DC0E091DD02F091DE02858D8435C1
:10441000B1F48081823098F081E08093FE02809335
:10442000FF020E94BC1D6093000370930103809300
:104430000203909303038091050380930403109279
:10444000FD028EE48093FA028093FB021092E10257
:104450000E94BC1D609308037093090380930A03B4
:1044600090930B03109207030895FF920F931F93ED
:10447000CF93DF9300D000D000D0CDB7DEB78C0152
:1044800061EE74E0CE0101960E94351CBE016F5FA3
:104490007F4FC8010E94C51AF82ECE0101960E94D6
:1044A000301CFF20E1F02CE030E04BE050E0B801A0
:1044B000CE0101960E946D1C60E070E0CE01019675
:1044C0000E94B41A182FCE0101960E94301C12339C
:1044D00041F0133341F0103341F0163341F08EE4D4
:1044E00007C084E405C082E503C089E401C085E417
:1044F00026960FB6F894DEBF0FBECDBFDF91CF91E9
:104500001F910F91FF900895FF920F931F93CF93E8
:10451000DF9300D000D000D0CDB7DEB78C0165EDC1
:1045200074E0CE0101960E94351CBE016F5F7F4F83
:10453000C8010E94FF1AF82ECE0101960E94301C7D
:10454000FF2011F091E02FC06FEC74E0CE010196D6
:104550000E94351CBE016F5F7F4FC8010E94FF1A89
:10456000F82ECE0101960E94301CF110EBCF64ECC6
:1045700074E0CE0101960E94351CBE016F5F7F4F33
:10458000C8010E94FF1AF82ECE0101960E94301C2D
:10459000F110D8CF6AE971E0C8010E94E01A91E0F9
:1045A000811101C090E0892F26960FB6F894DEBFE6
:1045B0000FBECDBFDF91CF911F910F91FF90089556
:1045C000EF92FF920F931F93CF93DF93CDB7DEB798
:1045D00062970FB6F894DEBF0FBECDBF7C01062FE9
:1045E000142F81E08093E9028091160390911703C4
:1045F000DC01ED91FC910680F781E02D0995B70172
:10460000CE010D960E943E1C011126C0809105032B
:104610008F34B1F034F4833499F0863409F0E1C07A
:104620000FC0833521F0853509F0DBC009C061EA90
:1046300071E0CE010D960E94E01B68EA71E008C0AF
:1046400061EA71E0CE010D960E94E01B6BEA71E019
:10465000CE010D960E94A21B6FEA71E0CE01079673
:104660000E94581C1230B1F46091DD027091DE029C
:10467000FB018381882339F040E650E0CE010196AA
:104680000E946A261AC06EE571E0CE0101960E9472
:10469000581C13C08091F102882339F069EB74E053
:1046A000CE0107960E94311B13C06091DD0270910C
:1046B000DE02CE0101960E94180CBE016F5F7F4F93
:1046C000CE0107960E94B11BCE0101960E94301CBC
:1046D0006FE471E0CE0107960E94A21B8091160341
:1046E00090911703DC01ED91FC910680F781E02D9C
:1046F0000995BE01695F7F4FCE0101960E943E1C65
:10470000BE016F5F7F4F8DED92E00E94EC25CE01E0
:1047100001960E94301C8091160390911703DC01D2
:10472000ED91FC910680F781E02D09956AE08DED11
:1047300092E00E94E20DBE01635F7F4FCE010196C1
:104740000E943E1CBE016F5F7F4F8DED92E00E9484
:10475000EC25CE0101960E94301C809116039091A9
:104760001703DC01ED91FC910680F781E02D09959E
:104770006AE08DED92E00E94E20D80911603909127
:104780001703DC01ED91FC910680F781E02D09957E
:104790008DED92E00E94070F009116031091170310
:1047A0006AE1C8010E94B31C6CE571E0C8010E9477
:1047B000BA1C8091160390911703DC01ED91FC91D6
:1047C0000680F781E02D09956AE08DED92E00E9468
:1047D000E20D1092F1021092E902CE0107960E94BA
:1047E000301CCE010D960E94301C62960FB6F894D4
:1047F000DEBF0FBECDBFDF91CF911F910F91FF9014
:10480000EF900895CF93DF9300D000D000D0CDB7C4
:10481000DEB79091FD02911119C0E091DD02F09197
:10482000DE02958D913491F4809305036EE571E07D
:10483000CE0101960E94581C40E060E0CE01019636
:104840000E94E022CE0101960E94301C26960FB6EF
:10485000F894DEBF0FBECDBFDF91CF9108950F93C7
:104860001F93CF93DF93CDB7DEB76E970FB6F89453
:10487000DEBF0FBECDBF8C016EEA74E0CE010196A3
:104880000E94351CBE016F5F7F4FC8010E94FF1A56
:1048900081114DC063EA74E0CE0107960E94351C79
:1048A000BE01695F7F4FC8010E94FF1A811141C09C
:1048B00068E974E0CE010D960E94351CBE01635F6D
:1048C0007F4FC8010E94FF1A811135C06DE874E066
:1048D000CE0143960E94351CBE016D5E7F4FC8011C
:1048E0000E94FF1A811115C062E874E0CE0149965A
:1048F0000E94351CBE01675E7F4FC8010E94FF1AEF
:1049000011E0811101C010E0CE0149960E94301CD7
:1049100001C011E0CE0143960E94301CCE010D96DD
:104920000E94301CCE0107960E94301C09C080E016
:1049300004C081E002C011E0F1CF11E08111F2CF9B
:10494000CE0101960E94301C812F6E960FB6F8940E
:10495000DEBF0FBECDBFDF91CF911F910F910895A4
:10496000EF92FF920F931F93CF938C01FC01E48091
:10497000F580C0E06C2F70E06E157F0568F4C8010B
:104980000E94B41A282F880F330B205331092A3084
:10499000310520F4CF5FEECF81E001C080E0CF9100
:1049A0001F910F91FF90EF9008958F929F92AF9279
:1049B000BF92CF92DF92EF92FF921F93CF93DF933C
:1049C00000D000D000D0CDB7DEB7162F40E0BC013C
:1049D0008DED92E00E946B0F0E94BC1D4B015C01AB
:1049E000112339F090E6C92E9AEED92EE12CF12C44
:1049F00015C088EBC82E8BE0D82EE12CF12C0EC010
:104A00008091160390911703DC01ED91FC910084D5
:104A1000F185E02D09951816190674F00E94BC1D49
:104A2000DC01CB0188199909AA09BB098C159D05E0
:104A3000AE05BF0528F323C06DED72E0CE010196EF
:104A40000E94280F6CEB71E0CE0101960E94E01AE3
:104A500081110DC06AE971E0CE0101960E94E01A51
:104A6000811107C0CE0101960E94301CD7CF11E002
:104A700001C010E0CE0101960E94301C01C010E080
:104A8000812F26960FB6F894DEBF0FBECDBFDF9103
:104A9000CF911F91FF90EF90DF90CF90BF90AF909C
:104AA0009F908F900895FC01A089B18982E08C933A
:104AB000A485B5851C92A685B78583E38C93108E5B
:104AC000A489B58986E08C93A289B3898C91806191
:104AD0008C93A289B3898C9188608C93A289B389C5
:104AE0008C9180688C930288F389E02D80818F7D82
:104AF000808308958091F202811119C09091FA0289
:104B00009E34B1F49091FB029E3491F4909107038E
:104B1000992371F09091060391110AC09091E902D6
:104B2000911106C09091190381E08927089580E0D2
:104B300008951F93CF93DF9300D000D000D0CDB75E
:104B4000DEB72091E70221112EC0BC01CE010196F3
:104B50000E943E1C60EC71E0CE0101960E94E01ABA
:104B6000182FCE0101960E94301C1123E1F0809194
:104B70000D038230C0F0E0910C032E2F30E090E066
:104B80000197281739074CF4EF5FE0930C03F0E02E
:104B9000E352FD4F40E061A902C041E06DE48DEDBC
:104BA00092E00E94B30F26960FB6F894DEBF0FBEB8
:104BB000CDBFDF91CF911F9108958DED92E00E94BE
:104BC000960F0E94BC1D6093ED027093EE028093DD
:104BD000EF029093F00208950F931F93CF93DF930A
:104BE000EC018B010E94070F6EE571E0C8010E9485
:104BF000E01A09ACDAADC02D81110EC0E881F9814F
:104C0000D80114964D915C9115976D917C9102801D
:104C1000F381E02DCE0109956CE571E0CE01DF91C5
:104C2000CF911F910F910C94BA1C0F931F93CF93A8
:104C3000DF93CDB7DEB72C970FB6F894DEBF0FBE6B
:104C4000CDBF6AEF74E0CE0107960E94351C61E487
:104C5000CE0107960E948F1B66EF74E0CE01079687
:104C60000E94311B0DED12E0D801D9968D919C91D7
:104C7000DA97DC01ED91FC910680F781E02D099532
:104C8000BE01695F7F4FCE0101960E943E1CBE01AE
:104C90006F5F7F4FC8010E94EC25CE0101960E94F4
:104CA000301CF80181AD92ADDC01ED91FC910680E4
:104CB000F781E02D0995CE0107960E94301C2C96B5
:104CC0000FB6F894DEBF0FBECDBFDF91CF911F911D
:104CD0000F9108950F931F93CF93DF93CDB7DEB756
:104CE0002B970FB6F894DEBF0FBECDBF8C01CA0163
:104CF0004115544030F44BE0BE016F5F7F4F0E947E
:104D00001E1FBE016F5F7F4FC8010E94581CC80163
:104D10002B960FB6F894DEBF0FBECDBFDF91CF91BB
:104D20001F910F91089585E480937C0080917A0013
:104D3000806480937A0080917A0086FDFCCF809118
:104D400078002091790090E0922B08950F931F93A3
:104D5000CF93DF93EC018B016EE571E00E94581C4C
:104D6000C8010E94C81D97FD08C08A30910529F02E
:104D7000682FCE010E948F1BF3CFCE01DF91CF9120
:104D80001F910F9108954F925F926F927F928F9231
:104D90009F92AF92BF92CF92DF92EF92FF920F93CA
:104DA0001F93CF93DF9300D000D000D0CDB7DEB7F4
:104DB0007C014B015A0168010E94BC1D2B013C0182
:104DC00041E0B401C7010E946B0F0E94BC1DDC01D1
:104DD000CB0184199509A609B709803A9F40A1051E
:104DE000B10558F5D701D9968D919C91DA97DC01E0
:104DF000ED91FC910084F185E02D0995892B29F333
:104E0000B701CE0101960E94280FBE016F5F7F4F50
:104E1000C701F6010995182F882351F069817A811D
:104E2000C5010E94F53ACE0101960E94301C06C0D1
:104E3000CE0101960E94301CC8CF10E0812F26962B
:104E40000FB6F894DEBF0FBECDBFDF91CF911F919B
:104E50000F91FF90EF90DF90CF90BF90AF909F9019
:104E60008F907F906F905F904F9008958F929F9258
:104E7000AF92BF92CF92DF92EF92FF921F93CF93A8
:104E8000DF9300D000D000D0CDB7DEB77C01162F65
:104E90008DED92E00E94070FB7018091160390916B
:104EA00017030E94BA1C0E94BC1D4B015C01112318
:104EB00039F090E6C92E9AEED92EE12CF12C15C0CE
:104EC00088EBC82E8BE0D82EE12CF12C0EC08091FF
:104ED000160390911703DC01ED91FC910084F1859C
:104EE000E02D09951816190674F00E94BC1DDC010E
:104EF000CB0188199909AA09BB098C159D05AE0536
:104F0000BF0528F323C06DED72E0CE0101960E942B
:104F1000280F6CEB71E0CE0101960E94E01A81111E
:104F20000DC06AE971E0CE0101960E94E01A81117C
:104F300007C0CE0101960E94301CD7CF11E001C0FE
:104F400010E0CE0101960E94301C01C010E0812FBC
:104F500026960FB6F894DEBF0FBECDBFDF91CF917E
:104F60001F91FF90EF90DF90CF90BF90AF909F90F8
:104F70008F900895CF92DF92EF92FF920F931F933D
:104F8000CF93DF93CDB7DEB72C970FB6F894DEBF83
:104F90000FBECDBF40E06EE075E08DED92E00E9467
:104FA0006B0F0E94BC1D6B017C010E94BC1DDC01CB
:104FB000CB018C199D09AE09BF0988389341A10521
:104FC000B10508F043C08091160390911703DC01EE
:104FD000ED91FC910084F185E02D0995892B29F351
:104FE0006091160370911703CE0107960E94A626C2
:104FF00063E075E0CE0101960E94351C0BE02AE0CB
:10500000AE014F5F5F4FBE01695F7F4F8DED92E054
:105010000E940D0E182FCE0101960E94301C112304
:1050200051F060E070E0CE0107960E94B41A83331D
:1050300039F0813331F0CE0107960E94301CB5CF94
:1050400010E0CE0107960E94301C01C010E0812FB5
:105050002C960FB6F894DEBF0FBECDBFDF91CF9177
:105060001F910F91FF90EF90DF90CF900895CF9216
:10507000DF92EF92FF921F93CF93DF9300D000D087
:1050800000D0CDB7DEB77C018DED92E00E94070F16
:10509000B70180911603909117030E94BA1C0E94D9
:1050A000BC1D6B017C010E94BC1DDC01CB018C1975
:1050B0009D09AE09BF0988389341A105B10590F556
:1050C0008091160390911703DC01ED91FC9100840F
:1050D000F185E02D0995892B31F3609116037091CC
:1050E0001703CE0101960E94A6266CEB71E0CE015B
:1050F00001960E94E01A81110DC06AE971E0CE01AB
:1051000001960E94E01A811107C0CE0101960E940B
:10511000301CC9CF11E001C010E0CE0101960E9401
:10512000301C01C010E0812F26960FB6F894DEBF28
:105130000FBECDBFDF91CF911F91FF90EF90DF9019
:10514000CF900895EF92FF920F931F93CF93DF9329
:1051500000D0CDB7DEB78C017B01FB0160819A8363
:105160008983CE0101960E942A0DF70161810F5FAC
:105170001F4F1A830983CE0101960E942A0DC70191
:105180000F900F90DF91CF911F910F91FF90EF90B3
:105190000895CF92DF92EF92FF920F931F93CF93D8
:1051A000DF93CDB7DEB767970FB6F894DEBF0FBEBB
:1051B000CDBF81E08093F1026EE375E0CE010E96E3
:1051C0000E94351C4AE08E010F5F1F4FB8018DE22F
:1051D00096E00E94A435F80101900020E9F731978C
:1051E000AF01401B510BB801CE010E960E94611B0E
:1051F00069E375E0CE010E960E94311B6E0184E1D9
:10520000C80ED11C88E4E82E83E0F82EC7010E9466
:105210003C37F60181936F01FFEFEF1AFF0A8CE430
:10522000E81683E0F80691F76C897D898E899F895D
:105230002AE0A8010E94CC35F80101900020E9F78E
:105240003197AF01401B510BB801CE010E960E9461
:10525000611B40E061E0CE010E960E94E022CE018B
:105260000E960E94301C67960FB6F894DEBF0FBEF4
:10527000CDBFDF91CF911F910F91FF90EF90DF9005
:10528000CF9008950F931F93CF93DF93CDB7DEB7E1
:105290002E970FB6F894DEBF0FBECDBF0DE81BE012
:1052A00020E030E0AE014F5F5F4F6BE275E08DEDC7
:1052B00092E00E94C326811105C061E08DE195E076
:1052C0000E94D5242E960FB6F894DEBF0FBECDBF38
:1052D000DF91CF911F910F910895CF93DF93CDB7B9
:1052E000DEB7EF970FB6F894DEBF0FBECDBF789450
:1052F00084B5826084BD84B5816084BD85B58260DB
:1053000085BD85B5816085BD80916E00816080938B
:105310006E001092810080918100826080938100F4
:105320008091810081608093810080918000816004
:10533000809380008091B10084608093B10080915F
:10534000B00081608093B00080917A008460809387
:105350007A0080917A00826080937A0080917A004E
:105360008E7F80937A0080917A00806880937A00A3
:105370001092C10084B762E089E00E94801D61E064
:1053800088E00E94801D9E012F5F3F4F5901B901A7
:1053900080EA90E00E94CB1E8981882311F060E0B2
:1053A00001C061E088E00E94501D61E373E08AE380
:1053B00090E00E94CB1E809131038F3F41F4109208
:1053C000310361E373E08AE390E00E94D51E60E35D
:1053D00073E086E390E00E94CB1E809130038F3F04
:1053E00041F41092300360E373E086E390E00E94A2
:1053F000D51E68E273E08CE590E00E94CB1E8091A0
:1054000028038F3F41F41092280368E273E08CE593
:1054100090E00E94D51E67E273E088E590E00E946C
:10542000CB1E809127038F3F41F41092270367E240
:1054300073E088E590E00E94D51E6FE273E080E0A3
:1054400090E00E94CB1E80912F038F3F29F460E0F3
:1054500084E293E00E94020C6CE373E084E090E04D
:105460000E94901E80913C0390913D03019661F44F
:1054700082E390E090933D0380933C036CE373E000
:1054800084E090E00E94A41E60E473E08CE090E071
:105490000E94CB1E809140038F3F41F41092400345
:1054A00060E473E08CE090E00E94D51E8EE090E016
:1054B0000E943C37809341038F3F29F464E584E2E6
:1054C00093E00E944A0D64E273E08CE291E00E9456
:1054D000CB1E80912403803140F01092240364E2BB
:1054E00073E08CE291E00E94D51E66E273E086E1F3
:1054F00090E00E94CB1E809126038F3F41F41092D2
:10550000260366E273E086E190E00E94D51E65E224
:1055100073E08AE190E00E94CB1E809125038F3FCB
:1055200041F41092250365E273E08AE190E00E9465
:10553000D51E69E273E080E293E00E94CB1E809169
:1055400029038F3F41F41092290369E273E080E25E
:1055500093E00E94D51E6EE373E082E190E00E942A
:10556000901E80913E0390913F03019661F482E08A
:1055700090E090933F0380933E036EE373E082E1FB
:1055800090E00E94A41E62E373E084EA90E00E942F
:10559000CB1E809132038F3F41F41092320362E3BD
:1055A00073E084EA90E00E94D51E6AE373E084EB26
:1055B00090E00E94CB1E80913A038F3F29F465E56D
:1055C00084E293E00E94CC0B6BE373E088EB90E005
:1055D0000E94CB1E80913B038F3F29F468E784E251
:1055E00093E00E94E80B63E373E08CEB90E00E9491
:1055F000CB1E809133038F3F49F481E080933303C6
:1056000063E373E08CEB90E00E94D51E68E373E0E7
:1056100088EA90E00E94901E64E373E08CEA90E0D8
:105620000E94901E66E373E080EB90E00E94901E63
:1056300084E293E09093DE028093DD028BEE91E0B2
:105640009093E0028093DF0280E492E00E94532571
:10565000809168008160809368008091680082601A
:105660008093680080916C00816080936C008091D1
:105670006C00826080936C00F89480E00E94691254
:1056800081E60E946912789461E081E10E94801DA8
:1056900061E086E00E94801D61E087E00E94801D3D
:1056A00061E085E00E94801DFF24F3946E0159E1C2
:1056B000C50ED11C12E2212E1BE0312E0FE7802EE9
:1056C0000BE0902E8091CC01882379F18091E90242
:1056D00081112BC080911903811127C084ED482EC0
:1056E0008EE0582E5FAA4EAA19AE18AE0EA91FA9B9
:1056F00028AD39ADA50168E670E08DED92E00E941D
:10570000C326882309F424C5F50101900020E9F798
:105710003197EA19FB09349708F41AC58C818B7FFD
:10572000813309F015C51092CC018091CB018823FB
:1057300009F43FC00E947A258823D9F18091E902BB
:10574000811137C080911903811133C00E94BC1DA3
:105750000091DD011091DE012091DF013091E00127
:10576000DC01CB01801B910BA20BB30B893E934054
:10577000A105B105F0F08DED92E00E945E0D3C01B7
:105780001091DC011F5F1093DC010E94BC1D60932F
:10579000DD017093DE018093DF019093E0018CE6E0
:1057A000681681E0780608F4A1C61092CB01109229
:1057B000DC018091D701882319F10E94BC1D009162
:1057C000D8011091D9012091DA013091DB01DC017F
:1057D000CB01801B910BA20BB30B81319742A1052A
:1057E000B10570F01092D7010E947A25882341F00C
:1057F0008DED92E00E945E0D8C36914008F4AEC4AF
:105800008091D601811143C18091D50181111BC0C6
:105810000E94BC1D60347F4181059105A0F08DED93
:1058200092E00E945E0D8C36914008F49CC461E0C9
:1058300088E00E94501DF092D5011982B50180EADE
:1058400090E00E94D51E8091D401811108C00E9471
:10585000BC1D683B7B408105910508F08FC4809199
:10586000D501882321F10E94BC1D2091CD013091EA
:10587000CE01DC01CB01821B930BA109B109853F4D
:105880009140A105B10598F0809104018F25809386
:105890000401882311F061E001C060E081E10E9411
:1058A000501D0E94BC1D7093CE016093CD010E94DB
:1058B000BC1D683A71468105910508F446C461E053
:1058C0008DED90E00E94D524882309F474C060E037
:1058D00081ED90E00E94D524882309F46CC060E03B
:1058E00085EC90E00E94D524882309F464C060E030
:1058F00089EB90E00E94D524882309F45CC060E025
:1059000085EA90E00E94D524882309F454C060E021
:1059100088E990E00E94D52460E08CE890E00E9445
:10592000D52460E085E890E00E94D524F092180329
:1059300060E089E790E00E94D52447EB5BE05BAB39
:105940004AAB1DAA1CAA0AA91BA92CA93DA9A601FC
:1059500061E770E08DED92E00E94C326882359F143
:10596000E091DD02F091DE02858181110FC40E9479
:10597000C9280091DD021091DE02F801F582B8011C
:105980006B5F7F4F80E293E00E94D51EF60101908D
:105990000020E9F73197EC19FD09E9ABBE016F5C16
:1059A0007F4F84E293E00E94D51EA60168E273E077
:1059B000C8010E94A933B5018CE893E00E94CB1E78
:1059C000198180911803882309F4FFC38FEF810F99
:1059D0008E3F08F0FAC36FEE70E0C6010E94351CDE
:1059E000123019F46AEE70E004C0133029F462EE4C
:1059F00070E0C6010E94B81BF092F102B601CE0120
:105A000001960E943E1C40E061E0CE0101960E949A
:105A1000E022CE0101960E94301CC6010E94301C7B
:105A20001A821982B5018CE893E00E94A228F092B4
:105A30003E0260E08BEE91E00E949D1180916B0030
:105A4000846080936B0080916B00886080936B0012
:105A5000309203012092020180916900837F84606B
:105A600080936900E99A90920101809200018091EF
:105A700069008C7F816080936900E89AF092D6017A
:105A80001092040160E081E10E94501D5EC380918C
:105A90000A02811186C080911102811182C0809119
:105AA000FD01882309F47DC0E091EB01F091EC0148
:105AB0008685882309F475C080910B02811171C01D
:105AC0000E94BC1D0091EF011091F0012091F101A5
:105AD0003091F201DC01CB01801B910BA20BB30BC7
