:100000000C942E020C9470240C9449240C948F129E
:100010000C94F4120C94C5120C9456020C945602D3
:100020000C9456020C9456020C9456020C945602F0
:100030000C9456020C9456020C9456020C945602E0
:100040000C94FF230C9456020C94FC220C94D622A0
:100050000C9456020C9456020C9456020C945602C0
:100060000C9456020C94560241542B4343494400CD
:1000700041542B444445543D310D0A004154265708
:100080000D0A0041542B4353434C4B3D310D0A00A4
:1000900041542B434E4D493D322C312C302C302CC9
:1000A000300D0A0041542B434D47463D310D0A00A7
:1000B00041542B434C43433D310D0A0041542B43E3
:1000C0004C49503D310D0A004D41584345444400D0
:1000D0004345525200555044535543430041542B1D
:1000E000444445543D310D0A002B4350494E3A20BB
:1000F0004E4F542052454144590D0041542B434D1D
:100100004744413D2244454C20414C4C220D0A00BD
:1001100041542B46545050573D22313233343536FA
:10012000373839220D0A0041542B465450554E3D64
:1001300022726168756C6E726174686F646B636C57
:10014000220D0A0041542B465450534552563D222D
:100150000041542B4654504349443D310D0A002B75
:1001600046545053495A453A20312C302C004154C2
:100170002B46545053495A450D0A0041542B4654BE
:10018000504745540041542B53415042523D312C6D
:10019000310D0A0041504E222C220041542B534174
:1001A0005042523D332C312C2200436F6E547970F3
:1001B00065222C2247505253220D0A0041542B53E2
:1001C000415042523D332C312C22004F4B203A20DB
:1001D0000052455550440050524753495A4500502B
:1001E000524755504400564D52303200564D4D3016
:1001F000310041542B435245433D342C220041549D
:100200002B435245433D350D0037303431313936BB
:100210003935390037303431313936393539000A1A
:100220004E6574776F726B3A000A426174253A002A
:10023000204F46460A00204F4E0A00204F4E0A002B
:100240004D6F746F723A00204F46460A00203220EC
:1002500050484153450A004155544F4F46460041CE
:1002600055544F4F4E004552524F52203A20004FA6
:100270004B203A200041542B435553443D312C220E
:100280000042414C004155544F54494D45004155A1
:10029000544F54494D45005354415254494D450023
:1002A0005354415254494D4500535441474500531E
:1002B0005441474500414D4F464600414D4F4E0089
:1002C00041542B4342430041542B43535100535458
:1002D00041545553004F56464F4646004F56464FE1
:1002E0004E00524553504100524553504300444E36
:1002F000444F464600444E444F4E004259504F46EC
:1003000046004259504F4E004155544F4F4646000B
:100310004155544F4F4E00444944005245534554B3
:10032000004E6F204E756D626572004E554D004453
:10033000454641554C5400434C454152414C4C00BC
:100340005741495400373034313139363935390065
:100350004E4F20414E535745520D00425553590DB3
:10036000004E4F20434152524945520D002B434C01
:1003700043433A20312C302C36002B434C43433A34
:1003800020312C302C30002B434C43433A20312C6D
:10039000302C33002B434C43433A20312C302C3249
:1003A00000222C320041542B5654533D22000000B1
:1003B0000000240027002A0000000000250028007B
:1003C0002B00000000002300260029000404040480
:1003D00004040404020202020202030303030303EF
:1003E00001020408102040800102040810200102CC
:1003F00004081020000000080002010000030407A8
:10040000000000000000000041542B434357413DD1
:10041000302C300D0A0049443A0041542B434655D4
:100420004E3D312C310D0A0041542B534150425264
:100430003D302C310D0A0041542B434F50533D3277
:100440000D0A00415426570D0A0041542B435343D3
:100450004C4B3D300D0A00000732033211241FBE01
:10046000CFEFD8E0DEBFCDBF12E0A0E0B1E0EAE917
:10047000FEE602C005900D92A834B107D9F723E03B
:10048000A8E4B2E001C01D92AB3BB207E1F712E075
:10049000CDE2D2E004C02197FE010E94DF33CC32CE
:1004A000D107C9F70E94ED280C9440370C948512AF
:1004B0004F925F926F927F928F929F92AF92BF9274
:1004C000CF92DF92EF92FF920F931F93CF93DF9320
:1004D000CDB7DEB7A5970FB6F894DEBF0FBECDBF80
:1004E00080918E038823B1F00E94C32300918F0373
:1004F000109190032091910330919203DC01CB0184
:10050000801B910BA20BB30B813D9740A105B10558
:1005100008F0F6C580917203882371F10E94C3230D
:100520000091750310917603209177033091780341
:10053000AB01BC01401B510B620B730B2091730389
:1005400030917403E4E6E29FC001E39F900D112413
:10055000A0E0B0E0481759076A077B0768F0E09110
:100560005F03F091600383A5811106C060E084E021
:100570000E94572310927203809179038E3409F000
:1005800054C080917A038E3409F0A1C08091860313
:10059000811116C00E94C323009187031091880324
:1005A0002091890330918A03DC01CB01801B910BE0
:1005B000A20BB30B893E9340A105B10508F0A3C57A
:1005C00080917D03882309F482C0E0915D03F0915E
:1005D0005E03158581E0809384038DE593E00E949E
:1005E000AB0F80918603882309F471C00E94C32356
:1005F000C0907E03D0907F03E0908003F090810351
:100600009B01AC012C193D094E095F0969017A0172
:10061000212F30E0A0E6BAEE0E9431376C157D053F
:100620008E059F0508F473C552C0893419F08235D0
:1006300009F04DC00E94C32300916C0310916D031B
:1006400020916E0330916F03AB01BC01401B510B35
:10065000620B730B20916A0330916B03E4E6E29F17
:10066000C001E39F900D1124A0E0B0E048175907A6
:100670006A077B0740F0809183038DA30E94101CC2
:100680008DA10E94BE1E80916703882301F10E9404
:10069000C323E091620300916303109164032091EE
:1006A000650330916603AB01BC01401B510B620B2B
:1006B000730B34E6E39FC0011124092E000CAA0B32
:1006C000BB0B84179507A607B70708F42BC58FE463
:1006D000C82E92E5B92E29E4D22E80918B039091F9
:1006E0008C03DC01ED91FC910480F581E02D0995EE
:1006F0001816190614F00C94AD0B63E671E0CE01E8
:100700004F960E947022CE0101960E942625BE01BE
:100710006F5F7F4FCE014F960E947E21CE010196E2
:100720000E9459220BA1015060E271E0CE010196B6
:100730000E94702226E0AE014F5F5F4FBE01615EF6
:100740007F4F8DE593E00E94E40E182FCE010196B5
:100750000E945922112321F080917103811144C517
:100760000BA1015067E271E0CE0101960E94702258
:100770002CE0AE014F5F5F4FBE01615E7F4F8DE5A4
:1007800093E00E94E40EE82ECE0101960E945922C9
:10079000EE20A1F1BE01615E7F4FCE010D960E9459
:1007A000672263E671E0CE0107960E9470226EE236
:1007B00071E0CE0107960E942B22BE01635F7F4F3E
:1007C000CE0107960E947721BE01695F7F4FCE015F
:1007D00001960E94672241E0BE016F5F7F4F8DE569
:1007E00093E00E94CC0FCE0101960E945922CE01C7
:1007F00007960E945922CE010D9689C267E371E0E7
:10080000CE0101960E94702202E228E1AE014F5F04
:100810005F4FBE01615E7F4F8DE593E00E94E40E65
:10082000782ECE0101960E945922BE01615E7F4F53
:10083000CE01772009F420C201960E946722CE01E2
:1008400001960E945D0E082FCE0101960E9459224A
:10085000BE01615E7F4FCE0101960E946722BE01FC
:100860006F5F7F4F80915D0390915E030E944E0DFC
:10087000A82ECE0101960E94592201111BC0BE0173
:10088000615E7F4FCE0101960E946722BE016F5FBD
:100890007F4F80915D0390915E030E94FF0C182FA3
:1008A000811101C01A2DCE0101960E9459221123F7
:1008B00009F47CC1CE0101960E942625BE016F5F1E
:1008C0007F4FCE014F960E947E21CE0101960E945D
:1008D00059226EE371E0CE0101960E947022BE01A2
:1008E0006F5F7F4FCE014F960E946D20182FCE0173
:1008F00001960E9459221123C1F02BA13CA141E095
:1009000050E0BE01615E7F4FCE0101960E948522BC
:10091000BE016F5F7F4FCE014F960E947E21CE01B8
:1009200001960E94592211E001C010E08F8C98A01E
:100930008114910419F401110EC029C1F4018081C0
:100940008823C9F3082E000C990B0E94E935D401C5
:100950008D934D01F3CFBE01615E7F4FCE0149966D
:100960000E94672281E0809370030D8D01506FED2E
:1009700071E0CE0101960E945E2226E0AE014F5F3B
:100980005F4FBE01675E7F4F8DE593E00E94E40EEE
:10099000F82ECE0101960E945922FF2009F4B0C022
:1009A000809179038E3411F40E94101C111110C033
:1009B00060E471E0CE0101960E94702240E061E0A7
:1009C000CE0101960E94891DCE0101960E945922F6
:1009D000898C9A8C8114910429F40E94E427811156
:1009E00017C40DC0F40180818823B9F3082E000CD0
:1009F000990B0E94E135D4018D934D01F3CF64E44E
:100A000071E0CE010D960E9470226CEB71E0CE0178
:100A100007960E945E226AEA71E0CE0107960E9464
:100A2000D920BE01695F7F4FCE0101960E946722E7
:100A3000CE0101960E947D28082FCE0101960E94CA
:100A40005922011102C000E042C06BE971E0CE0101
:100A500007960E94E22164E971E0CE0107960E94A8
:100A6000D920BE01635F7F4FCE0107960E94772198
:100A700060E671E0CE0107960E946821BE01695FC1
:100A80007F4FCE0101960E946722CE0101960E94FF
:100A90007D28082FCE0101960E945922002399F249
:100AA00065E871E0CE0101960E945E2261E0CE0110
:100AB00001960E948B25082FCE0101960E94592293
:100AC000002309F264E18DE593E00E94B90ECE01A6
:100AD00007960E945922CE010D960E9459220023AA
:100AE00009F4B7C50CE0015009F4B3C562E38DE524
:100AF00093E00E94B90E0E94E4278823A1F388C3E3
:100B00000D8D015067ED71E0CE0101960E945E22CD
:100B100027E0AE014F5F5F4FBE01675E7F4F8DE5FF
:100B200093E00E94E40E082FCE0101960E94592204
:100B30000111C5C50D8D015061ED71E0CE01019629
:100B40000E945E2225E0AE014F5F5F4FBE01675EEF
:100B50007F4F8DE593E00E94E40EF82ECE010196C2
:100B60000E945922F110ADC510927003CE01499632
:100B70000E945922F11072C0BE01615E7F4FCE010A
:100B800001960E9467222A2D412F61E00AC0BE0112
:100B9000615E7F4FCE0101960E9467222A2D412F70
:100BA00060E0CE0101960E94031354C0BE01615E55
:100BB0007F4FCE0101960E946722BE016F5F7F4F7B
:100BC00080915D0390915E030E94550D182FCE0118
:100BD00001960E945922112309F440C0CE010196CA
:100BE0000E942625BE016F5F7F4FCE014F960E9467
:100BF0007E21CE0101960E9459226CEE71E0CE0159
:100C000001960E945E22BE016F5F7F4FCE014F961C
:100C10000E946D20182FCE0101960E9459221123A7
:100C2000E9F0E0915D03F0915E0381E08483BF0110
:100C30006C5F7F4F8CE590E00E94DC2466EE71E0F3
:100C4000CE0101960E945E2242E061E0CE01019653
:100C50000E94891DCE0101960E9459226BEF70E01F
:100C6000CE0101960E945E2260E0CE0101960E94B4
:100C70008B25CE0101964BC00D960E9467226BE832
:100C800071E0CE0107960E947022BE01635F7F4F24
:100C9000CE0101960E946722BE01695F7F4FCE019F
:100CA00001960E94A720182FCE0101960E9459227A
:100CB000CE0107960E945922CE010D960E9459221C
:100CC000112321F081E080938D0323C0BE01615E7A
:100CD0007F4FCE0107960E94672269EE70E0CE0139
:100CE00001960E945E22BE016F5F7F4FCE01079684
:100CF0000E94A720182FCE0101960E94592211238D
:100D000021F00E94101C0E944D26CE0107960E94E1
:100D100059229091840380917903911120C18E34DE
:100D200019F0823509F0A1C190917A039E3419F02F
:100D3000993409F001C1BE01615E7F4FCE01019679
:100D40000E94672267E971E0CE0101960E94882027
:100D5000182FCE0101960E945922112309F4D6C002
:100D600011E010936903B0927903D0927A038091D5
:100D70007B038F5F80937B03833008F08AC08130D0
:100D8000E9F46DED70E0CE0101960E945E2240E034
:100D9000BE016F5F7F4F8DE593E00E94CC0FCE01C7
:100DA00001960E94592280918B0390918C03DC0163
:100DB000ED91FC910284F385E02D099563E671E0E5
:100DC000CE010D960E947022CE0101960E9426252A
:100DD000BE016F5F7F4FCE010D960E947E21CE0136
:100DE00001960E9459226DE971E0CE0101960E94A0
:100DF000702205E12BE0AE014F5F5F4FBE01635FE4
:100E00007F4F8DE593E00E94E40E182FCE010196EE
:100E10000E9459221123C1F20E94C32360936C03E4
:100E200070936D0380936E0390936F0389899A8901
:100E30000A9760F1CE010D960E946925882331F151
:100E400080917B03823010F1BE01635F7F4FCE0142
:100E500007960E946722BE01695F7F4FCE0101960F
:100E60000E946722CE0101960E945D0E182F8823F2
:100E700009F464C4CE0101960E945922CE0107965E
:100E80000E945922111102C00E94101CCE010D9621
:100E900030C1833009F02FC10E94C32360936C03DB
:100EA00070936D0380936E0390936F0310937C0394
:100EB00080918B0390918C03DC01ED91FC91028475
:100EC000F385E02D099566EA71E0CE0101960E9456
:100ED000702241E0BE016F5F7F4F8DE593E00E947D
:100EE000CC0FCE0101960E94592280918B039091E4
:100EF0008C03DC01ED91FC910284F385E02D0995D2
:100F0000D0927903D0927A036DE4AAC0BE01615EEB
:100F10007F4FCE0101960E946722CE0101960E946A
:100F2000F71C182FCE0101960E945922112309F4B3
:100F3000E2C00E94101CDFC0893489F490917A03CA
:100F4000993469F4BE01615E7F4FCE0101960E9423
:100F50006722CE0101960E94F71C182FB1C08E3473
:100F600019F0823509F084C010917A031F3409F01A
:100F7000C2C0BE01615E7F4FCE0101960E94672212
:100F8000CE0101960E947C1C082FCE0101960E9482
:100F90005922023579F40E94C32360936C03709345
:100FA0006D0380936E0390936F0300937903109306
:100FB0007A03A1C0BE01615E7F4FCE0101960E94FF
:100FC0006722CE0101960E94F71C182F811113C0D1
:100FD000BE01615E7F4FCE0107960E946722CE015F
:100FE00007960E947C1C11E0853409F010E0CE01C8
:100FF00007960E945922CE0101960E945922112380
:1010000049F0809183038DA30E94101C8DA10E9442
:10101000BE1E71C0BE01615E7F4FCE0101960E946F
:101020006722CE0101960E947C1C182FCE010196EA
:101030000E945922193409F05EC00E94C3236093B4
:101040006C0370936D0380936E0390936F03109302
:101050007903C0927A0381E080937C0360918303DB
:101060008DE593E00E94C71A46C0893409F466CF23
:10107000893409F040C080917A038F34E1F5BE01D4
:10108000615E7F4FCE0101960E946722CE010196DC
:101090000E94F71C182F811113C0BE01615E7F4FA3
:1010A000CE0107960E946722CE0107960E947C1C03
:1010B00011E0853409F010E0CE0107960E94592214
:1010C000CE0101960E945922111133CFCE014F96C5
:1010D0000E94E11B882379F0BE01615E7F4FCE0143
:1010E00001960E946722CE0101960E94FA1ACE0153
:1010F00001960E945922CE014F960E945922EDCAB4
:1011000010928E0307CA81E08093860359CA8091AA
:1011100082038093830310927D038DE593E00E9408
:10112000FC0FD5CA80918B0390918C03DC01ED916B
:10113000FC910284F385E02D099562EF71E0CE0108
:1011400001960E945E2240E0BE016F5F7F4F8DE5F9
:1011500093E00E94CC0FCE0101960E9459226AEAC8
:1011600071E0CE0101960E94702240E0BE016F5FE7
:101170007F4F8DE593E00E94CC0FCE0101960E9437
:101180005922609168038DE593E06DA30E94AB0F37
:1011900080918B0390918C03DC01ED91FC91019087
:1011A000F081E02D6DA1099567EB71E0CE0101960C
:1011B0000E94702241E0BE016F5F7F4F8DE593E09A
:1011C0000E94CC0FCE0101960E94592280918B0380
:1011D00090918C03DC01ED91FC910284F385E02D6C
:1011E00009951092670373CABE01615E7F4FCE01FD
:1011F00001960E94672240E061E0CE0101960E94C4
:10120000891DCE0101960E94592210927103A8CA2D
:10121000BE01675E7F4FCE010D960E94672263E696
:1012200071E0CE0107960E94702261E571E0CE0167
:1012300001960E945E2261E0CE0101960E948B25FC
:10124000082FCE0101960E945922002331F164E457
:1012500071E0CE0107960E94E221BE01635F7F4FDD
:10126000CE0107960E94772160E671E0CE010796D5
:101270000E946821BE01695F7F4FCE0101960E94E6
:10128000672261E0CE0101960E948B25082FCE01D6
:1012900001960E945922011102C000E022C067E2BB
:1012A00071E0CE0101960E945E2261E0CE010196BE
:1012B0000E948B25082FCE0101960E9459220023FF
:1012C00061F360E171E0CE0101960E945E2261E06F
:1012D000CE0101960E948B25082FCE0101960E9417
:1012E0005922CE0107960E945922CE010D960E94E6
:1012F0005922002309F4ADC16CE471E0CE0143969C
:101300000E9470226BE771E0CE010D960E945E2272
:1013100063E671E0CE0107960E947022BE01635F12
:101320007F4FCE0107960E94422262E571E0CE0116
:1013300007960E946821BE016D5E7F4FCE01079621
:101340000E94772160E671E0CE0107960E94682135
:10135000BE01695F7F4FCE0101960E94672261E066
:10136000CE0101960E948B25982ECE0101960E94F7
:1013700059229920E9F0BE01635F7F4FCE010796A5
:101380000E94422269E571E0CE0107960E94682121
:10139000BE01695F7F4FCE0101960E94672260E027
:1013A000CE0101960E948B25CE0101960E94592202
:1013B000CE0107960E945922CE010D960E94592215
:1013C000CE0143960E945922992009F442C1E0912E
:1013D0005D03F0915E03828581117BC00E94C3236F
:1013E0002B013C016EE671E0CE0101960E945E2267
:1013F00040E0BE016F5F7F4F8DE593E00E94CC0F10
:10140000CE0101960E94592263E671E0CE01079653
:101410000E9470220E94C323DC01CB01841995092C
:10142000A609B709803C944DA140B10508F04CC015
:1014300080918B0390918C03DC01ED91FC910480F1
:10144000F581E02D0995892B29F360918B0370912B
:101450008C03CE0101960E94EB1EBE016F5F7F4F91
:10146000CE0107960E947E21CE0101960E9459224C
:101470000B8501506FE571E0CE0101960E945E225E
:101480002EE0AE014F5F5F4FBE01695F7F4F8DE57C
:1014900093E00E94E40E082FCE0101960E9459228B
:1014A000002309F4B7CFCE0107960E946220AB015A
:1014B000BC0180915D0390915E030E942C0ECE01D1
:1014C00007960E94592205C0CE0107960E94592214
:1014D000C0C0E0915D03F0915E0346805780608458
:1014E000718464E671E0CE0143960E94702263E647
:1014F00071E0CE010D960E947022BE016D5E7F4F9D
:10150000CE0101960E94672260E771E0CE0101964C
:101510000E94C921BC01CE0107960E946722CE011C
:1015200001960E945922B301A201CE0107960E94A2
:10153000372164EC71E0CE0107960E94682165E7CF
:1015400071E0CE010D960E942B22BE016D5E7F4F91
:10155000CE010D960E94772168E771E0CE010D96CD
:101560000E9468210E94C3232B013C01BE01635FDE
:101570007F4FCE0101960E94672240E0BE016F5F5F
:101580007F4F8DE593E00E94CC0FCE0101960E9423
:1015900059220E94C323DC01CB0184199509A609B5
:1015A000B709803C944DA140B10550F580918B0363
:1015B00090918C03DC01ED91FC910480F581E02D8C
:1015C0000995892B31F360918B0370918C03CE01C7
:1015D00001960E94EB1EBE016F5F7F4FCE010D96FC
:1015E0000E947E21CE0101960E945922BE01695FB0
:1015F0007F4FCE010D960E94A720882351F2E92C3F
:10160000CE0107960E945922CE010D960E945922C2
:10161000CE0143960E945922EE20D9F081E08093BA
:101620007003111110C065E871E0CE0101960E94AF
:10163000702240E061E0CE0101960E94891DCE013A
:1016400001960E9459220E94C1270E946127FE2C08
:101650008DCA0E94C127E0915D03F0915E0312865E
:101660001982BE016F5F7F4F84E893E00E94DC2403
:101670001A821982BE016F5F7F4F84E993E00E9456
:10168000F61901E00983BE016F5F7F4F80E993E0A7
:101690000E94DC2400937003111168CA68E871E0AD
:1016A000CE0101960E94702240E061E0CE010196D9
:1016B0000E94891DCE0101960E94592257CA01E05D
:1016C00001C002E0CE0149960E946220AB01BC013C
:1016D00080915D0390915E030E942C0E63E671E0A1
:1016E000CE0107960E9470226BEC71E0CE01079646
:1016F0000E94E221BE01675E7F4FCE0107960E94E5
:101700007721111111C0BE01695F7F4FCE01019693
:101710000E94672240E061E0CE0101960E94891D8F
:10172000CE0101960E945922023011F40E946127D5
:10173000CE0107960E945922F72C18CABE01695F94
:101740007F4F80915D0390915E030E94870D11E0B1
:101750008F3F09F08FCB10E08DCBA5960FB6F89494
:10176000DEBF0FBECDBFDF91CF911F910F91FF90D4
:10177000EF90DF90CF90BF90AF909F908F907F9031
:101780006F905F904F900895DB0114968D919C911E
:101790001597409780F0ED91FC91309711F02081E2
:1017A00001C020E0022E000C330B2053310981E0F0
:1017B0002A30310508F080E0089581E08093B90275
:1017C00008950E94C323EDE5F3E062AB73AB84ABF5
:1017D00095AB81E081AB08956F927F928F929F923B
:1017E000AF92BF92CF92DF92EF92FF920F931F932F
:1017F000CF93DF93CDB7DEB76C013A01ADB6BEB67D
:10180000822F90E001964DB75EB7481B590B0FB67B
:10181000F8945EBF0FBE4DBF8DB79EB701964C01C9
:10182000611494E0790650F5FF24F394F20E31F13F
:10183000E1E0FE1202C0F40120C0C3010E94E436C0
:10184000F4018083EE24E3948823C1F00E2D10E090
:10185000EF1478F4C801860D971D8115F4E09F07F9
:1018600040F40E94E436F401E00FF11F8083E3941A
:10187000EBCF080D191DF80131971082B401C60194
:101880000E947022C6010FB6F894BEBE0FBEADBE58
:10189000DF91CF911F910F91FF90EF90DF90CF904C
:1018A000BF90AF909F908F907F906F9008958F9290
:1018B0009F92AF92BF92CF92DF92EF92FF920F93DF
:1018C0001F93CF93DF93CDB7DEB76B01ADB6BEB636
:1018D000FA01E480F580C70101962DB73EB7281BB9
:1018E000390B0FB6F8943EBF0FBE2DBF0DB71EB714
:1018F0000F5F1F4F892B99F00115110581F0E1143D
:10190000F10411F4F8010AC0FA0160817181A701A4
:10191000C8010E941836F801EE0DFF1D1082F80173
:1019200001900020E9F73197E01BF10BC11424E08E
:10193000D206D8F4FF24F394FE0EC6018F0D911D3C
:101940008115944090F44801C01AD10A882D801B5B
:101950008F1548F4C601880D991DF40161914F015E
:101960000E94EC36F3CF81E001C080E00FB6F8941E
:10197000BEBE0FBEADBEDF91CF911F910F91FF9004
:10198000EF90DF90CF90BF90AF909F908F90089591
:10199000FC018385882311F061E001C060E082E1F1
:1019A0000C945723CF93DF93EC016B87BC01655FE9
:1019B0007F4F80E090E00E94DC24CE01DF91CF9148
:1019C0000C94C80CCF93DF93EC01FB01808188233A
:1019D00069F08181882319F04EE150E002C040E3B4
:1019E00051E02AE0CE010E94EC0B05C064E172E0F8
:1019F000CE010E945E22CE01DF91CF910895DF9249
:101A0000EF92FF920F931F93CF93DF9300D000D0FC
:101A100000D0CDB7DEB7FC012081222369F17B0124
:101A20008C012AE040E351E0BC01CE0101960E9406
:101A3000EC0BB701CE0101960E94A720D82ECE0153
:101A400001960E945922D11019C0B701CE0101960A
:101A50000E946722F8018081882341F0BE016F5FF8
:101A60007F4FC8010E94F424182F01C010E0CE015E
:101A700001960E94592203C010E001C011E0812F9D
:101A800026960FB6F894DEBF0FBECDBFDF91CF9183
:101A90001F910F91FF90EF90DF900895FC0120813E
:101AA00021110C94F42480E008950F931F93CF9399
:101AB000DF9300D000D000D0CDB7DEB7FC0183812A
:101AC0008823C1F08B01BF012AE040E650E0CE013F
:101AD00001960E94EC0BBE016F5F7F4FC8010E9410
:101AE000A72011E0811101C010E0CE0101960E94F3
:101AF000592201C010E0812F26960FB6F894DEBF60
:101B00000FBECDBFDF91CF911F910F910895CF925E
:101B1000DF92EF92FF920F931F93CF93DF9300D04A
:101B200000D000D0CDB7DEB77C016B01FC01808115
:101B3000811106C0F7018481882309F443C030C0B5
:101B4000CE0101960E946722BE016F5F7F4FC701E1
:101B50000E94FF0C182FCE0101960E9459221111EC
:101B600033C011E0F7018081181720F7FBE01F9FB9
:101B7000A0011124405D5E4F2AE0B701CE0101961D
:101B80000E94EC0BB601CE0101960E94A720082FFF
:101B9000CE0101960E945922011118C01F5FE2CFA9
:101BA000B601CE0101960E946722BE016F5F7F4F92
:101BB000C7010E94550D182FCE0101960E9459228F
:101BC000111106C08FEF05C080E003C0812F01C056
:101BD0008EEF26960FB6F894DEBF0FBECDBFDF9115
:101BE000CF911F910F91FF90EF90DF90CF900895CC
:101BF000EF92FF920F931F93CF93DF931F92CDB776
:101C0000DEB77C01FC0100811181C80169830E945B
:101C1000E4366981681719F0C8010E94EC36C701E3
:101C20000F90DF91CF911F910F91FF90EF9008954A
:101C3000CF93DF9300D0CDB7DEB7FC01648B8EE08D
:101C400090E09A838983CE0101960E94F80D0F904F
:101C50000F90DF91CF910895EF92FF920F931F9312
:101C6000CF93DF9300D0CDB7DEB721E0FC01228710
:101C700046835783608771878C010A5F1F4F88E80E
:101C8000E82E83E0F82EF80161918F01FA82E98253
:101C9000CE0101960E94F80DFFEFEF1AFF0A8CE8C3
:101CA000E81683E0F80679F70F900F90DF91CF9157
:101CB0001F910F91FF90EF9008950F931F93CF9373
:101CC000DF9300D000D000D0CDB7DEB78C0169E043
:101CD00072E0CE0101960E945E22BE016F5F7F4FCF
:101CE000C8010E94A720182FCE0101960E945922F8
:101CF00081E0111101C080E026960FB6F894DEBF96
:101D00000FBECDBFDF91CF911F910F910895FC01C0
:101D1000248D293469F521E0248320A5233561F43D
:101D20006C3411F46EE41FC06F3411F461E31BC016
:101D30006434C9F463E517C02F3461F46C3411F4D2
:101D400060E511C06F3411F462E30DC0643459F4DE
:101D50006FE409C0243539F46C3429F0613419F08A
:101D60006F3419F463E30C94C71A6434E1F7DECFDF
:101D700008958F929F92AF92BF92CF92DF92EF928F
:101D8000FF92C62E0E94C3234B015C0184E6C89ECD
:101D9000600111240D2C000CEE08FF080E94C323E3
:101DA000DC01CB0188199909AA09BB098C159D058D
:101DB000AE05BF0598F3FF90EF90DF90CF90BF90F6
:101DC000AF909F908F900895EF92FF920F931F9383
:101DD000CF93DF9300D000D000D0CDB7DEB77B012A
:101DE000122FBA01C7010E946D208823A9F0202F6D
:101DF00030E0412F50E0B701CE0101960E948522CC
:101E0000BE016F5F7F4FC7010E947E21CE01019608
:101E10000E94592281E001C080E026960FB6F89416
:101E2000DEBF0FBECDBFDF91CF911F910F91FF900D
:101E3000EF900895CF92DF92EF92FF920F93CF939E
:101E4000DF9300D000D000D0CDB7DEB76C017B01AE
:101E5000FB010481035066EC71E0CE0101960E9403
:101E6000702225E0AE014F5F5F4FB701C6010E94AF
:101E7000E40E082FCE0101960E945922802F26964B
:101E80000FB6F894DEBF0FBECDBFDF91CF910F919B
:101E9000FF90EF90DF90CF9008958F929F92AF9236
:101EA000BF92CF92DF92EF92FF920F93CF93DF9387
:101EB000CDB7DEB72C970FB6F894DEBF0FBECDBFFF
:101EC0005C016B01FB010481015063E771E0CE010D
:101ED00007960E947022F60184819581892B69F012
:101EE000808091806F817885C4010E942736009799
:101EF00021F07C01E818F90803C0EE24EA94FE2CD6
:101F00006BEC71E0CE0101960E94702221E02E0D53
:101F1000AE014F5F5F4FB601C5010E94E40E082F6E
:101F2000CE0101960E945922CE0107960E945922A5
:101F3000802F2C960FB6F894DEBF0FBECDBFDF9179
:101F4000CF910F91FF90EF90DF90CF90BF90AF9027
:101F50009F908F900895CF93DF93EC018D8981112D
:101F600012C061E084E00E94572381E08D8B0E94C3
:101F7000C323688F798F8A8F9B8F61E0CE01DF91B9
:101F8000CF910C94B90E0E94C323688F798F8A8FEA
:101F90009B8FDF91CF910895FF920F931F93CF9363
:101FA000DF93EC018B01F42E0E94AB0F63E671E02E
:101FB000C8010E9488200EA4DFA5C02D811114C085
:101FC000F8014481558160817181E881F981028045
:101FD000F381E02DCE01F11006C0DF91CF911F916A
:101FE0000F91FF9009940995CE01DF91CF911F9138
:101FF0000F91FF900C94CB220F931F93CF93DF93FD
:10200000CDB7DEB72C970FB6F894DEBF0FBECDBFAD
:10201000FC01A081B18154969C919D7F913409F07F
:1020200071C08F0181E08487CF010E94AB0FD8017E
:102030009E968D919C919F97DC01ED91FC9102847D
:10204000F385E02D099563E671E0CE0107960E94C5
:10205000702261ED71E0CE0107960E942B22F801FB
:1020600060817181CE0101960E94E20CBE016F5F1A
:102070007F4FCE0107960E947721CE0101960E94E4
:10208000592268ED71E0CE0107960E946821BE01D9
:10209000695F7F4FCE0101960E94672241E0BE0139
:1020A0006F5F7F4FC8010E94CC0FCE0101960E9446
:1020B000592261E0C8010E94B90E63E671E0CE01C9
:1020C00001960E94702241E0BE016F5F7F4FC80100
:1020D0000E94CC0FCE0101960E9459220E94C32378
:1020E000D8011F966D937D938D939C93529782E5B3
:1020F0005C968C935C978FE45D968C93CE010796EB
:102100000E9459222C960FB6F894DEBF0FBECDBFA9
:10211000DF91CF911F910F9108950F931F93CF934C
:10212000DF93FC01A081B1818C91882379F1C0A952
:10213000CC2361F180A1811103C096A1961749F1CA
:10214000948D9E3429F5958D9E3411F5C1A5CC232F
:1021500001F181111DC0D62F8F011D968C9188230E
:1021600059F00E94C323F80161A372A383A394A32F
:10217000D5A381E080A30DC066A381E087A3C80139
:102180000E94AB0FC8010E94FC0F03C0C1E001C058
:10219000C0E08C2FDF91CF911F910F9108950F9385
:1021A0001F93CF93DF9300D000D000D0CDB7DEB720
:1021B0008C01DC019E968D919C919F97DC01ED91A5
:1021C000FC910284F385E02D09956EEF71E0CE015C
:1021D00001960E945E2241E0BE016F5F7F4FC80101
:1021E0000E94CC0FCE0101960E945922F80186A5CB
:1021F00097A5DC01ED91FC910284F385E02D099512
:1022000026960FB6F894DEBF0FBECDBFDF91CF91FB
:102210001F910F9108950C94003C08950F931F9304
:10222000CF93DF93EC0141110EC08AA581110BC041
:10223000662319F16FE48A819B81DF91CF911F9111
:102240000F910C94870E022F162F1EAE61E08DE0C9
:102250000E9457230E94C323FE01E45BFF4F60836B
:10226000718382839383319781E080831AA660E033
:1022700080E10E9457231EA308A7DF91CF911F91F1
:102280000F9108951F93CF93DF93EC01162F1CA697
:102290008BA5882319F089A5811111C0111107C0E0
:1022A0006EE48A819B810E948D108C8338C06CE41F
:1022B0008A819B81DF91CF911F910C94870E8AA513
:1022C000811125C0FE01E55AFF4F8081811123C095
:1022D00060E08DE00E94572360E08CE00E9457236D
:1022E00061E081E10E9457230E94C323FE01EA5B63
:1022F000FF4F6083718382839383329781E0808371
:102300008AA761E080E10E9457231FA308C0112320
:1023100031F06FE4CDCF112319F264E5C9CFDF911D
:10232000CF911F910895FC0123A581A5222321F0BF
:10233000882331F081E00895882311F084E0089526
:1023400082E00895CF93DF93FC0182A581110FC035
:1023500081A5882361F083A5882349F0EF0181E0FE
:1023600084A70E94C3236DA77EA78FA798ABDF9198
:10237000CF9108951F93CF93DF93EC01162FE8813F
:10238000F981838581110CC08AA581111EC08BA59E
:102390008823D9F061E08DE00E9457231CA615C068
:1023A000FE01E55BFF4F808181110FC08BA5882363
:1023B00061F060E08DE00E945723112331F0CE01DF
:1023C000DF91CF911F910C94A211DF91CF911F91BA
:1023D00008950F931F93CF93DF93EC018901FB01C5
:1023E000808189A7FA0180818AA7882311F061E0A2
:1023F00001C060E080E10E945723F80180818BA733
:10240000882319F199A5992301F1E881F981938530
:10241000911107C0882319F08AA5811118C061E0C5
:102420000AC0882351F061E082E10E94572389A508
:10243000882369F060E08DE002C060E082E1DF9116
:10244000CF911F910F910C9457231CA6DECFDF91E3
:10245000CF911F910F910895EF92FF920F931F93C9
:10246000CF93DF937B018A01E901FC01E15AFF4F21
:102470001082F8948AE00E942E2331E0892B09F41F
:1024800030E0F70130838BE00E942E2331E0892B6E
:1024900009F030E0F801308383E00E942E2331E020
:1024A000892B09F430E038837894DF91CF911F9124
:1024B0000F91FF90EF9008950F931F93CF93DF93A9
:1024C00000D01F92CDB7DEB78C019E012F5F3F4F2A
:1024D000AE014E5F5F4FBE016D5F7F4F0E942C12B9
:1024E0009E012F5F3F4FAE014E5F5F4FBE016D5F9C
:1024F0007F4FC8010E94E9118A810F900F900F90C1
:10250000DF91CF911F910F9108951F920F920FB6F7
:102510000F9211240F900FBE0F901F9018951F92CD
:102520000F920FB60F9211242F933F934F935F9307
:102530006F937F938F939F93AF93BF93EF93FF938B
:1025400089E00E942E2390914902891304C081E002
:102550008093B90209C091E0811101C090E090938D
:10256000490281E080934802FF91EF91BF91AF91C2
:102570009F918F917F916F915F914F913F912F919B
:102580000F900FBE0F901F9018951F920F920FB6CD
:102590000F9211242F933F934F935F936F937F93E9
:1025A0008F939F93AF93BF93EF93FF930E94C323A7
:1025B0006093BC027093BD028093BE029093BF02F1
:1025C00081E08093BB02FF91EF91BF91AF919F910A
:1025D0008F917F916F915F914F913F912F910F90CC
:1025E0000FBE0F901F9018951F920F920FB60F926B
:1025F00011248F9381E08093BA028F910F900FBEC8
:102600000F901F9018955F926F927F928F929F927A
:10261000AF92BF92CF92DF92EF92FF920F931F93F0
:10262000CF93DF93CDB7DEB768970FB6F894DEBFD0
:102630000FBECDBF7C01062FD42E122F60937003E6
:10264000BC01CE0143960E94672260E473E0CE0194
:1026500001960E945E22BE016F5F7F4FC7010E94FC
:102660006D20C82ECE0101960E945922CC2019F06F
:102670000E9442276FC667E373E0CE0101960E9475
:102680005E22BE016F5F7F4FC7010E946D20C82E82
:10269000CE0101960E945922CC2011F1E0905D03F9
:1026A000F0905E03002319F0F701108203C081E06F
:1026B000F7018083B7018CE291E00E94DC24F701EE
:1026C0001182B7016F5F7F4F8AE190E00E94DC24A6
:1026D000F7011282B7016E5F7F4F86E190E038C646
:1026E0006FE273E0CE0101960E945E22BE016F5F31
:1026F0007F4FC7010E946D20C82ECE0101960E9417
:102700005922CC2009F45DC060E080915D03909176
:102710005E030E94D20CE0915D03F0915E03168689
:10272000BF01625F7F4F82E390E00E94DC24E09172
:102730005D03F0915E031586BF01635F7F4F8AE3FF
:1027400090E00E94DC24E0915D03F0915E0314862A
:10275000BF01645F7F4F86E390E00E94DC24E0913C
:102760005D03F0915E03138ABF016D5E7F4F8CE0C5
:1027700090E00E94DC2463E480915D0390915E030D
:102780000E94180EE0915D03F0915E0382E390E0F9
:10279000908B8787BF01615F7F4F84E090E00E944C
:1027A000AB24E0915D03F0915E0382E090E0928BB8
:1027B000818BBF016F5E7F4F82E190E00E94AB246E
:1027C000C9C56BE273E0CE0101960E945E22BE0194
:1027D0006F5F7F4FC7010E946D20C82ECE0101960A
:1027E0000E945922CC2009F47AC0E0905D03F09059
:1027F0005E0363E671E0CE010D960E94702210E048
:10280000F7018081181708F048C0FBE01F9FA00166
:102810001124405D5E4F2AE0B701CE0101960E946F
:10282000EC0BBE01635F7F4FCE0107960E946722CB
:102830004D815E8169817A81CE0107960E940921CE
:10284000811104C0CE0107960E94B721BE01695FC5
:102850007F4FCE010D960E944222CE0107960E9424
:102860005922CE0101960E945922BE01635F7F4F1B
:10287000CE0101960E94672262E671E0CE010196C8
:102880000E94C921BC01CE010D960E944222CE01B8
:1028900001960E9459221F5FB3CF63E671E0CE011B
:1028A0000D960E948820882331F061E273E0CE010A
:1028B0000D960E94E221BE01635F7F4FCE0101961B
:1028C0000E94672240E061E0CE0101960E94891DCE
:1028D000CE0101960E945922CE010D9669C56BE189
:1028E00073E0CE0101960E945E22BE016F5F7F4FB2
:1028F000C7010E946D20C82ECE0101960E94592268
:10290000CC2029F08DE593E00E940B116DC567E1A5
:1029100073E0CE0101960E945E22BE016F5F7F4F81
:10292000C7010E946D20C82ECE0101960E94592237
:10293000CC2019F00E94DC263DC560E173E0CE0199
:1029400001960E945E22BE016F5F7F4FC7010E9409
:102950006D20C82ECE0101960E945922CC2011F084
:1029600061E014C068E073E0CE0101960E945E222F
:10297000BE016F5F7F4FC7010E946D20C82ECE0140
:1029800001960E945922CC2079F060E080915D038D
:1029900090915E030E94D20C61E080915F03909160
:1029A00060030E94BA11D6C462E073E0CE010196C2
:1029B0000E945E22BE016F5F7F4FC7010E946D20A3
:1029C000C82ECE0101960E945922CC2039F0E09108
:1029D0005D03F0915E0381E0848718C06BEF72E0C5
:1029E000CE0101960E945E22BE016F5F7F4FC7013C
:1029F0000E946D20C82ECE0101960E945922CC2043
:102A000059F0E0915D03F0915E031486BF01645FAD
:102A10007F4F86E390E09CC465EF72E0CE010196A3
:102A20000E945E22BE016F5F7F4FC7010E946D2032
:102A3000C82ECE0101960E945922CC2039F0E09197
:102A40005D03F0915E0381E0838B18C06EEE72E04F
:102A5000CE0101960E945E22BE016F5F7F4FC701CB
:102A60000E946D20C82ECE0101960E945922CC20D2
:102A700059F0E0915D03F0915E03138ABF016D5E32
:102A80007F4F8CE090E064C468EE72E0CE01019666
:102A90000E945E22BE016F5F7F4FC7010E946D20C2
:102AA000C82ECE0101960E945922CC2011F063E479
:102AB00014C062EE72E0CE0101960E945E22BE0159
:102AC0006F5F7F4FC7010E946D20C82ECE01019617
:102AD0000E945922CC2041F061E480915D039091E5
:102AE0005E030E94180E36C46CED72E0CE010196B2
:102AF0000E945E22BE016F5F7F4FC7010E946D2062
:102B0000C82ECE0101960E945922CC2039F0E091C6
:102B10005D03F0915E0381E0868718C065ED72E089
:102B2000CE0101960E945E22BE016F5F7F4FC701FA
:102B30000E946D20C82ECE0101960E945922CC2001
:102B400059F0E0915D03F0915E031686BF01625F6C
:102B50007F4F82E390E0FCC36EEC72E0CE01019601
:102B60000E945E22BE016F5F7F4FC7010E946D20F1
:102B7000C82ECE0101960E945922CC2009F476C1BC
:102B800067EC72E0C7010E94E2214AE15FE060E089
:102B900070E0C7010E946C26882339F0C7010E94AB
:102BA0006220162F110F160F01C01FEF65E08DE593
:102BB00093E00E94B90E60EC72E0C7010E94E2212E
:102BC0004DE45FE060E070E0C7010E946C2688235E
:102BD00009F455C063E771E0CE0107960E947022A8
:102BE000F701848195812B853C856C01C21AD30A3B
:102BF0002115310551F1009741F18217930728F112
:102C0000C816D90620F06C01F1E0CF1AD108F701FF
:102C1000608071808F809884C30155245A940FEF8F
:102C20005301AC0CBD1CA816B90690F0B4010E946B
:102C30002736009769F0AC0146195709C416D50626
:102C400010F0542E052F0196EECF2FEF3FEF02C06C
:102C5000252D302F40E050E0B701CE0101960E94B3
:102C60008522CE0101960E946220062FCE01019698
:102C70000E945922CE0107960E94592201C00FEFEF
:102C8000C0905F03D0906003C6010E949311F82E9C
:102C9000F601D2A463E671E0CE0107960E9470228D
:102CA000E0915D03F0915E038385882319F06FE561
:102CB00072E002C067E572E0CE0107960E94E22151
:102CC000BE01695F7F4FCE0101960E9467226AEDC7
:102CD00071E0CE0101960E94C921BC01CE01079688
:102CE0000E944222CE0101960E945922F1E0FF1675
:102CF00041F022E0F21651F057E4E52E52E0F52EB5
:102D000009C04BE3E42E42E0F42E04C03DE4E32E80
:102D100032E0F32EBE01695F7F4FCE0101960E9423
:102D20006722B701CE0101960E94A033BC01CE01FB
:102D300007960E944222CE0101960E945922BE01AE
:102D4000695F7F4FCE0101960E94672260E472E0C6
:102D5000CE0101960E94A033BC01CE0107960E94CD
:102D60004222CE0101960E945922D11005C020E3D3
:102D7000E22E22E0F22E04C096E3E92E92E0F92E34
:102D8000BE01695F7F4FCE0101960E946722B701A5
:102D9000CE0101960E94A033BC01CE0107960E948D
:102DA0004222CE0101960E9459220F3F59F1BE01E5
:102DB000695F7F4FCE0101960E94672269E272E04F
:102DC000CE0101960E94A033BC01CE0107960E945D
:102DD0004222CE0101960E945922BE01695F7F4FB7
:102DE000CE0101960E946722602FCE0101960E94BB
:102DF000AE33BC01CE0107960E944222CE0101965D
:102E00000E9459221F3F59F1BE01695F7F4FCE01D9
:102E100001960E9467226FE172E0CE0101960E9446
:102E2000A033BC01CE0107960E944222CE0101963A
:102E30000E945922BE01695F7F4FCE0101960E9418
:102E40006722612FCE0101960E94AE33BC01CE01F4
:102E500007960E944222CE0101960E94592240E02C
:102E600061E0CE0107960E94891DA0C26BEB72E063
:102E7000CE0101960E945E22BE016F5F7F4FC701A7
:102E80000E946D20882321F0002319F011E001C079
:102E900010E0CE0101960E945922112359F0E091D1
:102EA0005D03F0915E038281882309F49DC281E075
:102EB000818318C065EB72E0CE0101960E945E220C
:102EC000BE016F5F7F4FC7010E946D20182FCE019A
:102ED00001960E945922112359F0E0915D03F0916F
:102EE0005E031182BF016F5F7F4F8AE190E030C2C5
:102EF000F701048101506FEA72E0CE0101960E9451
:102F00005E2225E0AE014F5F5F4FB7018DE593E094
:102F10000E94E40E182FCE0101960E94592211231F
:102F2000F1F0C7010E946925882309F45DC2C70139
:102F30000E9462208B016630710510F005E010E000
:102F4000E0915D03F0915E030587BF01635F7F4FF2
:102F50008AE390E00E94DC2469EA72E07BC0F7011A
:102F60000481015060EA72E0CE0101960E945E2267
:102F700028E0AE014F5F5F4FB7018DE593E00E94FF
:102F8000E40E182FCE0101960E945922112329F137
:102F9000C7010E946925882309F426C2C7010E943F
:102FA00062208B016230710530F0613B744028F083
:102FB00000EB14E002C002E010E0E0915D03F0914C
:102FC0005E03128B018BBF016F5E7F4F82E190E049
:102FD0000E94AB2467E972E03DC0F7010481015013
:102FE0006EE872E0CE0101960E945E2228E0AE01FA
:102FF0004F5F5F4FB7018DE593E00E94E40E182FFD
:10300000CE0101960E945922112371F1C7010E943D
:103010006925882309F4E8C1C7010E9462208B0159
:103020006233710530F06138704728F000E810E72E
:1030300002C002E310E0E0915D03F0915E03108BAB
:103040000787BF01615F7F4F84E090E00E94AB245F
:1030500065E872E0CE0143960E94E221B801CE01FC
:1030600043960E94703376C1F7010481015061E8F4
:1030700072E0CE0101960E945E2223E0AE014F5F16
:103080005F4FB7018DE593E00E94E40E182FCE014B
:1030900001960E945922112351F163E671E0CE019D
:1030A00007960E94702265E772E0CE0107960E94A3
:1030B000E221B701CE0107960E94772164EA71E010
:1030C000CE0107960E94682181E080937103BE01C2
:1030D000695F7F4FCE0101960E94672241E0BE01E9
:1030E0006F5F7F4F8DE593E00E94CC0F5BC16FED6A
:1030F00071E0CE0101960E9470220CE022E0AE0148
:103100004F5F5F4FB7018DE593E00E94E40E182FEB
:10311000CE0101960E945922112309F448C0C7012B
:103120000E946925882309F45FC100915D03109115
:103130005E03F8018081823008F456C1B701C801EE
:103140000E94870DF82E8FEF8F0D8D3F08F04CC138
:103150008BE0E82E2F2D30E0F8019081492F50E0D0
:103160004150510924173507FCF42F5F3F4FE29E71
:103170005001E39EB00C1124A501405D5E4F2AE092
:10318000B801CE0101960E94EC0BB5016B5D7E4F3C
:10319000AE014F5F5F4FC8010E94570CCE010196F0
:1031A0000E945922F394D6CF9150908348C063EE89
:1031B00071E0CE0101960E9470220CE022E0AE0187
:1031C0004F5F5F4FB7018DE593E00E94E40E182F2B
:1031D000CE0101960E9459221123A9F1C7010E9434
:1031E0006925882309F400C100915D0310915E03F5
:1031F000F80180818F3009F4F7C0B701C8010E943F
:10320000870D8F3F09F0F0C0B701CE0101960E94F3
:103210006722F8016081FBE06F9FB0011124605DBF
:103220007E4FAE014F5F5F4FC8010E94570CCE0129
:1032300001960E945922F80180818F5F8083B80136
:103240008CE291E085C062EE71E0CE0101960E94B1
:1032500070220DE023E0AE014F5F5F4FB7018DE5B7
:1032600093E00E94E40E182FCE0101960E9459228D
:10327000112351F1C7010E946925882309F4B4C0C4
:1032800000915D0310915E03F8018081882309F4A9
:10329000ABC081E08283B8016E5F7F4F86E190E032
:1032A0000E94DC24B701CE0101960E946722AE0184
:1032B0004F5F5F4F6EE170E0C8010E94570CCE0176
:1032C00001960E94592246C066EE71E0CE01019639
:1032D0000E9470220DE023E0AE014F5F5F4FB70107
:1032E0008DE593E00E94E40E182FCE0101960E9416
:1032F0005922112309F478C0C7010E946925882347
:1033000009F472C000915D0310915E0381E0F80141
:103310008383B8016D5F7F4F88E590E00E94DC24D5
:10332000B701CE0101960E946722AE014F5F5F4F49
:1033300060E670E0C8010E94570CCE0101960E9421
:103340005922F8011482B8016C5F7F4F8CE590E040
:103350000E94DC2411E0D1102DC063E671E0CE01A3
:1033600007960E947022112319F06FE672E002C0E6
:1033700066E672E0CE0107960E94E221BE016D5E14
:103380007F4FCE0107960E947721BE01695F7F4F74
:10339000CE0101960E94672240E061E0CE010196D5
:1033A0000E94891DCE0101960E945922CE010796E6
:1033B0000E945922CE0143960E94592268960FB668
:1033C000F894DEBF0FBECDBFDF91CF911F910F915B
:1033D000FF90EF90DF90CF90BF90AF909F908F9035
:1033E0007F906F905F90089510E0B5CFEF92FF92BD
:1033F0000F931F93CF93DF9300D0CDB7DEB78C012F
:103400007B01FB0160819A838983CE0101960E9432
:10341000F80DF70161810F5F1F4F1A830983CE01F9
:1034200001960E94F80DC7010F900F90DF91CF9188
:103430001F910F91FF90EF9008958DE593E00E940A
:10344000CF100E94C32360936C0370936D0380932D
:103450006E0390936F0308950F931F93CF93DF93A1
:10346000CDB7DEB72C970FB6F894DEBF0FBECDBF39
:1034700065EA73E0CE0107960E945E2268EA71E079
:10348000CE0107960E94682161EA73E0CE0107969B
:103490000E94D9200DE513E0D8019E968D919C9154
:1034A0009F97DC01ED91FC910284F385E02D099555
:1034B000BE01695F7F4FCE0101960E94672241E005
:1034C000BE016F5F7F4FC8010E94CC0FCE010196F5
:1034D0000E945922F80186A597A5DC01ED91FC9187
:1034E0000284F385E02D0995CE0107960E945922AA
:1034F0002C960FB6F894DEBF0FBECDBFDF91CF91F3
:103500001F910F910895FC01A089B18982E08C93ED
:10351000A485B5851C92A685B78583E38C93108E10
:10352000A489B58986E08C93A289B3898C91806146
:103530008C93A289B3898C9188608C93A289B3897A
:103540008C9180688C930288F389E02D80818F7D37
:103550008083089580917103811111C09091790346
:103560009E3471F490917A039E3451F480918603D5
:10357000882331F09091840381E08927089580E0C9
:103580000895E0E6F0E088E18083108208951F93BB
:10359000CF93DF93EC01162F8EA59FA5DC01ED9153
:1035A000FC910284F385E02D0995CE010E94CF1095
:1035B0000E94C3236E837F838887998781E08A87EF
:1035C0001EA31B87DF91CF911F910895CF93DF93A7
:1035D00020E041E060E08AE592E00E940E11CAE539
:1035E000D2E065E58A819B810E948D108E83DF91F8
:1035F000CF910895CF93DF93DC0114962D913C91E8
:103600001597232B09F4DAC0ED91FC91309709F45A
:10361000D5C08081813371F483E5809385030E9456
:103620001D1A61E080915F0390916003DF91CF915B
:103630000C944211823381F48FE4809385030E94BD
:103640001D1A20E040E061E080915F0390916003EB
:10365000DF91CF910C940E11833311F584E58093A3
:1036600085030E941D1AC0915F03D0916003CE01B3
:103670000E945C12882311F064E406C0CE010E940F
:103680009311843021F46CE48A819B8193C0823051
:1036900011F461E4F9CF813009F090C06FE4F4CF08
:1036A0008433E1F487E5809385030E941D1AE0913D
:1036B0005F03F0916003DF01A45ABF4F3C91119664
:1036C0002C9112974C918281938141116EC03111DE
:1036D0006EC0222309F46DC062E56CC08434C9F465
:1036E00081E38093850361E080915D0390915E03A7
:1036F0000E94D20C61E080915F03909160030E9470
:10370000BA1160E080915F03909160030E944211C2
:1037100015C08334B9F482E38093850360E080911F
:103720005D0390915E030E94D20C21E040E060E0D6
:1037300080915F03909160030E940E11DF91CF9101
:103740000C942C1A8833A9F40E941D1A61E0809110
:103750005D0390915E030E94D20C61E080915F0353
:10376000909160030E94BA1181E08093610368E345
:1037700016C0893319F50E941D1A60E080915D031F
:1037800090915E030E94D20C61E080915F03909162
:1037900060030E94BA1181E08093610369E38DE5C3
:1037A00093E0DF91CF910C94C71A64E503C061E503
:1037B00001C065E4DF91CF910C94870EDF91CF912A
:1037C0000895EF92FF920F931F93CF93DF9300D052
:1037D00000D000D0CDB7DEB77C016AEE71E0CE013B
:1037E00001960E94702208E027E0AE014F5F5F4F14
:1037F000B7018DE593E00E94E40E182FCE010196EB
:103800000E945922812F26960FB6F894DEBF0FBE74
:10381000CDBFDF91CF911F910F91FF90EF90089551
:103820000F931F93CF93DF9300D000D000D0CDB77C
:10383000DEB70DE513E0D8015E961C925E971C96EC
:103840001C921C979E968D919C919F97DC01ED9107
:10385000FC910284F385E02D099562EF71E0CE01C1
:1038600001960E94702241E0BE016F5F7F4FC80148
:103870000E94CC0FCE0101960E9459220E94C323C0
:1038800061E0C8010E94B90E63E671E0CE010196C5
:103890000E94702241E0BE016F5F7F4FC8010E940D
:1038A000CC0FCE0101960E945922F80186A597A55A
:1038B000DC01ED91FC910284F385E02D0995F8017E
:1038C00017A2178E14828EE4848F858F0E94C323E3
:1038D000D8019A966D937D938D939C939D9799961D
:1038E0001C9226960FB6F894DEBF0FBECDBFDF91B7
:1038F000CF911F910F910895EF92FF920F931F9315
:10390000CF93DF9300D000D000D0CDB7DEB77C01DD
:1039100064E973E0CE0101960E945E220CE02BE088
:10392000AE014F5F5F4FB7018DE593E00E94E40E5B
:10393000182FCE0101960E945922111144C067E848
:1039400073E0CE0101960E945E222BE0AE014F5F34
:103950005F4FB7018DE593E00E94E40E182FCE0172
:1039600001960E945922111130C06AE773E0CE011E
:1039700001960E945E222BE0AE014F5F5F4FB701C0
:103980008DE593E00E94E40E182FCE0101960E946F
:10399000592211111CC06DE673E0CE0101960E9400
:1039A0005E222BE0AE014F5F5F4FB7018DE593E0E4
:1039B0000E94E40EF82ECE0101960E945922F110C9
:1039C00008C08EE407C084E405C082E503C089E432
:1039D00001C085E426960FB6F894DEBF0FBECDBFBA
:1039E000DF91CF911F910F91FF90EF900895FF927B
:1039F0000F931F93CF93DF93CDB7DEB72C970FB6FE
:103A0000F894DEBF0FBECDBF8C0161E673E0CE013E
:103A100001960E945E22B801CE0107960E9467229D
:103A2000BE016F5F7F4FCE0107960E94A720F82E40
:103A3000CE0107960E945922CE0101960E9459227A
:103A4000FF2011F081E059C06BE573E0CE010196D3
:103A50000E945E22B801CE0107960E946722BE0135
:103A60006F5F7F4FCE0107960E94A720F82ECE01F0
:103A700007960E945922CE0101960E945922F11008
:103A8000E1CF60E573E0CE0107960E945E22B801A7
:103A9000CE0101960E946722BE01695F7F4FCE0171
:103AA00001960E94A720F82ECE0101960E9459226D
:103AB000CE0107960E945922F110C4CF6AEF71E03F
:103AC000CE0107960E947022B801CE0101960E9495
:103AD0006722BE01695F7F4FCE0101960E94A72039
:103AE000182FCE0101960E945922CE0107960E94FE
:103AF000592281E0111101C080E02C960FB6F89494
:103B0000DEBF0FBECDBFDF91CF911F910F91FF9010
:103B10000895EF92FF920F931F93CF93DF93CDB74A
:103B2000DEB762970FB6F894DEBF0FBECDBF7C0143
:103B3000062F142F81E08093690380918B0390916D
:103B40008C03DC01ED91FC910284F385E02D099555
:103B500063E671E0CE010D960E947022011127C02C
:103B6000809183038F34B1F034F4833499F0863438
:103B700009F0F3C00FC0833521F0853509F0EDC0A1
:103B800009C061E072E0CE010D960E942B2268E030
:103B900072E008C061E072E0CE010D960E942B2217
:103BA0006BE072E0CE010D960E94682105C0B7015E
:103BB000CE010D960E94422263E671E0CE01079687
:103BC0000E9470226FE072E0CE0107960E942B22C5
:103BD0001230B9F460915D0370915E03FB01838143
:103BE000882341F02AE040E650E0CE0101960E9491
:103BF000EC0B1AC063E671E0CE0101960E947022C0
:103C000013C080917003882339F065E473E0CE011E
:103C100007960E94D92013C060915D0370915E03E6
:103C2000CE0101960E94E20CBE016F5F7F4FCE0174
:103C300007960E947721CE0101960E94592264EADC
:103C400071E0CE0107960E94682180918B039091CC
:103C50008C03DC01ED91FC910284F385E02D099544
:103C6000BE01695F7F4FCE0101960E94672241E04D
:103C7000BE016F5F7F4F8DE593E00E94CC0FCE01B8
:103C800001960E94592280918B0390918C03DC0154
:103C9000ED91FC910284F385E02D09956AE08DE5B4
:103CA00093E00E94B90EBE01635F7F4FCE01019683
:103CB0000E94672241E0BE016F5F7F4F8DE593E078
:103CC0000E94CC0FCE0101960E94592280918B0355
:103CD00090918C03DC01ED91FC910284F385E02D41
:103CE00009956AE08DE593E00E94B90E80918B03FF
:103CF00090918C03DC01ED91FC910284F385E02D21
:103D000009958DE593E00E94AB0F00918B03109114
:103D10008C03D801ED91FC910190F081E02D6AE1D6
:103D2000C8010995C8010E94CB2280918B03909114
:103D30008C03DC01ED91FC910284F385E02D099563
:103D40006AE08DE593E00E94B90E10927003109224
:103D50006903CE0107960E945922CE010D960E945A
:103D6000592262960FB6F894DEBF0FBECDBFDF9129
:103D7000CF911F910F91FF90EF900895CF93DF9314
:103D800000D000D000D0CDB7DEB790917C03911168
:103D900019C0E0915D03F0915E039489913491F430
:103DA0008093830363E671E0CE0101960E94702246
:103DB00040E060E0CE0101960E94891DCE0101968F
:103DC0000E94592226960FB6F894DEBF0FBECDBFD3
:103DD000DF91CF910895EF92FF920F931F93CF93AE
:103DE000DF9300D0CDB7DEB78C017B0163E671E0D5
:103DF0000E947022C7010E94CF2397FD0EC08A3017
:103E0000910559F089831A8241E050E0BE016F5F4D
:103E10007F4FC8010E940921EDCFC8010F900F907C
:103E2000DF91CF911F910F91FF90EF90089508952A
:103E3000CF92DF92EF92FF920F931F93CF93DF9376
:103E40006C017A018B01C0E0D0E0CE15DF0589F06E
:103E5000D8016D918D01D601ED91FC910190F08119
:103E6000E02DC6010995892B11F47E0102C021962F
:103E7000ECCFC701DF91CF911F910F91FF90EF9091
:103E8000DF90CF900895FC01918D828D981761F09D
:103E9000828DDF01A80FB11D5D968C91928D9F5F81
:103EA0009F73928F90E008958FEF9FEF0895FC012C
:103EB000918D828D981731F0828DE80FF11D858DDF
:103EC00090E008958FEF9FEF0895FC01918D228D72
:103ED000892F90E0805C9F4F821B91098F739927F7
:103EE000089580EC92E00E94651F21E0892B09F47F
:103EF00020E0822F0895FC01848DDF01A80FB11D01
:103F0000A35ABF4F2C91848D90E001968F7399270F
:103F1000848FA689B7892C93A089B1898C918064FC
:103F20008C93938D848D981306C00288F389E02DBD
:103F300080818F7D80830895EF92FF920F931F936E
:103F4000CF93DF93EC0181E0888F9B8D8C8D98134C
:103F500005C0E889F989808185FD24C0F62E0B8D86
:103F600010E00F5F1F4F0F731127E02E8C8DE812AA
:103F70000CC00FB607FCFACFE889F989808185FF6C
:103F8000F5CFCE010E947B1FF1CF8B8DFE01E80F94
:103F9000F11DE35AFF4FF0820B8FEA89FB89808184
:103FA000806207C0EE89FF896083E889F989808192
:103FB0008064808381E090E0DF91CF911F910F9129
:103FC000FF90EF900895CF93DF93EC01888D8823C5
:103FD000C9F0EA89FB89808185FD05C0A889B98976
:103FE0008C9186FD0FC00FB607FCF5CF808185FF51
:103FF000F2CFA889B9898C9185FFEDCFCE010E94BF
:104000007B1FE7CFDF91CF91089580E090E0892B6F
:1040100029F00E94711F81110C94000008958330D3
:1040200081F028F4813099F08230A1F00895873032
:10403000A9F08830B9F08430D1F4809180008F7D70
:1040400003C0809180008F7780938000089584B5AD
:104050008F7702C084B58F7D84BD08958091B000B4
:104060008F7703C08091B0008F7D8093B00008955A
:1040700008950E94DC350F931F93CF93DF93EC01DB
:1040800088819981009729F02A813B81261737077B
:1040900088F48B016F5F7F4F0E941235009761F0AB
:1040A000998388831B830A832C813D81232B11F400
:1040B000FC01108281E001C080E0DF91CF911F916F
:1040C0000F910895FC0180819181009711F00C946B
:1040D000413660E070E0CB010895FB0144815581D9
:1040E000FC01248135812417350778F08081918186
:1040F000009759F0FB01608171816115710529F00C
:104100000E940A3621E0892B09F020E0822F0895D1
:10411000FC0124813581232B31F421E061157105E7
:10412000A1F0FB0108C0FC0180819181611571053E
:1041300031F421E0FC018081882339F005C00E9420
:10414000FA3521E0892B09F020E0822F0895FC0147
:1041500024813581FB01448155812417350721F5E0
:10416000FC0180819181FB0160817181009719F0D0
:1041700061157105A1F46115710549F0232BB1F0AA
:10418000FB01808190E09195819591090AC000978B
:1041900069F0232B59F0FC01808190E002C00E945D
:1041A000FA3521E0892B19F020E001C021E0822FAF
:1041B0000895EF92FF920F931F93CF93DF936115B2
:1041C000710511F480E01EC08B01EC01CB010E944F
:1041D0006F360097B1F02C813D817C01E20EF31E19
:1041E000B701CE010E943B20882361F328813981E9
:1041F0008C819D81B801820F931F0E946836FD82D9
:10420000EC8281E0DF91CF911F910F91FF90EF90B1
:104210000895EF92FF920F931F93CF93DF93FC01CA
:10422000248135816115710511F480E019C04115B3
:104230005105A9F07B01EC018A01020F131FB8019F
:104240000E943B20882389F3288139818C819D81BC
:10425000B701820F931F0E9403361D830C8381E0F8
:10426000DF91CF911F910F91FF90EF900895EF9202
:10427000FF920F931F93CF93DF93CDB7DEB72D97A8
:104280000FB6F894DEBF0FBECDBF7C01CB01BA01E3
:104290002AE08E010F5F1F4FA8010E949836F80197
:1042A00001900020E9F73197AF01401B510BB80195
:1042B000C7010E9409212D960FB6F894DEBF0FBEEC
:1042C000CDBFDF91CF911F910F91FF90EF90089597
:1042D0006115710551F0FB0101900020E9F731975C
:1042E000AF01461B570B0C94092180E00895FB0198
:1042F00044815581608171810C9409210F931F9332
:10430000CF93DF938C01EB01FC01808191810097B9
:10431000B1F0688179816115710579F0428153812D
:104320002C813D814217530740F00E9403368C8157
:104330009D81F8019583848313C00E947A3488811B
:104340009981F801918380838A819B819383828301
:104350008C819D8195838483198218821B821A82A5
:104360001D821C82DF91CF911F910F910895CF93F1
:10437000DF93EC0188819981009711F00E947A34D3
:10438000198218821D821C821B821A82DF91CF91B2
:104390000895CF93DF93EC016115710561F0FB0186
:1043A00001900020E9F73197AF01461B570B0E949F
:1043B0000921811103C0CE010E94B721CE01DF91F6
:1043C000CF910895EF92FF920F931F93CF93DF93B6
:1043D000EC018B016115710551F0CB010E946F3624
:1043E0007C01BC01CE010E943B20811104C0CE01A2
:1043F0000E94B72107C0FD82EC82B80188819981B3
:104400000E946836CE01DF91CF911F910F91FF90EE
:10441000EF900895EF92FF920F931F93CF93DF9346
:10442000EC017B018A01BA010E943B20811104C08A
:10443000CE010E94B72107C01D830C83B70188817C
:1044400099810E940336CE01DF91CF911F910F9188
:10445000FF90EF900895CF93DF93EC016115710504
:1044600059F0FB0101900020E9F73197AF01461B9D
:10447000570B0E940A2202C00E94B721CE01DF9191
:10448000CF910895CF93DF93EC01FB018617970737
:1044900061F0608171816115710529F04481558158
:1044A0000E940A2202C00E94B721CE01DF91CF9163
:1044B0000895FC01808191810C947A34FC01118271
:1044C000108213821282158214820C94E221FC0164
:1044D0001182108213821282158214820C9442225D
:1044E000FC011182108213821282158214826115DE
:1044F000710551F0FB0101900020E9F73197AF0100
:10450000461B570B0C940A220895BF92CF92DF925C
:10451000EF92FF920F931F93CF93DF937C016B0178
:104520008A01E9012417350720F4812F8901C42F5E
:10453000D82F63E671E0C7010E947022D60114965D
:104540008D919C91159708171907D0F48C179D072A
:1045500008F4EC01D601ED91FC911197EC0FFD1FD1
:10456000B08010824D915C91BA01600F711FC7013C
:104570000E942B22D601ED91FC91EC0FFD1FB08221
:10458000C701DF91CF911F910F91FF90EF90DF90C6
:10459000CF90BF900895DC01ED91FC910280F381F2
:1045A000E02D42E050E061E671E009941F920F9225
:1045B0000FB60F9211242F933F934F935F936F93F6
:1045C0007F938F939F93AF93BF93EF93FF9380EC71
:1045D00092E00E947B1FFF91EF91BF91AF919F915D
:1045E0008F917F916F915F914F913F912F910F909C
:1045F0000FBE0F901F9018951F920F920FB60F923B
:1046000011242F938F939F93EF93FF93E091D00208
:10461000F091D1028081E091D602F091D70282FD23
:1046200012C090818091D9028F5F8F732091DA023E
:10463000821751F0E091D902F0E0E054FD4F958FE0
:104640008093D90201C08081FF91EF919F918F915A
:104650002F910F900FBE0F901F901895CF93DF935F
:10466000282F30E0F901EC50FC4F8491F901E05221
:10467000FC4FD491F901E453FC4FC491CC2391F049
:1046800081110E940F20EC2FF0E0EE0FFF1FEE5380
:10469000FC4FA591B491EC91ED2381E090E021F4E1
:1046A00080E002C080E090E0DF91CF9108951F93F9
:1046B000CF93DF93282F30E0F901EC50FC4F849129
:1046C000F901E052FC4FD491F901E453FC4FC4913D
:1046D000CC23C9F0162F81110E940F20EC2FF0E09F
:1046E000EE0FFF1FE854FC4FA591B4918FB7F894DB
:1046F000111105C09C91ED2FE095E92302C0EC91CA
:10470000ED2BEC938FBFDF91CF911F910895CF9345
:10471000DF9390E0FC01E052FC4F2491FC01E45354
:10472000FC4F8491882361F190E0880F991FFC0170
:10473000E255FC4FC591D491FC01E854FC4FA59182
:10474000B491611109C09FB7F894888120958223A4
:104750008883EC912E230BC0623061F49FB7F894EC
:104760003881822F809583238883EC912E2B2C9384
:104770009FBF06C08FB7F894E8812E2B28838FBF88
:10478000DF91CF9108952FB7F8946091B3037091A2
:10479000B4038091B5039091B6032FBF08950F9392
:1047A0001F93CF93DF93EC010E94C323688779871F
:1047B0008A879B87E881F9810680F781E02DCE0109
:1047C000099597FF17C00E94C323088519852A857C
:1047D0003B85DC01CB01801B910BA20BB30B0C8141
:1047E0001D812E813F8180179107A207B30710F327
:1047F0008FEF9FEFDF91CF911F910F9108951F923F
:104800000F920FB60F9211242F933F938F939F9384
:10481000AF93BF938091B3039091B403A091B5037C
:10482000B091B6033091B20326E0230F2D3720F468
:104830000296A11DB11D05C029E8230F0396A11DF5
:10484000B11D2093B2038093B3039093B403A0935C
:10485000B503B093B6038091AE039091AF03A091DE
:10486000B003B091B1030196A11DB11D8093AE03B9
:104870009093AF03A093B003B093B103BF91AF91F6
:104880009F918F913F912F910F900FBE0F901F908E
:1048900018951F920F920FB60F9211242F933F93EA
:1048A0004F935F936F937F938F939F93AF93BF9338
:1048B000EF93FF93E0910201F09103010995FF91BD
:1048C000EF91BF91AF919F918F917F916F915F9188
:1048D0004F913F912F910F900FBE0F901F90189501
:1048E0001F920F920FB60F9211242F933F934F9365
:1048F0005F936F937F938F939F93AF93BF93EF9348
:10490000FF93E0910001F09101010995FF91EF9172
:10491000BF91AF919F918F917F916F915F914F91D7
:104920003F912F910F900FBE0F901F9018950F93EE
:104930001F93CF93DF938C01EB010E94E4368883B1
:10494000C80101960E94E4368983CE01DF91CF91A0
:104950001F910F910895EF92FF920F931F93CF93A2
:10496000DF9300D0CDB7DEB78C017B01FB01608106
:104970009A838983CE0101960E94F80DF701618127
:104980000F5F1F4F1A830983CE0101960E94F80D15
:10499000C7010F900F90DF91CF911F910F91FF9062
:1049A000EF900895CF93DF93EB010E94E436888364
:1049B000CE01DF91CF9108950F931F93CF93DF9393
:1049C00000D0CDB7DEB78B01FB0160819A8389836C
:1049D000CE0101960E94F80DC8010F900F90DF9153
:1049E000CF911F910F9108950F931F93CF93DF9352
:1049F00000D000D000D0CDB7DEB7FC018281882383
:104A0000C1F08B01BF012AE04EE150E0CE010196DA
:104A10000E94EC0BBE016F5F7F4FC8010E94A72070
:104A200011E0811101C010E0CE0101960E945922CF
:104A300001C010E0812F26960FB6F894DEBF0FBE9E
:104A4000CDBFDF91CF911F910F910895EF92FF920B
:104A50000F931F93CF93DF9300D000D000D0CDB73A
:104A6000DEB78C0163E671E00E94702280918B03B7
:104A700090918C03DC01ED91FC910480F581E02D97
:104A8000099518161906BCF48DE593E00E94AB0F4A
:104A900060918B0370918C03CE0101967C010E9482
:104AA000EB1E0E151F0521F0B701C8010E947E21E3
:104AB000C7010E945922C80126960FB6F894DEBF9E
:104AC0000FBECDBFDF91CF911F910F91FF90EF905F
:104AD0000895FC016481758190E0292F30E026174C
:104AE0003707A8F4408151814115510529F0DA01B9
:104AF000A20FB31F2C9101C020E0022E000C330B3B
:104B0000205331092A30310520F49F5FE6CF81E040
:104B1000089580E008958F929F92AF92BF92CF92B6
:104B2000DF92EF92FF921F93CF93DF93CDB7DEB763
:104B300062970FB6F894DEBF0FBECDBF162FBC0133
:104B4000CE0101960E94672240E0BE016F5F7F4F59
:104B50008DE593E00E94CC0FCE0101960E94592270
:104B60000E94C3234B015C0163E671E0CE010D9608
:104B70000E947022112339F090E6C92E9AEED92EA8
:104B8000E12CF12C06C088EBC82E8BE0D82EE12C4E
:104B9000F12C0E94C323DC01CB0188199909AA09D1
:104BA000BB098C159D05AE05BF0508F05CC0809162
:104BB0008B0390918C03DC01ED91FC910480F581D5
:104BC000E02D09951816190624F7CE0101960E94CA
:104BD0002625BE016F5F7F4FCE010D960E947E217C
:104BE000CE0101960E9459226CE172E0CE0101963D
:104BF0000E947022BE01635F7F4FCE0107960E9424
:104C00006722BE016F5F7F4FCE0107960E94A720EB
:104C1000182FCE0107960E945922CE0101960E94BC
:104C20005922111122C06AEF71E0CE0101960E9453
:104C30007022BE01635F7F4FCE0107960E946722FC
:104C4000BE016F5F7F4FCE0107960E94A720182FED
:104C5000CE0107960E945922CE0101960E94592248
:104C6000112309F496CF10E001C011E0CE010D969A
:104C70000E945922812F62960FB6F894DEBF0FBEB4
:104C8000CDBFDF91CF911F91FF90EF90DF90CF903C
:104C9000BF90AF909F908F900895CF93DF9300D0F7
:104CA00000D000D0CDB7DEB76AE174E0CE01019646
:104CB0000E945E2260E0CE0101960E948B25CE010B
:104CC00001960E94592226960FB6F894DEBF0FBEB9
:104CD000CDBFDF91CF9108958F929F92AF92BF92F7
:104CE000CF92DF92EF92FF920F931F93CF93DF93B8
:104CF00000D000D000D0CDB7DEB76C017A010E94A1
:104D0000C3234B015C01B601CE0101960E946722CC
:104D100041E0BE016F5F7F4F8DE593E00E94CC0FB5
:104D2000CE0101960E9459220E94C3238B019C014F
:104D3000081919092A093B09003A1F4021053105C4
:104D400030F580918B0390918C03DC01ED91FC9107
:104D50000480F581E02D0995892B31F3CE01019670
:104D60000E942625BE016F5F7F4F8DE593E0F7011E
:104D70000995182F8823A1F2BE016F5F7F4FC601EE
:104D80000E944222CE0101960E94592201C010E0E9
:104D9000812F26960FB6F894DEBF0FBECDBFDF91F0
:104DA000CF911F910F91FF90EF90DF90CF90BF9028
:104DB000AF909F908F900895CF92DF92EF92FF92E5
:104DC0000F931F93CF93DF93CDB7DEB760970FB6E6
:104DD000F894DEBF0FBECDBF81E08093700366E123
:104DE00074E0CE0107960E945E227E018DE0E80EFF
:104DF000F11C08E413E0C8010E94E436F701819336
:104E00007F010F5F1F4F0C34F3E01F07A1F7CD8424
:104E1000DE84EF84F888BE01695F7F4FCE01019682
:104E20000E946722B701A601CE0101960E94372198
:104E3000811104C0CE0101960E94B721BE016F5FAF
:104E40007F4FCE0107960E944222CE0101960E941A
:104E5000592240E061E0CE0107960E94891DCE01F3
:104E600007960E94592260960FB6F894DEBF0FBED7
:104E7000CDBFDF91CF911F910F91FF90EF90DF9009
:104E8000CF900895CF93DF9300D000D000D0CDB75E
:104E9000DEB768E074E0CE0101960E945E2260E019
:104EA000CE0101960E948B25CE0101960E945922C7
:104EB00026960FB6F894DEBF0FBECDBFDF91CF911F
:104EC0000895CF93DF9300D000D000D0CDB7DEB7E8
:104ED0006AE474E0CE0101960E945E2260E0CE0199
:104EE00001960E948B25CE0101960E94592263E40F
:104EF00074E0CE0101960E945E2260E0CE01019630
:104F00000E948B25CE0101960E94592267E374E02E
:104F1000CE0101960E945E2260E0CE0101960E94C1
:104F20008B25CE0101960E94592281E08983BE0122
:104F30006F5F7F4F84E893E00E94DC241A8219821D
:104F4000BE016F5F7F4F84E993E00E94F6191982DA
:104F5000BE016F5F7F4F80E993E00E94DC2464E62E
:104F60008DE593E00E94B90E8DE593E00E940B1150
:104F700026960FB6F894DEBF0FBECDBFDF91CF915E
:104F800008951F93CF93DF9300D000D000D0CDB70A
:104F9000DEB768E274E0CE0101960E945E2261E015
:104FA000CE0101960E948B25182FCE0101960E94FA
:104FB0005922812F26960FB6F894DEBF0FBECDBFC3
:104FC000DF91CF911F910895CF92DF92EF92FF92E0
:104FD0000F931F93CF93DF93CDB7DEB72C970FB608
:104FE000F894DEBF0FBECDBF60E272E0CE01019645
:104FF0000E94702240E0BE016F5F7F4F8DE593E01D
:105000000E94CC0FCE0101960E9459220E94C32318
:105010006B017C010E94C323DC01CB018C199D092B
:10502000AE09BF0988389341A105B10508F054C005
:1050300080918B0390918C03DC01ED91FC910480B5
:10504000F581E02D0995892B29F360918B037091EF
:105050008C03CE0107960E94EB1E0B8501506FE278
:1050600072E0CE0101960E9470222BE0AE014F5FEC
:105070005F4FBE01695F7F4F8DE593E00E94E40EB4
:10508000182FCE0101960E94592211111FC00B85C5
:1050900001506BE372E0CE0101960E9470222BE07A
:1050A000AE014F5F5F4FBE01695F7F4F8DE593E0BB
:1050B0000E94E40E182FCE0101960E945922111170
:1050C00006C0CE0107960E945922A4CF10E0CE015F
:1050D00007960E94592201C010E0812F2C960FB62E
:1050E000F894DEBF0FBECDBFDF91CF911F910F911E
:1050F000FF90EF90DF90CF900895CF92DF92EF92E4
:10510000FF921F93CF93DF9300D000D000D0CDB794
:10511000DEB7BC01CE0101960E94672240E0BE01CD
:105120006F5F7F4F8DE593E00E94CC0FCE0101961B
:105130000E9459220E94C3236B017C010E94C32359
:10514000DC01CB018C199D09AE09BF098838934158
:10515000A105B10590F580918B0390918C03DC0142
:10516000ED91FC910480F581E02D0995892B31F3B7
:1051700060918B0370918C03CE0101960E94EB1E0F
:105180006CE172E0CE0101960E94882081110DC071
:105190006AEF71E0CE0101960E948820811107C05C
:1051A000CE0101960E945922C9CF11E001C010E042
:1051B000CE0101960E94592201C010E0812F26964F
:1051C0000FB6F894DEBF0FBECDBFDF91CF911F9118
:1051D000FF90EF90DF90CF900895CF93DF93CDB7FE
:1051E000DEB767970FB6F894DEBF0FBECDBF7894D9
:1051F00084B5826084BD84B5816084BD85B58260DC
:1052000085BD85B5816085BD80916E00816080938C
:105210006E001092810080918100826080938100F5
:105220008091810081608093810080918000816005
:10523000809380008091B10084608093B100809160
:10524000B00081608093B00080917A008460809388
:105250007A0080917A00826080937A0080917A004F
:105260008E7F80937A0080917A00806880937A00A4
:105270001092C10084B761E088E00E94872360E05B
:1052800088E00E94572362E089E00E94872389E03A
:105290000E942E23892B39F41092490260E088E0A5
:1052A0000E94572307C061E088E00E94572381E0F5
:1052B00080934902809168008160809368008091AA
:1052C000680082608093680080916B0082608093A8
:1052D0006B0080916C00816080936C0080916C0009
:1052E000826080936C0080916C00806280936C007F
:1052F0008091680084608093680080916D00806276
:1053000080936D0080916D00806480936D0080912A
:105310006D00806880936D00F8940E94C11A7894A3
:1053200080EC92E00E94831A61E081E10E94872371
:1053300066EA73E08AE390E00E94D2248091A6039B
:105340008F3F41F41092A60366EA73E08AE390E08F
:105350000E94DC2465EA73E086E390E00E94D22498
:105360008091A5038F3F41F41092A50365EA73E095
:1053700086E390E00E94DC246DE973E08CE590E028
:105380000E94D22480919D038F3F41F410929D038F
:105390006DE973E08CE590E00E94DC246CE973E039
:1053A00088E590E00E94D22480919C038F3F41F4D5
:1053B00010929C036CE973E088E590E00E94DC2485
:1053C00064EA73E080E090E00E94D2248091A4031C
:1053D0008F3F29F460E089E993E00E94D20C89E9CB
:1053E00093E00E94C80C68EA73E084E090E00E94B9
:1053F00097248091A8039091A903019661F482E318
:1054000090E09093A9038093A80368EA73E084E096
:1054100090E00E94AB246CEA73E08CE090E00E9484
:10542000D2248091AC038F3F41F41092AC036CEA1C
:1054300073E08CE090E00E94DC248EE090E00E941B
:10544000E4368093AD038F3F29F463E489E993E068
:105450000E94180E69E973E08CE291E00E94D22468
:1054600080919903803140F01092990369E973E0CB
:105470008CE291E00E94DC246BE973E086E190E02D
:105480000E94D22480919B038F3F41F410929B0392
:105490006BE973E086E190E00E94DC246AE973E046
:1054A0008AE190E00E94D22480919A038F3F41F4D8
:1054B00010929A036AE973E08AE190E00E94DC248A
:1054C0006EE973E080E293E00E94D22480919E0313
:1054D0008F3F41F410929E036EE973E080E293E007
:1054E0000E94DC246AEA73E082E190E00E94972443
:1054F0008091AA039091AB03019661F482E090E061
:105500009093AB038093AA036AEA73E082E190E090
:105510000E94AB2467EA73E082E390E00E94D22409
:105520008091A7038F3F41F41092A70367EA73E0CD
:1055300082E390E00E94DC2489E993E090935E038B
:1055400080935D038AE592E09093600380935F030C
:105550002BE08AE692E0922E981A809159028823D5
:10556000F9F00E94C3230091550210915602209138
:10557000570230915802DC01CB01801B910BA20B2A
:10558000B30B81319742A105B10550F080914902DA
:10559000811104C00E94AA1A8111FAC41092590202
:1055A000809148028823B9F0109248028091490204
:1055B000811104C081E0809354020DC01092540206
:1055C00061E088E00E94572380915302811103C05B
:1055D00081E08093530280915402882369F00E94F5
:1055E000AA1A882349F080916903811105C080912E
:1055F0008E03882309F46CC6809152028111E9C19F
:1056000080915102811108C00E94C323603D774000
:105610008105910508F0C3C480915302882321F1CC
:105620000E94C32320914A0230914B02DC01CB013E
:10563000821B930BA109B109853F9140A105B105DA
:1056400098F09091040181E08927809304018823D8
:1056500009F4ABC461E081E10E9457230E94C32397
:1056600070934B0260934A020E94C323683A7146CA
:105670008105910508F489C400E06BE171E0CE0179
:1056800001960E94702260E0CE0101960E948B2557
:10569000CE0101960E9459226CEB70E0CE0101967A
:1056A0000E945E2260E0CE0101960E948B25182F99
:1056B000CE0101960E945922112309F4EAC060EB41
:1056C00070E0CE010D960E945E2260E0CE010D9644
:1056D0000E948B25882309F4D8C064EA70E0CE01CB
:1056E00007960E945E2260E0CE0107960E948B25FD
:1056F000182F882381F060E970E0CE0101960E94A6
:105700005E2260E0CE0101960E948B25182FCE010B
:1057100001960E945922CE0107960E945922CE017D
:105720000D960E945922112309F4B3C063E870E07A
:10573000CE0101960E945E2260E0CE0101960E9499
:105740008B25CE0101960E9459226CE770E0CE01B4
:1057500001960E945E2260E0CE0101960E948B2598
:10576000CE0101960E94592281E080938D0360E76B
:1057700070E0CE0101960E945E2260E0CE010196AB
:105780000E948B25CE0101960E94592268E670E0A6
:10579000CE010D960E945E2224EC422E2BE0522E6A
:1057A000612C712CB301A201CE010D960E946C26D2
:1057B000882309F465C063E671E0CE0107960E9474
:1057C000702200915D0310915E03F80185818111C3
:1057D0002FC00E94DC260E94422700915D03109199
:1057E0005E0381E0F8018583B8016B5F7F4F80E243
:1057F00093E00E94DC2489898B8BBE016D5E7F4F14
:1058000084E293E00E94DC24BE01635F7F4FCE01FF
:1058100001960E946722AE014F5F5F4F68E273E01E
:10582000C8010E94570CCE0101960E94592224C043
:10583000BE016D5E7F4F84E293E00E94D2242B89EB
:1058400048E253E0B801CE0101960E94EC0BBE0184
:105850006F5F7F4FCE0107960E947E21CE01019699
:105860000E945922BE01635F7F4FCE0107960E94BE
:10587000A720882309F4ADCFCE0107960E945922B4
:10588000CE010D960E9459220CC0CE010D960E94A9
:10589000592280918D03811104C0011102C001E0E1
:1058A000ECCEBE016F5F7F4F8CE893E00E94D22464
:1058B000198180918D038823A1F163E671E0CE0107
:1058C00007960E9470228FEF810F8E3F30F51130C6
:1058D00019F465ED70E009C0123019F460ED70E064
:1058E00004C0133031F468EC70E0CE0107960E94DA
:1058F000E22181E080937003BE01695F7F4FCE019A
:1059000001960E94672240E061E0CE0101960E946C
:10591000891DCE0101960E945922CE0107960E9450
:1059200059221A821982BE016F5F7F4F8CE893E083
:105930000E94F61911E01093B9020E94C3236093EC
:10594000BC027093BD028093BE029093BF0210937D
:10595000BB0260E08AE592E00E94BA118091680083
:1059600081608093680080916B00826080936B00FF
:1059700080916B00846080936B0080916B008860E5
:1059800080936B008DEDA82E8BE0B82EB0920301B2
:10599000A092020180916900837F846080936900F6
:1059A000E99A91EEC92E9BE0D92ED0920101C092C6
:1059B0000001809169008C7F816080936900E89A82
:1059C000109352021092040160E081E10E9457237B
:1059D000DCC20E94580280919E02811117C1809101
:1059E000A502811113C18091B902882309F449C02D
:1059F0009E012F5F3F4FAE01495F5F4FBE01635F66
:105A00007F4F8AE592E00E942C128D8520918302BF
:105A100090918402821308C03F81391305C04981E7
:105A200030918502431769F1992309F4E7C29981FE
:105A3000882309F4BCC23F813111B9C29111B7C2A8
:105A400020E041E060E08AE592E00E940E1160E013
:105A500081E10E94572363E480915C0290915D0292
:105A60000E948D10809364029E012F5F3F4FAE0114
:105A7000495F5F4FBE01635F7F4F8AE592E00E94FE
:105A8000E9118091BA02882309F465C01092BA0224
:105A90008FE00E942E23892B31F460E08AE592E0AA
:105AA0000E94421158C08EE00E942E23892B41F49F
:105AB00021E040E060E08AE592E00E940E114BC0D8
:105AC00083E10E942E23892B09F045C00E94C32345
:105AD0000091B1021091B2022091B3023091B40250
