:100000000C944F020C9445250C941E250C948912D7
:100010000C9498120C9477020C945D120C94770255
:100020000C9477020C9477020C9477020C9477026C
:100030000C9477020C9477020C9477020C9477025C
:100040000C94D4240C9477020C94D1230C94AB23FD
:100050000C9477020C9477020C9477020C9477023C
:100060000C9477020C94770241542B43434944008B
:1000700041542B444445543D310D0A004154265708
:100080000D0A0041542B434C54533D310D0A00419D
:10009000542B4353434C4B3D310D0A0041542B43E9
:1000A0004E4D493D322C312C302C302C300D0A0075
:1000B00041542B434D47463D310D0A0041542B43DB
:1000C0004C43433D310D0A0041542B434C49503DB4
:1000D000310D0A004D4158434544440043455252B6
:1000E0000055504453554343004154410041542B63
:1000F000444445543D310D0A002B4350494E3A20AB
:100100004E4F542052454144590D0043616C6C20C0
:1001100052656164790D0041542B434D4744413D84
:100120002244454C20414C4C220D0A0041542B46A0
:10013000545050573D223132333435363738392216
:100140000D0A0041542B465450554E3D22726168B1
:10015000756C6E726174686F646B636C220D0A005B
:1001600041542B465450534552563D220041542B86
:100170004654504349443D310D0A002B46545053D8
:10018000495A453A20312C302C0041542B465450CA
:1001900053495A450D0A0041542B46545047455483
:1001A0000041542B53415042523D312C310D0A0035
:1001B00041504E222C220041542B53415042523D7B
:1001C000332C312C2200436F6E54797065222C221F
:1001D00047505253220D0A0041542B534150425272
:1001E0003D332C312C22004F4B203A2000524555F4
:1001F00050440050524753495A4500444300535518
:10020000500050524755504400564D52303200561F
:100210004D4D3031002A2A2A2A4D2B002E616D7255
:10022000222C302C3130302C310D0041542B4352D4
:1002300045433D342C220041542B435245433D3528
:100240000D00373034313139363935390041542BCE
:1002500053415042523D302C310D0A0041542B4342
:100260004F50533D320D0A00415426570D0A0041AC
:10027000542B4353434C4B3D300D0A000A4E6574DA
:10028000776F726B3A000A426174253A00204F463C
:10029000460A00204F4E0A00204F4E0A004D6F7450
:1002A0006F723A00204F46460A00203220504841E3
:1002B00053450A004155544F4F4646004155544F4F
:1002C0004F4E004552524F52203A20004F4B203A99
:1002D000200041542B435553443D312C22004241D0
:1002E0004C004155544F54494D45004155544F54CD
:1002F000494D45005354415254494D4500535441D2
:100300005254494D450053544147450053544147C9
:100310004500414D4F464600414D4F4E0041542B44
:100320004342430041542B435351005354415455CD
:1003300053005245535000444E444F464600444EED
:10034000444F4E004259504F4646004259504F4E7E
:10035000004155544F4F4646004155544F4F4E00B3
:10036000444944005245534554004E6F204E756D2C
:10037000626572004E554D0044454641554C54004F
:10038000434C454152414C4C00574149540039358A
:10039000383631333539373800373338333632323F
:1003A000363738003733383336313432313400376A
:1003B000363938343339323031003730343131392D
:1003C000363935390037303431313936393539003D
:1003D0004E4F20414E535745520D00425553590D33
:1003E000004E4F20434152524945520D002B434C81
:1003F00043433A20312C302C0041542B4348555074
:1004000000222C320041542B5654533D2200000050
:100410000000240027002A0000000000250028001A
:100420002B0000000000230026002900040404041F
:10043000040404040202020202020303030303038E
:10044000010204081020408001020408102001026B
:100450000408102000000008000201000003040747
:10046000000000000000000041542B434357413D71
:10047000302C300D0A0049443A0041542B43465574
:100480004E3D312C310D0A002B53415042523A203F
:10049000312C0041542B4342430081327D321124E0
:1004A0001FBECFEFD8E0DEBFCDBF12E0A0E0B1E0CD
:1004B000ECE3F2E702C005900D92A830B107D9F73E
:1004C00023E0A8E0B2E001C01D92A637B207E1F731
:1004D00012E0CEE4D2E004C02197FE010E94143461
:1004E000CD34D107C9F70E9435290C9411390C94E9
:1004F0007F124F925F926F927F928F929F92AF92F4
:10050000BF92CF92DF92EF92FF920F931F93CF9300
:10051000DF93CDB7DEB7A5970FB6F894DEBF0FBE59
:10052000CDBF809143038823B1F00E9498240091AD
:100530004403109145032091460330914703DC01A9
:10054000CB01801B910BA20BB30B813D9740A10502
:10055000B10508F0FFC580912603882371F10E9440
:1005600098240091290310912A0320912B033091A4
:100570002C03AB01BC01401B510B620B730B209190
:10058000270330912803E4E6E29FC001E39F900D2A
:100590001124A0E0B0E0481759076A077B0768F00C
:1005A000E0911103F091120383A5811106C060E070
:1005B00084E00E942C241092260380912D038E3417
:1005C00009F052C080912E038E3409F09FC08091B3
:1005D0003B03811116C00E94982400913C031091A6
:1005E0003D0320913E0330913F03DC01CB01801B92
:1005F000910BA20BB30B893E9340A105B10508F006
:10060000ACC580913203882309F480C0E0910F03C8
:10061000F0911003158580913B03882309F476C07F
:1006200080913103813009F49CC50E949824C090C8
:100630003303D0903403E0903503F09036039B01F0
:10064000AC012C193D094E095F0969017A01212F7E
:1006500030E0A0E6BAEE0E9402396C157D058E05E9
:100660009F0508F47EC552C0893419F0823509F01F
:100670004DC00E94982400912003109121032091E5
:10068000220330912303AB01BC01401B510B620BD1
:10069000730B20911E0330911F03E4E6E29FC0011B
:1006A000E39F900D1124A0E0B0E0481759076A07B6
:1006B0007B0740F0809138038DA30E94311C8DA1EF
:1006C0000E94A31E80911A03882301F10E9498249E
:1006D000E091150300911603109117032091180360
:1006E00030911903AB01BC01401B510B620B730B22
:1006F00034E6E39FC0011124092E000CAA0BBB0BAA
:1007000084179507A607B70708F445C58FE4C82ED8
:1007100092E5B92E29E4D22E8091400390914103B5
:10072000DC01ED91FC910480F581E02D099518160E
:10073000190614F00C94D30BCE014F960E941C2680
:100740000BA1015060E271E0CE0101960E944523A9
:1007500026E0AE014F5F5F4FBE01615E7F4F8FE0CD
:1007600093E00E94D00E182FCE0101960E942E23F6
:10077000112321F08091250381116FC50BA1015038
:1007800067E271E0CE0101960E9445232CE0AE01A4
:100790004F5F5F4FBE01615E7F4F8FE093E00E942D
:1007A000D00EE82ECE0101960E942E23EE2071F18C
:1007B000BE01615E7F4FCE010D960E943C236EE22A
:1007C00071E0CE0107960E944523BE01635F7F4F13
:1007D000CE0107960E949822BE01695F7F4FCE012D
:1007E00001960E943C2341E0BE016F5F7F4F8FE086
:1007F00093E00E94B80FCE0101960E942E23CE01F5
:1008000007960E942E23CE010D96BBC267E371E0CE
:10081000CE0101960E94452302E228E1AE014F5F1E
:100820005F4FBE01615E7F4F8FE093E00E94D00E6C
:10083000982ECE0101960E942E23BE01615E7F4F4D
:10084000CE01992009F45DC201960E943C23CE019D
:1008500001960E94D01EF82ECE0101960E942E23F2
:10086000BE01615E7F4FCE0101960E943C23BE0116
:100870006F5F7F4F80910F03909110030E94990C3E
:10088000A82ECE0101960E942E23F11027C0BE0192
:10089000615E7F4FCE0101960E943C23BE016F5FD7
:1008A0007F4F80910F03909110030E94370D182FF6
:1008B00081110DC0A1100AC0E0910F03F091100347
:1008C00011E08081882319F010E001C0192DCE01BC
:1008D00001960E942E23112309F4ADC1CE01019689
:1008E0000E941C26BE016F5F7F4FCE014F960E9473
:1008F000F522CE0101960E942E230F8D18A101151D
:10090000110541F4E0910F03F091100380818823D9
:1009100071F03AC0F80180818823A1F3082E000C01
:10092000990B0E94BF36D8018D938D01F3CFF11042
:100930002BC065E172E0CE0101960E943323BE0117
:100940006F5F7F4FCE014F960E94A921182FCE01D5
:1009500001960E942E23112309F415C22BA13CA15C
:1009600044E050E0BE01615E7F4FCE0101960E94DF
:100970005A23BE016F5F7F4FCE014F960E94F52232
:10098000CE0101960E942E236EE371E0CE01019606
:100990000E944523BE016F5F7F4FCE014F960E949C
:1009A000A921182FCE0101960E942E231123C1F0F8
:1009B0002BA13CA141E050E0BE01615E7F4FCE0122
:1009C00001960E945A23BE016F5F7F4FCE014F9662
:1009D0000E94F522CE0101960E942E2311E001C053
:1009E00010E0BE01615E7F4FCE01FF2009F418C107
:1009F00049960E943C2381E0809324030D8D015091
:100A000062E072E0CE0101960E94332326E0AE013F
:100A10004F5F5F4FBE01675E7F4F8FE093E00E94A4
:100A2000D00EF82ECE0101960E942E23FF2009F44D
:100A3000B0C080912D038E3411F40E94311C11112D
:100A400010C06EEF71E0CE0101960E94332340E0AA
:100A500061E0CE0101960E947B1DCE0101960E94AD
:100A60002E23898C9A8C8114910429F40E94DF270B
:100A7000811107C40DC0F40180818823B9F3082EC9
:100A8000000C990B0E94B736D4018D934D01F3CF22
:100A900060E471E0CE010D960E94452368ED71E09F
:100AA000CE0107960E94332366EC71E0CE010796D3
:100AB0000E941522BE01695F7F4FCE0101960E9400
:100AC0003C23CE0101960E946728082FCE01019693
:100AD0000E942E23011102C000E042C067EB71E0CA
:100AE000CE0107960E949F2260EB71E0CE0107962F
:100AF0000E941522BE01635F7F4FCE0107960E94C0
:100B000098226CE571E0CE0107960E948922BE0111
:100B1000695F7F4FCE0101960E943C23CE01019672
:100B20000E946728082FCE0101960E942E230023E1
:100B300099F261EA71E0CE0101960E94332361E0EF
:100B4000CE0101960E945F26082FCE0101960E94D9
:100B50002E23002309F264E18FE093E00E94A50EAA
:100B6000CE0107960E942E23CE010D960E942E23C1
:100B7000002309F47CC50CE0015009F478C562E358
:100B80008FE093E00E94A50E0E94DF278823A1F347
:100B900078C30D8D015063EF71E0CE0101960E9484
:100BA000332327E0AE014F5F5F4FBE01675E7F4F8B
:100BB0008FE093E00E94D00E082FCE0101960E9494
:100BC0002E2301118AC50D8D01506DEE71E0CE010D
:100BD00001960E94332325E0AE014F5F5F4FBE01B7
:100BE000675E7F4F8FE093E00E94D00EF82ECE011B
:100BF00001960E942E23F11072C510922403CE019B
:100C000049960E942E23F1106EC0BE01615E7F4F97
:100C1000CE0101960E943C232A2D412F61E006C09F
:100C200001960E943C232A2D412F60E0CE010196BF
:100C30000E94AD1254C0BE01615E7F4FCE0101968D
:100C40000E943C23BE016F5F7F4F80910F03909104
:100C500010030E94860D182FCE0101960E942E23AC
:100C6000112309F440C0CE0101960E941C26BE014A
:100C70006F5F7F4FCE014F960E94F522CE01019605
:100C80000E942E236FE072E0CE0101960E94332372
:100C9000BE016F5F7F4FCE014F960E94A921182F92
:100CA000CE0101960E942E231123E9F0E0910F035B
:100CB000F091100381E08483BF016C5F7F4F8CE56E
:100CC00090E00E94D22569E072E0CE0101960E9478
:100CD000332342E061E0CE0101960E947B1DCE01EC
:100CE00001960E942E2367E171E0CE0101960E94D9
:100CF000332360E0CE0101960E945F26CE0101966B
:100D000040C007960E943C236BE071E0CE01019643
:100D10000E943323BE016F5F7F4FCE0107960E9472
:100D2000E321182FCE0101960E942E23CE010796B3
:100D30000E942E23112321F081E08093420323C0DF
:100D4000BE01615E7F4FCE0107960E943C2369EF92
:100D500070E0CE0101960E943323BE016F5F7F4F8A
:100D6000CE0107960E94E321182FCE0101960E9422
:100D70002E23112321F00E94311C0E94E626CE0171
:100D800007960E942E239091390380912D03911193
:100D900010C18E3419F0823509F091C190912E0363
:100DA0009E3419F0993409F0F1C0BE01615E7F4FA5
:100DB000CE0101960E943C2363E671E0CE010196CC
:100DC0000E94C421182FCE0101960E942E231123C8
:100DD00009F4C6C081E080931C03B0922D03D09229
:100DE0002E0380912F038F5F80932F03853008F0AF
:100DF0006FC08130E9F46DEE70E0CE0101960E9483
:100E0000332340E0BE016F5F7F4F8FE093E00E948D
:100E1000B80FCE0101960E942E238091400390913D
:100E20004103DC01ED91FC910284F385E02D0995ED
:100E30006FE571E0CE010D960E944523CE0101962B
:100E40000E941C26BE016F5F7F4FCE010D960E944F
:100E5000F522CE0101960E942E2369E671E0CE01B3
:100E600001960E94452305E12BE0AE014F5F5F4FE5
:100E7000BE01635F7F4F8FE093E00E94D00E182F7A
:100E8000CE0101960E942E231123C1F20E949824C4
:100E90006093200370932103809322039093230394
:100EA00089899A890A9778F0CE010D960E94511F80
:100EB000882349F080912F03823028F0809113031A
:100EC000882309F443C4CE010D960E942E2306C048
:100ED00080911303811102C00E94311C8091130381
:100EE000882309F432C10E949824609320037093F0
:100EF000210380932203909323031092130381E034
:100F0000809330038091400390914103DC01ED9187
:100F1000FC910284F385E02D099569EE70E0CE0125
:100F200001960E94332341E0BE016F5F7F4F8FE047
:100F300093E00E94B80FCE0101960E942E2380916B
:100F4000400390914103DC01ED91FC910284F38513
:100F5000E02D0995D0922D03D0922E036DE4AAC006
:100F6000BE01615E7F4FCE0101960E943C23CE01FF
:100F700001960E941F1D182FCE0101960E942E235C
:100F8000112309F4E2C00E94311CDFC0893489F4C6
:100F900090912E03993469F4BE01615E7F4FCE01BA
:100FA00001960E943C23CE0101960E941F1D182F1E
:100FB000B1C08E3419F0823509F084C010912E032F
:100FC0001F3409F0C2C0BE01615E7F4FCE010196A1
:100FD0000E943C23CE0101960E94D01C082FCE0116
:100FE00001960E942E23023579F40E949824609382
:100FF0002003709321038093220390932303009393
:101000002D0310932E03A1C0BE01615E7F4FCE0160
:1010100001960E943C23CE0101960E941F1D182FAD
:10102000811113C0BE01615E7F4FCE0107960E9401
:101030003C23CE0107960E94D01C11E0853409F0B4
:1010400010E0CE0107960E942E23CE0101960E9449
:101050002E23112349F0809138038DA30E94311C67
:101060008DA10E94A31E71C0BE01615E7F4FCE01A3
:1010700001960E943C23CE0101960E94D01C182F9D
:10108000CE0101960E942E23193409F05EC00E9401
:1010900098246093200370932103809322039093FC
:1010A000230310932D03C0922E0381E0809330031D
:1010B000609138038FE093E00E94301A46C0893473
:1010C00009F466CF893409F040C080912E038F3433
:1010D000E1F5BE01615E7F4FCE0101960E943C2387
:1010E000CE0101960E941F1D182F811113C0BE0151
:1010F000615E7F4FCE0107960E943C23CE0107968A
:101100000E94D01C11E0853409F010E0CE01079652
:101110000E942E23CE0101960E942E23111133CF5F
:10112000CE014F960E94021C882379F0BE01615EB9
:101130007F4FCE0101960E943C23CE0101960E9472
:10114000621ACE0101960E942E23CE014F960E9474
:101150002E23E2CA10924303FEC981E080933B0331
:1011600050CA809137038093380310923203E09184
:101170000F03F0911003828D8E3409F4C7CA81E009
:10118000809339038FE093E00E94970F8FE093E004
:101190000E942410BBCA8091400390914103DC015E
:1011A000ED91FC910284F385E02D09956BE272E0EC
:1011B000CE0101960E94332340E0BE016F5F7F4F56
:1011C0008FE093E00E94B80FCE0101960E942E237B
:1011D00062E771E0CE0101960E94452340E0BE0126
:1011E0006F5F7F4F8FE093E00E94B80FCE010196B2
:1011F0000E942E2360911B038FE093E06DA30E9459
:10120000970F8091400390914103DC01ED91FC9197
:101210000190F081E02D6DA109956CE172E0CE01A5
:1012200001960E94332341E0BE016F5F7F4F8FE044
:1012300093E00E94B80FCE0101960E942E23809168
:10124000400390914103DC01ED91FC910284F38510
:10125000E02D099510921A0359CABE01615E7F4FB5
:10126000CE0101960E943C2340E061E0CE01019650
:101270000E947B1DCE0101960E942E231092250311
:101280007DCABE01675E7F4FCE010D960E943C2352
:101290006DE671E0CE0101960E94332361E0CE013C
:1012A00001960E945F26082FCE0101960E942E23F0
:1012B000002309F454C060E671E0CE0107960E9455
:1012C0003323BE01635F7F4FCE0107960E949822B1
:1012D0006CE571E0CE0107960E948922BE01695F2C
:1012E0007F4FCE0101960E943C2361E0CE01019622
:1012F0000E945F26082FCE0101960E942E23002314
:1013000049F163E471E0CE0101960E94332361E06C
:10131000CE0101960E945F26082FCE0101960E9401
:101320002E230023B9F06CE271E0CE0101960E94F9
:10133000332361E0CE0101960E945F26082FCE0183
:1013400001960E942E23002329F0CE0107960E94C9
:101350002E2305C0CE0107960E942E2300E0CE0169
:101360000D960E942E23002309F481C168E471E0E8
:10137000CE0143960E94452367E971E0CE010D96A8
:101380000E943323BE01635F7F4FCE0107960E9408
:101390003C236EE471E0CE0107960E948922BE01D3
:1013A0006D5E7F4FCE0107960E9498226CE571E03A
:1013B000CE0107960E948922BE01695F7F4FCE0150
:1013C00001960E943C2361E0CE0101960E945F26B7
:1013D000982ECE0101960E942E239920E9F0BE019D
:1013E000635F7F4FCE0107960E94DE2265E571E0C4
:1013F000CE0107960E948922BE01695F7F4FCE0110
:1014000001960E943C2360E0CE0101960E945F2677
:10141000CE0101960E942E23CE0107960E942E2314
:10142000CE010D960E942E23CE0143960E942E23BC
:10143000992009F41CC1E0910F03F09110038285FB
:10144000811164C00E9498242B013C016AE871E07C
:10145000CE0101960E94332340E0BE016F5F7F4FB3
:101460008FE093E00E94B80FCE0101960E942E23D8
:101470000E949824DC01CB0184199509A609B709BB
:10148000803C944DA140B10508F0F1C0809140032B
:1014900090914103DC01ED91FC910480F581E02DF8
:1014A0000995892B29F36091400370914103CE0186
:1014B00007960E94761F0B8501506BE771E0CE0105
:1014C00001960E9433232EE0AE014F5F5F4FBE01B5
:1014D000695F7F4F8FE093E00E94D00E082FCE010E
:1014E00001960E942E23CE010796002309F4BECF59
:1014F0000E943F21AB01BC0180910F03909110032A
:101500000E946B0ECE0107960E942E23E0910F03DE
:10151000F091100346805780608471846FE771E01A
:10152000CE0143960E944523BE016D5E7F4FCE01E2
:101530000D960E943C236BE871E0CE010D960E944F
:101540008922B301A201CE010D960E94452267E6D1
:1015500071E0CE010D960E94892260E971E0CE0112
:1015600007960E944523BE016D5E7F4FCE01079610
:101570000E94982263E971E0CE0107960E948922B9
:101580000E9498242B013C01BE01695F7F4FCE0170
:1015900001960E943C2340E0BE016F5F7F4F8FE0C9
:1015A00093E00E94B80FCE0101960E942E230E9464
:1015B0009824DC01CB0184199509A609B709803C60
:1015C000944DA140B10550F58091400390914103A5
:1015D000DC01ED91FC910480F581E02D0995892BCA
:1015E00031F36091400370914103CE0101960E9456
:1015F000761FBE016F5F7F4FCE0107960E94F522D6
:10160000CE0101960E942E23BE01635F7F4FCE0163
:1016100007960E94E321882351F2E92CCE01079618
:101620000E942E23CE010D960E942E23CE014396BA
:101630000E942E23EE20D9F081E080932403111123
:1016400010C06BEF71E0CE0101960E94332340E0A1
:1016500061E0CE0101960E947B1DCE0101960E94A1
:101660002E230E9462190E940219FE2CC8CA0E94F1
:101670006219E0910F03F091100312861982BE01E6
:101680006F5F7F4F84E893E00E94D2251A8219820F
:10169000BE016F5F7F4F84E993E00E94DB1801E099
:1016A0000983BE016F5F7F4F80E993E00E94D225DE
:1016B000009324031111A3CA60E671E0CE010196E4
:1016C0000E94452340E061E0CE0101960E947B1D0F
:1016D000CE0101960E942E2392CA01E001C002E0D1
:1016E000CE0149960E943F21AB01BC0180910F03BE
:1016F000909110030E946B0E67EE71E0CE01079689
:101700000E943323BE01675E7F4FCE0107960E9481
:101710009822111111C0BE01695F7F4FCE01019661
:101720000E943C2340E061E0CE0101960E947B1DB7
:10173000CE0101960E942E23023011F40E9402195C
:10174000CE0107960E942E23F92C59CABE01635F71
:101750007F4FCE0107960E943C23BE01695F7F4FF9
:10176000CE0101960E943C23CE0101960E94D01E1C
:10177000182F81110DC0BE01695F7F4F80910F034B
:10178000909110030E94B80D11E08F3F09F410E012
:10179000CE0101960E942E2310931303CE010796CB
:1017A0000E942E2390CBA5960FB6F894DEBF0FBEF5
:1017B000CDBFDF91CF911F910F91FF90EF90DF9000
:1017C000CF90BF90AF909F908F907F906F905F90E1
:1017D0004F90089581E08093700208950E949824AC
:1017E000EFE0F3E065AB76AB87AB90AF81E084AB25
:1017F0000895FB0184819581409770F0CB0160E0F2
:1018000070E00E949821282F880F330B2053310954
:1018100081E02A30310508F080E008958F929F9290
:10182000AF92BF92CF92DF92EF92FF920F931F93EE
:10183000CF93DF93CDB7DEB76B01ADB6BEB6FA017D
:10184000E480F580C70101962DB73EB7281B390B00
:101850000FB6F8943EBF0FBE2DBF0DB71EB70F5F7A
:101860001F4F892B99F00115110581F0E114F10446
:1018700011F4F8010AC0FA0160817181A701C80161
:101880000E94EE36F801EE0DFF1D1082F801019066
:101890000020E9F73197E01BF10BC11424E0D206D8
:1018A000D8F4FF24F394FE0EC6018F0D911D81150F
:1018B000944090F44801C01AD10A882D801B8F15DE
:1018C00048F4C601880D991DF40161914F010E94F1
:1018D000BD38F3CF81E001C080E00FB6F894BEBE02
:1018E0000FBEADBEDF91CF911F910F91FF90EF9092
:1018F000DF90CF90BF90AF909F908F9008952FEF83
:10190000260F233658F4FC01638BBC016D5E7F4FBC
:1019100080EB90E00E94D22581E0089580E0089558
:10192000FC016387BC01655F7F4F80E090E00C9411
:10193000D225FC01208121110C94EA2580E0089534
:10194000FC01808191810C94B5386F927F928F92C7
:101950009F92AF92BF92CF92DF92EF92FF920F933E
:101960001F93CF93DF9300D0CDB7DEB76C013A0160
:10197000ADB6BEB6822F90E001964DB75EB7481B5C
:10198000590B0FB6F8945EBF0FBE4DBF8DB79EB713
:1019900001964C01611494E0790688F5FF24F394D4
:1019A000F20E69F1E1E0FE1202C0F40127C07A8272
:1019B0006982CE0101960E94A00CF4018083EE247E
:1019C000E3948823E1F00E2D10E0EF1498F4C801A1
:1019D000860D971D8115F4E09F0760F49A83898333
:1019E000CE0101960E94A00CF401E00FF11F80834C
:1019F000E394E7CF080D191DF80131971082B40167
:101A0000C6010E944523C6010FB6F894BEBE0FBEA4
:101A1000ADBE0F900F90DF91CF911F910F91FF906E
:101A2000EF90DF90CF90BF90AF909F908F907F907E
:101A30006F900895CF93DF93EC01FB0180818823A1
:101A400069F08181882319F04EE150E002C040E343
:101A500051E02AE0CE010E94A50C05C062E472E0CC
:101A6000CE010E943323CE01DF91CF910895DF9202
:101A7000EF92FF920F931F93CF93DF9300D000D08C
:101A800000D0CDB7DEB7FC012081222369F17B01B4
:101A90008C012AE040E351E0BC01CE0101960E9496
:101AA000A50CB701CE0101960E94E321D82ECE01EC
:101AB00001960E942E23D11019C0B701CE010196C4
:101AC0000E943C23F8018081882341F0BE016F5FB2
:101AD0007F4FC8010E94EA25182F01C010E0CE01F7
:101AE00001960E942E2303C010E001C011E0812F57
:101AF00026960FB6F894DEBF0FBECDBFDF91CF9113
:101B00001F910F91FF90EF90DF9008950F931F9317
:101B1000CF93DF9300D000D000D0CDB7DEB7FC016B
:101B200083818823C1F08B01BF012AE040E650E0A9
:101B3000CE0101960E94A50CBE016F5F7F4FC801C8
:101B40000E94E32111E0811101C010E0CE01019655
:101B50000E942E2301C010E0812F26960FB6F89424
:101B6000DEBF0FBECDBFDF91CF911F910F910895C2
:101B7000CF92DF92EF92FF920F931F93CF93DF9359
:101B800000D000D000D0CDB7DEB77C016B01FC01E6
:101B90008081811106C0F7018481882309F443C044
:101BA00030C0CE0101960E943C23BE016F5F7F4F83
:101BB000C7010E94370D182FCE0101960E942E23D7
:101BC000111133C011E0F7018081181720F7FBE0F5
:101BD0001F9FA0011124405D5E4F2AE0B701CE0196
:101BE00001960E94A50CB601CE0101960E94E32148
:101BF000082FCE0101960E942E23011118C01F5FED
:101C0000E2CFB601CE0101960E943C23BE016F5F78
:101C10007F4FC7010E94860D182FCE0101960E94AA
:101C20002E23111106C08FEF05C080E003C0812F65
:101C300001C08EEF26960FB6F894DEBF0FBECDBF63
:101C4000DF91CF911F910F91FF90EF90DF90CF9098
:101C500008950F931F93CF93DF931F92CDB7DEB7F5
:101C60008C0169830E94A00C6981681729F0F80132
:101C7000808191810E94BD38C8010F90DF91CF9182
:101C80001F910F910895CF93DF9300D0CDB7DEB7AA
:101C9000FC01668784EA90E09A838983CE010196ED
:101CA0000E94290E0F900F90DF91CF910895CF934E
:101CB000DF9300D0CDB7DEB7FC01628F8EE090E0FD
:101CC0009A838983CE0101960E94290E0F900F906E
:101CD000DF91CF910895EF92FF920F931F93CF93CF
:101CE000DF9300D0CDB7DEB721E0FC012287468329
:101CF0005783608771878C010A5F1F4F88E8E82E41
:101D000083E0F82EF80161918F01FA82E982CE0119
:101D100001960E94290EFFEFEF1AFF0A8CE8E816E1
:101D200083E0F80679F70F900F90DF91CF911F9124
:101D30000F91FF90EF900895FC01268D293421F436
:101D400021E025830C94301A08958F929F92AF92D0
:101D5000BF92CF92DF92EF92FF92C62E0E949824FC
:101D60004B015C0184E6C89E600111240D2C000C1F
:101D7000EE08FF080E949824DC01CB01881999091C
:101D8000AA09BB098C159D05AE05BF0598F3FF9008
:101D9000EF90DF90CF90BF90AF909F908F9008957D
:101DA000EF92FF920F931F93CF93DF9300D000D059
:101DB00000D0CDB7DEB77B01122FBA01C7010E9458
:101DC000A9218823A9F0202F30E0412F50E0B7014E
:101DD000CE0101960E945A23BE016F5F7F4FC7015B
:101DE0000E94F522CE0101960E942E2381E001C0BF
:101DF00080E026960FB6F894DEBF0FBECDBFDF9110
:101E0000CF911F910F91FF90EF900895CF92DF92A5
:101E1000EF92FF920F93CF93DF9300D000D000D0CA
:101E2000CDB7DEB76C017B01FB010481035060EA92
:101E300071E0CE0101960E94452325E0AE014F5F7F
:101E40005F4FB701C6010E94D00E082FCE01019648
:101E50000E942E23802F26960FB6F894DEBF0FBE69
:101E6000CDBFDF91CF910F91FF90EF90DF90CF909A
:101E700008958F929F92AF92BF92CF92DF92EF928E
:101E8000FF920F93CF93DF93CDB7DEB72C970FB6AA
:101E9000F894DEBF0FBECDBF5C016B01FB01048176
:101EA00001506EE871E0CE0107960E944523F601CD
:101EB00084819581892B69F0808091806F817885FC
:101EC000C4010E94FD36009721F07C01E818F90852
:101ED00003C0EE24EA94FE2C65EA71E0CE0101967F
:101EE0000E94452321E02E0DAE014F5F5F4FB601EA
:101EF000C5010E94D00E082FCE0101960E942E230C
:101F0000CE0107960E942E23802F2C960FB6F894B0
:101F1000DEBF0FBECDBFDF91CF910F91FF90EF904D
:101F2000DF90CF90BF90AF909F908F900895CF9308
:101F3000DF93EC018F89811112C061E084E00E947F
:101F40002C2481E08F8B0E9498246A8F7B8F8C8F4A
:101F50009D8F61E0CE01DF91CF910C94A50E0E9480
:101F600098246A8F7B8F8C8F9D8FDF91CF910895FE
:101F7000FF920F931F93CF93DF93EC018B01F42E0D
:101F80000E94970F6FE571E0C8010E94C42109A863
:101F9000DAA9C02D811114C0F801448155816081F6
:101FA0007181E881F9810280F381E02DCE01F11089
:101FB00006C0DF91CF911F910F91FF900994099571
:101FC000CE01DF91CF911F910F91FF900C94A02330
:101FD0000F931F93CF93DF9300D000D000D0CDB7E5
:101FE000DEB78C01DC01D1968D919C91D297DC01FA
:101FF000ED91FC910284F385E02D099567E372E091
:10200000CE0101960E94332341E0BE016F5F7F4FF6
:10201000C8010E94B80FCE0101960E942E23F8013C
:1020200081A992A9DC01ED91FC910284F385E02D58
:10203000099526960FB6F894DEBF0FBECDBFDF918F
:10204000CF911F910F910895CF92DF92FF920F933E
:102050001F93CF93DF93CDB7DEB762970FB6F89497
:10206000DEBF0FBECDBF8C0181E0D8011D968C93E1
:10207000C8010E94970FF80181A992A9DC01ED9196
:10208000FC910284F385E02D09956BEA71E0CE01A5
:1020900007960E944523F801F2A0C080D180FF205E
:1020A00059F16FE571E0CE010D960E944523D601EE
:1020B0008C91F816B8F4BBE0FB9EA0011124405DA2
:1020C0005E4F2AE0B601CE0101960E94A50CBE012A
:1020D0006F5F7F4FCE010D960E94F522CE010196D3
:1020E0000E942E23BE01635F7F4FCE0107960E94A0
:1020F0009822CE010D960EC0B601CE0101960E9427
:102100001A0DBE016F5F7F4FCE0107960E94982285
:10211000CE0101960E942E236BE3CE0107960E940A
:102120007622BE01695F7F4FCE0101960E943C235B
:1021300041E0BE016F5F7F4FC8010E94B80FCE0122
:1021400001960E942E2361E0C8010E94A50E6FE552
:1021500071E0CE0101960E94452341E0BE016F5F10
:102160007F4FC8010E94B80FCE0101960E942E2316
:102170000E949824F801618B728B838B948B82E58B
:10218000868F8FE4878FCE0107960E942E2362965A
:102190000FB6F894DEBF0FBECDBFDF91CF911F9178
:1021A0000F91FF90DF90CF9008950F931F93CF93DF
:1021B000DF93EC01E881F9818081811102C011E097
:1021C00034C0828D8E34D9F38BA98823C1F38BA1BF
:1021D000811103C099A5961791F39E8D9E3421F528
:1021E0009F8D9E3409F51CA51123F9F081111CC0A7
:1021F000062F1AA28585882351F00E9498246CA38B
:102200007DA38EA39FA308A781E08BA30EC069A71F
:10221000828D8E34A1F281E08AA7CE010E94970FB1
:10222000CE010E94241001C010E0812FDF91CF91D8
:102230001F910F9108950C94003C089561E081E195
:102240000C942C240F931F93CF93DF93EC01411137
:102250000EC08AA581110BC0662309F162E38A8151
:102260009B81DF91CF911F910F910C949C0E022FB7
:10227000162F19AA61E08DE00E942C240E94982458
:10228000FE01FF96608371838283938381E08EAF2A
:102290001AA660E080E10E942C241EA308A7DF910B
:1022A000CF911F910F910895FC01A081B1811C96DF
:1022B0008C9191A5882321F0992321F083A508957D
:1022C000892F089581E008951F93CF93DF93EC0148
:1022D000162F1CA68BA5882329F0CE010E9454112D
:1022E00081110FC08A819B81112331F06EE4DF914F
:1022F000CF911F910C949C0E6EE40E94D5108C839C
:1023000023C08AA581111AC060E08DE00E942C24B0
:1023100060E08CE00E942C240E941E110E949824F0
:1023200069AF7AAF8BAF9CAF81E08FAB1CA28AA75D
:1023300061E080E10E942C241FA306C0112321F03C
:1023400061E38A819B81D3CFDF91CF911F91089563
:102350001F93CF93DF93EC011BA5112331F00E9453
:102360005411882311F081E00BC0CE010E9454115A
:10237000882321F0111104C084E002C082E000C073
:10238000DF91CF911F910895CF93DF93FC0122A598
:10239000211110C0EC010E945411882359F08BA523
:1023A000882341F081E08CA70E9498246DA77EA726
:1023B0008FA798ABDF91CF9108951F93CF93DF93B1
:1023C000EC01162FE881F981838581110CC08AA563
:1023D00081111BC08BA58823C1F061E08DE00E94B4
:1023E0002C241CA612C08EAD81110FC08BA5882392
:1023F00061F060E08DE00E942C24112331F0CE01C9
:10240000DF91CF911F910C94C411DF91CF911F9157
:102410000895EF92FF920F931F93CF93DF937B0169
:102420008A01E901F8948AE00E94032431E0892BB3
:1024300009F430E0F70130838BE00E94032431E09F
:10244000892B09F030E0F801308383E00E940324F7
:1024500031E0892B09F430E038837894DF91CF9113
:102460001F910F91FF90EF9008950F931F93CF93BB
:10247000DF9300D01F92CDB7DEB78C019E012F5F96
:102480003F4FAE014E5F5F4FBE016D5F7F4F0E94B9
:1024900009129A81F80192A7992311F061E001C015
:1024A00060E080E10E942C248A810F900F900F90B1
:1024B000DF91CF911F910F9108951F920F920FB648
:1024C0000F9211248F939F9391E090930802809133
:1024D00020028F5F80932002809120028E3240F094
:1024E00080914C02811102C0909309021092200247
:1024F0009F918F910F900FBE0F901F9018951F9274
:102500000F920FB60F9211240F900FBE0F901F90D5
:1025100018951F920F920FB60F9211248F9381E09E
:10252000809370028F910F900FBE0F901F9018959F
:102530001F920F920FB60F9211248F9381E0809318
:1025400071028F910F900FBE0F901F901895E0E6CB
:10255000F0E098E1908380830895AF92BF92DF927C
:10256000EF92FF920F931F93CF93DF93CDB7DEB718
:1025700062970FB6F894DEBF0FBECDBF7C01062F69
:10258000D42E122F60932403BC01CE010D960E941D
:102590003C2369E873E0CE0101960E943323BE011B
:1025A0006F5F7F4FC7010E94A921B82ECE0101960F
:1025B0000E942E23BB2019F00E94C027B9C560E8F5
:1025C00073E0CE0101960E943323BE016F5F7F4FFF
:1025D000C7010E94A921B82ECE0101960E942E2388
:1025E000BB2011F1E0900F03F0901003002319F0CD
:1025F000F701108203C081E0F7018083B7018CE20C
:1026000091E00E94D225F7011182B7016F5F7F4FE1
:102610008AE190E00E94D225F7011282B7016E5F35
:102620007F4F86E190E082C568E773E0CE010196B6
:102630000E943323BE016F5F7F4FC7010E94A92113
:10264000B82ECE0101960E942E23BB2009F46CC047
:1026500060E080910F03909110030E94900CE09134
:102660000F03F09110038DE7848BBF016C5E7F4FE9
:1026700084EB90E00E94D2256BE480910F0390914F
:1026800010030E947F0C60E080910F039091100373
:102690000E94430EE0910F03F09110031586BF01D5
:1026A000635F7F4F8AE390E00E94D225E0910F03A1
:1026B000F09110031486BF01645F7F4F86E390E0C2
:1026C0000E94D225E0910F03F0911003118EBF01FB
:1026D000675E7F4F8CE090E00E94D22563E480919A
:1026E0000F03909110030E94570EE0910F03F09199
:1026F000100382E390E0968B858BBF016B5E7F4F6A
:1027000084E090E00E949325E0910F03F091100384
:1027100082E090E0908F878BBF01695E7F4F82E1FE
:1027200090E00E94932504C564E773E0CE01019612
:102730000E943323BE016F5F7F4FC7010E94A92112
:10274000B82ECE0101960E942E23BB20F1F1E0901D
:102750000F03F09010036FE571E0CE0107960E9421
:10276000452310E0F70180811817F8F4FBE01F9F64
:10277000A0011124405D5E4F2AE0B701CE01019611
:102780000E94A50CBE016F5F7F4FCE0107960E948D
:102790009822CE0101960E942E236EE571E0CE01B3
:1027A00007960E9489221F5FDDCF6FE571E0CE01A1
:1027B00007960E94C421882309F4D2C46AE673E014
:1027C000CE0107960E949F22CBC464E673E0CE013F
:1027D00001960E943323BE016F5F7F4FC7010E94A5
:1027E000A921B82ECE0101960E942E23BB2029F0EC
:1027F0008FE093E00E941B11DCC460E673E0CE0121
:1028000001960E943323BE016F5F7F4FC7010E9474
:10281000A921B82ECE0101960E942E23BB2019F0CB
:102820000E947527B2C469E573E0CE0101960E944B
:102830003323BE016F5F7F4FC7010E94A921B82ECD
:10284000CE0101960E942E23BB2011F061E014C03E
:1028500061E573E0CE0101960E943323BE016F5FF4
:102860007F4FC7010E94A921B82ECE0101960E9478
:102870002E23BB2079F060E080910F03909110032C
:102880000E94900C61E080911103909112030E94CC
:10289000DD114EC46BE473E0CE0101960E94332338
:1028A000BE016F5F7F4FC7010E94A921B82ECE01E4
:1028B00001960E942E23BB2039F0E0910F03F09186
:1028C000100381E0848718C064E473E0CE010196B0
:1028D0000E943323BE016F5F7F4FC7010E94A92171
:1028E000B82ECE0101960E942E23BB2059F0E09114
:1028F0000F03F09110031486BF01645F7F4F86E3DE
:1029000090E014C46EE373E0CE0101960E9433237D
:10291000BE016F5F7F4FC7010E94A921B82ECE0173
:1029200001960E942E23BB2039F0E0910F03F09115
:10293000100381E0818F18C067E373E0CE01019638
:102940000E943323BE016F5F7F4FC7010E94A92100
:10295000B82ECE0101960E942E23BB2059F0E091A3
:102960000F03F0911003118EBF01675E7F4F8CE063
:1029700090E0DCC362E373E0CE0101960E94332352
:10298000BE016F5F7F4FC7010E94A921B82ECE0103
:1029900001960E942E23BB20E1F0F70184819581EE
:1029A000059708F406C464E070E0C7010E9498210E
:1029B000982F9D7F913429F0843519F08E3409F0D9
:1029C000F8C3682F80910F03909110030E94570E57
:1029D000AFC362EB71E0CE0101960E944523BE01B8
:1029E0006F5F7F4FC7010E94A921B82ECE010196CB
:1029F0000E942E23BB2049F1F70184819581049721
:102A000008F4D7C363E070E0C7010E9498218B32BD
:102A100039F4E0910F03F09110038489865F09C0B7
:102A20008D3209F0C6C3E0910F03F0911003848941
:102A30008A50853608F4BDC3848BBF016C5E7F4F1E
:102A400084EB90E00E94D225B4C366EB71E0CE0126
:102A500001960E944523BE016F5F7F4FC7010E9410
:102A6000A921B82ECE0101960E942E23BB2011F180
:102A7000F70184819581049708F49BC363E070E0BB
:102A8000C7010E9498218B3241F480910F039091ED
:102A90001003FC016389665F0AC08D3209F089C3A7
:102AA00080910F0390911003FC0163896A500E948A
:102AB0007F0C7FC36BE273E0CE0101960E9433234B
:102AC000BE016F5F7F4FC7010E94A921B82ECE01C2
:102AD00001960E942E23BB2009F4BCC064E273E07F
:102AE000C7010E949F2246E05FE060E070E0C701FE
:102AF0000E940527882339F0C7010E943F21162F25
:102B0000110F160F01C01FEF65E08FE093E00E94E8
:102B1000A50E6DE173E0C7010E949F2249E35FE0CB
:102B200060E070E0C7010E940527882349F16EE844
:102B300071E0CE0107960E944523F701448155813B
:102B40008B859C85481B590BBE01695F7F4FC70170
:102B50000E944A219C0140E050E0B701CE0101965D
:102B60000E945A23CE0101960E943F21062FCE01DA
:102B700001960E942E23CE0107960E942E2301C0AB
:102B80000FEFA0901103B0901203C5010E94A8118D
:102B9000F82EF501E2A46CEB72E0CE0101960E94E2
:102BA0003323E0910F03F09110038385811106C058
:102BB00064EB72E0CE0101960E949F226BEB71E004
:102BC000CE0101960E948922F1E0FF1631F082E0E9
:102BD000F81631F064EA72E005C068E972E002C0FC
:102BE0006AEA72E0CE0101960E9415226DE972E058
:102BF000CE0101960E941522E11003C06DE872E03B
:102C000002C063E972E0CE0101960E9415220F3FD7
:102C100059F066E872E0CE0101960E941522602FFD
:102C2000CE0101960E94E9331F3F59F06CE772E034
:102C3000CE0101960E941522612FCE0101960E94BD
:102C4000E93340E061E0CE0101960E947B1DCE0198
:102C5000019699C268E173E0CE0101960E94332388
:102C6000BE016F5F7F4FC7010E94A921882321F019
:102C7000002319F011E001C010E0CE0101960E947E
:102C80002E23112359F0E0910F03F091100382815C
:102C9000882309F48EC281E0818318C062E173E069
:102CA000CE0101960E943323BE016F5F7F4FC701A3
:102CB0000E94A921182FCE0101960E942E231123D4
:102CC00059F0E0910F03F09110031182BF016F5F83
:102CD0007F4F8AE190E02AC2F701048101506CE045
:102CE00073E0CE0101960E94332325E0AE014F5FD1
:102CF0005F4FB7018FE093E00E94D00E182FCE01F6
:102D000001960E942E231123F1F0C7010E94511F4A
:102D1000882309F44EC2C7010E943F218B0166300F
:102D2000710510F005E010E0E0910F03F091100341
:102D30000587BF01635F7F4F8AE390E00E94D22541
:102D400066E073E07BC0F701048101506DEF72E033
:102D5000CE0101960E94332328E0AE014F5F5F4F02
:102D6000B7018FE093E00E94D00E182FCE0101969C
:102D70000E942E23112329F1C7010E94511F88238D
:102D800009F417C2C7010E943F218B01623071050F
:102D900030F0613B744028F000EB14E002C002E028
:102DA00010E0E0910F03F0911003108F078BBF012B
:102DB000695E7F4F82E190E00E94932564EF72E0AC
:102DC0003DC0F701048101506BEE72E0CE01019627
:102DD0000E94332328E0AE014F5F5F4FB7018FE0C1
:102DE00093E00E94D00E182FCE0101960E942E2350
:102DF000112371F1C7010E94511F882309F4D9C121
:102E0000C7010E943F218B016233710530F06138A8
:102E1000704728F000E810E702C002E310E0E091FC
:102E20000F03F0911003168B058BBF016B5E7F4F74
:102E300084E090E00E94932562EE72E0CE010D9650
:102E40000E949F22B801CE010D960E94B93370C135
:102E5000F701048101506EED72E0CE0101960E94EF
:102E6000332323E0AE014F5F5F4FB7018FE093E064
:102E70000E94D00E182FCE0101960E942E231123FE
:102E800021F162ED72E0CE0107960E943323B70173
:102E9000CE0107960E94982260E771E0CE01079666
:102EA0000E94892281E080932503BE01695F7F4FE4
:102EB000CE0101960E943C2341E0BE016F5F7F4F2F
:102EC0008FE093E00E94B80F58C160EC71E0CE0132
:102ED00001960E9445230CE022E0AE014F5F5F4F58
:102EE000B7018FE093E00E94D00E182FCE0101961B
:102EF0000E942E23112309F448C0C7010E94511FCC
:102F0000882309F456C100910F0310911003F801B2
:102F10008081823008F44DC1B701C8010E94B80D0C
:102F2000F82E8FEF8F0D8D3F08F043C18BE0E82E18
:102F30002F2D30E0F8019081492F50E04150510988
:102F400024173507FCF42F5F3F4FE29E5001E39EAC
:102F5000B00C1124A501405D5E4F2AE0B801CE01FE
:102F600001960E94A50CB5016B5D7E4FAE014F5FCF
:102F70005F4FC8010E940E0CCE0101960E942E23C5
:102F8000F394D6CF9150908348C064EC71E0CE01A9
:102F900001960E9445230CE022E0AE014F5F5F4F97
:102FA000B7018FE093E00E94D00E182FCE0101965A
:102FB0000E942E231123A9F1C7010E94511F8823CB
:102FC00009F4F7C000910F0310911003F8018081FC
:102FD0008F3009F4EEC0B701C8010E94B80D8F3FD1
:102FE00009F0E7C0B701CE0101960E943C23F80129
:102FF0006081FBE06F9FB0011124605D7E4FAE01E8
:103000004F5F5F4FC8010E940E0CCE0101960E94D7
:103010002E23F80180818F5F8083B8018CE291E0DC
:1030200085C063EC71E0CE0101960E9445230DE05E
:1030300023E0AE014F5F5F4FB7018FE093E00E9446
:10304000D00E182FCE0101960E942E23112351F18C
:10305000C7010E94511F882309F4ABC000910F03E0
:1030600010911003F8018081882309F4A2C081E047
:103070008283B8016E5F7F4F86E190E00E94D22587
:10308000B701CE0101960E943C23AE014F5F5F4F16
:103090006EE170E0C8010E940E0CCE0101960E9404
:1030A0002E2346C067EC71E0CE0101960E944523B5
:1030B0000DE023E0AE014F5F5F4FB7018FE093E07B
:1030C0000E94D00E182FCE0101960E942E231123AC
:1030D00009F46FC0C7010E94511F882309F469C019
:1030E00000910F031091100381E0F8018383B80170
:1030F0006D5F7F4F88E590E00E94D225B701CE0139
:1031000001960E943C23AE014F5F5F4F60E670E086
:10311000C8010E940E0CCE0101960E942E23F801D8
:103120001482B8016C5F7F4F8CE590E00E94D2253D
:1031300011E0D1102AC06CEC72E0CE0107960E941B
:103140003323111106C063EC72E0CE0107960E9492
:103150009F22BE01635F7F4FCE0107960E94982297
:10316000BE01695F7F4FCE0101960E943C2340E083
:1031700061E0CE0101960E947B1DCE0101960E9466
:103180002E23CE0107960E942E23CE010D960E947B
:103190002E2362960FB6F894DEBF0FBECDBFDF912F
:1031A000CF911F910F91FF90EF90DF90BF90AF9064
:1031B000089510E0BECFEF92FF920F931F93CF932D
:1031C000DF9300D0CDB7DEB78C017B01FB016081BE
:1031D0009A838983CE0101960E94290EF7016181AD
:1031E0000F5F1F4F1A830983CE0101960E94290E9B
:1031F000C7010F900F90DF91CF911F910F91FF901A
:10320000EF900895CF93DF9300D000D000D0CDB7DA
:10321000DEB76FE672E0CE0101960E94332360E0D4
:10322000CE0101960E945F26CE0101960E942E23B8
:1032300068E672E0CE0101960E94332360E0CE0181
:1032400001960E945F26CE0101960E942E236CE516
:1032500072E0CE0101960E94332360E0CE01019618
:103260000E945F26CE0101960E942E2381E0898371
:10327000BE016F5F7F4F84E893E00E94D2251A82DF
:103280001982BE016F5F7F4F84E993E00E94DB18D3
:103290001982BE016F5F7F4F80E993E00E94D225C3
:1032A00064E68FE093E00E94A50E8FE093E00E9419
:1032B0001B1126960FB6F894DEBF0FBECDBFDF916F
:1032C000CF9108951F93CF93DF9300D000D000D00B
:1032D000CDB7DEB76DE472E0CE0101960E943323D4
:1032E00061E0CE0101960E945F26182FCE01019663
:1032F0000E942E23812F26960FB6F894DEBF0FBEB4
:10330000CDBFDF91CF911F9108958FE093E00E9490
:10331000E80F0E9498246093200370932103809308
:1033200022039093230308950F931F93CF93DF936A
:10333000CDB7DEB72C970FB6F894DEBF0FBECDBF6A
:1033400065E074E0CE0107960E94332361E4CE016C
:1033500007960E94762261E074E0CE0107960E94F3
:1033600015220FE013E0D801D1968D919C91D29750
:10337000DC01ED91FC910284F385E02D0995BE01FD
:10338000695F7F4FCE0101960E943C2341E0BE0160
:103390006F5F7F4FC8010E94B80FCE0101960E9457
:1033A0002E23F80181A992A9DC01ED91FC91028400
:1033B000F385E02D0995CE0107960E942E232C96C9
:1033C0000FB6F894DEBF0FBECDBFDF91CF911F9136
:1033D0000F910895FC01A089B18982E08C93A485A6
:1033E000B5851C92A685B78583E38C93108EA4893E
:1033F000B58986E08C93A289B3898C9180618C9386
:10340000A289B3898C9188608C93A289B3898C91AD
:1034100080688C930288F389E02D80818F7D808382
:10342000089580912503811119C090912D039E3438
:10343000B1F490912E039E3491F490913B03992323
:1034400071F09091390391110AC090911C03911170
:1034500006C09091430381E08927089580E0089594
:103460001F93CF93DF93EC01162F89A99AA9DC0152
:10347000ED91FC910284F385E02D0995CE010E9427
:10348000E80F0E9498246F83788789879A8781E064
:103490008B8719A71C87DF91CF911F91089585E431
:1034A00080937C0080917A00806480937A00809180
:1034B0007A0086FDFCCF809178002091790090E021
:1034C000922B08954F925F926F927F92AF92BF922C
:1034D000CF92DF92EF92FF920F931F93CF93DF93E0
:1034E00060E070E00E9498218133D1F483E58093FD
:1034F0003A030E94851961E08091110390911203B3
:10350000DF91CF911F910F91FF90EF90DF90CF90BF
:10351000BF90AF907F906F905F904F900C9464112C
:103520008233E1F48FE480933A030E94851920E00E
:1035300040E061E08091110390911203DF91CF91FF
:103540001F910F91FF90EF90DF90CF90BF90AF90C1
:103550007F906F905F904F900C9422118333A1F570
:1035600084E580933A030E948519C0911103D0919C
:103570001203CE010E94A811843011F46CE403C040
:10358000823099F461E48A819B81DF91CF911F9110
:103590000F91FF90EF90DF90CF90BF90AF907F9012
:1035A0006F905F904F900C949C0E813009F01BC17E
:1035B000CE010E9435122A813B81882311F061E3FC
:1035C00001C063E3C901E1CF803309F069C0809194
:1035D0001D03882309F460C0C0911103D091120328
:1035E0008AA5882309F4DCC08FA98111D9C088ADD0
:1035F0008111D6C08EAD8111D3C0CE010E9454116D
:10360000882309F4CDC00E944F1ABC0180E090E0ED
:103610000E94BA376B017C0108811981F801638926
:1036200070E080E090E00E94BA379B01AC01C701D6
:10363000B6010E94F73720E030E048EC52E40E94E7
:103640001A340E948C342B013C015B01F80164891F
:1036500070E080E090E00E94BA379B01AC01C701A6
:10366000B6010E94F73720E030E048EC52E40E94B7
:103670001A340E948C346B017C016F3F734028F434
:1036800085E0A816B10408F092C06AE58A819B81A2
:103690000E949C0E0E94851981E080931D03A3C0A7
:1036A0008434C9F481E380933A0361E080910F038D
:1036B000909110030E94900C61E080911103909111
:1036C00012030E94DD1160E08091110390911203BA
:1036D0000E94641115C0833419F582E380933A0384
:1036E00060E080910F03909110030E94900C21E004
:1036F00040E060E080911103909112030E9422113A
:10370000DF91CF911F910F91FF90EF90DF90CF90BD
:10371000BF90AF907F906F905F904F900C949419F2
:103720008833A9F40E94851961E080910F0390917C
:1037300010030E94900C61E080911103909112039C
:103740000E94DD1181E08093140368E317C0893380
:1037500009F049C00E94851960E080910F039091A3
:1037600010030E94900C61E080911103909112036C
:103770000E94DD1181E08093140369E38FE093E000
:10378000DF91CF911F910F91FF90EF90DF90CF903D
:10379000BF90AF907F906F905F904F900C94301AD5
:1037A00060E0888199810E94430E69E56FCFF8013E
:1037B000528A418AB8016F5E7F4F8CEA90E00E9486
:1037C0009325E881F981D08AC786BF01615F7F4F69
:1037D00088EA90E00E94932561E0888199810E94A7
:1037E000430E6BE453CFDF91CF911F910F91FF9068
:1037F000EF90DF90CF90BF90AF907F906F905F90F1
:103800004F900895EF92FF920F931F93CF93DF9302
:1038100000D000D000D0CDB7DEB77C016BEC71E0FA
:10382000CE0101960E94452308E027E0AE014F5FDC
:103830005F4FB7018FE093E00E94D00E182FCE01AA
:1038400001960E942E23812F26960FB6F894DEBF94
:103850000FBECDBFDF91CF911F910F91FF90EF90E1
:103860000895CF93DF9300D000D000D0CDB7DEB75E
:1038700010922F0310921C038091400390914103FA
:10388000DC01ED91FC910284F385E02D099569EF4F
:1038900073E0CE0101960E94332341E0BE016F5FC9
:1038A0007F4F8FE093E00E94B80FCE0101960E94F7
:1038B0002E230E94982461E08FE093E00E94A50EE1
:1038C0006FE571E0CE0101960E94452341E0BE0103
:1038D0006F5F7F4F8FE093E00E94B80FCE0101969B
:1038E0000E942E238091400390914103DC01ED91D1
:1038F000FC910284F385E02D099510923903109212
:103900001D0380912D038E3411F0823549F580918D
:103910002E038F3429F580913103811121C08091CC
:10392000300381111DC0E0910F03F0911003828DCF
:103930008435B1F48081823098F081E08093310346
:10394000809332030E94982460933303709334036E
:103950008093350390933603809138038093370327
:1039600010923003109214038EE480932D03809301
:103970002E03109213030E94982460933C037093CB
:103980003D0380933E0390933F0310923B032696A2
:103990000FB6F894DEBF0FBECDBFDF91CF91089573
:1039A000FF920F931F93CF93DF9300D000D000D0EE
:1039B000CDB7DEB78C016DEE73E0CE0101960E94AB
:1039C0003323BE016F5F7F4FC8010E94A921F82EEB
:1039D000CE0101960E942E23FF20E1F02CE030E082
:1039E0004BE050E0B801CE0101960E945A2360E0FE
:1039F00070E0CE0101960E949821182FCE01019609
:103A00000E942E23123341F0133341F0103341F062
:103A1000163341F08EE407C084E405C082E503C09C
:103A200089E401C085E426960FB6F894DEBF0FBE88
:103A3000CDBFDF91CF911F910F91FF900895FF921D
:103A40000F931F93CF93DF9300D000D000D0CDB75A
:103A5000DEB78C0161EE73E0CE0101960E94332344
:103A6000BE016F5F7F4FC8010E94E321F82ECE0197
:103A700001960E942E23FF2011F091E02FC06BEDE4
:103A800073E0CE0101960E943323BE016F5F7F4F2A
:103A9000C8010E94E321F82ECE0101960E942E2338
:103AA000F110EBCF60ED73E0CE0101960E9433235D
:103AB000BE016F5F7F4FC8010E94E321F82ECE0147
:103AC00001960E942E23F110D8CF63ED71E0C8015A
:103AD0000E94C42191E0811101C090E0892F2696B7
:103AE0000FB6F894DEBF0FBECDBFDF91CF911F910F
:103AF0000F91FF900895EF92FF920F931F93CF9332
:103B0000DF93CDB7DEB762970FB6F894DEBF0FBE76
:103B1000CDBF7C01062F142F81E080931C03809180
:103B2000400390914103DC01ED91FC910284F38507
:103B3000E02D0995B701CE010D960E943C2301119D
:103B400026C0809138038F34B1F034F4833499F077
:103B5000863409F0E7C00FC0833521F0853509F0C0
:103B6000E1C009C06AED71E0CE010D960E94C72246
:103B700061EE71E008C06AED71E0CE010D960E9421
:103B8000C72264EE71E0CE010D960E94892268EE94
:103B900071E0CE0107960E9445231230B9F460917E
:103BA0000F0370911003FB018381882341F02AE009
:103BB00040E650E0CE0101960E94A50C1AC06FE5C8
:103BC00071E0CE0101960E94452313C08091240329
:103BD000882339F065EC73E0CE0107960E94152228
:103BE00013C060910F0370911003CE0101960E94E3
:103BF0001A0DBE016F5F7F4FCE0107960E9498227B
:103C0000CE0101960E942E2360E771E0CE01079657
:103C10000E9489228091400390914103DC01ED9143
:103C2000FC910284F385E02D0995BE01695F7F4F09
:103C3000CE0101960E943C2341E0BE016F5F7F4FA1
:103C40008FE093E00E94B80FCE0101960E942E23D0
:103C50008091400390914103DC01ED91FC9102843D
:103C6000F385E02D09956AE08FE093E00E94A50EB0
:103C7000BE01635F7F4FCE0101960E943C2341E06D
:103C8000BE016F5F7F4F8FE093E00E94B80FCE01BF
:103C900001960E942E238091400390914103DC0104
:103CA000ED91FC910284F385E02D09956AE08FE0A7
:103CB00093E00E94A50E8091400390914103DC01A6
:103CC000ED91FC910284F385E02D09958FE093E05E
:103CD0000E94970F0091400310914103D801ED918C
:103CE000FC910190F081E02D6AE1C8010995C801BD
:103CF0000E94A0238091400390914103DC01ED914B
:103D0000FC910284F385E02D09956AE08FE093E051
:103D10000E94A50E1092240310921C03CE01079658
:103D20000E942E23CE010D960E942E2362960FB67E
:103D3000F894DEBF0FBECDBFDF91CF911F910F91E1
:103D4000FF90EF900895CF93DF9300D000D000D084
:103D5000CDB7DEB790913003911119C0E0910F03F8
:103D6000F0911003928D913491F4809338036FE5B4
:103D700071E0CE0101960E94452340E060E0CE0153
:103D800001960E947B1DCE0101960E942E2326964D
:103D90000FB6F894DEBF0FBECDBFDF91CF9108956F
:103DA0000F931F93CF93DF93CDB7DEB76E970FB608
:103DB000F894DEBF0FBECDBF8C016AEB73E0CE017D
:103DC00001960E943323BE016F5F7F4FC8010E949E
:103DD000E32181114DC06FEA73E0CE0107960E9486
:103DE0003323BE01695F7F4FC8010E94E321811127
:103DF00041C064EA73E0CE010D960E943323BE01F8
:103E0000635F7F4FC8010E94E321811135C069E9DA
:103E100073E0CE0143960E943323BE016D5E7F4F57
:103E2000C8010E94E321811115C06EE873E0CE0144
:103E300049960E943323BE01675E7F4FC8010E94EE
:103E4000E32111E0811101C010E0CE0149960E94EA
:103E50002E2301C011E0CE0143960E942E23CE01F5
:103E60000D960E942E23CE0107960E942E2309C094
:103E700080E004C081E002C011E0F1CF11E08111C7
:103E8000F2CFCE0101960E942E23812F6E960FB69F
:103E9000F894DEBF0FBECDBFDF91CF911F910F9180
:103EA0000895EF92FF920F931F93CF938C01FC0123
:103EB000E480F580C0E06C2F70E06E157F0568F43B
:103EC000C8010E949821282F880F330B20533109F5
:103ED0002A30310520F4CF5FEECF81E001C080E0D1
:103EE000CF911F910F91FF90EF9008950F931F9323
:103EF000CF93DF93EC018B016FE571E00E944523C6
:103F0000C8010E94A42497FD08C08A30910529F0B9
:103F1000682FCE010E947622F3CFCE01DF91CF91A0
:103F20001F910F9108950895CF92DF92EF92FF9223
:103F30000F931F93CF93DF936C017A018B01C0E045
:103F4000D0E0CE15DF0589F0D8016D918D01D60145
:103F5000ED91FC910190F081E02DC6010995892B2E
:103F600011F47E0102C02196ECCFC701DF91CF9101
:103F70001F910F91FF90EF90DF90CF900895FC017B
:103F8000918D828D981761F0828DDF01A80FB11D90
:103F90005D968C91928D9F5F9F73928F90E00895B4
:103FA0008FEF9FEF0895FC01918D828D981731F06E
:103FB000828DE80FF11D858D90E008958FEF9FEFC2
:103FC0000895FC01918D228D892F90E0805C9F4F98
:103FD000821B91098F739927089582E792E00E94CE
:103FE000E11F21E0892B09F420E0822F0895FC01D4
:103FF000848DDF01A80FB11DA35ABF4F2C91848D72
:1040000090E001968F739927848FA689B7892C93A6
:10401000A089B1898C9180648C93938D848D981341
:1040200006C00288F389E02D80818F7D808308950A
:10403000EF92FF920F931F93CF93DF93EC0181E0F8
:10404000888F9B8D8C8D981305C0E889F9898081B4
:1040500085FD24C0F62E0B8D10E00F5F1F4F0F73F0
:104060001127E02E8C8DE8120CC00FB607FCFACF9A
:10407000E889F989808185FFF5CFCE010E94F71F7D
:10408000F1CF8B8DFE01E80FF11DE35AFF4FF08257
:104090000B8FEA89FB898081806207C0EE89FF89E6
:1040A0006083E889F98980818064808381E090E081
:1040B000DF91CF911F910F91FF90EF900895CF93D3
:1040C000DF93EC01888D8823C9F0EA89FB89808120
:1040D00085FD05C0A889B9898C9186FD0FC00FB6F2
:1040E00007FCF5CF808185FFF2CFA889B9898C9133
:1040F00085FFEDCFCE010E94F71FE7CFDF91CF9173
:10410000089580E090E0892B29F00E94ED1F811135
:104110000C9400000895833081F028F4813099F0E8
:104120008230A1F008958730A9F08830B9F084304A
:10413000D1F4809180008F7D03C0809180008F77C3
:1041400080938000089584B58F7702C084B58F7DF9
:1041500084BD08958091B0008F7703C08091B00036
:104160008F7D8093B000089508950E94B236CF935A
:10417000DF93EC0188819981009711F00E945035FE
:10418000198218821D821C821B821A82DF91CF91B4
:1041900008950F931F93CF93DF93EC01888199814A
:1041A000009729F02A813B812617370788F48B0175
:1041B0006F5F7F4F0E94E835009761F09983888395
:1041C0001B830A832C813D81232B11F4FC01108277
:1041D00081E001C080E0DF91CF911F910F910895A0
:1041E000EF92FF920F931F93CF93DF93FC012481F3
:1041F00035816115710511F480E019C04115510533
:10420000A9F07B01EC018A01020F131FB8010E9483
:10421000C920882389F3288139818C819D81B70148
:10422000820F931F0E94D9361D830C8381E0DF919A
:10423000CF911F910F91FF90EF900895EF92FF9211
:104240000F931F93CF93DF93EC017B018A01BA0197
:104250000E94C920811104C0CE010E94B72007C06E
:104260001D830C83B701888199810E94D936CE01C4
:10427000DF91CF911F910F91FF90EF900895FC0176
:1042800080819181009711F00C94173760E070E005
:10429000CB010895AF92BF92CF92DF92EF92FF923F
:1042A0000F931F93CF93DF937B018A01FB0144811E
:1042B00055814115510561F1FC012481358121159C
:1042C000310531F12417350718F10217130718F0DB
:1042D000890101501109FC01A080B180C501DFEF07
:1042E000CFEF6501C00ED11EC816D906A0F0F701A8
:1042F000608171810E94FD36009769F09C012A1946
:104300003B090217130710F0D22FC32F0196ECCFF1
:104310008FEF9FEF02C08D2F9C2FDF91CF911F91C8
:104320000F91FF90EF90DF90CF90BF90AF900895E6
:10433000FC01248135816217730748F480819181E3
:10434000009729F0FC01E60FF71F8081089580E0B7
:104350000895FB0144815581FC0124813581241796
:10436000350778F080819181009759F0FB016081D9
:1043700071816115710529F00E94E03621E0892BD9
:1043800009F020E0822F0895FC0124813581232B40
:1043900031F421E061157105A1F0FB0108C0FC01B9
:1043A000808191816115710531F421E0FC018081EA
:1043B000882339F005C00E94D03621E0892B09F00E
:1043C00020E0822F0895FC0124813581FB01448186
:1043D00055812417350721F5FC0180819181FB016E
:1043E00060817181009719F061157105A1F4611563
:1043F000710549F0232BB1F0FB01808190E091958C
:10440000819591090AC0009769F0232B59F0FC01AE
:10441000808190E002C00E94D03621E0892B19F003
:1044200020E001C021E0822F0895EF92FF920F93C8
:104430001F93CF93DF936115710511F480E01EC0C7
:104440008B01EC01CB010E9445370097B1F02C8124
:104450003D817C01E20EF31EB701CE010E94C9200E
:10446000882361F3288139818C819D81B801820F75
:10447000931F0E943E37FD82EC8281E0DF91CF9155
:104480001F910F91FF90EF900895EF92FF920F937D
:104490001F93CF93DF93CDB7DEB72D970FB6F89468
:1044A000DEBF0FBECDBF7C01CB01BA012AE08E0179
:1044B0000F5F1F4FA8010E946E37F8010190002086
:1044C000E9F73197AF01401B510BB801C7010E94BA
:1044D000F0202D960FB6F894DEBF0FBECDBFDF9152
:1044E000CF911F910F91FF90EF900895CF93DF939D
:1044F00000D0CDB7DEB769831A8241E050E0BE013B
:104500006F5F7F4F0E94F0200F900F90DF91CF914F
:1045100008956115710551F0FB0101900020E9F744
:104520003197AF01461B570B0C94F02080E00895A3
:10453000FB0144815581608171810C94F020EF92E0
:10454000FF920F931F93CF93DF93EC018B016115C3
:10455000710551F0CB010E9445377C01BC01CE01B1
:104560000E94C920811104C0CE010E94B72007C05B
:10457000FD82EC82B801888199810E943E37CE018C
:10458000DF91CF911F910F91FF90EF900895CF93FE
:10459000DF93EC016115710559F0FB0101900020DA
:1045A000E9F73197AF01461B570B0E941E2102C04D
:1045B0000E94B720CE01DF91CF910895CF93DF9372
:1045C000EC01FB018617970761F06081718161152D
:1045D000710529F0448155810E941E2102C00E946C
:1045E000B720CE01DF91CF9108950F931F93CF9302
:1045F000DF938C01EB01FC01808191810097B1F088
:10460000688179816115710579F0428153812C812E
:104610003D814217530740F00E94D9368C819D811D
:10462000F8019583848313C00E9450358881998155
:10463000F801918380838A819B81938382838C811B
:104640009D8195838483198218821B821A821D8220
:104650001C82DF91CF911F910F910895FC01808101
:1046600091810C945035FC011182108213821282C8
:10467000158214820C949F22FC01118210821382F5
:104680001282158214820C94DE22FC0111821082A7
:1046900013821282158214826115710551F0FB019B
:1046A00001900020E9F73197AF01461B570B0C949E
:1046B0001E210895BF92CF92DF92EF92FF920F9347
:1046C0001F93CF93DF937C016B018A01E9012417CB
:1046D000350720F4812F8901C42FD82F6FE571E0B1
:1046E000C7010E944523D60114968D919C91159780
:1046F00008171907D0F48C179D0708F4EC01D601B0
:10470000ED91FC911197EC0FFD1FB08010824D913F
:104710005C91BA01600F711FC7010E94C722D601C8
:10472000ED91FC91EC0FFD1FB082C701DF91CF919D
:104730001F910F91FF90EF90DF90CF90BF90089561
:10474000DC01ED91FC910280F381E02D42E050E02C
:104750006DE571E009941F920F920FB60F9211242C
:104760002F933F934F935F936F937F938F939F9379
:10477000AF93BF93EF93FF9382E792E00E94F71FFE
:10478000FF91EF91BF91AF919F918F917F916F9129
:104790005F914F913F912F910F900FBE0F901F90FF
:1047A00018951F920F920FB60F9211242F938F938B
:1047B0009F93EF93FF93E0918202F09183028081B7
:1047C000E0918802F091890282FD12C0908180916F
:1047D0008B028F5F8F7320918C02821751F0E091D2
:1047E0008B02F0E0EE58FD4F958F80938B0201C055
:1047F0008081FF91EF919F918F912F910F900FBE2C
:104800000F901F901895CF93DF93282F30E0F90178
:10481000EC5AFB4F8491F901E05CFB4FD491F90114
:10482000E45DFB4FC491CC2391F081110E948B2059
:10483000EC2FF0E0EE0FFF1FEE5DFB4FA591B49162
:10484000EC91ED2381E090E021F480E002C080E073
:1048500090E0DF91CF9108951F93CF93DF93282F9E
:1048600030E0F901EC5AFB4F8491F901E05CFB4F19
:10487000D491F901E45DFB4FC491CC23C9F0162F0C
:1048800081110E948B20EC2FF0E0EE0FFF1FE85EFD
:10489000FB4FA591B4918FB7F894111105C09C916D
:1048A000ED2FE095E92302C0EC91ED2BEC938FBF47
:1048B000DF91CF911F910895CF93DF9390E0FC019A
:1048C000E05CFB4F2491FC01E45DFB4F8491882365
:1048D00061F190E0880F991FFC01E25FFB4FC591E9
:1048E000D491FC01E85EFB4FA591B491611109C020
:1048F0009FB7F8948881209582238883EC912E239A
:104900000BC0623061F49FB7F8943881822F809594
:1049100083238883EC912E2B2C939FBF06C08FB7E7
:10492000F894E8812E2B28838FBFDF91CF910895D3
:104930002FB7F89460916E0370916F0380917003AC
:10494000909171032FBF08950F931F93CF93DF931F
:10495000EC010E949824688779878A879B87E88181
:10496000F9810680F781E02DCE01099597FF17C0E8
:104970000E949824088519852A853B85DC01CB0196
:10498000801B910BA20BB30B0C811D812E813F81EB
:1049900080179107A207B30710F38FEF9FEFDF9106
:1049A000CF911F910F9108951F920F920FB60F9202
:1049B00011242F933F938F939F93AF93BF93809135
:1049C0006E0390916F03A0917003B09171033091C9
:1049D0006D0326E0230F2D3720F40296A11DB11D93
:1049E00005C029E8230F0396A11DB11D20936D0377
:1049F00080936E0390936F03A0937003B093710341
:104A00008091690390916A03A0916B03B0916C034C
:104A10000196A11DB11D8093690390936A03A09331
:104A20006B03B0936C03BF91AF919F918F913F91B6
:104A30002F910F900FBE0F901F9018951F920F92FD
:104A40000FB60F9211242F933F934F935F936F9361
:104A50007F938F939F93AF93BF93EF93FF93E091D7
:104A60000201F09103010995FF91EF91BF91AF9180
:104A70009F918F917F916F915F914F913F912F9176
:104A80000F900FBE0F901F9018951F920F920FB6A8
:104A90000F9211242F933F934F935F936F937F93C4
:104AA0008F939F93AF93BF93EF93FF93E091000198
:104AB000F09101010995FF91EF91BF91AF919F9105
:104AC0008F917F916F915F914F913F912F910F90B7
:104AD0000FBE0F901F901895EF92FF920F931F93A8
:104AE000CF93DF9300D0CDB7DEB78C017B019A83E3
:104AF0008983CE0101960E94A00CF70180830F5F8D
:104B00001F4F1A830983CE0101960E94A00CF70162
:104B10008183C7010F900F90DF91CF911F910F916B
:104B2000FF90EF900895EF92FF920F931F93CF9312
:104B3000DF9300D0CDB7DEB78C017B01FB01608134
:104B40009A838983CE0101960E94290EF701618123
:104B50000F5F1F4F1A830983CE0101960E94290E11
:104B6000C7010F900F90DF91CF911F910F91FF9090
:104B7000EF9008950F931F93CF93DF9300D0CDB79D
:104B8000DEB78B019A838983CE0101960E94A00C27
:104B9000F8018083C8010F900F90DF91CF911F9192
:104BA0000F9108950F931F93CF93DF9300D0CDB74C
:104BB000DEB78B01FB0160819A838983CE01019668
:104BC0000E94290EC8010F900F90DF91CF911F9185
:104BD0000F9108950F931F93CF93DF9300D000D0D0
:104BE00000D0CDB7DEB7FC0182818823C1F08B01F4
:104BF000BF012AE04EE150E0CE0101960E94A50CD3
:104C0000BE016F5F7F4FC8010E94E32111E0811157
:104C100001C010E0CE0101960E942E2301C010E0D9
:104C2000812F26960FB6F894DEBF0FBECDBFDF9161
:104C3000CF911F910F910895EF92FF920F931F93C1
:104C4000CF93DF9300D000D000D0CDB7DEB78C017A
:104C50006FE571E00E9445238091400390914103EC
:104C6000DC01ED91FC910480F581E02D0995181689
:104C70001906BCF48FE093E00E94970F6091400307
:104C800070914103CE0101967C010E94761F0E15A2
:104C90001F0521F0B701C8010E94F522C7010E943B
:104CA0002E23C80126960FB6F894DEBF0FBECDBFE7
:104CB000DF91CF911F910F91FF90EF9008958F9208
:104CC0009F92AF92BF92CF92DF92EF92FF921F938B
:104CD000CF93DF9300D000D000D0CDB7DEB7162F32
:104CE000BC01CE0101960E943C2340E0BE016F5FF3
:104CF0007F4F8FE093E00E94B80FCE0101960E9493
:104D00002E230E9498244B015C01112339F090E678
:104D1000C92E9AEED92EE12CF12C15C088EBC82EA5
:104D20008BE0D82EE12CF12C0EC0809140039091A5
:104D30004103DC01ED91FC910480F581E02D0995A2
:104D40001816190674F00E949824DC01CB0188190A
:104D50009909AA09BB098C159D05AE05BF0528F365
:104D600021C0CE0101960E941C2665EF71E0CE01A4
:104D700001960E94C42181110DC063ED71E0CE0146
:104D800001960E94C421811107C0CE0101960E94A4
:104D90002E23D9CF11E001C010E0CE0101960E9470
:104DA0002E2301C010E0812F26960FB6F894DEBFA7
:104DB0000FBECDBFDF91CF911F91FF90EF90DF909D
:104DC000CF90BF90AF909F908F900895CF93DF9337
:104DD00000D000D000D0CDB7DEB76AE774E0CE01D6
:104DE00001960E94332360E0CE0101960E945F2667
:104DF000CE0101960E942E2326960FB6F894DEBFB0
:104E00000FBECDBFDF91CF9108958F929F92AF9249
:104E1000BF92CF92DF92EF92FF920F931F93CF93A7
:104E2000DF9300D000D000D0CDB7DEB76C017A019F
:104E30000E9498244B015C01B601CE0101960E94AC
:104E40003C2341E0BE016F5F7F4F8FE093E00E9403
:104E5000B80FCE0101960E942E230E9498248B0148
:104E60009C01081919092A093B09003A1F4021052C
:104E7000310530F58091400390914103DC01ED91C3
:104E8000FC910480F581E02D0995892B31F3CE0149
:104E900001960E941C26BE016F5F7F4F8FE093E05A
:104EA000F7010995182F8823A1F2BE016F5F7F4F8C
:104EB000C6010E94DE22CE0101960E942E2301C06F
:104EC00010E0812F26960FB6F894DEBF0FBECDBF3F
:104ED000DF91CF911F910F91FF90EF90DF90CF90D6
:104EE000BF90AF909F908F900895EF92FF920F9395
:104EF0001F93CF93DF93CDB7DEB72C970FB6F894FF
:104F0000DEBF0FBECDBF81E08093240366E774E06F
:104F1000CE0101960E9433237E0187E0E80EF11C4A
:104F200008E413E01C870B87CE010B960E94A00CAF
:104F3000F70181937F010F5F1F4F0C34F3E01F07D0
:104F400089F74F81588569857A85CE0101960E943F
:104F5000452240E061E0CE0101960E947B1DCE011A
:104F600001960E942E232C960FB6F894DEBF0FBE3A
:104F7000CDBFDF91CF911F910F91FF90EF900895DA
:104F8000CF93DF9300D000D000D0CDB7DEB768E676
:104F900074E0CE0101960E94332360E0CE010196B9
:104FA0000E945F26CE0101960E942E2326960FB600
:104FB000F894DEBF0FBECDBFDF91CF910895CF92A1
:104FC000DF92EF92FF920F931F93CF93DF93CDB7B2
:104FD000DEB72C970FB6F894DEBF0FBECDBF69EFDA
:104FE00071E0CE0101960E94452340E0BE016F5F53
:104FF0007F4F8FE093E00E94B80FCE0101960E9490
:105000002E230E9498246B017C010E949824DC01CD
:10501000CB018C199D09AE09BF0988389341A105C0
:10502000B10508F043C08091400390914103DC0139
:10503000ED91FC910480F581E02D0995892B29F3F0
:105040006091400370914103CE0107960E94761F44
:1050500068E874E0CE0101960E9433230BE02AE059
:10506000AE014F5F5F4FBE01695F7F4F8FE093E0FE
:105070000E94D00E182FCE0101960E942E231123DC
:1050800051F060E070E0CE0107960E9498218333D2
:1050900039F0813331F0CE0107960E942E23B5CF2F
:1050A00010E0CE0107960E942E2301C010E0812F50
:1050B0002C960FB6F894DEBF0FBECDBFDF91CF9117
:1050C0001F910F91FF90EF90DF90CF900895CF92B6
:1050D000DF92EF92FF921F93CF93DF9300D000D027
:1050E00000D0CDB7DEB7BC01CE0101960E943C23B3
:1050F00040E0BE016F5F7F4F8FE093E00E94B80FEA
:10510000CE0101960E942E230E9498246B017C01FF
:105110000E949824DC01CB018C199D09AE09BF09BE
:1051200088389341A105B10590F580914003909195
:105130004103DC01ED91FC910480F581E02D09959E
:10514000892B31F36091400370914103CE010196A8
:105150000E94761F65EF71E0CE0101960E94C42186
:1051600081110DC063ED71E0CE0101960E94C42152
:10517000811107C0CE0101960E942E23C9CF11E0F4
:1051800001C010E0CE0101960E942E2301C010E064
:10519000812F26960FB6F894DEBF0FBECDBFDF91EC
:1051A000CF911F91FF90EF90DF90CF9008950F93D4
:1051B0001F93CF93DF93CDB7DEB72C970FB6F8943C
:1051C000DEBF0FBECDBF63E974E0CE0107960E943B
:1051D000332349E35FE060E070E0CE0107960E9470
:1051E0000527882381F16EE871E0CE0101960E94C7
:1051F00045234B855C858D819E81481B590BBE01E3
:105200006F5F7F4FCE0107960E944A218C01CE012D
:1052100001960E942E23A80155279A012C5F3F4F2B
:105220004F5F5F4FBE01695F7F4FCE0101960E94C5
:105230005A23CE0101960E943F218B01CE01019697
:105240000E942E2302C000E010E0CE0107960E94CB
:105250002E23C8012C960FB6F894DEBF0FBECDBF2B
:10526000DF91CF911F910F910895CF93DF93CDB729
:10527000DEB763970FB6F894DEBF0FBECDBF78944C
:1052800084B5826084BD84B5816084BD85B582604B
:1052900085BD85B5816085BD80916E0081608093FC
:1052A0006E00109281008091810082608093810065
:1052B0008091810081608093810080918000816075
:1052C000809380008091B10084608093B1008091D0
:1052D000B00081608093B00080917A0084608093F8
:1052E0007A0080917A00826080937A0080917A00BF
:1052F0008E7F80937A0080917A00806880937A0014
:105300001092C10084B762E089E00E945C2461E0F1
:1053100088E00E945C24BE016F5F7F4F80EA90E0CE
:105320000E94BA258981882311F060E001C061E004
:1053300088E00E942C246BE573E08AE390E00E94F1
:10534000BA2580915B038F3F41F410925B036BE5BC
:1053500073E08AE390E00E94D2256AE573E086E379
:1053600090E00E94BA2580915A038F3F41F4109239
:105370005A036AE573E086E390E00E94D22562E575
:1053800073E08CE590E00E94BA25809152038F3F34
:1053900041F41092520362E573E08CE590E00E94C4
:1053A000D22561E573E088E590E00E94BA258091FE
:1053B00051038F3F41F41092510361E573E088E59A
:1053C00090E00E94D22569E573E080E090E00E94C1
:1053D000BA25809159038F3F29F460E08EE493E071
:1053E0000E94900C63E673E084E090E00E946C25DC
:1053F0008091630390916403019661F482E390E0ED
:10540000909364038093630363E673E084E090E029
:105410000E94932567E673E08CE090E00E94BA2535
:10542000809167038F3F41F41092670367E673E052
:105430008CE090E00E94D2258EE090E09A838983F0
:10544000CE0101960E94A00C809368038F3F29F43F
:1054500064E58EE493E00E94570E6EE473E08CE204
:1054600091E00E94BA2580914E03803140F0109265
:105470004E036EE473E08CE291E00E94D22560E579
:1054800073E086E190E00E94BA25809150038F3F3F
:1054900041F41092500360E573E086E190E00E94D1
:1054A000D2256FE473E08AE190E00E94BA258091F2
:1054B0004F038F3F41F410924F036FE473E08AE192
:1054C00090E00E94D22563E573E080E293E00E94C1
:1054D000BA25809153038F3F41F41092530363E543
:1054E00073E080E293E00E94D22565E673E082E1FA
:1054F00090E00E946C25809165039091660301966F
:1055000061F482E090E0909366038093650365E622
:1055100073E082E190E00E94932581E080935C0338
:1055200060E08EE493E00E94430E61E673E080EB5E
:1055300090E00E94BA25809161038F3F29F46BE4CB
:105540008EE493E00E947F0C62E673E084EB90E0CF
:105550000E94BA25809162038F3F29F46DE78EE4A3
:1055600093E00E947F0C6DE573E088EA90E00E9472
:105570006C256FE573E08CEA90E00E946C258EE468
:1055800093E09093100380930F0381E292E0909355
:1055900012038093110382E792E00E94EA1980913E
:1055A00068008160809368008091680082608093C9
:1055B000680080916C00816080936C0080916C0029
:1055C000826080936C0080916C00806280936C009C
:1055D000F89480E00E94A71281E60E94A7127894B6
:1055E00061E081E10E945C2461E086E00E945C242D
:1055F00061E087E00E945C2461E085E00E945C2419
:1056000011E03AE0332E42E0242E809109028823F3
:10561000E9F10E94111A8823C9F180911C038111BC
:1056200035C080914303811131C00E94982420919C
:105630001A0230911B0240911C0250911D02DC01A4
:10564000CB01821B930BA40BB50B893E9340A105A4
:10565000B105E0F00E94D7287C01009119020F5F8C
:10566000009319020E94982460931A0270931B02FF
:1056700080931C0290931D024CE6E41641E0F40670
:1056800008F4B4C610920902109219028091140213
:10569000882309F10E9498248090150290901602A8
:1056A000A0901702B0901802DC01CB01881999096B
:1056B000AA09BB0981319742A105B10560F010929A
:1056C00014020E94111A882331F00E94D7288C36C8
:1056D000914008F4FCC4809113028111EAC18091C9
:1056E000120281111BC00E94982460347F41810501
:1056F0009105A0F00E94D7288C36914008F4ECC4A4
:1057000061E088E00E942C24109312021982BE01ED
:105710006F5F7F4F80EA90E00E94D2258091110256
:10572000811108C00E949824683B7B408105910547
:1057300008F0DFC480911202882321F10E9498248E
:1057400020910A0230910B02DC01CB01821B930BEA
:10575000A109B109853F9140A105B10598F080915B
:105760000401812780930401882311F061E001C0C6
:1057700060E081E10E942C240E94982470930B0227
:1057800060930A020E949824683A71468105910547
:1057900008F49AC46BE171E0CE0101960E944523A2
:1057A00060E0CE0101960E945F26CE0101960E9424
:1057B0002E2368EC70E0CE0101960E94332360E056
:1057C000CE0101960E945F26082FCE0101960E940D
:1057D0002E23002309F4F2C06CEB70E0CE010D968D
:1057E0000E94332360E0CE010D960E945F2688233D
:1057F00009F4E0C060EB70E0CE0107960E9433230D
:1058000060E0CE0107960E945F26082F882381F072
:105810006CE970E0CE0101960E94332360E0CE0176
:1058200001960E945F26082FCE0101960E942E232A
:10583000CE0107960E942E23CE010D960E942E23A4
:10584000002309F4BBC06FE870E0CE0101960E940E
:10585000332360E0CE0101960E945F26CE010196BF
:105860000E942E2363E870E0CE0101960E9433234C
:1058700060E0CE0101960E945F26CE0101960E9453
:105880002E236CE770E0CE0101960E94332360E086
:10589000CE0101960E945F26CE0101960E942E2322
:1058A0001093420360E770E0CE0101960E9433231B
:1058B00060E0CE0101960E945F26CE0101960E9413
:1058C0002E2368E670E0CE010D960E94332329EF67
:1058D000422E2BE0522E612C712CB301A201CE017D
:1058E0000D960E940527882309F464C06FE571E0D6
:1058F000CE0107960E944523E0900F03F09010031D
:10590000F701858181112EC00E9475270E94C02752
:10591000E0900F03F0901003F7011583B7016B5F60
:105920007F4F80E293E00E94D22589898B8BBE0154
:105930006D5E7F4F84E293E00E94D225BE01635FDB
:105940007F4FCE0101960E943C23AE014F5F5F4F17
:1059500068E273E0C7010E940E0CCE0101960E941E
:105960002E2324C0BE016D5E7F4F84E293E00E942F
:10597000BA252B8948E253E0B701CE0101960E9477
:10598000A50CBE016F5F7F4FCE0107960E94F522E6
:10599000CE0101960E942E23BE01635F7F4FCE0190
:1059A00007960E94E321882309F4AECFCE01079623
:1059B0000E942E23CE010D960E942E23BE016F5F02
:1059C0007F4F8CE893E00E94BA25098180914203C1
:1059D000882371F18FEF800F8E3F50F561EE70E0FC
:1059E000CE0107960E943323023019F46CED70E06B
:1059F00004C0033031F464ED70E0CE0107960E94DC
:105A00009F2210932403BE01695F7F4FCE01019650
:105A10000E943C2340E061E0CE0101960E947B1D84
:105A2000CE0101960E942E23CE0107960E942E23BE
:105A30001A821982BE016F5F7F4F8CE893E00E944B
:105A4000DB181093700260E081E292E00E94DD11A9
:105A500080916B00846080936B0080916B00886004
:105A600080936B008AEEC82E8BE0D82ED092030173
:105A7000C092020180916900837F846080936900F5
:105A8000E99A9EEEE92E9BE0F92EF0920101E09258
:105A90000001809169008C7F816080936900E89AA1
:105AA000109313021092040160E081E10E942C2403
:105AB0000BC380914B02882309F440C0E09121027E
:105AC000F091220286858823C9F1809158028111C4
:105AD00035C080915902811131C00E949824809074
