:100000000C9421020C949C1F0C94751F0C94B1123B
:100010000C9416130C94E7120C9449020C944902A8
:100020000C9449020C9449020C9449020C94490224
:100030000C9449020C9449020C9449020C94490214
:100040000C942B1F0C9449020C94281E0C94021E35
:100050000C9449020C9449020C9449020C944902F4
:100060000C9449020C94490241542B4343494400E7
:1000700041542B444445543D310D0A004154265708
:100080000D0A0041542B4353434C4B3D310D0A00A4
:1000900041542B434E4D493D322C312C302C302CC9
:1000A000300D0A0041542B434D47463D310D0A00A7
:1000B00041542B434C43433D310D0A0041542B43E3
:1000C0004C49503D310D0A004D41584345444400D0
:1000D0004345525200555044535543430041542B1D
:1000E000444445543D310D0A002B4350494E3A20BB
:1000F0004E4F542052454144590D0041542B434D1D
:100100004744413D2244454C20414C4C220D0A00BD
:1001100041542B46545050573D22313233343536FA
:10012000373839220D0A0041542B465450554E3D64
:1001300022726168756C6E726174686F646B636C57
:10014000220D0A0041542B465450534552563D222D
:100150000041542B4654504349443D310D0A002B75
:1001600046545053495A453A20312C302C004154C2
:100170002B46545053495A450D0A0041542B4654BE
:10018000504745540041542B53415042523D312C6D
:10019000310D0A0041504E222C220041542B534174
:1001A0005042523D332C312C2200436F6E547970F3
:1001B00065222C2247505253220D0A0041542B53E2
:1001C000415042523D332C312C22004F4B203A20DB
:1001D0000052455550440050524753495A4500502B
:1001E00052475550440041542B435245433D342C13
:1001F000220041542B435245433D350D00373034E6
:1002000031313936393539003730343131393639D1
:100210003539000A4E6574776F726B3A000A426195
:1002200074253A00204F46460A00204F4E0A00200F
:100230004F4E0A004D6F746F723A00204F46460AC7
:100240000020322050484153450A004155544F4F39
:100250004646004155544F4F4E004552524F522092
:100260003A20004F4B203A200041542B4355534431
:100270003D312C220042414C004155544F54494DD0
:1002800045004155544F54494D4500535441525433
:10029000494D45005354415254494D450053544132
:1002A000474500535441474500414D4F46460041A4
:1002B0004D4F4E0041542B4342430041542B435376
:1002C0005100535441545553004F56464F46460033
:1002D0004F56464F4E0052455350410052455350E1
:1002E0004300444E444F464600444E444F4E004265
:1002F00059504F4646004259504F4E004155544FB9
:100300004F4646004155544F4F4E00444944005219
:1003100045534554004E6F204E756D626572004E18
:10032000554D0044454641554C5400434C454152BF
:10033000414C4C0057414954000000000024002764
:10034000002A0000000000250028002B000000000B
:100350000023002600290004040404040404040209
:100360000202020202030303030303010204081052
:10037000204080010204081020010204081020001F
:100380000000080002010000030407000000000054
:1003900000000037303431313936393539004E4FAD
:1003A00020414E535745520D00425553590D004EB2
:1003B0004F20434152524945520D002B434C434379
:1003C0003A20312C302C36002B434C43433A203119
:1003D0002C302C30002B434C43433A20312C302C12
:1003E00033002B434C43433A20312C302C32004114
:1003F000542B434357413D302C300D0A0049443AB9
:100400000041542B4346554E3D312C310D0A0041DD
:10041000542B53415042523D302C310D0A0041546F
:100420002B434F50533D320D0A00415426570D0ABD
:100430000041542B4353434C4B3D300D0A003432A2
:10044000C93111241FBECFEFD8E0DEBFCDBF12E00F
:10045000A0E0B1E0EAE1FEE602C005900D92AC3406
:10046000B107D9F723E0ACE4B2E001C01D92AE3B86
:10047000B207E1F712E0C0E2D2E004C02197FE012A
:100480000E949F33CF31D107C9F70E94D8280C941E
:1004900000370C94A7124F925F926F927F928F92C7
:1004A0009F92AF92BF92CF92DF92EF92FF920F9303
:1004B0001F93CF93DF93CDB7DEB7A5970FB6F89410
:1004C000DEBF0FBECDBF80919C038823B1F00E9498
:1004D000EF1E00919D0310919E0320919F03309188
:1004E000A003DC01CB01801B910BA20BB30B813D60
:1004F0009740A105B10508F0D8C5809180038823F5
:1005000071F10E94EF1E00918303109184032091EA
:10051000850330918603AB01BC01401B510B620B7C
:10052000730B2091810330918203E4E6E29FC001C6
:10053000E39F900D1124A0E0B0E0481759076A0727
:100540007B0768F0E0916D03F0916E0384A5811143
:1005500006C060E084E00E94831E109280038091B8
:1005600087038E3409F04AC0809188038E3409F0E5
:1005700097C080919403811116C00E94EF1E0091D4
:100580009503109196032091970330919803DC0115
:10059000CB01801B910BA20BB30B893E9340A105AD
:1005A000B10508F085C580918B03882309F478C0D4
:1005B00080919403882309F473C00E94EF1E009178
:1005C0008C0310918D0320918E0330918F036B016A
:1005D0007C01C01AD10AE20AF30AE0916B03F091A0
:1005E0006C03238530E0A0E6BAEE0E94F1366C156C
:1005F0007D058E059F0508F45FC552C0893419F04A
:10060000823509F04DC00E94EF1E00917A031091CF
:100610007B0320917C0330917D03AB01BC01401B27
:10062000510B620B730B2091780330917903E4E650
:10063000E29FC001E39F900D1124A0E0B0E04817B5
:1006400059076A077B0740F0809191038DA30E94B0
:1006500030228DA10E94C22480917503882301F16C
:100660000E94EF1EE09170030091710310917203DC
:100670002091730330917403AB01BC01401B510BFB
:10068000620B730BF4E6EF9FC0011124092E000CDE
:10069000AA0BBB0B84179507A607B70708F41EC55E
:1006A0008FE4A82E92E5992E29E4B22E8091990329
:1006B00090919A03DC01ED91FC910480F581E02D8D
:1006C00009951816190614F00C94360C63E671E0BF
:1006D000CE014F960E949C1DCE0101960E941A25C4
:1006E000BE016F5F7F4FCE014F960E944C1DCE0121
:1006F00001960E94851D0BA1015060E271E0CE01C0
:1007000001960E949C1D26E0AE014F5F5F4FBE0127
:10071000615E7F4F8BE693E00E94B80E182FCE01EA
:1007200001960E94851D112321F080917F03811184
:1007300037C50BA1015067E271E0CE0101960E941E
:100740009C1D2CE0AE014F5F5F4FBE01615E7F4F8D
:100750008BE693E00E94B80EE82ECE0101960E942F
:10076000851DEE20A1F1BE01615E7F4FCE010D9689
:100770000E94931D63E671E0CE0107960E949C1DC6
:100780006EE271E0CE0107960E941E1DBE01635FFE
:100790007F4FCE0107960E94EF1CBE01695F7F4F1D
:1007A000CE0101960E94931D41E0BE016F5F7F4F15
:1007B0008BE693E00E94A00FCE0101960E94851D5A
:1007C000CE0107960E94851DCE010D9675C267E386
:1007D00071E0CE0101960E949C1D02E228E1AE016B
:1007E0004F5F5F4FBE01615E7F4F8BE693E00E94DB
:1007F000B80E782ECE0101960E94851DBE01615E65
:100800007F4FCE01772009F40CC201960E94931D00
:10081000CE0101960E942F0E082FCE0101960E9454
:10082000851DBE01615E7F4FCE0101960E94931D22
:10083000BE016F5F7F4F80916B0390916C030E94AC
:100840006C0D882ECE0101960E94851D01111BC0E2
:10085000BE01615E7F4FCE0101960E94931DBE01D5
:100860006F5F7F4F80916B0390916C030E941D0D11
:10087000182F811101C0182DCE0101960E94851DEF
:10088000112309F4C0C1CE0101960E941A25BE01B0
:100890006F5F7F4FCE014F960E944C1DCE01019697
:1008A0000E94851D6EE371E0CE0101960E949C1DA1
:1008B000BE016F5F7F4FCE014F960E94A51B182F80
:1008C000CE0101960E94851D1123C1F02BA13CA1F0
:1008D00041E050E0BE01615E7F4FCE0101960E9473
:1008E000B11DBE016F5F7F4FCE014F960E944C1D20
:1008F000CE0101960E94851D11E001C010E0CF8C51
:10090000D8A0C114D10419F401110EC06AC1F601B6
:1009100080818823C9F3082E000C990B0E94A93509
:10092000D6018D936D01F3CFBE01615E7F4FCE0185
:1009300049960E94931D81E080937E030D8D0150A6
:100940006FED71E0CE0101960E948A1D26E0AE0196
:100950004F5F5F4FBE01675E7F4F8BE693E00E9463
:10096000B80EF82ECE0101960E94851DFF2009F4D5
:10097000F1C0809187038E3411F40E94302211114E
:100980000FC060E471E0CE0101960E949C1D61E001
:10099000CE0101960E94A923CE0101960E94851DD9
:1009A000C98CDA8CC114D10429F40E94CF2781119B
:1009B0000AC40DC0F60180818823B9F3082E000C0B
:1009C000990B0E94A135D6018D936D01F3CF64E49C
:1009D00071E0CE010D960E949C1D6CEB71E0CE0182
:1009E00007960E948A1DBE01695F7F4FCE01019666
:1009F0000E94931D6AEA71E0CE0101960E94411C9B
:100A0000BC01CE0107960E94351DCE0101960E94C1
:100A1000851DBE01695F7F4FCE0101960E94931D27
:100A2000CE0101960E946828082FCE0101960E94EF
:100A3000851D011102C000E074C06BE971E0CE01B8
:100A400007960E94F61CBE01695F7F4FCE0101969A
:100A50000E94931D64E971E0CE0101960E94411C41
:100A6000BC01CE0107960E94351DCE0101960E9461
:100A7000851DBE01695F7F4FCE0101960E94931DC7
:100A8000BE01635F7F4FCE0101960E94CD1CBC0169
:100A9000CE0107960E94351DCE0101960E94851D4C
:100AA000BE01695F7F4FCE0101960E94931D60E6F3
:100AB00071E0CE0101960E94B41CBC01CE010796E4
:100AC0000E94351DCE0101960E94851DBE01695F01
:100AD0007F4FCE0101960E94931DCE0101960E9488
:100AE0006828082FCE0101960E94851D002309F475
:100AF000A2CF65E871E0CE0101960E948A1D61E0F7
:100B0000CE0101960E947F25082FCE0101960E94FA
:100B1000851D002309F48FCF64E18BE693E00E94EA
:100B20008D0ECE0107960E94851DCE010D960E9466
:100B3000851D002309F408C60CE0015009F404C621
:100B400062E38BE693E00E948D0E0E94CF278823FC
:100B5000A1F339C30D8D015067ED71E0CE0101960F
:100B60000E948A1D27E0AE014F5F5F4FBE01675EA6
:100B70007F4F8BE693E00E94B80E082FCE010196BE
:100B80000E94851D011115C60D8D015061ED71E0AA
:100B9000CE0101960E948A1D25E0AE014F5F5F4F96
:100BA000BE01675E7F4F8BE693E00E94B80EF82E81
:100BB000CE0101960E94851DF110FDC510927E03A5
:100BC000CE0149960E94851DF1101DC0BE01615ED7
:100BD0007F4FCE0101960E94931D282D412F61E089
:100BE0000AC0BE01615E7F4FCE0101960E94931D37
:100BF000282D412F60E0CE0101960E942513CE01E1
:100C000001960E94851D6BEF70E0CE0101960E9457
:100C10008A1D60E0CE0101960E947F25CE010196DB
:100C20004BC00D960E94931D6BE871E0CE010796B4
:100C30000E949C1DBE01635F7F4FCE0101960E9402
:100C4000931DBE01695F7F4FCE0101960E94DF1B9D
:100C5000182FCE0101960E94851DCE0107960E9495
:100C6000851DCE010D960E94851D112321F081E086
:100C700080939B0323C0BE01615E7F4FCE01079628
:100C80000E94931D69EE70E0CE0101960E948A1DBC
:100C9000BE016F5F7F4FCE0107960E94DF1B182FAA
:100CA000CE0101960E94851D112321F00E94302261
:100CB0000E944126CE0107960E94851D90919203C5
:100CC00080918703911120C18E3419F0823509F08B
:100CD000A1C1909188039E3419F0993409F001C1A3
:100CE000BE01615E7F4FCE0101960E94931D67E9B0
:100CF00071E0CE0101960E94C01B182FCE01019613
:100D00000E94851D112309F4D6C011E010937703CA
:100D100090928703B0928803809189038F5F8093BC
:100D20008903833008F08AC08130E9F46DED70E00A
:100D3000CE0101960E948A1D40E0BE016F5F7F4F89
:100D40008BE693E00E94A00FCE0101960E94851DC4
:100D50008091990390919A03DC01ED91FC910284BA
:100D6000F385E02D099563E671E0CE010D960E94B2
:100D70009C1DCE0101960E941A25BE016F5F7F4F18
:100D8000CE010D960E944C1DCE0101960E94851D3C
:100D90006DE971E0CE0101960E949C1D05E12BE0FA
:100DA000AE014F5F5F4FBE01635F7F4F8BE693E005
:100DB0000E94B80E182FCE0101960E94851D1123A6
:100DC000C1F20E94EF1E60937A0370937B038093BD
:100DD0007C0390937D0389899A890A9760F1CE01FB
:100DE0000D960E945D25882331F180918903823020
:100DF00010F1BE01635F7F4FCE0107960E94931DE5
:100E0000BE01695F7F4FCE0101960E94931DCE0106
:100E100001960E942F0E182F882309F418C5CE01C1
:100E200001960E94851DCE0107960E94851D111115
:100E300002C00E943022CE010D9630C1833009F0ED
:100E40002FC10E94EF1E60937A0370937B038093FF
:100E50007C0390937D0310938A0380919903909172
:100E60009A03DC01ED91FC910284F385E02D099554
:100E700066EA71E0CE0101960E949C1D41E0BE0130
:100E80006F5F7F4F8BE693E00E94A00FCE0101962B
:100E90000E94851D8091990390919A03DC01ED9148
:100EA000FC910284F385E02D0995B0928703B092FE
:100EB00088036DE4AAC0BE01615E7F4FCE0101963A
:100EC0000E94931DCE0101960E941723182FCE0178
:100ED00001960E94851D112309F4E2C00E94302270
:100EE000DFC0893489F490918803993469F4BE0194
:100EF000615E7F4FCE0101960E94931DCE01019647
:100F00000E941723182FB1C08E3419F0823509F0D2
:100F100084C0109188031F3409F0C2C0BE01615E15
:100F20007F4FCE0101960E94931DCE0101960E9433
:100F30009C22082FCE0101960E94851D023579F46E
:100F40000E94EF1E60937A0370937B0380937C036F
:100F500090937D030093870310938803A1C0BE0183
:100F6000615E7F4FCE0101960E94931DCE010196D6
:100F70000E941723182F811113C0BE01615E7F4F9D
:100F8000CE0107960E94931DCE0107960E949C22D7
:100F900011E0853409F010E0CE0107960E94851D0E
:100FA000CE0101960E94851D112349F08091910385
:100FB0008DA30E9430228DA10E94C22471C0BE0167
:100FC000615E7F4FCE0101960E94931DCE01019676
:100FD0000E949C22182FCE0101960E94851D193473
:100FE00009F05EC00E94EF1E60937A0370937B034A
:100FF00080937C0390937D0310938703A0928803D2
:1010000081E080938A03609191038BE693E00E94D4
:10101000102146C0893409F466CF893409F040C0F4
:10102000809188038F34E1F5BE01615E7F4FCE0170
:1010300001960E94931DCE0101960E941723182F3E
:10104000811113C0BE01615E7F4FCE0107960E94E1
:10105000931DCE0107960E949C2211E0853409F071
:1010600010E0CE0107960E94851DCE0101960E94D8
:10107000851D111133CFCE014F960E940122882386
:1010800079F0BE01615E7F4FCE0101960E94931DF3
:10109000CE0101960E944321CE0101960E94851D3A
:1010A000CE014F960E94851D01CB10929C0325CA4C
:1010B00081E08093940377CA81E0809392038BE66A
:1010C00093E00E947F0F8091900380939103109290
:1010D0008B038BE693E00E94D00FE2CA80919903C4
:1010E00090919A03DC01ED91FC910284F385E02D4F
:1010F000099566EE71E0CE0101960E948A1D40E0DE
:10110000BE016F5F7F4F8BE693E00E94A00FCE0180
:1011100001960E94851D6AEA71E0CE0101960E9447
:101120009C1D40E0BE016F5F7F4F8BE693E00E9405
:10113000A00FCE0101960E94851D609176038BE67B
:1011400093E06DA30E947F0F8091990390919A0381
:10115000DC01ED91FC910190F081E02D6DA10995EC
:1011600067EB71E0CE0101960E949C1D41E0BE013B
:101170006F5F7F4F8BE693E00E94A00FCE01019638
:101180000E94851D8091990390919A03DC01ED9155
:10119000FC910284F385E02D09951092750380CAB5
:1011A000BE01615E7F4FCE0101960E94931D61E0FA
:1011B000CE0101960E94A923CE0101960E94851DB1
:1011C00010927F03B6CABE01675E7F4FCE010D96B7
:1011D0000E94931D63E671E0CE0107960E949C1D5C
:1011E00061E571E0CE0101960E948A1D61E0CE01A9
:1011F00001960E947F25082FCE0101960E94851D31
:10120000002309F446C064E471E0CE0107960E9411
:10121000F61CBE01695F7F4FCE0101960E94931DAF
:10122000BE01635F7F4FCE0101960E94CD1CBC01C1
:10123000CE0107960E94351DCE0101960E94851DA4
:10124000BE01695F7F4FCE0101960E94931D60E64B
:1012500071E0CE0101960E94B41CBC01CE0107963C
:101260000E94351DCE0101960E94851DBE01695F59
:101270007F4FCE0101960E94931D61E0CE01019641
:101280000E947F25082FCE0101960E94851D011125
:1012900002C000E022C067E271E0CE0101960E9428
:1012A0008A1D61E0CE0101960E947F25082FCE01A4
:1012B00001960E94851D002361F360E171E0CE017B
:1012C00001960E948A1D61E0CE0101960E947F2551
:1012D000082FCE0101960E94851DCE0107960E941F
:1012E000851DCE010D960E94851D002309F42CC298
:1012F0006CE471E0CE0143960E949C1D6BE771E0A7
:10130000CE010D960E948A1D63E671E0CE0107961C
:101310000E949C1DBE01635F7F4FCE0107960E9415
:10132000351DBE01695F7F4FCE0101960E94931D5E
:1013300062E571E0CE0101960E94B41CBC01CE01B1
:1013400007960E94351DCE0101960E94851DBE01A3
:10135000695F7F4FCE0101960E94931DBE016D5EB5
:101360007F4FCE0101960E94CD1CBC01CE01079695
:101370000E94351DCE0101960E94851DBE01695F48
:101380007F4FCE0101960E94931D60E671E0CE0171
:1013900001960E94B41CBC01CE0107960E94351D27
:1013A000CE0101960E94851DBE01695F7F4FCE016F
:1013B00001960E94931D61E0CE0101960E947F2557
:1013C000D82ECE0101960E94851DDD2069F1BE0157
:1013D000635F7F4FCE0107960E94351DBE01635F9C
:1013E0007F4FCE0101960E94931D69E571E0CE0109
:1013F00001960E94B41CBC01CE0107960E94351DC7
:10140000CE0101960E94851DBE01695F7F4FCE010E
:1014100001960E94931D60E0CE0101960E947F25F7
:10142000CE0101960E94851DCE0107960E94851D62
:10143000CE010D960E94851DCE0143960E94851D0A
:10144000DD2009F481C1E0916B03F0916C0380858C
:1014500081117BC00E94EF1E2B013C016EE671E002
:10146000CE0101960E948A1D40E0BE016F5F7F4F52
:101470008BE693E00E94A00FCE0101960E94851D8D
:1014800063E671E0CE0107960E949C1D0E94EF1E4C
:10149000DC01CB0184199509A609B709803C944D5C
:1014A000A140B10508F04CC08091990390919A0336
:1014B000DC01ED91FC910480F581E02D0995892BEB
:1014C00029F36091990370919A03CE0101960E94CD
:1014D000EE24BE016F5F7F4FCE0107960E944C1D28
:1014E000CE0101960E94851D0B8501506FE571E0CC
:1014F000CE0101960E948A1D2EE0AE014F5F5F4F24
:10150000BE01695F7F4F8BE693E00E94B80E082F03
:10151000CE0101960E94851D002309F4B7CFCE01AC
:1015200007960E949A1BAB01BC0180916B039091BE
:101530006C030E94FE0DCE0107960E94851D05C01A
:10154000CE0107960E94851DFFC0E0916B03F091CC
:101550006C03448055806680778064E671E0CE013C
:1015600043960E949C1D63E671E0CE010D960E9499
:101570009C1DBE016D5E7F4FCE0101960E94931DA2
:1015800060E771E0CE0101960E94B41CBC01CE015F
:1015900007960E94931DCE0101960E94851DBE01F3
:1015A000695F7F4FCE0101960E94931DB301A20196
:1015B000CE0101960E947D1CBC01CE0107960E94BF
:1015C000351DCE0101960E94851DBE01695F7F4FCA
:1015D000CE0101960E94931D64EC71E0CE0101964C
:1015E0000E94B41CBC01CE0107960E94351DCE019D
:1015F00001960E94851D65E771E0CE010D960E945F
:101600001E1DBE01635F7F4FCE0101960E94931D98
:10161000BE016D5E7F4FCE0101960E94CD1CBC01C4
:10162000CE010D960E94351DCE0101960E94851DAA
:10163000BE01635F7F4FCE0101960E94931D68E754
:1016400071E0CE0101960E94B41CBC01CE010D9642
:101650000E94351DCE0101960E94851D0E94EF1E3D
:101660002B013C01BE01635F7F4FCE0101960E94BA
:10167000931D40E0BE016F5F7F4F8BE693E00E94B9
:10168000A00FCE0101960E94851D0E94EF1EDC0175
:10169000CB0184199509A609B709803C944DA14056
:1016A000B10550F58091990390919A03DC01ED9179
:1016B000FC910480F581E02D0995892B31F360912F
:1016C000990370919A03CE0101960E94EE24BE0107
:1016D0006F5F7F4FCE010D960E944C1DCE0101968B
:1016E0000E94851DBE01695F7F4FCE010D960E944D
:1016F000DF1B882351F2ED2CCE0107960E94851D39
:10170000CE010D960E94851DCE0143960E94851D37
:10171000EE20D1F081E080937E0311110FC065E8C7
:1017200071E0CE0101960E949C1D61E0CE01019600
:101730000E94A923CE0101960E94851D0E94AC271C
:101740000E944C27FE2C3CCA0E94AC27E0916B0300
:10175000F0916C0310861982BE016F5F7F4F84E8A1
:1017600093E00E9408201A821982BE016F5F7F4FAA
:1017700084E993E00E94F51901E00983BE016F5FDF
:101780007F4F80E993E00E94082000937E031111AF
:1017900017CA68E871E0CE0101960E949C1D61E0C5
:1017A000CE0101960E94A923CE0101960E94851DBB
:1017B00007CA01E001C002E0CE0149960E949A1BCF
:1017C000AB01BC0180916B0390916C030E94FE0DF4
:1017D00063E671E0CE0107960E949C1D6BEC71E000
:1017E000CE0107960E94F61CBE01695F7F4FCE01B5
:1017F00001960E94931DBE01675E7F4FCE01019648
:101800000E94CD1CBC01CE0107960E94351DCE0161
:1018100001960E94851D111110C0BE01695F7F4FA6
:10182000CE0101960E94931D61E0CE0101960E94B7
:10183000A923CE0101960E94851D023011F40E9459
:101840004C27CE0107960E94851DF72CB9C9BE0111
:10185000695F7F4F80916B0390916C030E94730DC1
:1018600011E08F3F09F0DBCA10E0D9CAA5960FB688
:10187000F894DEBF0FBECDBFDF91CF911F910F91C6
:10188000FF90EF90DF90CF90BF90AF909F908F90A0
:101890007F906F905F904F900895DB0114968D912B
:1018A0009C911597409780F0ED91FC91309711F045
:1018B000208101C020E0022E000C330B205331099F
:1018C00081E02A30310508F080E0089581E08093BE
:1018D000C70208950E94EF1EEBE6F3E062AB73AB24
:1018E00084AB95AB81E081AB08958F929F92AF92CC
:1018F000BF92CF92DF92EF92FF920F931F93CF93FD
:10190000DF93CDB7DEB76B01ADB6BEB6FA01E480AA
:10191000F580C70101962DB73EB7281B390B0FB6CE
:10192000F8943EBF0FBE2DBF0DB71EB70F5F1F4F00
:10193000892B99F00115110581F0E114F10411F4DE
:10194000F8010AC0FA0160817181A701C8010E94F3
:10195000D835F801EE0DFF1D1082F801019000202E
:10196000E9F73197E01BF10BC11424E0D206D8F45B
:10197000FF24F394FE0EC6018F0D911D8115944036
:1019800090F44801C01AD10A882D801B8F1548F4A5
:10199000C601880D991DF40161914F010E94AC367A
:1019A000F3CF81E001C080E00FB6F894BEBE0FBE59
:1019B000ADBEDF91CF911F910F91FF90EF90DF901F
:1019C000CF90BF90AF909F908F900895FC0181853C
:1019D000882311F061E001C060E082E10C94831E75
:1019E000CF93DF93EC016987BC01675F7F4F80E095
:1019F00090E00E940820CE01DF91CF910C94E60C7C
:101A0000CF93DF93EC01FB018081882369F0818112
:101A1000882319F04EE150E002C040E351E02AE093
:101A2000CE010E94202005C068E072E0CE010E9435
:101A30008A1DCE01DF91CF910895DF92EF92FF9240
:101A40000F931F93CF93DF9300D000D000D0CDB77A
:101A5000DEB7FC012081222369F17B018C012AE0A1
:101A600040E351E0BC01CE0101960E942020B70165
:101A7000CE0101960E94DF1BD82ECE0101960E9456
:101A8000851DD11019C0B701CE0101960E94931D8A
:101A9000F8018081882341F0BE016F5F7F4FC8014C
:101AA0000E948B20182F01C010E0CE0101960E94E9
:101AB000851D03C010E001C011E0812F26960FB6EE
:101AC000F894DEBF0FBECDBFDF91CF911F910F9174
:101AD000FF90EF90DF900895FC01208121110C947C
:101AE0008B2080E00895CF92DF92EF92FF920F93C8
:101AF0001F93CF93DF9300D000D000D0CDB7DEB7D7
:101B0000FC012081211102C08FEF35C06B017C01E7
:101B1000CE0101960E94931DBE016F5F7F4FC701EA
:101B20000E941D0D182FCE0101960E94851D1111D6
:101B30001FC011E0F7018081181730F7FBE01F9FED
:101B4000A0011124405D5E4F2AE0B701CE0101964D
:101B50000E942020B601CE0101960E94DF1B082FB3
:101B6000CE0101960E94851D011104C01F5FE2CFC6
:101B700080E001C0812F26960FB6F894DEBF0FBE1D
:101B8000CDBFDF91CF911F910F91FF90EF90DF902C
:101B9000CF900895EF92FF920F931F93CF93DF930F
:101BA0001F92CDB7DEB77C01FC0100811181C80115
:101BB00069830E94A4366981681719F0C8010E94E0
:101BC000AC36C7010F90DF91CF911F910F91FF901D
:101BD000EF900895CF93DF9300D0CDB7DEB7FC012F
:101BE000628B8EE090E09A838983CE0101960E94F9
:101BF000CA0D0F900F90DF91CF910895EF92FF9251
:101C00000F931F93CF93DF9300D0CDB7DEB721E0C2
:101C1000FC01208744835583668377838C010C5FA6
:101C20001F4F88E8E82E83E0F82EF80161918F01BC
:101C3000FA82E982CE0101960E94CA0DFFEFEF1AE7
:101C4000FF0A8CE8E81683E0F80679F70F900F900A
:101C5000DF91CF911F910F91FF90EF9008950F9317
:101C60001F93CF93DF9300D000D000D0CDB7DEB765
:101C70008C016DEF71E0CE0101960E948A1DBE01BC
:101C80006F5F7F4FC8010E94DF1B182FCE010196A6
:101C90000E94851D81E0111101C080E026960FB6DB
:101CA000F894DEBF0FBECDBFDF91CF911F910F9192
:101CB0000895FC01248D293479F521E0248320A5A1
:101CC000233561F46C3411F46EE41FC06F3411F4E9
:101CD00061E31BC06434C9F463E517C02F3461F4B9
:101CE0006C3411F460E511C06F3411F462E30DC07F
:101CF000643459F46FE409C0243561F46C3429F07C
:101D0000613419F06F3419F463E30C9410216434D6
:101D1000E1F7DECF2735C9F308958F929F92AF92F6
:101D2000BF92CF92DF92EF92FF92C62E0E94EF1EDB
:101D30004B015C0184E6C89E600111240D2C000C4F
:101D4000EE08FF080E94EF1EDC01CB0188199909FB
:101D5000AA09BB098C159D05AE05BF0598F3FF9038
:101D6000EF90DF90CF90BF90AF909F908F900895AD
:101D7000EF92FF920F931F93CF93DF9300D000D089
:101D800000D0CDB7DEB77B01122FBA01C7010E9488
:101D9000A51B8823A9F0202F30E0412F50E0B70188
:101DA000CE0101960E94B11DBE016F5F7F4FC7013A
:101DB0000E944C1DCE0101960E94851D81E001C04C
:101DC00080E026960FB6F894DEBF0FBECDBFDF9140
:101DD000CF911F910F91FF90EF900895CF92DF92D6
:101DE000EF92FF920F93CF93DF9300D000D000D0FB
:101DF000CDB7DEB76C017B01FB010481035066ECBB
:101E000071E0CE0101960E949C1D25E0AE014F5F5E
:101E10005F4FB701C6010E94B80E082FCE01019690
:101E20000E94851D802F26960FB6F894DEBF0FBE48
:101E3000CDBFDF91CF910F91FF90EF90DF90CF90CA
:101E400008958F929F92AF92BF92CF92DF92EF92BE
:101E5000FF920F93CF93DF93CDB7DEB72C970FB6DA
:101E6000F894DEBF0FBECDBF5C016B01FB010481A6
:101E7000015063E771E0CE0107960E949C1DF601B8
:101E800084819581892B69F0808091806F8178852C
:101E9000C4010E94E735009721F07C01E818F90899
:101EA00003C0EE24EA94FE2C6BEC71E0CE010196A7
:101EB0000E949C1D21E02E0DAE014F5F5F4FB601C9
:101EC000C5010E94B80E082FCE0101960E94851D03
:101ED000CE0107960E94851D802F2C960FB6F89490
:101EE000DEBF0FBECDBFDF91CF910F91FF90EF907E
:101EF000DF90CF90BF90AF909F908F900895CF9339
:101F0000DF93EC018D89811112C061E084E00E94B1
:101F1000831E81E08D8B0E94EF1E688F798F8A8FE0
:101F20009B8F61E0CE01DF91CF910C948D0E0E94CA
:101F3000EF1E688F798F8A8F9B8FDF91CF910895E5
:101F4000FF920F931F93CF93DF93EC018B01F42E3D
:101F50000E947F0F63E671E0C8010E94C01B0EA4BF
:101F6000DFA5C02D811114C0F80144815581608125
:101F70007181E881F9810280F381E02DCE01F110B9
:101F800006C0DF91CF911F910F91FF9009940995A1
:101F9000CE01DF91CF911F910F91FF900C94F71D0F
:101FA0000F931F93CF93DF93CDB7DEB72C970FB668
:101FB000F894DEBF0FBECDBFFC01A081B181529667
:101FC0009C919D7F913409F071C08F0181E08487DD
:101FD000CF010E947F0FD8019E968D919C919F9773
:101FE000DC01ED91FC910284F385E02D099563E617
:101FF00071E0CE0107960E949C1D61ED71E0CE015B
:1020000007960E941E1DF80160817181CE01019624
:102010000E94000DBE016F5F7F4FCE0107960E94A8
:10202000EF1CCE0101960E94851D68ED71E0CE0186
:1020300007960E94E01CBE01695F7F4FCE010196AA
:102040000E94931D41E0BE016F5F7F4FC8010E9457
:10205000A00FCE0101960E94851D61E0C8010E947B
:102060008D0E63E671E0CE0101960E949C1D41E059
:10207000BE016F5F7F4FC8010E94A00FCE01019685
:102080000E94851D0E94EF1ED8011F966D937D93BF
:102090008D939C93529782E55C968C935C978FE42A
:1020A0005D968C93CE0107960E94851D2C960FB6E7
:1020B000F894DEBF0FBECDBFDF91CF911F910F917E
:1020C00008950F931F93CF93DF93EC0188A9882382
:1020D00031F18C8D8E3429F58D8D8E3411F519A545
:1020E000112301F188A181111CC0062FE881F9811B
:1020F0008385882351F00E94EF1E69A37AA38BA3E6
:102100009CA30DA381E088A30DC06EA381E08FA3E3
:10211000CE010E947F0FCE010E94D00F03C011E0BC
:1021200001C010E0812FDF91CF911F910F91089591
:102130000F931F93CF93DF9300D000D000D0CDB783
:10214000DEB78C01DC019E968D919C919F97DC01FE
:10215000ED91FC910284F385E02D099562EF71E029
:10216000CE0101960E948A1D41E0BE016F5F7F4F44
:10217000C8010E94A00FCE0101960E94851DF801A2
:1021800086A597A5DC01ED91FC910284F385E02DF5
:10219000099526960FB6F894DEBF0FBECDBFDF912E
:1021A000CF911F910F9108950C94003C08950F93C7
:1021B0001F93CF93DF93EC0141110EC08AA58111CB
:1021C0000BC0662319F16FE48A819B81DF91CF9167
:1021D0001F910F910C94590E022F162F1FAE61E024
:1021E0008DE00E94831E0E94EF1EFE01E35BFF4F05
:1021F0006083718382839383319781E080831AA601
:1022000060E080E10E94831E1EA308A7DF91CF91AA
:102210001F910F910895FC0124A581A5222321F08F
:10222000882331F081E00895882311F084E0089537
:1022300082E00895CF93DF93FC0182A581110FC046
:1022400081A5882361F084A5882349F0EF0181E00E
:1022500085A70E94EF1E6EA77FA788AB99ABDF9181
:10226000CF9108951F93CF93DF93EC01162FE88150
:10227000F981818581110CC08AA581111EC08CA5B0
:102280008823D9F061E08DE00E94831E1DA615C051
:10229000FE01E45BFF4F808181110FC08CA5882374
:1022A00061F060E08DE00E94831E112331F0CE01C9
:1022B000DF91CF911F910C941A11DF91CF911F9153
:1022C0000895EF92FF920F931F93CF93DF93EC014A
:1022D0007901FB01808189A7FA0180818AA788237F
:1022E00011F061E001C060E080E10E94831EF7010F
:1022F00080818BA7F80180818CA7882329F199A57B
:10230000992311F1E881F9819185911107C0882302
:1023100019F08AA581111AC061E00AC0882351F022
:1023200061E082E10E94831E89A5882379F060E044
:102330008DE002C060E082E1DF91CF911F910F91AB
:10234000FF90EF900C94831E1DA6DCCFDF91CF9100
:102350001F910F91FF90EF900895EF92FF920F93CE
:102360001F93CF93DF9300D000D0CDB7DEB77C01B1
:10237000FC01E05AFF4F1082F8948AE00E945A1E36
:1023800021E0892B09F420E02C838BE00E945A1E67
:1023900021E0892B09F020E02B831A8283E00E9440
:1023A0005A1E21E0892B09F420E0298378948E01BC
:1023B0000F5F1F4F9E012E5F3F4FAE014D5F5F4F7E
:1023C000BE016C5F7F4FC7010E9461118B810F902E
:1023D0000F900F900F90DF91CF911F910F91FF9071
:1023E000EF900895EF92FF920F931F93CF93DF9397
:1023F0007B018A01E901FC01EE59FF4F1082F8943C
:1024000086E00E945A1E31E0892B09F430E0F70182
:10241000308387E00E945A1E31E0892B09F430E0B6
:10242000F801308385E00E945A1E31E0892B09F4BF
:1024300030E038837894DF91CF911F910F91FF9016
:10244000EF9008950F931F93CF93DF9300D01F92C7
:10245000CDB7DEB78C019E012F5F3F4FAE014E5FBF
:102460005F4FBE016D5F7F4F0E94F2113B812A8159
:102470009981311106C0211106C0911106C083E077
:1024800005C080E003C081E001C082E0F801E45AA9
:10249000FF4F308331962083319690830F900F90B9
:1024A0000F90DF91CF911F910F9108951F93CF93BC
:1024B000DF93EC011DA68CA5882319F089A5811155
:1024C0000BC0662309F43FC06CE48A819B81DF91D5
:1024D000CF911F910C94590E8AA5811130C0162FEF
:1024E000CE010E94221281110BC08A819B8111238F
:1024F00011F064E5ECCF6EE40E9461108C8323C080
:1025000060E08DE00E94831E60E08CE00E94831EEC
:1025100061E081E10E94831E0E94EF1EFE01E95BE3
:10252000FF4F6083718382839383329781E080833E
:102530008AA761E080E10E94831E1FA304C0662376
:1025400011F06FE4C2CFDF91CF911F9108951F92D8
:102550000F920FB60F9211240F900FBE0F901F9085
:1025600018951F920F920FB60F9211242F933F933D
:102570004F935F936F937F938F939F93AF93BF938B
:10258000EF93FF9389E00E945A1E90914D028913A8
:1025900004C081E08093C70209C091E0811101C0AD
:1025A00090E090934D0281E080934C02FF91EF9177
:1025B000BF91AF919F918F917F916F915F914F915B
:1025C0003F912F910F900FBE0F901F9018951F9263
:1025D0000F920FB60F9211242F933F934F935F9357
:1025E0006F937F938F939F93AF93BF93EF93FF93DB
:1025F0000E94EF1E6093CA027093CB028093CC02BC
:102600009093CD0281E08093C902FF91EF91BF9139
:10261000AF919F918F917F916F915F914F913F917A
:102620002F910F900FBE0F901F9018951F920F9231
:102630000FB60F9211248F9381E08093C8028F917F
:102640000F900FBE0F901F9018955F926F927F9220
:102650008F929F92AF92BF92CF92DF92EF92FF92B2
:102660000F931F93CF93DF93CDB7DEB768970FB665
:10267000F894DEBF0FBECDBF7C01062FD42E122FE3
:1026800060937E03BC01CE0143960E94931D64E3D8
:1026900073E0CE0101960E948A1DBE016F5F7F4FDD
:1026A000C7010E94A51BC82ECE0101960E94851D60
:1026B000CC2019F00E942D27D3C56BE273E0CE0128
:1026C00001960E948A1DBE016F5F7F4FC7010E9465
:1026D000A51BC82ECE0101960E94851DCC2011F1AC
:1026E000E0906B03F0906C03002319F0F701108267
:1026F00003C081E0F7018083B7018CE291E00E9482
:102700000820F7011182B7016F5F7F4F8AE190E0E7
:102710000E940820F7011282B7016E5F7F4F86E1A9
:1027200090E053C563E273E0CE0101960E948A1DDA
:10273000BE016F5F7F4FC7010E94A51BC82ECE014F
:1027400001960E94851DCC2009F45DC060E0809157
:102750006B0390916C030E94F00CE0916B03F0917D
:102760006C031486BF01645F7F4F82E390E00E9498
:102770000820E0916B03F0916C031386BF01655F45
:102780007F4F8AE390E00E940820E0916B03F09174
:102790006C031286BF01665F7F4F86E390E00E9464
:1027A0000820E0916B03F0916C03118ABF016F5E0A
:1027B0007F4F8CE090E00E94082063E480916B03DF
:1027C00090916C030E94EA0DE0916B03F0916C0311
:1027D00082E390E096878587BF01635F7F4F84E047
:1027E00090E00E94D71FE0916B03F0916C0382E0B0
:1027F00090E0908B8787BF01615F7F4F82E190E01F
:102800000E94D71F2DC56FE173E0CE0101960E9493
:102810008A1DBE016F5F7F4FC7010E94A51BC82E96
:10282000CE0101960E94851DCC2009F470C0E09075
:102830006B03F0906C0363E671E0CE010D960E948D
:102840009C1D10E0F7018081181708F03FC0FBE0E5
:102850001F9FA0011124405D5E4F2AE0B701CE0109
:1028600001960E942020BE01635F7F4FCE01079634
:102870000E94931DBE016F5F7F4FCE0107960E949D
:10288000CD1CBC01CE010D960E94351DCE010796D0
:102890000E94851DCE0101960E94851DBE01635FC9
:1028A0007F4FCE0101960E94931D62E671E0CE013A
:1028B00001960E94B41CBC01CE010D960E94351DEC
:1028C000CE0101960E94851D1F5FBCCF63E671E0BB
:1028D000CE010D960E94C01B882331F065E173E0A4
:1028E000CE010D960E94F61CBE01635F7F4FCE01A4
:1028F00001960E94931D61E0CE0101960E94A923DA
:10290000CE0101960E94851DCE010D96E6C46FE0B2
:1029100073E0CE0101960E948A1DBE016F5F7F4F5A
:10292000C7010E94A51BC82ECE0101960E94851DDD
:10293000CC2029F08BE693E00E94D41054C56BE0C4
:1029400073E0CE0101960E948A1DBE016F5F7F4F2A
:10295000C7010E94A51BC82ECE0101960E94851DAD
:10296000CC2019F00E94D026BAC464E073E0CE01F6
:1029700001960E948A1DBE016F5F7F4FC7010E94B2
:10298000A51BC82ECE0101960E94851DCC2011F0FA
:1029900061E014C06CEF72E0CE0101960E948A1DC6
:1029A000BE016F5F7F4FC7010E94A51BC82ECE01DD
:1029B00001960E94851DCC2079F060E080916B0328
:1029C00090916C030E94F00C61E080916D039091F6
:1029D0006E030E94321144C466EF72E0CE0101968C
:1029E0000E948A1DBE016F5F7F4FC7010E94A51B19
:1029F000C82ECE0101960E94851DCC2039F0E091B1
:102A00006B03F0916C0381E0828718C06FEE72E077
:102A1000CE0101960E948A1DBE016F5F7F4FC701E4
:102A20000E94A51BC82ECE0101960E94851DCC20B8
:102A300059F0E0916B03F0916C031286BF01665F61
:102A40007F4F86E390E0C1C369EE72E0CE0101964C
:102A50000E948A1DBE016F5F7F4FC7010E94A51BA8
:102A6000C82ECE0101960E94851DCC2039F0E09140
:102A70006B03F0916C0381E0818B18C062EE72E011
:102A8000CE0101960E948A1DBE016F5F7F4FC70174
:102A90000E94A51BC82ECE0101960E94851DCC2048
:102AA00059F0E0916B03F0916C03118ABF016F5EE6
:102AB0007F4F8CE090E089C36CED72E0CE0101960F
:102AC0000E948A1DBE016F5F7F4FC7010E94A51B38
:102AD000C82ECE0101960E94851DCC2011F063E422
:102AE00014C066ED72E0CE0101960E948A1DBE01FF
:102AF0006F5F7F4FC7010E94A51BC82ECE010196B4
:102B00000E94851DCC2041F061E480916B0390917F
:102B10006C030E94EA0DA4C360ED72E0CE01019641
:102B20000E948A1DBE016F5F7F4FC7010E94A51BD7
:102B3000C82ECE0101960E94851DCC2039F0E0916F
:102B40006B03F0916C0381E0848718C069EC72E03C
:102B5000CE0101960E948A1DBE016F5F7F4FC701A3
:102B60000E94A51BC82ECE0101960E94851DCC2077
:102B700059F0E0916B03F0916C031486BF01645F20
:102B80007F4F82E390E021C362EC72E0CE010196B8
:102B90000E948A1DBE016F5F7F4FC7010E94A51B67
:102BA000C82ECE0101960E94851DCC2009F475C166
:102BB0006BEB72E0C7010E94F61C4EEE5EE060E037
:102BC00070E0C7010E946026882339F0C7010E9487
:102BD0009A1B162F110F160F01C01FEF65E08BE631
:102BE00093E00E948D0E64EB72E0C7010E94F61C18
:102BF00041E25FE060E070E0C7010E946026882348
:102C000009F455C063E771E0CE0107960E949C1D50
:102C1000F701848195812B853C856C01C21AD30A0A
:102C20002115310551F1009741F18217930728F1E1
:102C3000C816D90620F06C01F1E0CF1AD108F701CF
:102C4000608071808F809884C30155245A940FEF5F
:102C50005301AC0CBD1CA816B90690F0B4010E943B
:102C6000E735009769F0AC0146195709C416D50637
:102C700010F0542E052F0196EECF2FEF3FEF02C03C
:102C8000252D302F40E050E0B701CE0101960E9483
:102C9000B11DCE0101960E949A1B062FCE0101960E
:102CA0000E94851DCE0107960E94851D01C00FEF71
:102CB000C0906D03D0906E03C6010E940B11F82ED8
:102CC000F601D2A463E671E0CE0107960E949C1D36
:102CD000E0916B03F0916C038185882319F063E523
:102CE00072E002C06BE472E0CE0107960E94F61C0F
:102CF000BE01695F7F4FCE0101960E94931D6AED70
:102D000071E0CE0101960E94B41CBC01CE01079671
:102D10000E94351DCE0101960E94851DF1E0FF162F
:102D200041F022E0F21651F05BE3E52E52E0F52E81
:102D300009C04FE2E42E42E0F42E04C031E4E32E59
:102D400032E0F32EBE01695F7F4FCE0101960E94F3
:102D5000931DB701CE0101960E94411CBC01CE011A
:102D600007960E94351DCE0101960E94851DBE0169
:102D7000695F7F4FCE0101960E94931D64E372E06C
:102D8000CE0101960E94411CBC01CE0107960E9413
:102D9000351DCE0101960E94851DD11005C024E28B
:102DA000E22E22E0F22E04C09AE2E92E92E0F92E01
:102DB000BE01695F7F4FCE0101960E94931DB7014E
:102DC000CE0101960E94411CBC01CE0107960E94D3
:102DD000351DCE0101960E94851D0F3F59F1BE01A0
:102DE000695F7F4FCE0101960E94931D6DE172E0F5
:102DF000CE0101960E94411CBC01CE0107960E94A3
:102E0000351DCE0101960E94851DBE01695F7F4F71
:102E1000CE0101960E94931D602FCE0101960E9463
:102E20000332BC01CE0107960E94351DCE010196EA
:102E30000E94851D1F3F59F1BE01695F7F4FCE0182
:102E400001960E94931D63E172E0CE0101960E94FB
:102E5000411CBC01CE0107960E94351DCE01019692
:102E60000E94851DBE01695F7F4FCE0101960E94C1
:102E7000931D612FCE0101960E940332BC01CE0149
:102E800007960E94351DCE0101960E94851D61E0C6
:102E9000CE0107960E94A9231EC26FEA72E0CE01FE
:102EA00001960E948A1DBE016F5F7F4FC7010E947D
:102EB000A51B882321F0002319F011E001C010E0C8
:102EC000CE0101960E94851D112359F0E0916B03FC
:102ED000F0916C038281882309F485C281E08183AB
:102EE00018C069EA72E0CE0101960E948A1DBE01F7
:102EF0006F5F7F4FC7010E94A51B182FCE0101965F
:102F00000E94851D112359F0E0916B03F0916C0331
:102F10001182BF016F5F7F4F8AE190E056C1F701D8
:102F20000481015063EA72E0CE0101960E948A1D7D
:102F300025E0AE014F5F5F4FB7018BE693E00E9443
:102F4000B80E182FCE0101960E94851D1123F1F0B5
:102F5000C7010E945D25882309F445C2C7010E946C
:102F60009A1B8B016630710510F005E010E0E091CE
:102F70006B03F0916C030387BF01655F7F4F8AE3AA
:102F800090E00E9408206DE972E07BC0F7010481A7
:102F9000015064E972E0CE0101960E948A1D28E08A
:102FA000AE014F5F5F4FB7018BE693E00E94B80E12
:102FB000182FCE0101960E94851D112329F1C7010A
:102FC0000E945D25882309F40EC2C7010E949A1B46
:102FD0008B016230710530F0613B744028F000EBEA
:102FE00014E002C002E010E0E0916B03F0916C038A
:102FF000108B0787BF01615F7F4F82E190E00E94E5
:10300000D71F6BE872E03DC0F7010481015062E810
:1030100072E0CE0101960E948A1D28E0AE014F5F4A
:103020005F4FB7018BE693E00E94B80E182FCE01D8
:1030300001960E94851D1123D1F1C7010E945D25D3
:10304000882309F4D0C1C7010E949A1B8B01623307
:10305000710530F06138704728F000E810E702C0D1
:1030600002E310E0E0916B03F0916C031687058793
:10307000BF01635F7F4F84E090E00E94D71F69E744
:1030800072E0CE0143960E94F61CBE016D5E7F4F3A
:10309000CE0101960E94931DB801CE0101960E94B7
:1030A000CD31BC01CE0143960E94351DD5C0F7013C
:1030B0000481015065E772E0CE0101960E948A1DED
:1030C00023E0AE014F5F5F4FB7018BE693E00E94B4
:1030D000B80E182FCE0101960E94851D112351F1C3
:1030E00063E671E0CE0107960E949C1D69E672E0DE
:1030F000CE0107960E94F61CB701CE0107960E94EA
:10310000EF1C64EA71E0CE0107960E94E01C81E0AA
:1031100080937F03BE01695F7F4FCE0101960E94BD
:10312000931D41E0BE016F5F7F4F8BE693E00E94ED
:10313000A00FCDC06FED71E0CE0101960E949C1DE5
:103140000CE022E0AE014F5F5F4FB7018BE693E0EA
:103150000E94B80E182FCE0101960E94851D1123E2
:1031600061F0F701848195810A9709F03CC1C7019C
:103170000E945D258111CDC036C163EE71E0CE01A4
:1031800001960E949C1D0CE022E0AE014F5F5F4F54
:10319000B7018BE693E00E94B80E182FCE0101967E
:1031A0000E94851D1123A1F0F701848195810A9762
:1031B00009F019C1C7010E945D258111EAC013C140
:1031C00091509083B8018CE291E00E94082048C0A1
:1031D00062EE71E0CE0101960E949C1D0DE023E09D
:1031E000AE014F5F5F4FB7018BE693E00E94B80ED0
:1031F000182FCE0101960E94851D112309F4F3C0FA
:10320000F701848195810A9709F0EDC0C7010E94FA
:103210005D25882309F4E7C000916B0310916C03CE
:10322000F8018081882309F4DEC081E0F8018283FF
:10323000B8016E5F7F4F86E190E00E940820B701E1
:10324000CE0101960E94931DAE014F5F5F4F6EE16C
:1032500070E0C8010E94750CCE0101960E94851D88
:1032600011E0D1103CC063E671E0CE0107960E94E8
:103270009C1D112319F063E672E002C06AE572E05A
:10328000CE0107960E94F61CBE01695F7F4FCE01FA
:1032900001960E94931DBE016D5E7F4FCE01019687
:1032A0000E94CD1CBC01CE0107960E94351DCE01A7
:1032B00001960E94851DBE01695F7F4FCE01019678
:1032C0000E94931D61E0CE0101960E94A923CE01C8
:1032D00001960E94851DCE0107960E94851DCE0194
:1032E00043960E94851D68960FB6F894DEBF0FBE08
:1032F000CDBFDF91CF911F910F91FF90EF90DF90A5
:10330000CF90BF90AF909F908F907F906F905F9085
:10331000089500916B0310916C03F8018081823055
:1033200008F461C0B701C8010E94730DF82E8FEF39
:103330008F0D8E3F08F057C08BE0E82E2F2D30E028
:10334000F8019081492F50E0415051092417350769
:103350000CF036CF2F5F3F4FE29E5001E39EB00C42
:103360001124A501405D5E4F2AE0B801CE0101960F
:103370000E942020B5016B5D7E4FAE014F5F5F4F15
:10338000C8010E94750CCE0101960E94851DF39420
:10339000D5CF00916B0310916C03F80180818F30C1
:1033A00011F1B701C8010E94730D8F3FE1F4B7011D
:1033B000CE0101960E94931DF8016081FBE06F9F92
:1033C000B0011124605D7E4FAE014F5F5F4FC801B9
:1033D0000E94750CCE0101960E94851DF801808126
:1033E0008F5F8083EFCE10E03CCFEF92FF920F9380
:1033F0001F93CF93DF9300D0CDB7DEB78C017B0155
:10340000FB0160819A838983CE0101960E94CA0DD7
:10341000F70161810F5F1F4F1A830983CE01019667
:103420000E94CA0DC7010F900F90DF91CF911F919D
:103430000F91FF90EF9008950895CF92DF92EF9251
:10344000FF920F931F93CF93DF936C017A018B014F
:10345000C0E0D0E0CE15DF0589F0D8016D918D0177
:10346000D601ED91FC910190F081E02DC601099506
:10347000892B11F47E0102C02196ECCFC701DF91A8
:10348000CF911F910F91FF90EF90DF90CF90089513
:10349000FC01918D828D981761F0828DDF01A80F5C
:1034A000B11D5D968C91928D9F5F9F73928F90E07E
:1034B00008958FEF9FEF0895FC01918D828D9817ED
:1034C00031F0828DE80FF11D858D90E008958FEF2A
:1034D0009FEF0895FC01918D228D892F90E0805CF3
:1034E0009F4F821B91098F73992708958EEC92E06C
:1034F0000E946A1A21E0892B09F420E0822F0895A6
:10350000FC01848DDF01A80FB11DA35ABF4F2C9180
:10351000848D90E001968F739927848FA689B7894F
:103520002C93A089B1898C9180648C93938D848D28
:10353000981306C00288F389E02D80818F7D8083F7
:103540000895EF92FF920F931F93CF93DF93EC01B7
:1035500081E0888F9B8D8C8D981305C0E889F9894F
:10356000808185FD24C0F62E0B8D10E00F5F1F4F6C
:103570000F731127E02E8C8DE8120CC00FB607FCDC
:10358000FACFE889F989808185FFF5CFCE010E94C5
:10359000801AF1CF8B8DFE01E80FF11DE35AFF4F2A
:1035A000F0820B8FEA89FB898081806207C0EE89F7
:1035B000FF896083E889F98980818064808381E064
:1035C00090E0DF91CF911F910F91FF90EF900895C0
:1035D000CF93DF93EC01888D8823C9F0EA89FB89BA
:1035E000808185FD05C0A889B9898C9186FD0FC0B1
:1035F0000FB607FCF5CF808185FFF2CFA889B98986
:103600008C9185FFEDCFCE010E94801AE7CFDF912C
:10361000CF91089580E090E0892B29F00E94761ADE
:1036200081110C9400000895833081F028F48130DA
:1036300099F08230A1F008958730A9F08830B9F070
:103640008430D1F4809180008F7D03C08091800010
:103650008F7780938000089584B58F7702C084B5FA
:103660008F7D84BD08958091B0008F7703C08091D5
:10367000B0008F7D8093B000089508950E949C351E
:10368000CF93DF93EC0188819981009711F00E941C
:103690003A34198218821D821C821B821A82DF91A1
:1036A000CF9108950F931F93CF93DF93EC018881FF
:1036B0009981009729F02A813B812617370788F4E2
:1036C0008B016F5F7F4F0E94D234009761F0998326
:1036D00088831B830A832C813D81232B11F4FC01F9
:1036E000108281E001C080E0DF91CF911F910F91A6
:1036F0000895EF92FF920F931F93CF93DF93EC0106
:103700007B018A01BA010E94521B811104C0CE01C3
:103710000E94401B07C01D830C83B70188819981DB
:103720000E94C335CE01DF91CF911F910F91FF9081
:10373000EF900895FC0180819181009711F00C9425
:10374000013660E070E0CB010895FB0144815581B2
:10375000FC01248135812417350778F0808191811F
:10376000009759F0FB01608171816115710529F0A5
:103770000E94CA3521E0892B09F020E0822F0895AC
:10378000FC0124813581232B31F421E06115710581
:10379000A1F0FB0108C0FC018081918161157105D8
:1037A00031F421E0FC018081882339F005C00E94BA
:1037B000BA3521E0892B09F020E0822F0895FC0121
:1037C00024813581FB01448155812417350721F57A
:1037D000FC0180819181FB0160817181009719F06A
:1037E00061157105A1F46115710549F0232BB1F044
:1037F000FB01808190E09195819591090AC0009725
:1038000069F0232B59F0FC01808190E002C00E94F6
:10381000BA3521E0892B19F020E001C021E0822F88
:103820000895EF92FF920F931F93CF93DF9361154B
:10383000710511F480E01EC08B01EC01CB010E94E8
:103840002F360097B1F02C813D817C01E20EF31EF2
:10385000B701CE010E94521B882361F32881398170
:103860008C819D81B801820F931F0E942836FD82B2
:10387000EC8281E0DF91CF911F910F91FF90EF904B
:103880000895CF93DF93EC010E94111C811103C0B6
:10389000CE010E94401BCE01DF91CF910895EF929F
:1038A000FF920F931F93CF93DF93FC012481358107
:1038B0006115710511F480E019C041155105A9F099
:1038C0007B01EC018A01020F131FB8010E94521BF9
:1038D000882389F3288139818C819D81B701820FEA
:1038E000931F0E94C3351D830C8381E0DF91CF912C
:1038F0001F910F91FF90EF900895EF92FF920F9319
:103900001F93CF93DF93CDB7DEB72D970FB6F89403
:10391000DEBF0FBECDBF7C01CB01BA012AE08E0114
:103920000F5F1F4FA8010E945836F8010190002038
:10393000E9F73197AF01401B510BB801C7010E9455
:103940004F1C811103C0C7010E94401BC7012D9667
:103950000FB6F894DEBF0FBECDBFDF91CF911F91A0
:103960000F91FF90EF900895CF93DF93EC016115D5
:10397000710561F0FB0101900020E9F73197AF017B
:10398000461B570B0E944F1C811103C0CE010E94A1
:10399000401BCE01DF91CF910895CF93DF93EC01CF
:1039A000FB0144815581608171810E944F1C81110E
:1039B00003C0CE010E94401BCE01DF91CF9108953C
:1039C0006115710551F0FB0101900020E9F7319775
:1039D000AF01461B570B0C944F1C80E00895FB0170
:1039E00044815581608171810C944F1CEF92FF924C
:1039F0000F931F93CF93DF93EC018B01611571053A
:103A000051F0CB010E942F367C01BC01CE010E94F7
:103A1000521B811104C0CE010E94401B07C0FD82D1
:103A2000EC82B801888199810E942836CE01DF910D
:103A3000CF911F910F91FF90EF900895CF93DF9357
:103A4000EC016115710559F0FB0101900020E9F7C7
:103A50003197AF01461B570B0E94791B02C00E9491
:103A6000401BCE01DF91CF910895CF93DF93EC01FE
:103A7000FB018617970761F06081718161157105FF
:103A800029F0448155810E94791B02C00E94401B8D
:103A9000CE01DF91CF9108950F931F93CF93DF93C2
:103AA0008C01EB01FC01808191810097B1F068816C
:103AB00079816115710579F0428153812C813D81B5
:103AC0004217530740F00E94C3358C819D81F80155
:103AD0009583848313C00E943A3488819981F801C8
:103AE000918380838A819B81938382838C819D8152
:103AF00095838483198218821B821A821D821C82FC
:103B0000DF91CF911F910F910895FC0180819181E8
:103B10000C943A34FC0111821082138212821582B5
:103B200014820C94F61CFC01118210821382128202
:103B3000158214820C94351DFC01118210821382AF
:103B40001282158214826115710551F0FB010190FA
:103B50000020E9F73197AF01461B570B0C94791BF6
:103B60000895BF92CF92DF92EF92FF920F931F932F
:103B7000CF93DF937C016B018A01E901241735079C
:103B800020F4812F8901C42FD82F63E671E0C7018B
:103B90000E949C1DD60114968D919C911597081733
:103BA0001907D0F48C179D0708F4EC01D601ED91AC
:103BB000FC911197EC0FFD1FB08010824D915C912C
:103BC000BA01600F711FC7010E941E1DD601ED9141
:103BD000FC91EC0FFD1FB082C701DF91CF911F91C7
:103BE0000F91FF90EF90DF90CF90BF900895DC0190
:103BF000ED91FC910280F381E02D42E050E061E61E
:103C000071E009941F920F920FB60F9211242F9317
:103C10003F934F935F936F937F938F939F93AF9354
:103C2000BF93EF93FF938EEC92E00E94801AFF9176
:103C3000EF91BF91AF919F918F917F916F915F9124
:103C40004F913F912F910F900FBE0F901F9018959D
:103C50001F920F920FB60F9211242F938F939F9361
:103C6000EF93FF93E091DE02F091DF028081E0911B
:103C7000E402F091E50282FD12C090818091E7029A
:103C80008F5F8F732091E802821751F0E091E70275
:103C9000F0E0E253FD4F958F8093E70201C08081F1
:103CA000FF91EF919F918F912F910F900FBE0F90E9
:103CB0001F901895CF93DF93282F30E0F901E1583A
:103CC000FC4F8491F901E559FC4FD491F901E95A6F
:103CD000FC4FC491CC2391F081110E94141BEC2F56
:103CE000F0E0EE0FFF1FE35BFC4FA591B491EC9168
:103CF000ED2381E090E021F480E002C080E090E0DC
:103D0000DF91CF9108951F93CF93DF93282F30E059
:103D1000F901E158FC4F8491F901E559FC4FD49128
:103D2000F901E95AFC4FC491CC23C9F0162F811137
:103D30000E94141BEC2FF0E0EE0FFF1FED5BFC4F19
:103D4000A591B4918FB7F894111105C09C91ED2FF6
:103D5000E095E92302C0EC91ED2BEC938FBFDF914E
:103D6000CF911F910895CF93DF9390E0FC01E55927
:103D7000FC4F2491FC01E95AFC4F8491882361F1A6
:103D800090E0880F991FFC01E75CFC4FC591D4912E
:103D9000FC01ED5BFC4FA591B491611109C09FB787
:103DA000F8948881209582238883EC912E230BC080
:103DB000623061F49FB7F8943881822F8095832315
:103DC0008883EC912E2B2C939FBF06C08FB7F8945D
:103DD000E8812E2B28838FBFDF91CF9108952FB7D5
:103DE000F8946091630270916402809165029091F1
:103DF00066022FBF08950F931F93CF93DF93EC01BB
:103E00000E94EF1E688779878A879B87E881F981FE
:103E10000680F781E02DCE01099597FF17C00E941B
:103E2000EF1E088519852A853B85DC01CB01801BA7
:103E3000910BA20BB30B0C811D812E813F8180174A
:103E40009107A207B30710F38FEF9FEFDF91CF9198
:103E50001F910F9108951F920F920FB60F92112488
:103E60002F933F938F939F93AF93BF938091630260
:103E700090916402A0916502B09166023091620255
:103E800026E0230F2D3720F40296A11DB11D05C099
:103E900029E8230F0396A11DB11D20936202809390
:103EA000630290936402A0936502B09366028091CE
:103EB0005E0290915F02A0916002B0916102019652
:103EC000A11DB11D80935E0290935F02A0936002DA
:103ED000B0936102BF91AF919F918F913F912F91CC
:103EE0000F900FBE0F901F9018951F920F920FB654
:103EF0000F9211242F933F934F935F936F937F9370
:103F00008F939F93AF93BF93EF93FF93E091020141
:103F1000F09103010995FF91EF91BF91AF919F91AE
:103F20008F917F916F915F914F913F912F910F9062
:103F30000FBE0F901F9018951F920F920FB60F9201
:103F400011242F933F934F935F936F937F938F939E
:103F50009F93AF93BF93EF93FF93E0910001F09194
:103F600001010995FF91EF91BF91AF919F918F91C1
:103F70007F916F915F914F913F912F910F900FBE65
:103F80000F901F9018950F931F93CF93DF938C0181
:103F9000EB010E94A4368883C80101960E94A436D2
:103FA0008983CE01DF91CF911F910F910895EF92F8
:103FB000FF920F931F93CF93DF9300D0CDB7DEB75F
:103FC0008C017B01FB0160819A838983CE0101967C
:103FD0000E94CA0DF70161810F5F1F4F1A83098389
:103FE000CE0101960E94CA0DC7010F900F90DF917C
:103FF000CF911F910F91FF90EF900895CF93DF9392
:10400000EB010E94A4368883CE01DF91CF91089501
:104010000F931F93CF93DF9300D0CDB7DEB78B0103
:10402000FB0160819A838983CE0101960E94CA0DAB
:10403000C8010F900F90DF91CF911F910F910895BC
:104040006F927F928F929F92AF92BF92CF92DF92A8
:10405000EF92FF920F931F93CF93DF93CDB7DEB70D
:104060006C013A01ADB6BEB6822F90E001964DB715
:104070005EB7481B590B0FB6F8945EBF0FBE4DBF1D
:104080008DB79EB701964C01611494E0790650F506
:10409000FF24F394F20E31F1E1E0FE1202C0F401CC
:1040A00020C0C3010E94A436F4018083EE24E3946F
:1040B0008823C1F00E2D10E0EF1478F4C801860DAE
:1040C000971D8115F4E09F0740F40E94A436F40187
:1040D000E00FF11F8083E394EBCF080D191DF80169
:1040E00031971082B401C6010E949C1DC6010FB613
:1040F000F894BEBE0FBEADBEDF91CF911F910F9160
:10410000FF90EF90DF90CF90BF90AF909F908F90F7
:104110007F906F9008950F931F93CF93DF9300D0FC
:1041200000D000D0CDB7DEB7FC0182818823C1F07A
:104130008B01BF012AE04EE150E0CE0101960E94C2
:104140002020BE016F5F7F4FC8010E94DF1B11E07E
:10415000811101C010E0CE0101960E94851D01C0B1
:1041600010E0812F26960FB6F894DEBF0FBECDBFAC
:10417000DF91CF911F910F9108958BE693E00E94FC
:1041800098100E94EF1E60937A0370937B038093D4
:104190007C0390937D030895FC01A089B18982E09E
:1041A0008C93A485B5851C92A685B78583E38C93F3
:1041B000108EA489B58986E08C93A289B3898C91ED
:1041C00080618C93A289B3898C9188608C93A28939
:1041D000B3898C9180688C930288F389E02D80816B
:1041E0008F7D8083089580917F03811111C090910C
:1041F00087039E3471F4909188039E3451F480912A
:104200009403882331F09091920381E089270895E7
:1042100080E00895E0E6F0E088E180831082089570
:104220001F93CF93DF93EC01162F8EA59FA5DC0182
:10423000ED91FC910284F385E02D0995CE010E9459
:1042400098100E94EF1E6E837F838887998781E094
:104250008A871EA31B87DF91CF911F910895CF936B
:10426000DF9320E041E060E087E692E00E94D71013
:10427000C7E6D2E065E58A819B810E9461108E834A
:10428000DF91CF910895CF93DF93EC0169E472E061
:104290000E94C01B882371F083E5809393030E94E2
:1042A000BD2061E080916D0390916E03DF91CF910D
:1042B0000C94561266EE71E0CE010E94C01B88235A
:1042C00081F08FE4809393030E94BD2020E040E0C2
:1042D00061E080916D0390916E03DF91CF910C941A
:1042E000D7106DE372E0CE010E94C01B882329F134
:1042F00084E5809393030E94BD20C0916D03D0910B
:104300006E03CE010E94AD11882311F064E406C053
:10431000CE010E940B11843039F46CE48A819B81B8
:10432000DF91CF910C94590E823011F461E4F6CFF5
:10433000813009F063C06FE4F1CF68EE71E0CE0127
:104340000E94C01B8823E9F087E5809393030E94B5
:10435000BD20C0916D03D0916E03CE010E94221248
:10436000811102C064E5DACF813011F461E5D6CF66
:10437000823011F462E5D2CF833009F03FC065E4AA
:10438000CDCF6AEE71E0CE010E94C01B8823A9F058
:104390000E94BD2061E080916B0390916C030E94AC
:1043A000F00C61E080916D0390916E030E943211D8
:1043B00081E080936F0368E31BC06CEE71E0CE0177
:1043C0000E94C01B8823D1F00E94BD2060E0809134
:1043D0006B0390916C030E94F00C61E080916D037F
:1043E00090916E030E94321181E080936F0369E324
:1043F0008BE693E0DF91CF910C941021DF91CF9168
:104400000895EF92FF920F931F93CF93DF9300D005
:1044100000D000D0CDB7DEB77C016EEE71E0CE01EA
:1044200001960E949C1D08E027E0AE014F5F5F4FA0
:10443000B7018BE693E00E94B80E182FCE010196CB
:104440000E94851D812F26960FB6F894DEBF0FBE01
:10445000CDBFDF91CF911F910F91FF90EF90089505
:104460000F931F93CF93DF9300D000D000D0CDB730
:10447000DEB70BE613E0D8015E961C925E971C96A1
:104480001C921C979E968D919C919F97DC01ED91BB
:10449000FC910284F385E02D099566EF71E0CE0171
:1044A00001960E949C1D41E0BE016F5F7F4FC801D5
:1044B0000E94A00FCE0101960E94851D0E94EF1E52
:1044C00061E0C8010E948D0E63E671E0CE010196A5
:1044D0000E949C1D41E0BE016F5F7F4FC8010E949A
:1044E000A00FCE0101960E94851DF80186A597A513
:1044F000DC01ED91FC910284F385E02D0995F80132
:1045000017A2178E14828EE4848F858F0E94EF1E6F
:10451000D8019A966D937D938D939C939D979996D0
:104520001C9226960FB6F894DEBF0FBECDBFDF916A
:10453000CF911F910F910895EF92FF920F931F93C8
:10454000CF93DF9300D000D000D0CDB7DEB77C0191
:1045500062EE73E0CE0101960E948A1D0CE02BE012
:10456000AE014F5F5F4FB7018BE693E00E94B80E3C
:10457000182FCE0101960E94851D111144C065EDD2
:1045800073E0CE0101960E948A1D2BE0AE014F5FC1
:104590005F4FB7018BE693E00E94B80E182FCE0153
:1045A00001960E94851D111130C068EC73E0CE01A8
:1045B00001960E948A1D2BE0AE014F5F5F4FB7014D
:1045C0008BE693E00E94B80E182FCE0101960E9450
:1045D000851D11111CC06BEB73E0CE0101960E948A
:1045E0008A1D2BE0AE014F5F5F4FB7018BE693E072
:1045F0000E94B80EF82ECE0101960E94851DF11082
:1046000008C08EE407C084E405C082E503C089E4E5
:1046100001C085E426960FB6F894DEBF0FBECDBF6D
:10462000DF91CF911F910F91FF90EF900895FF922E
:104630000F931F93CF93DF93CDB7DEB72C970FB6B1
:10464000F894DEBF0FBECDBF8C016FEA73E0CE01E0
:1046500001960E948A1DB801CE0107960E94931D03
:10466000BE016F5F7F4FCE0107960E94DF1BF82EC1
:10467000CE0107960E94851DCE0101960E94851DE0
:10468000FF2011F081E059C069EA73E0CE01019684
:104690000E948A1DB801CE0107960E94931DBE019B
:1046A0006F5F7F4FCE0107960E94DF1BF82ECE0171
:1046B00007960E94851DCE0101960E94851DF1106E
:1046C000E1CF6EE973E0CE0107960E948A1DB80122
:1046D000CE0101960E94931DBE01695F7F4FCE01FE
:1046E00001960E94DF1BF82ECE0101960E94851DC7
:1046F000CE0107960E94851DF110C4CF6EEF71E0C8
:10470000CE0107960E949C1DB801CE0101960E9421
:10471000931DBE01695F7F4FCE0101960E94DF1B92
:10472000182FCE0101960E94851DCE0107960E948A
:10473000851D81E0111101C080E02C960FB6F89420
:10474000DEBF0FBECDBFDF91CF911F910F91FF90C4
:104750000895FF920F931F93CF93DF93CDB7DEB7EA
:1047600062970FB6F894DEBF0FBECDBF8C01F62E58
:1047700081E0809377038091990390919A03DC0103
:10478000ED91FC910284F385E02D099563E671E0DB
:10479000CE010D960E949C1DF11027C080919103BF
:1047A0008F34B1F034F4833499F0863409F0DAC0F0
:1047B0000FC0833521F0853509F0D4C009C065E00C
:1047C00072E0CE010D960E941E1D6CE072E008C0E2
:1047D00065E072E0CE010D960E941E1D6FE072E052
:1047E000CE010D960E94E01C05C0B801CE010D96C9
:1047F0000E94351D63E671E0CE0107960E949C1D64
:1048000063E172E0CE0107960E941E1D80917E0337
:10481000882339F063E973E0CE0107960E94111CEA
:1048200013C060916B0370916C03CE0101960E94DE
:10483000000DBE016F5F7F4FCE0107960E94EF1CF7
:10484000CE0101960E94851D64EA71E0CE010796B3
:104850000E94E01C8091990390919A03DC01ED91F4
:10486000FC910284F385E02D0995BE01695F7F4FBD
:10487000CE0101960E94931D41E0BE016F5F7F4F04
:104880008BE693E00E94A00FCE0101960E94851D49
:104890008091990390919A03DC01ED91FC9102843F
:1048A000F385E02D09956AE08BE693E00E948D0E7A
:1048B000BE01635F7F4FCE0101960E94931D41E0D0
:1048C000BE016F5F7F4F8BE693E00E94A00FCE0189
:1048D00001960E94851D8091990390919A03DC01B5
:1048E000ED91FC910284F385E02D09956AE08BE659
:1048F00093E00E948D0E8091990390919A03DC01C0
:10490000ED91FC910284F385E02D09958BE693E00F
:104910000E947F0F0091990310919A03D801ED91A5
:10492000FC910190F081E02D6AE1C8010995C80170
:104930000E94F71D8091990390919A03DC01ED91FB
:10494000FC910284F385E02D09956AE08BE693E003
:104950000E948D0E10927E0310927703CE0107966F
:104960000E94851DCE010D960E94851D62960FB690
:10497000F894DEBF0FBECDBFDF91CF911F910F9195
:10498000FF900895CF93DF9300D000D000D0CDB733
:10499000DEB790918A03911118C0E0916B03F091FA
:1049A0006C039289913489F48093910363E671E0FA
:1049B000CE0101960E949C1D60E0CE0101960E94EE
:1049C000A923CE0101960E94851D26960FB6F89464
:1049D000DEBF0FBECDBFDF91CF910895EF92FF9262
:1049E0000F931F93CF93DF9300D0CDB7DEB78C0129
:1049F0007B0163E671E00E949C1DC7010E94FB1EC3
:104A000097FD0EC08A30910559F089831A8241E0E2
:104A100050E0BE016F5F7F4FC8010E944F1CEDCF79
:104A2000C8010F900F90DF91CF911F910F91FF90D0
:104A3000EF900895EF92FF920F931F93CF93DF9320
:104A400000D000D000D0CDB7DEB78C0163E671E0B6
:104A50000E949C1D8091990390919A03DC01ED9135
:104A6000FC910480F581E02D099518161906BCF417
:104A70008BE693E00E947F0F6091990370919A03F7
:104A8000CE0101967C010E94EE240E151F0521F037
:104A9000B701C8010E944C1DC7010E94851DC801B5
:104AA00026960FB6F894DEBF0FBECDBFDF91CF9133
:104AB0001F910F91FF90EF900895FC016481758123
:104AC00090E0292F30E026173707A8F44081518164
:104AD0004115510529F0DA01A20FB31F2C9101C035
:104AE00020E0022E000C330B205331092A3031050F
:104AF00020F49F5FE6CF81E0089580E008958F92D3
:104B00009F92AF92BF92CF92DF92EF92FF921F934C
:104B1000CF93DF93CDB7DEB762970FB6F894DEBFC1
:104B20000FBECDBF162FBC01CE0101960E94931D72
:104B300040E0BE016F5F7F4F8BE693E00E94A00FC5
:104B4000CE0101960E94851D0E94EF1E4B015C0163
:104B500063E671E0CE010D960E949C1D112339F091
:104B600090E6C92E9AEED92EE12CF12C06C088EBE6
:104B7000C82E8BE0D82EE12CF12C0E94EF1EDC0118
:104B8000CB0188199909AA09BB098C159D05AE05A9
:104B9000BF0508F05CC08091990390919A03DC01F5
:104BA000ED91FC910480F581E02D09951816190608
:104BB00024F7CE0101960E941A25BE016F5F7F4F38
:104BC000CE010D960E944C1DCE0101960E94851DBE
:104BD00060E272E0CE0101960E949C1DBE01635FFF
:104BE0007F4FCE0107960E94931DBE016F5F7F4FDE
:104BF000CE0107960E94DF1B182FCE0107960E9458
:104C0000851DCE0101960E94851D111122C06EEFF7
:104C100071E0CE0101960E949C1DBE01635F7F4F33
:104C2000CE0107960E94931DBE016F5F7F4FCE019C
:104C300007960E94DF1B182FCE0107960E94851D44
:104C4000CE0101960E94851D112309F496CF10E034
:104C500001C011E0CE010D960E94851D812F629644
:104C60000FB6F894DEBF0FBECDBFDF91CF911F917D
:104C7000FF90EF90DF90CF90BF90AF909F908F907C
:104C80000895CF93DF9300D000D000D0CDB7DEB72A
:104C900061E074E0CE0101960E948A1D60E0CE01C1
:104CA00001960E947F25CE0101960E94851D2696C1
:104CB0000FB6F894DEBF0FBECDBFDF91CF91089540
:104CC0008F929F92AF92BF92CF92DF92EF92FF921C
:104CD0000F931F93CF93DF9300D000D000D0CDB7B8
:104CE000DEB76C017A010E94EF1E4B015C01B60138
:104CF000CE0101960E94931D41E0BE016F5F7F4F80
:104D00008BE693E00E94A00FCE0101960E94851DC4
:104D10000E94EF1E8B019C01081919092A093B0901
:104D2000003A1F402105310530F58091990390919B
:104D30009A03DC01ED91FC910480F581E02D099549
:104D4000892B31F3CE0101960E941A25BE016F5FB7
:104D50007F4F8BE693E0F7010995182F8823A1F286
:104D6000BE016F5F7F4FC6010E94351DCE010196C7
:104D70000E94851D01C010E0812F26960FB6F89481
:104D8000DEBF0FBECDBFDF91CF911F910F91FF907E
:104D9000EF90DF90CF90BF90AF909F908F9008954D
:104DA000CF92DF92EF92FF920F931F93CF93DF93F7
:104DB000CDB7DEB760970FB6F894DEBF0FBECDBF9C
:104DC00081E080937E036DEF73E0CE0107960E9431
:104DD0008A1D7E018DE0E80EF11C08E413E0C80195
:104DE0000E94A436F70181937F010F5F1F4F0C349F
:104DF000F3E01F07A1F7CD84DE84EF84F888BE01BD
:104E0000695F7F4FCE0101960E94931DB701A601F5
:104E1000CE0101960E947D1CBC01CE0107960E9426
:104E2000351DCE0101960E94851D61E0CE010796D9
:104E30000E94A923CE0107960E94851D60960FB699
:104E4000F894DEBF0FBECDBFDF91CF911F910F91C0
:104E5000FF90EF90DF90CF900895CF93DF9300D035
:104E600000D000D0CDB7DEB76FEE73E0CE01019673
:104E70000E948A1D60E0CE0101960E947F25CE012E
:104E800001960E94851D26960FB6F894DEBF0FBED0
:104E9000CDBFDF91CF910895CF93DF9300D000D0A5
:104EA00000D0CDB7DEB761E374E0CE0101960E9479
:104EB0008A1D60E0CE0101960E947F25CE010196F9
:104EC0000E94851D6AE274E0CE0101960E948A1D4F
:104ED00060E0CE0101960E947F25CE0101960E94DE
:104EE000851D6EE174E0CE0101960E948A1D60E08E
:104EF000CE0101960E947F25CE0101960E94851D5C
:104F000081E08983BE016F5F7F4F84E893E00E9458
:104F100008201A821982BE016F5F7F4F84E993E0F7
:104F20000E94F5191982BE016F5F7F4F80E993E0FF
:104F30000E94082064E68BE693E00E948D0E8BE6CB
:104F400093E00E94D41026960FB6F894DEBF0FBEF1
:104F5000CDBFDF91CF9108951F93CF93DF9300D002
:104F600000D000D0CDB7DEB76FE074E0CE0101967F
:104F70000E948A1D61E0CE0101960E947F25182FB4
:104F8000CE0101960E94851D812F26960FB6F894BA
:104F9000DEBF0FBECDBFDF91CF911F910895CF929D
:104FA000DF92EF92FF920F931F93CF93DF93CDB7D2
:104FB000DEB72C970FB6F894DEBF0FBECDBF64E20C
:104FC00072E0CE0101960E949C1D40E0BE016F5F21
:104FD0007F4F8BE693E00E94A00FCE0101960E94C6
:104FE000851D0E94EF1E6B017C010E94EF1EDC01FB
:104FF000CB018C199D09AE09BF0988389341A105E1
:10500000B10508F054C08091990390919A03DC0196
:10501000ED91FC910480F581E02D0995892B29F310
:105020006091990370919A03CE0107960E94EE2435
:105030000B85015063E372E0CE0101960E949C1D36
:105040002BE0AE014F5F5F4FBE01695F7F4F8BE684
:1050500093E00E94B80E182FCE0101960E94851D84
:1050600011111FC00B8501506FE372E0CE01019654
:105070000E949C1D2BE0AE014F5F5F4FBE01695F38
:105080007F4F8BE693E00E94B80E182FCE01019659
:105090000E94851D111106C0CE0107960E94851D34
:1050A000A4CF10E0CE0107960E94851D01C010E03C
:1050B000812F2C960FB6F894DEBF0FBECDBFDF91C7
:1050C000CF911F910F91FF90EF90DF90CF900895B7
:1050D000CF92DF92EF92FF921F93CF93DF9300D096
:1050E00000D000D0CDB7DEB7BC01CE0101960E9442
:1050F000931D40E0BE016F5F7F4F8BE693E00E94FF
:10510000A00FCE0101960E94851D0E94EF1E6B012B
:105110007C010E94EF1EDC01CB018C199D09AE09B8
:10512000BF0988389341A105B10590F58091990395
:1051300090919A03DC01ED91FC910480F581E02DC2
:105140000995892B31F36091990370919A03CE01EF
:1051500001960E94EE2460E272E0CE0101960E9468
:10516000C01B81110DC06EEF71E0CE0101960E944F
:10517000C01B811107C0CE0101960E94851DC9CFB9
:1051800011E001C010E0CE0101960E94851D01C012
:1051900010E0812F26960FB6F894DEBF0FBECDBF6C
:1051A000DF91CF911F91FF90EF90DF90CF90089506
:1051B000CF93DF93CDB7DEB767970FB6F894DEBF16
:1051C0000FBECDBF789484B5826084BD84B5816004
:1051D00084BD85B5826085BD85B5816085BD8091C2
:1051E0006E00816080936E0010928100809181003A
:1051F0008260809381008091810081608093810032
:10520000809180008160809380008091B1008460F3
:105210008093B1008091B00081608093B000809154
:105220007A00846080937A0080917A008260809313
:105230007A0080917A008E7F80937A0080917A0044
:10524000806880937A001092C10084B761E088E0A2
:105250000E94B31E60E088E00E94831E62E089E045
:105260000E94B31E89E00E945A1E892B39F41092C5
:105270004D0260E088E00E94831E07C061E088E084
:105280000E94831E81E080934D02809168008160BE
:1052900080936800809168008260809368008091AC
:1052A0006B00826080936B0080916C0081608093C2
:1052B0006C0080916C00826080936C0080916C0027
:1052C000806280936C0080916800846080936800A5
:1052D00080916D00806280936D0080916D0080648C
:1052E00080936D0080916D00806880936D00F894CC
:1052F0000E940A2178948EEC92E00E94CC2061E01A
:1053000081E10E94B31E62EB73E08AE390E00E94A9
:10531000FE1F8091B2038F3F41F41092B20362EB03
:1053200073E08AE390E00E94082061EB73E086E37B
:1053300090E00E94FE1F8091B1038F3F41F41092D4
:10534000B10361EB73E086E390E00E94082060EB1C
:1053500073E080E090E00E94FE1F8091B0038F3FD9
:1053600029F460E087EA93E00E94F00C87EA93E07A
:105370000E94E60C64EB73E084E090E00E94C31F9F
:105380008091B4039091B503019661F482E390E0BB
:105390009093B5038093B40364EB73E084E090E0F2
:1053A0000E94D71F68EB73E08CE090E00E94FE1F24
:1053B0008091B8038F3F41F41092B80368EB73E01B
:1053C0008CE090E00E9408208EE090E00E94A436DD
:1053D0008093B9038F3F29F463E487EA93E00E9446
:1053E000EA0D67EA73E08CE291E00E94FE1F809173
:1053F000A703803140F01092A70367EA73E08CE2C4
:1054000091E00E94082069EA73E086E190E00E9442
:10541000FE1F8091A9038F3F41F41092A90369EA0E
:1054200073E086E190E00E94082068EA73E08AE178
:1054300090E00E94FE1F8091A8038F3F41F41092DC
:10544000A80368EA73E08AE190E00E9408206AEA13
:1054500073E080E293E00E94FE1F8091AA038F3FD9
:1054600041F41092AA036AEA73E080E293E00E949A
:10547000082066EB73E082E190E00E94C31F8091F8
:10548000B6039091B703019661F482E090E09093A7
:10549000B7038093B60366EB73E082E190E00E946D
:1054A000D71F63EB73E082E390E00E94FE1F8091C0
:1054B000B3038F3F41F41092B30363EB73E082E3D5
:1054C00090E00E94082087EA93E090936C03809319
:1054D0006B0387E692E090936E0380936D032BE05D
:1054E00087E792E0922E981A80915D02882321F13D
:1054F0000E94EF1E0091590210915A0220915B0206
:1055000030915C02DC01CB01801B910BA20BB30B31
:1055100081319742A105B10578F080914D0281114A
:105520000FC50E94F320882309F40AC510925D027A
:1055300060E088E00E94831E80914C028823B9F0CD
:1055400010924C0280914D02811104C081E0809341
:1055500058020DC01092580261E088E00E94831E3C
:1055600080915702811103C081E08093570280919E
:1055700058028823D9F00E94F3208823B9F0809143
:105580007703811113C080919C0381110FC0109289
:1055900058020E94EF1E6093590270935A02809342
:1055A0005B0290935C0281E080935D0280915602E1
:1055B0008111DCC180915502811108C00E94EF1E4B
:1055C000603D77408105910508F0BDC48091570288
:1055D000882321F10E94EF1E20914E0230914F024C
:1055E000DC01CB01821B930BA109B109853F9140DE
:1055F000A105B10598F09091040181E0892780937D
:105600000401882309F4A5C461E081E10E94831E9E
:105610000E94EF1E70934F0260934E020E94EF1E95
:10562000683A71468105910508F487C400E06BE192
:1056300071E0CE0101960E949C1D60E0CE010196B2
:105640000E947F25CE0101960E94851D6CEB70E0C3
:10565000CE0101960E948A1D60E0CE0101960E9453
:105660007F25182FCE0101960E94851D112309F474
:10567000EAC060EB70E0CE010D960E948A1D60E0EA
:10568000CE010D960E947F25882309F4D8C064EAD4
:1056900070E0CE0107960E948A1D60E0CE01079659
:1056A0000E947F25182F882381F060E970E0CE01E9
:1056B00001960E948A1D60E0CE0101960E947F251E
:1056C000182FCE0101960E94851DCE0107960E94DB
:1056D000851DCE010D960E94851D112309F4B3C0CE
:1056E00063E870E0CE0101960E948A1D60E0CE0161
:1056F00001960E947F25CE0101960E94851D6CE7D0
:1057000070E0CE0101960E948A1D60E0CE010196F4
:105710000E947F25CE0101960E94851D81E0809325
:105720009B0360E770E0CE0101960E948A1D60E055
:10573000CE0101960E947F25CE0101960E94851D13
:1057400068E670E0CE010D960E948A1D2DE4422E7F
:105750002CE0522E612C712CB301A201CE010D96CA
:105760000E946026882309F465C063E671E0CE01DB
:1057700007960E949C1D00916B0310916C03F80129
:10578000838181112FC00E94D0260E942D27009175
:105790006B0310916C0381E0F8018383B8016D5FA6
:1057A0007F4F80E293E00E94082089898B8BBE01A5
:1057B0006D5E7F4F84E293E00E940820BE01635F2C
:1057C0007F4FCE0101960E94931DAE014F5F5F4F48
:1057D00068E273E0C8010E94750CCE0101960E9438
:1057E000851D24C0BE016D5E7F4F84E293E00E9460
:1057F000FE1F2B8948E253E0B801CE0101960E94BA
:105800002020BE016F5F7F4FCE0107960E944C1D86
:10581000CE0101960E94851DBE01635F7F4FCE01C0
:1058200007960E94DF1B882309F4ADCFCE010796AF
:105830000E94851DCE010D960E94851D0CC0CE01D3
:105840000D960E94851D80919B03811104C001115A
:1058500002C001E0ECCEBE016F5F7F4F8CE893E0A9
:105860000E94FE1F198180919B03882399F163E6B2
:1058700071E0CE0107960E949C1D8FEF810F8E3F35
:1058800028F5113019F465ED70E009C0123019F4F3
:1058900060ED70E004C0133031F468EC70E0CE01CC
:1058A00007960E94F61C81E080937E03BE01695F2B
:1058B0007F4FCE0101960E94931D61E0CE010196BB
:1058C0000E94A923CE0101960E94851DCE01079654
:1058D0000E94851D1A821982BE016F5F7F4F8CE87E
:1058E00093E00E94F51911E01093C70260E087E68B
:1058F00092E00E943211809168008160809368007C
:1059000080916B00826080936B0080916B0084605B
:1059100080936B0080916B00886080936B0086E6BB
:10592000A82E8CE0B82EB0920301A09202018091C3
:105930006900837F846080936900E99A9AE6C92EA2
:105940009CE0D92ED0920101C092000180916900A3
:105950008C7F816080936900E89A109356021092C0
:10596000040160E081E10E94831EE7C20E944B02B5
:105970008091AC02811123C18091B30281111FC1BA
:105980008091C702882309F45CC01092C702F89482
:105990008AE00E945A1E21E0892B09F420E02B8B1B
:1059A0008BE00E945A1E21E0892B09F020E02D8710
:1059B0001F8283E00E945A1E21E0892B09F420E017
:1059C000298378948B89209190029091910282137F
:1059D00008C03D85391305C04981309193024317B2
:1059E00081F1992309F4DEC29981882309F4B3C2B5
:1059F0003D853111B0C29111AEC220E041E060E0BE
:105A000087E692E00E94D71060E081E10E94831E49
:105A100063E48091690290916A020E946110809310
:105A200071028E010F5F1F4F9E01295F3F4FAE0134
:105A3000435F5F4FBE016D5E7F4F87E692E00E943D
:105A400061118091C802882309F465C01092C802D0
:105A50008FE00E945A1E892B31F460E087E692E0C5
:105A60000E94561258C08EE00E945A1E892B41F4A3
:105A700021E040E060E087E692E00E94D7104BC052
:105A800083E10E945A1E892B09F045C00E94EF1E37
:105A90000091BF021091C0022091C1023091C20258
:105AA000DC01CB01801B910BA20BB30B853F914016
:105AB000A105B10580F10E94EF1E6093BF027093B3
:105AC000C0028093C1029093C202809167029091BC
:105AD000680261E0FC012185211160E00E94F00C68
