:100000000C949B020C94311E0C940A1E0C94131237
:100010000C9422120C94C3020C94E2110C94C302AF
:100020000C94C3020C94C3020C94C3020C94C3023C
:100030000C94C3020C94C3020C94C3020C94C3022C
:100040000C94C01D0C94C3020C94BD1C0C94971C02
:100050000C94C3020C94C3020C94C3020C94C3020C
:100060000C94C3020C94C30241542B4343494400F3
:1000700041542B444445543D310D0A004154265708
:100080000D0A0041542B434C54533D310D0A00419D
:10009000542B4353434C4B3D310D0A0041542B43E9
:1000A0004E4D493D322C312C302C302C300D0A0075
:1000B00041542B434D47463D310D0A0041542B43DB
:1000C0004C43433D310D0A0041542B434C49503DB4
:1000D000310D0A0041540D0A004D41584345444436
:1000E0000043455252005550445355434300415438
:1000F000410041542B444445543D310D0A004154C4
:100100002B4346554E3D312C310D0A002B435049AF
:100110004E3A204E4F542052454144590D00436100
:100120006C6C2052656164790D0041542B434D473E
:1001300044413D2244454C20414C4C220D0A004193
:10014000542B465450474554544F46533D302C226F
:100150006D2E62696E220D0A000D002B4654504729
:100160004554544F46533A20302C002B465450539C
:10017000495A453A20312C302C0041542B465450DA
:1001800053495A450D0A00504154483D222F220D33
:100190000A0041542B46545047455400220D0A0092
:1001A0004E414D453D220041542B46545047455445
:1001B000006D2E62696E0041542B46545050573DDD
:1001C00022313233343536373839220D0A00415462
:1001D0002B465450554E3D22726168756C6E7261AB
:1001E00074686F646B636C220D0A00220D0A004173
:1001F000542B465450534552563D220041542B46F1
:1002000054504349443D310D0A0041542B53415051
:1002100042523D312C310D0A00220D0A0041504E50
:10022000222C220041542B53415042523D332C3159
:100230002C2200436F6E54797065222C2247505255
:1002400053220D0A0041542B53415042523D332C4E
:10025000312C220041542B434F50533D320D0A00A4
:10026000415426570D0A0041542B4353434C4B3DF8
:10027000300D0A0041542B53415042523D302C3135
:100280000D0A004443005355500050524755504406
:1002900000564D52303200564D4D3031002A2A2A38
:1002A0002A4D2B00310D00300D002E616D72222C75
:1002B000302C3130302C0041542B435245433D34D7
:1002C0002C22433A5C557365725C4654505C002B9B
:1002D000434357413A20302C37000041542B4352BE
:1002E00045433D350D0041542B43424300373034E4
:1002F00031313936393539000A4E6574776F726B92
:100300003A000A426174253A00204F46460A00200E
:100310004F4E0A00204F4E0A004D6F746F723A0024
:10032000204F46460A0020322050484153450A00DB
:100330004155544F4F4646004155544F4F4E00458E
:1003400052524F52203A20004F4B203A2000415445
:100350002B435553443D312C220042414C00415522
:10036000544F54494D45004155544F54494D450053
:100370005354415254494D45005354415254494DF0
:100380004500535441474500535441474500414DB2
:100390004F464600414D4F4E0041542B43424300CF
:1003A00041542B4353510053544154555300554E1F
:1003B0004452004F565200534A4D5000524553503C
:1003C00000444E444F464600444E444F4E0042596E
:1003D000504F4646004259504F4E004155544F4FE2
:1003E0004646004155544F4F4E0044494400524543
:1003F000534554004E6F204E756D626572004E5528
:100400004D0044454641554C5400434C45415241F2
:100410004C4C0057414954000000000024002700C4
:100420002A0000000000250028002B00000000002A
:100430002300260029000404040404040404020226
:100440000202020203030303030301020408102053
:10045000408001020408102001020408102000005E
:100460000008000201000003040700000000000073
:1004700000003935383631333539373800373338BD
:100480003336323236373800373338333631343258
:10049000313400373639383433393230310037307F
:1004A0003431313936393539003730343131393634
:1004B000393539004E4F20414E535745520D0042B9
:1004C0005553590D004E4F20434152524945520D4C
:1004D000002B434C43433A20312C302C0000415434
:1004E0002B4348555000222C320041542B56545374
:1004F0003D22002B53415042523A20312C004154AE
:100500002B53415042523D322C310D0A0041542BA5
:10051000434357413D302C300D0A0041542B434397
:1005200057413D302C320D0A000A49443A0030331D
:100530000A008E33F83211241FBECFEFD8E0DEBFA1
:10054000CDBF23E0AAECB1E001C01D92A834B207F0
:10055000E1F711E0A0E0B1E0ECEDF5E702C00590B5
:100560000D92AA3CB107D9F712E0CAE9D2E004C063
:100570002197FE010E947C38C939D107C9F70E9432
:1005800035290C94E13A0C9409122F923F924F9224
:100590005F927F928F929F92AF92BF92CF92DF92A3
:1005A000EF92FF920F931F93CF93DF93CDB7DEB7F8
:1005B000C254D1090FB6F894DEBF0FBECDBF8091F3
:1005C00019038823B1F00E94841D00911A03109131
:1005D0001B0320911C0330911D03DC01CB01801B08
:1005E000910BA20BB30B813D9740A105B10508F01B
:1005F00007C68091F302882371F10E94841D009147
:10060000F6021091F7022091F8023091F902AB0145
:10061000BC01401B510B620B730B2091F402309113
:10062000F502E4E6E29FC001E39F900D1124A0E0F3
:10063000B0E0481759076A077B0768F0E091DF02CE
:10064000F091E0028389811106C060E084E00E949D
:10065000181D1092F3028091FA028E3409F052C0F4
:100660008091FB028E3409F0BBC080910703811199
:1006700016C00E94841D0091080310910903209167
:100680000A0330910B03DC01CB01801B910BA20B01
:10069000B30B893E9340A105B10508F0B4C5809124
:1006A000FF02882309F49CC0E091DD02F091DE0294
:1006B000158580910703882309F492C08091FE027A
:1006C000813009F475C00E94841DC0900003D09051
:1006D0000103E0900203F09003039B01AC012C198D
:1006E0003D094E095F0969017A01212F30E0A0E63A
:1006F000BAEE0E9437376C157D058E059F0508F40C
:1007000057C06EC0893419F0823509F069C00E9463
:10071000841D0091ED021091EE022091EF023091C4
:10072000F002AB01BC01401B510B620B730B20911B
:10073000EB023091EC02E4E6E29FC001E39F900DF2
:100740001124A0E0B0E0481759076A077B0760F062
:100750008091050323968FAF23970E9485212396CE
:100760008FAD23970E94CA238091E7028823C1F1AD
:100770000E94841DE091E2020091E3021091E402E4
:100780002091E5023091E602AB01BC01401B510B08
:10079000620B730B34E6E39FC0011124092E000C99
:1007A000AA0BBB0B84179507A607B707C8F42FC57C
:1007B00080910403809305031092FF02E091DD0213
:1007C000F091DE02858D8E3459F081E0809306032E
:1007D0008DED92E00E94CC0E8DED92E00E94B50F5F
:1007E0009FE4E92E22E5D22E39E4F32E8091160300
:1007F00090911703DC01ED91FC910084F185E02DCF
:100800000995181619060CF0FCC66DED72E0CE01C4
:10081000CC960E94ED0E21960FAD219701506DE10F
:1008200071E0CE0101960E94201C26E0AE014F5FD0
:100830005F4FBE01645C7F4F8DED92E00E94050E1C
:10084000182FCE0101960E94F81B112321F08091F0
:10085000F202811124C521960FAD2197015064E267
:1008600071E0CE0101960E94201C2CE0AE014F5F8A
:100870005F4FBE01645C7F4F8DED92E00E94050EDC
:10088000182FCE0101960E94F81B112369F1BE01B9
:10089000645C7F4FCE01C0960E94061C6BE271E043
:1008A000CE0189960E94201CBE01605D7F4FCE0163
:1008B00089960E94791BBE01675D7F4FCE0101962C
:1008C0000E94061CBE016F5F7F4F8DED92E00E947B
:1008D000B425CE0101960E94F81BCE0189960E9494
:1008E000F81BCE01C096A7C264E371E0CE01019669
:1008F0000E94201C02E228E1AE014F5F5F4FBE0163
:10090000645C7F4F8DED92E00E94050E182FCE01A2
:1009100001960E94F81BBE01645C7F4FCE0111233B
:1009200009F446C201960E94061CCE0101960E945F
:10093000F723982ECE0101960E94F81BBE01645C3D
:100940007F4FCE0101960E94061CBE016F5F7F4F54
:100950008091DD029091DE020E947A0CC82ECE01B9
:1009600001960E94F81B911026C0BE01645C7F4F67
:10097000CE0101960E94061CBE016F5F7F4F8091E1
:10098000DD029091DE020E942C0C81110CC0C1107E
:100990000BC0E091DD02F091DE0211E0808188233E
:1009A00019F010E001C0182FCE0101960E94F81B2B
:1009B000112309F49DC16DED72E0CE0101960E94F4
:1009C000ED0EBE016F5F7F4FCE01CC960E94BF1B24
:1009D000CE0101960E94F81BACACBDACA114B104D1
:1009E00041F4E091DD02F091DE028081882371F014
:1009F0003CC0D5018C918823A1F3082E000C990BE3
:100A00000E947E3AF50181935F01F3CF91102DC0D2
:100A10006DE972E0CE0101960E94FD1BBE016F5F81
:100A20007F4FCE01CC960E948D1A182FCE010196D1
:100A30000E94F81B112309F400C222962EAD3FAD8F
:100A4000229744E050E0BE01645C7F4FCE010196E6
:100A50000E94351CBE016F5F7F4FCE01CC960E9475
:100A6000BF1BCE0101960E94F81B6BE371E0CE0123
:100A700001960E94201CBE016F5F7F4FCE01CC9675
:100A80000E948D1A182FCE0101960E94F81B112387
:100A9000D1F022962EAD3FAD229741E050E0BE014D
:100AA000645C7F4FCE0101960E94351CBE016F5FD2
:100AB0007F4FCE01CC960E94BF1BCE0101960E94B3
:100AC000F81B11E001C010E0BE01645C7F4FCE0155
:100AD000992009F402C1C6960E94061C81E0809309
:100AE000F1020AAD01506AE872E0CE0101960E945F
:100AF000FD1B26E0AE014F5F5F4FBE016A5C7F4F7A
:100B00008DED92E00E94050E782ECE0101960E9496
:100B1000F81B772009F4CEC08091FA028E3411F4CC
:100B20000E948521111110C066E872E0CE01019685
:100B30000E94FD1B40E061E0CE0101960E94A822C8
:100B4000CE0101960E94F81BAEA8BFA80E94822782
:100B5000811156C06DE371E0C5010E9426354C013C
:100B60006EE571E080E090E00E9426355C0165E46E
:100B700072E0CE0101960E94163563E372E0CE0169
:100B800001960E940B35CE0101960E94FF27882313
:100B900009F457C064E272E0CE0101960E94163556
:100BA0006DE172E0CE0101960E940B35B401CE01D9
:100BB00001960E948F3A69E172E0CE0101960E948F
:100BC0000B35CE0101960E94FF278823D1F161E009
:100BD0008AE092E00E949D24882399F164E18DEDE2
:100BE00092E00E94DA0D0CE0015059F162E38DEDC4
:100BF00092E00E94DA0D0E9482278823A9F302C0A6
:100C0000A12CB12C61E08CEF91E00E949D248823FF
:100C1000C1F06FEE71E0CE0101960E941635B5016C
:100C2000CE0101960E948F3A6BEE71E0CE010196E3
:100C30000E940B3561E0CE0101960E94FE268111D3
:100C400042C361E084E792E00E949D24E091DD02CE
:100C5000F091DE0212861982BE016F5F7F4F84E839
:100C600093E00E949D1E1A821982BE016F5F7F4F22
:100C700084E993E00E946A2801E00983BE016F5F66
:100C80007F4F80E993E00E949D1E0093F1021111B5
:100C900013C06FE371E0CE0101960E94201C40E07A
:100CA00061E0CE0101960E94A822CE0101960E9429
:100CB000F81B02C01092F102CE01C6960E94F81BEA
:100CC000711070C0BE01645C7F4FCE0101960E941E
:100CD000061C2C2D412F61E006C001960E94061CC7
:100CE0002C2D412F60E0CE0101960E94371256C094
:100CF000BE01645C7F4FCE0101960E94061CBE01BE
:100D00006F5F7F4F8091DD029091DE020E94810C27
:100D1000182FCE0101960E94F81B112309F442C03E
:100D20006DED72E0CE0101960E94ED0EBE016F5F87
:100D30007F4FCE01CC960E94BF1BCE0101960E9430
:100D4000F81B67E972E0CE0101960E94FD1BBE010F
:100D50006F5F7F4FCE01CC960E948D1A182FCE0167
:100D600001960E94F81B1123E9F0E091DD02F09159
:100D7000DE0281E08483BF016C5F7F4F8CE590E0F1
:100D80000E949D1E61E972E0CE0101960E94FD1B4A
:100D900042E061E0CE0101960E94A822CE010196B8
:100DA0000E94F81B60E08AE291E00E949D2445C009
:100DB00089960E94061C6EE171E0CE0101960E94A8
:100DC000FD1BBE016F5F7F4FCE0189960E94C71A3F
:100DD000182FCE0101960E94F81BCE0189960E9421
:100DE000F81B112321F081E08093180326C0BE0177
:100DF000645C7F4FCE0189960E94061C6CE071E016
:100E0000CE0101960E94FD1BBE016F5F7F4FCE0198
:100E100089960E94C71A182FCE0101960E94F81BCE
:100E2000112339F00E94852160E08EEF90E00E944E
:100E30009D24CE0189960E94F81B90910603809113
:100E4000FA029111FDC08E3419F0823509F083C188
:100E50009091FB029E3419F0993409F0DEC0BE0176
:100E6000645C7F4FCE0101960E94061C62E471E033
:100E7000CE0101960E94A81A182FCE0101960E9459
:100E8000F81B112309F4B3C081E08093E902D092EA
:100E9000FA02F092FB028091FC028F5F8093FC02C9
:100EA000853008F066C0813091F440E062EF70E078
:100EB0008DED92E00E94300F809116039091170300
:100EC000DC01ED91FC910680F781E02D09956EE53E
:100ED00071E0CE01C0960E94201C6DED72E0CE0143
:100EE00001960E94ED0EBE016F5F7F4FCE01C0964E
:100EF0000E94BF1BCE0101960E94F81B68E471E0BE
:100F0000CE0101960E94201C05E12BE0AE014F5F4F
:100F10005F4FBE01605D7F4F8DED92E00E94050E38
:100F2000182FCE0101960E94F81B1123B1F20E94E6
:100F3000841D6093ED027093EE028093EF02909314
:100F4000F0028CA99DA90A9778F0CE01C0960E9464
:100F50007824882349F08091FC02823028F0809127
:100F6000E102882309F420C3CE01C0960E94F81B39
:100F700006C08091E102811102C00E94852180910A
:100F8000E102882309F437C10E94841D6093ED02B9
:100F90007093EE028093EF029093F0021092E102C0
:100FA00081E08093FD028091160390911703DC018C
:100FB000ED91FC910680F781E02D099541E06EEE00
:100FC00070E08DED92E00E94300F809116039091B9
:100FD0001703DC01ED91FC910680F781E02D099566
:100FE000F092FA02F092FB0241E06DE4AFC0BE0164
:100FF000645C7F4FCE0101960E94061CCE010196D3
:101000000E944C22182FCE0101960E94F81B11233A
:1010100009F4F1C00E948521EEC0893489F49091D1
:10102000FB02993469F4BE01645C7F4FCE010196E6
:101030000E94061CCE0101960E944C22182FB7C0B8
:101040008E3419F0823509F089C01091FB021F34EB
:1010500009F0D1C0BE01645C7F4FCE0101960E94B1
:10106000061CCE0101960E94FD21082FCE0101969B
:101070000E94F81B023579F40E94841D6093ED02F2
:101080007093EE028093EF029093F0020093FA02C5
:101090001093FB02B0C0BE01645C7F4FCE0101968D
:1010A0000E94061CCE0101960E944C22182F81112D
:1010B00013C0BE01645C7F4FCE0189960E94061C5E
:1010C000CE0189960E94FD2111E0853409F010E0DF
:1010D000CE0189960E94F81BCE0101960E94F81B52
:1010E000112369F08091050323968FAF23970E9407
:1010F000852123968FAD23970E94CA237CC0BE0111
:10110000645C7F4FCE0101960E94061CCE010196C1
:101110000E94FD21182FCE0101960E94F81B193460
:1011200009F069C00E94841D6093ED027093EE0285
:101130008093EF029093F0021093FA02E092FB0288
:1011400081E08093FD0241E0609105038DED92E026
:101150000E94780F50C0893409F461CF893409F0B6
:101160004AC08091FB028F3409F045C0BE01645C27
:101170007F4FCE0101960E94061CCE0101960E946F
:101180004C22182F811113C0BE01645C7F4FCE0129
:1011900089960E94061CCE0189960E94FD2111E0CD
:1011A000853409F010E0CE0189960E94F81BCE012B
:1011B00001960E94F81B11112DCFCE01CC960E94F2
:1011C0005621BE01645C7F4F882349F0CE01019611
:1011D0000E94061CCE0101960E941A1F08C0CE0173
:1011E00001960E94061CCE0101960E946125CE0147
:1011F00001960E94F81BCE01CC960E94F81BF6CAFD
:1012000010921903F6C981E08093070348CA8091C0
:10121000160390911703DC01ED91FC910680F78194
:10122000E02D099540E067EB72E08DED92E00E94C1
:10123000300F6091E8028DED92E023966FAF239717
:101240000E94CC0E23966FAD239780911603909148
:1012500017030E947B1C40E06AEA72E08DED92E089
:101260000E94300F80910D03823020F041E067EA48
:1012700072E003C041E064EA72E08DED92E00E940A
:10128000300F8091160390911703DC01ED91FC91D2
:101290000680F781E02D09951092E702A1CABE01F0
:1012A000645C7F4FCE0101960E94061C40E061E025
:1012B000CE0101960E94A822CE0101960E94F81B41
:1012C0001092F202C8CA61E08EEC91E00E949D2467
:1012D000882309F4B6CC61E087EB91E00E949D245D
:1012E000882309F4AECC67EA71E0CE0101960E9432
:1012F000163560EA71E0CE0101960E940B3561EB74
:1013000071E0CE0101960E940B356CE971E0CE01CF
:1013100001960E940B3561E0CE0101960E94FE26E7
:10132000982E882309F48DCC62E971E0CE010196F4
:101330000E94163567E871E0CE0101960E940B35D8
:1013400060E0CE0101960E94FE26E091DD02F09160
:10135000DE028285811177C00E94841D1B012C0151
:1013600040E06AE771E08DED92E00E94300F0E944C
:10137000841DDC01CB0182199309A409B509803CC5
:10138000944DA140B10508F05CCC8091160390917A
:101390001703DC01ED91FC910084F185E02D0995A6
:1013A000892B29F36091160370911703CE0189965A
:1013B0000E946E260DA501506BE671E0CE010196EC
:1013C0000E94FD1B2EE0AE014F5F5F4FBE01675DC7
:1013D0007F4F8DED92E00E94050E082FCE01019601
:1013E0000E94F81BCE018996002351F10E94711AC8
:1013F000E091DD02F091DE0221E0228766837783AF
:10140000808791872F01B6E04B0E511C88E8A82EEB
:1014100083E0B82EF20161912F01BA82A982CE0138
:1014200001960E94220DFFEFAF1ABF0A2CE8A21608
:1014300023E0B20679F7CE0189960E94F81B03C01B
:101440000E94F81B94CFE091DD02F091DE024AE0A9
:10145000BE01675D7F4F868197810E9452356BE5A3
:1014600071E0CE0101960E941635BE01675D7F4F87
:10147000CE0101960E948F3A69E571E0CE01019696
:101480000E940B350E94841D1B012C0140E06FE37C
:1014900071E08DED92E00E94300F0E94841DDC010E
:1014A000CB0182199309A409B509803C944DA14050
:1014B000B10508F0C6CB8091160390911703DC01AB
:1014C000ED91FC910084F185E02D0995892B29F39C
:1014D0006091160370911703CE01C0960E946E268C
:1014E000BE016F5F7F4F88A999A90E949A3A892B04
:1014F00041F4CE01C0960E94F81B992009F4A1CBBB
:1015000005C0CE01C0960E94F81BC7CF81E0809332
:10151000F102111110C063E872E0CE0101960E9441
:10152000FD1B40E061E0CE0101960E94A822CE01A1
:1015300001960E94F81B61E084E792E00E949D24DE
:1015400060E087E692E00E949D2460E080E692E001
:101550000E949D2460E084E592E00E949D2481E049
:101560008983BE016F5F7F4F84E893E00E949D1ED8
:101570001A821982BE016F5F7F4F84E993E00E9457
:101580006A281982BE016F5F7F4F80E993E00E9455
:101590009D1E64E68DED92E00E94DA0D8DED92E0E5
:1015A0000E949F10792C88CBBE01605D7F4FCE01D9
:1015B00089960E94061CBE01675D7F4FCE01019691
:1015C0000E94061CCE0101960E94F723182F81115C
:1015D0000DC0BE01675D7F4F8091DD029091DE02FC
:1015E0000E94B20C11E08F3F09F410E0CE01019689
:1015F0000E94F81B1093E102CE0189960E94F81B0D
:10160000B3CCCE5BDF4F0FB6F894DEBF0FBECDBFBD
:10161000DF91CF911F910F91FF90EF90DF90CF90CE
:10162000BF90AF909F908F907F905F904F903F9032
:101630002F90089581E080933E020895CF92DF922B
:10164000EF92FF92CF93DF93EC016C897D8980E06C
:1016500090E00E94CB356B017C018E89682F70E091
:1016600080E090E00E94CB359B01AC01C701B60140
:101670000E942C3620E030E048EC52E40E94B33760
:101680000E9425387B8B6A8BBE016E5E7F4F80EB9C
:1016900090E00E946C1E6C897D8980E090E00E9441
:1016A000CB356B017C018F89682F70E080E090E082
:1016B0000E94CB359B01AC01C701B6010E942C36BC
:1016C00020E030E048EC52E40E94B3370E94253815
:1016D000798B688BBE01605F7F4F8CEA90E0DF9171
:1016E000CF91FF90EF90DF90CF900C946C1E0E94F2
:1016F000841D60931A0370931B0380931C039093C3
:101700001D0381E08093190308950F931F93CF93D6
:10171000DF9300D000D000D0CDB7DEB78B016FECE7
:1017200072E0CE0101960E94FD1BBE016F5F7F4FEC
:10173000C8010E948D1A182FCE0101960E94F81B35
:1017400081E0111101C080E026960FB6F894DEBF4B
:101750000FBECDBFDF91CF911F910F910895FB0177
:1017600084819581409770F0CB0160E070E00E9429
:101770007C1A282F880F330B2053310981E02A303F
:10178000310508F080E00895CF93DF932FEF260F07
:10179000233680F4EC016E8BBC016A5E7F4F84EBD4
:1017A00090E00E949D1E8E85882331F0CE010E941C
:1017B0001E0B02C080E001C081E0DF91CF9108954F
:1017C000CF93DF93653680F0EC016F8BBC01695ECF
:1017D0007F4F88EB90E00E949D1E8E85882331F01C
:1017E000CE010E941E0B02C080E001C081E0DF91AB
:1017F000CF910895CF93DF93EC016B87BC01655FB8
:101800007F4F80E090E00E949D1E8B85882311F021
:1018100061E001C060E082E1DF91CF910C94181D7E
:10182000CF93DF93EC01FB018081882361F08181FC
:10183000882319F04EE150E002C040E351E0CE01B0
:101840000E94322605C06DEE72E0CE010E94FD1BA3
:10185000CE01DF91CF910895DF92EF92FF920F9327
:101860001F93CF93DF9300D000D000D0CDB7DEB769
:10187000FC012081222361F17B018C0140E351E0D6
:10188000BC01CE0101960E943226B701CE0101961D
:101890000E94C71AD82ECE0101960E94F81BD110C3
:1018A00019C0B701CE0101960E94061CF801808183
:1018B000882341F0BE016F5F7F4FC8010E94B51EB3
:1018C000182F01C010E0CE0101960E94F81B03C042
:1018D00010E001C011E0812F26960FB6F894DEBF0C
:1018E0000FBECDBFDF91CF911F910F91FF90EF9071
:1018F000DF900895FC01208121110C94B51E80E039
:1019000008950F931F93CF93DF9300D000D000D0A2
:10191000CDB7DEB7FC0183818823B9F08B01BF010D
:1019200040E650E0CE0101960E943226BE016F5F74
:101930007F4FC8010E94C71A11E0811101C010E059
:10194000CE0101960E94F81B01C010E0812F26965F
:101950000FB6F894DEBF0FBECDBFDF91CF911F91C0
:101960000F910895CF92DF92EF92FF920F931F9302
:10197000CF93DF9300D000D000D0CDB7DEB77C018D
:101980006B01FC018081811106C0F70184818823ED
:1019900009F442C02FC0CE0101960E94061CBE0170
:1019A0006F5F7F4FC7010E942C0C182FCE0101964C
:1019B0000E94F81B111132C011E0F7018081181745
:1019C00020F7FBE01F9FA0011124405D5E4FB7018F
:1019D000CE0101960E943226B601CE0101960E94E8
:1019E000C71A082FCE0101960E94F81B011118C0DA
:1019F0001F5FE3CFB601CE0101960E94061CBE0117
:101A00006F5F7F4FC7010E94810C182FCE01019696
:101A10000E94F81B111106C08FEF05C080E003C0C3
:101A2000812F01C08EEF26960FB6F894DEBF0FBE51
:101A3000CDBFDF91CF911F910F91FF90EF90DF907D
:101A4000CF900895EF92FF920F931F93CF93DF9360
:101A50001F92CDB7DEB77C01FC0100811181C80166
:101A600069830E94EA366981681719F0C8010E94EB
:101A7000F236C7010F90DF91CF911F910F91FF9028
:101A8000EF900895CF93DF9300D0CDB7DEB7FC0180
:101A9000658F8EE090E09A838983CE0101960E9443
:101AA000220D0F900F90DF91CF9108950F931F9308
:101AB000CF93DF93CDB7DEB72A970FB6F894DEBF8A
:101AC0000FBECDBF0BE31EE020E030E0AE014F5F64
:101AD0005F4F66EE72E00E948B268823A1F06DE3D3
:101AE00071E0CE0101960E9426356EE571E080E03E
:101AF00090E00E9426350E94C6346AE070E00E94A1
:101B00005438CB0102C080E090E02A960FB6F894DA
:101B1000DEBF0FBECDBFDF91CF911F910F91089512
:101B20000F931F93CF93DF9300D0CDB7DEB78C0117
:101B3000DC01D9968D919C91DA97DC01ED91FC91B5
:101B40000680F781E02D69837A83099569817A811E
:101B5000FB0101900020E9F73197E61BF70B38975E
:101B600010F5F80117A6FB0101900020E9F7319765
:101B7000E61BF70BD801D096EC93C801C1960E94E2
:101B8000A33A0E94841DF80166837783808791873A
:101B900087A5E80FF11D81A9D8011B968C931B978F
:101BA00081E01A968C930F900F90DF91CF911F9147
:101BB0000F9108958F929F92AF92BF92CF92DF9232
:101BC000EF92FF92C62E0E94841D4B015C0184E6B9
:101BD000C89E600111240D2C000CEE08FF080E9425
:101BE000841DDC01CB0188199909AA09BB098C1550
:101BF0009D05AE05BF0598F3FF90EF90DF90CF9065
:101C0000BF90AF909F908F900895EF92FF920F93A7
:101C10001F93CF93DF9300D000D000D0CDB7DEB7B5
:101C20007B01122FBA01C7010E948D1A8823A9F0E7
:101C3000202F30E0412F50E0B701CE0101960E94E5
:101C4000351CBE016F5F7F4FC7010E94BF1BCE01D5
:101C500001960E94F81B81E001C080E026960FB635
:101C6000F894DEBF0FBECDBFDF91CF911F910F91D2
:101C7000FF90EF9008958F929F92AF92BF92CF9274
:101C8000DF92EF92FF920F93CF93DF93CDB7DEB742
:101C90002C970FB6F894DEBF0FBECDBF5C016B0171
:101CA000FB01048101506DE371E0CE0107960E94B3
:101CB000201CF60184819581892B69F080809180B8
:101CC0006F817885C4010E94C73A009721F07C019A
:101CD000E818F90803C0EE24EA94FE2C61E571E0EF
:101CE000CE0101960E94201C21E02E0DAE014F5F17
:101CF0005F4FB601C5010E94050E082FCE01019667
:101D00000E94F81BCE0107960E94F81B802F2C968C
:101D10000FB6F894DEBF0FBECDBFDF91CF910F910C
:101D2000FF90EF90DF90CF90BF90AF909F908F90FB
:101D30000895CF92DF92EF92FF920F93CF93DF93AC
:101D400000D000D000D0CDB7DEB76C017B01FB0125
:101D50000481035067E571E0CE0101960E94201CCA
:101D600025E0AE014F5F5F4FB701C6010E94050E2F
:101D7000082FCE0101960E94F81B802F26960FB6E1
:101D8000F894DEBF0FBECDBFDF91CF910F91FF90D2
:101D9000EF90DF90CF900895CF93DF93EC018E8981
:101DA000811112C061E084E00E94181D81E08E8BD9
:101DB0000E94841D698F7A8F8B8F9C8F61E0CE018A
:101DC000DF91CF910C94DA0D0E94841D698F7A8F78
:101DD0008B8F9C8FDF91CF910895EF92FF920F939D
:101DE0001F93CF93DF9300D000D000D0CDB7DEB7E4
:101DF0008C017B016EE571E00E94201CD701D99611
:101E00008D919C91DA97DC01ED91FC910084F18534
:101E1000E02D099518161906ACF4C7010E94CC0EE6
:101E2000F70161AD72ADCE0101967C010E946E2674
:101E30000E151F0521F0B701C8010E94BF1BC70185
:101E40000E94F81BC80126960FB6F894DEBF0FBE9D
:101E5000CDBFDF91CF911F910F91FF90EF9008952B
:101E6000FF920F931F93CF93DF938C01EB01F42E1E
:101E70000E94CC0E2097C9F0FE0164912196662342
:101E800031F0F80181AD92AD0E947B1CF5CFFF20AF
:101E900061F06CE571E0F80181AD92ADDF91CF9119
:101EA0001F910F91FF900C94821CDF91CF911F9195
:101EB0000F91FF900895CF93DF93EC0189AD9AAD18
:101EC000DC01ED91FC910680F781E02D099541E060
:101ED0006BED72E0CE010E94300F89AD9AADDC014E
:101EE000ED91FC910680F781E02DDF91CF9109946F
:101EF000EF92FF921F93CF93DF931F92CDB7DEB780
:101F00007C01162FDC01D9968D919C91DA97DC012A
:101F1000ED91FC910680F781E02D49830995C70179
:101F20000E945B0F0E94841DF70166837783808780
:101F3000918781E082874981442329F080AB17A6ED
:101F400011AB12AA10A7D7011B961C930F90DF911B
:101F5000CF911F91FF90EF900895FC01258D2934BA
:101F600019F441E00C94780F0895CF92DF92FF921C
:101F70000F931F93CF93DF93CDB7DEB762970FB662
:101F8000F894DEBF0FBECDBF8C0181E0D8011C9656
:101F90008C93C8010E94CC0EF80181AD92ADDC019A
:101FA000ED91FC910680F781E02D09956FE571E0D8
:101FB000CE0107960E94201CF801F1A0C080D180BC
:101FC000FF2051F16EE571E0CE010D960E94201CBC
:101FD000D6018C91F816B0F4BBE0FB9EA001112451
:101FE000405D5E4FB601CE0101960E943226BE01D1
:101FF0006F5F7F4FCE010D960E94BF1BCE010196F1
:102000000E94F81BBE01635F7F4FCE0107960E94BE
:10201000791BCE010D960EC0B601CE0101960E942D
:10202000100CBE016F5F7F4FCE0107960E94791B97
:10203000CE0101960E94F81B6BE3CE0107960E9429
:10204000571BBE01695F7F4FCE0101960E94061C9F
:10205000BE016F5F7F4FC8010E94B425CE0101967B
:102060000E94F81B61E0C8010E94DA0D41E06AEDB0
:1020700072E0C8010E94300F0E94841DF801608B3D
:10208000718B828B938B82E5858F8FE4868FCE0157
:1020900007960E94F81B62960FB6F894DEBF0FBE3B
:1020A000CDBFDF91CF911F910F91FF90DF90CF9027
:1020B00008950F931F93CF93DF93EC01E881F9818B
:1020C0008081811102C011E034C0858D8E34D9F336
:1020D0008BAD8823C1F38AA1811103C098A59617FF
:1020E00091F39D8D9E3421F59E8D9E3409F51AA5A0
:1020F0001123F9F081111CC0062F19A285858823B0
:1021000051F00E94841D6BA37CA38DA39EA30FA3FB
:1021100081E08AA30EC068A7858D8E34A1F281E08C
:1021200089A7CE010E94CC0ECE010E94B50F01C03E
:1021300010E0812FDF91CF911F910F9108950C94A2
:10214000003C089561E081E10C94181D0F931F93EA
:10215000CF93DF93EC0141110EC08A8981110BC02E
:10216000662301F16DE28A819B81DF91CF911F91FE
:102170000F910C94AD0F022F162F198E61E08DE098
:102180000E94181D0E94841D6FA378A789A79AA793
:1021900081E08EA31A8A60E080E10E94181D1E87EC
:1021A000088B1D86DF91CF911F910F910895FC013F
:1021B000A081B1811C968C919189882321F099236B
:1021C00021F083890895892F089581E008951F9350
:1021D000CF93DF93EC01162F1C8A8B89882329F07B
:1021E000CE010E94D71081110FC08A819B811123DB
:1021F00031F06EE4DF91CF911F910C94AD0F6EE43E
:102200000E9459108FAB25C08A8981111CC0F89497
:1022100060E08DE00E94181D60E08CE00E94181DB7
:102220000E94A2100E94841D69A37AA38BA39CA381
:1022300081E08F8F8A8B61E080E10E94181D1C86EF
:102240001D861F8706C0112321F06BE28A819B81C6
:10225000D1CFDF91CF911F9108951F93CF93DF933B
:10226000EC011B89112331F00E94D710882311F053
:1022700081E00BC0CE010E94D710882321F01111FC
:1022800004C084E002C082E000C0DF91CF911F91C2
:102290000895CF93DF93FC012289211110C0EC0136
:1022A0000E94D710882359F08B89882341F081E060
:1022B0008C8B0E94841D6D8B7E8B8F8B988FDF9112
:1022C000CF9108951F93CF93DF93EC01162FE881F0
:1022D000F981838581110CC08A8981111BC08B898A
:1022E0008823C1F061E08DE00E94181D1C8A12C095
:1022F0008EA181110FC08B89882361F060E08DE091
:102300000E94181D112331F0CE01DF91CF911F9152
:102310000C944911DF91CF911F910895EF92FF9294
:102320000F931F93CF93DF937B018A01E901F89408
:102330008AE00E94EF1C31E0892B09F430E0F701BC
:1023400030838BE00E94EF1C31E0892B09F030E0F4
:10235000F801308383E00E94EF1C31E0892B09F4FF
:1023600030E038837894DF91CF911F910F91FF90E7
:10237000EF9008950F931F93CF93DF9300D01F9298
:10238000CDB7DEB78C019E012F5F3F4FAE014E5F90
:102390005F4FBE016D5F7F4F0E948E119A81F801E1
:1023A000928B992311F061E001C060E080E10E940E
:1023B000181D8A810F900F900F90DF91CF911F9180
:1023C0000F9108951F920F920FB60F9211248F93C1
:1023D0009F9391E09093CA018091E1018F5F809378
:1023E000E1018091E1018E3268F08091CC018F5F34
:1023F0008093CC018091FE01811102C09093CB01AA
:102400001092E1019F918F910F900FBE0F901F903E
:1024100018951F920F920FB60F9211240F900FBEB6
:102420000F901F9018951F920F920FB60F921124C4
:102430008F9381E080933E028F910F900FBE0F909B
:102440001F9018951F920F920FB60F9211248F9321
:1024500081E080933F028F910F900FBE0F901F90ED
:102460001895E0E6F0E098E1908380830895BF92AC
:10247000CF92DF92EF92FF920F931F93CF93DF9350
:10248000CDB7DEB768970FB6F894DEBF0FBECDBFED
:102490007C01C62ED42EB22E6093F102BC01CE0177
:1024A00043960E94061C63E174E0CE0101960E94EF
:1024B000FD1BBE016F5F7F4FC7010E948D1A182F51
:1024C000CE0101960E94F81B112319F00E940A29DF
:1024D00034C66AE074E0CE0101960E94FD1BBE0185
:1024E0006F5F7F4FC7010E948D1A182FCE01019692
:1024F0000E94F81B112311F1E090DD02F090DE0242
:10250000CC2019F0F701108203C081E0F70180832D
:10251000B7018CE291E00E949D1EF7011182B70184
:102520006F5F7F4F8AE190E00E949D1EF70112824B
:10253000B7016E5F7F4F86E190E0FDC562E074E019
:10254000CE0101960E94FD1BBE016F5F7F4FC70148
:102550000E948D1A182FCE0101960E94F81B11239C
:1025600009F46BC060E08091DD029091DE020E9470
:10257000FA0B68E78091DD029091DE020E94E00B89
:1025800065E58091DD029091DE020E94C40BE0912E
:10259000DD02F091DE021686BF01625F7F4F84EAA2
:1025A00090E00E949D1EE091DD02F091DE02158612
:1025B000BF01635F7F4F8AE390E00E949D1EE09120
:1025C000DD02F091DE021486BF01645F7F4F86E377
:1025D00090E00E949D1EE091DD02F091DE02148EDB
:1025E000BF01645E7F4F8CE090E00E949D1E63E41B
:1025F0008091DD029091DE020E94420DE091DD02A9
:10260000F091DE0282E390E0918F808FBF01685EDF
:102610007F4F84E090E00E946C1EE091DD02F0911B
:10262000DE0282E090E0938F828FBF01665E7F4F73
:1026300082E190E00E946C1E80C56EEF73E0CE01D7
:1026400001960E94FD1BBE016F5F7F4FC7010E9474
:102650008D1A182FCE0101960E94F81B1123E9F163
:10266000E090DD02F090DE026EE571E0CE010D96A5
:102670000E94201C10E0F70180811817F0F4FBE0A5
:102680001F9FA0011124405D5E4FB701CE0101964E
:102690000E943226BE016F5F7F4FCE010D960E94D1
:1026A000791BCE0101960E94F81B6DE571E0CE0109
:1026B0000D960E946A1B1F5FDECF6EE571E0CE01B2
:1026C0000D960E94A81A882309F44FC564EF73E0A1
:1026D000CE010D960E94801B48C56EEE73E0CE01C0
:1026E00001960E94FD1BBE016F5F7F4FC7010E94D4
:1026F0008D1A182FCE0101960E94F81B112329F084
:102700008DED92E00E949F1059C56AEE73E0CE01F4
:1027100001960E94FD1BBE016F5F7F4FC7010E94A3
:102720008D1A182FCE0101960E94F81B112319F063
:102730000E9491282FC563EE73E0CE0101960E949E
:10274000FD1BBE016F5F7F4FC7010E948D1A182FBE
:10275000CE0101960E94F81B112311F061E014C014
:102760006BED73E0CE0101960E94FD1BBE016F5F11
:102770007F4FC7010E948D1A182FCE0101960E942B
:10278000F81B112379F060E08091DD029091DE0268
:102790000E94FA0B61E08091DF029091E0020E94BA
:1027A0006211CBC465ED73E0CE0101960E94FD1B62
:1027B000BE016F5F7F4FC7010E948D1A182FCE0197
:1027C00001960E94F81B112339F0E091DD02F0918F
:1027D000DE0281E0848718C06EEC73E0CE010196C2
:1027E0000E94FD1BBE016F5F7F4FC7010E948D1AC3
:1027F000182FCE0101960E94F81B112359F0E09189
:10280000DD02F091DE021486BF01645F7F4F86E334
:1028100090E091C468EC73E0CE0101960E94FD1B2C
:10282000BE016F5F7F4FC7010E948D1A182FCE0126
:1028300001960E94F81B112339F0E091DD02F0911E
:10284000DE0281E0848F18C061EC73E0CE01019656
:102850000E94FD1BBE016F5F7F4FC7010E948D1A52
:10286000182FCE0101960E94F81B112359F0E09118
:10287000DD02F091DE02148EBF01645E7F4F8CE0BA
:1028800090E059C46CEB73E0CE0101960E94FD1BF1
:10289000BE016F5F7F4FC7010E948D1A182FCE01B6
:1028A00001960E94F81B1123E1F0F70184819581C4
:1028B000059708F483C464E070E0C7010E947C1AA5
:1028C000982F9D7F913429F0843519F08E3409F0CA
:1028D00075C4682F8091DD029091DE020E94420D46
:1028E0002CC467EB73E0CE0101960E94FD1BBE0174
:1028F0006F5F7F4FC7010E948D1A182FCE0101967E
:102900000E94F81BF7011123D9F084819581059766
:1029100008F454C464E070E0C7010E947C1A90ED92
:10292000980F8153833008F049C4E091DD02F091A3
:10293000DE029787BF01615F7F4F8CEB90E0FBC3A6
:102940000481015063EB73E0CE0101960E94FD1BF0
:1029500023E0AE014F5F5F4FB7018DED92E00E9423
:10296000050E182FCE0101960E94F81B1123A1F02D
:10297000C7010E947824882309F420C4C7010E945B
:10298000711A6936710508F419C48091DD029091BD
:10299000DE020E94E00BD1C3F701048101506EEA10
:1029A00073E0CE0101960E94FD1B24E0AE014F5F53
:1029B0005F4FB7018DED92E00E94050E182FCE01FA
:1029C00001960E94F81B1123B9F0C7010E947824D8
:1029D000882309F4F3C3C7010E94711A9B01215097
:1029E00031092136310508F0E9C38091DD0290916B
:1029F000DE020E94C40BA1C366E671E0CE0101961F
:102A00000E94201CBE016F5F7F4FC7010E948D1A7C
:102A1000082FCE0101960E94F81B002309F46FC015
:102A200064E871E0CE010D960E94201C0E945B2696
:102A3000BC01CE010D960E94FC326CE671E0CE0125
:102A40000D960E946A1BE091DD02F091DE0264891E
:102A50007589CE010D960E94FC3260E771E0CE01CF
:102A60000D960E946A1BE091DD02F091DE02608902
:102A70007189CE010D960E94FC3264E771E0CE01AF
:102A80000D960E946A1BE091DD02F091DE026289E0
:102A90007389CE010D960E94FC3268E771E0CE0189
:102AA0000D960E946A1BE091DD02F091DE026789BB
:102AB000CE010D960E942C336DE771E0CE010D968C
:102AC0000E946A1BE091DD02F091DE026689CE0170
:102AD0000D960E942C33BE01635F7F4FCE0101969D
:102AE0000E94061C40E061E0CE0101960E94A822EF
:102AF000CE0101960E94F81BCE010D96D5C267EA61
:102B000073E0CE0101960E94FD1BBE016F5F7F4FF7
:102B1000C7010E948D1A082FCE0101960E94F81B52
:102B2000002309F49EC009E91EE020E030E0AE0178
:102B30004F5F5F4F60EA73E08DED92E00E948B265D
:102B4000882341F0CE0101960E94C634F82EFF0C76
:102B5000F80E02C0FF24FA9465E08DED92E00E9429
:102B6000DA0D0BE31EE020E030E0AE014F5F5F4F77
:102B700069E973E08DED92E00E948B26882351F085
:102B80006DE371E0CE0101960E9426350E94C634A5
:102B9000182F01C01FEFC090DF02D090E002C601E5
:102BA0000E942D11082FF601E28868E373E0CE0140
:102BB0000D960E94FD1BE091DD02F091DE028385FF
:102BC000811106C060E373E0CE010D960E94801B68
:102BD00062E871E0CE010D960E946A1B013029F077
:102BE000023031F060E273E005C064E173E002C0DE
:102BF00066E273E0CE010D960E94F91A69E173E076
:102C0000CE010D960E94F91AE11003C069E073E04D
:102C100002C06FE073E0CE010D960E94F91A1F3FCB
:102C200059F062E073E0CE010D960E94F91A612F0F
:102C3000CE010D960E942C33FFEFFF1659F068EF7E
:102C400072E0CE010D960E94F91A6F2DCE010D96FD
:102C50000E942C3340E061E0CE010D960E94A82234
:102C600095C264E973E0CE0101960E94FD1BBE018E
:102C70006F5F7F4FC7010E948D1A882329F0CC20F7
:102C800011F011E001C01B2DCE0101960E94F81B2E
:102C9000112359F0E091DD02F091DE028281882358
:102CA00009F48CC281E0818318C06EE873E0CE0124
:102CB00001960E94FD1BBE016F5F7F4FC7010E94FE
:102CC0008D1A182FCE0101960E94F81B112359F07E
:102CD000E091DD02F091DE021182BF016F5F7F4F54
:102CE0008AE190E028C2F7010481015068E873E0AE
:102CF000CE0101960E94FD1B25E0AE014F5F5F4FA4
:102D0000B7018DED92E00E94050E182FCE010196BD
:102D10000E94F81B1123F1F0C7010E947824882338
:102D200009F44CC2C7010E94711A8B01663071050B
:102D300010F005E010E0E091DD02F091DE02058781
:102D4000BF01635F7F4F8AE390E00E949D1E62E8AF
:102D500073E07BC0F7010481015069E773E0CE01A5
:102D600001960E94FD1B28E0AE014F5F5F4FB70147
:102D70008DED92E00E94050E182FCE0101960E9463
:102D8000F81B112329F1C7010E947824882309F434
:102D900015C2C7010E94711A8B016230710530F0B3
:102DA000613B744028F000EB14E002C002E010E048
:102DB000E091DD02F091DE02138F028FBF01665EAB
:102DC0007F4F82E190E00E946C1E60E773E03DC09F
:102DD000F7010481015067E673E0CE0101960E947D
:102DE000FD1B28E0AE014F5F5F4FB7018DED92E014
:102DF0000E94050E182FCE0101960E94F81B112388
:102E000071F1C7010E947824882309F4D7C1C70152
:102E10000E94711A8B016233710530F0613870477E
:102E200028F000E810E702C002E310E0E091DD02C4
:102E3000F091DE02118F008FBF01685E7F4F84E04A
:102E400090E00E946C1E6EE573E0CE0143960E94F6
:102E5000801BB801CE0143960E94FC326EC1F7017F
:102E6000048101506AE573E0CE0101960E94FD1BCA
:102E700023E0AE014F5F5F4FB7018DED92E00E94FE
:102E8000050E182FCE0101960E94F81B112319F18F
:102E90006EE473E0CE010D960E94FD1BB701CE01DA
:102EA0000D960E94791B6FE471E0CE010D960E9491
:102EB0006A1B81E08093F202BE01635F7F4FCE0107
:102EC00001960E94061CBE016F5F7F4F8DED92E060
:102ED0000E94B42557C167E871E0CE0101960E94B7
:102EE000201C0CE022E0AE014F5F5F4FB7018DED7B
:102EF00092E00E94050E182FCE0101960E94F81B49
:102F0000112309F447C0C7010E947824882309F4DB
:102F100055C10091DD021091DE02F80180818230FE
:102F200008F44CC1B701C8010E94B20CC82E8FEF43
:102F30008C0D8D3F08F042C18BE0B82E2C2D30E077
:102F4000F8019081492F50E041505109241735076D
:102F5000F4F42F5F3F4FB29E7001B39EF00C11242A
:102F6000A701405D5E4FB801CE0101960E94322656
:102F7000B7016B5D7E4FAE014F5F5F4FC8010E948E
:102F8000AB32CE0101960E94F81BC394D7CF91506B
:102F9000908348C06BE871E0CE0101960E94201C2E
:102FA0000CE022E0AE014F5F5F4FB7018DED92E084
:102FB0000E94050E182FCE0101960E94F81B1123C6
:102FC000A9F1C7010E947824882309F4F7C0009171
:102FD000DD021091DE02F80180818F3009F4EEC02D
:102FE000B701C8010E94B20C8F3F09F0E7C0B701DA
:102FF000CE0101960E94061CF8016081FBE06F9FE4
:10300000B0011124605D7E4FAE014F5F5F4FC8017C
:103010000E94AB32CE0101960E94F81BF80180811C
:103020008F5F8083B8018CE291E085C06AE871E02F
:10303000CE0101960E94201C0DE023E0AE014F5FFF
:103040005F4FB7018DED92E00E94050E182FCE0163
:1030500001960E94F81B112351F1C7010E947824A8
:10306000882309F4ABC00091DD021091DE02F80163
:103070008081882309F4A2C081E08283B8016E5F59
:103080007F4F86E190E00E949D1EB701CE01019620
:103090000E94061CAE014F5F5F4F6EE170E0C801F9
:1030A0000E94AB32CE0101960E94F81B46C06EE82A
:1030B00071E0CE0101960E94201C0DE023E0AE01DC
:1030C0004F5F5F4FB7018DED92E00E94050E182F04
:1030D000CE0101960E94F81B112309F46FC0C701AD
:1030E0000E947824882309F469C00091DD021091C0
:1030F000DE0281E0F8018383B8016D5F7F4F88E5D0
:1031000090E00E949D1EB701CE0101960E94061C10
:10311000AE014F5F5F4F60E670E0C8010E94AB32C6
:10312000CE0101960E94F81BF8011482B8016C5F71
:103130007F4F8CE590E00E949D1E11E0D1102AC0C7
:1031400068E473E0CE010D960E94FD1B111106C0CC
:103150006FE373E0CE010D960E94801BBE016D5E91
:103160007F4FCE010D960E94791BBE01635F7F4F9A
:10317000CE0101960E94061C40E061E0CE0101965E
:103180000E94A822CE0101960E94F81BCE010D9646
:103190000E94F81BCE0143960E94F81B68960FB65A
:1031A000F894DEBF0FBECDBFDF91CF911F910F917D
:1031B000FF90EF90DF90CF90BF90089510E0BECFCA
:1031C0000895CF92DF92EF92FF920F931F93CF93C8
:1031D000DF936C017A018B01C0E0D0E0CE15DF05F2
:1031E00089F0D8016D918D01D601ED91FC9101908E
:1031F000F081E02DC6010995892B11F47E0102C0F2
:103200002196ECCFC701DF91CF911F910F91FF90D5
:10321000EF90DF90CF900895089580E090E00895BA
:10322000FC01538D448D252F30E0842F90E0821BCC
:10323000930B541710F0CF96089501970895FC0151
:10324000918D828D981761F0828DDF01A80FB11DDD
:103250005D968C91928D9F5F9F73928F90E0089501
:103260008FEF9FEF0895FC01918D828D981731F0BB
:10327000828DE80FF11D858D90E008958FEF9FEF0F
:103280000895FC01918D228D892F90E0805C9F4FE5
:10329000821B91098F739927089580E492E00E9420
:1032A000411921E0892B09F420E0822F0895FC01C7
:1032B000848DDF01A80FB11DA35ABF4F2C91848DBF
:1032C00090E001968F739927848FA689B7892C93F4
:1032D000A089B1898C9180648C93938D848D98138F
:1032E00006C00288F389E02D80818F7D8083089558
:1032F000EF92FF920F931F93CF93DF93EC0181E046
:10330000888F9B8D8C8D981305C0E889F989808101
:1033100085FD24C0F62E0B8D10E00F5F1F4F0F733D
:103320001127E02E8C8DE8120CC00FB607FCFACFE7
:10333000E889F989808185FFF5CFCE010E94571970
:10334000F1CF8B8DFE01E80FF11DE35AFF4FF082A4
:103350000B8FEA89FB898081806207C0EE89FF8933
:103360006083E889F98980818064808381E090E0CE
:10337000DF91CF911F910F91FF90EF900895CF9320
:10338000DF93EC01888D8823C9F0EA89FB8980816D
:1033900085FD05C0A889B9898C9186FD0FC00FB63F
:1033A00007FCF5CF808185FFF2CFA889B9898C9180
:1033B00085FFEDCFCE010E945719E7CFDF91CF9166
:1033C000089580E090E0892B29F00E944D19811129
:1033D0000C9400000895833081F028F4813099F036
:1033E0008230A1F008958730A9F08830B9F0843098
:1033F000D1F4809180008F7D03C0809180008F7711
:1034000080938000089584B58F7702C084B58F7D46
:1034100084BD08958091B0008F7703C08091B00083
:103420008F7D8093B000089508950E94793ACF93DC
:10343000DF93EC0188819981009711F00E94173980
:10344000198218821D821C821B821A82DF91CF9101
:1034500008950F931F93CF93DF93EC018881998197
:10346000009729F02A813B812617370788F48B01C2
:103470006F5F7F4F0E94AF39009761F09983888317
:103480001B830A832C813D81232B11F4FC011082C4
:1034900081E001C080E0DF91CF911F910F910895ED
:1034A000EF92FF920F931F93CF93DF93EC017B0179
:1034B0008A01BA010E94291A811104C0CE010E941A
:1034C000171A07C01D830C83B701888199810E9458
:1034D000A33ACE01DF91CF911F910F91FF90EF9012
:1034E0000895FC0180819181009711F00C94E434DF
:1034F00060E070E0CB010895FC0124813581621702
:10350000730748F480819181009729F0FC01E60F50
:10351000F71F8081089580E00895FB014481558163
:10352000FC01248135812417350778F08081918151
:10353000009759F0FB01608171816115710529F0D7
:103540000E94AA3A21E0892B09F020E0822F0895F9
:10355000FC0124813581232B31F421E061157105B3
:10356000A1F0FB0108C0FC0180819181611571050A
:1035700031F421E0FC018081882339F005C00E94EC
:103580009A3A21E0892B09F020E0822F0895FC016E
:1035900024813581FB01448155812417350721F5AC
:1035A000FC0180819181FB0160817181009719F09C
:1035B00061157105A1F46115710549F0232BB1F076
:1035C000FB01808190E09195819591090AC0009757
:1035D00069F0232B59F0FC01808190E002C00E9429
:1035E0009A3A21E0892B19F020E001C021E0822FD6
:1035F0000895EF92FF920F931F93CF93DF9361157E
:10360000710511F480E01EC08B01EC01CB010E941A
:103610001D350097B1F02C813D817C01E20EF31E37
:10362000B701CE010E94291A882361F328813981CC
:103630008C819D81B801820F931F0E941635FD82F7
:10364000EC8281E0DF91CF911F910F91FF90EF907D
:103650000895EF92FF920F931F93CF93DF93FC0196
:10366000248135816115710511F480E019C041157F
:103670005105A9F07B01EC018A01020F131FB8016B
:103680000E94291A882389F3288139818C819D81A0
:10369000B701820F931F0E94A33A1D830C8381E020
:1036A000DF91CF911F910F91FF90EF900895CF93ED
:1036B000DF9300D0CDB7DEB769831A8241E050E0D6
:1036C000BE016F5F7F4F0E94291B0F900F90DF910B
:1036D000CF9108956115710551F0FB010190002013
:1036E000E9F73197AF01461B570B0C94291B80E07B
:1036F0000895FB0144815581608171810C94291BDF
:10370000EF92FF920F931F93CF93DF93EC018B0106
:103710006115710551F0CB010E941D357C01BC0182
:10372000CE010E94291A811104C0CE010E94171AED
:1037300007C0FD82EC82B801888199810E9416350C
:10374000CE01DF91CF911F910F91FF90EF900895DF
:10375000CF93DF93EC016115710559F0FB010190E6
:103760000020E9F73197AF01461B570B0E94501A12
:1037700002C00E94171ACE01DF91CF9108950F93D6
:103780001F93CF93DF938C01EB01FC01808191812A
:103790000097B1F0688179816115710579F04281F6
:1037A00053812C813D814217530740F00E94A33A78
:1037B0008C819D81F8019583848313C00E94173901
:1037C00088819981F801918380838A819B81938389
:1037D00082838C819D8195838483198218821B82C8
:1037E0001A821D821C82DF91CF911F910F91089543
:1037F000FC01808191810C941739FC0111821082A7
:1038000013821282158214820C94801BFB01DC014E
:1038100011961C921E9213961C921E921297159648
:103820001C921E9214978617970749F06081718148
:103830006115710521F0448155810C94501A089549
:10384000FC0111821082138212821582148261158A
:10385000710551F0FB0101900020E9F73197AF01AC
:10386000461B570B0C94501A0895BF92CF92DF92CB
:10387000EF92FF920F931F93CF93DF937C016B0125
:103880008A01E9012417350720F4812F8901C42F0B
:10389000D82F6EE571E0C7010E94201CD601149656
:1038A0008D919C91159708171907D0F48C179D07D7
:1038B00008F4EC01D601ED91FC911197EC0FFD1F7E
:1038C000B08010824D915C91BA01600F711FC701E9
:1038D0000E94A81BD601ED91FC91EC0FFD1FB08258
:1038E000C701DF91CF911F910F91FF90EF90DF9073
:1038F000CF90BF900895DC01ED91FC910190F08193
:10390000E02D09946115710579F0FB01019000200B
:10391000E9F73197AF01461B570BDC01ED91FC91A4
:103920000280F381E02D099480E090E008951F92D9
:103930000F920FB60F9211242F933F934F935F93E3
:103940006F937F938F939F93AF93BF93EF93FF9367
:1039500080E492E00E945719FF91EF91BF91AF91DF
:103960009F918F917F916F915F914F913F912F9197
:103970000F900FBE0F901F9018951F920F920FB6C9
:103980000F9211242F938F939F93EF93FF93E091C6
:103990005002F09151028081E0915602F09157025D
:1039A00082FD12C09081809159028F5F8F732091A8
:1039B0005A02821751F0E0915902F0E0E05CFD4FAD
:1039C000958F8093590201C08081FF91EF919F9163
:1039D0008F912F910F900FBE0F901F901895CF933E
:1039E000DF93282F30E0F901E25AFB4F8491F9016F
:1039F000E65BFB4FD491F901EA5CFB4FC491CC2309
:103A000091F081110E94EB19EC2FF0E0EE0FFF1FF7
:103A1000E45DFB4FA591B491EC91ED2381E090E042
:103A200021F480E002C080E090E0DF91CF91089522
:103A30001F93CF93DF93282F30E0F901E25AFB4F19
:103A40008491F901E65BFB4FD491F901EA5CFB4FED
:103A5000C491CC23C9F0162F81110E94EB19EC2FD1
:103A6000F0E0EE0FFF1FEE5DFB4FA591B4918FB715
:103A7000F894111105C09C91ED2FE095E92302C047
:103A8000EC91ED2BEC938FBFDF91CF911F910895B7
:103A9000CF93DF9390E0FC01E65BFB4F2491FC01A8
:103AA000EA5CFB4F8491882361F190E0880F991FB5
:103AB000FC01E85EFB4FC591D491FC01EE5DFB4F2C
:103AC000A591B491611109C09FB7F89488812095A0
:103AD00082238883EC912E230BC0623061F49FB760
:103AE000F8943881822F809583238883EC912E2B44
:103AF0002C939FBF06C08FB7F894E8812E2B2883A4
:103B00008FBFDF91CF9108952FB7F8946091E701AF
:103B10007091E8018091E9019091EA012FBF089529
:103B20000F931F93CF93DF93EC010E94841D68874E
:103B300079878A879B87E881F9810284F385E02D64
:103B4000CE01099597FF17C00E94841D088519852D
:103B50002A853B85DC01CB01801B910BA20BB30BAB
:103B60000C811D812E813F8180179107A207B30729
:103B700010F38FEF9FEFDF91CF911F910F91089579
:103B80001F920F920FB60F9211242F933F938F9392
:103B90009F93AF93BF938091E7019091E801A0912B
:103BA000E901B091EA013091E60126E0230F2D37BB
:103BB00020F40296A11DB11D05C029E8230F03962C
:103BC000A11DB11D2093E6018093E7019093E801C8
:103BD000A093E901B093EA018091E2019091E301A1
:103BE000A091E401B091E5010196A11DB11D809362
:103BF000E2019093E301A093E401B093E501BF914A
:103C0000AF919F918F913F912F910F900FBE0F9089
:103C10001F9018951F920F920FB60F9211242F9399
:103C20003F934F935F936F937F938F939F93AF9344
:103C3000BF93EF93FF93E0910201F0910301099587
:103C4000FF91EF91BF91AF919F918F917F916F9174
:103C50005F914F913F912F910F900FBE0F901F904A
:103C600018951F920F920FB60F9211242F933F9326
:103C70004F935F936F937F938F939F93AF93BF9374
:103C8000EF93FF93E0910001F09101010995FF91FD
:103C9000EF91BF91AF919F918F917F916F915F91C4
:103CA0004F913F912F910F900FBE0F901F9018953D
:103CB0000F931F93CF93DF938C01EB010E94EA36A1
:103CC0008883C80101960E94EA368983CE01DF917C
:103CD000CF911F910F910895EF92FF920F931F9331
:103CE000CF93DF9300D0CDB7DEB78C017B01FB0112
:103CF00060819A838983CE0101960E94220DF7018B
:103D000061810F5F1F4F1A830983CE0101960E94C4
:103D1000220DC7010F900F90DF91CF911F910F914E
:103D2000FF90EF900895CF93DF93EB010E94EA3666
:103D30008883CE01DF91CF9108950F931F93CF9386
:103D4000DF9300D0CDB7DEB78B01FB0160819A8392
:103D50008983CE0101960E94220DC8010F900F9019
:103D6000DF91CF911F910F9108950F931F93CF93E0
:103D7000DF9300D000D000D0CDB7DEB7FC01828148
:103D80008823B9F08B01BF014EE150E0CE010196CE
:103D90000E943226BE016F5F7F4FC8010E94C71A82
:103DA00011E0811101C010E0CE0101960E94F81BC4
:103DB00001C010E0812F26960FB6F894DEBF0FBE2B
:103DC000CDBFDF91CF911F910F910895CF92DF92D8
:103DD000EF92FF920F931F93CF93DF936C01EB0150
:103DE000042F0E94EA36888311E08823C9F0101757
:103DF00088F4E12EF12CC7018C0D9D1D811524E066
:103E0000920740F40E94EA36FE01EE0DFF1D80830A
:103E10001F5FEBCF112321F0C10FD11D2197188215
:103E200081E0DF91CF911F910F91FF90EF90DF9094
:103E3000CF9008952F923F924F925F926F927F9210
:103E40008F929F92AF92BF92CF92DF92EF92FF92AA
:103E50000F931F93CF93DF93CDB7DEB728970FB69D
:103E6000F894DEBF0FBECDBF60E070E00E947C1A08
:103E7000813351F40E94A52561E08091DF02909189
:103E8000E0020E94E710F9C1823361F40E94A52587
:103E900020E040E061E08091DF029091E0020E942A
:103EA000A610EBC1833371F50E94A5250091DF02B6
:103EB0001091E002C8010E942D11843011F48CE4AD
:103EC0000EC0823011F481E40AC0813049F4C80187
:103ED0000E94BA11882311F08BE201C08FE589831B
:103EE000D801ED91FC918385882311F089E201C00E
:103EF0008BE58A831B82BE016F5F7F4FF801828151
:103F00009381D6C0803309F043C08091EA028823B0
:103F1000D9F10091DF021091E002D80152968C9104
:103F20005297882309F49CC15F968C915F97811109
:103F300097C190968C919097811192C196968C9191
:103F400081118EC1C8010E94D710882309F488C14D
:103F50000E945B266C01D801ED90FC90C29708F09E
:103F60000DC1F7011686B701625F7F4F84EA90E0CA
:103F70000E949D1E69E5D80112968D919C91139720
:103F80000E94AD0F0E94A52581E08093EA0275C1D1
:103F9000873309F097C00E94A5250091DF02109198
:103FA000E002D80152968C91882309F484C00E94C3
:103FB0005B263C01F801828193810E94560D4C01E1
:103FC000D801ED91FC91B784B1E0BB1649F0E2E075
:103FD000BE120DC0C12CD12CE12C20E4F22E0FC05A
:103FE000C12CD12C90E8E92E9FE3F92E08C081E77F
:103FF000C82E8DE3D82E82E3E82E80E4F82EB3019C
:1040000080E090E00E94CB352B013C01B40180E0C0
:1040100090E00E94CB359B01AC01C301B2010E942C
:104020002C3620E030E040E256E40E94B337A7018E
:1040300096010E942C366B017C0120E030E040E4C8
:1040400051E40E94C63587FF19C0F1E0BF1216C0C7
:10405000A701960160E070E080E491E40E94463799
:1040600026E933E44BE85EE30E942C369B01AC0169
:10407000C701B6010E9447376B017C0120E030E0A8
:1040800040E05FE3C701B6010E9447370E94253830
:10409000DC01CB014AE0BE016F5F7F4F0E949C357F
:1040A000BE016F5F7F4FD80112968D919C9113973F
:1040B0000E94900DE2C06DE2F801828193810E941E
:1040C000AD0FDBC08434B1F461E08091DD029091EA
:1040D000DE020E94FA0B61E08091DF029091E00223
:1040E0000E94621160E08091DF029091E0020E94E4
:1040F000E71012C0833499F460E08091DD02909162
:10410000DE020E94FA0B21E040E060E08091DF02D5
:104110009091E0020E94A6100E94DD25AEC0883377
:1041200099F40E94A52561E08091DD029091DE0264
:104130000E94FA0B61E08091DF029091E0020E9400
:10414000621141E069E215C0893309F096C00E940E
:10415000A52560E08091DD029091DE020E94FA0BBD
:1041600061E08091DF029091E0020E94621141E0E3
:104170006BE58DED92E00E94780F7FC0B60180E084
:1041800090E00E94CB352B013C01F701668970E07D
:1041900080E090E00E94CB359B01AC01C301B201ED
:1041A0000E942C3620E030E048EC52E40E94B33705
:1041B0000E9425384B015C01D70157966C9170E045
:1041C00080E090E00E94CB359B01AC01C301B201BD
:1041D0000E942C3620E030E048EC52E40E94B337D5
:1041E0000E9425382B013C016F3F734020F4E0E42E
:1041F0008E16910410F468E2BECEF701D58AC48A07
:10420000B7016C5E7F4F88EA90E00E946C1ED80177
:10421000ED91FC91938A828ABF016E5E7F4F80EBA5
:1042200090E00E946C1ED801ED91FC91518A408A69
:10423000BF01605F7F4F8CEA90E00E946C1ED80146
:10424000ED91FC9181E08687BF01625F7F4F84EA38
:1042500090E00E949D1E6BE4F8018281938190CED4
:10426000D801ED91FC911686BF01625F7F4F84EA11
:1042700090E00E949D1E69E5EFCF28960FB6F89456
:10428000DEBF0FBECDBFDF91CF911F910F91FF9089
:10429000EF90DF90CF90BF90AF909F908F907F90E6
:1042A0006F905F904F903F902F900895EF92FF9204
:1042B0000F931F93CF93DF9300D000D000D0CDB7E2
:1042C000DEB77C0162E971E0CE0101960E94201CFC
:1042D00008E027E0AE014F5F5F4FB7018DED92E040
:1042E0000E94050E182FCE0101960E94F81B812F07
:1042F00026960FB6F894DEBF0FBECDBFDF91CF91EB
:104300001F910F91FF90EF9008951092FC02109270
:10431000E9028091160390911703DC01ED91FC9165
:104320000680F781E02D099541E06EED74E08DED9A
:1043300092E00E94300F0E94841D61E08DED92E0BA
:104340000E94DA0D41E06DED74E08DED92E00E9487
:10435000300F8091160390911703DC01ED91FC91D1
:104360000680F781E02D0995109206031092EA026B
:104370008091FA028E3411F0823549F58091FB026A
:104380008F3429F58091FE02811121C08091FD02B8
:1043900081111DC0E091DD02F091DE02858D843532
:1043A000B1F48081823098F081E08093FE028093A6
:1043B000FF020E94841D60930003709301038093A9
:1043C00002039093030380910503809304031092EA
:1043D000FD028EE48093FA028093FB021092E102C8
:1043E0000E94841D609308037093090380930A035D
:1043F00090930B03109207030895FF920F931F935E
:10440000CF93DF9300D000D000D0CDB7DEB78C01C2
:1044100061ED74E0CE0101960E94FD1BBE016F5F4D
:104420007F4FC8010E948D1AF82ECE0101960E947E
:10443000F81BFF20E1F02CE030E04BE050E0B80149
:10444000CE0101960E94351C60E070E0CE0101961D
:104450000E947C1A182FCE0101960E94F81B12337D
:1044600041F0133341F0103341F0163341F08EE444
:1044700007C084E405C082E503C089E401C085E487
:1044800026960FB6F894DEBF0FBECDBFDF91CF9159
:104490001F910F91FF900895FF920F931F93CF9359
:1044A000DF9300D000D000D0CDB7DEB78C0165EC33
:1044B00074E0CE0101960E94FD1BBE016F5F7F4F2D
:1044C000C8010E94C71AF82ECE0101960E94F81B5F
:1044D000FF2011F091E02FC06FEB74E0CE01019648
:1044E0000E94FD1BBE016F5F7F4FC8010E94C71A6B
:1044F000F82ECE0101960E94F81BF110EBCF64EB71
:1045000074E0CE0101960E94FD1BBE016F5F7F4FDC
:10451000C8010E94C71AF82ECE0101960E94F81B0E
:10452000F110D8CF6AE971E0C8010E94A81A91E0A1
:10453000811101C090E0892F26960FB6F894DEBF56
:104540000FBECDBFDF91CF911F910F91FF900895C6
:10455000EF92FF920F931F93CF93DF93CDB7DEB708
:1045600062970FB6F894DEBF0FBECDBF7C01062F59
:10457000142F81E08093E902809116039091170334
:10458000DC01ED91FC910680F781E02D0995B701E2
:10459000CE010D960E94061C011126C080910503D4
:1045A0008F34B1F034F4833499F0863409F0E1C0EB
:1045B0000FC0833521F0853509F0DBC009C061EA01
:1045C00071E0CE010D960E94A81B68EA71E008C058
:1045D00061EA71E0CE010D960E94A81B6BEA71E0C2
:1045E000CE010D960E946A1B6FEA71E0CE0107961C
:1045F0000E94201C1230B1F46091DD027091DE0245
:10460000FB018381882339F040E650E0CE0101961A
:104610000E9432261AC06EE571E0CE0101960E941A
:10462000201C13C08091F102882339F069EA74E0FC
:10463000CE0107960E94F91A13C06091DD027091B5
:10464000DE02CE0101960E94100CBE016F5F7F4F0B
:10465000CE0107960E94791BCE0101960E94F81B9D
:104660006FE471E0CE0107960E946A1B80911603E9
:1046700090911703DC01ED91FC910680F781E02D0C
:104680000995BE01695F7F4FCE0101960E94061C0D
:10469000BE016F5F7F4F8DED92E00E94B425CE0189
:1046A00001960E94F81B8091160390911703DC017C
:1046B000ED91FC910680F781E02D09956AE08DED82
:1046C00092E00E94DA0DBE01635F7F4FCE0101963A
:1046D0000E94061CBE016F5F7F4F8DED92E00E942D
:1046E000B425CE0101960E94F81B8091160390918B
:1046F0001703DC01ED91FC910680F781E02D09950F
:104700006AE08DED92E00E94DA0D8091160390919F
:104710001703DC01ED91FC910680F781E02D0995EE
:104720008DED92E00E94CC0E0091160310911703BC
:104730006AE1C8010E947B1C6CE571E0C8010E941F
:10474000821C8091160390911703DC01ED91FC917E
:104750000680F781E02D09956AE08DED92E00E94D8
:10476000DA0D1092F1021092E902CE0107960E9432
:10477000F81BCE010D960E94F81B62960FB6F894B6
:10478000DEBF0FBECDBFDF91CF911F910F91FF9084
:10479000EF900895CF93DF9300D000D000D0CDB735
:1047A000DEB79091FD02911119C0E091DD02F09108
:1047B000DE02958D913491F4809305036EE571E0EE
:1047C000CE0101960E94201C40E060E0CE010196DF
:1047D0000E94A822CE0101960E94F81B26960FB6D1
:1047E000F894DEBF0FBECDBFDF91CF9108950F9338
:1047F0001F93CF93DF93CDB7DEB76E970FB6F894C4
:10480000DEBF0FBECDBF8C016EE974E0CE01019614
:104810000E94FD1BBE016F5F7F4FC8010E94C71A37
:1048200081114DC063E974E0CE0107960E94FD1B23
:10483000BE01695F7F4FC8010E94C71A811141C044
:1048400068E874E0CE010D960E94FD1BBE01635F17
:104850007F4FC8010E94C71A811135C06DE774E00F
:10486000CE0143960E94FD1BBE016D5E7F4FC801C5
:104870000E94C71A811115C062E774E0CE01499603
:104880000E94FD1BBE01675E7F4FC8010E94C71AD0
:1048900011E0811101C010E0CE0149960E94F81B81
:1048A00001C011E0CE0143960E94F81BCE010D9687
:1048B0000E94F81BCE0107960E94F81B09C080E0F9
:1048C00004C081E002C011E0F1CF11E08111F2CF0C
:1048D000CE0101960E94F81B812F6E960FB6F894B8
:1048E000DEBF0FBECDBFDF91CF911F910F91089515
:1048F000EF92FF920F931F93CF938C01FC01E48002
:10490000F580C0E06C2F70E06E157F0568F4C8017B
:104910000E947C1A282F880F330B205331092A302C
:10492000310520F4CF5FEECF81E001C080E0CF9170
:104930001F910F91FF90EF9008958F929F92AF92E9
:10494000BF92CF92DF92EF92FF921F93CF93DF93AC
:1049500000D000D000D0CDB7DEB7162F40E0BC01AC
:104960008DED92E00E94300F0E94841D4B015C018E
:10497000112339F090E6C92E9AEED92EE12CF12CB4
:1049800015C088EBC82E8BE0D82EE12CF12C0EC080
:104990008091160390911703DC01ED91FC91008446
:1049A000F185E02D09951816190674F00E94841DF2
:1049B000DC01CB0188199909AA09BB098C159D0551
:1049C000AE05BF0528F323C06DED72E0CE01019660
:1049D0000E94ED0E6CEB71E0CE0101960E94A81AC8
:1049E00081110DC06AE971E0CE0101960E94A81AFA
:1049F000811107C0CE0101960E94F81BD7CF11E0AC
:104A000001C010E0CE0101960E94F81B01C010E029
:104A1000812F26960FB6F894DEBF0FBECDBFDF9173
:104A2000CF911F91FF90EF90DF90CF90BF90AF900C
:104A30009F908F900895FC01A089B18982E08C93AA
:104A4000A485B5851C92A685B78583E38C93108ECB
:104A5000A489B58986E08C93A289B3898C91806101
:104A60008C93A289B3898C9188608C93A289B38935
:104A70008C9180688C930288F389E02D80818F7DF2
:104A8000808308958091F202811119C09091FA02F9
:104A90009E34B1F49091FB029E3491F490910703FF
:104AA000992371F09091060391110AC09091E90247
:104AB000911106C09091190381E08927089580E043
:104AC00008951F93CF93DF9300D000D000D0CDB7CF
:104AD000DEB72091E70221112EC0BC01CE01019664
:104AE0000E94061C60EC71E0CE0101960E94A81A9B
:104AF000182FCE0101960E94F81B1123E1F080913E
:104B00000D038230C0F0E0910C032E2F30E090E0D6
:104B10000197281739074CF4EF5FE0930C03F0E09E
:104B2000E352FD4F40E061A902C041E06DE48DED2C
:104B300092E00E94780F26960FB6F894DEBF0FBE63
:104B4000CDBFDF91CF911F9108958DED92E00E942E
:104B50005B0F0E94841D6093ED027093EE028093C0
:104B6000EF029093F00208950F931F93CF93DF937A
:104B7000EC018B010E94CC0E6EE571E0C8010E9431
:104B8000A81A09ACDAADC02D81110EC0E881F981F7
:104B9000D80114964D915C9115976D917C9102808E
:104BA000F381E02DCE0109956CE571E0CE01DF9136
:104BB000CF911F910F910C94821C0F931F93CF9351
:104BC000DF93CDB7DEB72C970FB6F894DEBF0FBEDC
:104BD000CDBF6AEE74E0CE0107960E94FD1B61E432
:104BE000CE0107960E94571B66EE74E0CE01079631
:104BF0000E94F91A0DED12E0D801D9968D919C9181
:104C0000DA97DC01ED91FC910680F781E02D0995A2
:104C1000BE01695F7F4FCE0101960E94061CBE0156
:104C20006F5F7F4FC8010E94B425CE0101960E949C
:104C3000F81BF80181AD92ADDC01ED91FC9106808D
:104C4000F781E02D0995CE0107960E94F81B2C965E
:104C50000FB6F894DEBF0FBECDBFDF91CF911F918D
:104C60000F9108950F931F93CF93DF93CDB7DEB7C6
:104C70002B970FB6F894DEBF0FBECDBF8C01CA01D3
:104C80004115544030F44BE0BE016F5F7F4F0E94EE
:104C9000E61EBE016F5F7F4FC8010E94201CC80145
:104CA0002B960FB6F894DEBF0FBECDBFDF91CF912C
:104CB0001F910F91089585E480937C0080917A0084
:104CC000806480937A0080917A0086FDFCCF809189
:104CD00078002091790090E0922B08950F931F9314
:104CE000CF93DF93EC018B016EE571E00E94201CF5
:104CF000C8010E94901D97FD08C08A30910529F0D7
:104D0000682FCE010E94571BF3CFCE01DF91CF91C8
:104D10001F910F9108954F925F926F927F928F92A1
:104D20009F92AF92BF92CF92DF92EF92FF920F933A
:104D30001F93CF93DF9300D000D000D0CDB7DEB764
:104D40007C014B015A0168010E94841D2B013C012A
:104D500041E0B401C7010E94300F0E94841DDC01B4
:104D6000CB0184199509A609B709803A9F40A1058E
:104D7000B10558F5D701D9968D919C91DA97DC0150
:104D8000ED91FC910084F185E02D0995892B29F3A3
:104D9000B701CE0101960E94ED0EBE016F5F7F4FFD
:104DA000C701F6010995182F882351F069817A818E
:104DB000C5010E94A33ACE0101960E94F81B06C0CD
:104DC000CE0101960E94F81BC8CF10E0812F2696D5
:104DD0000FB6F894DEBF0FBECDBFDF91CF911F910C
:104DE0000F91FF90EF90DF90CF90BF90AF909F908A
:104DF0008F907F906F905F904F9008958F929F92C9
:104E0000AF92BF92CF92DF92EF92FF921F93CF9318
:104E1000DF9300D000D000D0CDB7DEB77C01162FD5
:104E20008DED92E00E94CC0EB70180911603909117
:104E300017030E94821C0E94841D4B015C011123F8
:104E400039F090E6C92E9AEED92EE12CF12C15C03E
:104E500088EBC82E8BE0D82EE12CF12C0EC080916F
:104E6000160390911703DC01ED91FC910084F1850C
:104E7000E02D09951816190674F00E94841DDC01B6
:104E8000CB0188199909AA09BB098C159D05AE05A6
:104E9000BF0528F323C06DED72E0CE0101960E949C
:104EA000ED0E6CEB71E0CE0101960E94A81A811103
:104EB0000DC06AE971E0CE0101960E94A81A811125
:104EC00007C0CE0101960E94F81BD7CF11E001C0A8
:104ED00010E0CE0101960E94F81B01C010E0812F66
:104EE00026960FB6F894DEBF0FBECDBFDF91CF91EF
:104EF0001F91FF90EF90DF90CF90BF90AF909F9069
:104F00008F900895CF92DF92EF92FF920F931F93AD
:104F1000CF93DF93CDB7DEB72C970FB6F894DEBFF3
:104F20000FBECDBF40E06EEF74E08DED92E00E94C9
:104F3000300F0E94841D6B017C010E94841DDC01E6
:104F4000CB018C199D09AE09BF0988389341A10591
:104F5000B10508F043C08091160390911703DC015E
:104F6000ED91FC910084F185E02D0995892B29F3C1
:104F70006091160370911703CE0107960E946E266A
:104F800063EF74E0CE0101960E94FD1B0BE02AE066
:104F9000AE014F5F5F4FBE01695F7F4F8DED92E0C5
:104FA0000E94050E182FCE0101960E94F81B1123B6
:104FB00051F060E070E0CE0107960E947C1A8333C6
:104FC00039F0813331F0CE0107960E94F81BB5CF3E
:104FD00010E0CE0107960E94F81B01C010E0812F5F
:104FE0002C960FB6F894DEBF0FBECDBFDF91CF91E8
:104FF0001F910F91FF90EF90DF90CF900895CF9287
:10500000DF92EF92FF921F93CF93DF9300D000D0F7
:1050100000D0CDB7DEB77C018DED92E00E94CC0EC2
:10502000B70180911603909117030E94821C0E9481
:10503000841D6B017C010E94841DDC01CB018C1955
:105040009D09AE09BF0988389341A105B10590F5C6
:105050008091160390911703DC01ED91FC9100847F
:10506000F185E02D0995892B31F36091160370913C
:105070001703CE0101960E946E266CEB71E0CE0103
:1050800001960E94A81A81110DC06AE971E0CE0153
:1050900001960E94A81A811107C0CE0101960E94B4
:1050A000F81BC9CF11E001C010E0CE0101960E94AB
:1050B000F81B01C010E0812F26960FB6F894DEBFD2
:1050C0000FBECDBFDF91CF911F91FF90EF90DF908A
:1050D000CF900895EF92FF920F931F93CF93DF939A
:1050E00000D0CDB7DEB78C017B01FB0160819A83D4
:1050F0008983CE0101960E94220DF70161810F5F25
:105100001F4F1A830983CE0101960E94220DC70109
:105110000F900F90DF91CF911F910F91FF90EF9023
:105120000895CF92DF92EF92FF920F931F93CF9348
:10513000DF93CDB7DEB767970FB6F894DEBF0FBE2B
:10514000CDBF81E08093F1026EE275E0CE010E9654
:105150000E94FD1B4AE08E010F5F1F4FB8018EE2D7
:1051600096E00E945235F80101900020E9F731974E
:10517000AF01401B510BB801CE010E960E94291BB6
:1051800069E275E0CE010E960E94F91A6E0184E183
:10519000C80ED11C88E4E82E83E0F82EC7010E94D7
:1051A000EA36F60181936F01FFEFEF1AFF0A8CE4F4
:1051B000E81683E0F80691F76C897D898E899F89CE
:1051C0002AE0A8010E947A35F80101900020E9F751
:1051D0003197AF01401B510BB801CE010E960E94D2
:1051E000291B40E061E0CE010E960E94A822CE016C
:1051F0000E960E94F81B67960FB6F894DEBF0FBE9E
:10520000CDBFDF91CF911F910F91FF90EF90DF9075
:10521000CF9008950F931F93CF93DF93CDB7DEB751
:105220002E970FB6F894DEBF0FBECDBF05E81BE08A
:1052300020E030E0AE014F5F5F4F6BE175E08DED38
:1052400092E00E948B26811105C061E08DE095E01F
:105250000E949D242E960FB6F894DEBF0FBECDBFE0
:10526000DF91CF911F910F910895CF93DF93CDB729
:10527000DEB7E7970FB6F894DEBF0FBECDBF7894C8
:1052800084B5826084BD84B5816084BD85B582604B
:1052900085BD85B5816085BD80916E0081608093FC
:1052A0006E00109281008091810082608093810065
:1052B0008091810081608093810080918000816075
:1052C000809380008091B10084608093B1008091D0
:1052D000B00081608093B00080917A0084608093F8
:1052E0007A0080917A00826080937A0080917A00BF
:1052F0008E7F80937A0080917A00806880937A0014
:105300001092C10084B762E089E00E94481D61E00C
:1053100088E00E94481DBE016F5F7F4F80EA90E0E9
:105320000E94931E8981882311F060E001C061E032
:1053300088E00E94181D61E373E08AE390E00E9418
:10534000931E809131038F3F41F41092310361E34A
:1053500073E08AE390E00E949D1E60E373E086E3C1
:1053600090E00E94931E809130038F3F41F4109291
:10537000300360E373E086E390E00E949D1E68E2E4
:1053800073E08CE590E00E94931E809128038F3F8C
:1053900041F41092280368E273E08CE590E00E94EB
:1053A0009D1E67E273E088E590E00E94931E809165
:1053B00027038F3F41F41092270367E273E088E5EB
:1053C00090E00E949D1E6FE273E080E090E00E94FA
:1053D000931E80912F038F3F29F460E084E293E0D5
:1053E0000E94FA0B6CE373E084E090E00E94581E88
:1053F00080913C0390913D03019661F482E390E03B
:1054000090933D0380933C036CE373E084E090E071
:105410000E946C1E60E473E08CE090E00E94931E9A
:10542000809140038F3F41F41092400360E473E0A9
:105430008CE090E00E949D1E8EE090E00E94EA3693
:10544000809341038F3F29F464E584E293E00E9456
:10545000420D64E273E08CE291E00E94931E809121
:105460002403803140F01092240364E273E08CE264
:1054700091E00E949D1E66E273E086E190E00E944A
:10548000931E809126038F3F41F41092260366E21B
:1054900073E086E190E00E949D1E65E273E08AE180
:1054A00090E00E94931E809125038F3F41F410925B
:1054B000250365E273E08AE190E00E949D1E69E2A7
:1054C00073E080E293E00E94931E809129038F3F56
:1054D00041F41092290369E273E080E293E00E94B4
:1054E0009D1E6EE373E082E190E00E94581E809161
:1054F0003E0390913F03019661F482E090E0909327
:105500003F0380933E036EE373E082E190E00E94EC
:105510006C1E62E373E084EA90E00E94931E809127
:1055200032038F3F41F41092320362E373E084EA66
:1055300090E00E949D1E6AE373E084EB90E00E947D
:10554000931E80913A038F3F29F465E584E293E04E
:105550000E94C40B6BE373E088EB90E00E94931E03
:1055600080913B038F3F29F468E784E293E00E9437
:10557000E00B63E373E08CEB90E00E94931E80915C
:1055800033038F3F49F481E08093330363E373E097
:105590008CEB90E00E949D1E68E373E088EA90E047
:1055A0000E94581E64E373E08CEA90E00E94581E4B
:1055B00066E373E080EB90E00E94581E84E293E083
:1055C0009093DE028093DD028BEE91E09093E002F7
:1055D0008093DF0280E492E00E941B2580916800A6
:1055E0008160809368008091680082608093680089
:1055F00080916C00816080936C0080916C0082606F
:1056000080936C00F89480E00E94311281E60E9441
:105610003112789461E081E10E94481D61E086E0EA
:105620000E94481D61E087E00E94481D61E085E01E
:105630000E94481DFF24F3948AE0E82E6E0149E1A0
:10564000C40ED11C8091CC01823348F08091E902D4
:10565000811105C080911903882309F423C5809125
:10566000CB01882309F43FC00E9442258823D9F149
:105670008091E902811137C080911903811133C0F3
:105680000E94841D0091DD011091DE012091DF0157
:105690003091E001DC01CB01801B910BA20BB30B1D
:1056A000893E9340A105B105F0F08DED92E00E9496
:1056B000560D1C011091DC011F5F1093DC010E944C
:1056C000841D6093DD017093DE018093DF01909370
:1056D000E0015CE6251651E0350608F4B5C61092E7
:1056E000CB011092DC018091D701882319F10E942F
:1056F000841D0091D8011091D9012091DA013091D7
:10570000DB01DC01CB01801B910BA20BB30B8131C0
:105710009742A105B10570F01092D7010E94422571
:10572000882341F08DED92E00E94560D8C36914019
:1057300008F4C0C48091D60181114FC18091D50178
:1057400081111DC00E94841D60347F418105910537
:10575000B0F08DED92E00E94560D8C36914008F429
:10576000AEC461E088E00E94181DF092D501198254
:10577000BE016F5F7F4F80EA90E00E949D1E809186
:10578000D401811108C00E94841D683B7B408105C3
:10579000910508F0A1C48091D501882321F10E94D0
:1057A000841D2091CD013091CE01DC01CB01821B03
:1057B000930BA109B109853F9140A105B10598F06E
:1057C000809104018F2580930401882311F061E00A
:1057D00001C060E081E10E94181D0E94841D709349
:1057E000CE016093CD010E94841D683A7146810507
:1057F000910508F454C461E084ED90E00E949D247A
:10580000882309F472C060E088EC90E00E949D2437
:10581000882309F46AC060E08CEB90E00E949D242C
:10582000882309F462C060E080EB90E00E949D2430
:10583000882309F45AC060E08CE990E00E949D241E
:10584000882309F452C060E08FE890E00E949D2414
:1058500060E083E890E00E949D2460E08CE790E0A7
:105860000E949D24F092180360E080E790E00E947F
:105870009D248FEA482E8BE0582E612C712C9301C9
:105880008201A60168E670E08DED92E00E948B2611
:10589000882359F1E091DD02F091DE0285818111CA
:1058A00023C40E9491280091DD021091DE02F801CC
:1058B000F582B8016B5F7F4F80E293E00E949D1EEE
:1058C000F60101900020E9F73197EC19FD09E9ABE9
:1058D000BE016F5C7F4F84E293E00E949D1EA60193
:1058E00068E273E0C8010E945733BE016F5F7F4FCB
:1058F0008CE893E00E94931E1981809118038823FD
:1059000009F411C48FEF810F8E3F08F00CC466EECE
:1059100070E0C6010E94FD1B123019F461EE70E0C8
:1059200004C0133029F469ED70E0C6010E94801BA9
:10593000F092F102B601CE0101960E94061C40E0F1
:1059400061E0CE0101960E94A822CE0101960E943C
:10595000F81BC6010E94F81B1A821982BE016F5FF4
:105960007F4F8CE893E00E946A28F0923E0260E04C
:105970008BEE91E00E94621180916B0084608093B5
:105980006B0080916B00886080936B001AE1812E20
:105990001BE0912E90920301809202018091690098
:1059A000837F846080936900E99A07E7A02E0BE06B
:1059B000B02EB0920101A0920001809169008C7F0D
:1059C000816080936900E89AF092D60110920401F8
:1059D00060E081E10E94181D62C380910A0281117A
:1059E00086C080911102811182C08091FD018823BF
:1059F00009F47DC0E091EB01F091EC0186858823EC
:105A000009F475C080910B02811171C00E94841D40
:105A10000091EF011091F0012091F1013091F2011C
:105A2000DC01CB01801B910BA20BB30B843F914097
:105A3000A105B10508F45BC08091F7018823B1F09E
:105A40000E94841D00910C0210910D0220910E0203
:105A500030910F02DC01CB01801B910BA20BB30B29
:105A600081339547A105B10508F0BEC30E94841D8E
:105A70006093EF017093F0018093F1019093F20134
:105A80000E945B264091F701E091EB01F091EC015F
:105A900024893589442309F449C3220F331F281769
:105AA000390708F056C312E020E536E48091F8018A
:105AB00081138DC32BAB3AAB0E94841D8090F30100
:105AC0009090F401A090F501B090F601AB01BC01FB
:105AD000481959096A097B092BA93AA9C901A0E00B
