:100000000C9458020C94B6200C948F200C94DF139F
:100010000C9444140C9415140C9480020C948002DB
:100020000C9480020C9480020C9480020C94800248
:100030000C9480020C9480020C9480020C94800238
:100040000C9445200C9480020C94421F0C941C1FAD
:100050000C9480020C9480020C9480020C94800218
:100060000C9480020C94800241542B434349440079
:1000700041542B444445543D310D0A004154265708
:100080000D0A0041542B434C54533D310D0A00419D
:10009000542B4353434C4B3D310D0A0041542B43E9
:1000A0004E4D493D322C312C302C302C300D0A0075
:1000B00041542B434D47463D310D0A0041542B43DB
:1000C0004C43433D310D0A0041542B434C49503DB4
:1000D000310D0A004D4158434544440043455252B6
:1000E0000055504453554343004154410041542B63
:1000F000444445543D310D0A002B4350494E3A20AB
:100100004E4F542052454144590D0043616C6C20C0
:1001100052656164790D0041542B434D4744413D84
:100120002244454C20414C4C220D0A0041542B46A0
:10013000545050573D223132333435363738392216
:100140000D0A0041542B465450554E3D22726168B1
:10015000756C6E726174686F646B636C220D0A005B
:1001600041542B465450534552563D220041542B86
:100170004654504349443D310D0A002B46545053D8
:10018000495A453A20312C302C0041542B465450CA
:1001900053495A450D0A0041542B46545047455483
:1001A0000041542B53415042523D312C310D0A0035
:1001B00041504E222C220041542B53415042523D7B
:1001C000332C312C2200436F6E54797065222C221F
:1001D00047505253220D0A0041542B534150425272
:1001E0003D332C312C22004F4B203A2000524555F4
:1001F00050440050524753495A4500444300535518
:10020000500050524755504400564D52303200561F
:100210004D52303200564D4D3031002A2A2A2A4D97
:100220002B002E616D72222C302C3130302C310D90
:100230000041542B435245433D342C220041542B62
:10024000435245433D350D0037303431313936396D
:100250003539000A4E6574776F726B3A000A426155
:1002600074253A00204F46460A00204F4E0A0020CF
:100270004F4E0A004D6F746F723A00204F46460A87
:100280000020322050484153450A004155544F4FF9
:100290004646004155544F4F4E00564D4D303100AB
:1002A0004552524F52203A20004F4B203A200041F5
:1002B000542B435553443D312C220042414C0041C4
:1002C00055544F54494D45004155544F54494D459F
:1002D000005354415254494D4500535441525449DE
:1002E0004D45005354414745005354414745004153
:1002F0004D4F464600414D4F4E0041542B43424323
:100300000041542B43535100535441545553004D15
:10031000324D4F4646004D324D4F4E0052455350E0
:1003200000444E444F464600444E444F4E0042590E
:10033000504F4646004259504F4E004155544F4F82
:100340004646004155544F4F4E00444944005245E3
:10035000534554004E6F204E756D626572004E55C8
:100360004D0044454641554C5400434C4541524193
:100370004C4C00574149540041542B434357413D95
:10038000302C300D0A0049443A00000000002400DF
:1003900027002A0000000000250028002B00000094
:1003A00000002300260029000404040404040404BB
:1003B0000202020202020303030303030102040810
:1003C00010204080010204081020010204081020BF
:1003D0000000000800020100000304070000000004
:1003E0000000000041542B4346554E3D312C310D49
:1003F0000A00393538363133353937380037333834
:1004000033363232363738003733383336313432D8
:1004100031340037363938343339323031003730FF
:1004200034313139363935390037303431313936B4
:10043000393539004E4F20414E535745520D004239
:100440005553590D004E4F20434152524945520DCC
:10045000002B434C43433A20312C302C0041542B89
:100460004348555000222C320041542B5654533DE2
:1004700022002B53415042523A20312C0041542B40
:1004800053415042523D302C310D0A0041542B4310
:100490004F50533D320D0A00415426570D0A00417A
:1004A000542B4353434C4B3D300D0A00F7349834E2
:1004B00011241FBECFEFD8E0DEBFCDBF12E0A0E019
:1004C000B1E0EAECF3E702C005900D92A430B10769
:1004D000D9F723E0A4E0B2E001C01D92A438B2072E
:1004E000E1F712E0C7E5D2E004C02197FE010E94C7
:1004F0007736C635D107C9F70E94332A0C94D8390C
:100500000C94D5134F925F926F927F928F929F922D
:10051000AF92BF92CF92DF92EF92FF920F931F9311
:10052000CF93DF93CDB7DEB7A5970FB6F894DEBFB4
:100530000FBECDBF809159038823B1F00E940920DE
:1005400000915A0310915B0320915C0330915D038D
:10055000DC01CB01801B910BA20BB30B813D9740BB
:10056000A105B10508F02BC680913603882371F1EF
:100570000E9409200091390310913A0320913B0316
:1005800030913C03AB01BC01401B510B620B730B60
:100590002091370330913803E4E6E29FC001E39FE6
:1005A000900D1124A0E0B0E0481759076A077B07B7
:1005B00068F0E0912203F091230383A9811106C022
:1005C00060E084E00E949D1F1092360380913D03FD
:1005D0008E3409F058C080913E038E3409F0C7C0B4
:1005E00080915103811116C00E940920009152038D
:1005F000109153032091540330915503DC01CB013A
:10060000801B910BA20BB30B893E9340A105B10552
:1006100008F0D8C580914803811107C08091440338
:10062000882309F4A4C011E005C0E0912003F091F3
:100630002103128980915103882309F498C0809185
:100640004103813009F4C2C50E940920C0904903CA
:10065000D0904A03E0904B03F0904C039B01AC0117
:100660002C193D094E095F0969017A01212F30E0FB
:10067000A0E6BAEE0E94C9396C157D058E059F056E
:1006800008F4A4C574C0893419F0823509F06FC02C
:100690000E94092000913003109131032091320310
:1006A00030913303AB01BC01401B510B620B730B48
:1006B00020912E0330912F03E4E6E29FC001E39FD7
:1006C000900D1124A0E0B0E0481759076A077B0796
:1006D00040F080914E038DA30E9496278DA10E9429
:1006E0007D24809145038823F1F080914003882385
:1006F000D1F080914703811116C00E94092000911A
:100700003003109131032091320330913303DC0127
:10071000CB01801B910BA20BB30B813D9740A10530
:10072000B10508F070C580912B03882301F10E9468
:100730000920E091260300912703109128032091BE
:10074000290330912A03AB01BC01401B510B620B02
:10075000730BA4E6EA9FC0011124092E000CAA0B1A
:10076000BB0B84179507A607B70708F454C58FE499
:10077000C82E92E5B92E29E4D22E8091560390918D
:100780005703DC01ED91FC910480F581E02D099582
:100790001816190614F00C94710CCE014F960E9495
:1007A000C7240BA1015060E271E0CE0101960E94C6
:1007B000B61E26E0AE014F5F5F4FBE01615E7F4F08
:1007C00080E293E00E949F0F182FCE0101960E94B5
:1007D0009F1E112321F08091350381117EC50BA14D
:1007E000015067E271E0CE0101960E94B61E2CE036
:1007F000AE014F5F5F4FBE01615E7F4F80E293E0CD
:100800000E949F0FE82ECE0101960E949F1EEE20AF
:1008100071F1BE01615E7F4FCE010D960E94AD1E4B
:100820006EE271E0CE0107960E94B61EBE01635FC4
:100830007F4FCE0107960E94091EBE01695F7F4F60
:10084000CE0101960E94AD1E41E0BE016F5F7F4F59
:1008500080E293E00E948710CE0101960E949F1EC5
:10086000CE0107960E949F1ECE010D96BBC267E384
:1008700071E0CE0101960E94B61E02E228E1AE01AF
:100880004F5F5F4FBE01615E7F4F80E293E00E9449
:100890009F0F982ECE0101960E949F1EBE01615EA1
:1008A0007F4FCE01992009F45DC201960E94AD1ED2
:1008B000CE0101960E942F25F82ECE0101960E94AE
:1008C0009F1EBE01615E7F4FCE0101960E94AD1E4C
:1008D000BE016F5F7F4F80912003909121030E94A2
:1008E000460EA82ECE0101960E949F1EF11027C031
:1008F000BE01615E7F4FCE0101960E94AD1EBE011A
:100900006F5F7F4F80912003909121030E94F70D2C
:10091000182F81110DC0A1100AC0E0912003F091A1
:10092000210311E08081882319F010E001C0192D06
:10093000CE0101960E949F1E112309F4ADC1CE0184
:1009400001960E94C724BE016F5F7F4FCE014F9674
:100950000E94661ECE0101960E949F1E0F8D18A157
:100960000115110541F4E0912003F09121038081EC
:10097000882371F03AC0D8018C918823A1F3082E06
:10098000000C990B0E948138F80181938F01F3CFFD
:10099000F1102BC06BE172E0CE0101960E94A41E03
:1009A000BE016F5F7F4FCE014F960E941A1D182F18
:1009B000CE0101960E949F1E112309F415C22BA19E
:1009C0003CA144E050E0BE01615E7F4FCE01019644
:1009D0000E94CB1EBE016F5F7F4FCE014F960E94DB
:1009E000661ECE0101960E949F1E6EE371E0CE014D
:1009F00001960E94B61EBE016F5F7F4FCE014F96DB
:100A00000E941A1D182FCE0101960E949F1E1123CD
:100A1000C1F02BA13CA141E050E0BE01615E7F4FDF
:100A2000CE0101960E94CB1EBE016F5F7F4FCE01AB
:100A30004F960E94661ECE0101960E949F1E11E0F5
:100A400001C010E0BE01615E7F4FCE01FF2009F4BE
:100A500018C149960E94AD1E81E0809334030D8D2C
:100A6000015062E072E0CE0101960E94A41E26E0D1
:100A7000AE014F5F5F4FBE01675E7F4F80E293E044
:100A80000E949F0FF82ECE0101960E949F1EFF200C
:100A900009F4B0C080913D038E3411F40E94962772
:100AA000111110C06EEF71E0CE0101960E94A41EDC
:100AB00040E061E0CE0101960E944A23CE010196FA
:100AC0000E949F1E898C9A8C8114910429F40E94A3
:100AD0003B29811174C40DC0D4018C918823B9F3D2
:100AE000082E000C990B0E947938F40181934F0174
:100AF000F3CF60E471E0CE010D960E94B61E68ED62
:100B000071E0CE0107960E94A41E66EC71E0CE0152
:100B100007960E94861DBE01695F7F4FCE01019638
:100B20000E94AD1ECE0101960E94C329082FCE015E
:100B300001960E949F1E011102C000E042C067EBB7
:100B400071E0CE0107960E94101E60EB71E0CE01AD
:100B500007960E94861DBE01635F7F4FCE010796F8
:100B60000E94091E6CE571E0CE0107960E94FA1DF5
:100B7000BE01695F7F4FCE0101960E94AD1ECE017E
:100B800001960E94C329082FCE0101960E949F1E44
:100B9000002399F261EA71E0CE0101960E94A41E41
:100BA00061E0CE0101960E94B025082FCE0101968A
:100BB0000E949F1E002309F264E180E293E00E94FC
:100BC000740FCE0107960E949F1ECE010D960E94C3
:100BD0009F1E002309F4E9C50CE0015009F4E5C5A6
:100BE00062E380E293E00E94740F0E943B29882315
:100BF000A1F3E5C30D8D015063EF71E0CE010196C5
:100C00000E94A41E27E0AE014F5F5F4FBE01675EEA
:100C10007F4F80E293E00E949F0F082FCE01019644
:100C20000E949F1E0111F7C50D8D01506DEE71E000
:100C3000CE0101960E94A41E25E0AE014F5F5F4FDA
:100C4000BE01675E7F4F80E293E00E949F0FF82E07
:100C5000CE0101960E949F1EF110DFC51092340351
:100C6000CE0149960E949F1EF1106EC0BE01615ECA
:100C70007F4FCE0101960E94AD1E2A2D412F61E0CB
:100C800006C001960E94AD1E2A2D412F60E0CE01C4
:100C900001960E94DE1454C0BE01615E7F4FCE01FA
:100CA00001960E94AD1EBE016F5F7F4F80912003B1
:100CB000909121030E944D0E182FCE0101960E94A3
:100CC0009F1E112309F41DC3CE0101960E94C72463
:100CD000BE016F5F7F4FCE014F960E94661ECE0110
:100CE00001960E949F1E65E172E0CE0101960E946E
:100CF000A41EBE016F5F7F4FCE014F960E941A1D4A
:100D0000182FCE0101960E949F1E1123E9F0E09159
:100D10002003F091210381E08483BF016C5F7F4F4A
:100D20008CE590E00E9422216FE072E0CE010196F6
:100D30000E94A41E42E061E0CE0101960E944A2377
:100D4000CE0101960E949F1E67E171E0CE010196DF
:100D50000E94A41E60E0CE0101960E94B025CE0143
:100D6000019640C007960E94AD1E6BE071E0CE0177
:100D700001960E94A41EBE016F5F7F4FCE010796B1
:100D80000E94541D182FCE0101960E949F1ECE0175
:100D900007960E949F1E112321F081E08093580343
:100DA00023C0BE01615E7F4FCE0107960E94AD1E3B
:100DB00069EF70E0CE0101960E94A41EBE016F5F34
:100DC0007F4FCE0107960E94541D182FCE01019629
:100DD0000E949F1E112321F00E9496270E94372611
:100DE000CE0107960E949F1E90914F0380913D0374
:100DF000911110C18E3419F0823509F095C190918E
:100E00003E039E3419F0993409F0F1C0BE01615ED1
:100E10007F4FCE0101960E94AD1E63E671E0CE01C8
:100E200001960E94351D182FCE0101960E949F1E2B
:100E3000112309F4C8C081E080932D03B0923D03D3
:100E4000D0923E0380913F038F5F80933F038430B5
:100E500008F0B2C08130E9F46DEE70E0CE01019689
:100E60000E94A41E40E0BE016F5F7F4F80E293E0CE
:100E70000E948710CE0101960E949F1E809156030A
:100E800090915703DC01ED91FC910284F385E02DF4
:100E900009956FE571E0CE010D960E94B61ECE0158
:100EA00001960E94C724BE016F5F7F4FCE010D9651
:100EB0000E94661ECE0101960E949F1E69E671E0A7
:100EC000CE0101960E94B61E05E12BE0AE014F5FF8
:100ED0005F4FBE01635F7F4F80E293E00E949F0FF0
:100EE000182FCE0101960E949F1E1123C1F20E946D
:100EF0000920609330037093310380933203909301
:100F0000330389899A890A9778F0CE010D960E9459
:100F10000A25882349F080913F03823028F0809190
:100F20002403882309F4B0C480912403882309F49E
:100F300040C00E9409206093300370933103809376
:100F40003203909333031092240381E08093400393
:100F50008091560390915703DC01ED91FC9102843E
:100F6000F385E02D099569EE70E0CE0101960E94AF
:100F7000A41E41E0BE016F5F7F4F80E293E00E94BC
:100F80008710CE0101960E949F1E8091560390917A
:100F90005703DC01ED91FC910284F385E02D099566
:100FA000D0923D03D0923E036DE480E293E00E9434
:100FB0000A27CE010D96FCC0809124038111FAC04E
:100FC0000E949627F7C0BE01615E7F4FCE01019659
:100FD0000E94AD1ECE0101960E94EE22182FCE0176
:100FE00001960E949F1E112309F4E4C0E9CF8934C1
:100FF00089F490913E03993469F4BE01615E7F4F9C
:10100000CE0101960E94AD1ECE0101960E94EE22F5
:10101000182FB5C08E3419F0823509F088C01091B0
:101020003E031F3409F0C6C0BE01615E7F4FCE0192
:1010300001960E94AD1ECE0101960E949F22082FAC
:10104000CE0101960E949F1E023579F40E9409206C
:101050006093300370933103809332039093330392
:1010600000933D0310933E03A5C0BE01615E7F4F18
:10107000CE0101960E94AD1ECE0101960E94EE2285
:10108000182F811113C0BE01615E7F4FCE010796FC
:101090000E94AD1ECE0107960E949F2211E085346A
:1010A00009F010E0CE0107960E949F1ECE01019626
:1010B0000E949F1E112349F080914E038DA30E9430
:1010C00096278DA10E947D2475C0BE01615E7F4F71
:1010D000CE0101960E94AD1ECE0101960E949F2274
:1010E000182FCE0101960E949F1E193409F062C08C
:1010F0000E94092060933003709331038093320380
:101100009093330310933D03C0923E0381E080939C
:1011100040038091450381114DC060914E0380E2F0
:1011200093E00E940A2746C0893409F462CF8934CB
:1011300009F040C080913E038F34E1F5BE01615E4D
:101140007F4FCE0101960E94AD1ECE0101960E94F6
:10115000EE22182F811113C0BE01615E7F4FCE01B8
:1011600007960E94AD1ECE0107960E949F2211E0B5
:10117000853409F010E0CE0107960E949F1ECE0133
:1011800001960E949F1E11111BCFCE014F960E9407
:101190007022882379F0BE01615E7F4FCE010196F7
:1011A0000E94AD1ECE0101960E946C21CE010196D7
:1011B0000E949F1ECE014F960E949F1EDECA109273
:1011C0005903D2C981E08093510324CA8091480316
:1011D000882339F080914D0380934E031092480389
:1011E0000DC080914403882349F080914D03809382
:1011F000460381E0809345031092440380E293E02C
:101200000E94B710B4CA81E08093470380914603DF
:101210000E94382788CA8091560390915703DC01B9
:10122000ED91FC910284F385E02D099561E372E074
:10123000CE0101960E94A41E40E0BE016F5F7F4F69
:1012400080E293E00E948710CE0101960E949F1ECB
:1012500062E771E0CE0101960E94B61E40E0BE0139
:101260006F5F7F4F80E293E00E948710CE0101966E
:101270000E949F1E60912C0380E293E06DA30E9468
:1012800066108091560390915703DC01ED91FC911B
:101290000190F081E02D6DA1099562E272E0CE012E
:1012A00001960E94A41E41E0BE016F5F7F4F80E265
:1012B00093E00E948710CE0101960E949F1E8091AC
:1012C000560390915703DC01ED91FC910284F38564
:1012D000E02D099510922B034ACABE01615E7F4F33
:1012E000CE0101960E94AD1E40E061E0CE01019664
:1012F0000E944A23CE0101960E949F1E1092350340
:101300006ECABE01615E7F4FCE0101960E94AD1E86
:10131000BE016F5F7F4F80912003909121030E9457
:10132000880D182FCE0101960E949F1E112309F4EB
:101330000BCDCE0101960E94C724BE016F5F7F4F87
:10134000CE014F960E94661ECE0101960E949F1EFE
:1013500069E072E0CE0101960E94A41EBE016F5F9B
:101360007F4FCE014F960E941A1D182FCE01019675
:101370000E949F1E112309F4E7CCE0912003F09115
:10138000210311E0158BBF016B5E7F4F86E490E077
:101390000E942221E0912003F0912103138BBF01D1
:1013A0006D5E7F4F8EE390E00E942221BE01615E60
:1013B0007F4FCE0101960E94AD1E40E0BCCCBE0125
:1013C000675E7F4FCE010D960E94AD1E6DE671E007
:1013D000CE0101960E94A41E61E0CE0101960E94FA
:1013E000B025082FCE0101960E949F1E002309F40C
:1013F00054C060E671E0CE0107960E94A41EBE01B3
:10140000635F7F4FCE0107960E94091E6CE571E075
:10141000CE0107960E94FA1DBE01695F7F4FCE0183
:1014200001960E94AD1E61E0CE0101960E94B0259A
:10143000082FCE0101960E949F1E002349F163E40C
:1014400071E0CE0101960E94A41E61E0CE010196DA
:101450000E94B025082FCE0101960E949F1E0023F6
:10146000B9F06CE271E0CE0101960E94A41E61E029
:10147000CE0101960E94B025082FCE0101960E9450
:101480009F1E002329F0CE0107960E949F1E05C0D3
:10149000CE0107960E949F1E00E0CE010D960E948D
:1014A0009F1E002309F481C168E471E0CE014396D8
:1014B0000E94B61E67E971E0CE010D960E94A41E3F
:1014C000BE01635F7F4FCE0107960E94AD1E6EE4A2
:1014D00071E0CE0107960E94FA1DBE016D5E7F4F3E
:1014E000CE0107960E94091E6CE571E0CE010796B9
:1014F0000E94FA1DBE01695F7F4FCE0101960E94D6
:10150000AD1E61E0CE0101960E94B025982ECE015D
:1015100001960E949F1E9920E9F0BE01635F7F4FF4
:10152000CE0107960E944F1E65E571E0CE01079639
:101530000E94FA1DBE01695F7F4FCE0101960E9495
:10154000AD1E60E0CE0101960E94B025CE0101964D
:101550000E949F1ECE0107960E949F1ECE010D96EF
:101560000E949F1ECE0143960E949F1E992009F45F
:101570001CC1E0912003F09121038285811164C098
:101580000E9409202B013C016AE871E0CE0101961E
:101590000E94A41E40E0BE016F5F7F4F80E293E097
:1015A0000E948710CE0101960E949F1E0E94092072
:1015B000DC01CB0184199509A609B709803C944D3B
:1015C000A140B10508F0F1C08091560390915703F6
:1015D000DC01ED91FC910480F581E02D0995892BCA
:1015E00029F36091560370915703CE0107960E942C
:1015F000AA240B8501506BE771E0CE0101960E9491
:10160000A41E2EE0AE014F5F5F4FBE01695F7F4FAA
:1016100080E293E00E949F0F082FCE0101960E9466
:101620009F1ECE010796002309F4BECF0E94FE1C28
:10163000AB01BC0180912003909121030E943A0FDD
:10164000CE0107960E949F1EE0912003F091210396
:1016500046805780608471846FE771E0CE014396C5
:101660000E94B61EBE016D5E7F4FCE010D960E9498
:10167000AD1E6BE871E0CE010D960E94FA1DB3011C
:10168000A201CE010D960E94B61D67E671E0CE0163
:101690000D960E94FA1D60E971E0CE0107960E9446
:1016A000B61EBE016D5E7F4FCE0107960E94091ED9
:1016B00063E971E0CE0107960E94FA1D0E9409209D
:1016C0002B013C01BE01695F7F4FCE0101960E9454
:1016D000AD1E40E0BE016F5F7F4F80E293E00E944D
:1016E0008710CE0101960E949F1E0E940920DC01F6
:1016F000CB0184199509A609B709803C944DA140F6
:10170000B10550F58091560390915703DC01ED919E
:10171000FC910480F581E02D0995892B31F36091CE
:10172000560370915703CE0101960E94AA24BE0170
:101730006F5F7F4FCE0107960E94661ECE01019615
:101740000E949F1EBE01635F7F4FCE0107960E94DD
:10175000541D882351F2E92CCE0107960E949F1E4A
:10176000CE010D960E949F1ECE0143960E949F1EA1
:10177000EE20D9F081E080933403111110C06BEF9B
:1017800071E0CE0101960E94A41E40E061E0CE010E
:1017900001960E944A23CE0101960E949F1E0E943C
:1017A00018290E94B828FE2C5BCA0E941829E091D3
:1017B0002003F091210312861982BE016F5F7F4FD3
:1017C00084E893E00E9422211A821982BE016F5F91
:1017D0007F4F84E993E00E94912801E00983BE01D4
:1017E0006F5F7F4F80E993E00E94222100933403D2
:1017F000111136CA60E671E0CE0101960E94B61E54
:1018000040E061E0CE0101960E944A23CE0101969C
:101810000E949F1E25CA01E001C002E0CE01499648
:101820000E94FE1CAB01BC0180912003909121031A
:101830000E943A0F67EE71E0CE0107960E94A41E47
:10184000BE01675E7F4FCE0107960E94091E1111EF
:1018500011C0BE01695F7F4FCE0101960E94AD1E8F
:1018600040E061E0CE0101960E944A23CE0101963C
:101870000E949F1E023011F40E94B828CE010796E4
:101880000E949F1EF92CECC9BE01635F7F4FCE0101
:1018900007960E94AD1EBE01695F7F4FCE01019683
:1018A0000E94AD1ECE0101960E942F25182F811196
:1018B0000DC0BE01695F7F4F80912003909121038D
:1018C0000E947F0E11E08F3F09F410E0CE010196D7
:1018D0000E949F1E10932403CE0107960E949F1E14
:1018E00023CBA5960FB6F894DEBF0FBECDBFDF9118
:1018F000CF911F910F91FF90EF90DF90CF90BF900D
:10190000AF909F908F907F906F905F904F900895D1
:1019100081E080937C0208950E940920E0E2F3E0D8
:1019200062AF73AF84AF95AF81E081AF0895FB01E3
:1019300084819581409770F0CB0160E070E00E9457
:10194000091D282F880F330B2053310981E02A30DD
:10195000310508F080E008956F927F928F929F92F8
:10196000AF92BF92CF92DF92EF92FF920F931F93AD
:10197000CF93DF93CDB7DEB76C013A01ADB6BEB6FB
:10198000822F90E001964DB75EB7481B590B0FB6FA
:10199000F8945EBF0FBE4DBF8DB79EB701964C0148
:1019A000611494E0790650F5FF24F394F20E31F1BE
:1019B000E1E0FE1202C0F40120C0C3010E947C39A4
:1019C000F4018083EE24E3948823C1F00E2D10E00F
:1019D000EF1478F4C801860D971D8115F4E09F0778
:1019E00040F40E947C39F401E00FF11F8083E394FE
:1019F000EBCF080D191DF80131971082B401C60113
:101A00000E94B61EC6010FB6F894BEBE0FBEADBE94
:101A1000DF91CF911F910F91FF90EF90DF90CF90CA
:101A2000BF90AF909F908F907F906F9008958F920E
:101A30009F92AF92BF92CF92DF92EF92FF920F935D
:101A40001F93CF93DF93CDB7DEB76B01ADB6BEB6B4
:101A5000FA01E480F580C70101962DB73EB7281B37
:101A6000390B0FB6F8943EBF0FBE2DBF0DB71EB792
:101A70000F5F1F4F892B99F00115110581F0E114BB
:101A8000F10411F4F8010AC0FA0160817181A70123
:101A9000C8010E94B038F801EE0DFF1D1082F80158
:101AA00001900020E9F73197E01BF10BC11424E00D
:101AB000D206D8F4FF24F394FE0EC6018F0D911DBB
:101AC0008115944090F44801C01AD10A882D801BDA
:101AD0008F1548F4C601880D991DF40161914F01DD
:101AE0000E948439F3CF81E001C080E00FB6F89402
:101AF000BEBE0FBEADBEDF91CF911F910F91FF9083
:101B0000EF90DF90CF90BF90AF909F908F9008950F
:101B10000F931F93CF93DF9300D000D000D0CDB7A9
:101B2000DEB7FC0184898823C1F08B01BF012AE064
:101B30004AE450E0CE0101960E94AC0CBE016F5FFA
:101B40007F4FC8010E94541D11E0811101C010E0B7
:101B5000CE0101960E949F1E01C010E0812F2696A3
:101B60000FB6F894DEBF0FBECDBFDF91CF911F91AE
:101B70000F910895CF93DF93EC01FB0184898823B3
:101B800039F02AE04AE450E0CE010E94AC0C05C0D6
:101B90006FE571E0CE010E94B61ECE01DF91CF91BC
:101BA0000895FC016387BC01655F7F4F80E090E092
:101BB0000C942221CF93DF93EC01FB0180818823D9
:101BC00069F08181882319F04EE150E002C040E3C2
:101BD00051E02AE0CE010E94AC0C05C068E472E03E
:101BE000CE010E94A41ECE01DF91CF910895DF9215
:101BF000EF92FF920F931F93CF93DF9300D000D00B
:101C000000D0CDB7DEB7FC012081222369F17B0132
:101C10008C012AE040E351E0BC01CE0101960E9414
:101C2000AC0CB701CE0101960E94541DD82ECE01F6
:101C300001960E949F1ED11019C0B701CE010196D6
:101C40000E94AD1EF8018081882341F0BE016F5FC4
:101C50007F4FC8010E943A21182F01C010E0CE0129
:101C600001960E949F1E03C010E001C011E0812F69
:101C700026960FB6F894DEBF0FBECDBFDF91CF9191
:101C80001F910F91FF90EF90DF900895FC0120814C
:101C900021110C943A2180E008950F931F93CF9364
:101CA000DF9300D000D000D0CDB7DEB7FC01838138
:101CB0008823C1F08B01BF012AE040E650E0CE014D
:101CC00001960E94AC0CBE016F5F7F4FC8010E945D
:101CD000541D11E0811101C010E0CE0101960E9457
:101CE0009F1E01C010E0812F26960FB6F894DEBF2C
:101CF0000FBECDBFDF91CF911F910F910895CF926D
:101D0000DF92EF92FF920F931F93CF93DF9300D058
:101D100000D000D0CDB7DEB77C016B01FC01808123
:101D2000811106C0F7018481882309F443C030C0C3
:101D3000CE0101960E94AD1EBE016F5F7F4FC701AD
:101D40000E94F70D182FCE0101960E949F1E1111BF
:101D50004BC011E0F7018081181720F7FBE01F9FAF
:101D6000A0011124405D5E4F2AE0B701CE0101962B
:101D70000E94AC0CB601CE0101960E94541D082FA2
:101D8000CE0101960E949F1E011130C01F5FE2CF5D
:101D9000B601CE0101960E94AD1EBE016F5F7F4F5E
:101DA000C7010E944D0E182FCE0101960E949F1E62
:101DB000111116C0F70185898823A1F0B601CE0163
:101DC00001960E94AD1EBE016F5F7F4FC7010E944A
:101DD000880D182FCE0101960E949F1E112311F02D
:101DE0008EEF05C08FEF03C080E001C0812F2696E3
:101DF0000FB6F894DEBF0FBECDBFDF91CF911F911C
:101E00000F91FF90EF90DF90CF900895EF92FF92A7
:101E10000F931F93CF93DF931F92CDB7DEB77C0153
:101E2000FC0100811181C80169830E947C396981AC
:101E3000681719F0C8010E948439C7010F90DF911B
:101E4000CF911F910F91FF90EF900895CF93DF9363
:101E500000D0CDB7DEB7FC01638F8EE090E09A83AF
:101E60008983CE0101960E94060F0F900F90DF919B
:101E7000CF910895EF92FF920F931F93CF93DF932B
:101E800000D0CDB7DEB721E0FC012287468357831F
:101E9000608771878C010A5F1F4F88E8E82E83E016
:101EA000F82EF80161918F01FA82E982CE01019644
:101EB0000E94060FFFEFEF1AFF0A8CE8E81683E096
:101EC000F80679F70F900F90DF91CF911F910F9146
:101ED000FF90EF900895FC01258D293421F421E035
:101EE00025830C940A2708958F929F92AF92BF92F8
:101EF000CF92DF92EF92FF92C62E0E9409204B01F3
:101F00005C0184E6C89E600111240D2C000CEE08D3
:101F1000FF080E940920DC01CB0188199909AA0950
:101F2000BB098C159D05AE05BF0598F3FF90EF909A
:101F3000DF90CF90BF90AF909F908F900895EF92D9
:101F4000FF920F931F93CF93DF9300D000D000D068
:101F5000CDB7DEB77B01122FBA01C7010E941A1D4F
:101F60008823A9F0202F30E0412F50E0B701CE01A7
:101F700001960E94CB1EBE016F5F7F4FC7010E947A
:101F8000661ECE0101960E949F1E81E001C080E086
:101F900026960FB6F894DEBF0FBECDBFDF91CF916E
:101FA0001F910F91FF90EF900895CF92DF92EF92E3
:101FB000FF920F93CF93DF9300D000D000D0CDB726
:101FC000DEB76C017B01FB010481035060EA71E024
:101FD000CE0101960E94B61E25E0AE014F5F5F4F15
:101FE000B701C6010E949F0F082FCE0101960E94E3
:101FF0009F1E802F26960FB6F894DEBF0FBECDBF72
:10200000DF91CF910F91FF90EF90DF90CF900895E7
:102010008F929F92AF92BF92CF92DF92EF92FF92F8
:102020000F93CF93DF93CDB7DEB72C970FB6F8940D
:10203000DEBF0FBECDBF5C016B01FB01048101500F
:102040006EE871E0CE0107960E94B61EF60184810B
:102050009581892B69F0808091806F817885C4019A
:102060000E94BF38009721F07C01E818F90803C0EE
:10207000EE24EA94FE2C65EA71E0CE0101960E94FE
:10208000B61E21E02E0DAE014F5F5F4FB601C501B8
:102090000E949F0F082FCE0101960E949F1ECE0125
:1020A00007960E949F1E802F2C960FB6F894DEBFD5
:1020B0000FBECDBFDF91CF910F91FF90EF90DF90DA
:1020C000CF90BF90AF909F908F900895CF93DF9364
:1020D000EC018E89811112C061E084E00E949D1F95
:1020E00081E08E8B0E940920698F7A8F8B8F9C8F65
:1020F00061E0CE01DF91CF910C94740F0E94092012
:10210000698F7A8F8B8F9C8FDF91CF910895FF928B
:102110000F931F93CF93DF93EC018B01F42E0E945A
:1021200066106FE571E0C8010E94351D0EA8DFA999
:10213000C02D811114C0F8014481558160817181E5
:10214000E881F9810280F381E02DCE01F11006C013
:10215000DF91CF911F910F91FF9009940995CE01C6
:10216000DF91CF911F910F91FF900C94111FCF928F
:10217000DF92FF920F931F93CF93DF93CDB7DEB71C
:1021800062970FB6F894DEBF0FBECDBFDC01ED91B4
:10219000FC911197238D2E3429F495962C912223AE
:1021A00009F4A8C08C01FF24F394FC01F7A60E9457
:1021B0006610D8011D96FC92C8010E946610F801B5
:1021C00086A997A9DC01ED91FC910284F385E02DAD
:1021D00009956BEA71E0CE010D960E94B61EF801DA
:1021E000C080D180D60153968C91882349F085A177
:1021F000882331F0B601CE0101960E94BA0D34C099
:10220000F801F1A0FF2059F16FE571E0CE010796CA
:102210000E94B61ED6018C91F816B8F4BBE0FB9E66
:10222000A0011124405D5E4F2AE0B601CE01019667
:102230000E94AC0CBE016F5F7F4FCE0107960E94DB
:10224000661ECE0101960E949F1EBE01695F7F4FF0
:10225000CE010D960E94091ECE0107960EC0B60152
:10226000CE0101960E94DA0DBE016F5F7F4FCE0155
:102270000D960E94091ECE0101960E949F1E6BE3DF
:10228000CE010D960E94E71DBE01635F7F4FCE0118
:1022900001960E94AD1E41E0BE016F5F7F4FC801F5
:1022A0000E948710CE0101960E949F1E61E0C80126
:1022B0000E94740F6FE571E0CE0101960E94B61E78
:1022C00041E0BE016F5F7F4FC8010E948710CE01C1
:1022D00001960E949F1E0E940920F801608B718B5D
:1022E000828B938B82E5858F8FE4868FCE010D964E
:1022F0000E949F1E62960FB6F894DEBF0FBECDBF40
:10230000DF91CF911F910F91FF90DF90CF900895B3
:102310000F931F93CF93DF93FC01A081B1818C9128
:10232000882391F15B968C915B978E3469F110ADA7
:10233000112351F180A5811103C096A5961739F19B
:10234000958D9E3419F5968D9E3401F511A91123B2
:10235000F1F081111BC084A1811118C0062FEF017B
:1023600011A252968C91882351F00E94092069A7EE
:102370007AA78BA79CA70DA781E088A708C06EA7A6
:10238000CF010E94B71003C011E001C010E0812FFF
:10239000DF91CF911F910F9108950F931F93CF93CA
:1023A000DF9300D000D000D0CDB7DEB78C01DC01C8
:1023B000D6968D919C91D797DC01ED91FC9102848A
:1023C000F385E02D09956DE372E0CE0101960E9440
:1023D000A41E41E0BE016F5F7F4FC8010E948710BD
:1023E000CE0101960E949F1EF80186A997A9DC01E3
:1023F000ED91FC910284F385E02D099526960FB6A8
:10240000F894DEBF0FBECDBFDF91CF911F910F912A
:1024100008950C94003C089561E081E10C949D1FA7
:102420000F931F93CF93DF93EC0141110EC08AA944
:1024300081110BC0662319F162E38A819B81DF91D0
:10244000CF911F910F910C946B0F022F162F19AE85
:1024500061E08DE00E949D1F0E940920FE01E95B62
:10246000FF4F6083718382839383319781E0808300
:102470001AAA60E080E10E949D1F1EA708ABDF91B1
:10248000CF911F910F910895FC01A081B1811C96FD
:102490008C9191A9882321F0992321F083A9089593
:1024A000892F089581E008951F93CF93DF93EC0166
:1024B0001BA9112331F00E944412882311F081E0FE
:1024C0000BC0CE010E944412882321F0111104C0D8
:1024D00084E002C082E000C0DF91CF911F91089597
:1024E000CF93DF93FC0122A9211110C0EC010E94BF
:1024F0004412882359F08BA9882341F081E08CABEA
:102500000E9409206DAB7EAB8FAB98AFDF91CF916E
:1025100008951F93CF93DF93EC01162FE881F98183
:10252000838581110CC08AA981111EC08BA98823C3
:10253000D9F061E08DE00E949D1F1CAA15C0FE012C
:10254000EA5BFF4F808181110FC08BA9882361F066
:1025500060E08DE00E949D1F112331F0CE01DF91DC
:10256000CF911F910C947012DF91CF911F9108951C
:10257000EF92FF920F931F93CF93DF937B018A011A
:10258000E901F8948AE00E94741F31E0892B09F474
:1025900030E0F70130838BE00E94741F31E0892B1B
:1025A00009F030E0F801308383E00E94741F31E0CD
:1025B000892B09F430E038837894DF91CF911F9113
:1025C0000F91FF90EF9008950F931F93CF93DF9398
:1025D00000D01F92CDB7DEB78C019E012F5F3F4F19
:1025E000AE014E5F5F4FBE016D5F7F4F0E94B8121C
:1025F0009A81F80192AB992311F061E001C060E08B
:1026000080E10E949D1F8A810F900F900F90DF91B3
:10261000CF911F910F910895EF92FF920F931F9307
:10262000CF93DF937B018A01E901F89486E00E9451
:10263000741F31E0892B09F430E0F701308387E023
:102640000E94741F31E0892B09F430E0F8013083D7
:1026500085E00E94741F31E0892B09F430E0388353
:102660007894DF91CF911F910F91FF90EF90089593
:10267000CF93DF9300D01F92CDB7DEB79E012F5FBF
:102680003F4FAE014E5F5F4FBE016D5F7F4F0E94B7
:102690000C138B81811108C08A81811107C0898147
:1026A000811106C083E005C080E003C081E001C065
:1026B00082E00F900F900F90DF91CF910895CF930C
:1026C000DF93F89483E10E94741FEC0182E10E9481
:1026D000741F7894CD2B21F4892B21F482E003C060
:1026E00080E001C081E0DF91CF9108951F93CF93E7
:1026F000DF93EC01162F1CAA8BA9882329F0CE01A9
:102700000E94441281110FC08A819B81112331F0F4
:102710006EE4DF91CF911F910C946B0F6EE40E94D9
:1027200088118C833EC08AA9811135C0CE010E94D8
:102730003813811106C08A819B81112379F364E5E6
:10274000E8CFCE010E945F13823049F48A819B81D9
:1027500066E51111DECF0E9488118D8B22C060E0EA
:102760008DE00E949D1F60E08CE00E949D1F0E94F2
:102770000C120E940920FE01EF5BFF4F6083718302
:102780008283938381E08FAF8AAB61E080E10E9416
:102790009D1F1FA706C0112321F061E38A819B8141
:1027A000B8CFDF91CF911F9108951F920F920FB66E
:1027B0000F9211240F900FBE0F901F9018951F922B
:1027C0000F920FB60F9211242F933F934F935F9365
:1027D0006F937F938F939F93AF93BF93EF93FF93E9
:1027E00089E00E94741F90910502891304C081E062
:1027F00080937C0209C091E0811101C090E0909328
:10280000050281E080930402FF91EF91BF91AF91A7
:102810009F918F917F916F915F914F913F912F91F8
:102820000F900FBE0F901F9018951F920F920FB62A
:102830000F9211242F933F934F935F936F937F9346
:102840008F939F93AF93BF93EF93FF930E940920C1
:1028500060937F0270938002809381029093820242
:1028600081E080937E02FF91EF91BF91AF919F91A4
:102870008F917F916F915F914F913F912F910F9029
:102880000FBE0F901F9018951F920F920FB60F92C8
:1028900011242F933F934F935F936F937F938F9365
:1028A0009F93AF93BF93CF93EF93FF93C1E0C093F8
:1028B0007D020E94092060937F02709380028093C2
:1028C000810290938202C0937E02FF91EF91CF919B
:1028D000BF91AF919F918F917F916F915F914F9138
:1028E0003F912F910F900FBE0F901F901895EF9270
:1028F000FF920F931F93CF93DF93CDB7DEB72A9745
:102900000FB6F894DEBF0FBECDBF81E080933403D5
:1029100066E873E0CE0101960E94A41E7E0187E066
:10292000E80EF11C08E413E0C8010E947C39F701AD
:1029300081937F010F5F1F4F0C34F3E01F07A1F756
:102940004F81588569857A85CE0101960E94B61D12
:1029500040E061E0CE0101960E944A23CE0101963B
:102960000E949F1E2A960FB6F894DEBF0FBECDBF01
:10297000DF91CF911F910F91FF90EF900895CF932A
:10298000DF9300D000D000D0CDB7DEB768E773E0AA
:10299000CE0101960E94A41E60E0CE0101960E9425
:1029A000B025CE0101960E949F1E26960FB6F89480
:1029B000DEBF0FBECDBFDF91CF9108955F926F92C2
:1029C0007F928F929F92AF92BF92CF92DF92EF92BF
:1029D000FF920F931F93CF93DF93CDB7DEB762972C
:1029E0000FB6F894DEBF0FBECDBF7C01C62ED42E2D
:1029F000122F60933403BC01CE010D960E94AD1ED0
:102A000063E773E0CE0101960E94A41EBE016F5FD2
:102A10007F4FC7010E941A1D082FCE0101960E9408
:102A20009F1E002319F00E94BF14F3C56AE673E0ED
:102A3000CE0101960E94A41EBE016F5F7F4FC701A9
:102A40000E941A1D082FCE0101960E949F1E00238E
:102A500011F10091200310912103CC2019F0F8010D
:102A6000108203C081E0F8018083B8018CE291E01C
:102A70000E942221F8011182B8016F5F7F4F8AE125
:102A800090E00E942221F8011282B8016E5F7F4F10
:102A900086E190E0BCC562E673E0CE0101960E943B
:102AA000A41EBE016F5F7F4FC7010E941A1D082F31
:102AB000CE0101960E949F1E002309F45DC060E0D4
:102AC00080912003909121030E94D10DE091200379
:102AD000F0912103138ABF016D5E7F4F8EE390E07A
:102AE0000E942221E0912003F0912103128ABF016C
:102AF0006E5E7F4F8AE390E00E942221E0912003E6
:102B0000F09121031486BF01645F7F4F86E390E05C
:102B10000E942221E0912003F0912103128EBF0137
:102B2000665E7F4F8CE090E00E94222163E48091FA
:102B30002003909121030E94260FE0912003F09141
:102B4000210382E390E0978B868BBF016A5E7F4F03
:102B500084E090E00E94F120E0912003F0912103B5
:102B600082E090E0918F808FBF01685E7F4F82E1AD
:102B700090E00E94F1204DC56EE573E0CE01019614
:102B80000E94A41EBE016F5F7F4FC7010E941A1DE5
:102B9000082FCE0101960E949F1E0023F1F1E090C4
:102BA0002003F09021036FE571E0CE0107960E94AB
:102BB000B61E10E0F70180811817F8F4FBE01F9FA4
:102BC000A0011124405D5E4F2AE0B701CE010196BD
:102BD0000E94AC0CBE016F5F7F4FCE0107960E9432
:102BE000091ECE0101960E949F1E6EE571E0CE0186
:102BF00007960E94FA1D1F5FDDCF6FE571E0CE01E1
:102C000007960E94351D882309F41BC564E573E00F
:102C1000CE0107960E94101E14C56EE473E0CE012B
:102C200001960E94A41EBE016F5F7F4FC7010E94E4
:102C30001A1D082FCE0101960E949F1E002329F025
:102C400080E293E00E9409122BC56AE473E0CE0192
:102C500001960E94A41EBE016F5F7F4FC7010E94B4
:102C60001A1D082FCE0101960E949F1E002319F005
:102C70000E947714FBC463E473E0CE0101960E94C6
:102C8000A41EBE016F5F7F4FC7010E941A1D082F4F
:102C9000CE0101960E949F1E002311F061E014C036
:102CA0006BE373E0CE0101960E94A41EBE016F5F2C
:102CB0007F4FC7010E941A1D082FCE0101960E9466
:102CC0009F1E002379F060E0809120039091210302
:102CD0000E94D10D61E080912203909123030E9414
:102CE000891297C465E373E0CE0101960E94A41E89
:102CF000BE016F5F7F4FC7010E941A1D082FCE01D2
:102D000001960E949F1E002339F0E0912003F0916C
:102D1000210381E0848718C06EE273E0CE01019642
:102D20000E94A41EBE016F5F7F4FC7010E941A1D43
:102D3000082FCE0101960E949F1E002359F0E091BA
:102D40002003F09121031486BF01645F7F4F86E367
:102D500090E05DC468E273E0CE0101960E94A41E7B
:102D6000BE016F5F7F4FC7010E941A1D082FCE0161
:102D700001960E949F1E002339F0E0912003F091FC
:102D8000210381E0828F18C061E273E0CE010196D9
:102D90000E94A41EBE016F5F7F4FC7010E941A1DD3
:102DA000082FCE0101960E949F1E002359F0E0914A
:102DB0002003F0912103128EBF01665E7F4F8CE0ED
:102DC00090E025C46CE173E0CE0101960E94A41E40
:102DD000BE016F5F7F4FC7010E941A1D082FCE01F1
:102DE00001960E949F1E0023E1F0F70184819581E6
:102DF000059708F455C464E070E0C7010E94091DFE
:102E0000982F9D7F913429F0843519F08E3409F084
:102E100047C4682F80912003909121030E94260FC0
:102E2000F8C366E173E0CE0101960E94A41EBE01C4
:102E30006F5F7F4FC7010E941A1D082FCE010196B8
:102E40000E949F1E002399F0E0912003F09121033E
:102E50008489882309F424C48589811121C46AE9FD
:102E600072E0CE0101960E94A41E41E00FC16FE006
:102E700073E0CE0101960E94A41EBE016F5F7F4FDA
:102E8000C7010E941A1D082FCE0101960E949F1EA5
:102E9000002339F0E0912003F0912103138ABF0150
:102EA000B2C368E073E0CE0101960E94A41EBE0189
:102EB0006F5F7F4FC7010E941A1D082FCE01019638
:102EC0000E949F1E002309F4E9C061E073E0C7017E
:102ED0000E94101E45ED5FE060E070E0C7010E94B7
:102EE0005626882339F0C7010E94FE1C162F110FA9
:102EF000160F01C01FEF65E080E293E00E94740F9F
:102F00006AEF72E0C7010E94101E48E050E160E0E5
:102F100070E0C7010E945626882309F455C06EE868
:102F200071E0CE0107960E94B61EF701848195815B
:102F30002B853C856C01C21AD30A2115310551F14C
:102F4000009741F18217930728F1C816D90620F09F
:102F50006C01F1E0CF1AD108F701608071808F8099
:102F60009884C30155245A940FEF5301AC0CBD1C37
:102F7000A816B90690F0B4010E94BF38009769F016
:102F8000AC0146195709C416D50610F0542E052F6A
:102F90000196EECF2FEF3FEF02C0252D302F40E0FE
:102FA00050E0B701CE0101960E94CB1ECE010196E2
:102FB0000E94FE1C062FCE0101960E949F1ECE018C
:102FC00007960E949F1E01C00FEFC0902203D09071
:102FD0002303C6010E945412F82EF601E2A863E909
:102FE00072E0CE0101960E94A41EE0912003F091B0
:102FF00021038385811106C06BE872E0CE01019642
:103000000E94101E62EB71E0CE0101960E94FA1D33
:10301000F1E0FF1631F022E0F21631F06BE772E0DA
:1030200005C06FE672E002C061E872E0CE01019671
:103030000E94861D64E772E0CE0101960E94861D03
:10304000E11003C064E672E002C06AE672E0CE01FD
:1030500001960E94861D0F3F59F06DE572E0CE018A
:1030600001960E94861D602FCE0101960E94CC34ED
:103070001F3F59F063E572E0CE0101960E94861D64
:10308000612FCE0101960E94CC3440E061E0CE0178
:1030900001960E944A23CE010196E6C265EF72E0D6
:1030A000CE0101960E94A41EBE016F5F7F4FC70133
:1030B0000E941A1D882321F0CC2019F011E001C0D4
:1030C00010E0CE0101960E949F1E112359F0E0915D
:1030D0002003F09121038281882309F4E1C281E079
:1030E000818318C06FEE72E0CE0101960E94A41E8B
:1030F000BE016F5F7F4FC7010E941A1D182FCE01BE
:1031000001960E949F1E112359F0E0912003F09137
:1031100021031182BF016F5F7F4F8AE190E077C288
:10312000F7010481015069EE72E0CE0101960E9420
:10313000A41E25E0AE014F5F5F4FB70180E293E030
:103140000E949F0F182FCE0101960E949F1E1123EF
:10315000F1F0C7010E940A25882309F4A1C2C70122
:103160000E94FE1C8B016630710510F005E010E036
:10317000E0912003F0912103028BBF016E5E7F4F2F
:103180008AE390E00E94222163EE72E07BC0F701A7
:10319000048101506AED72E0CE0101960E94A41EE6
:1031A00028E0AE014F5F5F4FB70180E293E00E94DD
:1031B0009F0F182FCE0101960E949F1E112329F107
:1031C000C7010E940A25882309F46AC2C7010E9428
:1031D000FE1C8B016230710530F0613B744028F0B9
:1031E00000EB14E002C002E010E0E0912003F09157
:1031F0002103118F008FBF01685E7F4F82E190E055
:103200000E94F12061ED72E03DC0F70104810150A0
:1032100068EC72E0CE0101960E94A41E28E0AE0187
:103220004F5F5F4FB70180E293E00E949F0F182F1E
:10323000CE0101960E949F1E112371F1C7010E94C9
:103240000A25882309F42CC2C7010E94FE1C8B01A9
:103250006233710530F06138704728F000E810E7FC
:1032600002C002E310E0E0912003F0912103178BEC
:10327000068BBF016A5E7F4F84E090E00E94F120E0
:103280006FEB72E0CE010D960E94101EB801CE01C8
:103290000D960E949C34BDC1F701048101506BEB77
:1032A00072E0CE0101960E94A41E23E0AE014F5FA2
:1032B0005F4FB70180E293E00E949F0F182FCE016D
:1032C00001960E949F1E112321F16FEA72E0CE0148
:1032D00007960E94A41EB701CE0107960E94091E00
:1032E00060E771E0CE0107960E94FA1D81E08093AD
:1032F0003503BE01695F7F4FCE0101960E94AD1E6E
:1033000041E0BE016F5F7F4F80E293E00E94871033
:10331000A5C167EB71E0CE0101960E94B61E0CE0DC
:1033200022E0AE014F5F5F4FB70180E293E00E9461
:103330009F0F182FCE0101960E949F1E112309F4A2
:1033400048C0C7010E940A25882309F4A9C1009139
:10335000200310912103F8018081823008F4A0C17C
:10336000B701C8010E947F0EF82E8FEF8F0D8D3FA1
:1033700008F096C18BE0E82E2F2D30E0F801908107
:10338000492F50E04150510924173507FCF42F5FB5
:103390003F4FE29E5001E39EB00C1124A501405D19
:1033A0005E4F2AE0B801CE0101960E94AC0CB50137
:1033B0006B5D7E4FAE014F5F5F4FC8010E94170DDE
:1033C000CE0101960E949F1EF394D6CF9150908318
:1033D00048C06BEB71E0CE0101960E94B61E0CE076
:1033E00022E0AE014F5F5F4FB70180E293E00E94A1
:1033F0009F0F182FCE0101960E949F1E1123A9F145
:10340000C7010E940A25882309F44AC100912003BC
:1034100010912103F80180818F3009F441C1B70177
:10342000C8010E947F0E8F3F09F03AC1B701CE015B
:1034300001960E94AD1EF8016081FBE06F9FB00114
:103440001124605D7E4FAE014F5F5F4FC8010E9447
:10345000170DCE0101960E949F1EF80180818F5F9B
:103460008083B8018CE291E0D2C06AEB71E0CE01BA
:1034700001960E94B61E0DE023E0AE014F5F5F4F44
:10348000B70180E293E00E949F0F182FCE010196B2
:103490000E949F1E112351F1C7010E940A25882313
:1034A00009F4FEC00091200310912103F8018081EE
:1034B000882309F4F5C081E08283B8016E5F7F4FF5
:1034C00086E190E00E942221B701CE0101960E9480
:1034D000AD1EAE014F5F5F4F6EE170E0C8010E940C
:1034E000170DCE0101960E949F1E93C06EEB71E0F6
:1034F000CE0101960E94B61E0DE023E0AE014F5FA3
:103500005F4FB70180E293E00E949F0F182FCE011A
:1035100001960E949F1E112369F1C7010E940A258E
:10352000882309F4BDC0009120031091210381E09C
:10353000F8018383B8016D5F7F4F88E590E00E94BA
:103540002221B701CE0101960E94AD1EAE014F5F50
:103550005F4F60E670E0C8010E94170DCE01019632
:103560000E949F1EF8011482B8016C5F7F4F8CE5AA
:1035700090E04DC062EC71E0CE0101960E94B61E53
:103580000DE023E0AE014F5F5F4FB70180E293E0B3
:103590000E949F0F182FCE0101960E949F1E11239B
:1035A00009F47EC0C7010E940A25882309F478C067
:1035B000009120031091210381E0F801848BB80170
:1035C0006C5E7F4F82E490E00E942221B701CE0121
:1035D00001960E94AD1EAE014F5F5F4F6AE470E03E
:1035E000C8010E94170DCE0101960E949F1EF8018E
:1035F000158AB8016B5E7F4F86E490E00E9422211D
:10360000F801138AB8016D5E7F4F8EE390E00E944F
:10361000222111E0D1102AC069EA72E0CE0107969A
:103620000E94A41E111106C060EA72E0CE01079646
:103630000E94101EBE01635F7F4FCE0107960E945D
:10364000091EBE01695F7F4FCE0101960E94AD1E2B
:1036500040E061E0CE0101960E944A23CE0101962E
:103660000E949F1ECE0107960E949F1ECE010D96BE
:103670000E949F1E62960FB6F894DEBF0FBECDBFAC
:10368000DF91CF911F910F91FF90EF90DF90CF903E
:10369000BF90AF909F908F907F906F905F900895B4
:1036A00010E0B8CF0895CF92DF92EF92FF920F9380
:1036B0001F93CF93DF936C017A018B01C0E0D0E0C0
:1036C000CE15DF0589F0D8016D918D01D601ED9100
:1036D000FC910190F081E02DC6010995892B11F430
:1036E0007E0102C02196ECCFC701DF91CF911F91DF
:1036F0000F91FF90EF90DF90CF900895FC01918D96
:10370000828D981761F0828DDF01A80FB11D5D9643
:103710008C91928D9F5F9F73928F90E008958FEFB1
:103720009FEF0895FC01918D828D981731F0828D65
:10373000E80FF11D858D90E008958FEF9FEF0895BC
:10374000FC01918D228D892F90E0805C9F4F821B20
:1037500091098F739927089583E892E00E94A01B36
:1037600021E0892B09F420E0822F0895FC01848D4B
:10377000DF01A80FB11DA35ABF4F2C91848D90E09B
:1037800001968F739927848FA689B7892C93A08976
:10379000B1898C9180648C93938D848D981306C02D
:1037A0000288F389E02D80818F7D80830895EF92D8
:1037B000FF920F931F93CF93DF93EC0181E0888FEB
:1037C0009B8D8C8D981305C0E889F989808185FDD2
:1037D00024C0F62E0B8D10E00F5F1F4F0F731127C3
:1037E000E02E8C8DE8120CC00FB607FCFACFE889EA
:1037F000F989808185FFF5CFCE010E94B61BF1CFFC
:103800008B8DFE01E80FF11DE35AFF4FF0820B8F05
:10381000EA89FB898081806207C0EE89FF89608325
:10382000E889F98980818064808381E090E0DF917C
:10383000CF911F910F91FF90EF900895CF93DF9359
:10384000EC01888D8823C9F0EA89FB89808185FD98
:1038500005C0A889B9898C9186FD0FC00FB607FCF9
:10386000F5CF808185FFF2CFA889B9898C9185FF3A
:10387000EDCFCE010E94B61BE7CFDF91CF91089527
:1038800080E090E0892B29F00E94AC1B81110C9400
:1038900000000895833081F028F4813099F082305F
:1038A000A1F008958730A9F08830B9F08430D1F4C0
:1038B000809180008F7D03C0809180008F778093FE
:1038C0008000089584B58F7702C084B58F7D84BD54
:1038D00008958091B0008F7703C08091B0008F7DF4
:1038E0008093B000089508950E947438CF93DF93B9
:1038F000EC0188819981009711F00E94123719829A
:1039000018821D821C821B821A82DF91CF9108953A
:103910000F931F93CF93DF93EC01888199810097D8
:1039200029F02A813B812617370788F48B016F5FC6
:103930007F4F0E94AA37009761F0998388831B8389
:103940000A832C813D81232B11F4FC01108281E03C
:1039500001C080E0DF91CF911F910F910895EF9208
:10396000FF920F931F93CF93DF93FC012481358146
:103970006115710511F480E019C041155105A9F0D8
:103980007B01EC018A01020F131FB8010E94881C01
:10399000882389F3288139818C819D81B701820F29
:1039A000931F0E949B381D830C8381E0DF91CF9190
:1039B0001F910F91FF90EF900895EF92FF920F9358
:1039C0001F93CF93DF93EC017B018A01BA010E9420
:1039D000881C811104C0CE010E94761C07C01D8383
:1039E0000C83B701888199810E949B38CE01DF91B9
:1039F000CF911F910F91FF90EF900895FC0180816E
:103A00009181009711F00C94D93860E070E0CB01FF
:103A10000895FC01248135816217730748F4808181
:103A20009181009729F0FC01E60FF71F808108952E
:103A300080E00895FB0144815581FC01248135819A
:103A40002417350778F080819181009759F0FB01A8
:103A5000608171816115710529F00E94A23821E011
:103A6000892B09F020E0822F0895FC012481358103
:103A7000232B31F421E061157105A1F0FB0108C091
:103A8000FC01808191816115710531F421E0FC0117
:103A90008081882339F005C00E94923821E0892B6B
:103AA00009F020E0822F0895FC0124813581FB017B
:103AB000448155812417350721F5FC0180819181CE
:103AC000FB0160817181009719F061157105A1F406
:103AD0006115710549F0232BB1F0FB01808190E065
:103AE0009195819591090AC0009769F0232B59F0AF
:103AF000FC01808190E002C00E94923821E0892B75
:103B000019F020E001C021E0822F0895EF92FF928A
:103B10000F931F93CF93DF936115710511F480E02C
:103B20001EC08B01EC01CB010E9407390097B1F058
:103B30002C813D817C01E20EF31EB701CE010E9473
:103B4000881C882361F3288139818C819D81B8018B
:103B5000820F931F0E940039FD82EC8281E0DF9189
:103B6000CF911F910F91FF90EF900895EF92FF92E8
:103B70000F931F93CF93DF93CDB7DEB72D970FB67B
:103B8000F894DEBF0FBECDBF7C01CB01BA012AE0A5
:103B90008E010F5F1F4FA8010E943039F80101907C
:103BA0000020E9F73197AF01401B510BB801C70165
:103BB0000E94AF1C2D960FB6F894DEBF0FBECDBF8E
:103BC000DF91CF911F910F91FF90EF900895CF93C8
:103BD000DF9300D0CDB7DEB769831A8241E050E0B1
:103BE000BE016F5F7F4F0E94AF1C0F900F90DF915F
:103BF000CF9108956115710551F0FB0101900020EE
:103C0000E9F73197AF01461B570B0C94AF1C80E0CE
:103C10000895FB0144815581608171810C94AF1C32
:103C2000EF92FF920F931F93CF93DF93EC018B01E1
:103C30006115710551F0CB010E9407397C01BC016F
:103C4000CE010E94881C811104C0CE010E94761C06
:103C500007C0FD82EC82B801888199810E940039F9
:103C6000CE01DF91CF911F910F91FF90EF900895BA
:103C7000CF93DF93EC016115710559F0FB010190C1
:103C80000020E9F73197AF01461B570B0E94DD1C5E
:103C900002C00E94761CCE01DF91CF910895CF9390
:103CA000DF93EC01FB018617970761F0608171815A
:103CB0006115710529F0448155810E94DD1C02C007
:103CC0000E94761CCE01DF91CF9108950F931F9330
:103CD000CF93DF938C01EB01FC01808191810097F0
:103CE000B1F0688179816115710579F04281538164
:103CF0002C813D814217530740F00E949B388C81F4
:103D00009D81F8019583848313C00E9412378881B6
:103D10009981F801918380838A819B819383828337
:103D20008C819D8195838483198218821B821A82DB
:103D30001D821C82DF91CF911F910F910895FC018C
:103D4000808191810C941237FC01118210821382C0
:103D50001282158214820C94101EFC0111821082B2
:103D600013821282158214820C944F1EFC01118260
:103D7000108213821282158214826115710551F02E
:103D8000FB0101900020E9F73197AF01461B570B6B
:103D90000C94DD1C0895BF92CF92DF92EF92FF92B8
:103DA0000F931F93CF93DF937C016B018A01E9018D
:103DB0002417350720F4812F8901C42FD82F6FE5F0
:103DC00071E0C7010E94B61ED60114968D919C9198
:103DD000159708171907D0F48C179D0708F4EC0104
:103DE000D601ED91FC911197EC0FFD1FB080108270
:103DF0004D915C91BA01600F711FC7010E94381E7E
:103E0000D601ED91FC91EC0FFD1FB082C701DF914F
:103E1000CF911F910F91FF90EF90DF90CF90BF90C7
:103E20000895DC01ED91FC910280F381E02D42E0E8
:103E300050E06DE571E009941F920F920FB60F925A
:103E400011242F933F934F935F936F937F938F939F
:103E50009F93AF93BF93EF93FF9383E892E00E9409
:103E6000B61BFF91EF91BF91AF919F918F917F9181
:103E70006F915F914F913F912F910F900FBE0F90D7
:103E80001F9018951F920F920FB60F9211242F9327
:103E90008F939F93EF93FF93E0919302F09194029D
:103EA0008081E0919902F0919A0282FD12C0908186
:103EB00080919C028F5F8F7320919D02821751F039
:103EC000E0919C02F0E0ED57FD4F958F80939C02AE
:103ED00001C08081FF91EF919F918F912F910F9061
:103EE0000FBE0F901F901895CF93DF93282F30E0CF
:103EF000F901E053FC4F8491F901E454FC4FD49153
:103F0000F901E855FC4FC491CC2391F081110E9436
:103F10004A1CEC2FF0E0EE0FFF1FE256FC4FA5917C
:103F2000B491EC91ED2381E090E021F480E002C0B7
:103F300080E090E0DF91CF9108951F93CF93DF93BE
:103F4000282F30E0F901E053FC4F8491F901E4544B
:103F5000FC4FD491F901E855FC4FC491CC23C9F032
:103F6000162F81110E944A1CEC2FF0E0EE0FFF1F6C
:103F7000EC56FC4FA591B4918FB7F894111105C080
:103F80009C91ED2FE095E92302C0EC91ED2BEC9391
:103F90008FBFDF91CF911F910895CF93DF9390E072
:103FA000FC01E454FC4F2491FC01E855FC4F849142
:103FB000882361F190E0880F991FFC01E657FC4FC0
:103FC000C591D491FC01EC56FC4FA591B4916111BF
:103FD00009C09FB7F8948881209582238883EC914B
:103FE0002E230BC0623061F49FB7F8943881822F82
:103FF000809583238883EC912E2B2C939FBF06C042
:104000008FB7F894E8812E2B28838FBFDF91CF9153
:1040100008952FB7F89460911B0270911C02809153
:104020001D0290911E022FBF08950F931F93CF93EF
:10403000DF93EC010E940920688779878A879B8734
:10404000E881F9810680F781E02DCE01099597FF7F
:1040500017C00E940920088519852A853B85DC0147
:10406000CB01801B910BA20BB30B0C811D812E8108
:104070003F8180179107A207B30710F38FEF9FEFDF
:10408000DF91CF911F910F9108951F920F920FB65C
:104090000F9211242F933F938F939F93AF93BF93CE
:1040A00080911B0290911C02A0911D02B0911E02F2
:1040B00030911A0226E0230F2D3720F40296A11D1D
:1040C000B11D05C029E8230F0396A11DB11D209342
:1040D0001A0280931B0290931C02A0931D02B093BE
:1040E0001E028091160290911702A0911802B091C1
:1040F00019020196A11DB11D80931602909317021B
:10410000A0931802B0931902BF91AF919F918F9124
:104110003F912F910F900FBE0F901F9018951F92F7
:104120000F920FB60F9211242F933F934F935F93EB
:104130006F937F938F939F93AF93BF93EF93FF936F
:10414000E0910201F09103010995FF91EF91BF9178
:10415000AF919F918F917F916F915F914F913F911F
:104160002F910F900FBE0F901F9018951F920F92D6
:104170000FB60F9211242F933F934F935F936F933A
:104180007F938F939F93AF93BF93EF93FF93E091B0
:104190000001F09101010995FF91EF91BF91AF915D
:1041A0009F918F917F916F915F914F913F912F914F
:1041B0000F900FBE0F901F9018950F931F93CF93E2
:1041C000DF938C01EB010E947C398883C801019642
:1041D0000E947C398983CE01DF91CF911F910F918D
:1041E0000895EF92FF920F931F93CF93DF9300D028
:1041F000CDB7DEB78C017B01FB0160819A83898397
:10420000CE0101960E94060FF70161810F5F1F4FDB
:104210001A830983CE0101960E94060FC7010F90F1
:104220000F90DF91CF911F910F91FF90EF90089524
:10423000CF93DF93EB010E947C398883CE01DF911D
:10424000CF9108950F931F93CF93DF9300D0CDB7F5
:10425000DEB78B01FB0160819A838983CE010196D1
:104260000E94060FC8010F900F90DF91CF911F9110
:104270000F9108950F931F93CF93DF9300D000D039
:1042800000D0CDB7DEB7FC0182818823C1F08B015D
:10429000BF012AE04EE150E0CE0101960E94AC0C35
:1042A000BE016F5F7F4FC8010E94541D11E0811154
:1042B00001C010E0CE0101960E949F1E01C010E0D7
:1042C000812F26960FB6F894DEBF0FBECDBFDF91CB
:1042D000CF911F910F910895CF93DF9360E070E02D
:1042E0000E94091D90914503992351F0813409F0F2
:1042F000F4C081E080934203DF91CF910C94962724
:10430000813371F483E5809350030E94292761E093
:104310008091220390912303DF91CF910C94761327
:10432000823381F48FE4809350030E94292720E098
:1043300040E061E08091220390912303DF91CF91CF
:104340000C941012833341F584E5809350030E944E
:104350002927C0912203D0912303CE010E94541239
:10436000843011F46CE403C0823039F461E48A8152
:104370009B81DF91CF910C946B0F813009F0ADC020
:10438000CE010E94E4122A813B81882311F061E36F
:1043900001C063E3C901EDCF8433E9F487E580937D
:1043A00050030E942927C0912203D0912303CE01FC
:1043B0000E943813811102C064E5D9CF813011F415
:1043C00061E5D5CF823011F462E5D1CF833009F0B9
:1043D00084C065E4CCCF8533C1F486E58093500377
:1043E0000E942927C0912203D0912303CE010E946D
:1043F0005F13823011F466E5BACF813011F468E5BD
:10440000B6CF81116AC067E5B2CF8434C9F481E3C5
:104410008093500361E080912003909121030E94DA
:10442000D10D61E080912203909123030E948912B3
:1044300060E080912203909123030E94761315C0BF
:104440008334C1F482E38093500360E080912003C1
:10445000909121030E94D10D21E040E060E0809125
:104460002203909123030E9410128FEFDF91CF91CE
:104470000C9438278833A9F40E94292761E08091A1
:104480002003909121030E94D10D61E080912203CD
:10449000909123030E94891281E08093250368E3B1
:1044A00016C08933D1F40E94292760E0809120034F
:1044B000909121030E94D10D61E08091220390919F
:1044C00023030E94891281E08093250369E380E23F
:1044D00093E0DF91CF910C940A27DF91CF9108955B
:1044E000EF92FF920F931F93CF93DF9300D000D0F2
:1044F00000D0CDB7DEB77C0166EC71E0CE0101964D
:104500000E94B61E08E027E0AE014F5F5F4FB70183
:1045100080E293E00E949F0F182FCE0101960E9427
:104520009F1E812F26960FB6F894DEBF0FBECDBF1B
:10453000DF91CF911F910F91FF90EF900895FF921F
:104540000F931F93CF93DF9300D000D000D0CDB74F
:10455000DEB78C0161E574E0CE0101960E94A41ED5
:10456000BE016F5F7F4FC8010E941A1DF82ECE0159
:1045700001960E949F1EFF20E1F02CE030E04BE00E
:1045800050E0B801CE0101960E94CB1E60E070E0C1
:10459000CE0101960E94091D182FCE0101960E949E
:1045A0009F1E123341F0133341F0103341F01633A4
:1045B00041F08EE407C084E405C082E503C089E4CD
:1045C00001C085E426960FB6F894DEBF0FBECDBFBE
:1045D000DF91CF911F910F91FF900895FF920F935C
:1045E0001F93CF93DF9300D000D000D0CDB7DEB7BC
:1045F0008C0165E474E0CE0101960E94A41EBE0108
:104600006F5F7F4FC8010E94541DF82ECE010196A6
:104610000E949F1EFF2011F091E02FC06FE374E015
:10462000CE0101960E94A41EBE016F5F7F4FC8019C
:104630000E94541DF82ECE0101960E949F1EF1107B
:10464000EBCF64E374E0CE0101960E94A41EBE018C
:104650006F5F7F4FC8010E94541DF82ECE01019656
:104660000E949F1EF110D8CF6EEC71E0C8010E942D
:10467000351D91E0811101C090E0892F26960FB67B
:10468000F894DEBF0FBECDBFDF91CF911F910F9188
:10469000FF900895EF92FF920F931F93CF93DF93B4
:1046A000CDB7DEB762970FB6F894DEBF0FBECDBFB1
:1046B0007C01062F142F81E080932D0380915603F7
:1046C00090915703DC01ED91FC910284F385E02D7C
:1046D0000995B701CE010D960E94AD1E011126C0AD
:1046E00080914E038F34B1F034F4833499F08634E2
:1046F00009F0F2C00FC0833521F0853509F0ECC018
:1047000009C065ED71E0CE010D960E94381E6CED7A
:1047100071E008C065ED71E0CE010D960E94381E73
:104720006FED71E0CE010D960E94FA1D63EE71E00F
:10473000CE0107960E94B61E1230B9F46091200394
:1047400070912103FB018381882341F02AE040E638
:1047500050E0CE0101960E94AC0C25C06FE571E0DF
:10476000CE0101960E94B61E1EC0113049F4609120
:10477000200370912103CE0101960E94BA0D13C04F
:1047800080913403882339F069E274E0CE01079602
:104790000E94861D13C06091200370912103CE01F9
:1047A00001960E94DA0DBE016F5F7F4FCE01079622
:1047B0000E94091ECE0101960E949F1E60E771E0D3
:1047C000CE0107960E94FA1D8091560390915703DF
:1047D000DC01ED91FC910284F385E02D0995BE0189
:1047E000695F7F4FCE0101960E94AD1E41E0BE0180
:1047F0006F5F7F4F80E293E00E948710CE010196A9
:104800000E949F1E8091560390915703DC01ED9109
:10481000FC910284F385E02D09956AE080E293E043
:104820000E94740FBE01635F7F4FCE0101960E940C
:10483000AD1E41E0BE016F5F7F4F80E293E00E94BA
:104840008710CE0101960E949F1E80915603909181
:104850005703DC01ED91FC910284F385E02D09956D
:104860006AE080E293E00E94740F80915603909179
:104870005703DC01ED91FC910284F385E02D09954D
:1048800080E293E00E946610009156031091570356
:10489000D801ED91FC910190F081E02D6AE1C80111
:1048A0000995C8010E94111F8091560390915703EA
:1048B000DC01ED91FC910284F385E02D09956AE01D
:1048C00080E293E00E94740F1092340310922D0343
:1048D000CE0107960E949F1ECE010D960E949F1E3C
:1048E00062960FB6F894DEBF0FBECDBFDF91CF91B9
:1048F0001F910F91FF90EF900895CF93DF9300D019
:1049000000D000D0CDB7DEB790914003911119C00F
:10491000E0912003F0912103938D913491F48093E1
:104920004E036FE571E0CE0101960E94B61E40E095
:1049300060E0CE0101960E944A23CE0101960E94BA
:104940009F1E26960FB6F894DEBF0FBECDBFDF9137
:10495000CF9108950F931F93CF93DF93EC018B01B9
:104960006FE571E00E94B61EC8010E94152097FDF8
:1049700008C08A30910529F0682FCE010E94E71DFA
:10498000F3CFCE01DF91CF911F910F910895EF9258
:10499000FF920F931F93CF93DF9300D000D000D0EE
:1049A000CDB7DEB78C016FE571E00E94B61E809135
:1049B000560390915703DC01ED91FC910480F58141
:1049C000E02D099518161906BCF480E293E00E94C8
:1049D00066106091560370915703CE0101967C01D9
:1049E0000E94AA240E151F0521F0B701C8010E94DC
:1049F000661EC7010E949F1EC80126960FB6F89436
:104A0000DEBF0FBECDBFDF91CF911F910F91FF9001
:104A1000EF900895EF92FF920F931F93CF938C0125
:104A2000FC01E480F580C0E06C2F70E06E157F051E
:104A300068F4C8010E94091D282F880F330B2053EA
:104A400031092A30310520F4CF5FEECF81E001C07B
:104A500080E0CF911F910F91FF90EF9008950F93F9
:104A60001F93CF93DF93CDB7DEB76E970FB6F89451
:104A7000DEBF0FBECDBF8C016EE174E0CE010196AA
:104A80000E94A41EBE016F5F7F4FC8010E94541D8B
:104A900081114DC063E174E0CE0107960E94A41E0F
:104AA000BE01695F7F4FC8010E94541D811141C042
:104AB00068E074E0CE010D960E94A41EBE01635F03
:104AC0007F4FC8010E94541D811135C06DEF73E006
:104AD000CE0143960E94A41EBE016D5E7F4FC801A9
:104AE0000E94541D811115C062EF73E0CE014996FA
:104AF0000E94A41EBE01675E7F4FC8010E94541D24
:104B000011E0811101C010E0CE0149960E949F1E64
:104B100001C011E0CE0143960E949F1ECE010D966A
:104B20000E949F1ECE0107960E949F1E09C080E032
:104B300004C081E002C011E0F1CF11E08111F2CF99
:104B4000CE0101960E949F1E812F6E960FB6F8949B
:104B5000DEBF0FBECDBFDF91CF911F910F910895A2
:104B60008F929F92AF92BF92CF92DF92EF92FF927D
:104B70001F93CF93DF9300D000D000D0CDB7DEB726
:104B8000162FBC01CE0101960E94AD1E40E0BE0171
:104B90006F5F7F4F80E293E00E948710CE01019605
:104BA0000E949F1E0E9409204B015C01112339F0D5
:104BB00090E6C92E9AEED92EE12CF12C15C088EB87
:104BC000C82E8BE0D82EE12CF12C0EC0809156031C
:104BD00090915703DC01ED91FC910480F581E02D6B
:104BE00009951816190674F00E940920DC01CB0102
:104BF00088199909AA09BB098C159D05AE05BF0541
:104C000028F321C0CE0101960E94C72460EF71E015
:104C1000CE0101960E94351D81110DC06EEC71E030
:104C2000CE0101960E94351D811107C0CE0101966B
:104C30000E949F1ED9CF11E001C010E0CE01019665
:104C40000E949F1E01C010E0812F26960FB6F89497
:104C5000DEBF0FBECDBFDF91CF911F91FF90EF90D0
:104C6000DF90CF90BF90AF909F908F900895CF939B
:104C7000DF9300D000D000D0CDB7DEB764EE73E094
:104C8000CE0101960E94A41E60E0CE0101960E9412
:104C9000B025CE0101960E949F1E26960FB6F8946D
:104CA000DEBF0FBECDBFDF91CF9108958F929F924F
:104CB000AF92BF92CF92DF92EF92FF920F931F932A
:104CC000CF93DF9300D000D000D0CDB7DEB76C011A
:104CD0007A010E9409204B015C01B601CE010196C8
:104CE0000E94AD1E41E0BE016F5F7F4F80E293E006
:104CF0000E948710CE0101960E949F1E0E940920EB
:104D00008B019C01081919092A093B09003A1F4027
:104D10002105310530F58091560390915703DC0150
:104D2000ED91FC910480F581E02D0995892B31F3FB
:104D3000CE0101960E94C724BE016F5F7F4F80E2C3
:104D400093E0F7010995182F8823A1F2BE016F5F48
:104D50007F4FC6010E944F1ECE0101960E949F1EEA
:104D600001C010E0812F26960FB6F894DEBF0FBE6B
:104D7000CDBFDF91CF911F910F91FF90EF90DF900A
:104D8000CF90BF90AF909F908F900895FC01A08925
:104D9000B18982E08C93A485B5851C92A685B785E0
:104DA00083E38C93108EA489B58986E08C93A289C5
:104DB000B3898C9180618C93A289B3898C9188602E
:104DC0008C93A289B3898C9180688C930288F38933
:104DD000E02D80818F7D808308958091350381113E
:104DE00011C090913D039E3471F490913E039E3426
:104DF00051F480915103882331F090914F0381E069
:104E00008927089580E00895E0E6F0E088E1808356
:104E1000108208951F93CF93DF93EC01162F8EA974
:104E20009FA9DC01ED91FC910284F385E02D0995A9
:104E3000CE010E94CD110E9409206F837887898757
:104E40009A8781E08B871EA71C87DF91CF911F91E6
:104E5000089580E293E00E94CD110E9409206093A2
:104E6000300370933103809332039093330308959A
:104E70001F93CF93DF93CDB7DEB72C970FB6F8947F
:104E8000DEBF0FBECDBF182F69E674E0CE010796D6
:104E90000E94A41E1F3F11F461E407C0111102C05B
:104EA00064E403C0113029F463E4CE0107960E9444
:104EB000E71D65E674E0CE0107960E94861D80918D
:104EC000560390915703DC01ED91FC910284F38528
:104ED000E02D0995BE01695F7F4FCE0101960E94CA
:104EE000AD1E41E0BE016F5F7F4F80E293E00E9404
:104EF0008710CE0101960E949F1E809156039091CB
:104F00005703DC01ED91FC910284F385E02D0995B6
:104F1000CE0107960E949F1E2C960FB6F894DEBF16
:104F20000FBECDBFDF91CF911F910895CF93DF9337
:104F300000D000D000D0CDB7DEB710923F03109262
:104F40002D038091560390915703DC01ED91FC9164
:104F50000284F385E02D09956DE574E0CE0101969C
:104F60000E94A41E41E0BE016F5F7F4F80E293E08C
:104F70000E948710CE0101960E949F1E0E94092068
:104F800061E080E293E00E94740F6FE571E0CE0172
:104F900001960E94B61E41E0BE016F5F7F4F80E226
:104FA00093E00E948710CE0101960E949F1E80917F
:104FB000560390915703DC01ED91FC910284F38537
:104FC000E02D099510924F0380913D038E3411F02E
:104FD000823569F580913E038F3449F58091450310
:104FE000811125C080914103811121C0809140032E
:104FF00081111DC0E0912003F0912103838D843540
:10500000B1F48081823098F081E0809341038093F5
:1050100048030E9409206093490370934A038093D8
:105020004B0390934C0380914E0380934D038091EA
:105030003D03893409F051C080913E038F3409F05B
:105040004CC080914503882309F447C0E0912003B8
:10505000F09121038389882309F43FC080914303A1
:105060008F5F8093430390914203992351F0E09125
:105070002203F091230380914603E80FF11D12A64D
:105080002AC0823090F40E940920609349037093F3
:105090004A0380934B0390934C0380914603809383
:1050A0004D0381E08093440316C0809122039091C8
:1050B000230320914603FC01E20FF11D22A52230BB
:1050C00041F424A5DC01A20FB11D14961C9280E0CE
:1050D00001C083E082A7109245031092470310920B
:1050E000420310924003109225038EE480933D0307
:1050F00080933E03109224030E9409206093520380
:10510000709353038093540390935503109251036B
:1051100026960FB6F894DEBF0FBECDBFDF91CF91BC
:105120000895EF92FF920F931F93CF93DF9300D0D8
:10513000CDB7DEB78C017B01FB0160819A83898347
:10514000CE0101960E94060FF70161810F5F1F4F8C
:105150001A830983CE0101960E94060FC7010F90A2
:105160000F90DF91CF911F910F91FF90EF900895D5
:10517000CF93DF9300D000D000D0CDB7DEB76FE97A
:1051800074E0CE0101960E94A41E60E0CE0101965B
:105190000E94B025CE0101960E949F1E68E974E02E
:1051A000CE0101960E94A41E60E0CE0101960E94ED
:1051B000B025CE0101960E949F1E6CE874E0CE01DE
:1051C00001960E94A41E60E0CE0101960E94B025C7
:1051D000CE0101960E949F1E81E08983BE016F5F10
:1051E0007F4F84E893E00E9422211A821982BE0137
:1051F0006F5F7F4F84E993E00E9491281982BE017E
:105200006F5F7F4F80E993E00E94222164E680E295
:1052100093E00E94740F80E293E00E9409122696A8
:105220000FB6F894DEBF0FBECDBFDF91CF910895CA
:105230001F93CF93DF9300D000D000D0CDB7DEB75F
:105240006DE774E0CE0101960E94A41E61E0CE01DC
:1052500001960E94B025182FCE0101960E949F1E34
:10526000812F26960FB6F894DEBF0FBECDBFDF911B
:10527000CF911F910895CF92DF92EF92FF920F93FB
:105280001F93CF93DF93CDB7DEB72C970FB6F8946B
:10529000DEBF0FBECDBF64EF71E0CE0101960E946C
:1052A000B61E40E0BE016F5F7F4F80E293E00E9438
:1052B0008710CE0101960E949F1E0E9409206B015B
:1052C0007C010E940920DC01CB018C199D09AE09EB
:1052D000BF0988389341A105B10508F043C080910A
:1052E000560390915703DC01ED91FC910480F58108
:1052F000E02D0995892B29F360915603709157038E
:10530000CE0107960E94AA2462E774E0CE010196BE
:105310000E94A41E0BE02AE0AE014F5F5F4FBE016A
:10532000695F7F4F80E293E00E949F0F182FCE01AC
:1053300001960E949F1E112351F060E070E0CE01A3
:1053400007960E94091D833339F0813331F0CE0175
:1053500007960E949F1EB5CF10E0CE0107960E94CF
:105360009F1E01C010E0812F2C960FB6F894DEBF6F
:105370000FBECDBFDF91CF911F910F91FF90EF90A6
:10538000DF90CF900895CF92DF92EF92FF921F931C
:10539000CF93DF9300D000D000D0CDB7DEB7BC01F3
:1053A000CE0101960E94AD1E40E0BE016F5F7F4FAF
:1053B00080E293E00E948710CE0101960E949F1E1A
:1053C0000E9409206B017C010E940920DC01CB01B5
:1053D0008C199D09AE09BF0988389341A105B10513
:1053E00090F58091560390915703DC01ED91FC916B
:1053F0000480F581E02D0995892B31F360915603E6
:1054000070915703CE0101960E94AA2460EF71E0CB
:10541000CE0101960E94351D81110DC06EEC71E028
:10542000CE0101960E94351D811107C0CE01019663
:105430000E949F1EC9CF11E001C010E0CE0101966D
:105440000E949F1E01C010E0812F26960FB6F8948F
:10545000DEBF0FBECDBFDF91CF911F91FF90EF90C8
:10546000DF90CF900895CF93DF93CDB7DEB76497E9
:105470000FB6F894DEBF0FBECDBF789484B58260BE
:1054800084BD84B5816084BD85B5826085BD85B5E8
:10549000816085BD80916E00816080936E00109266
:1054A00081008091810082608093810080918100E1
:1054B0008160809381008091800081608093800072
:1054C0008091B10084608093B1008091B0008160D0
:1054D0008093B00080917A00846080937A008091FC
:1054E0007A00826080937A0080917A008E7F809328
:1054F0007A0080917A00806880937A001092C100CF
:1055000084B761E088E00E94CD1F60E088E00E94DF
:105510009D1F62E089E00E94CD1F89E00E94741FF8
:10552000892B39F41092050260E088E00E949D1FEB
:1055300007C061E088E00E949D1F81E08093050222
:10554000809168008160809368008091680082602B
:105550008093680080916B00826080936B008091E3
:105560006C00816080936C0080916C0082608093FD
:105570006C0080916C00806280936C008091680068
:1055800084608093680080916D00806280936D00DC
:1055900080916D00806480936D0080916D008068C3
:1055A00080936D0080916C00806180936C00F89412
:1055B0000E940427789483E892E00E94C62661E066
:1055C00081E10E94CD1F66E773E08AE390E00E94CC
:1055D0001821809176038F3F41F41092760366E79D
:1055E00073E08AE390E00E94222160E773E086E3A3
:1055F00090E00E941821809170038F3F41F4109237
:10560000700360E773E086E390E00E94222168E681
:1056100073E08CE590E00E941821809168038F3F31
:1056200041F41092680368E673E08CE590E00E9414
:10563000222167E673E088E590E00E9418218091BE
:1056400067038F3F41F41092670367E673E088E5D4
:1056500090E00E9422216FE673E080E090E00E94DB
:10566000182180916F038F3F29F460E084E693E076
:105670000E94D10D6AE773E084E090E00E94DD2093
:1056800080917A0390917B03019661F482E390E02C
:1056900090937B0380937A036AE773E084E090E061
:1056A0000E94F1206EE773E08CE090E00E941821E8
:1056B00080917E038F3F41F410927E036EE773E08A
:1056C0008CE090E00E9422218EE090E00E947C39E4
:1056D00080937F038F3F29F464E584E693E00E9482
:1056E000260F65E773E086E990E00E94182180911B
:1056F00075038F3F61F51092750365E773E086E9E6
:1057000090E00E94222180917503882301F110927C
:10571000710310927203109273031092740361E785
:1057200073E088E990E00E94222162E773E08AE951
:1057300090E00E94222163E773E08CE990E00E94F0
:10574000222164E773E08EE990E00E94222180919B
:1057500075038823C1F061E773E088E990E00E9457
:10576000182162E773E08AE990E00E94182163E75C
:1057700073E08CE990E00E94182164E773E08EE901
:1057800090E00E94182164E673E08CE291E00E94B0
:10579000182180916403803140F01092640364E624
:1057A00073E08CE291E00E94222166E673E086E1DC
:1057B00090E00E941821809166038F3F41F410927F
:1057C000660366E673E086E190E00E94222165E6CA
:1057D00073E08AE190E00E941821809165038F3F79
:1057E00041F41092650365E673E08AE190E00E945F
:1057F000222169E673E080E293E00E941821809103
:1058000069038F3F41F41092690369E673E080E217
:1058100093E00E9422216CE773E082E190E00E9415
:10582000DD2080917C0390917D03019661F482E0FC
:1058300090E090937D0380937C036CE773E082E1BA
:1058400090E00E94F12067E773E08EE390E00E9411
:105850001821809177038F3F41F41092770367E717
:1058600073E08EE390E00E94222168E773E082E417
:1058700090E00E941821809178038F3F41F41092AC
:10588000780368E773E082E490E00E94222169E7F0
:1058900073E086E490E00E941821809179038F3FA5
:1058A00041F41092790369E773E086E490E00E9486
:1058B000222184E693E090932103809320038FE1DB
:1058C00092E0909323038093220311E002E042E0F0
:1058D000342E5AE0252E809115028823F9F00E947B
:1058E00009208090110290901202A0901302B090B3
:1058F0001402DC01CB0188199909AA09BB0981317D
:105900009742A105B10550F0109215028091050251
:10591000811104C00E94ED268111C7C58091040247
:10592000882399F0109204028091050281278093C8
:10593000100281110AC061E088E00E949D1F8091E1
:105940000F02811102C010930F0280911002882370
:1059500069F00E94ED26882349F080912D03811182
:1059600005C080915903882309F466C780910E020F
:105970008111D9C180910D02811108C00E940920B6
:10598000603D77408105910508F094C580910F0234
:10599000882321F10E9409202091060230910702FC
:1059A000DC01CB01821B930BA109B109853F91401A
:1059B000A105B10598F0809104018127809304012D
:1059C000882311F061E001C060E081E10E949D1F29
:1059D0000E94092070930702609306020E9409202A
:1059E000683A71468105910508F45CC56BE171E088
:1059F000CE0101960E94B61E60E0CE0101960E9483
:105A0000B025CE0101960E949F1E68EC70E0CE0189
:105A100001960E94A41E60E0CE0101960E94B0256E
:105A2000F82ECE0101960E949F1EFF2009F4F2C0BD
:105A30006CEB70E0CE010D960E94A41E60E0CE01DA
:105A40000D960E94B025882309F4E0C060EB70E059
:105A5000CE0107960E94A41E60E0CE0107960E9428
:105A6000B025F82E882381F06CE970E0CE01019614
:105A70000E94A41E60E0CE0101960E94B025F82E7F
:105A8000CE0101960E949F1ECE0107960E949F1E86
:105A9000CE010D960E949F1EFF2009F4BBC06FE847
:105AA00070E0CE0101960E94A41E60E0CE01019636
:105AB0000E94B025CE0101960E949F1E63E870E00F
:105AC000CE0101960E94A41E60E0CE0101960E94C4
:105AD000B025CE0101960E949F1E6CE770E0CE01BA
