:100000000C945C020C94270E0C94000E0C940216B7
:100010000C9411160C9484020C94D6150C94840242
:100020000C9484020C9484020C9484020C94840238
:100030000C9484020C9484020C9484020C94840228
:100040000C94B60D0C9484020C9465260C943F26F7
:100050000C9484020C9484020C9484020C94840208
:100060000C9484020C94840241542B434349440071
:1000700041542B444445543D310D0A004154265708
:100080000D0A0041542B434C54533D310D0A00419D
:10009000542B4353434C4B3D310D0A0041542B43E9
:1000A0004E4D493D322C312C302C302C300D0A0075
:1000B00041542B434D47463D310D0A0041542B43DB
:1000C0004C43433D310D0A0041542B434C49503DB4
:1000D000310D0A004D4158434544440043455252B6
:1000E0000055504453554343004154410041542B63
:1000F000444445543D310D0A002B4350494E3A20AB
:100100004E4F542052454144590D0043616C6C20C0
:1001100052656164790D0041542B434D4744413D84
:100120002244454C20414C4C220D0A0041542B46A0
:10013000545050573D223132333435363738392216
:100140000D0A0041542B465450554E3D22726168B1
:10015000756C6E726174686F646B636C220D0A005B
:1001600041542B465450534552563D220041542B86
:100170004654504349443D310D0A002B46545053D8
:10018000495A453A20312C302C0041542B465450CA
:1001900053495A450D0A0041542B46545047455483
:1001A0000041542B53415042523D312C310D0A0035
:1001B00041504E222C220041542B53415042523D7B
:1001C000332C312C2200436F6E54797065222C221F
:1001D00047505253220D0A0041542B534150425272
:1001E0003D332C312C22004F4B203A2000524555F4
:1001F00050440050524753495A4500444300535518
:10020000500050524755504400564D52303200561F
:100210004D52303200564D4D3031002A2A2A2A4D97
:100220002B002E616D72222C302C3130302C310D90
:100230000041542B435245433D342C220041542B62
:10024000435245433D350D0037303431313936396D
:1002500035390000000000240027002A00000000BB
:1002600000250028002B00000000002300260029A4
:10027000000404040404040404020202020202034F
:100280000303030303010204081020408001020459
:1002900008102001020408102000000008000201DC
:1002A000000003040700000000000000000A4E6583
:1002B00074776F726B3A000A426174253A00204FDE
:1002C00046460A00204F4E0A00204F4E0A004D6F4E
:1002D000746F723A00204F46460A00203220504880
:1002E0004153450A004155544F4F4646004155542D
:1002F0004F4F4E00564D4D3031004552524F522017
:100300003A20004F4B203A200041542B4355534490
:100310003D312C220042414C004155544F54494D2F
:1003200045004155544F54494D4500535441525492
:10033000494D45005354415254494D450053544191
:10034000474500535441474500414D4F4646004103
:100350004D4F4E0041542B4342430041542B4353D5
:100360005100535441545553004D324D4F464600B1
:100370004D324D4F4E005245535000444E444F466F
:100380004600444E444F4E004259504F46460042AC
:1003900059504F4E004155544F4F46460041555419
:1003A0004F4F4E00444944005245534554004E6F50
:1003B000204E756D626572004E554D0044454641B4
:1003C000554C5400434C454152414C4C0057414917
:1003D000540041542B434357413D302C300D0A000B
:1003E00049443A0041542B4346554E3D312C310D82
:1003F0000A00393538363133353937380037333834
:1004000033363232363738003733383336313432D8
:1004100031340037363938343339323031003730FF
:1004200034313139363935390037303431313936B4
:10043000393539004E4F20414E535745520D004239
:100440005553590D004E4F20434152524945520DCC
:10045000002B434C43433A20312C302C0041542B89
:100460004348555000222C320041542B5654533DE2
:1004700022002B53415042523A20312C0041542B40
:1004800053415042523D302C310D0A0041542B4310
:100490004F50533D320D0A00415426570D0A00417A
:1004A000542B4353434C4B3D300D0A0041542B43D6
:1004B00042430000EC348D3411241FBECFEFD8E04E
:1004C000DEBFCDBF23E0A6E0B2E001C01D92A73899
:1004D000B207E1F712E0A0E0B1E0E8EAF3E702C01A
:1004E00005900D92A630B107D9F712E0CBE5D2E026
:1004F00004C02197FE010E946537CA35D107C9F7AC
:100500000E944F2B0C94C7390C94F8154F925F92B0
:100510006F927F928F929F92AF92BF92CF92DF9213
:10052000EF92FF920F931F93CF93DF93CDB7DEB778
:10053000A5970FB6F894DEBF0FBECDBF80915C03C8
:100540008823B1F00E949F0D00915D0310915E031E
:1005500020915F0330916003DC01CB01801B910B84
:10056000A20BB30B813D9740A105B10508F02BC646
:1005700080913903882371F10E949F0D00913C0303
:1005800010913D0320913E0330913F03AB01BC012C
:10059000401B510B620B730B20913A0330913B03CC
:1005A000E4E6E29FC001E39F900D1124A0E0B0E0DB
:1005B000481759076A077B0768F0E0912503F09117
:1005C000260383A9811106C060E084E00E94330DF8
:1005D00010923903809140038E3409F058C0809105
:1005E00041038E3409F0C7C080915403811116C0B5
:1005F0000E949F0D009155031091560320915703BF
:1006000030915803DC01CB01801B910BA20BB30B83
:10061000893E9340A105B10508F0D8C580914B03F0
:10062000811107C080914703882309F4A4C011E019
:1006300005C0E0912303F0912403128980915403B3
:10064000882309F498C080914403813009F4C2C51D
:100650000E949F0DC0904C03D0904D03E0904E033C
:10066000F0904F039B01AC012C193D094E095F0925
:1006700069017A01212F30E0A0E6BAEE0E945637D8
:100680006C157D058E059F0508F4A4C574C08934DA
:1006900019F0823509F06FC00E949F0D009133035D
:1006A000109134032091350330913603AB01BC0126
:1006B000401B510B620B730B2091310330913203BD
:1006C000E4E6E29FC001E39F900D1124A0E0B0E0BA
:1006D000481759076A077B0740F0809151038DA3A3
:1006E0000E947B288DA10E940020809148038823CE
:1006F000F1F0809143038823D1F080914A03811166
:1007000016C00E949F0D0091330310913403209175
:10071000350330913603DC01CB01801B910BA20B1A
:10072000B30B813D9740A105B10508F070C58091DC
:100730002E03882301F10E949F0DE091290300916F
:100740002A0310912B0320912C0330912D03AB0130
:10075000BC01401B510B620B730BA4E6EA9FC00166
:100760001124092E000CAA0BBB0B84179507A607B2
:10077000B70708F454C58FE4C82E92E5B92E29E4D2
:10078000D22E8091590390915A03DC01ED91FC9196
:100790000084F185E02D09951816190614F00C94C3
:1007A000750CCE014F960E94F0200BA1015062E221
:1007B00071E0CE0101960E94A92526E0AE014F5FAF
:1007C0005F4FBE01615E7F4F83E293E00E94D011D4
:1007D000182FCE0101960E949225112321F08091BD
:1007E000380381117EC50BA1015069E271E0CE0191
:1007F00001960E94A9252CE0AE014F5F5F4FBE011C
:10080000615E7F4F83E293E00E94D011E82ECE011B
:1008100001960E949225EE2071F1BE01615E7F4F2C
:10082000CE010D960E94A02560E371E0CE010796EF
:100830000E94A925BE01635F7F4FCE0107960E94EB
:10084000FC24BE01695F7F4FCE0101960E94A02566
:1008500041E0BE016F5F7F4F83E293E00E94B812D8
:10086000CE0101960E949225CE0107960E94922504
:10087000CE010D96BBC269E371E0CE0101960E94E4
:10088000A92502E228E1AE014F5F5F4FBE01615E24
:100890007F4F83E293E00E94D011982ECE01019603
:1008A0000E949225BE01615E7F4FCE01992009F41E
:1008B0005DC201960E94A025CE0101960E942D20C6
:1008C000F82ECE0101960E949225BE01615E7F4FF7
:1008D000CE0101960E94A025BE016F5F7F4F8091DF
:1008E0002303909124030E942F10A82ECE0101967D
:1008F0000E949225F11027C0BE01615E7F4FCE019C
:1009000001960E94A025BE016F5F7F4F8091230357
:10091000909124030E94E00F182F81110DC0A110A7
:100920000AC0E0912303F091240311E08081882321
:1009300019F010E001C0192DCE0101960E949225F8
:10094000112309F4ADC1CE0101960E94F020BE0131
:100950006F5F7F4FCE014F960E945925CE010196C1
:100960000E9492250F8D18A10115110541F4E09107
:100970002303F09124038081882371F03AC0D801C9
:100980008C918823A1F3082E000C990B0E946F39DB
:10099000F80181938F01F3CFF1102BC06BE172E06E
:1009A000CE0101960E949725BE016F5F7F4FCE0159
:1009B0004F960E940D24182FCE0101960E94922579
:1009C000112309F415C22BA13CA144E050E0BE0163
:1009D000615E7F4FCE0101960E94BE25BE016F5F12
:1009E0007F4FCE014F960E945925CE0101960E945D
:1009F000922560E471E0CE0101960E94A925BE0116
:100A00006F5F7F4FCE014F960E940D24182FCE01AD
:100A100001960E9492251123C1F02BA13CA141E037
:100A200050E0BE01615E7F4FCE0101960E94BE255F
:100A3000BE016F5F7F4FCE014F960E945925CE01B8
:100A400001960E94922511E001C010E0BE01615E96
:100A50007F4FCE01FF2009F418C149960E94A025BE
:100A600081E0809337030D8D015062E072E0CE018A
:100A700001960E94972526E0AE014F5F5F4FBE01B1
:100A8000675E7F4F83E293E00E94D011F82ECE0183
:100A900001960E949225FF2009F4B0C08091400386
:100AA0008E3411F40E947B28111110C06EEF71E09A
:100AB000CE0101960E94972540E061E0CE010196AB
:100AC0000E94CD1ECE0101960E949225898C9A8C9F
:100AD0008114910429F40E94F929811174C40DC074
:100AE000D4018C918823B9F3082E000C990B0E9435
:100AF0006739F40181934F01F3CF62E471E0CE01D5
:100B00000D960E94A92568ED71E0CE0107960E941E
:100B1000972566EC71E0CE0107960E947924BE010C
:100B2000695F7F4FCE0101960E94A025CE010196FC
:100B30000E94812A082FCE0101960E949225011160
:100B400002C000E042C067EB71E0CE0107960E9450
:100B5000032560EB71E0CE0107960E947924BE0167
:100B6000635F7F4FCE0107960E94FC246EE571E023
:100B7000CE0107960E94ED24BE01695F7F4FCE0132
:100B800001960E94A025CE0101960E94812A082F7D
:100B9000CE0101960E949225002399F261EA71E04C
:100BA000CE0101960E94972561E0CE0101960E9438
:100BB0003321082FCE0101960E949225002309F2CD
:100BC00064E183E293E00E94A511CE0107960E94A2
:100BD0009225CE010D960E949225002309F4E9C5C5
:100BE0000CE0015009F4E5C562E383E293E00E9462
:100BF000A5110E94F9298823A1F3E5C30D8D0150A9
:100C000063EF71E0CE0101960E94972527E0AE01C7
:100C10004F5F5F4FBE01675E7F4F83E293E00E94AC
:100C2000D011082FCE0101960E9492250111F7C51F
:100C30000D8D01506DEE71E0CE0101960E94972559
:100C400025E0AE014F5F5F4FBE01675E7F4F83E2DD
:100C500093E00E94D011F82ECE0101960E949225B9
:100C6000F110DFC510923703CE0149960E949225FC
:100C7000F1106EC0BE01615E7F4FCE0101960E94F1
:100C8000A0252A2D412F61E006C001960E94A025D3
:100C90002A2D412F60E0CE0101960E948D1654C08E
:100CA000BE01615E7F4FCE0101960E94A025BE016C
:100CB0006F5F7F4F80912303909124030E94361031
:100CC000182FCE0101960E949225112309F41DC30D
:100CD000CE0101960E94F020BE016F5F7F4FCE01D2
:100CE0004F960E945925CE0101960E94922565E1FA
:100CF00072E0CE0101960E949725BE016F5F7F4F83
:100D0000CE014F960E940D24182FCE0101960E940D
:100D100092251123E9F0E0912303F091240381E06F
:100D20008483BF016C5F7F4F8CE590E00E94361199
:100D30006FE072E0CE0101960E94972542E061E0EB
:100D4000CE0101960E94CD1ECE0101960E949225F1
:100D500067E171E0CE0101960E94972560E0CE0127
:100D600001960E943321CE01019640C007960E9451
:100D7000A0256BE071E0CE0101960E949725BE018F
:100D80006F5F7F4FCE0107960E944724182FCE0138
:100D900001960E949225CE0107960E94922511236A
:100DA00021F081E080935B0323C0BE01615E7F4F31
:100DB000CE0107960E94A02569EF70E0CE01019652
:100DC0000E949725BE016F5F7F4FCE0107960E945C
:100DD0004724182FCE0101960E949225112321F05D
:100DE0000E947B280E94BA21CE0107960E9492257C
:100DF0009091520380914003911110C18E3419F0EB
:100E0000823509F095C1909141039E3419F09934CF
:100E100009F0F1C0BE01615E7F4FCE0101960E94D4
:100E2000A02565E671E0CE0101960E942824182FC6
:100E3000CE0101960E949225112309F4C6C081E0DB
:100E400080933003B0924003D092410380914203DB
:100E50008F5F80934203853008F06FC08130E9F4E2
:100E60006DEE70E0CE0101960E94972540E0BE0134
:100E70006F5F7F4F83E293E00E94B812CE0101962C
:100E80000E9492258091590390915A03DC01ED91C3
:100E9000FC910680F781E02D099561E671E0CE01B5
:100EA0000D960E94A925CE0101960E94F020BE0158
:100EB0006F5F7F4FCE010D960E945925CE0101969E
:100EC0000E9492256BE671E0CE0101960E94A92551
:100ED00005E12BE0AE014F5F5F4FBE01635F7F4FC7
:100EE00083E293E00E94D011182FCE0101960E9458
:100EF00092251123C1F20E949F0D609333037093DA
:100F00003403809335039093360389899A890A972D
:100F100078F0CE010D960E94AE20882349F0809192
:100F20004203823028F080912703882309F4B0C45B
:100F3000CE010D960E94922506C080912703811153
:100F400002C00E947B2880912703882309F436C1C0
:100F50000E949F0D60933303709334038093350395
:100F6000909336031092270381E08093430380918E
:100F7000590390915A03DC01ED91FC910680F781B1
:100F8000E02D099569EE70E0CE0101960E9497254B
:100F900041E0BE016F5F7F4F83E293E00E94B81291
:100FA000CE0101960E9492258091590390915A0397
:100FB000DC01ED91FC910680F781E02D0995D0923E
:100FC0004003D09241036DE4AEC0BE01615E7F4F2D
:100FD000CE0101960E94A025CE0101960E94711EAD
:100FE000182FCE0101960E949225112309F4E6C024
:100FF0000E947B28E3C0893489F49091410399349D
:1010000069F4BE01615E7F4FCE0101960E94A0256A
:10101000CE0101960E94711E182FB5C08E3419F0B2
:10102000823509F088C0109141031F3409F0C6C011
:10103000BE01615E7F4FCE0101960E94A025CE01C8
:1010400001960E94221E082FCE0101960E94922531
:10105000023579F40E949F0D60933303709334033B
:10106000809335039093360300934003109341031C
:10107000A5C0BE01615E7F4FCE0101960E94A025F2
:10108000CE0101960E94711E182F811113C0BE015E
:10109000615E7F4FCE0107960E94A025CE01079684
:1010A0000E94221E11E0853409F010E0CE0107965F
:1010B0000E949225CE0101960E949225112349F0AB
:1010C000809151038DA30E947B288DA10E94002056
:1010D00075C0BE01615E7F4FCE0101960E94A025C2
:1010E000CE0101960E94221E182FCE0101960E9469
:1010F0009225193409F062C00E949F0D609333035A
:101100007093340380933503909336031093400318
:10111000C092410381E08093430380914803811191
:101120004DC06091510383E293E00E94DD2646C0EA
:10113000893409F462CF893409F040C080914103B9
:101140008F34E1F5BE01615E7F4FCE0101960E94B2
:10115000A025CE0101960E94711E182F811113C087
:10116000BE01615E7F4FCE0107960E94A025CE0191
:1011700007960E94221E11E0853409F010E0CE018E
:1011800007960E949225CE0101960E949225111188
:101190002FCFCE014F960E94F31D882379F0BE0118
:1011A000615E7F4FCE0101960E94A025CE0101967F
:1011B0000E94EF1CCE0101960E949225CE014F960F
:1011C0000E949225DECA10925C03D2C981E080930E
:1011D000540324CA80914B03882339F08091500333
:1011E0008093510310924B030DC0809147038823D5
:1011F00049F0809150038093490381E08093480334
:101200001092470383E293E00E94E812B4CA81E09F
:1012100080934A03809149030E941D2888CA8091C7
:10122000590390915A03DC01ED91FC910680F781FE
:10123000E02D099561E372E0CE0101960E949725A9
:1012400040E0BE016F5F7F4F83E293E00E94B812DF
:10125000CE0101960E94922564E771E0CE010196CD
:101260000E94A92540E0BE016F5F7F4F83E293E0BB
:101270000E94B812CE0101960E94922560912F0320
:1012800083E293E06DA30E9497128091590390919D
:101290005A03DC01ED91FC910190F081E02D6DA1EC
:1012A000099562E272E0CE0101960E94972541E025
:1012B000BE016F5F7F4F83E293E00E94B812CE01C0
:1012C00001960E9492258091590390915A03DC0166
:1012D000ED91FC910680F781E02D099510922E0387
:1012E0004ACABE01615E7F4FCE0101960E94A025D1
:1012F00040E061E0CE0101960E94CD1ECE01019634
:101300000E949225109238036ECABE01615E7F4F23
:10131000CE0101960E94A025BE016F5F7F4F809194
:101320002303909124030E947A0F182FCE01019677
:101330000E949225112309F40BCDCE0101960E9443
:10134000F020BE016F5F7F4FCE014F960E9459255E
:10135000CE0101960E94922569E072E0CE010196CD
:101360000E949725BE016F5F7F4FCE014F960E946E
:101370000D24182FCE0101960E949225112309F405
:10138000E7CCE0912303F091240311E0158BBF011A
:101390006B5E7F4F86E490E00E943611E09123035C
:1013A000F0912403138BBF016D5E7F4F8EE390E0BD
:1013B0000E943611BE01615E7F4FCE0101960E94F0
:1013C000A02540E0BCCCBE01675E7F4FCE010D96EC
:1013D0000E94A0256DE671E0CE0101960E9497253E
:1013E00061E0CE0101960E943321082FCE010196C3
:1013F0000E949225002309F454C060E671E0CE01FA
:1014000007960E949725BE01635F7F4FCE01079626
:101410000E94FC246EE571E0CE0107960E94ED2447
:10142000BE01695F7F4FCE0101960E94A02561E059
:10143000CE0101960E943321082FCE0101960E9411
:101440009225002349F163E471E0CE0101960E94E8
:10145000972561E0CE0101960E943321082FCE012D
:1014600001960E9492250023B9F06CE271E0CE0152
:1014700001960E94972561E0CE0101960E943321DA
:10148000082FCE0101960E949225002329F0CE015B
:1014900007960E94922505C0CE0107960E949225CC
:1014A00000E0CE010D960E949225002309F481C12F
:1014B0006AE471E0CE0143960E94A92567E971E0D4
:1014C000CE010D960E949725BE01635F7F4FCE012E
:1014D00007960E94A02560E571E0CE0107960E9464
:1014E000ED24BE016D5E7F4FCE0107960E94FC2465
:1014F0006EE571E0CE0107960E94ED24BE01695FA2
:101500007F4FCE0101960E94A02561E0CE01019699
:101510000E943321982ECE0101960E949225992097
:10152000E9F0BE01635F7F4FCE0107960E9442251E
:1015300067E571E0CE0107960E94ED24BE01695F68
:101540007F4FCE0101960E94A02560E0CE0101965A
:101550000E943321CE0101960E949225CE0107966A
:101560000E949225CE010D960E949225CE014396AF
:101570000E949225992009F41CC1E0912303F09167
:1015800024038285811164C00E949F0D2B013C01C0
:101590006AE871E0CE0101960E94972540E0BE0105
:1015A0006F5F7F4F83E293E00E94B812CE010196F5
:1015B0000E9492250E949F0DDC01CB0184199509A0
:1015C000A609B709803C944DA140B10508F0F1C0CF
:1015D0008091590390915A03DC01ED91FC910084B4
:1015E000F185E02D0995892B29F3609159037091BC
:1015F0005A03CE0107960E94D3200B8501506BE75A
:1016000071E0CE0101960E9497252EE0AE014F5F5A
:101610005F4FBE01695F7F4F83E293E00E94D0116C
:10162000082FCE0101960E949225CE010796002335
:1016300009F4BECF0E94A323AB01BC018091230318
:10164000909124030E946B11CE0107960E9492256F
:10165000E0912303F09124034680578060847184D5
:1016600061E871E0CE0143960E94A925BE016D5E3E
:101670007F4FCE010D960E94A0256DE871E0CE014E
:101680000D960E94ED24B301A201CE010D960E9499
:10169000A92469E671E0CE010D960E94ED2462E96D
:1016A00071E0CE0107960E94A925BE016D5E7F4FB5
:1016B000CE0107960E94FC2465E971E0CE010796F1
:1016C0000E94ED240E949F0D2B013C01BE01695F29
:1016D0007F4FCE0101960E94A02540E0BE016F5FC2
:1016E0007F4F83E293E00E94B812CE0101960E94E0
:1016F00092250E949F0DDC01CB0184199509A60952
:10170000B709803C944DA140B10550F58091590333
:1017100090915A03DC01ED91FC910084F185E02D5C
:101720000995892B31F36091590370915A03CE01C9
:1017300001960E94D320BE016F5F7F4FCE010796B6
:101740000E945925CE0101960E949225BE01635F39
:101750007F4FCE0107960E944724882351F2E92C3F
:10176000CE0107960E949225CE010D960E949225E9
:10177000CE0143960E949225EE20D9F081E080931D
:101780003703111110C06BEF71E0CE0101960E947A
:10179000972540E061E0CE0101960E94CD1ECE016A
:1017A00001960E9492250E94D6290E947629FE2C3D
:1017B0005BCA0E94D629E0912303F091240312868C
:1017C0001982BE016F5F7F4F84E893E00E9436115B
:1017D0001A821982BE016F5F7F4F84E993E00E94F5
:1017E000C81C01E00983BE016F5F7F4F80E993E071
:1017F0000E94361100933703111136CA62E671E078
:10180000CE0101960E94A92540E061E0CE0101963B
:101810000E94CD1ECE0101960E94922525CA01E0AC
:1018200001C002E0CE0149960E94A323AB01BC0196
:1018300080912303909124030E946B1167EE71E065
:10184000CE0107960E949725BE01675E7F4FCE01AD
:1018500007960E94FC24111111C0BE01695F7F4FE1
:10186000CE0101960E94A02540E061E0CE010196E4
:101870000E94CD1ECE0101960E949225023011F4E5
:101880000E947629CE0107960E949225F92CECC978
:10189000BE01635F7F4FCE0107960E94A025BE0167
:1018A000695F7F4FCE0101960E94A025CE0101966F
:1018B0000E942D20182F81110DC0BE01695F7F4F3E
:1018C00080912303909124030E94681011E08F3FC0
:1018D00009F410E0CE0101960E949225109327038F
:1018E000CE0107960E94922523CBA5960FB6F894B9
:1018F000DEBF0FBECDBFDF91CF911F910F91FF9043
:10190000EF90DF90CF90BF90AF909F908F907F909F
:101910006F905F904F900895FC01918D228D892FDB
:1019200090E0805C9F4F821B91098F7399270895E7
:1019300080E090E0892B29F00E94302381110C94E3
:1019400000000895833081F028F4813099F08230CE
:10195000A1F008958730A9F08830B9F08430D1F42F
:10196000809180008F7D03C0809180008F7780936D
:101970008000089584B58F7702C084B58F7D84BDC3
:1019800008958091B0008F7703C08091B0008F7D63
:101990008093B00008950895089580E090E0089540
:1019A00081E0809383020895FB01848195814097B3
:1019B00070F0CB0160E070E00E94FC23282F880FBC
:1019C000330B2053310981E02A30310508F080E0E3
:1019D0000895FC01848DDF01A80FB11DA35ABF4FEC
:1019E0002C91848D90E001968F739927848FA6891E
:1019F000B7892C93A089B1898C9180648C93938D45
:101A0000848D981306C00288F389E02D80818F7D34
:101A100080830895CF93DF93282F30E0F901E756B4
:101A2000FD4F8491F901EB57FD4FD491F901EF5827
:101A3000FD4FC491CC2391F081110E94A20CEC2F98
:101A4000F0E0EE0FFF1FE959FD4FA591B491EC9125
:101A5000ED2381E090E021F480E002C080E090E09E
:101A6000DF91CF9108951F93CF93DF93282F30E01C
:101A7000F901E756FD4F8491F901EB57FD4FD491E1
:101A8000F901EF58FD4FC491CC23C9F0162F8111F5
:101A90000E94A20CEC2FF0E0EE0FFF1FE35AFD4F67
:101AA000A591B4918FB7F894111105C09C91ED2FB9
:101AB000E095E92302C0EC91ED2BEC938FBFDF9111
:101AC000CF911F910895CF93DF9390E0FC01EB57E6
:101AD000FD4F2491FC01EF58FD4F8491882361F163
:101AE00090E0880F991FFC01ED5AFD4FC591D491EC
:101AF000FC01E35AFD4FA591B491611109C09FB754
:101B0000F8948881209582238883EC912E230BC042
:101B1000623061F49FB7F8943881822F80958323D7
:101B20008883EC912E2B2C939FBF06C08FB7F8941F
:101B3000E8812E2B28838FBFDF91CF9108952FB797
:101B4000F894609124027091250280912602909170
:101B500027022FBF08950E949F0DE3E2F3E062AFDA
:101B600073AF84AF95AF81E081AF08951F920F925C
:101B70000FB60F9211242F933F938F939F93AF93A0
:101B8000BF938091240290912502A0912602B091EA
:101B900027023091230226E0230F2D3720F40296EE
:101BA000A11DB11D05C029E8230F0396A11DB11D7C
:101BB000209323028093240290932502A09326026F
:101BC000B093270280911F0290912002A0912102E0
:101BD000B09122020196A11DB11D80931F02909326
:101BE0002002A0932102B0932202BF91AF919F9156
:101BF0008F913F912F910F900FBE0F901F901895CE
:101C00001F920F920FB60F9211242F933F934F9371
:101C10005F936F937F938F939F93AF93BF93EF9354
:101C2000FF93E0910201F09103010995FF91EF917B
:101C3000BF91AF919F918F917F916F915F914F91E4
:101C40003F912F910F900FBE0F901F9018951F92EC
:101C50000F920FB60F9211242F933F934F935F93E0
:101C60006F937F938F939F93AF93BF93EF93FF9364
:101C7000E0910001F09101010995FF91EF91BF9171
:101C8000AF919F918F917F916F915F914F913F9114
:101C90002F910F900FBE0F901F9018950F931F93C9
:101CA000CF93DF938C01EB010E9409378883C80131
:101CB00001960E9409378983CE01DF91CF911F9150
:101CC0000F910895CF93DF93EB010E94093788832A
:101CD000CE01DF91CF9108956F927F928F929F9264
:101CE000AF92BF92CF92DF92EF92FF920F931F932A
:101CF000CF93DF93CDB7DEB76C013A01ADB6BEB678
:101D0000822F90E001964DB75EB7481B590B0FB676
:101D1000F8945EBF0FBE4DBF8DB79EB701964C01C4
:101D2000611494E0790650F5FF24F394F20E31F13A
:101D3000E1E0FE1202C0F40120C0C3010E94093795
:101D4000F4018083EE24E3948823C1F00E2D10E08B
:101D5000EF1478F4C801860D971D8115F4E09F07F4
:101D600040F40E940937F401E00FF11F8083E394EF
:101D7000EBCF080D191DF80131971082B401C6018F
:101D80000E94A925C6010FB6F894BEBE0FBEADBE17
:101D9000DF91CF911F910F91FF90EF90DF90CF9047
:101DA000BF90AF909F908F907F906F9008950F930A
:101DB0001F93CF93DF9300D000D000D0CDB7DEB714
:101DC000FC0182818823C1F08B01BF012AE04EE132
:101DD00050E0CE0101960E946C0EBE016F5F7F4FF6
:101DE000C8010E94472411E0811101C010E0CE011A
:101DF00001960E94922501C010E0812F26960FB611
:101E0000F894DEBF0FBECDBFDF91CF911F910F9130
:101E100008958F929F92AF92BF92CF92DF92EF92EE
:101E2000FF920F931F93CF93DF93CDB7DEB76B0174
:101E3000ADB6BEB6FA01E480F580C70101962DB7B4
:101E40003EB7281B390B0FB6F8943EBF0FBE2DBF0F
:101E50000DB71EB70F5F1F4F892B99F001151105A4
:101E600081F0E114F10411F4F8010AC0FA01608173
:101E70007181A701C8010E949E39F801EE0DFF1D76
:101E80001082F80101900020E9F73197E01BF10B77
:101E9000C11424E0D206D8F4FF24F394FE0EC60148
:101EA0008F0D911D8115944090F44801C01AD10AFC
:101EB000882D801B8F1548F4C601880D991DF401EB
:101EC00061914F010E941137F3CF81E001C080E0A2
:101ED0000FB6F894BEBE0FBEADBEDF91CF911F917D
:101EE0000F91FF90EF90DF90CF90BF90AF909F90B9
:101EF0008F9008950F931F93CF93DF9300D000D05E
:101F000000D0CDB7DEB7FC0184898823C1F08B01F6
:101F1000BF012AE04AE450E0CE0101960E946C0E17
:101F2000BE016F5F7F4FC8010E94472411E08111FD
:101F300001C010E0CE0101960E94922501C010E080
:101F4000812F26960FB6F894DEBF0FBECDBFDF916E
:101F5000CF911F910F910895CF93DF93EC01FB0177
:101F60008489882339F02AE04AE450E0CE010E94B7
:101F70006C0E05C061E671E0CE010E94A925CE017C
:101F8000DF91CF910895CF93DF93EC01FB01808126
:101F9000882369F08181882319F04EE150E002C066
:101FA00040E351E02AE0CE010E946C0E05C068E4D7
:101FB00072E0CE010E949725CE01DF91CF91089566
:101FC000DF92EF92FF920F931F93CF93DF9300D096
:101FD00000D000D0CDB7DEB7FC012081222369F10B
:101FE0007B018C012AE040E351E0BC01CE01019667
:101FF0000E946C0EB701CE0101960E944724D82E94
:10200000CE0101960E949225D11019C0B701CE01D0
:1020100001960E94A025F8018081882341F0BE012D
:102020006F5F7F4FC8010E94D70E182F01C010E0CC
:10203000CE0101960E94922503C010E001C011E07C
:10204000812F26960FB6F894DEBF0FBECDBFDF916D
:10205000CF911F910F91FF90EF90DF900895FC01B9
:10206000208121110C94D70E80E008950F931F93C7
:10207000CF93DF9300D000D000D0CDB7DEB7FC0106
:1020800083818823C1F08B01BF012AE040E650E044
:10209000CE0101960E946C0EBE016F5F7F4FC8019A
:1020A0000E94472411E0811101C010E0CE01019689
:1020B0000E94922501C010E0812F26960FB6F89459
:1020C000DEBF0FBECDBFDF91CF911F910F9108955D
:1020D000CF92DF92EF92FF920F931F93CF93DF93F4
:1020E00000D000D000D0CDB7DEB77C016B01FC0181
:1020F0008081811106C0F7018481882309F443C0DF
:1021000030C0CE0101960E94A025BE016F5F7F4FB7
:10211000C7010E94E00F182FCE0101960E94922560
:1021200011114BC011E0F7018081181720F7FBE077
:102130001F9FA0011124405D5E4F2AE0B701CE0130
:1021400001960E946C0EB601CE0101960E944724B2
:10215000082FCE0101960E949225011130C01F5F09
:10216000E2CFB601CE0101960E94A025BE016F5FAD
:102170007F4FC7010E943610182FCE0101960E9492
:102180009225111116C0F70185898823A1F0B601A7
:10219000CE0101960E94A025BE016F5F7F4FC7014F
:1021A0000E947A0F182FCE0101960E9492251123CA
:1021B00011F08EEF05C08FEF03C080E001C0812FCA
:1021C00026960FB6F894DEBF0FBECDBFDF91CF913C
:1021D0001F910F91FF90EF90DF90CF900895EF92B5
:1021E000FF920F931F93CF93DF931F92CDB7DEB76C
:1021F0007C01FC0100811181C80169830E940937BB
:102200006981681719F0C8010E941137C7010F9042
:10221000DF91CF911F910F91FF90EF900895EF9272
:10222000FF920F931F93CF93DF9300D0CDB7DEB70C
:102230008C017B01FB0160819A838983CE01019629
:102240000E94EF10F70161810F5F1F4F1A8309830E
:10225000CE0101960E94EF10C7010F900F90DF9101
:10226000CF911F910F91FF90EF9008950F931F93BF
:10227000CF93DF9300D0CDB7DEB78B01FB01608138
:102280009A838983CE0101960E94EF10C8010F90B6
:102290000F90DF91CF911F910F910895FC016387FB
:1022A000BC01655F7F4F80E090E00C943611CF93C6
:1022B000DF9300D0CDB7DEB7FC01638F8EE090E0F6
:1022C0009A838983CE0101960E94EF100F900F90A0
:1022D000DF91CF910895EF92FF920F931F93CF93C9
:1022E000DF9300D0CDB7DEB721E0FC012287468323
:1022F0005783608771878C010A5F1F4F88E8E82E3B
:1023000083E0F82EF80161918F01FA82E982CE0113
:1023100001960E94EF10FFEFEF1AFF0A8CE8E81613
:1023200083E0F80679F70F900F90DF91CF911F911E
:102330000F91FF90EF900895FC01258D293421F431
:1023400021E025830C94DD2608958F929F92AF9211
:10235000BF92CF92DF92EF92FF92C62E0E949F0D06
:102360004B015C0184E6C89E600111240D2C000C19
:10237000EE08FF080E949F0DDC01CB018819990926
:10238000AA09BB098C159D05AE05BF0598F3FF9002
:10239000EF90DF90CF90BF90AF909F908F90089577
:1023A000EF92FF920F931F93CF93DF9300D000D053
:1023B00000D0CDB7DEB77B01122FBA01C7010E9452
:1023C0000D248823A9F0202F30E0412F50E0B701E1
:1023D000CE0101960E94BE25BE016F5F7F4FC701EF
:1023E0000E945925CE0101960E94922581E001C0EC
:1023F00080E026960FB6F894DEBF0FBECDBFDF910A
:10240000CF911F910F91FF90EF900895CF92DF929F
:10241000EF92FF920F93CF93DF9300D000D000D0C4
:10242000CDB7DEB76C017B01FB010481035062EA8A
:1024300071E0CE0101960E94A92525E0AE014F5F13
:102440005F4FB701C6010E94D011082FCE0101963F
:102450000E949225802F26960FB6F894DEBF0FBEFD
:10246000CDBFDF91CF910F91FF90EF90DF90CF9094
:1024700008958F929F92AF92BF92CF92DF92EF9288
:10248000FF920F93CF93DF93CDB7DEB72C970FB6A4
:10249000F894DEBF0FBECDBF5C016B01FB01048170
:1024A000015060E971E0CE0107960E94A925F6016E
:1024B00084819581892B69F0808091806F817885F6
:1024C000C4010E94AD39009721F07C01E818F90899
:1024D00003C0EE24EA94FE2C67EA71E0CE01019677
:1024E0000E94A92521E02E0DAE014F5F5F4FB6017E
:1024F000C5010E94D011082FCE0101960E9492259D
:10250000CE0107960E949225802F2C960FB6F89444
:10251000DEBF0FBECDBFDF91CF910F91FF90EF9047
:10252000DF90CF90BF90AF909F908F900895CF9302
:10253000DF93EC018E89811112C061E084E00E947A
:10254000330D81E08E8B0E949F0D698F7A8F8B8F68
:102550009C8F61E0CE01DF91CF910C94A5110E9478
:102560009F0D698F7A8F8B8F9C8FDF91CF9108950C
:10257000FF920F931F93CF93DF93EC018B01F42E07
:102580000E94971261E671E0C8010E9428240EA8FB
:10259000DFA9C02D811114C0F801448155816081EB
:1025A0007181E881F9810280F381E02DCE01F11083
:1025B00006C0DF91CF911F910F91FF90099409956B
:1025C000CE01DF91CF911F910F91FF900C94342693
:1025D000CF92DF92FF920F931F93CF93DF93CDB7EC
:1025E000DEB762970FB6F894DEBF0FBECDBFDC0139
:1025F000ED91FC911197238D2E3429F495962C9111
:10260000222309F4A8C08C01FF24F394FC01F7A64F
:102610000E949712D8011D96FC92C8010E94971241
:10262000F80186A997A9DC01ED91FC910680F7815C
:10263000E02D09956DEA71E0CE010D960E94A92565
:10264000F801C080D180D60153968C91882349F03F
:1026500085A1882331F0B601CE0101960E94AC0F0E
:1026600034C0F801F1A0FF2059F161E671E0CE011C
:1026700007960E94A925D6018C91F816B8F4BBE004
:10268000FB9EA0011124405D5E4F2AE0B601CE0101
:1026900001960E946C0EBE016F5F7F4FCE010796C0
:1026A0000E945925CE0101960E949225BE01695FC4
:1026B0007F4FCE010D960E94FC24CE0107960EC0DE
:1026C000B601CE0101960E94C30FBE016F5F7F4F1E
:1026D000CE010D960E94FC24CE0101960E94922507
:1026E0006BE3CE010D960E94DA24BE01635F7F4F3B
:1026F000CE0101960E94A02541E0BE016F5F7F4F91
:10270000C8010E94B812CE0101960E94922561E094
:10271000C8010E94A51161E671E0CE0101960E94F8
:10272000A92541E0BE016F5F7F4FC8010E94B8122A
:10273000CE0101960E9492250E949F0DF801608BA8
:10274000718B828B938B82E5858F8FE4868FCE0190
:102750000D960E94922562960FB6F894DEBF0FBECA
:10276000CDBFDF91CF911F910F91FF90DF90CF9060
:1027700008950F931F93CF93DF93FC01A081B18144
:102780008C91882391F15B968C915B978E3469F1E3
:1027900010AD112351F180A5811103C096A59617A4
:1027A00039F1958D9E3419F5968D9E3401F511A958
:1027B0001123F1F081111BC084A1811118C0062FD3
:1027C000EF0111A252968C91882351F00E949F0D27
:1027D00069A77AA78BA79CA70DA781E088A708C047
:1027E0006EA7CF010E94E81203C011E001C010E003
:1027F000812FDF91CF911F910F9108950F931F9318
:10280000CF93DF9300D000D000D0CDB7DEB78C01DE
:10281000DC01D6968D919C91D797DC01ED91FC91CE
:102820000680F781E02D09956DE372E0CE010196F7
:102830000E94972541E0BE016F5F7F4FC8010E9453
:10284000B812CE0101960E949225F80186A997A997
:10285000DC01ED91FC910680F781E02D099526962B
:102860000FB6F894DEBF0FBECDBFDF91CF911F91A1
:102870000F9108950C94003C089561E081E10C945F
:10288000330D0F931F93CF93DF93EC0141110EC0D3
:102890008AA981110BC0662319F162E38A819B81A9
:1028A000DF91CF911F910F910C949C11022F162F45
:1028B00019AE61E08DE00E94330D0E949F0DFE0174
:1028C000E95BFF4F6083718382839383319781E05B
:1028D00080831AAA60E080E10E94330D1EA708AB36
:1028E000DF91CF911F910F910895FC01A081B181DB
:1028F0001C968C9191A9882321F0992321F083A91A
:102900000895892F089581E008951F93CF93DF9351
:10291000EC011BA9112331F00E947514882311F0DA
:1029200081E00BC0CE010E947514882321F01111A3
:1029300004C084E002C082E000C0DF91CF911F910B
:102940000895CF93DF93FC0122A9211110C0EC015F
:102950000E947514882359F08BA9882341F081E0E7
:102960008CAB0E949F0D6DAB7EAB8FAB98AFDF91B0
:10297000CF9108951F93CF93DF93EC01162FE88139
:10298000F981838581110CC08AA981111EC08BA990
:102990008823D9F061E08DE00E94330D1CAA15C098
:1029A000FE01EA5BFF4F808181110FC08BA9882354
:1029B00061F060E08DE00E94330D112331F0CE0113
:1029C000DF91CF911F910C94A114DF91CF911F91B2
:1029D0000895EF92FF920F931F93CF93DF937B01A4
:1029E0008A01E901F8948AE00E940A0D31E0892BFE
:1029F00009F430E0F70130838BE00E940A0D31E0EA
:102A0000892B09F030E0F801308383E00E940A0D41
:102A100031E0892B09F430E038837894DF91CF914D
:102A20001F910F91FF90EF9008950F931F93CF93F5
:102A3000DF9300D01F92CDB7DEB78C019E012F5FD0
:102A40003F4FAE014E5F5F4FBE016D5F7F4F0E94F3
:102A5000E9149A81F80192AB992311F061E001C069
:102A600060E080E10E94330D8A810F900F900F90FB
:102A7000DF91CF911F910F9108950F931F93CF93E3
:102A8000DF93F89486E00E940A0D8C0187E00E9493
:102A90000A0DEC0185E00E940A0D7894012B31F4B7
:102AA000CD2B31F4892B31F483E005C080E003C0E5
:102AB00081E001C082E0DF91CF911F910F910895D5
:102AC000CF93DF93F89483E10E940A0DEC0182E139
:102AD0000E940A0D7894CD2B21F4892B21F482E0F9
:102AE00003C080E001C081E0DF91CF9108951F9382
:102AF000CF93DF93EC01162F1CAA8BA9882329F012
:102B0000CE010E94751481110FC08A819B8111230F
:102B100031F06EE4DF91CF911F910C949C116EE423
:102B20000E94B9138C833EC08AA9811135C0CE01A1
:102B30000E943D15811106C08A819B81112379F382
:102B400064E5E8CFCE010E946015823049F48A81A5
:102B50009B8166E51111DECF0E94B9138D8B22C0D7
:102B600060E08DE00E94330D60E08CE00E94330D48
:102B70000E943D140E949F0DFE01EF5BFF4F60839A
:102B800071838283938381E08FAF8AAB61E080E1C0
:102B90000E94330D1FA706C0112321F061E38A8133
:102BA0009B81B8CFDF91CF911F9108951F920F9213
:102BB0000FB60F9211248F939F9391E0909306028A
:102BC00080911E028F5F80931E0280911E028E32C2
:102BD00040F080915B02811102C090930702109235
:102BE0001E029F918F910F900FBE0F901F9018950E
:102BF0001F920F920FB60F9211240F900FBE0F90DD
:102C00001F9018951F920F920FB60F9211248F9359
:102C100081E0809383028F910F900FBE0F901F90E1
:102C200018951F920F920FB60F9211248F9381E087
:102C3000809384028F910F900FBE0F901F90189574
:102C4000E0E6F0E098E1908380830895EF92FF92B0
:102C50000F931F93CF93DF93CDB7DEB72A970FB6AD
:102C6000F894DEBF0FBECDBF81E08093370360EEE6
:102C700073E0CE0101960E9497257E0187E0E80E61
:102C8000F11C08E413E0C8010E940937F7018193A1
:102C90007F010F5F1F4F0C34F3E01F07A1F74F8137
:102CA000588569857A85CE0101960E94A92440E065
:102CB00061E0CE0101960E94CD1ECE0101960E94D8
:102CC00092252A960FB6F894DEBF0FBECDBFDF91D6
:102CD000CF911F910F91FF90EF900895CF93DF93C5
:102CE00000D000D000D0CDB7DEB762ED73E0CE01EA
:102CF00001960E94972560E0CE0101960E94332143
:102D0000CE0101960E94922526960FB6F894DEBF5A
:102D10000FBECDBFDF91CF910895AF92BF92DF92EA
:102D2000EF92FF920F931F93CF93DF93CDB7DEB750
:102D300062970FB6F894DEBF0FBECDBF7C01B62EF2
:102D4000D42E122F60933703BC01CE010D960E9442
:102D5000A0256DEC73E0CE0101960E949725BE017F
:102D60006F5F7F4FC7010E940D24082FCE0101968F
:102D70000E949225002319F00E946E16C6C564ECCD
:102D800073E0CE0101960E949725BE016F5F7F4FD1
:102D9000C7010E940D24082FCE0101960E949225A2
:102DA000002311F10091230310912403BB2019F09B
:102DB000F801108203C081E0F8018083B8018CE241
:102DC00091E00E943611F8011182B8016F5F7F4FC8
:102DD0008AE190E00E943611F8011282B8016E5F1C
:102DE0007F4F86E190E08FC56CEB73E0CE010196DA
:102DF0000E949725BE016F5F7F4FC7010E940D247F
:102E0000082FCE0101960E949225002309F45DC08F
:102E100060E080912303909124030E944E11E09181
:102E20002303F0912403138ABF016D5E7F4F8EE36D
:102E300090E00E943611E0912303F0912403128A5E
:102E4000BF016E5E7F4F8AE390E00E943611E091F1
:102E50002303F09124031486BF01645F7F4F86E350
:102E600090E00E943611E0912303F0912403128E2A
:102E7000BF01665E7F4F8CE090E00E94361163E4F4
:102E800080912303909124030E945711E091230322
:102E9000F091240382E390E0978B868BBF016A5EFA
:102EA0007F4F84E090E00E940F11E0912303F091A6
:102EB000240382E090E0918F808FBF01685E7F4F96
:102EC00082E190E00E940F1120C568EB73E0CE0113
:102ED00001960E949725BE016F5F7F4FC7010E9438
:102EE0000D24082FCE0101960E9492250023F1F1B6
:102EF000E0902303F090240361E671E0CE01079691
:102F00000E94A92510E0F70180811817F8F4FBE072
:102F10001F9FA0011124405D5E4F2AE0B701CE0142
:102F200001960E946C0EBE016F5F7F4FCE01079627
:102F30000E94FC24CE0101960E94922560E671E079
:102F4000CE0107960E94ED241F5FDDCF61E671E0A0
:102F5000CE0107960E942824882309F4EEC46EEA65
:102F600073E0CE0107960E940325E7C468EA73E088
:102F7000CE0101960E949725BE016F5F7F4FC7016A
:102F80000E940D24082FCE0101960E949225002355
:102F900029F083E293E00E943A14F8C464EA73E0F3
:102FA000CE0101960E949725BE016F5F7F4FC7013A
:102FB0000E940D24082FCE0101960E949225002325
:102FC00019F00E942616CEC46DE973E0CE01019679
:102FD0000E949725BE016F5F7F4FC7010E940D249D
:102FE000082FCE0101960E949225002311F061E086
:102FF00014C065E973E0CE0101960E949725BE01D9
:103000006F5F7F4FC7010E940D24082FCE010196EC
:103010000E949225002379F060E080912303909133
:1030200024030E944E1161E08091250390912603B4
:103030000E94BA146AC46FE873E0CE0101960E9440
:103040009725BE016F5F7F4FC7010E940D24082F97
:10305000CE0101960E949225002339F0E0912303CE
:10306000F091240381E0848718C068E873E0CE0102
:1030700001960E949725BE016F5F7F4FC7010E9496
:103080000D24082FCE0101960E949225002359F0AD
:10309000E0912303F09124031486BF01645F7F4F06
:1030A00086E390E030C462E873E0CE0101960E94AE
:1030B0009725BE016F5F7F4FC7010E940D24082F27
:1030C000CE0101960E949225002339F0E09123035E
:1030D000F091240381E0828F18C06BE773E0CE018A
:1030E00001960E949725BE016F5F7F4FC7010E9426
:1030F0000D24082FCE0101960E949225002359F03D
:10310000E0912303F0912403128EBF01665E7F4F8E
:103110008CE090E0F8C366E773E0CE0101960E9470
:103120009725BE016F5F7F4FC7010E940D24082FB6
:10313000CE0101960E9492250023E1F0F7018481DF
:103140009581059708F422C464E070E0C7010E94ED
:10315000FC23982F9D7F913429F0843519F08E340B
:1031600009F014C4682F80912303909124030E94D6
:103170005711CBC360E773E0CE0101960E949725FB
:10318000BE016F5F7F4FC7010E940D24082FCE0143
:1031900001960E949225002399F0E0912303F0917B
:1031A00024038489882309F4F1C385898111EEC33E
:1031B00064EF72E0CE0101960E94972541E0E2C0E3
:1031C00069E673E0CE0101960E949725BE016F5F0C
:1031D0007F4FC7010E940D24082FCE0101960E9447
:1031E0009225002339F0E0912303F0912403138A00
:1031F000BF0185C362E673E0CE0101960E94972568
:10320000BE016F5F7F4FC7010E940D24082FCE01C2
:1032100001960E949225002309F4BCC06BE573E07F
:10322000C7010E94032546E052E160E070E0C7015B
:103230000E94D921882339F0C7010E94A323162FA9
:10324000110F160F01C01FEF65E083E293E00E94AB
:10325000A51164E573E0C7010E94032549E352E12B
:1032600060E070E0C7010E94D921882349F160E93C
:1032700071E0CE0107960E94A925F701448155818E
:103280008B859C85481B590BBE01695F7F4FC70129
:103290000E94AE239C0140E050E0B701CE010196B0
:1032A0000E94BE25CE0101960E94A323062FCE01C7
:1032B00001960E949225CE0107960E94922501C098
:1032C0000FEFA0902503B0902603C5010E9485143E
:1032D000F82EF501E2A86DEE72E0CE0101960E9493
:1032E0009725E0912303F09124038385811106C083
:1032F00065EE72E0CE0101960E94032564EB71E059
:10330000CE0101960E94ED24F1E0FF1631F082E03B
:10331000F81631F065ED72E005C069EC72E002C0AC
:103320006BED72E0CE0101960E9479246EEC72E0A2
:10333000CE0101960E947924E11003C06EEB72E089
:1033400002C064EC72E0CE0101960E9479240F3F26
:1033500059F067EB72E0CE0101960E947924602F4C
:10336000CE0101960E94C1341F3F59F06DEA72E010
:10337000CE0101960E947924612FCE0101960E9410
:10338000C13440E061E0CE0101960E94CD1ECE0125
:103390000196E6C26FE473E0CE0101960E94972584
:1033A000BE016F5F7F4FC7010E940D24882321F06B
:1033B000BB2019F011E001C010E0CE0101960E947F
:1033C0009225112359F0E0912303F0912403828187
:1033D000882309F4DBC281E0818318C069E473E0CB
:1033E000CE0101960E949725BE016F5F7F4FC701F6
:1033F0000E940D24182FCE0101960E9492251123C0
:1034000059F0E0912303F09124031182BF016F5F13
:103410007F4F8AE190E077C2F7010481015063E4B5
:1034200073E0CE0101960E94972525E0AE014F5F23
:103430005F4FB70183E293E00E94D011182FCE01B5
:1034400001960E9492251123F1F0C7010E94AE203F
:10345000882309F49BC2C7010E94A3238B01663015
:10346000710510F005E010E0E0912303F0912403D2
:10347000028BBF016E5E7F4F8AE390E00E9436119F
:103480006DE373E07BC0F7010481015064E373E0F6
:10349000CE0101960E94972528E0AE014F5F5F4F55
:1034A000B70183E293E00E94D011182FCE0101965C
:1034B0000E949225112329F1C7010E94AE20882382
:1034C00009F464C2C7010E94A3238B016230710515
:1034D00030F0613B744028F000EB14E002C002E0E1
:1034E00010E0E0912303F0912403118F008FBF01BE
:1034F000685E7F4F82E190E00E940F116BE273E003
:103500003DC0F7010481015062E273E0CE010196F3
:103510000E94972528E0AE014F5F5F4FB70183E21D
:1035200093E00E94D011182FCE0101960E9492259F
:10353000112371F1C7010E94AE20882309F426C22D
:10354000C7010E94A3238B016233710530F06138FB
:10355000704728F000E810E702C002E310E0E091B5
:103560002303F0912403178B068BBF016A5E7F4F04
:1035700084E090E00E940F1169E173E0CE010D96A6
:103580000E940325B801CE010D960E949134BDC161
:10359000F7010481015065E173E0CE0101960E94BC
:1035A000972523E0AE014F5F5F4FB70183E293E0C1
:1035B0000E94D011182FCE0101960E94922511234E
:1035C00021F169E073E0CE0107960E949725B701CB
:1035D000CE0107960E94FC2462E771E0CE010796B7
:1035E0000E94ED2481E080933803BE01695F7F4F24
:1035F000CE0101960E94A02541E0BE016F5F7F4F82
:1036000083E293E00E94B812A5C169EB71E0CE019C
:1036100001960E94A9250CE022E0AE014F5F5F4FAA
:10362000B70183E293E00E94D011182FCE010196DA
:103630000E949225112309F448C0C7010E94AE20C0
:10364000882309F4A3C10091230310912403F801F6
:103650008081823008F49AC1B701C8010E946810C5
:10366000F82E8FEF8F0D8D3F08F090C18BE0E82E84
:103670002F2D30E0F8019081492F50E04150510941
:1036800024173507FCF42F5F3F4FE29E5001E39E65
:10369000B00C1124A501405D5E4F2AE0B801CE01B7
:1036A00001960E946C0EB5016B5D7E4FAE014F5FBF
:1036B0005F4FC8010E94090FCE0101960E9492251A
:1036C000F394D6CF9150908348C06DEB71E0CE015A
:1036D00001960E94A9250CE022E0AE014F5F5F4FEA
:1036E000B70183E293E00E94D011182FCE0101961A
:1036F0000E9492251123A9F1C7010E94AE208823C0
:1037000009F444C10091230310912403F80180813E
:103710008F3009F43BC1B701C8010E9468108F3F88
:1037200009F034C1B701CE0101960E94A025F8012D
:103730006081FBE06F9FB0011124605D7E4FAE01A0
:103740004F5F5F4FC8010E94090FCE0101960E9492
:103750009225F80180818F5F8083B8018CE291E02F
:10376000D2C06CEB71E0CE0101960E94A9250DE05C
:1037700023E0AE014F5F5F4FB70183E293E00E9409
:10378000D011182FCE0101960E949225112351F1DC
:10379000C7010E94AE20882309F4F8C000912303DA
:1037A00010912403F8018081882309F4EFC081E09F
:1037B0008283B8016E5F7F4F86E190E00E943611F0
:1037C000B701CE0101960E94A025AE014F5F5F4F69
:1037D0006EE170E0C8010E94090FCE0101960E94BF
:1037E000922593C060EC71E0CE0101960E94A9255C
:1037F0000DE023E0AE014F5F5F4FB70183E293E03E
:103800000E94D011182FCE0101960E9492251123FB
:1038100069F1C7010E94AE20882309F4B7C0009166
:1038200023031091240381E0F8018383B8016D5FC5
:103830007F4F88E590E00E943611B701CE010196D6
:103840000E94A025AE014F5F5F4F60E670E0C801A7
:103850000E94090FCE0101960E949225F801148260
:10386000B8016C5F7F4F8CE590E04DC064EC71E077
:10387000CE0101960E94A9250DE023E0AE014F5F25
:103880005F4FB70183E293E00E94D011182FCE0161
:1038900001960E949225112309F478C0C7010E9465
:1038A000AE20882309F472C00091230310912403F1
:1038B00081E0F801848BB8016C5E7F4F82E490E078
:1038C0000E943611B701CE0101960E94A025AE01DB
:1038D0004F5F5F4F6AE470E0C8010E94090FCE019C
:1038E00001960E949225F801158AB8016B5E7F4F00
:1038F00086E490E00E943611F801138AB8016D5EEB
:103900007F4F8EE390E00E94361111E0D1102AC063
:1039100063E073E0CE0107960E949725111106C05F
:103920006AEF72E0CE0107960E940325BE01635F35
:103930007F4FCE0107960E94FC24BE01695F7F4F36
:10394000CE0101960E94A02540E061E0CE010196E3
:103950000E94CD1ECE0101960E949225CE010796AF
:103960000E949225CE010D960E94922562960FB676
:10397000F894DEBF0FBECDBFDF91CF911F910F91A5
:10398000FF90EF90DF90BF90AF90089510E0BECF12
:10399000EF92FF920F931F93CF93DF9300D0CDB799
:1039A000DEB78C017B01FB0160819A838983CE01A4
:1039B00001960E94EF10F70161810F5F1F4F1A837C
:1039C0000983CE0101960E94EF10C7010F900F905E
:1039D000DF91CF911F910F91FF90EF900895CF93BA
:1039E000DF9360E070E00E94FC23909148039923EC
:1039F00051F0813409F0F4C081E080934503DF91F8
:103A0000CF910C947B28813371F483E58093530329
:103A10000E940E2861E08091250390912603DF919A
:103A2000CF910C947715823381F48FE48093530304
:103A30000E940E2820E040E061E0809125039091F3
:103A40002603DF91CF910C944114833341F584E533
:103A5000809353030E940E28C0912503D091260322
:103A6000CE010E948514843011F46CE403C08230CE
:103A700039F461E48A819B81DF91CF910C949C1190
:103A8000813009F0ADC0CE010E9415152A813B811D
:103A9000882311F061E301C063E3C901EDCF8433F2
:103AA000E9F487E5809353030E940E28C091250313
:103AB000D0912603CE010E943D15811102C064E51C
:103AC000D9CF813011F461E5D5CF823011F462E5B0
:103AD000D1CF833009F084C065E4CCCF8533C1F405
:103AE00086E5809353030E940E28C0912503D09150
:103AF0002603CE010E946015823011F466E5BACF2C
:103B0000813011F468E5B6CF81116AC067E5B2CFA4
:103B10008434C9F481E38093530361E080912303EB
:103B2000909124030E944E1161E0809125039091B1
:103B300026030E94BA1460E0809125039091260329
:103B40000E94771515C08334C1F482E38093530338
:103B500060E080912303909124030E944E1121E0A4
:103B600040E060E080912503909126030E9441147B
:103B70008FEFDF91CF910C941D288833A9F40E9418
:103B80000E2861E080912303909124030E944E113E
:103B900061E080912503909126030E94BA1481E090
:103BA0008093280368E316C08933D1F40E940E285D
:103BB00060E080912303909124030E944E1161E004
:103BC00080912503909126030E94BA1481E080938E
:103BD000280369E383E293E0DF91CF910C94DD2623
:103BE000DF91CF910895EF92FF920F931F93CF93A0
:103BF000DF9300D000D000D0CDB7DEB77C0168ECF9
:103C000071E0CE0101960E94A92508E027E0AE01EF
:103C10004F5F5F4FB70183E293E00E94D011182FEE
:103C2000CE0101960E949225812F26960FB6F89418
:103C3000DEBF0FBECDBFDF91CF911F910F91FF90DF
:103C4000EF900895FF920F931F93CF93DF9300D0CF
:103C500000D000D0CDB7DEB78C0161E574E0CE01B5
:103C600001960E949725BE016F5F7F4FC8010E9499
:103C70000D24F82ECE0101960E949225FF20E1F03E
:103C80002CE030E04BE050E0B801CE0101960E94FC
:103C9000BE2560E070E0CE0101960E94FC23182F43
:103CA000CE0101960E949225123341F0133341F068
:103CB000103341F0163341F08EE407C084E405C0B0
:103CC00082E503C089E401C085E426960FB6F89426
:103CD000DEBF0FBECDBFDF91CF911F910F91FF903F
:103CE0000895FF920F931F93CF93DF9300D000D0DE
:103CF00000D0CDB7DEB78C0165E474E0CE0101964B
:103D00000E949725BE016F5F7F4FC8010E94472424
:103D1000F82ECE0101960E949225FF2011F091E02D
:103D20002FC06FE374E0CE0101960E949725BE017B
:103D30006F5F7F4FC8010E944724F82ECE01019685
:103D40000E949225F110EBCF64E374E0CE0101965E
:103D50000E949725BE016F5F7F4FC8010E944724D4
:103D6000F82ECE0101960E949225F110D8CF60ED79
:103D700071E0C8010E94282491E0811101C090E007
:103D8000892F26960FB6F894DEBF0FBECDBFDF9108
:103D9000CF911F910F91FF900895EF92FF920F9393
:103DA0001F93CF93DF93CDB7DEB762970FB6F8942A
:103DB000DEBF0FBECDBF7C01062F142F81E08093A4
:103DC00030038091590390915A03DC01ED91FC91ED
:103DD0000680F781E02D0995B701CE010D960E946E
:103DE000A025011126C0809151038F34B1F034F425
:103DF000833499F0863409F0F2C00FC0833521F086
:103E0000853509F0ECC009C067ED71E0CE010D9673
:103E10000E942B256EED71E008C067ED71E0CE01C8
:103E20000D960E942B2561EE71E0CE010D960E9449
:103E3000ED2465EE71E0CE0107960E94A9251230AF
:103E4000B9F46091230370912403FB0183818823DB
:103E500041F02AE040E650E0CE0101960E946C0E4F
:103E600025C061E671E0CE0101960E94A9251EC021
:103E7000113049F46091230370912403CE0101961F
:103E80000E94AC0F13C080913703882339F069E298
:103E900074E0CE0107960E94792413C06091230339
:103EA00070912403CE0101960E94C30FBE016F5F83
:103EB0007F4FCE0107960E94FC24CE0101960E94FE
:103EC000922562E771E0CE0107960E94ED24809171
:103ED000590390915A03DC01ED91FC910680F78122
:103EE000E02D0995BE01695F7F4FCE0101960E94CA
:103EF000A02541E0BE016F5F7F4F83E293E00E9407
:103F0000B812CE0101960E9492258091590390919A
:103F10005A03DC01ED91FC910680F781E02D0995B3
:103F20006AE083E293E00E94A511BE01635F7F4FC8
:103F3000CE0101960E94A02541E0BE016F5F7F4F38
:103F400083E293E00E94B812CE0101960E9492256E
:103F50008091590390915A03DC01ED91FC91068008
:103F6000F781E02D09956AE083E293E00E94A511B4
:103F70008091590390915A03DC01ED91FC910680E8
:103F8000F781E02D099583E293E00E94971200915A
:103F9000590310915A03D801ED91FC910190F081E1
:103FA000E02D6AE1C8010995C8010E94342680917C
:103FB000590390915A03DC01ED91FC910680F78141
:103FC000E02D09956AE083E293E00E94A51110922A
:103FD000370310923003CE0107960E949225CE013E
:103FE0000D960E94922562960FB6F894DEBF0FBE22
:103FF000CDBFDF91CF911F910F91FF90EF9008956A
:10400000CF93DF9300D000D000D0CDB7DEB7909132
:104010004303911119C0E0912303F0912403938D80
:10402000913491F48093510361E671E0CE010196E1
:104030000E94A92540E060E0CE0101960E94CD1EBD
:10404000CE0101960E94922526960FB6F894DEBF07
:104050000FBECDBFDF91CF9108950F931F93CF93E4
:10406000DF93CDB7DEB76E970FB6F894DEBF0FBE05
:10407000CDBF8C016EE174E0CE0101960E949725C0
:10408000BE016F5F7F4FC8010E94472481114DC060
:1040900063E174E0CE0107960E949725BE01695F37
:1040A0007F4FC8010E944724811141C068E074E03D
:1040B000CE010D960E949725BE01635F7F4FC80118
:1040C0000E944724811135C06DEF73E0CE01439605
:1040D0000E949725BE016D5E7F4FC8010E94472454
:1040E000811115C062EF73E0CE0149960E949725B9
:1040F000BE01675E7F4FC8010E94472411E0811115
:1041000001C010E0CE0149960E94922501C011E045
:10411000CE0143960E949225CE010D960E949225D3
:10412000CE0107960E94922509C080E004C081E07C
:1041300002C011E0F1CF11E08111F2CFCE01019662
:104140000E949225812F6E960FB6F894DEBF0FBEA7
:10415000CDBFDF91CF911F910F910895EF92FF9204
:104160000F931F93CF938C01FC01E480F580C0E096
:104170006C2F70E06E157F0568F4C8010E94FC2367
:10418000282F880F330B205331092A30310520F4B2
:10419000CF5FEECF81E001C080E0CF911F910F9102
:1041A000FF90EF9008950F931F93CF93DF93EC014F
:1041B0008B0161E671E00E94A925C8010E940426D6
:1041C00097FD08C08A30910529F0682FCE010E9422
:1041D000DA24F3CFCE01DF91CF911F910F91089593
:1041E000EF92FF920F931F93CF93DF9300D000D0F5
:1041F00000D0CDB7DEB78C0161E671E00E94A92541
:104200008091590390915A03DC01ED91FC91008457
:10421000F185E02D099518161906BCF483E293E0A8
:104220000E9497126091590370915A03CE01019632
:104230007C010E94D3200E151F0521F0B701C80193
:104240000E945925C7010E949225C80126960FB6E3
:10425000F894DEBF0FBECDBFDF91CF911F910F91BC
:10426000FF90EF9008958F929F92AF92BF92CF925E
:10427000DF92EF92FF921F93CF93DF9300D000D095
:1042800000D0CDB7DEB7162FBC01CE0101960E943B
:10429000A02540E0BE016F5F7F4F83E293E00E9464
:1042A000B812CE0101960E9492250E949F0D4B01EB
:1042B0005C01112339F090E6C92E9AEED92EE12C3B
:1042C000F12C15C088EBC82E8BE0D82EE12CF12CF8
:1042D0000EC08091590390915A03DC01ED91FC913D
:1042E0000084F185E02D09951816190674F00E94D6
:1042F0009F0DDC01CB0188199909AA09BB098C150E
:104300009D05AE05BF0528F321C0CE0101960E9490
:10431000F02062EF71E0CE0101960E942824811105
:104320000DC060ED71E0CE0101960E94282481113C
:1043300007C0CE0101960E949225D9CF11E001C09D
:1043400010E0CE0101960E94922501C010E0812F5D
:1043500026960FB6F894DEBF0FBECDBFDF91CF918A
:104360001F91FF90EF90DF90CF90BF90AF909F9004
:104370008F900895CF93DF9300D000D000D0CDB7B9
:10438000DEB764EE73E0CE0101960E94972560E0EF
:10439000CE0101960E943321CE0101960E94922502
:1043A00026960FB6F894DEBF0FBECDBFDF91CF913A
:1043B00008958F929F92AF92BF92CF92DF92EF9229
:1043C000FF920F931F93CF93DF9300D000D000D0C4
:1043D000CDB7DEB76C017A010E949F0D4B015C01E5
:1043E000B601CE0101960E94A02541E0BE016F5F9B
:1043F0007F4F83E293E00E94B812CE0101960E94A3
:1044000092250E949F0D8B019C01081919092A0908
:104410003B09003A1F402105310530F580915903D1
:1044200090915A03DC01ED91FC910084F185E02D1F
:104430000995892B31F3CE0101960E94F020BE012F
:104440006F5F7F4F83E293E0F7010995182F882370
:10445000A1F2BE016F5F7F4FC6010E944225CE01CF
:1044600001960E94922501C010E0812F26960FB67A
:10447000F894DEBF0FBECDBFDF91CF911F910F919A
:10448000FF90EF90DF90CF90BF90AF909F908F9074
:1044900008950895CF92DF92EF92FF920F931F93AA
:1044A000CF93DF936C017A018B01C0E0D0E0CE1591
:1044B000DF0589F0D8016D918D01D601ED91FC9158
:1044C0000190F081E02DC6010995892B11F47E0140
:1044D00002C02196ECCFC701DF91CF911F910F91C0
:1044E000FF90EF90DF90CF900895FC01538D448DA5
:1044F000252F30E0842F90E0821B930B541710F08F
:10450000CF96089501970895FC01918D828D98179B
:1045100061F0828DDF01A80FB11D5D968C91928DA7
:104520009F5F9F73928F90E008958FEF9FEF0895A4
:10453000FC01918D828D981731F0828DE80FF11D6D
:10454000858D90E008958FEF9FEF08950E94623966
:10455000CF93DF93EC0188819981009711F00E943D
:104560000038198218821D821C821B821A82DF91F8
:10457000CF9108950F931F93CF93DF93EC01888120
:104580009981009729F02A813B812617370788F403
:104590008B016F5F7F4F0E949838009761F099837D
:1045A00088831B830A832C813D81232B11F4FC011A
:1045B000108281E001C080E0DF91CF911F910F91C7
:1045C0000895EF92FF920F931F93CF93DF93FC0117
:1045D000248135816115710511F480E019C0411500
:1045E0005105A9F07B01EC018A01020F131FB801EC
:1045F0000E94BA22882389F3288139818C819D8188
:10460000B701820F931F0E9489391D830C8381E0BB
:10461000DF91CF911F910F91FF90EF900895EF924E
:10462000FF920F931F93CF93DF93EC017B018A01DD
:10463000BA010E94BA22811104C0CE010E94A822B0
:1046400007C01D830C83B701888199810E94893935
:10465000CE01DF91CF911F910F91FF90EF900895C0
:1046600086E892E00E948C0C21E0892B09F420E07E
:10467000822F0895EF92FF920F931F93CF93DF93B2
:10468000EC0181E0888F9B8D8C8D981305C0E889A3
:10469000F989808185FD24C0F62E0B8D10E00F5F17
:1046A0001F4F0F731127E02E8C8DE8120CC00FB630
:1046B00007FCFACFE889F989808185FFF5CFCE0123
:1046C0000E94E90CF1CF8B8DFE01E80FF11DE35A3A
:1046D000FF4FF0820B8FEA89FB898081806207C0DF
:1046E000EE89FF896083E889F9898081806480830D
:1046F00081E090E0DF91CF911F910F91FF90EF90BB
:104700000895CF93DF93EC01888D8823C9F0EA895F
:10471000FB89808185FD05C0A889B9898C9186FDBA
:104720000FC00FB607FCF5CF808185FFF2CFA889B7
:10473000B9898C9185FFEDCFCE010E94E90CE7CFBE
:10474000DF91CF910895FC0180819181009711F054
:104750000C94663660E070E0CB010895AF92BF9292
:10476000CF92DF92EF92FF920F931F93CF93DF933D
:104770007B018A01FB01448155814115510561F19D
:10478000FC01248135812115310531F124173507CC
:1047900018F10217130718F0890101501109FC01E3
:1047A000A080B180C501DFEFCFEF6501C00ED11E43
:1047B000C816D906A0F0F701608171810E94AD3959
:1047C000009769F09C012A193B090217130710F0A2
:1047D000D22FC32F0196ECCF8FEF9FEF02C08D2F0A
:1047E0009C2FDF91CF911F910F91FF90EF90DF9061
:1047F000CF90BF90AF900895FC012481358162175E
:10480000730748F480819181009729F0FC01E60F3D
:10481000F71F8081089580E00895FB014481558150
:10482000FC01248135812417350778F0808191813E
:10483000009759F0FB01608171816115710529F0C4
:104840000E94903921E0892B09F020E0822F089501
:10485000FC0124813581232B31F421E061157105A0
:10486000A1F0FB0108C0FC018081918161157105F7
:1048700031F421E0FC018081882339F005C00E94D9
:10488000803921E0892B09F020E0822F0895FC0176
:1048900024813581FB01448155812417350721F599
:1048A000FC0180819181FB0160817181009719F089
:1048B00061157105A1F46115710549F0232BB1F063
:1048C000FB01808190E09195819591090AC0009744
:1048D00069F0232B59F0FC01808190E002C00E9416
:1048E000803921E0892B19F020E001C021E0822FDE
:1048F0000895EF92FF920F931F93CF93DF9361156B
:10490000710511F480E01EC08B01EC01CB010E9407
:1049100094360097B1F02C813D817C01E20EF31EAC
:10492000B701CE010E94BA22882361F32881398120
:104930008C819D81B801820F931F0E948D36FD826C
:10494000EC8281E0DF91CF911F910F91FF90EF906A
:104950000895EF92FF920F931F93CF93DF93CDB7FC
:10496000DEB72D970FB6F894DEBF0FBECDBF7C012A
:10497000CB01BA012AE08E010F5F1F4FA8010E94F0
:10498000BD36F80101900020E9F73197AF01401BD7
:10499000510BB801C7010E94E1222D960FB6F89481
:1049A000DEBF0FBECDBFDF91CF911F910F91FF9062
:1049B000EF900895CF93DF9300D0CDB7DEB7698332
:1049C0001A8241E050E0BE016F5F7F4F0E94E122FA
:1049D0000F900F90DF91CF9108956115710551F0FF
:1049E000FB0101900020E9F73197AF01461B570BFF
:1049F0000C94E12280E00895FB014481558160819F
:104A000071810C94E122EF92FF920F931F93CF9349
:104A1000DF93EC018B016115710551F0CB010E9410
:104A200094367C01BC01CE010E94BA22811104C0DF
:104A3000CE010E94A82207C0FD82EC82B8018881C5
:104A400099810E948D36CE01DF91CF911F910F91F8
:104A5000FF90EF900895CF93DF93EC0161157105FE
:104A600059F0FB0101900020E9F73197AF01461B97
:104A7000570B0E940F2302C00E94A822CE01DF9193
:104A8000CF910895CF93DF93EC01FB018617970731
:104A900061F0608171816115710529F04481558152
:104AA0000E940F2302C00E94A822CE01DF91CF9165
:104AB00008950F931F93CF93DF938C01EB01FC01BB
:104AC000808191810097B1F06881798161157105CC
:104AD00079F0428153812C813D814217530740F088
:104AE0000E9489398C819D81F8019583848313C04C
:104AF0000E94003888819981F801918380838A819E
:104B00009B81938382838C819D8195838483198289
:104B100018821B821A821D821C82DF91CF911F9105
:104B20000F910895FC01808191810C940038FC0163
:104B30001182108213821282158214820C94032532
:104B4000FC011182108213821282158214820C944D
:104B50004225FC0111821082138212821582148276
:104B60006115710551F0FB0101900020E9F73197C3
:104B7000AF01461B570B0C940F230895BF92CF92A1
:104B8000DF92EF92FF920F931F93CF93DF937C01FD
:104B90006B018A01E9012417350720F4812F89016F
:104BA000C42FD82F61E671E0C7010E94A925D60164
:104BB00014968D919C91159708171907D0F48C17AE
:104BC0009D0708F4EC01D601ED91FC911197EC0FD3
:104BD000FD1FB08010824D915C91BA01600F711F72
:104BE000C7010E942B25D601ED91FC91EC0FFD1F12
:104BF000B082C701DF91CF911F910F91FF90EF908D
:104C0000DF90CF90BF9008950F931F93CF93DF93C2
:104C1000EC010E949F0D688779878A879B87E881CE
:104C2000F9810284F385E02DCE01099597FF17C025
:104C30000E949F0D088519852A853B85DC01CB01E3
:104C4000801B910BA20BB30B0C811D812E813F8128
:104C500080179107A207B30710F38FEF9FEFDF9143
:104C6000CF911F910F910895DC01ED91FC9102808D
:104C7000F381E02D42E050E06FE571E009941F926E
:104C80000F920FB60F9211242F933F934F935F9380
:104C90006F937F938F939F93AF93BF93EF93FF9304
:104CA00086E892E00E94E90CFF91EF91BF91AF91ED
:104CB0009F918F917F916F915F914F913F912F9134
:104CC0000F900FBE0F901F9018951F920F920FB666
:104CD0000F9211242F938F939F93EF93FF93E09163
:104CE0009602F09197028081E0919C02F0919D02E2
:104CF00082FD12C0908180919F028F5F8F732091FF
:104D0000A002821751F0E0919F02F0E0EA57FD4FB8
:104D1000958F80939F0201C08081FF91EF919F91B9
:104D20008F912F910F900FBE0F901F901895FC013F
:104D3000A089B18982E08C93A485B5851C92A68553
:104D4000B78583E38C93108EA489B58986E08C9314
:104D5000A289B3898C9180618C93A289B3898C914B
:104D600088608C93A289B3898C9180688C93028827
:104D7000F389E02D80818F7D8083089580913803B1
:104D8000811119C0909140039E34B1F49091410378
:104D90009E3491F490915403992371F090915203B1
:104DA00091110AC090913003911106C090915C035B
:104DB00081E08927089580E008951F93CF93DF93C2
:104DC000EC01162F8EA99FA9DC01ED91FC910680C4
:104DD000F781E02D0995CE010E94FE130E949F0DE0
:104DE0006F83788789879A8781E08B871EA71C87C6
:104DF000DF91CF911F910895CF93DF93C0918002EF
:104E0000D091820280917F02C81305C090918102E7
:104E1000D91709F4D8C090915A02992309F482C095
:104E2000C11124C0882309F45CC020E041E060E0A7
:104E300088E292E00E94411469E480912A029091F4
:104E40002B020E94B91380933802E0912802F0915E
:104E500029028389882309F444C080917F0282302B
:104E600008F43FC081E0809352023BC0C330B9F4E4
:104E70008330B8F5E0912802F091290283898823D4
:104E800021F081E0809353022CC065E480912A02D6
:104E900090912B020E94B91380933B0222C0C13033
:104EA00099F48230F0F0E0912802F0912902838990
:104EB0008111D8CF64E480912A0290912B020E9444
:104EC000B913809339020DC0C23059F4823048F4CE
:104ED0006AE580912A0290912B020E94B913809377
:104EE0003C0280918102D81709F469C0D230A1F444
:104EF000823008F064C020E041E060E088E292E0A7
:104F00000E94411466E580912A0290912B020E9432
:104F1000B91380933D0253C0D11151C0882309F4C5
:104F20004EC044C0E0912802F09129029389992350
:104F300041F0C23030F4823028F181E08093520297
:104F400021C0C33091F48330E8F4992321F081E04B
:104F50008093530217C065E480912A0290912B023E
:104F60000E94B91380933B020DC0C23059F48230C5
:104F700048F4D23020F58385882321F088E292E03E
:104F80000E94A114D1111BC0809181028823B9F025
:104F9000CC23A9F0E0912802F0912902838588238F
:104FA00029F088E292E00E94A11409C067E580918F
:104FB0002A0290912B020E94B91380933E02D09353
:104FC0008102C0937F02DF91CF910895CF93DF9349
:104FD00088E292E00E943D15D82F88E292E00E947C
:104FE0006015C82F80917F02D81721F08091800230
:104FF000D81741F080918102C81741F08091820258
:10500000C81304C00E94FC2681E001C080E0D09358
:105010008002C0938202DF91CF91089583E293E0F2
:105020000E94FE130E949F0D60933303709334031C
:10503000809335039093360308951F93CF93DF93A6
:10504000CDB7DEB72C970FB6F894DEBF0FBECDBF3D
:10505000182F69E674E0CE0107960E9497251F3F3E
:1050600011F461E407C0111102C064E403C01130FF
:1050700029F463E4CE0107960E94DA2465E674E021
:10508000CE0107960E9479248091590390915A038A
:10509000DC01ED91FC910680F781E02D0995BE01C0
:1050A000695F7F4FCE0101960E94A02541E0BE01BD
:1050B0006F5F7F4F83E293E00E94B812CE010196AA
:1050C0000E9492258091590390915A03DC01ED9141
:1050D000FC910680F781E02D0995CE0107960E948C
:1050E00092252C960FB6F894DEBF0FBECDBFDF9190
:1050F000CF911F910895CF93DF9300D000D000D0BF
:10510000CDB7DEB71092420310923003809159035D
:1051100090915A03DC01ED91FC910680F781E02D1E
:1051200009956DE574E0CE0101960E94972541E056
:10513000BE016F5F7F4F83E293E00E94B812CE0101
:1051400001960E9492250E949F0D61E083E293E008
:105150000E94A51161E671E0CE0101960E94A92589
:1051600041E0BE016F5F7F4F83E293E00E94B8127F
:10517000CE0101960E9492258091590390915A0385
:10518000DC01ED91FC910680F781E02D09951092EC
:105190005203809140038E3411F0823569F580917D
:1051A00041038F3449F580914803811125C08091D6
:1051B0004403811121C08091430381111DC0E091FE
:1051C0002303F0912403838D8435B1F480818230F0
:1051D00098F081E08093440380934B030E949F0DDD
:1051E00060934C0370934D0380934E0390934F0351
:1051F000809151038093500380914003893409F0DA
:1052000051C0809141038F3409F04CC08091480314
:10521000882309F447C0E0912303F0912403838994
:10522000882309F43FC0809146038F5F8093460333
:1052300090914503992351F0E0912503F0912603C5
:1052400080914903E80FF11D12A62AC0823090F424
:105250000E949F0D60934C0370934D0380934E0307
:1052600090934F03809149038093500381E0809392
:10527000470316C08091250390912603209149038E
:10528000FC01E20FF11D22A5223041F424A5DC012E
:10529000A20FB11D14961C9280E001C083E082A78A
:1052A0001092480310924A03109245031092430350
:1052B000109228038EE48093400380934103109260
:1052C00027030E949F0D60935503709356038093AC
:1052D0005703909358031092540326960FB6F894F0
:1052E000DEBF0FBECDBFDF91CF910895CF93DF9387
:1052F00000D000D000D0CDB7DEB76FE974E0CE01AA
:1053000001960E94972560E0CE0101960E9433210C
:10531000CE0101960E94922568E974E0CE010196C3
:105320000E94972560E0CE0101960E943321CE01B4
:1053300001960E9492256CE874E0CE0101960E94CD
:10534000972560E0CE0101960E943321CE0101969F
:105350000E94922581E08983BE016F5F7F4F84E8C0
:1053600093E00E9436111A821982BE016F5F7F4F4F
:1053700084E993E00E94C81C1982BE016F5F7F4FD1
:1053800080E993E00E94361164E683E293E00E9494
:10539000A51183E293E00E943A1426960FB6F89482
:1053A000DEBF0FBECDBFDF91CF9108951F93CF9386
:1053B000DF9300D000D000D0CDB7DEB76DE774E04A
:1053C000CE0101960E94972561E0CE0101960E94D0
:1053D0003321182FCE0101960E949225812F269607
:1053E0000FB6F894DEBF0FBECDBFDF91CF911F91F6
:1053F0000895CF92DF92EF92FF920F931F93CF9376
:10540000DF93CDB7DEB72C970FB6F894DEBF0FBE93
:10541000CDBF66EF71E0CE0101960E94A92540E064
:10542000BE016F5F7F4F83E293E00E94B812CE010E
:1054300001960E9492250E949F0D6B017C010E94A3
:105440009F0DDC01CB018C199D09AE09BF0988387D
:105450009341A105B10508F043C080915903909193
:105460005A03DC01ED91FC910084F185E02D099552
:10547000892B29F36091590370915A03CE01079645
:105480000E94D32062E774E0CE0101960E94972526
:105490000BE02AE0AE014F5F5F4FBE01695F7F4FB7
:1054A00083E293E00E94D011182FCE0101960E9452
:1054B0009225112351F060E070E0CE0107960E9422
:1054C000FC23833339F0813331F0CE0107960E94FB
:1054D0009225B5CF10E0CE0107960E94922501C01B
:1054E00010E0812F2C960FB6F894DEBF0FBECDBF13
:1054F000DF91CF911F910F91FF90EF90DF90CF90B0
:105500000895CF92DF92EF92FF921F93CF93DF9394
:1055100000D000D000D0CDB7DEB7BC01CE010196DF
:105520000E94A02540E0BE016F5F7F4F83E293E0C1
:105530000E94B812CE0101960E9492250E949F0DF2
:105540006B017C010E949F0DDC01CB018C199D0930
:10555000AE09BF0988389341A105B10590F5809146
:10556000590390915A03DC01ED91FC910084F1857F
:10557000E02D0995892B31F36091590370915A03FD
:10558000CE0101960E94D32062EF71E0CE01019618
:105590000E94282481110DC060ED71E0CE010196BA
:1055A0000E942824811107C0CE0101960E949225F5
:1055B000C9CF11E001C010E0CE0101960E949225F2
:1055C00001C010E0812F26960FB6F894DEBF0FBE03
:1055D000CDBFDF91CF911F91FF90EF90DF90CF90E3
:1055E00008950F931F93CF93DF93CDB7DEB72C971A
:1055F0000FB6F894DEBF0FBECDBF6CEA74E0CE01EB
:1056000007960E94972549E352E160E070E0CE01E1
:1056100007960E94D921882381F160E971E0CE01CB
:1056200001960E94A9254B855C858D819E81481B32
:10563000590BBE016F5F7F4FCE0107960E94AE23CC
:105640008C01CE0101960E949225A80155279A014E
:105650002C5F3F4F4F5F5F4FBE01695F7F4FCE01B1
:1056600001960E94BE25CE0101960E94A3238B01C4
:10567000CE0101960E94922502C000E010E0CE010A
:1056800007960E949225C8012C960FB6F894DEBFAB
:105690000FBECDBFDF91CF911F910F910895CF9392
:1056A000DF93CDB7DEB764970FB6F894DEBF0FBEB9
:1056B000CDBF789484B5826084BD84B5816084BD9B
:1056C00085B5826085BD85B5816085BD80916E00A0
:1056D000816080936E0010928100809181008260D1
:1056E000809381008091810081608093810080910E
:1056F00080008160809380008091B10084608093FD
:10570000B1008091B00081608093B00080917A00F8
:10571000846080937A0080917A00826080937A001E
:1057200080917A008E7F80937A0080917A008068E1
:1057300080937A001092C10084B762E089E00E94F1
:10574000630D61E088E00E94630DBE016F5F7F4FD3
:1057500080EA90E00E94620E8981882311F060E067
:1057600001C061E088E00E94330D69E773E08AE3DD
:1057700090E00E94620E809179038F3F41F4109275
:10578000790369E773E08AE390E00E94361163E7EA
:1057900073E086E390E00E94620E809173038F3F76
:1057A00041F41092730363E773E086E390E00E9494
:1057B00036116BE673E08CE590E00E94620E8091FA
:1057C0006B038F3F41F410926B036BE673E08CE543
:1057D00090E00E9436116AE673E088E590E00E944E
:1057E000620E80916A038F3F41F410926A036AE669
:1057F00073E088E590E00E94361162E773E080E094
:1058000090E00E94620E809172038F3F29F460E065
:1058100087E693E00E944E116DE773E084E090E02C
:105820000E944E0E80917D0390917E03019661F45B
:1058300082E390E090937E0380937D036DE773E0B5
:1058400084E090E00E940F1161E873E08CE090E04A
:105850000E94620E809181038F3F41F41092810378
:1058600061E873E08CE090E00E9436118EE090E0F9
:105870000E940937809382038F3F29F464E587E60D
:1058800093E00E94571168E773E086E990E00E9478
:10589000620E809178038F3F61F51092780368E77C
:1058A00073E086E990E00E943611809178038823A6
:1058B00001F1109274031092750310927603109206
:1058C000770364E773E088E990E00E94361165E7AA
:1058D00073E08AE990E00E94361166E773E08CE994
:1058E00090E00E94361167E773E08EE990E00E9435
:1058F0003611809178038823C1F064E773E088E96A
:1059000090E00E94620E65E773E08AE990E00E94F1
:10591000620E66E773E08CE990E00E94620E67E732
:1059200073E08EE990E00E94620E67E673E08CE21D
:1059300091E00E94620E80916703803140F01092E6
:10594000670367E673E08CE291E00E94361169E636
:1059500073E086E190E00E94620E809169038F3FC0
:1059600041F41092690369E673E086E190E00E94D9
:10597000361168E673E08AE190E00E94620E809141
:1059800068038F3F41F41092680368E673E08AE190
:1059900090E00E9436116CE673E080E293E00E9492
:1059A000620E80916C038F3F41F410926C036CE6A1
:1059B00073E080E293E00E9436116FE773E082E1CA
:1059C00090E00E944E0E80917F039091800301969B
:1059D00061F482E090E09093800380937F036FE70F
:1059E00073E082E190E00E940F116AE773E08EE3BA
:1059F00090E00E94620E80917A038F3F41F41092F2
:105A00007A036AE773E08EE390E00E9436116BE759
:105A100073E082E490E00E94620E80917B038F3FEE
:105A200041F410927B036BE773E082E490E00E9404
:105A300036116CE773E086E490E00E94620E80917C
:105A40007C038F3F41F410927C036CE773E086E4A3
:105A500090E00E94361187E693E0909324038093B0
:105A6000230388E292E0909326038093250386E83F
:105A700092E00E9497268091680081608093680080
:105A80008091680082608093680080916C008160E2
:105A900080936C0080916C00826080936C00809198
:105AA0006C00806280936C00F89480E00E94201665
:105AB00081E60E942016789461E081E10E94630DE6
:105AC00011E002E042E0342E5AE0252E80910702D8
:105AD000882309F44EC00E94BE26882309F449C0D9
