:100000000C9479020C945C210C9435210C945C14B2
:100010000C946B140C94A1020C9430140C94A10257
:100020000C94A1020C94A1020C94A1020C94A102C4
:100030000C94A1020C94A1020C94A1020C94A102B4
:100040000C94EB200C94A1020C94E81F0C94C21F9A
:100050000C94A1020C94A1020C94A1020C94A10294
:100060000C94A1020C94A10241542B434349440037
:1000700041542B444445543D310D0A004154265708
:100080000D0A0041542B434C54533D310D0A00419D
:10009000542B4353434C4B3D310D0A0041542B43E9
:1000A0004E4D493D322C312C302C302C300D0A0075
:1000B00041542B434D47463D310D0A0041542B43DB
:1000C0004C43433D310D0A0041542B434C49503DB4
:1000D000310D0A004D4158434544440043455252B6
:1000E0000055504453554343004154410041542B63
:1000F000444445543D310D0A002B4350494E3A20AB
:100100004E4F542052454144590D0043616C6C20C0
:1001100052656164790D0041542B434D4744413D84
:100120002244454C20414C4C220D0A0041542B46A0
:10013000545050573D223132333435363738392216
:100140000D0A0041542B465450554E3D22726168B1
:10015000756C6E726174686F646B636C220D0A005B
:1001600041542B465450534552563D220041542B86
:100170004654504349443D310D0A002B46545053D8
:10018000495A453A20312C302C0041542B465450CA
:1001900053495A450D0A0041542B46545047455483
:1001A0000041542B53415042523D312C310D0A0035
:1001B00041504E222C220041542B53415042523D7B
:1001C000332C312C2200436F6E54797065222C221F
:1001D00047505253220D0A0041542B534150425272
:1001E0003D332C312C22004F4B203A2000524555F4
:1001F00050440050524753495A4500444300535518
:10020000500050524755504400564D52303200561F
:100210004D4D3031002A2A2A2A4D2B002E616D7255
:10022000222C302C3130302C310D0041542B4352D4
:1002300045433D342C22002B43434C4B3A20004194
:10024000542B435245433D350D0041542B43434C01
:100250004B3F0037303431313936393539000A4EA9
:100260006574776F726B3A000A426174253A002018
:100270004F46460A00204F4E0A00204F4E0A004DBE
:100280006F746F723A00204F46460A0020322050A9
:10029000484153450A004155544F4F464600415589
:1002A000544F4F4E004552524F52203A20004F4B70
:1002B000203A200041542B435553443D312C220019
:1002C00042414C004155544F54494D45004155540D
:1002D0004F54494D45005354415254494D450053E4
:1002E00054415254494D45005354414745005354DD
:1002F000414745004E4354494D450041542B43432B
:100300004C4B3D2231372F31302F33302C005345A9
:100310005454494D450054494D453A0047455454BD
:10032000494D45004E434F464600414D4F4646001D
:10033000414D4F4E0041542B4342430041542B4307
:10034000535100535441545553004F56464F46465F
:10035000004F56464F4E005245535000444E444FB6
:10036000464600444E444F4E004259504F464600C8
:100370004259504F4E004155544F4F46460041554B
:10038000544F4F4E00444944005245534554004E8B
:100390006F204E756D626572004E554D00444546A6
:1003A00041554C5400434C454152414C4C0057413F
:1003B00049540000000000240027002A000000002B
:1003C00000250028002B0000000000230026002943
:1003D00000040404040404040402020202020203EE
:1003E00003030303030102040810204080010204F8
:1003F000081020010204081020000000080002017B
:100400000000030407000000000000000039353838
:1004100036313335393738003733383336323236C0
:1004200037380037333833363134323134003736E9
:1004300039383433393230310037303431313936AC
:100440003935390037303431313936393539004EA4
:100450004F20414E535745520D00425553590D0000
:100460004E4F20434152524945520D002B434C43BD
:10047000433A20312C302C0041542B434855500036
:10048000222C320041542B5654533D22002B534111
:100490005042523A20312C0041542B534150425289
:1004A0003D302C310D0A0041542B434F50533D3207
:1004B0000D0A00415426570D0A0041542B43534363
:1004C0004C4B3D300D0A0041542B434357413D30C6
:1004D0002C300D0A0049443A0041542B4346554EF6
:1004E0003D312C310D0A0041542B43424300E1348D
:1004F000823411241FBECFEFD8E0DEBFCDBF12E0A3
:10050000A0E0B1E0E6E6F3E702C005900D92A63068
:10051000B107D9F723E0A6E0B2E001C01D92AB37E6
:10052000B207E1F712E0C8E7D2E004C02197FE016C
:100530000E944536C737D107C9F70E94DB2B0C94C0
:10054000A6390C9452144F925F926F927F928F92C1
:100550009F92AF92BF92CF92DF92EF92FF920F9352
:100560001F93CF93DF93CDB7DEB7A5970FB6F8945F
:10057000DEBF0FBECDBF809152038823B1F00E9431
:10058000AF200091530310915403209155033091F3
:100590005603DC01CB01801B910BA20BB30B813DF9
:1005A0009740A105B10508F007C68091350388235F
:1005B00071F10E94AF20009138031091390320910E
:1005C0003A0330913B03AB01BC01401B510B620B62
:1005D000730B2091360330913703E4E6E29FC001AC
:1005E000E39F900D1124A0E0B0E0481759076A0777
:1005F0007B0768F0E0912103F091220387A5811128
:1006000006C060E084E00E94432010923503809190
:100610003C038E3409F052C080913D038E3409F0C2
:100620009FC080914A03811116C00E94AF200091A3
:100630004B0310914C0320914D0330914E03DC018C
:10064000CB01801B910BA20BB30B893E9340A105FC
:10065000B10508F0B4C580914103882309F480C036
:10066000E0911F03F0912003128980914A038823AF
:1006700009F476C080914003813009F4A4C50E943A
:10068000AF20C0904203D0904303E0904403F09029
:1006900045039B01AC012C193D094E095F09690115
:1006A0007A01212F30E0A0E6BAEE0E9497396C154E
:1006B0007D058E059F0508F486C552C0893419F062
:1006C000823509F04DC00E94AF2000912F03109198
:1006D00030032091310330913203AB01BC01401B48
:1006E000510B620B730B20912D0330912E03E4E626
:1006F000E29FC001E39F900D1124A0E0B0E04817F5
:1007000059076A077B0740F0809147038DA30E9439
:1007100036238DA10E94A62580912A03882301F10A
:100720000E94AF20E091250300912603109127033A
:100730002091280330912903AB01BC01401B510BD0
:10074000620B730B34E6E39FC0011124092E000CE9
:10075000AA0BBB0B84179507A607B70708F44DC56E
:100760008FE4C82E92E5B92E29E4D22E80914F0352
:1007700090915003DC01ED91FC910480F581E02D16
:1007800009951816190614F00C94050C6FE173E026
:10079000CE014F960E949D100BA1015060E271E0C6
:1007A000CE0101960E945C1F26E0AE014F5F5F4FB5
:1007B000BE01615E7F4F8FE193E00E94820F182F90
:1007C000CE0101960E94451F112321F08091340330
:1007D000811175C50BA1015067E271E0CE01019650
:1007E0000E945C1F2CE0AE014F5F5F4FBE01615E57
:1007F0007F4F8FE193E00E94820FE82ECE01019699
:100800000E94451FEE2071F1BE01615E7F4FCE0157
:100810000D960E94531F6EE271E0CE0107960E9472
:100820005C1FBE01635F7F4FCE0107960E94AF1E23
:10083000BE01695F7F4FCE0101960E94531F41E0C8
:10084000BE016F5F7F4F8FE193E00E94E010CE0109
:1008500001960E94451FCE0107960E94451FCE01BA
:100860000D96BFC267E371E0CE0101960E945C1F46
:1008700002E228E1AE014F5F5F4FBE01615E7F4F34
:100880008FE193E00E94820F982ECE0101960E9484
:10089000451FBE01615E7F4FCE01992009F461C200
:1008A00001960E94531FCE0101960E94D325F82E77
:1008B000CE0101960E94451FBE01615E7F4FCE01B1
:1008C00001960E94531FBE016F5F7F4F80911F03EF
:1008D000909120030E94DD0DA82ECE0101960E946A
:1008E000451FF11027C0BE01615E7F4FCE0101960A
:1008F0000E94531FBE016F5F7F4F80911F03909135
:1009000020030E948E0D182F81110DC0A1100AC066
:10091000E0911F03F091200311E08081882319F0FA
:1009200010E001C0192DCE0101960E94451F112330
:1009300009F4AFC16FE173E0CE0101960E949D10F2
:10094000BE016F5F7F4FCE014F960E940C1FCE01FC
:1009500001960E94451F0F8D18A10115110541F444
:10096000E0911F03F09120038081882371F03AC049
:10097000F80180818823A1F3082E000C990B0E94B6
:100980004F38D8018D938D01F3CFF1102BC065E165
:1009900072E0CE0101960E944A1FBE016F5F7F4F39
:1009A000CE014F960E94C01D182FCE0101960E94C5
:1009B000451F112309F417C22BA13CA144E050E0CC
:1009C000BE01615E7F4FCE0101960E94711FBE0184
:1009D0006F5F7F4FCE014F960E940C1FCE01019694
:1009E0000E94451F6EE371E0CE0101960E945C1FDC
:1009F000BE016F5F7F4FCE014F960E94C01D182F22
:100A0000CE0101960E94451F1123C1F02BA13CA1EC
:100A100041E050E0BE01615E7F4FCE0101960E9431
:100A2000711FBE016F5F7F4FCE014F960E940C1F5A
:100A3000CE0101960E94451F11E001C010E0BE01E9
:100A4000615E7F4FCE01FF2009F418C149960E94D4
:100A5000531F81E0809333030D8D015062E072E0FB
:100A6000CE0101960E944A1F26E0AE014F5F5F4F04
:100A7000BE01675E7F4F8FE193E00E94820FF82EE8
:100A8000CE0101960E94451FFF2009F4B0C080915D
:100A90003C038E3411F40E943623111110C06EEF06
:100AA00071E0CE0101960E944A1F40E061E0CE0154
:100AB00001960E947E24CE0101960E94451F898CDA
:100AC0009A8C8114910429F40E94FC2981110BC491
:100AD0000DC0F40180818823B9F3082E000C990B16
:100AE0000E944738D4018D934D01F3CF60E471E04B
:100AF000CE010D960E945C1F68ED71E0CE01079655
:100B00000E944A1F66EC71E0CE0107960E942C1EDF
:100B1000BE01695F7F4FCE0101960E94531FCE0137
:100B200001960E94842A082FCE0101960E94451F3B
:100B3000011102C000E042C067EB71E0CE010796F0
:100B40000E94B61E60EB71E0CE0107960E942C1E3B
:100B5000BE01635F7F4FCE0107960E94AF1E6CE51A
:100B600071E0CE0107960E94A01EBE01695F7F4F13
:100B7000CE0101960E94531FCE0101960E94842A45
:100B8000082FCE0101960E94451F002399F261EAC9
:100B900071E0CE0101960E944A1F61E0CE010196EC
:100BA0000E947926082FCE0101960E94451F00233E
:100BB00009F264E18FE193E00E94570FCE0107969E
:100BC0000E94451FCE010D960E94451F002309F487
:100BD00080C50CE0015009F47CC562E38FE193E02D
:100BE0000E94570F0E94FC298823A1F37CC30D8D1E
:100BF000015063EF71E0CE0101960E944A1F27E089
:100C0000AE014F5F5F4FBE01675E7F4F8FE193E0A4
:100C10000E94820F082FCE0101960E94451F0111EC
:100C20008EC50D8D01506DEE71E0CE0101960E94D2
:100C30004A1F25E0AE014F5F5F4FBE01675E7F4FE9
:100C40008FE193E00E94820FF82ECE0101960E9460
:100C5000451FF11076C510923303CE0149960E94CC
:100C6000451FF11070C0BE01615E7F4FCE0101963D
:100C70000E94531F2A2D412F61E006C001960E9459
:100C8000531F2A2D412F60E0CE0101960E9480144F
:100C900056C0BE01615E7F4FCE0101960E94531F78
:100CA000BE016F5F7F4F80911F03909120030E94D0
:100CB000E40D182FCE0101960E94451F112309F45F
:100CC00042C06FE173E0CE0101960E949D10BE010B
:100CD0006F5F7F4FCE014F960E940C1FCE01019691
:100CE0000E94451F6FE072E0CE0101960E944A1FEC
:100CF000BE016F5F7F4FCE014F960E94C01D182F1F
:100D0000CE0101960E94451F1123E9F0E0911F03D7
:100D1000F091200381E08483BF016C5F7F4F8CE5FD
:100D200090E00E94C82169E072E0CE0101960E9425
:100D30004A1F42E061E0CE0101960E947E24CE016E
:100D400001960E94451F67E171E0CE0101960E9465
:100D50004A1F60E0CE0101960E947926CE010196DD
:100D600040C007960E94531F6BE071E0CE010196D0
:100D70000E944A1FBE016F5F7F4FCE0107960E94FF
:100D8000FA1D182FCE0101960E94451FCE0107962D
:100D90000E94451F112321F081E08093510323C05D
:100DA000BE01615E7F4FCE0107960E94531F69EF1F
:100DB00070E0CE0101960E944A1FBE016F5F7F4F17
:100DC000CE0107960E94FA1D182FCE0101960E94AF
:100DD000451F112321F00E9436230E94F42ACE01E0
:100DE00007960E94451F9091480380913C03911102
:100DF00012C18E3419F0823509F093C190913D03F0
:100E00009E3419F0993409F0F3C0BE01615E7F4F42
:100E1000CE0101960E94531F63E671E0CE01019658
:100E20000E94DB1D182FCE0101960E94451F112341
:100E300009F4C8C081E080932C03B0923C03D092A7
:100E40003D0380913E038F5F80933E03853008F021
:100E500071C08130E9F46DEE70E0CE0101960E9420
:100E60004A1F40E0BE016F5F7F4F8FE193E00E9419
:100E7000E010CE0101960E94451F80914F03909192
:100E80005003DC01ED91FC910284F385E02D09957E
:100E90006FE571E0CE010D960E945C1F6FE173E07B
:100EA000CE0101960E949D10BE016F5F7F4FCE0163
:100EB0000D960E940C1FCE0101960E94451F69E607
:100EC00071E0CE0101960E945C1F05E12BE0AE01AE
:100ED0004F5F5F4FBE01635F7F4F8FE193E00E94E2
:100EE000820F182FCE0101960E94451F1123B1F2E7
:100EF0000E94AF2060932F037093300380933103DF
:100F00009093320389899A890A9778F0CE010D96D9
:100F10000E945426882349F080913E03823028F0B5
:100F200080912303882309F443C4CE010D960E94C7
:100F3000451F06C080912303811102C00E94362301
:100F400080912303882309F432C10E94AF2060936B
:100F50002F037093300380933103909332031092E8
:100F6000230381E080933F0380914F0390915003CE
:100F7000DC01ED91FC910284F385E02D099569EE89
:100F800070E0CE0101960E944A1F41E0BE016F5FF2
:100F90007F4F8FE193E00E94E010CE0101960E9406
:100FA000451F80914F0390915003DC01ED91FC911E
:100FB0000284F385E02D0995D0923C03D0923D0345
:100FC0006DE4AAC0BE01615E7F4FCE0101960E9412
:100FD000531FCE0101960E942224182FCE010196A4
:100FE0000E94451F112309F4E2C00E943623DFC08E
:100FF000893489F490913D03993469F4BE01615EAE
:101000007F4FCE0101960E94531FCE0101960E9490
:101010002224182FB1C08E3419F0823509F084C013
:1010200010913D031F3409F0C2C0BE01615E7F4FC5
:10103000CE0101960E94531FCE0101960E94D32338
:10104000082FCE0101960E94451F023579F40E94B7
:10105000AF2060932F0370933003809331039093FC
:10106000320300933C0310933D03A1C0BE01615EB7
:101070007F4FCE0101960E94531FCE0101960E9420
:101080002224182F811113C0BE01615E7F4FCE0153
:1010900007960E94531FCE0107960E94D32311E0AA
:1010A000853409F010E0CE0107960E94451FCE015D
:1010B00001960E94451F112349F0809147038DA39B
:1010C0000E9436238DA10E94A62571C0BE01615EDB
:1010D0007F4FCE0101960E94531FCE0101960E94C0
:1010E000D323182FCE0101960E94451F193409F011
:1010F0005EC00E94AF2060932F03709330038093F3
:1011000031039093320310933C03C0923D0381E07E
:1011100080933F03609147038FE193E00E94D827BB
:1011200046C0893409F466CF893409F040C0809103
:101130003D038F34E1F5BE01615E7F4FCE01019624
:101140000E94531FCE0101960E942224182F811164
:1011500013C0BE01615E7F4FCE0107960E94531FF0
:10116000CE0107960E94D32311E0853409F010E0E8
:10117000CE0107960E94451FCE0101960E94451F91
:10118000111133CFCE014F960E940723882379F0A7
:10119000BE01615E7F4FCE0101960E94531FCE01BA
:1011A00001960E941222CE0101960E94451FCE0197
:1011B0004F960E94451FDACA10925203F6C981E089
:1011C00080934A0348CA8091460380934703109254
:1011D0004103E0911F03F0912003818D8E3409F4C7
:1011E000BFCA81E0809348038FE193E00E947C10A6
:1011F0008FE193E00E944C11B3CA80914F0390910C
:101200005003DC01ED91FC910284F385E02D0995FA
:101210006BE272E0CE0101960E944A1F40E0BE01DF
:101220006F5F7F4F8FE193E00E94E010CE01019647
:101230000E94451F62E771E0CE0101960E945C1F8B
:1012400040E0BE016F5F7F4F8FE193E00E94E010AE
:10125000CE0101960E94451F60912B038FE193E020
:101260006DA30E947C1080914F0390915003DC018C
:10127000ED91FC910190F081E02D6DA109956CE15B
:1012800072E0CE0101960E944A1F41E0BE016F5FED
:101290007F4F8FE193E00E94E010CE0101960E9403
:1012A000451F80914F0390915003DC01ED91FC911B
:1012B0000284F385E02D099510922A0351CABE01DC
:1012C000615E7F4FCE0101960E94531F40E061E0B6
:1012D000CE0101960E947E24CE0101960E94451FF8
:1012E0001092340377CABE01675E7F4FCE010D9620
:1012F0000E94531F6DE671E0CE0101960E944A1FC5
:1013000061E0CE0101960E947926082FCE01019658
:101310000E94451F002309F454C060E671E0CE012D
:1013200007960E944A1FBE01635F7F4FCE0107965A
:101330000E94AF1E6CE571E0CE0107960E94A01ED0
:10134000BE01695F7F4FCE0101960E94531F61E08D
:10135000CE0101960E947926082FCE0101960E94A7
:10136000451F002349F163E471E0CE0101960E941C
:101370004A1F61E0CE0101960E947926082FCE0116
:1013800001960E94451F0023B9F06CE271E0CE0186
:1013900001960E944A1F61E0CE0101960E947926C3
:1013A000082FCE0101960E94451F002329F0CE018F
:1013B00007960E94451F05C0CE0107960E94451F53
:1013C00000E0CE010D960E94451F002309F481C163
:1013D00068E471E0CE0143960E945C1F67E971E00A
:1013E000CE010D960E944A1FBE01635F7F4FCE0162
:1013F00007960E94531F6EE471E0CE0107960E948B
:10140000A01EBE016D5E7F4FCE0107960E94AF1EEB
:101410006CE571E0CE0107960E94A01EBE01695FD7
:101420007F4FCE0101960E94531F61E0CE010196CD
:101430000E947926982ECE0101960E94451F992080
:10144000E9F0BE01635F7F4FCE0107960E94F51E53
:1014500065E571E0CE0107960E94A01EBE01695F9E
:101460007F4FCE0101960E94531F60E0CE0101968E
:101470000E947926CE0101960E94451FCE01079653
:101480000E94451FCE010D960E94451FCE01439636
:101490000E94451F992009F41CC1E0911F03F0919F
:1014A00020038285811164C00E94AF202B013C0182
:1014B0006AE871E0CE0101960E944A1F40E0BE0139
:1014C0006F5F7F4F8FE193E00E94E010CE010196A5
:1014D0000E94451F0E94AF20DC01CB0184199509B1
:1014E000A609B709803C944DA140B10508F0F1C0B0
:1014F00080914F0390915003DC01ED91FC910480A9
:10150000F581E02D0995892B29F360914F037091A6
:101510005003CE0107960E9448270B8501506BE7C8
:1015200071E0CE0101960E944A1F2EE0AE014F5F8E
:101530005F4FBE01695F7F4F8FE193E00E94820F92
:10154000082FCE0101960E94451FCE010796002369
:1015500009F4BECF0E94561DAB01BC0180911F0350
:10156000909120030E94BB0ECE0107960E94451F5A
:10157000E0911F03F09120034680578060847184BE
:101580006FE771E0CE0143960E945C1FBE016D5E65
:101590007F4FCE010D960E94531F6BE871E0CE0184
:1015A0000D960E94A01EB301A201CE010D960E94CD
:1015B0005C1E67E671E0CE010D960E94A01E60E9F8
:1015C00071E0CE0107960E945C1FBE016D5E7F4FE9
:1015D000CE0107960E94AF1E63E971E0CE01079627
:1015E0000E94A01E0E94AF202B013C01BE01695F3A
:1015F0007F4FCE0101960E94531F40E0BE016F5FF6
:101600007F4F8FE193E00E94E010CE0101960E948F
:10161000451F0E94AF20DC01CB0184199509A60962
:10162000B709803C944DA140B10550F580914F031E
:1016300090915003DC01ED91FC910480F581E02D47
:101640000995892B31F360914F0370915003CE01BE
:1016500001960E944827BE016F5F7F4FCE0107961B
:101660000E940C1FCE0101960E94451FBE01635FC0
:101670007F4FCE0107960E94FA1D882351F2E92C74
:10168000CE0107960E94451FCE010D960E94451F70
:10169000CE0143960E94451FEE20D9F081E0809351
:1016A0003303111110C06BEF71E0CE0101960E945F
:1016B0004A1F40E061E0CE0101960E947E24CE01E7
:1016C00001960E94451F0E94D9290E947929FE2C6B
:1016D000C4CA0E94D929E0911F03F0912003128609
:1016E0001982BE016F5F7F4F84E893E00E94C8219A
:1016F0001A821982BE016F5F7F4F84E993E00E94D6
:10170000522901E00983BE016F5F7F4F80E993E0BA
:101710000E94C8210093330311119FCA60E671E053
:10172000CE0101960E945C1F40E061E0CE0101966F
:101730000E947E24CE0101960E94451F8ECA01E0C0
:1017400001C002E0CE0149960E94561DAB01BC01CA
:1017500080911F03909120030E94BB0E67EE71E001
:10176000CE0107960E944A1FBE01675E7F4FCE01E1
:1017700007960E94AF1E111111C0BE01695F7F4F15
:10178000CE0101960E94531F40E061E0CE01019618
:101790000E947E24CE0101960E94451F023011F462
:1017A0000E947929CE0107960E94451FF92C55CA3F
:1017B000BE01635F7F4FCE0107960E94531FBE019B
:1017C000695F7F4FCE0101960E94531FCE010196A3
:1017D0000E94D325182F81110DC0BE01695F7F4F74
:1017E00080911F03909120030E94160E11E08F3FFD
:1017F00009F410E0CE0101960E94451F10932303C7
:10180000CE0107960E94451F90CBA5960FB6F8947F
:10181000DEBF0FBECDBFDF91CF911F910F91FF9023
:10182000EF90DF90CF90BF90AF909F908F907F9080
:101830006F905F904F90089581E080937F020895AC
:101840000E94AF20EFE1F3E064AB75AB86AB97ABE2
:1018500081E083AB0895FB0184819581409770F00E
:10186000CB0160E070E00E94AF1D282F880F330B82
:101870002053310981E02A30310508F080E00895D5
:101880006F927F928F929F92AF92BF92CF92DF9290
:10189000EF92FF920F931F93CF93DF93CDB7DEB7F5
:1018A0006C013A01ADB6BEB6822F90E001964DB7FD
:1018B0005EB7481B590B0FB6F8945EBF0FBE4DBF05
:1018C0008DB79EB701964C01611494E0790650F5EE
:1018D000FF24F394F20E31F1E1E0FE1202C0F401B4
:1018E00020C0C3010E944A39F4018083EE24E394AE
:1018F0008823C1F00E2D10E0EF1478F4C801860D96
:10190000971D8115F4E09F0740F40E944A39F401C5
:10191000E00FF11F8083E394EBCF080D191DF80150
:1019200031971082B401C6010E945C1FC6010FB638
:10193000F894BEBE0FBEADBEDF91CF911F910F9147
:10194000FF90EF90DF90CF90BF90AF909F908F90DF
:101950007F906F9008958F929F92AF92BF92CF9297
:10196000DF92EF92FF920F931F93CF93DF93CDB748
:10197000DEB76B01ADB6BEB6FA01E480F580C701F3
:1019800001962DB73EB7281B390B0FB6F8943EBF12
:101990000FBE2DBF0DB71EB70F5F1F4F892B99F0DC
:1019A0000115110581F0E114F10411F4F8010AC0E8
:1019B000FA0160817181A701C8010E947E38F80197
:1019C000EE0DFF1D1082F80101900020E9F731971C
:1019D000E01BF10BC11424E0D206D8F4FF24F394E9
:1019E000FE0EC6018F0D911D8115944090F44801A3
:1019F000C01AD10A882D801B8F1548F4C601880DA6
:101A0000991DF40161914F010E945239F3CF81E099
:101A100001C080E00FB6F894BEBE0FBEADBEDF9130
:101A2000CF911F910F91FF90EF90DF90CF90BF90DB
:101A3000AF909F908F900895CF92DF92EF920F9387
:101A4000CF93DF9300D0CDB7DEB76C01FC01618B83
:101A5000BC016F5E7F4F86E990E02A8349830E9434
:101A6000C821F60181892A814981882341F145876E
:101A700026870787E08AB601635F7F4F88E990E099
:101A80000E94C821B601625F7F4F8AE990E00E9400
:101A9000C821B601615F7F4F8CE990E00E94C821A8
:101AA000B601605F7F4F8EE990E00F900F90DF915D
:101AB000CF910F91EF90DF90CF900C94C8210F90B1
:101AC0000F90DF91CF910F91EF90DF90CF9008951D
:101AD000FC016387BC01655F7F4F80E090E00C9460
:101AE000C821CF93DF93EC01FB018081882369F04B
:101AF0008181882319F04EE150E002C040E351E0BB
:101B00002AE0CE010E94400C05C063E572E0CE01E0
:101B10000E944A1FCE01DF91CF910895DF92EF928C
:101B2000FF920F931F93CF93DF9300D000D000D08C
:101B3000CDB7DEB7FC012081222369F17B018C0146
:101B40002AE040E351E0BC01CE0101960E94400C26
:101B5000B701CE0101960E94FA1DD82ECE01019642
:101B60000E94451FD11019C0B701CE0101960E94F5
:101B7000531FF8018081882341F0BE016F5F7F4FC2
:101B8000C8010E94E021182F01C010E0CE0101968B
:101B90000E94451F03C010E001C011E0812F26966E
:101BA0000FB6F894DEBF0FBECDBFDF91CF911F916E
:101BB0000F91FF90EF90DF900895FC01208121119B
:101BC0000C94E02180E008950F931F93CF93DF934F
:101BD00000D000D000D0CDB7DEB7FC0183818823D0
:101BE000C1F08B01BF012AE040E650E0CE01019632
:101BF0000E94400CBE016F5F7F4FC8010E94FA1D1A
:101C000011E0811101C010E0CE0101960E94451F34
:101C100001C010E0812F26960FB6F894DEBF0FBEEC
:101C2000CDBFDF91CF911F910F910895CF92DF9299
:101C3000EF92FF920F931F93CF93DF9300D000D0CA
:101C400000D0CDB7DEB77C016B01FC018081811132
:101C500006C0F7018481882309F443C030C0CE0157
:101C600001960E94531FBE016F5F7F4FC7010E9404
:101C70008E0D182FCE0101960E94451F111133C001
:101C800011E0F7018081181720F7FBE01F9FA001EA
:101C90001124405D5E4F2AE0B701CE0101960E94FB
:101CA000400CB601CE0101960E94FA1D082FCE010C
:101CB00001960E94451F011118C01F5FE2CFB601B7
:101CC000CE0101960E94531FBE016F5F7F4FC70177
:101CD0000E94E40D182FCE0101960E94451F11119C
:101CE00006C08FEF05C080E003C0812F01C08EEFDA
:101CF00026960FB6F894DEBF0FBECDBFDF91CF9111
:101D00001F910F91FF90EF90DF90CF900895EF9289
:101D1000FF920F931F93CF93DF931F92CDB7DEB740
:101D20007C01FC0100811181C80169830E944A394C
:101D30006981681719F0C8010E945239C7010F90D4
:101D4000DF91CF911F910F91FF90EF900895CF9366
:101D5000DF9300D0CDB7DEB7FC01618F8EE090E05D
:101D60009A838983CE0101960E94870E0F900F906F
:101D7000DF91CF910895EF92FF920F931F93CF932E
:101D8000DF9300D0CDB7DEB721E0FC012287468388
:101D90005783608771878C010A5F1F4F88E8E82EA0
:101DA00083E0F82EF80161918F01FA82E982CE0179
:101DB00001960E94870EFFEFEF1AFF0A8CE8E816E3
:101DC00083E0F80679F70F900F90DF91CF911F9184
:101DD0000F91FF90EF900895CF92DF92EF92FF92D4
:101DE0000F931F93CF93DF93CDB7DEB72C970FB62A
:101DF000F894DEBF0FBECDBF6C017B018A016AE49F
:101E000072E0CE0101960E944A1F28EB3FE040E0BD
:101E100050E0BE016F5F7F4FC6010E946527882397
:101E200051F122E030E040E050E0BE016F5F7F4FB3
:101E3000CE0107960E94711FCE0107960E94561D83
:101E4000F7016083CE0107960E94451F25E030E030
:101E500043E050E0BE016F5F7F4FCE0107960E94C6
:101E6000711FCE0107960E94561DF8016083CE01B6
:101E700007960E94451FCE0101960E94451F2C9691
:101E80000FB6F894DEBF0FBECDBFDF91CF911F918B
:101E90000F91FF90EF90DF90CF900895FC01258D7A
:101EA000293421F421E025830C94D82708958F92BA
:101EB0009F92AF92BF92CF92DF92EF92FF92C62E87
:101EC0000E94AF204B015C0184E6C89E6001112492
:101ED0000D2C000CEE08FF080E94AF20DC01CB01A6
:101EE00088199909AA09BB098C159D05AE05BF057E
:101EF00098F3FF90EF90DF90CF90BF90AF909F90BE
:101F00008F900895EF92FF920F931F93CF93DF93DB
:101F100000D000D000D0CDB7DEB77B01122FBA01C0
:101F2000C7010E94C01D8823A9F0202F30E0412F57
:101F300050E0B701CE0101960E94711FBE016F5F94
:101F40007F4FC7010E940C1FCE0101960E94451FC2
:101F500081E001C080E026960FB6F894DEBF0FBE88
:101F6000CDBFDF91CF911F910F91FF90EF9008951A
:101F7000CF92DF92EF92FF920F931F93CF93DF9355
:101F800000D000D000D0CDB7DEB77C016B0167E395
:101F900072E0CE0101960E944A1F06E121E1AE01E6
:101FA0004F5F5F4FB601C7010E94820F182FCE010D
:101FB00001960E94451F812F26960FB6F894DEBF2A
:101FC0000FBECDBFDF91CF911F910F91FF90EF908A
:101FD000DF90CF900895CF92DF92EF92FF920F9310
:101FE000CF93DF9300D000D000D0CDB7DEB76C0127
:101FF0007B01FB010481035060EA71E0CE01019690
:102000000E945C1F25E0AE014F5F5F4FB701C60124
:102010000E94820F082FCE0101960E94451F802F3B
:1020200026960FB6F894DEBF0FBECDBFDF91CF91DD
:102030000F91FF90EF90DF90CF9008958F929F9235
:10204000AF92BF92CF92DF92EF92FF920F93CF9316
:10205000DF93CDB7DEB72C970FB6F894DEBF0FBE77
:10206000CDBF5C016B01FB01048101506EE871E0A2
:10207000CE0107960E945C1FF60184819581892B11
:1020800069F0808091806F817885C4010E948D38CD
:10209000009721F07C01E818F90803C0EE24EA94C7
:1020A000FE2C65EA71E0CE0101960E945C1F21E0E2
:1020B0002E0DAE014F5F5F4FB601C5010E94820F2A
:1020C000082FCE0101960E94451FCE0107960E945F
:1020D000451F802F2C960FB6F894DEBF0FBECDBFE4
:1020E000DF91CF910F91FF90EF90DF90CF90BF9055
:1020F000AF909F908F900895CF93DF93EC018E89DE
:10210000811112C061E084E00E94432081E08E8B47
:102110000E94AF20698F7A8F8B8F9C8F61E0CE01F8
:10212000DF91CF910C94570F0E94AF20698F7A8F67
:102130008B8F9C8FDF91CF910895EF92FF920F9339
:102140001F93CF93DF9300D000D000D0CDB7DEB780
:102150008C017B016FE571E00E945C1FD701D09676
:102160008D919C91D197DC01ED91FC910480F581DA
:10217000E02D099518161906ACF4C7010E947C10D1
:10218000F70160A971A9CE0101967C010E94482740
:102190000E151F0521F0B701C8010E940C1FC701D1
:1021A0000E94451FC80126960FB6F894DEBF0FBEE9
:1021B000CDBFDF91CF911F910F91FF90EF900895C8
:1021C000FF920F931F93CF93DF93EC018B01F42EBB
:1021D0000E947C106FE571E0C8010E94DB1D08A819
:1021E000D9A9C02D811114C0F801448155816081A5
:1021F0007181E881F9810280F381E02DCE01F11037
:1022000006C0DF91CF911F910F91FF90099409951E
:10221000CE01DF91CF911F910F91FF900C94B71FCA
:102220000F931F93CF93DF9300D000D000D0CDB792
:10223000DEB78C01DC01D0968D919C91D197DC01A9
:10224000ED91FC910284F385E02D09956FE372E036
:10225000CE0101960E944A1F41E0BE016F5F7F4F91
:10226000C8010E94E010CE0101960E94451FF801AE
:1022700080A991A9DC01ED91FC910284F385E02D08
:10228000099526960FB6F894DEBF0FBECDBFDF913D
:10229000CF911F910F910895CF92DF92FF920F93EC
:1022A0001F93CF93DF93CDB7DEB762970FB6F89445
:1022B000DEBF0FBECDBF8C0181E0D8011D968C938F
:1022C000C8010E947C10F80180A991A9DC01ED9160
:1022D000FC910284F385E02D09956BEA71E0CE0153
:1022E00007960E945C1FF801F1A0C080D180FF20FA
:1022F00059F16FE571E0CE010D960E945C1FD60189
:102300008C91F816B8F4BBE0FB9EA0011124405D4F
:102310005E4F2AE0B601CE0101960E94400CBE013C
:102320006F5F7F4FCE010D960E940C1FCE0101966C
:102330000E94451FBE01635F7F4FCE0107960E943A
:10234000AF1ECE010D960EC0B601CE0101960E94C1
:10235000710DBE016F5F7F4FCE0107960E94AF1EC9
:10236000CE0101960E94451F6BE3CE0107960E94A5
:102370008D1EBE01695F7F4FCE0101960E94531FE3
:1023800041E0BE016F5F7F4FC8010E94E010CE01A7
:1023900001960E94451F61E0C8010E94570F6FE53A
:1023A00071E0CE0101960E945C1F41E0BE016F5FAB
:1023B0007F4FC8010E94E010CE0101960E94451F88
:1023C0000E94AF20F801608B718B828B938B82E52A
:1023D000858F8FE4868FCE0107960E94451F6296F7
:1023E0000FB6F894DEBF0FBECDBFDF91CF911F9126
:1023F0000F91FF90DF90CF900895EF92FF920F938F
:102400001F93CF93DF9300D0CDB7DEB7FC01A0813F
:10241000B1818C91811103C0FF24F3947CC0599643
:102420008C9159978E34C1F382A98823A9F382A194
:10243000811103C090A5961779F3958D9E3409F00C
:1024400044C0968D9E3409F040C0F3A4FF2009F4E7
:1024500062C081113AC0E62E8F0151968C9188237B
:10246000B1F1AE014F5F5F4FBE016E5F7F4FCF0195
:102470000E94EC0E8A81D801ED91FC91258582178E
:1024800030F19785981718F1291309C0898196852D
:102490008917E8F09089981708F0BECF18C082130A
:1024A00006C099818685981708F0B6CF10C08913A9
:1024B00006C099818089891708F0AECF08C0281717
:1024C00030F4891708F4A8CF02C0F12C24C0F80119
:1024D00011A20190F081E02D8289882359F00E9499
:1024E000AF20F80163A374A385A396A3E7A281E0BC
:1024F00082A311C0D8019896EC929897818D8E3462
:1025000009F48ACF81E099968C93C8010E947C10CF
:10251000C8010E944C118F2D0F900F90DF91CF9129
:102520001F910F91FF90EF9008950C94003C089537
:1025300061E081E10C9443200F931F93CF93DF93CD
:10254000EC0141110EC08EA581110BC0662319F15B
:1025500062E38A819B81DF91CF911F910F910C944F
:102560004E0F022F162F1DAA61E08DE00E9443201E
:102570000E94AF20FE01ED5BFF4F60837183828379
:102580009383319781E080831EA660E080E10E9402
:1025900043201AA70CA7DF91CF911F910F910895A7
:1025A000FC01A081B1811C968C9195A5882321F016
:1025B000992321F087A50895892F089581E0089532
:1025C0001F93CF93DF93EC011FA5112331F00E94DD
:1025D000D012882311F081E00BC0CE010E94D012EE
:1025E000882321F0111104C084E002C082E000C001
:1025F000DF91CF911F910895CF93DF93FC0126A522
:10260000211110C0EC010E94D012882359F08FA52F
:10261000882341F081E088AB0E94AF2069AB7AABA0
:102620008BAB9CABDF91CF9108951F93CF93DF933A
:10263000EC01162FE881F981838581110CC08EA5EC
:1026400081111EC08FA58823D9F061E08DE00E9422
:10265000432018AA15C0FE01EE5BFF4F8081811157
:102660000FC08FA5882361F060E08DE00E944320B9
:10267000112331F0CE01DF91CF911F910C94FC1208
:10268000DF91CF911F910895EF92FF920F931F93C7
:10269000CF93DF937B018A01E901F8948AE00E94DD
:1026A0001A2031E0892B09F430E0F70130838BE008
:1026B0000E941A2031E0892B09F030E0F8013083C4
:1026C00083E00E941A2031E0892B09F430E038833E
:1026D0007894DF91CF911F910F91FF90EF90089523
:1026E0000F931F93CF93DF9300D01F92CDB7DEB728
:1026F0008C019E012F5F3F4FAE014E5F5F4FBE01C9
:102700006D5F7F4F0E9444139A81F80196A7992329
:1027100011F061E001C060E080E10E9443208A8105
:102720000F900F900F90DF91CF911F910F9108950F
:102730000F931F93CF93DF93F89486E00E941A20A3
:102740008C0187E00E941A20EC0185E00E941A208B
:102750007894012B31F4CD2B31F4892B31F483E0C3
:1027600005C080E003C081E001C082E0DF91CF912D
:102770001F910F910895CF93DF93F89483E10E9406
:102780001A20EC0182E10E941A207894CD2B21F4CA
:10279000892B21F482E003C080E001C081E0DF9159
:1027A000CF9108951F93CF93DF93EC01162F18AAB2
:1027B0008FA5882329F0CE010E94D01281110FC06D
:1027C0008A819B81112331F06EE4DF91CF911F91BB
:1027D0000C944E0F6EE40E94FD118C833DC08EA5BB
:1027E000811134C0CE010E949813811106C08A81E4
:1027F0009B81112379F364E5E8CFCE010E94BB13DE
:10280000823049F48A819B8166E51111DECF0E94F6
:10281000FD118D8B21C060E08DE00E94432060E0BF
:102820008CE00E9443200E9498120E94AF20FE017B
:10283000FD96608371838283938381E08BAF8EA743
:1028400061E080E10E9443201BA706C0112321F014
:1028500061E38A819B81B9CFDF91CF911F91089568
:102860001F920F920FB60F9211248F939F9391E0B6
:102870009093060280911E028F5F80931E028091CA
:102880001E028E3240F080915702811102C0909357
:10289000070210921E029F918F910F900FBE0F9012
:1028A0001F9018951F920F920FB60F9211240F9040
:1028B0000FBE0F901F9018951F920F920FB60F9298
:1028C00011248F9381E080937F028F910F900FBE30
:1028D0000F901F9018951F920F920FB60F92112410
:1028E0008F9381E0809380028F910F900FBE0F90A5
:1028F0001F901895E0E6F0E098E1908380830895BA
:10290000AF92BF92DF92EF92FF920F931F93CF93FC
:10291000DF93CDB7DEB764970FB6F894DEBF0FBE76
:10292000CDBF7C01062FD42E122F60933303BC0140
:10293000CE010D960E94531F6EEA73E0CE01019600
:102940000E944A1FBE016F5F7F4FC7010E94C01DDA
:10295000B82ECE0101960E94451FBB2019F00E949F
:102960005B2BB5C665EA73E0CE0101960E944A1F53
:10297000BE016F5F7F4FC7010E94C01DB82ECE0100
:1029800001960E94451FBB2011F1E0901F03F090BB
:102990002003002319F0F701108203C081E0F70142
:1029A0008083B7018CE291E00E94C821F701118277
:1029B000B7016F5F7F4F8AE190E00E94C821F70165
:1029C0001282B7016E5F7F4F86E190E07EC66DE9AF
:1029D00073E0CE0101960E944A1FBE016F5F7F4FD8
:1029E000C7010E94C01DB82ECE0101960E94451F4E
:1029F000BB2009F45DC060E080911F03909120032B
:102A00000E94680DE0911F03F0912003138ABF011B
:102A10006D5E7F4F82E390E00E94C821E0911F032A
:102A2000F0912003128ABF016E5E7F4F8AE390E02F
:102A30000E94C821E0911F03F09120031486BF017A
:102A4000645F7F4F86E390E00E94C821E0911F03FE
:102A5000F0912003108EBF01685E7F4F8CE090E004
:102A60000E94C82163E480911F03909120030E947B
:102A7000A70EE0911F03F091200382E390E0958B75
:102A8000848BBF016C5E7F4F84E090E00E949721B1
:102A9000E0911F03F091200382E090E0978B868BFA
:102AA000BF016A5E7F4F82E190E00E9497210FC6CE
:102AB00069E973E0CE0101960E944A1FBE016F5F73
:102AC0007F4FC7010E94C01DB82ECE0101960E9403
:102AD000451FBB20F1F1E0901F03F09020036FE54C
:102AE00071E0CE0107960E945C1F10E0F701808123
:102AF0001817F8F4FBE01F9FA0011124405D5E4F02
:102B00002AE0B701CE0101960E94400CBE016F5F22
:102B10007F4FCE0107960E94AF1ECE0101960E9404
:102B2000451F6EE571E0CE0107960E94A01E1F5F53
:102B3000DDCF6FE571E0CE0107960E94DB1D882393
:102B400009F4DDC56FE873E0CE0107960E94B61E5A
:102B5000D6C569E873E0CE0101960E944A1FBE0106
:102B60006F5F7F4FC7010E94C01DB82ECE01019636
:102B70000E94451FBB2029F08FE193E00E9495122F
:102B8000E7C565E873E0CE0101960E944A1FBE01C9
:102B90006F5F7F4FC7010E94C01DB82ECE01019606
:102BA0000E94451FBB2019F00E94132BBDC56EE784
:102BB00073E0CE0101960E944A1FBE016F5F7F4FF6
:102BC000C7010E94C01DB82ECE0101960E94451F6C
:102BD000BB2011F061E014C066E773E0CE010196FE
:102BE0000E944A1FBE016F5F7F4FC7010E94C01D38
:102BF000B82ECE0101960E94451FBB2079F060E0FF
:102C000080911F03909120030E94680D61E08091E4
:102C10002103909122030E94151359C560E773E0C8
:102C2000CE0101960E944A1FBE016F5F7F4FC70110
:102C30000E94C01DB82ECE0101960E94451FBB20E8
:102C400039F0E0911F03F091200381E0848718C0E0
:102C500069E673E0CE0101960E944A1FBE016F5FD4
:102C60007F4FC7010E94C01DB82ECE0101960E9461
:102C7000451FBB2059F0E0911F03F09120031486FB
:102C8000BF01645F7F4F86E390E01FC563E673E09A
:102C9000CE0101960E944A1FBE016F5F7F4FC701A0
:102CA0000E94C01DB82ECE0101960E94451FBB2078
:102CB00039F0E0911F03F091200381E0808F18C06C
:102CC0006CE573E0CE0101960E944A1FBE016F5F62
:102CD0007F4FC7010E94C01DB82ECE0101960E94F1
:102CE000451FBB2059F0E0911F03F0912003108E87
:102CF000BF01685E7F4F8CE090E0E7C467E573E05A
:102D0000CE0101960E944A1FBE016F5F7F4FC7012F
:102D10000E94C01DB82ECE0101960E94451FBB2007
:102D2000E1F0F70184819581059708F411C564E00D
:102D300070E0C7010E94AF1D982F9D7F913429F04C
:102D4000843519F08E3409F003C5682F80911F0374
:102D5000909120030E94A70EBAC461E573E0CE01F2
:102D600001960E944A1FBE016F5F7F4FC7010E94FC
:102D7000C01DB82ECE0101960E94451FBB2039F020
:102D8000E0911F03F091200381E0838B18C06AE477
:102D900073E0CE0101960E944A1FBE016F5F7F4F14
:102DA000C7010E94C01DB82ECE0101960E94451F8A
:102DB000BB2059F0E0911F03F0912003138ABF015B
:102DC0006D5E7F4F82E390E080C463E473E0CE01E8
:102DD00001960E944A1FBE016F5F7F4FC7010E948C
:102DE000C01DB82ECE0101960E94451FBB2009F4DC
:102DF000C0C06CE373E0C7010E94B61E2BEE3FE03B
:102E000040E050E0B7018FE193E00E9465278823FE
:102E100039F0C7010E94561D162F110F160F01C061
:102E20001FEF65E08FE193E00E94570F65E373E0C9
:102E3000C7010E94B61E2EE130E140E050E0B7012C
:102E40008FE193E00E946527882349F16EE871E0E5
:102E5000CE0107960E945C1FF701448155818B8546
:102E60009C85481B590BBE01695F7F4FC7010E94BB
:102E7000611D9C0140E050E0B701CE0101960E9427
:102E8000711FCE0101960E94561D062FCE0101969C
:102E90000E94451FCE0107960E94451F01C00FEFFB
:102EA000A0902103B0902203C5010E94E012F82EE9
:102EB000F501E6A46EE972E0CE0101960E944A1F78
:102EC000E0911F03F09120038385811106C066E91C
:102ED00072E0CE0101960E94B61E62EB71E0CE0157
:102EE00001960E94A01EF1E0FF1631F082E0F81674
:102EF00031F066E872E005C06AE772E002C06CE893
:102F000072E0CE0101960E942C1E6FE772E0CE01A6
:102F100001960E942C1EE11003C06FE672E002C011
:102F200065E772E0CE0101960E942C1E0F3F59F01A
:102F300068E672E0CE0101960E942C1E602FCE0141
:102F400001960E94B6341F3F59F06EE572E0CE0143
:102F500001960E942C1E612FCE0101960E94B6346C
:102F600040E061E0CE0101960E947E24CE010196F0
:102F7000D9C360E373E0CE0101960E944A1FBE01EF
:102F80006F5F7F4FC7010E94C01D882321F000237F
:102F900019F011E001C010E0CE0101960E94451F1A
:102FA000112359F0E0911F03F091200382818823BF
:102FB00009F4CEC381E0818318C06AE273E0CE01D8
:102FC00001960E944A1FBE016F5F7F4FC7010E949A
:102FD000C01D182FCE0101960E94451F112359F0E4
:102FE000E0911F03F09120031182BF016F5F7F4FBB
:102FF0008AE190E06AC364E273E0CE0101960E9428
:103000004A1FBE016F5F7F4FC7010E94C01D182F6E
:10301000CE0101960E94451F112361F0E12C00E0D2
:1030200020E040E060E080911F03909120030E9427
:103030001C0D4DC36CE173E0CE0101960E944A1F46
:10304000BE016F5F7F4FC7010E94C01D182FCE01C8
:1030500001960E94451F1123D9F0AE014D5E5F4FCE
:10306000BE016C5E7F4F8FE193E00E94EC0E66E143
:1030700073E0CE0107960E944A1F6C89CE01079625
:103080000E94B6346B89CE0107960E94B63437C3CE
:103090006EE073E0CE0101960E944A1F0BE027E02C
:1030A000AE014F5F5F4FB7018FE193E00E94820F47
:1030B000182FCE0101960E94451F1123E9F16BEFF5
:1030C00072E0CE0107960E944A1F22E030E040E005
:1030D00050E0B701CE0101960E94711FBE016F5FE3
:1030E0007F4FCE0107960E94AF1ECE0101960E942F
:1030F000451F65EB71E0CE0107960E94A01E24E0FB
:1031000030E042E050E0B701CE0101960E94711F0D
:10311000BE016F5F7F4FCE0107960E94AF1ECE01AA
:1031200001960E94451F67EB71E0CE0107960E9451
:10313000A01ECE01079682C264EF72E0CE01019616
:103140000E944A1F0FE026E0AE014F5F5F4FB701BC
:103150008FE193E00E94820F182FCE0101960E940A
:10316000451F112309F487C064E070E0C7010E9485
:10317000AF1D8D3209F0ECC222E030E040E050E0BB
:10318000B701CE0107960E94711FCE0107960E94DB
:10319000561D162F24E030E042E050E0B701CE018A
:1031A00001960E94711FBE016F5F7F4FCE0107968F
:1031B0000E940C1FCE0101960E94451FCE0107966A
:1031C0000E94561DB62E27E030E045E050E0B701E2
:1031D000CE0101960E94711FBE016F5F7F4FCE012D
:1031E00007960E940C1FCE0101960E94451FCE013A
:1031F00007960E94561D062F29E030E047E050E078
:10320000B701CE0101960E94711FBE016F5F7F4F13
:10321000CE0107960E940C1FCE0101960E94451F09
:10322000CE0107960E94561D1831F8F4EBE3EB151A
:10323000E0F00831D0F46C33C0F480911F0390911A
:10324000200310130AC0B61208C0E12C00E020E0F1
:1032500040E060E00E941C0D08C0E62E2B2D412F9F
:1032600061E00E941C0D11E001C010E0CE01079644
:103270000E94451F2DC2F701048101506EEE72E0DD
:10328000CE0101960E944A1F25E0AE014F5F5F4FBD
:10329000B7018FE193E00E94820F182FCE010196B3
:1032A0000E94451F1123F1F0C7010E945426882374
:1032B00009F44EC2C7010E94561D8B01663071058C
:1032C00010F005E010E0E0911F03F0912003028B65
:1032D000BF016E5E7F4F8AE390E00E94C82168EED6
:1032E00072E07BC0F701048101506FED72E0CE0106
:1032F00001960E944A1F28E0AE014F5F5F4FB70161
:103300008FE193E00E94820F182FCE0101960E9458
:10331000451F112329F1C7010E945426882309F46F
:1033200017C2C7010E94561D8B016230710530F033
:10333000613B744028F000EB14E002C002E010E0B2
:10334000E0911F03F0912003178B068BBF016A5E8B
:103350007F4F82E190E00E94972166ED72E03DC0D0
:10336000F701048101506DEC72E0CE0101960E94DC
:103370004A1F28E0AE014F5F5F4FB7018FE193E036
:103380000E94820F182FCE0101960E94451F112323
:1033900071F1C7010E945426882309F4D9C1C701DD
:1033A0000E94561D8B016233710530F06138704701
:1033B00028F000E810E702C002E310E0E0911F03EC
:1033C000F0912003158B048BBF016C5E7F4F84E06E
:1033D00090E00E94972164EC72E0CE010D960E946D
:1033E000B61EB801CE010D960E94863470C1F70159
:1033F0000481015060EC72E0CE0101960E944A1FE8
:1034000023E0AE014F5F5F4FB7018FE193E00E9471
:10341000820F182FCE0101960E94451F112321F122
:1034200064EB72E0CE0107960E944A1FB701CE01FD
:1034300007960E94AF1E60E771E0CE0107960E94DA
:10344000A01E81E080933403BE01695F7F4FCE01EF
:1034500001960E94531F41E0BE016F5F7F4F8FE1D5
:1034600093E00E94E01058C16EEB71E0CE0101962E
:103470000E945C1F0CE022E0AE014F5F5F4FB7017E
:103480008FE193E00E94820F182FCE0101960E94D7
:10349000451F112309F448C0C7010E945426882300
:1034A00009F456C100911F0310912003F801808197
:1034B000823008F44DC1B701C8010E94160EF82EE3
:1034C0008FEF8F0D8D3F08F043C18BE0E82E2F2D3D
:1034D00030E0F8019081492F50E041505109241704
:1034E0003507FCF42F5F3F4FE29E5001E39EB00C86
:1034F0001124A501405D5E4F2AE0B801CE0101967E
:103500000E94400CB5016B5D7E4FAE014F5F5F4F77
:10351000C8010E94AB0CCE0101960E94451FF39496
:10352000D6CF9150908348C062EC71E0CE010196F5
:103530000E945C1F0CE022E0AE014F5F5F4FB701BD
:103540008FE193E00E94820F182FCE0101960E9416
:10355000451F1123A9F1C7010E945426882309F4AD
:10356000F7C000911F0310912003F80180818F3074
:1035700009F4EEC0B701C8010E94160E8F3F09F092
:10358000E7C0B701CE0101960E94531FF801608188
:10359000FBE06F9FB0011124605D7E4FAE014F5F75
:1035A0005F4FC8010E94AB0CCE0101960E94451FDF
:1035B000F80180818F5F8083B8018CE291E085C043
:1035C00061EC71E0CE0101960E945C1F0DE023E0EA
:1035D000AE014F5F5F4FB7018FE193E00E94820F12
:1035E000182FCE0101960E94451F112351F1C701EA
:1035F0000E945426882309F4ABC000911F03109148
:103600002003F8018081882309F4A2C081E082832D
:10361000B8016E5F7F4F86E190E00E94C821B7013C
:10362000CE0101960E94531FAE014F5F5F4F6EE1C6
:1036300070E0C8010E94AB0CCE0101960E94451FAC
:1036400046C065EC71E0CE0101960E945C1F0DE062
:1036500023E0AE014F5F5F4FB7018FE193E00E941F
:10366000820F182FCE0101960E94451F112309F4E5
:103670006FC0C7010E945426882309F469C00091D5
:103680001F031091200381E0F8018383B8016D5F6F
:103690007F4F88E590E00E94C821B701CE010196D6
:1036A0000E94531FAE014F5F5F4F60E670E0C8019C
:1036B0000E94AB0CCE0101960E94451FF8011482B6
:1036C000B8016C5F7F4F8CE590E00E94C82111E04B
:1036D000D1102AC06EEA72E0CE0107960E944A1FFE
:1036E000111106C065EA72E0CE0107960E94B61E6F
:1036F000BE01635F7F4FCE0107960E94AF1EBE01E1
:10370000695F7F4FCE0101960E94531F40E061E048
:10371000CE0101960E947E24CE0101960E94451F93
:10372000CE0107960E94451FCE010D960E94451FAF
:1037300064960FB6F894DEBF0FBECDBFDF91CF9178
:103740001F910F91FF90EF90DF90BF90AF90089581
:1037500010E0BECF0895CF92DF92EF92FF920F93C9
:103760001F93CF93DF936C017A018B01C0E0D0E00F
:10377000CE15DF0589F0D8016D918D01D601ED914F
:10378000FC910190F081E02DC6010995892B11F47F
:103790007E0102C02196ECCFC701DF91CF911F912E
:1037A0000F91FF90EF90DF90CF900895FC01918DE5
:1037B000828D981761F0828DDF01A80FB11D5D9693
:1037C0008C91928D9F5F9F73928F90E008958FEF01
:1037D0009FEF0895FC01918D828D981731F0828DB5
:1037E000E80FF11D858D90E008958FEF9FEF08950C
:1037F000FC01918D228D892F90E0805C9F4F821B70
:1038000091098F739927089582E892E00E94F81B2E
:1038100021E0892B09F420E0822F0895FC01848D9A
:10382000DF01A80FB11DA35ABF4F2C91848D90E0EA
:1038300001968F739927848FA689B7892C93A089C5
:10384000B1898C9180648C93938D848D981306C07C
:103850000288F389E02D80818F7D80830895EF9227
:10386000FF920F931F93CF93DF93EC0181E0888F3A
:103870009B8D8C8D981305C0E889F989808185FD21
:1038800024C0F62E0B8D10E00F5F1F4F0F73112712
:10389000E02E8C8DE8120CC00FB607FCFACFE88939
:1038A000F989808185FFF5CFCE010E940E1CF1CFF2
:1038B0008B8DFE01E80FF11DE35AFF4FF0820B8F55
:1038C000EA89FB898081806207C0EE89FF89608375
:1038D000E889F98980818064808381E090E0DF91CC
:1038E000CF911F910F91FF90EF900895CF93DF93A9
:1038F000EC01888D8823C9F0EA89FB89808185FDE8
:1039000005C0A889B9898C9186FD0FC00FB607FC48
:10391000F5CF808185FFF2CFA889B9898C9185FF89
:10392000EDCFCE010E940E1CE7CFDF91CF9108951D
:1039300080E090E0892B29F00E94041C81110C94F6
:1039400000000895833081F028F4813099F08230AE
:10395000A1F008958730A9F08830B9F08430D1F40F
:10396000809180008F7D03C0809180008F7780934D
:103970008000089584B58F7702C084B58F7D84BDA3
:1039800008958091B0008F7703C08091B0008F7D43
:103990008093B000089508950E944238CF93DF933A
:1039A000EC0188819981009711F00E94E03619821C
:1039B00018821D821C821B821A82DF91CF9108958A
:1039C0000F931F93CF93DF93EC0188819981009728
:1039D00029F02A813B812617370788F48B016F5F16
:1039E0007F4F0E947837009761F0998388831B830B
:1039F0000A832C813D81232B11F4FC01108281E08C
:103A000001C080E0DF91CF911F910F910895EF9257
:103A1000FF920F931F93CF93DF93FC012481358195
:103A20006115710511F480E019C041155105A9F027
:103A30007B01EC018A01020F131FB8010E94E01CF8
:103A4000882389F3288139818C819D81B701820F78
:103A5000931F0E9469381D830C8381E0DF91CF9111
:103A60001F910F91FF90EF900895EF92FF920F93A7
:103A70001F93CF93DF93EC017B018A01BA010E946F
:103A8000E01C811104C0CE010E94CE1C07C01D8322
:103A90000C83B701888199810E946938CE01DF913A
:103AA000CF911F910F91FF90EF900895FC018081BD
:103AB0009181009711F00C94A73860E070E0CB0181
:103AC0000895AF92BF92CF92DF92EF92FF920F9341
:103AD0001F93CF93DF937B018A01FB0144815581C2
:103AE0004115510561F1FC01248135812115310514
:103AF00031F12417350718F10217130718F089015F
:103B000001501109FC01A080B180C501DFEFCFEFAA
:103B10006501C00ED11EC816D906A0F0F70160815C
:103B200071810E948D38009769F09C012A193B0928
:103B30000217130710F0D22FC32F0196ECCF8FEF8F
:103B40009FEF02C08D2F9C2FDF91CF911F910F917E
:103B5000FF90EF90DF90CF90BF90AF900895FC0161
:103B6000248135816217730748F480819181009721
:103B700029F0FC01E60FF71F8081089580E0089589
:103B8000FB0144815581FC012481358124173507CF
:103B900078F080819181009759F0FB0160817181FB
:103BA0006115710529F00E94703821E0892B09F018
:103BB00020E0822F0895FC0124813581232B31F4EC
:103BC00021E061157105A1F0FB0108C0FC018081B5
:103BD00091816115710531F421E0FC018081882318
:103BE00039F005C00E94603821E0892B09F020E0FF
:103BF000822F0895FC0124813581FB014481558188
:103C00002417350721F5FC0180819181FB0160813A
:103C10007181009719F061157105A1F461157105A5
:103C200049F0232BB1F0FB01808190E091958195C3
:103C300091090AC0009769F0232B59F0FC0180819B
:103C400090E002C00E94603821E0892B19F020E04A
:103C500001C021E0822F0895EF92FF920F931F93EE
:103C6000CF93DF936115710511F480E01EC08B01C5
:103C7000EC01CB010E94D5380097B1F02C813D8139
:103C80007C01E20EF31EB701CE010E94E01C8823E6
:103C900061F3288139818C819D81B801820F931F46
:103CA0000E94CE38FD82EC8281E0DF91CF911F919E
:103CB0000F91FF90EF900895EF92FF920F931F9353
:103CC000CF93DF93CDB7DEB72D970FB6F894DEBF55
:103CD0000FBECDBF7C01CB01BA012AE08E010F5F80
:103CE0001F4FA8010E94FE38F80101900020E9F75B
:103CF0003197AF01401B510BB801C7010E94071D4E
:103D00002D960FB6F894DEBF0FBECDBFDF91CF91D9
:103D10001F910F91FF90EF900895CF93DF9300D004
:103D2000CDB7DEB769831A8241E050E0BE016F5F14
:103D30007F4F0E94071D0F900F90DF91CF91089544
:103D40006115710551F0FB0101900020E9F73197F1
:103D5000AF01461B570B0C94071D80E00895FB0133
:103D600044815581608171810C94071DEF92FF920F
:103D70000F931F93CF93DF93EC018B0161157105B6
:103D800051F0CB010E94D5387C01BC01CE010E94CC
:103D9000E01C811104C0CE010E94CE1C07C0FD8230
:103DA000EC82B801888199810E94CE38CE01DF91E2
:103DB000CF911F910F91FF90EF900895CF93DF93D4
:103DC000EC016115710559F0FB0101900020E9F744
:103DD0003197AF01461B570B0E94351D02C00E9450
:103DE000CE1CCE01DF91CF910895CF93DF93EC01EC
:103DF000FB018617970761F060817181611571057C
:103E000029F0448155810E94351D02C00E94CE1CBC
:103E1000CE01DF91CF9108950F931F93CF93DF933E
:103E20008C01EB01FC01808191810097B1F06881E8
:103E300079816115710579F0428153812C813D8131
:103E40004217530740F00E9469388C819D81F80128
:103E50009583848313C00E94E03688819981F8019C
:103E6000918380838A819B81938382838C819D81CE
:103E700095838483198218821B821A821D821C8278
:103E8000DF91CF911F910F910895FC018081918165
:103E90000C94E036FC01118210821382128215828A
:103EA00014820C94B61EFC011182108213821282BD
:103EB000158214820C94F51EFC011182108213826B
:103EC0001282158214826115710551F0FB01019077
:103ED0000020E9F73197AF01461B570B0C94351DB5
:103EE0000895BF92CF92DF92EF92FF920F931F93AC
:103EF000CF93DF937C016B018A01E9012417350719
:103F000020F4812F8901C42FD82F6FE571E0C701FC
:103F10000E945C1FD60114968D919C9115970817ED
:103F20001907D0F48C179D0708F4EC01D601ED9128
:103F3000FC911197EC0FFD1FB08010824D915C91A8
:103F4000BA01600F711FC7010E94DE1ED601ED91FC
:103F5000FC91EC0FFD1FB082C701DF91CF911F9143
:103F60000F91FF90EF90DF90CF90BF900895DC010C
:103F7000ED91FC910280F381E02D42E050E06DE58F
:103F800071E009941F920F920FB60F9211242F9394
:103F90003F934F935F936F937F938F939F93AF93D1
:103FA000BF93EF93FF9382E892E00E940E1CFF9173
:103FB000EF91BF91AF919F918F917F916F915F91A1
:103FC0004F913F912F910F900FBE0F901F9018951A
:103FD0001F920F920FB60F9211242F938F939F93DE
:103FE000EF93FF93E0919202F09193028081E09130
:103FF0009802F091990282FD12C0908180919B02FB
:104000008F5F8F7320919C02821751F0E0919B0289
:10401000F0E0EE57FD4F958F80939B0201C08081A9
:10402000FF91EF919F918F912F910F900FBE0F9065
:104030001F901895CF93DF93282F30E0F901E750B8
:10404000FC4F8491F901EB51FC4FD491F901EF52EF
:10405000FC4FC491CC2391F081110E94A21CEC2F43
:10406000F0E0EE0FFF1FE953FC4FA591B491EC91E6
:10407000ED2381E090E021F480E002C080E090E058
:10408000DF91CF9108951F93CF93DF93282F30E0D6
:10409000F901E750FC4F8491F901EB51FC4FD491A9
:1040A000F901EF52FC4FC491CC23C9F0162F8111B6
:1040B0000E94A21CEC2FF0E0EE0FFF1FE354FC4F18
:1040C000A591B4918FB7F894111105C09C91ED2F73
:1040D000E095E92302C0EC91ED2BEC938FBFDF91CB
:1040E000CF911F910895CF93DF9390E0FC01EB51A6
:1040F000FC4F2491FC01EF52FC4F8491882361F125
:1041000090E0880F991FFC01ED54FC4FC591D491AC
:10411000FC01E354FC4FA591B491611109C09FB714
:10412000F8948881209582238883EC912E230BC0FC
:10413000623061F49FB7F8943881822F8095832391
:104140008883EC912E2B2C939FBF06C08FB7F894D9
:10415000E8812E2B28838FBFDF91CF9108952FB751
:10416000F89460912402709125028091260290912A
:1041700027022FBF08950F931F93CF93DF93EC0176
:104180000E94AF20688779878A879B87E881F981B9
:104190000680F781E02DCE01099597FF17C00E9498
:1041A000AF20088519852A853B85DC01CB01801B62
:1041B000910BA20BB30B0C811D812E813F818017C7
:1041C0009107A207B30710F38FEF9FEFDF91CF9115
:1041D0001F910F9108951F920F920FB60F92112405
:1041E0002F933F938F939F93AF93BF93809124021C
:1041F00090912502A0912602B091270230912302CE
:1042000026E0230F2D3720F40296A11DB11D05C015
:1042100029E8230F0396A11DB11D2093230280934B
:10422000240290932502A0932602B0932702809146
:104230001F0290912002A0912102B09122020196CA
:10424000A11DB11D80931F0290932002A093210213
:10425000B0932202BF91AF919F918F913F912F9187
:104260000F900FBE0F901F9018951F920F920FB6D0
:104270000F9211242F933F934F935F936F937F93EC
:104280008F939F93AF93BF93EF93FF93E0910201BE
:10429000F09103010995FF91EF91BF91AF919F912B
:1042A0008F917F916F915F914F913F912F910F90DF
:1042B0000FBE0F901F9018951F920F920FB60F927E
:1042C00011242F933F934F935F936F937F938F931B
:1042D0009F93AF93BF93EF93FF93E0910001F09111
:1042E00001010995FF91EF91BF91AF919F918F913E
:1042F0007F916F915F914F913F912F910F900FBEE2
:104300000F901F9018950F931F93CF93DF938C01FD
:10431000EB010E944A398883C80101960E944A39FC
:104320008983CE01DF91CF911F910F910895EF9274
:10433000FF920F931F93CF93DF9300D0CDB7DEB7DB
:104340008C017B01FB0160819A838983CE010196F8
:104350000E94870EF70161810F5F1F4F1A83098347
:10436000CE0101960E94870EC7010F900F90DF913A
:10437000CF911F910F91FF90EF900895CF93DF930E
:10438000EB010E944A398883CE01DF91CF910895D5
:104390000F931F93CF93DF9300D0CDB7DEB78B0180
:1043A000FB0160819A838983CE0101960E94870E6A
:1043B000C8010F900F90DF91CF911F910F91089539
:1043C0000F931F93CF93DF9300D000D000D0CDB7D1
:1043D000DEB7FC0182818823C1F08B01BF012AE096
:1043E0004EE150E0CE0101960E94400CBE016F5F8D
:1043F0007F4FC8010E94FA1D11E0811101C010E039
:10440000CE0101960E94451F01C010E0812F269623
:104410000FB6F894DEBF0FBECDBFDF91CF911F91D5
:104420000F910895CF93DF9360E070E00E94AF1D7D
:10443000813371F483E5809349030E94ED2861E0A4
:104440008091210390912203DF91CF910C94D2139C
:10445000823381F48FE4809349030E94ED2820E0A9
:1044600040E061E08091210390912203DF91CF91A0
:104470000C949C12833341F584E5809349030E9498
:10448000ED28C0912103D0912203CE010E94E012B9
:10449000843011F46CE403C0823039F461E48A8121
:1044A0009B81DF91CF910C944E0F813009F0ACC00D
:1044B000CE010E9470132A813B81882311F061E3B1
:1044C00001C063E3C901EDCF8433E9F487E580934C
:1044D00049030E94ED28C0912103D0912203CE010F
:1044E0000E949813811102C064E5D9CF813011F484
:1044F00061E5D5CF823011F462E5D1CF833009F088
:1045000083C065E4CCCF8533C1F486E5809349034D
:104510000E94ED28C0912103D0912203CE010E9478
:10452000BB13823011F466E5BACF813011F468E52F
:10453000B6CF811169C067E5B2CF8434C9F481E395
:104540008093490361E080911F03909120030E94B2
:10455000680D61E080912103909122030E94151360
:1045600060E080912103909122030E94D21315C034
:104570008334B9F482E38093490360E080911F03A0
:10458000909120030E94680D21E040E060E080915E
:104590002103909122030E949C12DF91CF910C94F1
:1045A000FC288833A9F40E94ED2861E080911F0364
:1045B000909120030E94680D61E080912103909109
:1045C00022030E94151381E08093240368E316C040
:1045D0008933D1F40E94ED2860E080911F0390910F
:1045E00020030E94680D61E08091210390912203D5
:1045F0000E94151381E08093240369E38FE193E027
:10460000DF91CF910C94D827DF91CF910895EF924D
:10461000FF920F931F93CF93DF9300D000D000D071
:10462000CDB7DEB77C0169EC71E0CE0101960E9446
:104630005C1F08E027E0AE014F5F5F4FB7018FE1DD
:1046400093E00E94820F182FCE0101960E94451F11
:10465000812F26960FB6F894DEBF0FBECDBFDF9137
:10466000CF911F910F91FF90EF900895CF93DF931B
:1046700000D000D000D0CDB7DEB710923E0310922C
:104680002C0380914F0390915003DC01ED91FC913C
:104690000284F385E02D099568E774E0CE01019668
:1046A0000E944A1F41E0BE016F5F7F4F8FE193E0A0
:1046B0000E94E010CE0101960E94451F0E94AF208B
:1046C00061E08FE193E00E94570F6FE571E0CE014A
:1046D00001960E945C1F41E0BE016F5F7F4F8FE13A
:1046E00093E00E94E010CE0101960E94451F809148
:1046F0004F0390915003DC01ED91FC910284F3850E
:10470000E02D09951092480380913C038E3411F0FE
:10471000823549F580913D038F3429F5809140031E
:10472000811121C080913F0381111DC0E0911F03C1
:10473000F0912003818D8435B1F48081823098F02E
:1047400081E080934003809341030E94AF206093F7
:1047500042037093430380934403909345038091F5
:1047600047038093460310923F03109224038EE484
:1047700080933C0380933D03109223030E94AF205B
:1047800060934B0370934C0380934D0390934E03BF
:1047900010924A0326960FB6F894DEBF0FBECDBF27
:1047A000DF91CF910895FF920F931F93CF93DF93E3
:1047B00000D000D000D0CDB7DEB78C016CE674E03D
:1047C000CE0101960E944A1FBE016F5F7F4FC80154
:1047D0000E94C01DF82ECE0101960E94451FFF20A9
:1047E000E1F02CE030E04BE050E0B801CE01019662
:1047F0000E94711F60E070E0CE0101960E94AF1D23
:10480000182FCE0101960E94451F123341F0133339
:1048100041F0103341F0163341F08EE407C084E4D8
:1048200005C082E503C089E401C085E426960FB681
:10483000F894DEBF0FBECDBFDF91CF911F910F91D6
:10484000FF900895FF920F931F93CF93DF9300D0B3
:1048500000D000D0CDB7DEB78C0160E674E0CE01A9
:1048600001960E944A1FBE016F5F7F4FC8010E94E0
:10487000FA1DF82ECE0101960E94451FFF2011F06F
:1048800091E02FC06AE574E0CE0101960E944A1FB4
:10489000BE016F5F7F4FC8010E94FA1DF82ECE0146
:1048A00001960E94451FF110EBCF6FE474E0CE013A
:1048B00001960E944A1FBE016F5F7F4FC8010E9490
:1048C000FA1DF82ECE0101960E94451FF110D8CF97
:1048D00061ED71E0C8010E94DB1D91E0811101C012
:1048E00090E0892F26960FB6F894DEBF0FBECDBF9D
:1048F000DF91CF911F910F91FF900895EF92FF925A
:104900000F931F93CF93DF93CDB7DEB762970FB6A8
:10491000F894DEBF0FBECDBF7C01062F142F81E0BF
:1049200080932C0380914F0390915003DC01ED9113
:10493000FC910284F385E02D0995B701CE010D9617
:104940000E94531F011126C0809147038F34B1F09C
:1049500034F4833499F0863409F0E7C00FC083350E
:1049600021F0853509F0E1C009C068ED71E0CE01A4
:104970000D960E94DE1E6FED71E008C068ED71E0DB
:10498000CE010D960E94DE1E62EE71E0CE010D9604
:104990000E94A01E66EE71E0CE0107960E945C1F89
:1049A0001230B9F460911F0370912003FB018381E1
:1049B000882341F02AE040E650E0CE0101960E94B3
:1049C000400C1AC06FE571E0CE0101960E945C1F99
:1049D00013C080913303882339F064E474E0CE017E
:1049E00007960E942C1E13C060911F037091200334
:1049F000CE0101960E94710DBE016F5F7F4FCE0107
:104A000007960E94AF1ECE0101960E94451F60E7E7
:104A100071E0CE0107960E94A01E80914F039091F5
:104A20005003DC01ED91FC910284F385E02D0995A2
:104A3000BE01695F7F4FCE0101960E94531F41E086
:104A4000BE016F5F7F4F8FE193E00E94E010CE01C7
:104A500001960E94451F80914F0390915003DC0105
:104A6000ED91FC910284F385E02D09956AE08FE1D8
:104A700093E00E94570FBE01635F7F4FCE01019606
:104A80000E94531F41E0BE016F5F7F4F8FE193E0B3
:104A90000E94E010CE0101960E94451F80914F03B5
:104AA00090915003DC01ED91FC910284F385E02D9F
:104AB00009956AE08FE193E00E94570F80914F03C0
:104AC00090915003DC01ED91FC910284F385E02D7F
:104AD00009958FE193E00E947C1000914F031091A3
:104AE0005003D801ED91FC910190F081E02D6AE135
:104AF000C8010995C8010E94B71F80914F0390918A
:104B00005003DC01ED91FC910284F385E02D0995C1
:104B10006AE08FE193E00E94570F109233031092E6
:104B20002C03CE0107960E94451FCE010D960E94D0
:104B3000451F62960FB6F894DEBF0FBECDBFDF9162
:104B4000CF911F910F91FF90EF900895CF93DF9336
:104B500000D000D000D0CDB7DEB790913F039111C7
:104B600019C0E0911F03F0912003918D913491F4CD
:104B7000809347036FE571E0CE0101960E945C1FB0
:104B800040E060E0CE0101960E947E24CE010196B5
:104B90000E94451F26960FB6F894DEBF0FBECDBF0C
:104BA000DF91CF9108950F931F93CF93DF93CDB7EC
:104BB000DEB76E970FB6F894DEBF0FBECDBF8C0187
:104BC00069E374E0CE0101960E944A1FBE016F5F47
:104BD0007F4FC8010E94FA1D81114DC06EE274E042
:104BE000CE0107960E944A1FBE01695F7F4FC80130
:104BF0000E94FA1D811141C063E274E0CE010D965E
:104C00000E944A1FBE01635F7F4FC8010E94FA1DC8
:104C1000811135C068E174E0CE0143960E944A1FBD
:104C2000BE016D5E7F4FC8010E94FA1D811115C043
:104C30006DE074E0CE0149960E944A1FBE01675E96
:104C40007F4FC8010E94FA1D11E0811101C010E0E0
:104C5000CE0149960E94451F01C011E0CE01439646
:104C60000E94451FCE010D960E94451FCE0107965A
:104C70000E94451F09C080E004C081E002C011E02D
:104C8000F1CF11E08111F2CFCE0101960E94451FB4
:104C9000812F6E960FB6F894DEBF0FBECDBFDF91A9
:104CA000CF911F910F910895EF92FF920F931F9351
:104CB000CF938C01FC01E480F580C0E06C2F70E0A4
:104CC0006E157F0568F4C8010E94AF1D282F880F5C
:104CD000330B205331092A30310520F4CF5FEECF5A
:104CE00081E001C080E0CF911F910F91FF90EF9084
:104CF00008958F929F92AF92BF92CF92DF92EF92E0
:104D0000FF921F93CF93DF9300D000D000D0CDB798
:104D1000DEB7162FBC01CE0101960E94531F40E062
:104D2000BE016F5F7F4F8FE193E00E94E010CE01E4
:104D300001960E94451F0E94AF204B015C01112388
:104D400039F090E6C92E9AEED92EE12CF12C15C03F
:104D500088EBC82E8BE0D82EE12CF12C0EC0809170
:104D60004F0390915003DC01ED91FC910480F5819B
:104D7000E02D09951816190674F00E94AF20DC0189
:104D8000CB0188199909AA09BB098C159D05AE05A7
:104D9000BF0528F323C06FE173E0CE0101960E94A6
:104DA0009D1063EF71E0CE0101960E94DB1D811121
:104DB0000DC061ED71E0CE0101960E94DB1D8111F5
:104DC00007C0CE0101960E94451FD7CF11E001C058
:104DD00010E0CE0101960E94451F01C010E0812F16
:104DE00026960FB6F894DEBF0FBECDBFDF91CF91F0
:104DF0001F91FF90EF90DF90CF90BF90AF909F906A
:104E00008F900895FC01A089B18982E08C93A485DC
:104E1000B5851C92A685B78583E38C93108EA489F3
:104E2000B58986E08C93A289B3898C9180618C933B
:104E3000A289B3898C9188608C93A289B3898C9163
:104E400080688C930288F389E02D80818F7D808338
:104E5000089580913403811119C090913C039E34D0
:104E6000B1F490913D039E3491F490914A039923BB
:104E700071F09091480391110AC090912C03911107
:104E800006C09091520381E08927089580E008953B
:104E90000F931F93CF93DF93EC018B016FE571E0CC
:104EA0000E945C1FC8010E94BB2097FD08C08A3089
:104EB000910529F0682FCE010E948D1EF3CFCE01FF
:104EC000DF91CF911F910F9108954F925F926F9252
:104ED0007F92AF92BF92CF92DF92FF920F931F9378
:104EE000CF93DF9300D000D000D0CDB7DEB78C01D8
:104EF0005B0169010E94AF202B013C01B501CE018D
:104F000001960E94531F41E0BE016F5F7F4FC801B1
:104F10000E94E010CE0101960E94451F0E94AF2022
:104F2000DC01CB0184199509A609B709803A9F4095
:104F3000A105B10538F5D801D0968D919C91D197F6
:104F4000DC01ED91FC910480F581E02D0995892B20
:104F500029F3B801CE0101960E949D10BE016F5F3A
:104F60007F4FC801F6010995F82E882399F2BE01FA
:104F70006F5F7F4FC5010E94F51ECE0101960E9412
:104F8000451F01C0F12C8F2D26960FB6F894DEBF79
:104F90000FBECDBFDF91CF911F910F91FF90DF909A
:104FA000CF90BF90AF907F906F905F904F9008959B
:104FB0001F93CF93DF93EC01162F88A999A9DC01E9
:104FC000ED91FC910284F385E02D0995CE010E94BC
:104FD00010110E94AF206F83788789879A8781E0BC
:104FE0008B8718A71C87DF91CF911F910895CF93CE
:104FF000DF93C0917C02D0917E0280917B02C81326
:1050000005C090917D02D91709F4BCC09091560259
:10501000992309F477C0C11114C0882309F452C040
:1050200020E041E060E088E292E00E949C1269E4A6
:1050300080912A0290912B020E94FD1180933802E8
:1050400041C0C33021F58330E8F5E0912802F091AA
:1050500029028389882389F020E041E060E088E22A
:1050600092E00E949C1268E480912A0290912B02A7
:105070000E94FD1180933A0225C065E480912A02C6
:1050800090912B020E94FD1180933B021BC0C13006
:1050900061F48230B8F064E480912A0290912B028E
:1050A0000E94FD11809339020DC0C23059F4823044
:1050B00048F46AE580912A0290912B020E94FD112A
:1050C00080933C0280917D02D81709F457C0D230FA
:1050D000A1F4823008F052C020E041E060E088E2B4
:1050E00092E00E949C1266E580912A0290912B0228
:1050F0000E94FD1180933D0241C0D1113FC0882321
:10510000E9F133C0C33061F48330D8F465E48091B1
:105110002A0290912B020E94FD1180933B0211C044
:10512000C23079F4823068F4D23040F5E091280240
:10513000F09129028385882321F088E292E00E9481
:10514000FC12D1111BC080917D028823B9F0CC23C1
:10515000A9F0E0912802F09129028385882329F0A3
:1051600088E292E00E94FC1209C067E580912A0261
:1051700090912B020E94FD1180933E02D0937D02FC
:10518000C0937B02DF91CF910895CF93DF9388E2A4
:1051900092E00E949813D82F88E292E00E94BB13FD
:1051A000C82F80917B02D81721F080917C02D817FC
:1051B00041F080917D02C81741F080917E02C813B2
:1051C00004C00E94F72781E001C080E0D0937C02F8
:1051D000C0937E02DF91CF9108958FE193E00E940A
:1051E00010110E94AF2060932F03709330038093BF
:1051F00031039093320308950F931F93CF93DF935E
:10520000CDB7DEB72C970FB6F894DEBF0FBECDBF7B
:1052100064E874E0CE0107960E944A1F61E4CE0163
:1052200007960E948D1E60E874E0CE0107960E94EA
:105230002C1E0FE113E0D801D0968D919C91D1974F
:10524000DC01ED91FC910284F385E02D0995BE010E
:10525000695F7F4FCE0101960E94531F41E0BE015E
:105260006F5F7F4FC8010E94E010CE0101960E943F
:10527000451FF80180A991A9DC01ED91FC91028400
:10528000F385E02D0995CE0107960E94451F2C96C7
:105290000FB6F894DEBF0FBECDBFDF91CF911F9147
:1052A0000F910895EF92FF920F931F93CF93DF9387
:1052B00000D0CDB7DEB78C017B01FB0160819A8302
:1052C0008983CE0101960E94870EF70161810F5FED
:1052D0001F4F1A830983CE0101960E94870EC701D2
:1052E0000F900F90DF91CF911F910F91FF90EF9052
:1052F0000895CF93DF9300D000D000D0CDB7DEB7B4
:105300006AEB74E0CE0101960E944A1F60E0CE0174
:1053100001960E947926CE0101960E94451F63EBFB
:1053200074E0CE0101960E944A1F60E0CE01019612
:105330000E947926CE0101960E94451F67EA74E01B
:10534000CE0101960E944A1F60E0CE0101960E94A4
:105350007926CE0101960E94451F81E08983BE0116
:105360006F5F7F4F84E893E00E94C8211A82198200
:10537000BE016F5F7F4F84E993E00E94522919823A
:10538000BE016F5F7F4F80E993E00E94C82164E611
:105390008FE193E00E94570F8FE193E00E949512F6
:1053A00026960FB6F894DEBF0FBECDBFDF91CF912A
:1053B00008951F93CF93DF9300D000D000D0CDB7D6
:1053C000DEB768E974E0CE0101960E944A1F61E0F1
:1053D000CE0101960E947926182FCE0101960E94D7
:1053E000451F812F26960FB6F894DEBF0FBECDBFA6
:1053F000DF91CF911F910895CF92DF92EF92FF92AC
:105400000F931F93CF93DF93CDB7DEB72C970FB6D3
:10541000F894DEBF0FBECDBF67EF71E0CE010196FD
:105420000E945C1F40E0BE016F5F7F4F8FE193E001
:105430000E94E010CE0101960E94451F0E94AF20FD
:105440006B017C010E94AF20DC01CB018C199D090E
:10545000AE09BF0988389341A105B10508F043C0E2
:1054600080914F0390915003DC01ED91FC910480F9
:10547000F581E02D0995892B29F360914F037091F7
:105480005003CE0107960E9448276DE874E0CE01D4
:1054900001960E944A1F0BE02AE0AE014F5F5F4F6A
:1054A000BE01695F7F4F8FE193E00E94820F182F4A
:1054B000CE0101960E94451F112351F060E070E07B
:1054C000CE0107960E94AF1D833339F0813331F04E
:1054D000CE0107960E94451FB5CF10E0CE0107967A
:1054E0000E94451F01C010E0812F2C960FB6F89442
:1054F000DEBF0FBECDBFDF91CF911F910F91FF9007
:10550000EF90DF90CF900895CF92DF92EF92FF92CD
:105510001F93CF93DF9300D000D000D0CDB7DEB77C
:10552000BC01CE0101960E94531F40E0BE016F5F97
:105530007F4F8FE193E00E94E010CE0101960E9420
:10554000451F0E94AF206B017C010E94AF20DC014F
:10555000CB018C199D09AE09BF0988389341A1057B
:10556000B10590F580914F0390915003DC01ED91CE
:10557000FC910480F581E02D0995892B31F3609130
:105580004F0370915003CE0101960E94482763EFAC
:1055900071E0CE0101960E94DB1D81110DC061ED0D
:1055A00071E0CE0101960E94DB1D811107C0CE0182
:1055B00001960E94451FC9CF11E001C010E0CE0145
:1055C00001960E94451F01C010E0812F26960FB65C
:1055D000F894DEBF0FBECDBFDF91CF911F91FF903A
:1055E000EF90DF90CF900895CF93DF9300D000D05D
:1055F00000D0CDB7DEB769ED74E0CE0101960E9410
:105600004A1F60E0CE0101960E947926CE010196E4
:105610000E94451F26960FB6F894DEBF0FBECDBF81
:10562000DF91CF910895EF92FF920F931F93CF9345
:10563000DF93CDB7DEB72A970FB6F894DEBF0FBE63
:10564000CDBF81E08093330365ED74E0CE01019618
:105650000E944A1F7E0187E0E80EF11C08E413E077
:10566000C8010E944A39F70181937F010F5F1F4FE4
:105670000C34F3E01F07A1F74F81588569857A85BF
:10568000CE0101960E945C1E40E061E0CE010196D1
:105690000E947E24CE0101960E94451F2A960FB6D5
:1056A000F894DEBF0FBECDBFDF91CF911F910F9158
:1056B000FF90EF900895CF93DF9300D000D000D0FB
:1056C000CDB7DEB767EC74E0CE0101960E944A1FA9
:1056D00060E0CE0101960E947926CE0101960E94DB
:1056E000451F26960FB6F894DEBF0FBECDBFDF91E3
:1056F000CF9108950F931F93CF93DF93CDB7DEB76C
:105700002C970FB6F894DEBF0FBECDBF67EE74E0E6
:10571000CE0107960E944A1F2EE130E140E050E0A2
:10572000BE01695F7F4F8FE193E00E946527882368
:1057300081F16EE871E0CE0101960E945C1F4B85FD
:105740005C858D819E81481B590BBE016F5F7F4F29
:10575000CE0107960E94611D8C01CE0101960E9428
:10576000451FA80155279A012C5F3F4F4F5F5F4FA0
:10577000BE01695F7F4FCE0101960E94711FCE016D
:1057800001960E94561D8B01CE0101960E94451F75
:1057900002C000E010E0CE0107960E94451FC8013C
:1057A0002C960FB6F894DEBF0FBECDBFDF91CF9120
:1057B0001F910F910895CF93DF93CDB7DEB7639715
:1057C0000FB6F894DEBF0FBECDBF789484B582606B
:1057D00084BD84B5816084BD85B5826085BD85B595
:1057E000816085BD80916E00816080936E00109213
:1057F000810080918100826080938100809181008E
:10580000816080938100809180008160809380001E
:105810008091B10084608093B1008091B00081607C
:105820008093B00080917A00846080937A008091A8
:105830007A00826080937A0080917A008E7F8093D4
:105840007A0080917A00806880937A001092C1007B
:1058500084B762E089E00E94732061E088E00E94E2
:105860007320BE016F5F7F4F80EA90E00E94BE21EF
:105870008981882311F060E001C061E088E00E9426
:1058800043206FE673E08AE390E00E94BE2180919E
:105890006F038F3F41F410926F036FE673E08AE36A
:1058A00090E00E94C82169E673E086E390E00E94E0
:1058B000BE21809169038F3F41F41092690369E62C
:1058C00073E086E390E00E94C82161E673E08CE516
:1058D00090E00E94BE21809161038F3F41F41092BD
:1058E000610361E673E08CE590E00E94C82160E608
:1058F00073E088E590E00E94BE21809160038F3FB5
:1059000041F41092600360E673E088E590E00E9445
:10591000C82168E673E080E090E00E94BE2180919B
:1059200068038F3F29F460E08DE593E00E94680DE5
:1059300061E773E084E090E00E948321809171032D
:1059400090917203019661F482E390E09093720368
:105950008093710361E773E084E090E00E949721F7
:1059600065E773E08CE090E00E94BE2180917503B2
:105970008F3F41F41092750365E773E08CE090E08F
:105980000E94C8218EE090E00E944A3980937603FD
:105990008F3F29F464E58DE593E00E94A70E6EE643
:1059A00073E086E990E00E94BE2180916E038F3FF4
:1059B00049F4E12C00E020E040E060E08DE593E078
:1059C0000E941C0D80916E038823C1F06AE673E08B
:1059D00088E990E00E94BE216BE673E08AE990E0DE
:1059E0000E94BE216CE673E08CE990E00E94BE212B
:1059F0006DE673E08EE990E00E94BE216DE573E0F4
:105A00008CE291E00E94BE2180915D03803140F0E4
:105A100010925D036DE573E08CE291E00E94C82175
:105A20006FE573E086E190E00E94BE2180915F0304
:105A30008F3F41F410925F036FE573E086E190E0E1
:105A40000E94C8216EE573E08AE190E00E94BE21C9
:105A500080915E038F3F41F410925E036EE573E028
:105A60008AE190E00E94C82162E673E080E293E060
:105A70000E94BE21809162038F3F41F41092620325
:105A800062E673E080E293E00E94C82163E773E07E
:105A900082E190E00E9483218091730390917403CE
:105AA000019661F482E090E0909374038093730315
:105AB00063E773E082E190E00E94972160E773E082
:105AC00082E390E00E94BE21809170038F3F41F4F9
:105AD0001092700360E773E082E390E00E94C821B7
