:100000000C9465020C9492200C946B200C94641355
:100010000C94C9130C949A130C948D020C948D02B9
:100020000C948D020C948D020C948D020C948D0214
:100030000C948D020C948D020C948D020C948D0204
:100040000C9421200C948D020C941E1F0C94F81E0D
:100050000C948D020C948D020C948D020C948D02E4
:100060000C948D020C948D0241542B43434944005F
:1000700041542B444445543D310D0A004154265708
:100080000D0A0041542B434C54533D310D0A00419D
:10009000542B4353434C4B3D310D0A0041542B43E9
:1000A0004E4D493D322C312C302C302C300D0A0075
:1000B00041542B434D47463D310D0A0041542B43DB
:1000C0004C43433D310D0A0041542B434C49503DB4
:1000D000310D0A004D4158434544440043455252B6
:1000E0000055504453554343004154410041542B63
:1000F000444445543D310D0A002B4350494E3A20AB
:100100004E4F542052454144590D0043616C6C20C0
:1001100052656164790D0041542B434D4744413D84
:100120002244454C20414C4C220D0A0041542B46A0
:10013000545050573D223132333435363738392216
:100140000D0A0041542B465450554E3D22726168B1
:10015000756C6E726174686F646B636C220D0A005B
:1001600041542B465450534552563D220041542B86
:100170004654504349443D310D0A002B46545053D8
:10018000495A453A20312C302C0041542B465450CA
:1001900053495A450D0A0041542B46545047455483
:1001A0000041542B53415042523D312C310D0A0035
:1001B00041504E222C220041542B53415042523D7B
:1001C000332C312C2200436F6E54797065222C221F
:1001D00047505253220D0A0041542B534150425272
:1001E0003D332C312C22004F4B203A2000524555F4
:1001F00050440050524753495A4500444300535518
:10020000500050524755504400564D52303200561F
:100210004D4D3031002A2A2A2A4D2B002E616D7255
:10022000222C302C3130302C310D0041542B4352D4
:1002300045433D342C22002B43434C4B3A20004194
:10024000542B435245433D350D003730343131395D
:1002500036393539000A4E6574776F726B3A000A89
:10026000426174253A00204F46460A00204F4E0A4C
:1002700000204F4E0A004D6F746F723A00204F46B7
:10028000460A0020322050484153450A0041555447
:100290004F4F4646004155544F4F4E004552524F26
:1002A00052203A20004F4B203A200041542B435516
:1002B00053443D312C220042414C004155544F548F
:1002C000494D45004155544F54494D450053544103
:1002D0005254494D45005354415254494D450053E1
:1002E00054414745005354414745004E4354494DFE
:1002F000450053455454494D45004E434F46460032
:10030000414D4F464600414D4F4E0041542B434214
:10031000430041542B43535100535441545553000F
:100320004F56464F4646004F56464F4E0052455395
:100330005000444E444F464600444E444F4E004207
:1003400059504F4646004259504F4E004155544F68
:100350004F4646004155544F4F4E004449440052C9
:1003600045534554004E6F204E756D626572004EC8
:10037000554D0044454641554C5400434C4541526F
:10038000414C4C0057414954000000000024002714
:10039000002A0000000000250028002B00000000BB
:1003A00000230026002900040404040404040402B9
:1003B0000202020202030303030303010204081002
:1003C00020408001020408102001020408102000CF
:1003D0000000080002010000030407000000000004
:1003E00000000037303431313936393539004E4F5D
:1003F00020414E535745520D00425553590D004E62
:100400004F20434152524945520D002B434C434328
:100410003A20312C302C0041542B434855500022B7
:100420002C320041542B5654533D220041542B434F
:100430004357413D302C300D0A0049443A004154A5
:100440002B4346554E3D312C310D0A003935383697
:10045000313335393738003733383336323236377F
:1004600038003733383336313432313400373639A7
:10047000383433393230310037303431313936396C
:1004800035390041542B43434C4B3F002B534150D3
:1004900042523A20312C0041542B53415042523D9C
:1004A000302C310D0A0041542B434F50533D320D37
:1004B0000A00415426570D0A0041542B4353434C24
:1004C0004B3D300D0A00B634573411241FBECFEF18
:1004D000D8E0DEBFCDBF12E0A0E0B1E0ECE2F3E790
:1004E00002C005900D92A030B107D9F723E0A0E03B
:1004F000B2E001C01D92AA37B207E1F712E0C4E6EC
:10050000D2E004C02197FE010E942836C336D107ED
:10051000C9F70E94B22A0C9489390C945A134F924D
:100520005F926F927F928F929F92AF92BF92CF9283
:10053000DF92EF92FF920F931F93CF93DF93CDB78C
:10054000DEB7A5970FB6F894DEBF0FBECDBF0E94F1
:10055000E51F00911C0310911D0320911E03309193
:100560001F03DC01CB01801B910BA20BB30B803668
:100570009A4EA105B10510F10E94E51F60931C037E
:1005800070931D0380931E0390931F03809120039B
:1005900091E0980F9C3318F4909320030FC08B5375
:1005A00080932003809121038F5F883118F480931A
:1005B000210304C0109221030E94612A80915103FB
:1005C0008823B1F00E94E51F00915203109153035C
:1005D0002091540330915503DC01CB01801B910B1A
:1005E000A20BB30B813D9740A105B10508F0FFC5F3
:1005F00080913403882371F10E94E51F0091370335
:10060000109138032091390330913A03AB01BC01BA
:10061000401B510B620B730B209135033091360355
:10062000E4E6E29FC001E39F900D1124A0E0B0E05A
:10063000481759076A077B0768F0E0911A03F091A1
:100640001B0387A5811106C060E084E00E94791F2A
:100650001092340380913B038E3409F052C0809194
:100660003C038E3409F09FC080914903811116C06C
:100670000E94E51F00914A0310914B0320914C0307
:1006800030914D03DC01CB01801B910BA20BB30B0E
:10069000893E9340A105B10508F0ACC580914003A7
:1006A000882309F480C0E0911803F091190312899E
:1006B00080914903882309F476C080913F038130FB
:1006C00009F49CC50E94E51FC0904103D0904203ED
:1006D000E0904303F09044039B01AC012C193D09C9
:1006E0004E095F0969017A01212F30E0A0E6BAEED8
:1006F0000E947A396C157D058E059F0508F47EC52C
:1007000052C0893419F0823509F04DC00E94E51FAE
:1007100000912E0310912F0320913003309131036B
:10072000AB01BC01401B510B620B730B20912C03DE
:1007300030912D03E4E6E29FC001E39F900D112468
:10074000A0E0B0E0481759076A077B0740F08091A6
:1007500046038DA30E949F238DA10E940F268091A6
:100760002903882301F10E94E51FE09124030091F1
:100770002503109126032091270330912803AB0114
:10078000BC01401B510B620B730B34E6E39FC001AD
:100790001124092E000CAA0BBB0B84179507A60782
:1007A000B70708F445C58FE4C82E92E5B92E29E4B1
:1007B000D22E80914E0390914F03DC01ED91FC917C
:1007C0000480F581E02D09951816190614F00C9493
:1007D000200CCE014F960E9459260BA1015060E2D9
:1007E00071E0CE0101960E94921E26E0AE014F5F9D
:1007F0005F4FBE01615E7F4F88E193E00E94D00EA3
:10080000182FCE0101960E947B1E112321F08091AA
:10081000330381116FC50BA1015067E271E0CE0176
:1008200001960E94921E2CE0AE014F5F5F4FBE0109
:10083000615E7F4F88E193E00E94D00EE82ECE01EA
:1008400001960E947B1EEE2071F1BE01615E7F4F1A
:10085000CE010D960E94891E6EE271E0CE010796D0
:100860000E94921EBE01635F7F4FCE0107960E94D9
:10087000E51DBE01695F7F4FCE0101960E94891E72
:1008800041E0BE016F5F7F4F88E193E00E94EB0F74
:10089000CE0101960E947B1ECE0107960E947B1E10
:1008A000CE010D96BBC267E371E0CE0101960E94B6
:1008B000921E02E228E1AE014F5F5F4FBE01615E12
:1008C0007F4F88E193E00E94D00E982ECE010196D2
:1008D0000E947B1EBE01615E7F4FCE01992009F40C
:1008E0005DC201960E94891ECE0101960E94C1261A
:1008F000F82ECE0101960E947B1EBE01615E7F4FE5
:10090000CE0101960E94891EBE016F5F7F4F8091CC
:100910001803909119030E948D0DA82ECE01019607
:100920000E947B1EF11027C0BE01615E7F4FCE0189
:1009300001960E94891EBE016F5F7F4F8091180350
:10094000909119030E943E0D182F81110DC0A11026
:100950000AC0E0911803F091190311E08081882307
:1009600019F010E001C0192DCE0101960E947B1EE6
:10097000112309F4ADC1CE0101960E945926BE0192
:100980006F5F7F4FCE014F960E94421ECE010196AF
:100990000E947B1E0F8D18A10115110541F4E091F5
:1009A0001803F09119038081882371F03AC0F8018F
:1009B00080818823A1F3082E000C990B0E94323805
:1009C000D8018D938D01F3CFF1102BC065E172E05A
:1009D000CE0101960E94801EBE016F5F7F4FCE0147
:1009E0004F960E94F61C182FCE0101960E947B1E86
:1009F000112309F415C22BA13CA144E050E0BE0133
:100A0000615E7F4FCE0101960E94A71EBE016F5FFF
:100A10007F4FCE014F960E94421ECE0101960E944A
:100A20007B1E6EE371E0CE0101960E94921EBE0114
:100A30006F5F7F4FCE014F960E94F61C182FCE019C
:100A400001960E947B1E1123C1F02BA13CA141E025
:100A500050E0BE01615E7F4FCE0101960E94A71E4D
:100A6000BE016F5F7F4FCE014F960E94421ECE01A6
:100A700001960E947B1E11E001C010E0BE01615E84
:100A80007F4FCE01FF2009F418C149960E94891EAC
:100A900081E0809332030D8D015062E072E0CE015F
:100AA00001960E94801E26E0AE014F5F5F4FBE019F
:100AB000675E7F4F88E193E00E94D00EF82ECE0152
:100AC00001960E947B1EFF2009F4B0C080913B0379
:100AD0008E3411F40E949F23111110C06EEF71E04B
:100AE000CE0101960E94801E40E061E0CE01019699
:100AF0000E94E724CE0101960E947B1E898C9A8C6D
:100B00008114910429F40E946929811107C40DC040
:100B1000F40180818823B9F3082E000C990B0E9400
:100B20002A38D4018D934D01F3CF60E471E0CE01FA
:100B30000D960E94921E68ED71E0CE0107960E940C
:100B4000801E66EC71E0CE0107960E94621DBE0118
:100B5000695F7F4FCE0101960E94891ECE010196EA
:100B60000E94F129082FCE0101960E947B1E0111DF
:100B700002C000E042C067EB71E0CE0107960E9420
:100B8000EC1D60EB71E0CE0107960E94621DBE0174
:100B9000635F7F4FCE0107960E94E51D6CE571E013
:100BA000CE0107960E94D61DBE01695F7F4FCE0120
:100BB00001960E94891ECE0101960E94F129082FFC
:100BC000CE0101960E947B1E002399F261EA71E03A
:100BD000CE0101960E94801E61E0CE0101960E9426
:100BE0004227082FCE0101960E947B1E002309F2A6
:100BF00064E188E193E00E94A50ECE0107960E9471
:100C00007B1ECE010D960E947B1E002309F47CC53D
:100C10000CE0015009F478C562E388E193E00E949A
:100C2000A50E0E9469298823A1F378C30D8D015078
:100C300063EF71E0CE0101960E94801E27E0AE01B5
:100C40004F5F5F4FBE01675E7F4F88E193E00E9478
:100C5000D00E082FCE0101960E947B1E01118AC57D
:100C60000D8D01506DEE71E0CE0101960E94801E47
:100C700025E0AE014F5F5F4FBE01675E7F4F88E1A9
:100C800093E00E94D00EF82ECE0101960E947B1EAA
:100C9000F11072C510923203CE0149960E947B1E5C
:100CA000F1106EC0BE01615E7F4FCE0101960E94C1
:100CB000891E2A2D412F61E006C001960E94891EDF
:100CC0002A2D412F60E0CE0101960E94FC1354C0F2
:100CD000BE01615E7F4FCE0101960E94891EBE015A
:100CE0006F5F7F4F80911803909119030E94940DBC
:100CF000182FCE0101960E947B1E112309F440C0DB
:100D0000CE0101960E945926BE016F5F7F4FCE0132
:100D10004F960E94421ECE0101960E947B1E6FE0FC
:100D200072E0CE0101960E94801EBE016F5F7F4F70
:100D3000CE014F960E94F61C182FCE0101960E94FC
:100D40007B1E1123E9F0E0911803F091190381E073
:100D50008483BF016C5F7F4F8CE590E00E94FE2092
:100D600069E072E0CE0101960E94801E42E061E0DF
:100D7000CE0101960E94E724CE0101960E947B1EBF
:100D800067E171E0CE0101960E94801E60E0CE0115
:100D900001960E944227CE01019640C007960E940C
:100DA000891E6BE071E0CE0101960E94801EBE019B
:100DB0006F5F7F4FCE0107960E94301D182FCE0126
:100DC00001960E947B1ECE0107960E947B1E112376
:100DD00021F081E08093500323C0BE01615E7F4F0C
:100DE000CE0107960E94891E69EF70E0CE01019640
:100DF0000E94801EBE016F5F7F4FCE0107960E944A
:100E0000301D182FCE0101960E947B1E112321F068
:100E10000E949F230E94C927CE0107960E947B1E35
:100E20009091470380913B03911110C18E3419F0CA
:100E3000823509F091C190913C039E3419F09934A8
:100E400009F0F1C0BE01615E7F4FCE0101960E94A4
:100E5000891E63E671E0CE0101960E94111D182FD4
:100E6000CE0101960E947B1E112309F4C8C081E0C7
:100E700080932B03B0923B03D0923C0380913D03BF
:100E80008F5F80933D03843008F0B2C08130E9F475
:100E90006DEE70E0CE0101960E94801E40E0BE0122
:100EA0006F5F7F4F88E193E00E94EB0FCE010196C8
:100EB0000E947B1E80914E0390914F03DC01ED91C7
:100EC000FC910284F385E02D09956FE571E0CE0178
:100ED0000D960E94921ECE0101960E945926BE01D7
:100EE0006F5F7F4FCE010D960E94421ECE0101968C
:100EF0000E947B1E69E671E0CE0101960E94921E5F
:100F000005E12BE0AE014F5F5F4FBE01635F7F4F96
:100F100088E193E00E94D00E182FCE0101960E9426
:100F20007B1E1123C1F20E94E51F60932E03709374
:100F30002F03809330039093310389899A890A970C
:100F400078F0CE010D960E949C26882349F080916E
:100F50003D03823028F080912203882309F443C4A2
:100F600080912203882309F440C00E94E51F60930A
:100F70002E0370932F0380933003909331031092CC
:100F8000220381E080933E0380914E0390914F03B2
:100F9000DC01ED91FC910284F385E02D099569EE69
:100FA00070E0CE0101960E94801E41E0BE016F5F9D
:100FB0007F4F88E193E00E94EB0FCE0101960E94E3
:100FC0007B1E80914E0390914F03DC01ED91FC91CB
:100FD0000284F385E02D0995D0923B03D0923C0327
:100FE0006DE488E193E00E945C22CE010D96F8C08A
:100FF000809122038111F6C00E949F23F3C0BE019D
:10100000615E7F4FCE0101960E94891ECE0101963E
:101010000E948B24182FCE0101960E947B1E112363
:1010200009F4E0C0E9CF893489F490913C03993404
:1010300069F4BE01615E7F4FCE0101960E94891E58
:10104000CE0101960E948B24182FB1C08E3419F066
:10105000823509F084C010913C031F3409F0C2C0EE
:10106000BE01615E7F4FCE0101960E94891ECE01B6
:1010700001960E943C24082FCE0101960E947B1EFF
:10108000023579F40E94E51F60932E0370932F03BD
:10109000809330039093310300933B0310933C0300
:1010A000A1C0BE01615E7F4FCE0101960E94891EE4
:1010B000CE0101960E948B24182F811113C0BE010E
:1010C000615E7F4FCE0107960E94891ECE01079672
:1010D0000E943C2411E0853409F010E0CE0107960F
:1010E0000E947B1ECE0101960E947B1E112349F0B7
:1010F000809146038DA30E949F238DA10E940F26FD
:1011000071C0BE01615E7F4FCE0101960E94891EB3
:10111000CE0101960E943C24182FCE0101960E9418
:101120007B1E193409F05EC00E94E51F60932E03F8
:1011300070932F03809330039093310310933B03FC
:10114000C0923C0381E080933E036091460388E1B6
:1011500093E00E945C2246C0893409F466CF89344A
:1011600009F040C080913C038F34E1F5BE01615E1F
:101170007F4FCE0101960E94891ECE0101960E94EA
:101180008B24182F811113C0BE01615E7F4FCE01E9
:1011900007960E94891ECE0107960E943C2411E00A
:1011A000853409F010E0CE0107960E947B1ECE0127
:1011B00001960E947B1E11111FCFCE014F960E94F7
:1011C0007023882379F0BE01615E7F4FCE010196C6
:1011D0000E94891ECE0101960E947B22CE010196BB
:1011E0000E947B1ECE014F960E947B1EE2CA109287
:1011F0005103FEC981E08093490350CA80914503A1
:101200008093460310924003E0911803F091190374
:10121000818D8E3409F4C7CA81E08093470388E149
:1012200093E00E94CA0F88E193E00E945710BBCA66
:1012300080914E0390914F03DC01ED91FC9102846B
:10124000F385E02D09956BE272E0CE0101960E94D4
:10125000801E40E0BE016F5F7F4F88E193E00E94F7
:10126000EB0FCE0101960E947B1E62E771E0CE017A
:1012700001960E94921E40E0BE016F5F7F4F88E1A1
:1012800093E00E94EB0FCE0101960E947B1E6091BD
:101290002A0388E193E06DA30E94CA0F80914E0358
:1012A00090914F03DC01ED91FC910190F081E02DD4
:1012B0006DA109956CE172E0CE0101960E94801E3D
:1012C00041E0BE016F5F7F4F88E193E00E94EB0F2A
:1012D000CE0101960E947B1E80914E0390914F0398
:1012E000DC01ED91FC910284F385E02D09951092CB
:1012F000290359CABE01615E7F4FCE0101960E944B
:10130000891E40E061E0CE0101960E94E724CE01F3
:1013100001960E947B1E109233037DCABE01675E58
:101320007F4FCE010D960E94891E6DE671E0CE01C1
:1013300001960E94801E61E0CE0101960E94422724
:10134000082FCE0101960E947B1E002309F454C091
:1013500060E671E0CE0107960E94801EBE01635FC9
:101360007F4FCE0107960E94E51D6CE571E0CE012E
:1013700007960E94D61DBE01695F7F4FCE01019680
:101380000E94891E61E0CE0101960E944227082F2B
:10139000CE0101960E947B1E002349F163E471E0B7
:1013A000CE0101960E94801E61E0CE0101960E944E
:1013B0004227082FCE0101960E947B1E0023B9F020
:1013C0006CE271E0CE0101960E94801E61E0CE01C8
:1013D00001960E944227082FCE0101960E947B1E93
:1013E000002329F0CE0107960E947B1E05C0CE0186
:1013F00007960E947B1E00E0CE010D960E947B1E88
:10140000002309F481C168E471E0CE0143960E9493
:10141000921E67E971E0CE010D960E94801EBE010A
:10142000635F7F4FCE0107960E94891E6EE471E0D4
:10143000CE0107960E94D61DBE016D5E7F4FCE0184
:1014400007960E94E51D6CE571E0CE0107960E94AB
:10145000D61DBE01695F7F4FCE0101960E94891E95
:1014600061E0CE0101960E944227982ECE0101969E
:101470000E947B1E9920E9F0BE01635F7F4FCE0181
:1014800007960E942B1E65E571E0CE0107960E942B
:10149000D61DBE01695F7F4FCE0101960E94891E55
:1014A00060E0CE0101960E944227CE0101960E9483
:1014B0007B1ECE0107960E947B1ECE010D960E94D8
:1014C0007B1ECE0143960E947B1E992009F41CC10D
:1014D000E0911803F09119038285811164C00E9484
:1014E000E51F2B013C016AE871E0CE0101960E94E4
:1014F000801E40E0BE016F5F7F4F88E193E00E9455
:10150000EB0FCE0101960E947B1E0E94E51FDC01BD
:10151000CB0184199509A609B709803C944DA140D7
:10152000B10508F0F1C080914E0390914F03DC01AA
:10153000ED91FC910480F581E02D0995892B29F32B
:1015400060914E0370914F03CE0107960E943C2696
:101550000B8501506BE771E0CE0101960E94801E61
:101560002EE0AE014F5F5F4FBE01695F7F4F88E1A4
:1015700093E00E94D00E082FCE0101960E947B1EA0
:10158000CE010796002309F4BECF0E94DA1CAB01FE
:10159000BC0180911803909119030E946B0ECE013B
:1015A00007960E947B1EE0911803F0911903468074
:1015B0005780608471846FE771E0CE0143960E948A
:1015C000921EBE016D5E7F4FCE010D960E94891E58
:1015D0006BE871E0CE010D960E94D61DB301A20109
:1015E000CE010D960E94921D67E671E0CE010D9628
:1015F0000E94D61D60E971E0CE0107960E94921EFE
:10160000BE016D5E7F4FCE0107960E94E51D63E926
:1016100071E0CE0107960E94D61D0E94E51F2B01A6
:101620003C01BE01695F7F4FCE0101960E94891E79
:1016300040E0BE016F5F7F4F88E193E00E94EB0FB7
:10164000CE0101960E947B1E0E94E51FDC01CB01AA
:1016500084199509A609B709803C944DA140B105AC
:1016600050F580914E0390914F03DC01ED91FC9178
:101670000480F581E02D0995892B31F360914E03AB
:1016800070914F03CE0101960E943C26BE016F5F10
:101690007F4FCE0107960E94421ECE0101960E9406
:1016A0007B1EBE01635F7F4FCE0107960E94301DF7
:1016B000882351F2E92CCE0107960E947B1ECE01B1
:1016C0000D960E947B1ECE0143960E947B1EEE204B
:1016D000D9F081E080933203111110C06BEF71E0FB
:1016E000CE0101960E94801E40E061E0CE0101968D
:1016F0000E94E724CE0101960E947B1E0E9446298B
:101700000E94E628FE2CC8CA0E944629E0911803D0
:10171000F091190312861982BE016F5F7F4F84E832
:1017200093E00E94FE201A821982BE016F5F7F4FF4
:1017300084E993E00E94BF2801E00983BE016F5F46
:101740007F4F80E993E00E94FE2000933203111145
:10175000A3CA60E671E0CE0101960E94921E40E0AD
:1017600061E0CE0101960E94E724CE0101960E941D
:101770007B1E92CA01E001C002E0CE0149960E94A0
:10178000DA1CAB01BC0180911803909119030E94EF
:101790006B0E67EE71E0CE0107960E94801EBE01BF
:1017A000675E7F4FCE0107960E94E51D111111C0A3
:1017B000BE01695F7F4FCE0101960E94891E40E005
:1017C00061E0CE0101960E94E724CE0101960E94BD
:1017D0007B1E023011F40E94E628CE0107960E947B
:1017E0007B1EF92C59CABE01635F7F4FCE0107965D
:1017F0000E94891EBE01695F7F4FCE0101960E9443
:10180000891ECE0101960E94C126182F81110DC09C
:10181000BE01695F7F4F80911803909119030E9468
:10182000C60D11E08F3F09F410E0CE0101960E9431
:101830007B1E10932203CE0107960E947B1E90CB45
:10184000A5960FB6F894DEBF0FBECDBFDF91CF9146
:101850001F910F91FF90EF90DF90CF90BF90AF90CE
:101860009F908F907F906F905F904F90089581E050
:101870008093740208950E94E51FE8E1F3E062AFEF
:1018800073AF84AF95AF81E081AF0895FB01848190
:101890009581409770F0CB0160E070E00E94E51CFC
:1018A000282F880F330B2053310981E02A3031056E
:1018B00008F080E008958F929F92AF92BF92CF92EE
:1018C000DF92EF92FF920F931F93CF93DF93CDB7E9
:1018D000DEB76B01ADB6BEB6FA01E480F580C70194
:1018E00001962DB73EB7281B390B0FB6F8943EBFB3
:1018F0000FBE2DBF0DB71EB70F5F1F4F892B99F07D
:101900000115110581F0E114F10411F4F8010AC088
:10191000FA0160817181A701C8010E946138F80154
:10192000EE0DFF1D1082F80101900020E9F73197BC
:10193000E01BF10BC11424E0D206D8F4FF24F39489
:10194000FE0EC6018F0D911D8115944090F4480143
:10195000C01AD10A882D801B8F1548F4C601880D46
:10196000991DF40161914F010E943539F3CF81E057
:1019700001C080E00FB6F894BEBE0FBEADBEDF91D1
:10198000CF911F910F91FF90EF90DF90CF90BF907C
:10199000AF909F908F900895CF92DF92EF920F9328
:1019A000CF93DF9300D0CDB7DEB76C01FC01618B24
:1019B000BC016F5E7F4F86E990E02A8349830E94D5
:1019C000FE20F60181892A814981882341F14587DA
:1019D00026870787E08AB601635F7F4F88E990E03A
:1019E0000E94FE20B601625F7F4F8AE990E00E946C
:1019F000FE20B601615F7F4F8CE990E00E94FE20DF
:101A0000B601605F7F4F8EE990E00F900F90DF91FD
:101A1000CF910F91EF90DF90CF900C94FE200F901C
:101A20000F90DF91CF910F91EF90DF90CF900895BD
:101A3000FC016387BC01655F7F4F80E090E00C9400
:101A4000FE20CF93DF93EC01FB018081882369F0B6
:101A50008181882319F04EE150E002C040E351E05B
:101A60002AE0CE010E94162105C06AE472E0CE0190
:101A70000E94801ECE01DF91CF910895DF92EF92F8
:101A8000FF920F931F93CF93DF9300D000D000D02D
:101A9000CDB7DEB7FC012081222369F17B018C01E7
:101AA0002AE040E351E0BC01CE0101960E941621DC
:101AB000B701CE0101960E94301DD82ECE010196AD
:101AC0000E947B1ED11019C0B701CE0101960E9461
:101AD000891EF8018081882341F0BE016F5F7F4F2E
:101AE000C8010E948121182F01C010E0CE0101968B
:101AF0000E947B1E03C010E001C011E0812F2696DA
:101B00000FB6F894DEBF0FBECDBFDF91CF911F910E
:101B10000F91FF90EF90DF900895FC01208121113B
:101B20000C94812180E008950F931F93CF93DF934E
:101B300000D000D000D0CDB7DEB7FC018381882370
:101B4000C1F08B01BF012AE040E650E0CE010196D2
:101B50000E941621BE016F5F7F4FC8010E94301D99
:101B600011E0811101C010E0CE0101960E947B1EA0
:101B700001C010E0812F26960FB6F894DEBF0FBE8D
:101B8000CDBFDF91CF911F910F910895CF92DF923A
:101B9000EF92FF920F931F93CF93DF9300D000D06B
:101BA00000D0CDB7DEB77C016B01FC0180818111D3
:101BB00006C0F7018481882309F443C030C0CE01F8
:101BC00001960E94891EBE016F5F7F4FC7010E9470
:101BD0003E0D182FCE0101960E947B1E111133C0BD
:101BE00011E0F7018081181720F7FBE01F9FA0018B
:101BF0001124405D5E4F2AE0B701CE0101960E949C
:101C00001621B601CE0101960E94301D082FCE018B
:101C100001960E947B1E011118C01F5FE2CFB60122
:101C2000CE0101960E94891EBE016F5F7F4FC701E2
:101C30000E94940D182FCE0101960E947B1E111157
:101C400006C08FEF05C080E003C0812F01C08EEF7A
:101C500026960FB6F894DEBF0FBECDBFDF91CF91B1
:101C60001F910F91FF90EF90DF90CF900895EF922A
:101C7000FF920F931F93CF93DF931F92CDB7DEB7E1
:101C80007C01FC0100811181C80169830E942D390A
:101C90006981681719F0C8010E943539C7010F9092
:101CA000DF91CF911F910F91FF90EF900895CF9307
:101CB000DF9300D0CDB7DEB7FC01618F8EE090E0FE
:101CC0009A838983CE0101960E94370E0F900F9060
:101CD000DF91CF910895EF92FF920F931F93CF93CF
:101CE000DF9300D0CDB7DEB721E0FC012287468329
:101CF0005783608771878C010A5F1F4F88E8E82E41
:101D000083E0F82EF80161918F01FA82E982CE0119
:101D100001960E94370EFFEFEF1AFF0A8CE8E816D3
:101D200083E0F80679F70F900F90DF91CF911F9124
:101D30000F91FF90EF900895FC0123A1293421F425
:101D400021E023870C945C2208958F929F92AF929A
:101D5000BF92CF92DF92EF92FF92C62E0E94E51FB4
:101D60004B015C0184E6C89E600111240D2C000C1F
:101D7000EE08FF080E94E51FDC01CB0188199909D4
:101D8000AA09BB098C159D05AE05BF0598F3FF9008
:101D9000EF90DF90CF90BF90AF909F908F9008957D
:101DA000EF92FF920F931F93CF93DF9300D000D059
:101DB00000D0CDB7DEB77B01122FBA01C7010E9458
:101DC000F61C8823A9F0202F30E0412F50E0B70106
:101DD000CE0101960E94A71EBE016F5F7F4FC70113
:101DE0000E94421ECE0101960E947B1E81E001C02E
:101DF00080E026960FB6F894DEBF0FBECDBFDF9110
:101E0000CF911F910F91FF90EF900895CF92DF92A5
:101E1000EF92FF920F93CF93DF9300D000D000D0CA
:101E2000CDB7DEB76C017B01FB010481035060EA92
:101E300071E0CE0101960E94921E25E0AE014F5F37
:101E40005F4FB701C6010E94D00E082FCE01019648
:101E50000E947B1E802F26960FB6F894DEBF0FBE21
:101E6000CDBFDF91CF910F91FF90EF90DF90CF909A
:101E70000895CF92DF92EF92FF920F931F93CF932B
:101E8000DF9300D000D000D0CDB7DEB77C016B016E
:101E900067E372E0CE0101960E94801E06E121E117
:101EA000AE014F5F5F4FB601C7010E94D00E182FE1
:101EB000CE0101960E947B1E812F26960FB6F894C4
:101EC000DEBF0FBECDBFDF91CF911F910F91FF906D
:101ED000EF90DF90CF9008958F929F92AF92BF9234
:101EE000CF92DF92EF92FF920F93CF93DF93CDB714
:101EF000DEB72C970FB6F894DEBF0FBECDBF5C01E6
:101F00006B01FB01048101506EE871E0CE01079680
:101F10000E94921EF60184819581892B69F0808050
:101F200091806F817885C4010E947038009721F0FC
:101F30007C01E818F90803C0EE24EA94FE2C65EA57
:101F400071E0CE0101960E94921E21E02E0DAE019D
:101F50004F5F5F4FB601C5010E94D00E082FCE0122
:101F600001960E947B1ECE0107960E947B1E802F49
:101F70002C960FB6F894DEBF0FBECDBFDF91CF9188
:101F80000F91FF90EF90DF90CF90BF90AF909F9018
:101F90008F900895CF93DF93EC018C8D811112C047
:101FA00061E084E00E94791F81E08C8F0E94E51F30
:101FB0006F8F78A389A39AA361E0CE01DF91CF91BF
:101FC0000C94A50E0E94E51F6F8F78A389A39AA396
:101FD000DF91CF910895FF920F931F93CF93DF93DB
:101FE000EC018B01F42E0E94CA0F6FE571E0C8016D
:101FF0000E94111D0EA8DFA9C02D811114C0F80187
:102000004481558160817181E881F9810280F38189
:10201000E02DCE01F11006C0DF91CF911F910F91FD
:10202000FF9009940995CE01DF91CF911F910F91F7
:10203000FF900C94ED1E0F931F93CF93DF9300D06E
:1020400000D000D0CDB7DEB78C01DC01D6968D91E3
:102050009C91D797DC01ED91FC910284F385E02DF2
:1020600009956FE372E0CE0101960E94801E41E067
:10207000BE016F5F7F4FC8010E94EB0FCE0101963A
:102080000E947B1EF80186A997A9DC01ED91FC91C5
:102090000284F385E02D099526960FB6F894DEBFED
:1020A0000FBECDBFDF91CF911F910F910895CF92B9
:1020B000DF92FF920F931F93CF93DF93CDB7DEB7DD
:1020C00062970FB6F894DEBF0FBECDBF8C0181E0E2
:1020D000D80153968C93C8010E94CA0FF80186A9B3
:1020E00097A9DC01ED91FC910284F385E02D09951F
:1020F0006BEA71E0CE0107960E94921EF801F7A0EC
:10210000C080D180FF2059F16FE571E0CE010D96BE
:102110000E94921ED6018C91F816B8F4BBE0FB9E8B
:10212000A0011124405D5E4F2AE0B601CE01019668
:102130000E941621BE016F5F7F4FCE010D960E9457
:10214000421ECE0101960E947B1EBE01635F7F4F3F
:10215000CE0107960E94E51DCE010D960EC0B60178
:10216000CE0101960E94210DBE016F5F7F4FCE010F
:1021700007960E94E51DCE0101960E947B1E6BE32F
:10218000CE0107960E94C31DBE01695F7F4FCE013D
:1021900001960E94891E41E0BE016F5F7F4FC8011A
:1021A0000E94EB0FCE0101960E947B1E61E0C801E8
:1021B0000E94A50E6FE571E0CE0101960E94921E6D
:1021C00041E0BE016F5F7F4FC8010E94EB0FCE015F
:1021D00001960E947B1E0E94E51FF801668B778B9B
:1021E000808F918F82E583A38FE484A3CE0107962D
:1021F0000E947B1E62960FB6F894DEBF0FBECDBF65
:10220000DF91CF911F910F91FF90DF90CF900895B4
:102210000F931F93CF93DF93FC01A081B1818C9129
:10222000811102C011E075C059968C9159978E3476
:10223000C9F380AD8823B1F380A5811103C096A5B1
:10224000961781F393A19E3409F062C094A19E3445
:1022500009F05EC011A9112309F45BC0811158C0B7
:1022600051968C915197882391F181851D962C91DF
:102270001D97821760F11F969C911F97981738F150
:1022800029130CC080851E969C911E978917F8F023
:1022900050969C915097981728F619C0821308C041
:1022A00090851E968C911E97981708F0BBCF0FC093
:1022B000891308C0908550968C915097891708F023
:1022C000B1CF05C0281718F4891708F4ABCF062F33
:1022D000EF0117A252968C915297882351F00E94D9
:1022E000E51F69A77AA78BA79CA70DA781E088A700
:1022F00010C06EA759968C918E3409F493CF81E06B
:1023000087A7CF010E94CA0FCE010E94571001C0BB
:1023100010E0812FDF91CF911F910F9108950C94C0
:10232000003C089561E081E10C94791F0F931F93A5
:10233000CF93DF93EC0141110EC08EA581110BC02C
:10234000662319F162E38A819B81DF91CF911F910E
:102350000F910C949C0E022F162F1DAA61E08DE0A8
:102360000E94791F0E94E51FFE01ED5BFF4F608315
:10237000718382839383319781E080831EA660E01E
:1023800080E10E94791F1AA70CA7DF91CF911F91BE
:102390000F910895FC01A081B1811C968C9195A5A7
:1023A000882321F0992321F087A50895892F089586
:1023B00081E008951F93CF93DF93EC011FA51123B4
:1023C00031F00E94CA11882311F081E00BC0CE01C8
:1023D0000E94CA11882321F0111104C084E002C0B8
:1023E00082E000C0DF91CF911F910895CF93DF93DA
:1023F000FC0126A5211110C0EC010E94CA118823FE
:1024000059F08FA5882341F081E088AB0E94E51F39
:1024100069AB7AAB8BAB9CABDF91CF9108951F93E7
:10242000CF93DF93EC01162FE881F9818385811129
:102430000CC08EA581111EC08FA58823D9F061E044
:102440008DE00E94791F18AA15C0FE01EE5BFF4FB8
:10245000808181110FC08FA5882361F060E08DE03D
:102460000E94791F112331F0CE01DF91CF911F918E
:102470000C94F611DF91CF911F910895EF92FF9286
:102480000F931F93CF93DF937B018A01E901F894A7
:102490008AE00E94501F31E0892B09F430E0F701F7
:1024A00030838BE00E94501F31E0892B09F030E02F
:1024B000F801308383E00E94501F31E0892B09F43A
:1024C00030E038837894DF91CF911F910F91FF9086
:1024D000EF9008950F931F93CF93DF9300D01F9237
:1024E000CDB7DEB78C019E012F5F3F4FAE014E5F2F
:1024F0005F4FBE016D5F7F4F0E943E129A81F801CF
:1025000096A7992311F061E001C060E080E10E948C
:10251000791F8A810F900F900F90DF91CF911F91BB
:102520000F910895EF92FF920F931F93CF93DF9334
:102530007B018A01E901F89486E00E94501F31E096
:10254000892B09F430E0F701308387E00E94501FA7
:1025500031E0892B09F430E0F801308385E00E94F6
:10256000501F31E0892B09F430E038837894DF91F3
:10257000CF911F910F91FF90EF900895CF93DF932C
:1025800000D01F92CDB7DEB79E012F5F3F4FAE0147
:102590004E5F5F4FBE016D5F7F4F0E9492128B8135
:1025A000811108C08A81811107C08981811106C00B
:1025B00083E005C080E003C081E001C082E00F90AD
:1025C0000F900F90DF91CF910895CF93DF93F89400
:1025D00083E10E94501FEC0182E10E94501F789419
:1025E000CD2B21F4892B21F482E003C080E001C0CF
:1025F00081E0DF91CF9108951F93CF93DF93EC019A
:10260000162F18AA8FA5882329F0CE010E94CA117F
:1026100081110FC08A819B81112331F06EE4DF911B
:10262000CF911F910C949C0E6EE40E9408118C8334
:102630003DC08EA5811134C0CE010E94BE12811111
:1026400006C08A819B81112379F364E5E8CFCE012E
:102650000E94E512823049F48A819B8166E511115E
:10266000DECF0E9408118D8B21C060E08DE00E94BA
:10267000791F60E08CE00E94791F0E9492110E94F5
:10268000E51FFE01FD96608371838283938381E061
:102690008BAF8EA761E080E10E94791F1BA706C067
:1026A000112321F061E38A819B81B9CFDF91CF9122
:1026B0001F9108951F920F920FB60F9211240F9041
:1026C0000FBE0F901F9018951F920F920FB60F928A
:1026D00011242F933F934F935F936F937F938F9327
:1026E0009F93AF93BF93EF93FF9389E00E94501F96
:1026F00090910102891304C081E08093740209C0A3
:1027000091E0811101C090E09093010281E08093FB
:102710000002FF91EF91BF91AF919F918F917F91B7
:102720006F915F914F913F912F910F900FBE0F903E
:102730001F9018951F920F920FB60F9211242F938E
:102740003F934F935F936F937F938F939F93AF9339
:10275000BF93EF93FF930E94E51F609377027093FE
:1027600078028093790290937A0281E080937602D6
:10277000FF91EF91BF91AF919F918F917F916F9159
:102780005F914F913F912F910F900FBE0F901F902F
:1027900018951F920F920FB60F9211242F933F930B
:1027A0004F935F936F937F938F939F93AF93BF9359
:1027B000CF93EF93FF93C1E0C09375020E94E51F92
:1027C00060937702709378028093790290937A02F3
:1027D000C0937602FF91EF91CF91BF91AF919F91FE
:1027E0008F917F916F915F914F913F912F910F90BA
:1027F0000FBE0F901F9018955F926F927F928F92ED
:102800009F92AF92BF92CF92DF92EF92FF920F937F
:102810001F93CF93DF93CDB7DEB763970FB6F894CE
:10282000DEBF0FBECDBF7C01062FD42E122F6093CA
:102830003203BC01CE010D960E94891E64E873E04C
:10284000CE0101960E94801EBE016F5F7F4FC701BF
:102850000E94F61CC82ECE0101960E947B1ECC2041
:1028600019F00E94A028B1C66BE773E0CE01019673
:102870000E94801EBE016F5F7F4FC7010E94F61C41
:10288000C82ECE0101960E947B1ECC2011F1E09053
:102890001803F0901903002319F0F701108203C008
:1028A00081E0F7018083B7018CE291E00E94FE2075
:1028B000F7011182B7016F5F7F4F8AE190E00E94BC
:1028C000FE20F7011282B7016E5F7F4F86E190E034
:1028D0007AC663E773E0CE0101960E94801EBE01B6
:1028E0006F5F7F4FC7010E94F61CC82ECE01019674
:1028F0000E947B1ECC2009F45DC060E0809118032B
:10290000909119030E94180DE0911803F09119039A
:10291000138ABF016D5E7F4F82E390E00E94FE202C
:10292000E0911803F0911903128ABF016E5E7F4F88
:102930008AE390E00E94FE20E0911803F0911903D1
:102940001486BF01645F7F4F86E390E00E94FE2003
:10295000E0911803F0911903108EBF01685E7F4F5C
:102960008CE090E00E94FE2063E480911803909137
:1029700019030E94570EE0911803F091190382E3A6
:1029800090E0958B848BBF016C5E7F4F84E090E07C
:102990000E94CD20E0911803F091190382E090E0AD
:1029A000978B868BBF016A5E7F4F82E190E00E9429
:1029B000CD200BC66FE673E0CE0101960E94801E0B
:1029C000BE016F5F7F4FC7010E94F61CC82ECE016B
:1029D00001960E947B1ECC20F1F1E0901803F0904C
:1029E00019036FE571E0CE0107960E94921E10E078
:1029F000F70180811817F8F4FBE01F9FA001112454
:102A0000405D5E4F2AE0B701CE0101960E9416217B
:102A1000BE016F5F7F4FCE0107960E94E51DCE017C
:102A200001960E947B1E6EE571E0CE0107960E9422
:102A3000D61D1F5FDDCF6FE571E0CE0107960E94C6
:102A4000111D882309F4D9C565E673E0CE01079608
:102A50000E94EC1DD2C56FE573E0CE0101960E9485
:102A6000801EBE016F5F7F4FC7010E94F61CC82EFB
:102A7000CE0101960E947B1ECC2029F088E193E0D4
:102A80000E948F11E9C56BE573E0CE0101960E94AB
:102A9000801EBE016F5F7F4FC7010E94F61CC82ECB
:102AA000CE0101960E947B1ECC2019F00E9458286E
:102AB000B9C564E573E0CE0101960E94801EBE0197
:102AC0006F5F7F4FC7010E94F61CC82ECE01019692
:102AD0000E947B1ECC2011F061E014C06CE473E016
:102AE000CE0101960E94801EBE016F5F7F4FC7011D
:102AF0000E94F61CC82ECE0101960E947B1ECC209F
:102B000079F060E080911803909119030E94180DEC
:102B100061E080911A0390911B030E940F1255C52A
:102B200066E473E0CE0101960E94801EBE016F5FD5
:102B30007F4FC7010E94F61CC82ECE0101960E944D
:102B40007B1ECC2039F0E0911803F091190381E04D
:102B5000848718C06FE373E0CE0101960E94801E47
:102B6000BE016F5F7F4FC7010E94F61CC82ECE01C9
:102B700001960E947B1ECC2059F0E0911803F09141
:102B800019031486BF01645F7F4F86E390E01BC585
:102B900069E373E0CE0101960E94801EBE016F5F63
:102BA0007F4FC7010E94F61CC82ECE0101960E94DD
:102BB0007B1ECC2039F0E0911803F091190381E0DD
:102BC000808F18C062E373E0CE0101960E94801EE0
:102BD000BE016F5F7F4FC7010E94F61CC82ECE0159
:102BE00001960E947B1ECC2059F0E0911803F091D1
:102BF0001903108EBF01685E7F4F8CE090E0E3C444
:102C00006DE273E0CE0101960E94801EBE016F5FEF
:102C10007F4FC7010E94F61CC82ECE0101960E946C
:102C20007B1ECC20E1F0F70184819581059708F4A3
:102C300013C564E070E0C7010E94E51C982F9D7FDA
:102C4000913429F0843519F08E3409F005C5682FC8
:102C500080911803909119030E94570EB6C467E241
:102C600073E0CE0101960E94801EBE016F5F7F4F10
:102C7000C7010E94F61CC82ECE0101960E947B1E41
:102C8000CC2039F0E0911803F091190381E0838B97
:102C900018C060E273E0CE0101960E94801EBE0162
:102CA0006F5F7F4FC7010E94F61CC82ECE010196B0
:102CB0000E947B1ECC2059F0E0911803F09119037B
:102CC000138ABF016D5E7F4F82E390E07CC469E1AF
:102CD00073E0CE0101960E94801EBE016F5F7F4FA0
:102CE000C7010E94F61CC82ECE0101960E947B1ED1
:102CF000CC2009F4E9C062E173E0C7010E94EC1D39
:102D000046E05FE060E070E0C7010E94E8278823AA
:102D100039F0C7010E94DA1C162F110F160F01C0DF
:102D20001FEF65E088E193E00E94A50E6BE073E081
:102D3000C7010E94EC1D4CE65FE060E070E0C70157
:102D40000E94E827882309F455C06EE871E0CE019F
:102D500007960E94921EF701848195812B853C8500
:102D60006C01C21AD30A2115310551F1009741F1C6
:102D70008217930728F1C816D90620F06C01F1E0FC
:102D8000CF1AD108F701608071808F809884C301C9
:102D900055245A940FEF5301AC0CBD1CA816B9066C
:102DA00090F0B4010E947038009769F0AC014619A8
:102DB0005709C416D50610F0542E052F0196EECFF4
:102DC0002FEF3FEF02C0252D302F40E050E0B7013C
:102DD000CE0101960E94A71ECE0101960E94DA1C28
:102DE000062FCE0101960E947B1ECE0107960E94FF
:102DF0007B1E01C00FEFC0901A03D0901B03C601C9
:102E00000E94DA11F82EF601E6A465E972E0CE011F
:102E100001960E94801EE0911803F09119038385AA
:102E2000811106C06DE872E0CE0101960E94EC1D92
:102E300062EB71E0CE0101960E94D61DF1E0FF1613
:102E400031F022E0F21631F06DE772E005C061E783
:102E500072E002C063E872E0CE0101960E94621D3A
:102E600066E772E0CE0101960E94621DE11003C088
:102E700066E672E002C06CE672E0CE0101960E9446
:102E8000621D0F3F59F06FE572E0CE0101960E947E
:102E9000621D602FCE0101960E948B341F3F59F0B6
:102EA00065E572E0CE0101960E94621D612FCE01A0
:102EB00001960E948B3440E061E0CE0101960E94B1
:102EC000E724CE010196ACC366E073E0CE01019623
:102ED0000E94801EBE016F5F7F4FC7010E94F61CDB
:102EE000882321F0002319F011E001C010E0CE0189
:102EF00001960E947B1E112359F0E0911803F09176
:102F000019038281882309F4A7C381E0818318C053
:102F100060E073E0CE0101960E94801EBE016F5FEB
:102F20007F4FC7010E94F61C182FCE0101960E9408
:102F30007B1E112359F0E0911803F09119031182BF
:102F4000BF016F5F7F4F8AE190E03DC36AEF72E09F
:102F5000CE0101960E94801EBE016F5F7F4FC701A8
:102F60000E94F61C182FCE0101960E947B1E112391
:102F700061F0E12C00E020E040E060E08091180387
:102F8000909119030E94CC0C20C362EF72E0CE0135
:102F900001960E94801E0BE027E0AE014F5F5F4F5D
:102FA000B70188E193E00E94D00E182FCE01019660
:102FB0000E947B1E1123F1F122E030E040E050E05E
:102FC000B701CE0101960E94A71ECE0101960E9474
:102FD000DA1CCE0101966B8B0E947B1E6B896831D7
:102FE00008F03AC36093210324E030E042E050E06F
:102FF000B701CE0101960E94A71ECE0101960E9444
:10300000DA1CCE0101966B8B0E947B1E6B896C33A0
:1030100008F022C324E030E042E050E0B701CE01E6
:1030200001960E94A71ECE0101960E94DA1C6093B1
:10303000200380C26BEE72E0CE0101960E94801EDA
:103040000FE026E0AE014F5F5F4FB70188E193E0EC
:103050000E94D00E182FCE0101960E947B1E1123D4
:1030600009F487C064E070E0C7010E94E51C8D325E
:1030700009F0F2C222E030E040E050E0B701CE01BA
:1030800007960E94A71ECE0107960E94DA1C162FF3
:1030900024E030E042E050E0B701CE0101960E940A
:1030A000A71EBE016F5F7F4FCE0107960E94421E92
:1030B000CE0101960E947B1ECE0107960E94DA1C6B
:1030C000C62E27E030E045E050E0B701CE01019682
:1030D0000E94A71EBE016F5F7F4FCE0107960E9420
:1030E000421ECE0101960E947B1ECE0107960E94D1
:1030F000DA1C062F29E030E047E050E0B701CE01AE
:1031000001960E94A71EBE016F5F7F4FCE010796FA
:103110000E94421ECE0101960E947B1ECE010796A0
:103120000E94DA1C1831F8F48BE38C15E0F00831BA
:10313000D0F46C33C0F480911803909119031013EC
:103140000AC0C61208C0E12C00E020E040E060E0C8
:103150000E94CC0C08C0E62E2C2D412F61E00E946D
:10316000CC0C11E001C010E0CE0107960E947B1E3E
:103170002DC2F7010481015065EE72E0CE01019687
:103180000E94801E25E0AE014F5F5F4FB70188E1CE
:1031900093E00E94D00E182FCE0101960E947B1E54
:1031A0001123F1F0C7010E949C26882309F454C220
:1031B000C7010E94DA1C8B016630710510F005E032
:1031C00010E0E0911803F0911903028BBF016E5ECD
:1031D0007F4F8AE390E00E94FE206FED72E07BC09B
:1031E000F7010481015066ED72E0CE0101960E9464
:1031F000801E28E0AE014F5F5F4FB70188E193E08A
:103200000E94D00E182FCE0101960E947B1E112322
:1032100029F1C7010E949C26882309F41DC2C70119
:103220000E94DA1C8B016230710530F0613B744002
:1032300028F000EB14E002C002E010E0E091180377
:10324000F0911903178B068BBF016A5E7F4F82E1F5
:1032500090E00E94CD206DEC72E03DC0F70104814A
:10326000015064EC72E0CE0101960E94801E28E0BD
:10327000AE014F5F5F4FB70188E193E00E94D00E2F
:10328000182FCE0101960E947B1E112371F1C701F8
:103290000E949C26882309F4DFC1C7010E94DA1C22
:1032A0008B016233710530F06138704728F000E817
:1032B00010E702C002E310E0E0911803F091190357
:1032C000158B048BBF016C5E7F4F84E090E00E9401
:1032D000CD206BEB72E0CE010D960E94EC1DB80183
:1032E000CE010D960E945B3470C1F701048101503C
:1032F00067EB72E0CE0101960E94801E23E0AE01D2
:103300004F5F5F4FB70188E193E00E94D00E182F06
:10331000CE0101960E947B1E112321F16BEA72E01F
:10332000CE0107960E94801EB701CE0107960E942B
:10333000E51D60E771E0CE0107960E94D61D81E091
:1033400080933303BE01695F7F4FCE0101960E94D7
:10335000891E41E0BE016F5F7F4F88E193E00E94CC
:10336000EB0F58C167EB71E0CE0101960E94921EEF
:103370000CE022E0AE014F5F5F4FB70188E193E0C0
:103380000E94D00E182FCE0101960E947B1E1123A1
:1033900009F448C0C7010E949C26882309F45CC137
:1033A0000091180310911903F8018081823008F40C
:1033B00053C1B701C8010E94C60DF82E8FEF8F0DC3
:1033C0008D3F08F049C18BE0E82E2F2D30E0F80149
:1033D0009081492F50E04150510924173507FCF4E2
:1033E0002F5F3F4FE29E5001E39EB00C1124A501D8
:1033F000405D5E4F2AE0B801CE0101960E94162181
:10340000B5016B5D7E4FAE014F5F5F4FC8010E94FB
:103410005B0CCE0101960E947B1EF394D6CF915097
:10342000908348C06BEB71E0CE0101960E94921E22
:103430000CE022E0AE014F5F5F4FB70188E193E0FF
:103440000E94D00E182FCE0101960E947B1E1123E0
:10345000A9F1C7010E949C26882309F4FDC00091B0
:10346000180310911903F80180818F3009F4F4C01A
:10347000B701C8010E94C60D8F3F09F0EDC0B7012A
:10348000CE0101960E94891EF8016081FBE06F9FCA
:10349000B0011124605D7E4FAE014F5F5F4FC801E8
:1034A0000E945B0CCE0101960E947B1EF801808178
:1034B0008F5F8083B8018CE291E085C06AEB71E098
:1034C000CE0101960E94921E0DE023E0AE014F5FF7
:1034D0005F4FB70188E193E00E94D00E182FCE0114
:1034E00001960E947B1E112351F1C7010E949C2668
:1034F000882309F4B1C00091180310911903F80151
:103500008081882309F4A8C081E08283B8016E5FBE
:103510007F4F86E190E00E94FE20B701CE01019628
:103520000E94891EAE014F5F5F4F6EE170E0C801DF
:103530000E945B0CCE0101960E947B1E46C06EEB82
:1035400071E0CE0101960E94921E0DE023E0AE01D3
:103550004F5F5F4FB70188E193E00E94D00E182FB4
:10356000CE0101960E947B1E112309F475C0C7018C
:103570000E949C26882309F46FC0009118031091C3
:10358000190381E0F8018383B8016D5F7F4F88E5FF
:1035900090E00E94FE20B701CE0101960E94891E94
:1035A000AE014F5F5F4F60E670E0C8010E945B0CA8
:1035B000CE0101960E947B1EF8011482B8016C5F57
:1035C0007F4F8CE590E00E94FE2011E0D1102AC0D0
:1035D00065EA72E0CE0107960E94801E111106C0B6
:1035E0006CE972E0CE0107960E94EC1DBE01635F9C
:1035F0007F4FCE0107960E94E51DBE01695F7F4F98
:10360000CE0101960E94891E40E061E0CE01019644
:103610000E94E724CE0101960E947B1ECE010796F0
:103620000E947B1ECE010D960E947B1E63960FB6F4
:10363000F894DEBF0FBECDBFDF91CF911F910F91E8
:10364000FF90EF90DF90CF90BF90AF909F908F90C2
:103650007F906F905F90089510E0B8CF0895CF925B
:10366000DF92EF92FF920F931F93CF93DF936C0142
:103670007A018B01C0E0D0E0CE15DF0589F0D801DA
:103680006D918D01D601ED91FC910190F081E02DBD
:10369000C6010995892B11F47E0102C02196ECCF59
:1036A000C701DF91CF911F910F91FF90EF90DF90B5
:1036B000CF900895FC01918D828D981761F0828DD5
:1036C000DF01A80FB11D5D968C91928D9F5F9F7356
:1036D000928F90E008958FEF9FEF0895FC01918DF8
:1036E000828D981731F0828DE80FF11D858D90E065
:1036F00008958FEF9FEF0895FC01918D228D892F02
:1037000090E0805C9F4F821B91098F7399270895E9
:103710008BE792E00E947C1B21E0892B09F420E0DA
:10372000822F0895FC01848DDF01A80FB11DA35ADB
:10373000BF4F2C91848D90E001968F739927848FD1
:10374000A689B7892C93A089B1898C9180648C93C8
:10375000938D848D981306C00288F389E02D8081B3
:103760008F7D80830895EF92FF920F931F93CF93E5
:10377000DF93EC0181E0888F9B8D8C8D981305C0C1
:10378000E889F989808185FD24C0F62E0B8D10E033
:103790000F5F1F4F0F731127E02E8C8DE8120CC0A6
:1037A0000FB607FCFACFE889F989808185FFF5CF4C
:1037B000CE010E94921BF1CF8B8DFE01E80FF11D0F
:1037C000E35AFF4FF0820B8FEA89FB898081806288
:1037D00007C0EE89FF896083E889F9898081806468
:1037E000808381E090E0DF91CF911F910F91FF9056
:1037F000EF900895CF93DF93EC01888D8823C9F073
:10380000EA89FB89808185FD05C0A889B9898C91E9
:1038100086FD0FC00FB607FCF5CF808185FFF2CF84
:10382000A889B9898C9185FFEDCFCE010E94921BAA
:10383000E7CFDF91CF91089580E090E0892B29F0C8
:103840000E94881B81110C9400000895833081F040
:1038500028F4813099F08230A1F008958730A9F0E2
:103860008830B9F08430D1F4809180008F7D03C01E
:10387000809180008F7780938000089584B58F7742
:1038800002C084B58F7D84BD08958091B0008F778C
:1038900003C08091B0008F7D8093B000089508959B
:1038A0000E942538CF93DF93EC018881998100979E
:1038B00011F00E94C336198218821D821C821B825D
:1038C0001A82DF91CF9108950F931F93CF93DF93C7
:1038D000EC0188819981009729F02A813B81261784
:1038E000370788F48B016F5F7F4F0E945B3700972B
:1038F00061F0998388831B830A832C813D81232B6C
:1039000011F4FC01108281E001C080E0DF91CF91D1
:103910001F910F910895EF92FF920F931F93CF93F2
:10392000DF93FC01248135816115710511F480E07C
:1039300019C041155105A9F07B01EC018A01020F64
:10394000131FB8010E94641C882389F328813981E0
:103950008C819D81B701820F931F0E944C381D837B
:103960000C8381E0DF91CF911F910F91FF90EF9039
:103970000895EF92FF920F931F93CF93DF93EC0183
:103980007B018A01BA010E94641C811104C0CE012E
:103990000E94521C07C01D830C83B7018881998146
:1039A0000E944C38CE01DF91CF911F910F91FF9073
:1039B000EF900895FC0180819181009711F00C94A3
:1039C0008A3860E070E0CB010895FC0124813581E4
:1039D0006217730748F480819181009729F0FC01F8
:1039E000E60FF71F8081089580E00895FB01448170
:1039F0005581FC01248135812417350778F08081B9
:103A00009181009759F0FB01608171816115710509
:103A100029F00E94533821E0892B09F020E0822F01
:103A20000895FC0124813581232B31F421E06115B7
:103A30007105A1F0FB0108C0FC0180819181611535
:103A4000710531F421E0FC018081882339F005C043
:103A50000E94433821E0892B09F020E0822F08954D
:103A6000FC0124813581FB014481558124173507F0
:103A700021F5FC0180819181FB01608171810097BA
:103A800019F061157105A1F46115710549F0232B39
:103A9000B1F0FB01808190E09195819591090AC078
:103AA000009769F0232B59F0FC01808190E002C05F
:103AB0000E94433821E0892B19F020E001C021E069
:103AC000822F0895EF92FF920F931F93CF93DF936E
:103AD0006115710511F480E01EC08B01EC01CB0172
:103AE0000E94B8380097B1F02C813D817C01E20E34
:103AF000F31EB701CE010E94641C882361F3288164
:103B000039818C819D81B801820F931F0E94B13849
:103B1000FD82EC8281E0DF91CF911F910F91FF90A8
:103B2000EF900895EF92FF920F931F93CF93DF933F
:103B3000CDB7DEB72D970FB6F894DEBF0FBECDBF61
:103B40007C01CB01BA012AE08E010F5F1F4FA80153
:103B50000E94E138F80101900020E9F73197AF01A8
:103B6000401B510BB801C7010E948B1C2D960FB64C
:103B7000F894DEBF0FBECDBFDF91CF911F910F91A3
:103B8000FF90EF900895CF93DF9300D0CDB7DEB7CD
:103B900069831A8241E050E0BE016F5F7F4F0E944F
:103BA0008B1C0F900F90DF91CF91089561157105D7
:103BB00051F0FB0101900020E9F73197AF01461B5E
:103BC000570B0C948B1C80E00895FB0144815581B8
:103BD000608171810C948B1CEF92FF920F931F9365
:103BE000CF93DF93EC018B016115710551F0CB018F
:103BF0000E94B8387C01BC01CE010E94641C811176
:103C000004C0CE010E94521C07C0FD82EC82B801A4
:103C1000888199810E94B138CE01DF91CF911F91A7
:103C20000F91FF90EF900895CF93DF93EC01611512
:103C3000710559F0FB0101900020E9F73197AF01C0
:103C4000461B570B0E94B91C02C00E94521CCE0199
:103C5000DF91CF910895CF93DF93EC01FB0186179D
:103C6000970761F0608171816115710529F04481C8
:103C700055810E94B91C02C00E94521CCE01DF91E6
:103C8000CF9108950F931F93CF93DF938C01EB0196
:103C9000FC01808191810097B1F068817981611583
:103CA000710579F0428153812C813D814217530780
:103CB00040F00E944C388C819D81F801958384836B
:103CC00013C00E94C33688819981F8019183808353
:103CD0008A819B81938382838C819D819583848358
:103CE000198218821B821A821D821C82DF91CF9159
:103CF0001F910F910895FC01808191810C94C3362E
:103D0000FC011182108213821282158214820C949B
:103D1000EC1DFC0111821082138212821582148222
:103D20000C942B1EFC0111821082138212821582C8
:103D300014826115710551F0FB0101900020E9F733
:103D40003197AF01461B570B0C94B91C0895BF92D5
:103D5000CF92DF92EF92FF920F931F93CF93DF9357
:103D60007C016B018A01E9012417350720F4812FBA
:103D70008901C42FD82F6FE571E0C7010E94921E00
:103D8000D60114968D919C91159708171907D0F4B8
:103D90008C179D0708F4EC01D601ED91FC91119769
:103DA000EC0FFD1FB08010824D915C91BA01600F45
:103DB000711FC7010E94141ED601ED91FC91EC0FFA
:103DC000FD1FB082C701DF91CF911F910F91FF902E
:103DD000EF90DF90CF90BF900895DC01ED91FC91C2
:103DE0000280F381E02D42E050E06DE571E009943E
:103DF0001F920F920FB60F9211242F933F934F9360
:103E00005F936F937F938F939F93AF93BF93EF9342
:103E1000FF938BE792E00E94921BFF91EF91BF917D
:103E2000AF919F918F917F916F915F914F913F9152
:103E30002F910F900FBE0F901F9018951F920F9209
:103E40000FB60F9211242F938F939F93EF93FF93AD
:103E5000E0918B02F0918C028081E0919102F091CF
:103E6000920282FD12C09081809194028F5F8F73C5
:103E700020919502821751F0E0919402F0E0E5580C
:103E8000FD4F958F8093940201C08081FF91EF9147
:103E90009F918F912F910F900FBE0F901F901895AB
:103EA000CF93DF93282F30E0F901E153FC4F849149
:103EB000F901E554FC4FD491F901E955FC4FC49147
:103EC000CC2391F081110E94261CEC2FF0E0EE0F24
:103ED000FF1FE356FC4FA591B491EC91ED2381E0D7
:103EE00090E021F480E002C080E090E0DF91CF918B
:103EF00008951F93CF93DF93282F30E0F901E1530A
:103F0000FC4F8491F901E554FC4FD491F901E95536
:103F1000FC4FC491CC23C9F0162F81110E94261C9E
:103F2000EC2FF0E0EE0FFF1FED56FC4FA591B49182
:103F30008FB7F894111105C09C91ED2FE095E923FE
:103F400002C0EC91ED2BEC938FBFDF91CF911F91CD
:103F50000895CF93DF9390E0FC01E554FC4F24914A
:103F6000FC01E955FC4F8491882361F190E0880FB2
:103F7000991FFC01E757FC4FC591D491FC01ED5608
:103F8000FC4FA591B491611109C09FB7F894888145
:103F9000209582238883EC912E230BC0623061F43C
:103FA0009FB7F8943881822F809583238883EC9182
:103FB0002E2B2C939FBF06C08FB7F894E8812E2B31
:103FC00028838FBFDF91CF9108952FB7F894609128
:103FD0001702709118028091190290911A022FBF56
:103FE00008950F931F93CF93DF93EC010E94E51F79
:103FF000688779878A879B87E881F9810680F781BE
:10400000E02DCE01099597FF17C00E94E51F088596
:1040100019852A853B85DC01CB01801B910BA20B06
:10402000B30B0C811D812E813F8180179107A20760
:10403000B30710F38FEF9FEFDF91CF911F910F9197
:1040400008951F920F920FB60F9211242F933F9352
:104050008F939F93AF93BF93809117029091180213
:10406000A0911902B0911A023091160226E0230F96
:104070002D3720F40296A11DB11D05C029E8230F9C
:104080000396A11DB11D20931602809317029093F1
:104090001802A0931902B0931A0280911202909113
:1040A0001302A0911402B09115020196A11DB11D39
:1040B0008093120290931302A0931402B0931502FE
:1040C000BF91AF919F918F913F912F910F900FBE14
:1040D0000F901F9018951F920F920FB60F921124F8
:1040E0002F933F934F935F936F937F938F939F9300
:1040F000AF93BF93EF93FF93E0910201F09103011F
:104100000995FF91EF91BF91AF919F918F917F9111
:104110006F915F914F913F912F910F900FBE0F9034
:104120001F9018951F920F920FB60F9211242F9384
:104130003F934F935F936F937F938F939F93AF932F
:10414000BF93EF93FF93E0910001F0910101099576
:10415000FF91EF91BF91AF919F918F917F916F915F
:104160005F914F913F912F910F900FBE0F901F9035
:1041700018950F931F93CF93DF938C01EB010E944F
:104180002D398883C80101960E942D398983CE017B
:10419000DF91CF911F910F910895EF92FF920F93AE
:1041A0001F93CF93DF9300D0CDB7DEB78C017B0197
:1041B000FB0160819A838983CE0101960E94370EAC
:1041C000F70161810F5F1F4F1A830983CE010196AA
:1041D0000E94370EC7010F900F90DF91CF911F9172
:1041E0000F91FF90EF900895CF93DF93EB010E9422
:1041F0002D398883CE01DF91CF9108950F931F93BE
:10420000CF93DF9300D0CDB7DEB78B01FB01608188
:104210009A838983CE0101960E94370EC8010F90C0
:104220000F90DF91CF911F910F9108956F927F9220
:104230008F929F92AF92BF92CF92DF92EF92FF92B6
:104240000F931F93CF93DF93CDB7DEB76C013A0185
:10425000ADB6BEB6822F90E001964DB75EB7481B53
:10426000590B0FB6F8945EBF0FBE4DBF8DB79EB70A
:1042700001964C01611494E0790650F5FF24F39403
:10428000F20E31F1E1E0FE1202C0F40120C0C301E0
:104290000E942D39F4018083EE24E3948823C1F039
:1042A0000E2D10E0EF1478F4C801860D971D8115CE
:1042B000F4E09F0740F40E942D39F401E00FF11F54
:1042C0008083E394EBCF080D191DF801319710821C
:1042D000B401C6010E94921EC6010FB6F894BEBE7C
:1042E0000FBEADBEDF91CF911F910F91FF90EF9068
:1042F000DF90CF90BF90AF909F908F907F906F9006
:1043000008950F931F93CF93DF9300D000D000D078
:10431000CDB7DEB7FC0182818823C1F08B01BF01DC
:104320002AE04EE150E0CE0101960E941621BE0126
:104330006F5F7F4FC8010E94301D11E0811101C0E5
:1043400010E0CE0101960E947B1E01C010E0812F7B
:1043500026960FB6F894DEBF0FBECDBFDF91CF918A
:104360001F910F91089588E193E00E941B100E9415
:10437000E51F60932E0370932F0380933003909377
:10438000310308950F931F93CF93DF93CDB7DEB71B
:104390002C970FB6F894DEBF0FBECDBF63E274E07A
:1043A000CE0107960E94801E61E4CE0107960E940E
:1043B000C31D6FE174E0CE0107960E94621D08E103
:1043C00013E0D801D6968D919C91D797DC01ED91A1
:1043D000FC910284F385E02D0995BE01695F7F4F52
:1043E000CE0101960E94891E41E0BE016F5F7F4FA2
:1043F000C8010E94EB0FCE0101960E947B1EF801BE
:1044000086A997A9DC01ED91FC910284F385E02D4A
:104410000995CE0107960E947B1E2C960FB6F89444
:10442000DEBF0FBECDBFDF91CF911F910F910895D9
:10443000FC01A089B18982E08C93A485B5851C928A
:10444000A685B78583E38C93108EA489B58986E011
:104450008C93A289B3898C9180618C93A289B38952
:104460008C9188608C93A289B3898C9180688C939D
:104470000288F389E02D80818F7D8083089580916B
:104480003303811111C090913B039E3471F49091DC
:104490003C039E3451F480914903882331F090917C
:1044A000470381E08927089580E00895E0E6F0E081
:1044B00088E18083108208951F93CF93DF93EC01EE
:1044C000162F8EA99FA9DC01ED91FC910284F38542
:1044D000E02D0995CE010E941B100E94E51F6D87FB
:1044E0007E878F87988B81E0898B1EA71A8BDF913F
:1044F000CF911F910895CF93DF9360E070E00E9409
:10450000E51C813371F483E5809348030E94B32155
:1045100061E080911A0390911B03DF91CF910C947D
:10452000FC12823381F48FE4809348030E94B3210C
:1045300020E040E061E080911A0390911B03DF913D
:10454000CF910C949611833341F584E58093480311
:104550000E94B321C0911A03D0911B03CE010E9487
:10456000DA11843011F46CE403C0823039F461E470
:104570008A819B81DF91CF910C949C0E813009F050
:10458000ACC0CE010E946A122A813B81882311F0BF
:1045900061E301C063E3C901EDCF8433E9F487E54A
:1045A000809348030E94B321C0911A03D0911B034A
:1045B000CE010E94BE12811102C064E5D9CF8130C4
:1045C00011F461E5D5CF823011F462E5D1CF8330AB
:1045D00009F083C065E4CCCF8533C1F486E58093D0
:1045E00048030E94B321C0911A03D0911B03CE014E
:1045F0000E94E512823011F466E5BACF813011F4E1
:1046000068E5B6CF811169C067E5B2CF8434C9F4DB
:1046100081E38093480361E080911803909119032E
:104620000E94180D61E080911A0390911B030E9473
:104630000F1260E080911A0390911B030E94FC12FC
:1046400015C08334B9F482E38093480360E080911D
:104650001803909119030E94180D21E040E060E0DA
:1046600080911A0390911B030E949611DF91CF91C4
:104670000C94C2218833A9F40E94B32161E0809197
:104680001803909119030E94180D61E080911A039C
:1046900090911B030E940F1281E08093230368E333
:1046A00016C08933D1F40E94B32160E080911803D1
:1046B000909119030E94180D61E080911A03909166
:1046C0001B030E940F1281E08093230369E388E1BA
:1046D00093E0DF91CF910C945C22DF91CF9108950C
:1046E000EF92FF920F931F93CF93DF9300D000D0F0
:1046F00000D0CDB7DEB77C0162EC71E0CE0101964F
:104700000E94921E08E027E0AE014F5F5F4FB701A5
:1047100088E193E00E94D00E182FCE0101960E94EE
:104720007B1E812F26960FB6F894DEBF0FBECDBF3D
:10473000DF91CF911F910F91FF90EF900895CF934C
:10474000DF9300D000D000D0CDB7DEB710923D038C
:1047500010922B0380914E0390914F03DC01ED9159
:10476000FC910284F385E02D099567E174E0CE01A8
:1047700001960E94801E41E0BE016F5F7F4F88E17D
:1047800093E00E94EB0FCE0101960E947B1E0E94D7
:10479000E51F61E088E193E00E94A50E6FE571E0FE
:1047A000CE0101960E94921E41E0BE016F5F7F4FD5
:1047B00088E193E00E94EB0FCE0101960E947B1EE0
:1047C00080914E0390914F03DC01ED91FC910284A6
:1047D000F385E02D09951092470380913B038E34B9
:1047E00011F0823549F580913C038F3429F5809191
:1047F0003F03811121C080913E0381111DC0E091D2
:104800001803F0911903818D8435B1F480818230D1
:1048100098F081E080933F03809340030E94E51F5E
:104820006093410370934203809343039093440346
:10483000809146038093450310923E031092230318
:104840008EE480933B0380933C03109222030E94EA
:10485000E51F60934A0370934B0380934C0390933E
:104860004D031092490326960FB6F894DEBF0FBE93
:10487000CDBFDF91CF910895FF920F931F93CF93F8
:10488000DF9300D000D000D0CDB7DEB78C016BE055
:1048900074E0CE0101960E94801EBE016F5F7F4FC3
:1048A000C8010E94F61CF82ECE0101960E947B1EC4
:1048B000FF20E1F02CE030E04BE050E0B801CE0109
:1048C00001960E94A71E60E070E0CE0101960E9452
:1048D000E51C182FCE0101960E947B1E123341F079
:1048E000133341F0103341F0163341F08EE407C02A
:1048F00084E405C082E503C089E401C085E426960E
:104900000FB6F894DEBF0FBECDBFDF91CF911F91E0
:104910000F91FF900895FF920F931F93CF93DF9312
:1049200000D000D000D0CDB7DEB78C016FEF73E0C0
:10493000CE0101960E94801EBE016F5F7F4FC801AD
:104940000E94301DF82ECE0101960E947B1EFF2092
:1049500011F091E02FC069EF73E0CE0101960E9443
:10496000801EBE016F5F7F4FC8010E94301DF82E70
:10497000CE0101960E947B1EF110EBCF6EEE73E02C
:10498000CE0101960E94801EBE016F5F7F4FC8015D
:104990000E94301DF82ECE0101960E947B1EF11060
:1049A000D8CF6AEC71E0C8010E94111D91E081111D
:1049B00001C090E0892F26960FB6F894DEBF0FBE97
:1049C000CDBFDF91CF911F910F91FF900895EF928E
:1049D000FF920F931F93CF93DF93CDB7DEB762970C
:1049E0000FB6F894DEBF0FBECDBF7C01062F142F8B
:1049F00081E080932B0380914E0390914F03DC0163
:104A0000ED91FC910284F385E02D0995B701CE016B
:104A10000D960E94891E011126C0809146038F3495
:104A2000B1F034F4833499F0863409F0E7C00FC054
:104A3000833521F0853509F0E1C009C061ED71E0F1
:104A4000CE010D960E94141E68ED71E008C061ED64
:104A500071E0CE010D960E94141E6BED71E0CE0147
:104A60000D960E94D61D6FED71E0CE0107960E9453
:104A7000921E1230B9F46091180370911903FB0172
:104A80008381882341F02AE040E650E0CE01019680
:104A90000E9416211AC06FE571E0CE0101960E94B6
:104AA000921E13C080913203882339F063EE73E0C5
:104AB000CE0107960E94621D13C060911803709189
:104AC0001903CE0101960E94210DBE016F5F7F4F39
:104AD000CE0107960E94E51DCE0101960E947B1E25
:104AE00060E771E0CE0107960E94D61D80914E03CB
:104AF00090914F03DC01ED91FC910284F385E02D50
:104B00000995BE01695F7F4FCE0101960E94891E03
:104B100041E0BE016F5F7F4F88E193E00E94EB0FA1
:104B2000CE0101960E947B1E80914E0390914F030F
:104B3000DC01ED91FC910284F385E02D09956AE09A
:104B400088E193E00E94A50EBE01635F7F4FCE0116
:104B500001960E94891E41E0BE016F5F7F4F88E190
:104B600093E00E94EB0FCE0101960E947B1E809184
:104B70004E0390914F03DC01ED91FC910284F3858B
:104B8000E02D09956AE088E193E00E94A50E8091EE
:104B90004E0390914F03DC01ED91FC910284F3856B
:104BA000E02D099588E193E00E94CA0F00914E0321
:104BB00010914F03D801ED91FC910190F081E02D0F
:104BC0006AE1C8010995C8010E94ED1E80914E035B
:104BD00090914F03DC01ED91FC910284F385E02D6F
:104BE00009956AE088E193E00E94A50E10923203D5
:104BF00010922B03CE0107960E947B1ECE010D96CC
:104C00000E947B1E62960FB6F894DEBF0FBECDBF2A
:104C1000DF91CF911F910F91FF90EF900895CF9367
:104C2000DF9300D000D000D0CDB7DEB790913E0327
:104C3000911119C0E0911803F0911903918D9134ED
:104C400091F4809346036FE571E0CE0101960E94D6
:104C5000921E40E060E0CE0101960E94E724CE0162
:104C600001960E947B1E26960FB6F894DEBF0FBEFB
:104C7000CDBFDF91CF9108950F931F93CF93DF9313
:104C8000EC018B016FE571E00E94921EC8010E9449
:104C9000F11F97FD08C08A30910529F0682FCE01D9
:104CA0000E94C31DF3CFCE01DF91CF911F910F91D1
:104CB0000895EF92FF920F931F93CF93DF9300D04D
:104CC00000D000D0CDB7DEB78C016FE571E00E9457
:104CD000921E80914E0390914F03DC01ED91FC9167
:104CE0000480F581E02D099518161906BCF488E1B9
:104CF00093E00E94CA0F60914E0370914F03CE0162
:104D000001967C010E943C260E151F0521F0B7017B
:104D1000C8010E94421EC7010E947B1EC801269640
:104D20000FB6F894DEBF0FBECDBFDF91CF911F91BC
:104D30000F91FF90EF900895EF92FF920F931F93C2
:104D4000CF938C01FC01E480F580C0E06C2F70E013
:104D50006E157F0568F4C8010E94E51C282F880F96
:104D6000330B205331092A30310520F4CF5FEECFC9
:104D700081E001C080E0CF911F910F91FF90EF90F3
:104D800008950F931F93CF93DF93CDB7DEB76E9740
:104D90000FB6F894DEBF0FBECDBF8C0168E774E09C
:104DA000CE0101960E94801EBE016F5F7F4FC80139
:104DB0000E94301D81114DC06DE674E0CE01079652
:104DC0000E94801EBE01695F7F4FC8010E94301D96
:104DD000811141C062E674E0CE010D960E94801EF2
:104DE000BE01635F7F4FC8010E94301D811135C035
:104DF00067E574E0CE0143960E94801EBE016D5EA1
:104E00007F4FC8010E94301D811115C06CE474E011
:104E1000CE0149960E94801EBE01675E7F4FC80189
:104E20000E94301D11E0811101C010E0CE014996B1
:104E30000E947B1E01C011E0CE0143960E947B1EA2
:104E4000CE010D960E947B1ECE0107960E947B1E0E
:104E500009C080E004C081E002C011E0F1CF11E0A0
:104E60008111F2CFCE0101960E947B1E812F6E969A
:104E70000FB6F894DEBF0FBECDBFDF91CF911F916B
:104E80000F9108958F929F92AF92BF92CF92DF922F
:104E9000EF92FF921F93CF93DF9300D000D000D00A
:104EA000CDB7DEB7162FBC01CE0101960E94891E38
:104EB00040E0BE016F5F7F4F88E193E00E94EB0FFF
:104EC000CE0101960E947B1E0E94E51F4B015C01F2
:104ED000112339F090E6C92E9AEED92EE12CF12C4F
:104EE00015C088EBC82E8BE0D82EE12CF12C0EC01B
:104EF00080914E0390914F03DC01ED91FC91048071
:104F0000F581E02D09951816190674F00E94E51F29
:104F1000DC01CB0188199909AA09BB098C159D05EB
:104F2000AE05BF0528F321C0CE0101960E94592687
:104F30006CEE71E0CE0101960E94111D81110DC031
:104F40006AEC71E0CE0101960E94111D811107C02B
:104F5000CE0101960E947B1ED9CF11E001C010E066
:104F6000CE0101960E947B1E01C010E0812F269683
:104F70000FB6F894DEBF0FBECDBFDF91CF911F916A
:104F8000FF90EF90DF90CF90BF90AF909F908F9069
:104F90000895CF93DF9300D000D000D0CDB7DEB717
:104FA0006EE374E0CE0101960E94801E60E0CE01A7
:104FB00001960E944227CE0101960E947B1E2696F2
:104FC0000FB6F894DEBF0FBECDBFDF91CF9108952D
:104FD0008F929F92AF92BF92CF92DF92EF92FF9209
:104FE0000F931F93CF93DF9300D000D000D0CDB7A5
:104FF000DEB76C017A010E94E51F4B015C01B6012E
:10500000CE0101960E94891E41E0BE016F5F7F4F75
:1050100088E193E00E94EB0FCE0101960E947B1E77
:105020000E94E51F8B019C01081919092A093B09F7
:10503000003A1F402105310530F580914E039091D3
:105040004F03DC01ED91FC910480F581E02D099581
:10505000892B31F3CE0101960E945926BE016F5F64
:105060007F4F88E193E0F7010995182F8823A1F27B
:10507000BE016F5F7F4FC6010E942B1ECE010196BD
:105080000E947B1E01C010E0812F26960FB6F89477
:10509000DEBF0FBECDBFDF91CF911F910F91FF906B
:1050A000EF90DF90CF90BF90AF909F908F9008953A
:1050B000EF92FF920F931F93CF93DF93CDB7DEB79D
:1050C0002A970FB6F894DEBF0FBECDBF81E0809364
:1050D00032036AE374E0CE0101960E94801E7E01D5
:1050E00087E0E80EF11C08E413E0C8010E942D39A6
:1050F000F70181937F010F5F1F4F0C34F3E01F070F
:10510000A1F74F81588569857A85CE0101960E9465
:10511000921D40E061E0CE0101960E94E724CE019D
:1051200001960E947B1E2A960FB6F894DEBF0FBE32
:10513000CDBFDF91CF911F910F91FF90EF90089518
:10514000CF93DF9300D000D000D0CDB7DEB76CE2B4
:1051500074E0CE0101960E94801E60E0CE010196AF
:105160000E944227CE0101960E947B1E26960FB612
:10517000F894DEBF0FBECDBFDF91CF910895EF92BF
:10518000FF920F931F93CF93DF9300D0CDB7DEB77D
:105190008C017B01FB0160819A838983CE0101969A
:1051A0000E94370EF70161810F5F1F4F1A83098339
:1051B000CE0101960E94370EC7010F900F90DF912C
:1051C000CF911F910F91FF90EF900895CF93DF93B0
:1051D00000D000D000D0CDB7DEB769EB74E0CE01CF
:1051E00001960E94801E60E0CE0101960E94422737
:1051F000CE0101960E947B1E62EB74E0CE01019607
:105200000E94801E60E0CE0101960E944227CE01DE
:1052100001960E947B1E66EA74E0CE0101960E9410
:10522000801E60E0CE0101960E944227CE010196C9
:105230000E947B1E81E08983BE016F5F7F4F84E8FF
:1052400093E00E94FE201A821982BE016F5F7F4F99
:1052500084E993E00E94BF281982BE016F5F7F4FEF
:1052600080E993E00E94FE2064E688E193E00E94DA
:10527000A50E88E193E00E948F1126960FB6F89450
:10528000DEBF0FBECDBFDF91CF9108951F93CF93A7
:10529000DF9300D000D000D0CDB7DEB767E974E06F
:1052A000CE0101960E94801E61E0CE0101960E940F
:1052B0004227182FCE0101960E947B1E812F269631
:1052C0000FB6F894DEBF0FBECDBFDF91CF911F9117
:1052D0000895CF92DF92EF92FF920F931F93CF9397
:1052E000DF93CDB7DEB72C970FB6F894DEBF0FBEB5
:1052F000CDBF60EF71E0CE0101960E94921E40E0AA
:10530000BE016F5F7F4F88E193E00E94EB0FCE01FB
:1053100001960E947B1E0E94E51F6B017C010E948A
:10532000E51FDC01CB018C199D09AE09BF09883846
:105330009341A105B10508F043C080914E039091BF
:105340004F03DC01ED91FC910480F581E02D09957E
:10535000892B29F360914E0370914F03CE0107967C
:105360000E943C266CE874E0CE0101960E94801EEB
:105370000BE02AE0AE014F5F5F4FBE01695F7F4FD8
:1053800088E193E00E94D00E182FCE0101960E9472
:105390007B1E112351F060E070E0CE0107960E9461
:1053A000E51C833339F0813331F0CE0107960E943A
:1053B0007B1EB5CF10E0CE0107960E947B1E01C078
:1053C00010E0812F2C960FB6F894DEBF0FBECDBF34
:1053D000DF91CF911F910F91FF90EF90DF90CF90D1
:1053E0000895CF92DF92EF92FF921F93CF93DF93B6
:1053F00000D000D000D0CDB7DEB7BC01CE01019601
:105400000E94891E40E0BE016F5F7F4F88E193E0FC
:105410000E94EB0FCE0101960E947B1E0E94E51FA9
:105420006B017C010E94E51FDC01CB018C199D09F9
:10543000AE09BF0988389341A105B10590F5809167
:105440004E0390914F03DC01ED91FC910480F581B6
:10545000E02D0995892B31F360914E0370914F0334
:10546000CE0101960E943C266CEE71E0CE010196C1
:105470000E94111D81110DC06AEC71E0CE010196F0
:105480000E94111D811107C0CE0101960E947B1E52
:10549000C9CF11E001C010E0CE0101960E947B1E31
:1054A00001C010E0812F26960FB6F894DEBF0FBE24
:1054B000CDBFDF91CF911F91FF90EF90DF90CF9004
:1054C0000895CF93DF93CDB7DEB72C970FB6F8943E
:1054D000DEBF0FBECDBF63E874E0CE0107960E9429
:1054E000801E49E35FE060E070E0CE0107960E9415
:1054F000E827882351F122E030E040E050E0BE018F
:10550000695F7F4FCE0101960E94A71ECE010196D2
:105510000E94DA1C60932103CE0101960E947B1E3B
:1055200025E030E043E050E0BE01695F7F4FCE01EF
:1055300001960E94A71ECE0101960E94DA1C60937C
:105540002003CE0101960E947B1ECE0107960E9489
:105550007B1E2C960FB6F894DEBF0FBECDBFDF9139
:10556000CF910895CF93DF93CDB7DEB763970FB692
:10557000F894DEBF0FBECDBF789484B5826084BD41
:1055800084B5816084BD85B5826085BD85B5816047
:1055900085BD80916E00816080936E0010928100C5
:1055A0008091810082608093810080918100816080
:1055B0008093810080918000816080938000809141
:1055C000B10084608093B1008091B00081608093CD
:1055D000B00080917A00846080937A0080917A0094
:1055E000826080937A0080917A008E7F80937A0027
:1055F00080917A00806880937A001092C10084B70D
:1056000061E088E00E94A91F60E088E00E94791FA5
:1056100062E089E00E94A91F89E00E94501F892B47
:1056200039F41092010260E088E00E94791F07C0FF
:1056300061E088E00E94791F81E0809301028091FF
:105640006800816080936800809168008260809328
:10565000680080916B00826080936B0080916C0089
:10566000816080936C0080916C00826080936C00FC
:1056700080916C00806280936C00809168008460EF
:105680008093680080916D00806280936D008091AE
:105690006D00806480936D0080916D0080688093C0
:1056A0006D0080916C00806180936C00F8940E9482
:1056B000562278948BE792E00E94182261E081E103
:1056C0000E94A91F6EE673E08AE390E00E94F42036
:1056D00080916E038F3F41F410926E036EE673E08B
:1056E0008AE390E00E94FE2068E673E086E390E0A3
:1056F0000E94F420809168038F3F41F41092680368
:1057000068E673E086E390E00E94FE2060E673E0C6
:105710008CE590E00E94F420809160038F3F41F47B
:105720001092600360E673E08CE590E00E94FE203A
:105730006FE573E088E590E00E94F42080915F03BC
:105740008F3F41F410925F036FE573E088E590E0CE
:105750000E94FE2067E673E080E090E00E94F42063
:10576000809167038F3F29F460E08CE593E00E940D
:10577000180D60E773E084E090E00E94B92080910A
:10578000700390917103019661F482E390E090932D
:1057900071038093700360E773E084E090E00E94FF
:1057A000CD2064E773E08CE090E00E94F4208091CB
:1057B00074038F3F41F41092740364E773E08CE04C
:1057C00090E00E94FE208EE090E00E942D398093B0
:1057D00075038F3F29F464E58CE593E00E94570E32
:1057E0006DE673E086E990E00E94F42080916D03FD
:1057F0008F3F49F4E12C00E020E040E060E08CE5E0
:1058000093E00E94CC0C80916D038823C1F069E67F
:1058100073E088E990E00E94F4206AE673E08AE988
:1058200090E00E94F4206BE673E08CE990E00E9427
:10583000F4206CE673E08EE990E00E94F4206CE5C1
:1058400073E08CE291E00E94F42080915C0380314F
:1058500040F010925C036CE573E08CE291E00E94F2
:10586000FE206EE573E086E190E00E94F4208091D6
:105870005E038F3F41F410925E036EE573E086E1B4
:1058800090E00E94FE206DE573E08AE190E00E94C6
:10589000F42080915D038F3F41F410925D036DE52C
:1058A00073E08AE190E00E94FE2061E673E080E20E
:1058B00093E00E94F420809161038F3F41F41092A5
:1058C000610361E673E080E293E00E94FE2062E7FC
:1058D00073E082E190E00E94B92080917203909180
:1058E0007303019661F482E090E0909373038093D8
:1058F000720362E773E082E190E00E94CD206FE6E0
:1059000073E082E390E00E94F42080916F038F3F68
:1059100041F410926F036FE673E082E390E00E941F
:10592000FE208CE593E090931903809318038BE19C
:1059300092E090931B0380931A0311E03AE0332E18
:1059400042E0242E809111028823F9F00E94E51F85
:1059500080900D0290900E02A0900F02B090100265
:10596000DC01CB0188199909AA09BB098131974249
:10597000A105B10550F01092110280910102811130
:1059800004C00E943F22811186C5809100028823B5
:1059900099F01092000280910102812780930C02FD
:1059A00081110AC061E088E00E94791F80910B029A
:1059B000811102C010930B0280910C028823D1F058
:1059C0000E943F228823B1F080912B03811112C0E5
:1059D0008091510381110EC010920C020E94E51FAC
:1059E00060930D0270930E0280930F029093100249
:1059F0001093110280910A028111D9C1809109028C
:105A0000811108C00E94E51F603D77408105910526
:105A100008F046C580910B02882321F10E94E51F02
:105A20002091020230910302DC01CB01821B930B17
:105A3000A109B109853F9140A105B10598F0809178
:105A40000401812780930401882311F061E001C0E3
:105A500060E081E10E94791F0E94E51F70930302BC
:105A6000609302020E94E51F683A71468105910524
:105A700008F40EC56BE171E0CE0101960E94921E02
:105A800060E0CE0101960E944227CE0101960E945D
:105A90007B1E68EC70E0CE0101960E94801E60E0E3
:105AA000CE0101960E944227082FCE0101960E9446
:105AB0007B1E002309F4F4C06CEB70E0CE010D9660
:105AC0000E94801E60E0CE010D960E94422788232E
:105AD00009F4E2C060EB70E0CE0107960E94801EE0
