:100000000C9497020C94361E0C940F1E0C9415122F
:100010000C9424120C94BF020C94E7110C94BF02B0
:100020000C94BF020C94BF020C94BF020C94BF024C
:100030000C94BF020C94BF020C94BF020C94BF023C
:100040000C94C51D0C94BF020C94C21C0C949C1CF7
:100050000C94BF020C94BF020C94BF020C94BF021C
:100060000C94BF020C94BF0241542B435245473FAE
:100070000041542B434349440041542B44444554CC
:100080003D310D0A00415426570D0A0041542B43BF
:100090004C54533D310D0A0041542B4353434C4BB8
:1000A0003D310D0A0041542B434E4D493D322C3118
:1000B0002C302C302C300D0A0041542B434D474638
:1000C0003D310D0A0041542B434C43433D310D0A51
:1000D0000041542B434C49503D310D0A0041540D11
:1000E0000A004D415843454444004345525200558F
:1000F000504453554343004154410041542B444420
:1001000045543D310D0A0041542B4346554E3D3177
:100110002C310D0A002B4350494E3A204E4F5420AB
:1001200052454144590D0043616C6C205265616435
:10013000790D0041542B434D4744413D2244454CE9
:1001400020414C4C220D0A0041542B465450474547
:1001500054544F46533D302C226D2E62696E220D51
:100160000A000D002B465450474554544F46533A0D
:1001700020302C002B46545053495A453A20312CFC
:10018000302C0041542B46545053495A450D0A0017
:10019000504154483D222F220D0A0041542B465411
:1001A0005047455400220D0A004E414D453D220066
:1001B00041542B465450474554006D2E62696E00E1
:1001C00041542B46545050573D223132333435364A
:1001D000373839220D0A0041542B465450554E3DB4
:1001E00022726168756C6E726174686F646B636CA7
:1001F000220D0A00220D0A0041542B46545053454B
:1002000052563D220041542B4654504349443D31FF
:100210000D0A0041542B53415042523D312C310DB7
:100220000A00220D0A0041504E222C220041542B7C
:1002300053415042523D332C312C2200436F6E54B7
:10024000797065222C2247505253220D0A004154E6
:100250002B53415042523D332C312C220041542B20
:10026000434F50533D320D0A00415426570D0A00AA
:1002700041542B4353434C4B3D300D0A0041542B0A
:1002800053415042523D302C310D0A00444300533B
:1002900055500050524755504400564D5230320090
:1002A000564D4D3031002A2A2A2A4D2B00310D009F
:1002B000300D002E616D72222C302C3130302C002C
:1002C00041542B435245433D342C22433A5C5573F1
:1002D00065725C4654505C002B435245473A00001F
:1002E00041542B435245433D350D0041542B43426D
:1002F000430037303431313936393539000A4E65EB
:1003000074776F726B3A000A426174253A00204F8D
:1003100046460A00204F4E0A00204F4E0A004D6FFD
:10032000746F723A00204F46460A0020322050482F
:100330004153450A004155544F4F464600415554DC
:100340004F4F4E0041542B434357413D302C300D0D
:100350000A004552524F52203A20004F4B203A207B
:100360000041542B435553443D312C220042414C13
:10037000004155544F54494D45004155544F54493F
:100380004D45005354415254494D45005354415238
:1003900054494D4500535441474500535441474546
:1003A00000414D4F464600414D4F4E0041542B43B6
:1003B00042430041542B435351005354415455532D
:1003C00000554E4452004F565200534A4D50005271
:1003D00045535000444E444F464600444E444F4E11
:1003E000004259504F4646004259504F4E00415529
:1003F000544F4F4646004155544F4F4E00444944D8
:10040000005245534554004E6F204E756D62657223
:10041000004E554D0044454641554C5400434C4513
:100420004152414C4C005741495400000000002407
:100430000027002A0000000000250028002B0000F3
:10044000000000230026002900040404040404041E
:100450000402020202020203030303030301020473
:100460000810204080010204081020010204081036
:100470002000000008000201000003040700000043
:10048000000000000039353836313335393738004F
:10049000373338333632323637380037333833363D
:1004A000313432313400373639383433393230313F
:1004B000003730343131393639353900373034315D
:1004C000313936393539004E4F20414E5357455258
:1004D0000D00425553590D004E4F20434152524991
:1004E00045520D002B434C43433A20312C302C0015
:1004F0000041542B4348555000222C320041542BCC
:100500005654533D22002B53415042523A20312C35
:100510000041542B53415042523D322C310D0A00C0
:100520000A49443A0030330A00008533EF3211247F
:100530001FBECFEFD8E0DEBFCDBF23E0AAECB1E015
:1005400001C01D92A834B207E1F711E0A0E0B1E0CC
:10055000EAECF5E702C005900D92AA3CB107D9F785
:1005600012E0C6E9D2E004C02197FE010E94733870
:10057000C539D107C9F70E940F290C94D83A0C94B9
:100580000B122F923F924F925F927F928F929F9287
:10059000AF92BF92CF92DF92EF92FF920F931F9391
:1005A000CF93DF93CDB7DEB7C254D1090FB6F8941D
:1005B000DEBF0FBECDBF809119038823B1F00E942A
:1005C000891D00911A0310911B0320911C03309187
:1005D0001D03DC01CB01801B910BA20BB30B813DF2
:1005E0009740A105B10508F007C68091F302882362
:1005F00071F10E94891D0091F6021091F70220917D
:10060000F8023091F902AB01BC01401B510B620BA7
:10061000730B2091F4023091F502E4E6E29FC001F1
:10062000E39F900D1124A0E0B0E0481759076A0736
:100630007B0768F0E091DF02F091E002838981118D
:1006400006C060E084E00E941D1D1092F3028091BC
:10065000FA028E3409F052C08091FB028E3409F008
:10066000BBC080910703811116C00E94891D0091B3
:1006700008031091090320910A0330910B03DC0158
:10068000CB01801B910BA20BB30B893E9340A105BC
:10069000B10508F0B4C58091FF02882309F49CC01D
:1006A000E091DD02F091DE02158580910703882339
:1006B00009F492C08091FE02813009F475C00E9455
:1006C000891DC0900003D0900103E0900203F090D8
:1006D00003039B01AC012C193D094E095F09690117
:1006E0007A01212F30E0A0E6BAEE0E942E376C1579
:1006F0007D058E059F0508F457C06EC0893419F03A
:10070000823509F069C00E94891D0091ED021091A7
:10071000EE022091EF023091F002AB01BC01401BD0
:10072000510B620B730B2091EB023091EC02E4E66B
:10073000E29FC001E39F900D1124A0E0B0E04817B4
:1007400059076A077B0760F08091050323968FAFF6
:1007500023970E948A2123968FAD23970E94CF234F
:100760008091E7028823C1F10E94891DE091E20295
:100770000091E3021091E4022091E5023091E6023B
:10078000AB01BC01401B510B620B730B34E6E39FC2
:10079000C0011124092E000CAA0BBB0B841795076E
:1007A000A607B707C8F42FC58091040380930503FB
:1007B0001092FF02E091DD02F091DE02858D8E3411
:1007C00059F081E0809306038DED92E00E94D10EF6
:1007D0008DED92E00E94BA0F9FE4E92E22E5D22E21
:1007E00039E4F32E8091160390911703DC01ED910B
:1007F000FC910084F185E02D0995181619060CF07E
:10080000FCC66DED72E0CE01CC960E94F20E2196F0
:100810000FAD219701506DE171E0CE0101960E946C
:10082000251C26E0AE014F5F5F4FBE01645C7F4F29
:100830008DED92E00E94D70D182FCE0101960E94F7
:10084000FD1B112321F08091F202811124C5219614
:100850000FAD2197015064E271E0CE0101960E9434
:10086000251C2CE0AE014F5F5F4FBE01645C7F4FE3
:100870008DED92E00E94D70D182FCE0101960E94B7
:10088000FD1B112369F1BE01645C7F4FCE01C09650
:100890000E940B1C6BE271E0CE0189960E94251C20
:1008A000BE01605D7F4FCE0189960E947E1BBE0116
:1008B000675D7F4FCE0101960E940B1CBE016F5FEA
:1008C0007F4F8DED92E00E94B925CE0101960E94E6
:1008D000FD1BCE0189960E94FD1BCE01C096A7C2CA
:1008E00064E371E0CE0101960E94251C02E228E13A
:1008F000AE014F5F5F4FBE01645C7F4F8DED92E0B4
:100900000E94D70D182FCE0101960E94FD1BBE013B
:10091000645C7F4FCE01112309F446C201960E9408
:100920000B1CCE0101960E94FC23982ECE0101964D
:100930000E94FD1BBE01645C7F4FCE0101960E94A8
:100940000B1CBE016F5F7F4F8091DD029091DE0234
:100950000E944C0CC82ECE0101960E94FD1B9110E6
:1009600026C0BE01645C7F4FCE0101960E940B1C25
:10097000BE016F5F7F4F8091DD029091DE020E9489
:10098000FE0B81110CC0C1100BC0E091DD02F09193
:10099000DE0211E08081882319F010E001C0182FD9
:1009A000CE0101960E94FD1B112309F49DC16DED3E
:1009B00072E0CE0101960E94F20EBE016F5F7F4F82
:1009C000CE01CC960E94C41BCE0101960E94FD1B55
:1009D000ACACBDACA114B10441F4E091DD02F091E6
:1009E000DE028081882371F03CC0D5018C91882380
:1009F000A1F3082E000C990B0E94753AF501819322
:100A00005F01F3CF91102DC066EA72E0CE0101962E
:100A10000E94021CBE016F5F7F4FCE01CC960E94E8
:100A2000921A182FCE0101960E94FD1B112309F482
:100A300000C222962EAD3FAD229744E050E0BE01A9
:100A4000645C7F4FCE0101960E943A1CBE016F5F2D
:100A50007F4FCE01CC960E94C41BCE0101960E940E
:100A6000FD1B6BE371E0CE0101960E94251CBE01C7
:100A70006F5F7F4FCE01CC960E94921A182FCE0145
:100A800001960E94FD1B1123D1F022962EAD3FADA1
:100A9000229741E050E0BE01645C7F4FCE01019699
:100AA0000E943A1CBE016F5F7F4FCE01CC960E9420
:100AB000C41BCE0101960E94FD1B11E001C010E095
:100AC000BE01645C7F4FCE01992009F402C1C69635
:100AD0000E940B1C81E08093F1020AAD015063E992
:100AE00072E0CE0101960E94021C26E0AE014F5F2B
:100AF0005F4FBE016A5C7F4F8DED92E00E94D70D83
:100B0000782ECE0101960E94FD1B772009F4CEC0FD
:100B10008091FA028E3411F40E948A21111110C0C2
:100B20006FE872E0CE0101960E94021C40E061E095
:100B3000CE0101960E94AD22CE0101960E94FD1BBE
:100B4000AEA8BFA80E948727811156C06DE371E04F
:100B5000C5010E941D354C016EE571E080E090E01A
:100B60000E941D355C016EE472E0CE0101960E9488
:100B70000D356CE372E0CE0101960E940235CE0184
:100B800001960E940428882309F457C06DE272E0A0
:100B9000CE0101960E940D3566E272E0CE0101960B
:100BA0000E940235B401CE0101960E94863A62E2AB
:100BB00072E0CE0101960E940235CE0101960E949C
:100BC00004288823D1F161E083E192E00E94A2240D
:100BD000882399F164E18DED92E00E94AC0D0CE068
:100BE000015059F162E38DED92E00E94AC0D0E943C
:100BF00087278823A9F302C0A12CB12C61E085E0EE
:100C000092E00E94A2248823C1F068EF71E0CE0137
:100C100001960E940D35B501CE0101960E94863ADB
:100C200064EF71E0CE0101960E94023561E0CE01D1
:100C300001960E940327811142C361E08DE792E093
:100C40000E94A224E091DD02F091DE021286198258
:100C5000BE016F5F7F4F84E893E00E94A21E1A825C
:100C60001982BE016F5F7F4F84E993E00E946F2875
:100C700001E00983BE016F5F7F4F80E993E00E942E
:100C8000A21E0093F102111113C06FE371E0CE01B7
:100C900001960E94251C40E061E0CE0101960E9471
:100CA000AD22CE0101960E94FD1B02C01092F102FE
:100CB000CE01C6960E94FD1B711070C0BE01645C1F
:100CC0007F4FCE0101960E940B1C2C2D412F61E01D
:100CD00006C001960E940B1C2C2D412F60E0CE0116
:100CE00001960E94391256C0BE01645C7F4FCE014E
:100CF00001960E940B1CBE016F5F7F4F8091DD0249
:100D00009091DE020E94530C182FCE0101960E9492
:100D1000FD1B112309F442C06DED72E0CE01019676
:100D20000E94F20EBE016F5F7F4FCE01CC960E94F3
:100D3000C41BCE0101960E94FD1B60EA72E0CE0149
:100D400001960E94021CBE016F5F7F4FCE01CC96C0
:100D50000E94921A182FCE0101960E94FD1B1123AA
:100D6000E9F0E091DD02F091DE0281E08483BF01D1
:100D70006C5F7F4F8CE590E00E94A21E6AE972E0F2
:100D8000CE0101960E94021C42E061E0CE01019674
:100D90000E94AD22CE0101960E94FD1B60E083E31C
:100DA00091E00E94A22445C089960E940B1C67E234
:100DB00071E0CE0101960E94021CBE016F5F7F4F61
:100DC000CE0189960E94CC1A182FCE0101960E945E
:100DD000FD1BCE0189960E94FD1B112321F081E0AD
:100DE0008093180326C0BE01645C7F4FCE018996B4
:100DF0000E940B1C65E171E0CE0101960E94021C6D
:100E0000BE016F5F7F4FCE0189960E94CC1A182FCA
:100E1000CE0101960E94FD1B112339F00E948A2108
:100E200060E087E091E00E94A224CE0189960E94B2
:100E3000FD1B909106038091FA029111FDC08E3442
:100E400019F0823509F083C19091FB029E3419F0AC
:100E5000993409F0DEC0BE01645C7F4FCE0101967B
:100E60000E940B1C62E471E0CE0101960E94AD1A53
:100E7000182FCE0101960E94FD1B112309F4B3C067
:100E800081E08093E902D092FA02F092FB02809115
:100E9000FC028F5F8093FC02853008F066C08130D1
:100EA00091F440E06BEF70E08DED92E00E94350F21
:100EB0008091160390911703DC01ED91FC9106805F
:100EC000F781E02D09956EE571E0CE01C0960E9494
:100ED000251C6DED72E0CE0101960E94F20EBE015E
:100EE0006F5F7F4FCE01C0960E94C41BCE0101965A
:100EF0000E94FD1B68E471E0CE0101960E94251C52
:100F000005E12BE0AE014F5F5F4FBE01605D7F4F9B
:100F10008DED92E00E94D70D182FCE0101960E9410
:100F2000FD1B1123B1F20E94891D6093ED027093A5
:100F3000EE028093EF029093F0028CA99DA90A978C
:100F400078F0CE01C0960E947D24882349F08091DC
:100F5000FC02823028F08091E102882309F420C34A
:100F6000CE01C0960E94FD1B06C08091E102811156
:100F700002C00E948A218091E102882309F437C1CE
:100F80000E94891D6093ED027093EE028093EF0240
:100F90009093F0021092E10281E08093FD02809133
:100FA000160390911703DC01ED91FC910680F78107
:100FB000E02D099541E067EF70E08DED92E00E9431
:100FC000350F8091160390911703DC01ED91FC9190
:100FD0000680F781E02D0995F092FA02F092FB026B
:100FE00041E06DE4AFC0BE01645C7F4FCE0101966D
:100FF0000E940B1CCE0101960E945122182FCE0197
:1010000001960E94FD1B112309F4F1C00E948A2160
:10101000EEC0893489F49091FB02993469F4BE01E1
:10102000645C7F4FCE0101960E940B1CCE0101969D
:101030000E945122182FB7C08E3419F0823509F062
:1010400089C01091FB021F3409F0D1C0BE01645C5D
:101050007F4FCE0101960E940B1CCE0101960E948B
:101060000222082FCE0101960E94FD1B023579F461
:101070000E94891D6093ED027093EE028093EF024F
:101080009093F0020093FA021093FB02B0C0BE01ED
:10109000645C7F4FCE0101960E940B1CCE0101962D
:1010A0000E945122182F811113C0BE01645C7F4F32
:1010B000CE0189960E940B1CCE0189960E940222C5
:1010C00011E0853409F010E0CE0189960E94FD1BE5
:1010D000CE0101960E94FD1B112369F0809105034A
:1010E00023968FAF23970E948A2123968FAD239753
:1010F0000E94CF237CC0BE01645C7F4FCE0101966D
:101100000E940B1CCE0101960E940222182FCE01D4
:1011100001960E94FD1B193409F069C00E94891DC7
:101120006093ED027093EE028093EF029093F002D1
:101130001093FA02E092FB0281E08093FD0241E00D
:10114000609105038DED92E00E947D0F50C08934BF
:1011500009F461CF893409F04AC08091FB028F34D1
:1011600009F045C0BE01645C7F4FCE0101960E942C
:101170000B1CCE0101960E945122182F811113C021
:10118000BE01645C7F4FCE0189960E940B1CCE018C
:1011900089960E94022211E0853409F010E0CE0108
:1011A00089960E94FD1BCE0101960E94FD1B111124
:1011B0002DCFCE01CC960E945B21BE01645C7F4F97
:1011C000882349F0CE0101960E940B1CCE010196A6
:1011D0000E941F1F08C0CE0101960E940B1CCE0169
:1011E00001960E946625CE0101960E94FD1BCE014C
:1011F000CC960E94FD1BF6CA10921903F6C981E035
:101200008093070348CA8091160390911703DC016D
:10121000ED91FC910680F781E02D099540E060ECAE
:1012200072E08DED92E00E94350F6091E8028DED45
:1012300092E023966FAF23970E94D10E23966FAD55
:10124000239780911603909117030E94801C40E021
:1012500063EB72E08DED92E00E94350F80910D03FB
:10126000823020F041E060EB72E003C041E06DEAC3
:1012700072E08DED92E00E94350F809116039091FF
:101280001703DC01ED91FC910680F781E02D0995B3
:101290001092E702A1CABE01645C7F4FCE010196A5
:1012A0000E940B1C40E061E0CE0101960E94AD223D
:1012B000CE0101960E94FD1B1092F202C8CA61E0A5
:1012C00087ED91E00E94A224882309F4B6CC61E066
:1012D00080EC91E00E94A224882309F4AECC60EB5C
:1012E00071E0CE0101960E940D3569EA71E0CE01F0
:1012F00001960E9402356AEB71E0CE0101960E94D0
:10130000023565EA71E0CE0101960E94023561E086
:10131000CE0101960E940327982E882309F48DCCD4
:101320006BE971E0CE0101960E940D3560E971E034
:10133000CE0101960E94023560E0CE0101960E9426
:101340000327E091DD02F091DE028285811177C0F2
:101350000E94891D1B012C0140E063E871E08DEDC6
:1013600092E00E94350F0E94891DDC01CB01821999
:101370009309A409B509803C944DA140B10508F03A
:101380005CCC8091160390911703DC01ED91FC91E8
:101390000084F185E02D0995892B29F360911603CE
:1013A00070911703CE0189960E9473260DA50150F6
:1013B00064E771E0CE0101960E94021C2EE0AE01AE
:1013C0004F5F5F4FBE01675D7F4F8DED92E00E94E2
:1013D000D70D082FCE0101960E94FD1BCE018996E4
:1013E000002351F10E94761AE091DD02F091DE02B5
:1013F00021E0228766837783808791872F01B6E07B
:101400004B0E511C88E8A82E83E0B82EF2016191A2
:101410002F01BA82A982CE0101960E94F40CFFEF3F
:10142000AF1ABF0A2CE8A21623E0B20679F7CE0164
:1014300089960E94FD1B03C00E94FD1B94CFE09182
:10144000DD02F091DE024AE0BE01675D7F4F8681DA
:1014500097810E94493564E671E0CE0101960E94B1
:101460000D35BE01675D7F4FCE0101960E94863A21
:1014700062E671E0CE0101960E9402350E94891D4C
:101480001B012C0140E068E471E08DED92E00E94C8
:10149000350F0E94891DDC01CB0182199309A40933
:1014A000B509803C944DA140B10508F0C6CB8091B0
:1014B000160390911703DC01ED91FC910084F185F6
:1014C000E02D0995892B29F360911603709117037C
:1014D000CE01C0960E947326BE016F5F7F4F88A920
:1014E00099A90E94913A892B41F4CE01C0960E949D
:1014F000FD1B992009F4A1CB05C0CE01C0960E9426
:10150000FD1BC7CF81E08093F102111110C06CE880
:1015100072E0CE0101960E94021C40E061E0CE0123
:1015200001960E94AD22CE0101960E94FD1B61E052
:101530008DE792E00E94A22460E080E792E00E94A2
:10154000A22460E089E692E00E94A22460E08DE59A
:1015500092E00E94A22481E08983BE016F5F7F4FE9
:1015600084E893E00E94A21E1A821982BE016F5F76
:101570007F4F84E993E00E946F281982BE016F5F5C
:101580007F4F80E993E00E94A21E64E68DED92E019
:101590000E94AC0D8DED92E00E94A410792C88CBB6
:1015A000BE01605D7F4FCE0189960E940B1CBE017B
:1015B000675D7F4FCE0101960E940B1CCE01019604
:1015C0000E94FC23182F81110DC0BE01675D7F4F63
:1015D0008091DD029091DE020E94840C11E08F3F29
:1015E00009F410E0CE0101960E94FD1B1093E10268
:1015F000CE0189960E94FD1BB3CCCE5BDF4F0FB6A8
:10160000F894DEBF0FBECDBFDF91CF911F910F9138
:10161000FF90EF90DF90CF90BF90AF909F908F9012
:101620007F905F904F903F902F90089581E080933E
:101630003E020895CF92DF92EF92FF92CF93DF9315
:10164000EC016C897D8980E090E00E94C2356B01DD
:101650007C018E89682F70E080E090E00E94C235A6
:101660009B01AC01C701B6010E94233620E030E0A7
:1016700048EC52E40E94AA370E941C387B8B6A8B8C
:10168000BE016E5E7F4F80EB90E00E94711E6C8900
:101690007D8980E090E00E94C2356B017C018F89DA
:1016A000682F70E080E090E00E94C2359B01AC01A1
:1016B000C701B6010E94233620E030E048EC52E436
:1016C0000E94AA370E941C38798B688BBE01605F2C
:1016D0007F4F8CEA90E0DF91CF91FF90EF90DF9009
:1016E000CF900C94711E0E94891D60931A03709311
:1016F0001B0380931C0390931D0381E080931903C7
:101700000895FB0184819581409770F0CB0160E0E2
:1017100070E00E94811A282F880F330B2053310963
:1017200081E02A30310508F080E00895CF93DF93FF
:101730002FEF260F233680F4EC016E8BBC016A5E1E
:101740007F4F84EB90E00E94A21E8E85882331F0AB
:10175000CE010E941A0B02C080E001C081E0DF913F
:10176000CF910895CF93DF93653680F0EC016F8BB6
:10177000BC01695E7F4F88EB90E00E94A21E8E85BF
:10178000882331F0CE010E941A0B02C080E001C014
:1017900081E0DF91CF910895CF93DF93EC016B87C8
:1017A000BC01655F7F4F80E090E00E94A21E8B85A8
:1017B000882311F061E001C060E082E1DF91CF9108
:1017C0000C941D1DCF93DF93EC01FB0180818823D6
:1017D00061F08181882319F04EE150E002C040E3BE
:1017E00051E0CE010E94372605C062EF72E0CE01C3
:1017F0000E94021CCE01DF91CF910895DF92EF92FB
:10180000FF920F931F93CF93DF9300D000D000D0AF
:10181000CDB7DEB7FC012081222361F17B018C0171
:1018200040E351E0BC01CE0101960E943726B7018A
:10183000CE0101960E94CC1AD82ECE0101960E94AC
:10184000FD1BD11019C0B701CE0101960E940B1CDF
:10185000F8018081882341F0BE016F5F7F4FC8018E
:101860000E94BA1E182F01C010E0CE0101960E94FE
:10187000FD1B03C010E001C011E0812F26960FB6BA
:10188000F894DEBF0FBECDBFDF91CF911F910F91B6
:10189000FF90EF90DF900895FC01208121110C94BE
:1018A000BA1E80E008950F931F93CF93DF9300D06B
:1018B00000D000D0CDB7DEB7FC0183818823B9F01A
:1018C0008B01BF0140E650E0CE0101960E94372611
:1018D000BE016F5F7F4FC8010E94CC1A11E08111D9
:1018E00001C010E0CE0101960E94FD1B01C010E076
:1018F000812F26960FB6F894DEBF0FBECDBFDF91C5
:10190000CF911F910F910895CF92DF92EF92FF92A6
:101910000F931F93CF93DF9300D000D000D0CDB7AB
:10192000DEB77C016B01FC018081811106C0F701EB
:101930008481882309F442C02FC0CE0101960E9401
:101940000B1CBE016F5F7F4FC7010E94FE0B182F5B
:10195000CE0101960E94FD1B111132C011E0F7016A
:101960008081181720F7FBE01F9FA0011124405D24
:101970005E4FB701CE0101960E943726B601CE0117
:1019800001960E94CC1A082FCE0101960E94FD1BE1
:10199000011118C01F5FE3CFB601CE0101960E946E
:1019A0000B1CBE016F5F7F4FC7010E94530C182FA5
:1019B000CE0101960E94FD1B111106C08FEF05C0DC
:1019C00080E003C0812F01C08EEF26960FB6F894F9
:1019D000DEBF0FBECDBFDF91CF911F910F91FF9062
:1019E000EF90DF90CF900895EF92FF920F931F93A7
:1019F000CF93DF931F92CDB7DEB77C01FC0100814E
:101A00001181C80169830E94E1366981681719F064
:101A1000C8010E94E936C7010F90DF91CF911F9155
:101A20000F91FF90EF900895CF93DF9300D0CDB743
:101A3000DEB7FC01658F8EE090E09A838983CE014A
:101A400001960E94F40C0F900F90DF91CF910895B2
:101A50000F931F93CF93DF93CDB7DEB72A970FB6BF
:101A6000F894DEBF0FBECDBF0DE01EE020E030E0F9
:101A7000AE014F5F5F4F6BEE72E00E9490268823AD
:101A8000A1F06DE371E0CE0101960E941D356EE577
:101A900071E080E090E00E941D350E94BD346AE054
:101AA00070E00E944B38CB0102C080E090E02A96A3
:101AB0000FB6F894DEBF0FBECDBFDF91CF911F915F
:101AC0000F9108950F931F93CF93DF9300D0CDB75D
:101AD000DEB78C01DC01D9968D919C91DA97DC01FF
:101AE000ED91FC910680F781E02D69837A83099559
:101AF00069817A81FB0101900020E9F73197E61BAB
:101B0000F70B389710F5F80117A6FB01019000209C
:101B1000E9F73197E61BF70BD801D096EC93C80193
:101B2000C1960E949A3A0E94891DF80166837783C4
:101B30008087918787A5E80FF11D81A9D8011B96A1
:101B40008C931B9781E01A968C930F900F90DF91E6
:101B5000CF911F910F9108958F929F92AF92BF9254
:101B6000CF92DF92EF92FF92C62E0E94891D4B0109
:101B70005C0184E6C89E600111240D2C000CEE0867
:101B8000FF080E94891DDC01CB0188199909AA0967
:101B9000BB098C159D05AE05BF0598F3FF90EF902E
:101BA000DF90CF90BF90AF909F908F900895EF926D
:101BB000FF920F931F93CF93DF9300D000D000D0FC
:101BC000CDB7DEB77B01122FBA01C7010E94921A6E
:101BD0008823A9F0202F30E0412F50E0B701CE013B
:101BE00001960E943A1CBE016F5F7F4FC7010E94A1
:101BF000C41BCE0101960E94FD1B81E001C080E064
:101C000026960FB6F894DEBF0FBECDBFDF91CF9101
:101C10001F910F91FF90EF9008958F929F92AF9236
:101C2000BF92CF92DF92EF92FF920F93CF93DF9309
:101C3000CDB7DEB72C970FB6F894DEBF0FBECDBF81
:101C40005C016B01FB01048101506DE371E0CE0189
:101C500007960E94251CF60184819581892B69F0E5
:101C6000808091806F817885C4010E94BE3A009780
:101C700021F07C01E818F90803C0EE24EA94FE2C58
:101C800061E571E0CE0101960E94251C21E02E0D38
:101C9000AE014F5F5F4FB601C5010E94D70D082FFF
:101CA000CE0101960E94FD1BCE0107960E94FD1BEE
:101CB000802F2C960FB6F894DEBF0FBECDBFDF91FC
:101CC000CF910F91FF90EF90DF90CF90BF90AF90AA
:101CD0009F908F900895CF92DF92EF92FF920F9393
:101CE000CF93DF9300D000D000D0CDB7DEB76C012A
:101CF0007B01FB010481035067E571E0CE01019691
:101D00000E94251C25E0AE014F5F5F4FB701C60161
:101D10000E94D70D082FCE0101960E94FD1B802F37
:101D200026960FB6F894DEBF0FBECDBFDF91CF91E0
:101D30000F91FF90EF90DF90CF900895CF92DF92B8
:101D4000EF92FF920F93CF93DF9300D000D000D09B
:101D5000CDB7DEB76C017B01FB010481015068ED5A
:101D600072E0CE0101960E94021C26E0AE014F5F98
:101D70005F4FB701C6010E94D70D082FCE01019613
:101D80000E94FD1B802F26960FB6F894DEBF0FBE73
:101D9000CDBFDF91CF910F91FF90EF90DF90CF906B
:101DA0000895CF93DF93EC018E89811112C061E019
:101DB00084E00E941D1D81E08E8B0E94891D698F29
:101DC0007A8F8B8F9C8F61E0CE01DF91CF910C9445
:101DD000AC0D0E94891D698F7A8F8B8F9C8FDF914C
:101DE000CF910895EF92FF920F931F93CF93DF93BC
:101DF00000D000D000D0CDB7DEB78C017B016EE5FE
:101E000071E00E94251CD701D9968D919C91DA979B
:101E1000DC01ED91FC910084F185E02D0995181607
:101E20001906ACF4C7010E94D10EF70161AD72AD85
:101E3000CE0101967C010E9473260E151F0521F02C
:101E4000B701C8010E94C41BC7010E94FD1BC80145
:101E500026960FB6F894DEBF0FBECDBFDF91CF91AF
:101E60001F910F91FF90EF900895FF920F931F9392
:101E7000CF93DF938C01EB01F42E0E94D10E2097BB
:101E8000C9F0FE0164912196662331F0F80181AD1D
:101E900092AD0E94801CF5CFFF2061F06CE571E0EF
:101EA000F80181AD92ADDF91CF911F910F91FF901D
:101EB0000C94871CDF91CF911F910F91FF90089593
:101EC000CF93DF93EC0189AD9AADDC01ED91FC91EC
:101ED0000680F781E02D099541E060EE72E0CE01C9
:101EE0000E94350F89AD9AADDC01ED91FC91068021
:101EF000F781E02DDF91CF910994EF92FF921F932C
:101F0000CF93DF931F92CDB7DEB77C01162FDC0194
:101F1000D9968D919C91DA97DC01ED91FC91068028
:101F2000F781E02D49830995C7010E94600F0E9447
:101F3000891DF701668377838087918781E0828797
:101F40004981442329F080AB17A611AB12AA10A730
:101F5000D7011B961C930F90DF91CF911F91FF909B
:101F6000EF900895FC01258D293419F441E00C947B
:101F70007D0F0895CF92DF92FF920F931F93CF931F
:101F8000DF93CDB7DEB762970FB6F894DEBF0FBE12
:101F9000CDBF8C0181E0D8011C968C93C8010E94B2
:101FA000D10EF80181AD92ADDC01ED91FC9106807E
:101FB000F781E02D09956FE571E0CE0107960E944B
:101FC000251CF801F1A0C080D180FF2051F16EE501
:101FD00071E0CE010D960E94251CD6018C91F81659
:101FE000B0F4BBE0FB9EA0011124405D5E4FB60142
:101FF000CE0101960E943726BE016F5F7F4FCE0152
:102000000D960E94C41BCE0101960E94FD1BBE01CD
:10201000635F7F4FCE0107960E947E1BCE010D9617
:102020000EC0B601CE0101960E94E20BBE016F5FA9
:102030007F4FCE0107960E947E1BCE0101960E9423
:10204000FD1B6BE3CE0107960E945C1BBE01695F1E
:102050007F4FCE0101960E940B1CBE016F5F7F4F28
:10206000C8010E94B925CE0101960E94FD1B61E0C6
:10207000C8010E94AC0D41E06FED72E0C8010E9402
:10208000350F0E94891DF801608B718B828B938BB9
:1020900082E5858F8FE4868FCE0107960E94FD1B17
:1020A00062960FB6F894DEBF0FBECDBFDF91CF9121
:1020B0001F910F91FF90DF90CF9008950F931F9382
:1020C000CF93DF93EC01E881F9818081811102C017
:1020D00011E034C0858D8E34D9F38BAD8823C1F3E4
:1020E0008AA1811103C098A5961791F39D8D9E3406
:1020F00021F59E8D9E3409F51AA51123F9F0811161
:102100001CC0062F19A28585882351F00E94891DC5
:102110006BA37CA38DA39EA30FA381E08AA30EC013
:1021200068A7858D8E34A1F281E089A7CE010E9437
:10213000D10ECE010E94BA0F01C010E0812FDF91B5
:10214000CF911F910F9108950C94003C089561E088
:1021500081E10C941D1D0F931F93CF93DF93EC012E
:1021600041110EC08A8981110BC0662301F16DE215
:102170008A819B81DF91CF911F910F910C94B20FB7
:10218000022F162F198E61E08DE00E941D1D0E9406
:10219000891D6FA378A789A79AA781E08EA31A8AC1
:1021A00060E080E10E941D1D1E87088B1D86DF9167
:1021B000CF911F910F910895FC01A081B1811C96D0
:1021C0008C919189882321F0992321F083890895A6
:1021D000892F089581E008951F93CF93DF93EC0139
:1021E000162F1C8A8B89882329F0CE010E94DC10CF
:1021F00081110FC08A819B81112331F06EE4DF9140
:10220000CF911F910C94B20F6EE40E945E108FABC1
:1022100025C08A8981111CC0F89460E08DE00E947D
:102220001D1D60E08CE00E941D1D0E94A7100E94F1
:10223000891D69A37AA38BA39CA381E08F8F8A8BCE
:1022400061E080E10E941D1D1C861D861F8706C05F
:10225000112321F06BE28A819B81D1CFDF91CF9155
:102260001F9108951F93CF93DF93EC011B891123D6
:1022700031F00E94DC10882311F081E00BC0CE0108
:102280000E94DC10882321F0111104C084E002C0F8
:1022900082E000C0DF91CF911F910895CF93DF932B
:1022A000FC012289211110C0EC010E94DC1088235E
:1022B00059F08B89882341F081E08C8B0E94891D25
:1022C0006D8B7E8B8F8B988FDF91CF9108951F93AD
:1022D000CF93DF93EC01162FE881F981838581117B
:1022E0000CC08A8981111BC08B898823C1F061E0F1
:1022F0008DE00E941D1D1C8A12C08EA181110FC08D
:102300008B89882361F060E08DE00E941D1D112300
:1023100031F0CE01DF91CF911F910C944E11DF91DE
:10232000CF911F910895EF92FF920F931F93CF9338
:10233000DF937B018A01E901F8948AE00E94F41C92
:1023400031E0892B09F430E0F70130838BE00E9403
:10235000F41C31E0892B09F030E0F801308383E090
:102360000E94F41C31E0892B09F430E03883789422
:10237000DF91CF911F910F91FF90EF9008950F93F0
:102380001F93CF93DF9300D01F92CDB7DEB78C01A0
:102390009E012F5F3F4FAE014E5F5F4FBE016D5FED
:1023A0007F4F0E9493119A81F801928B992311F02B
:1023B00061E001C060E080E10E941D1D8A810F90F4
:1023C0000F900F90DF91CF911F910F9108951F9261
:1023D0000F920FB60F9211248F939F9381E08093F9
:1023E000CA019091E1019F5F9093E1019091E10119
:1023F0009E3250F08093CC019091FE01911102C069
:102400008093CB011092E1019F918F910F900FBEAD
:102410000F901F9018951F920F920FB60F921124D4
:102420000F900FBE0F901F9018951F920F920FB62E
:102430000F9211248F9381E080933E028F910F9031
:102440000FBE0F901F9018951F920F920FB60F920C
:1024500011248F9381E080933F028F910F900FBEE4
:102460000F901F901895E0E6F0E098E1908380834C
:102470000895BF92CF92DF92EF92FF920F931F9336
:10248000CF93DF93CDB7DEB768970FB6F894DEBF72
:102490000FBECDBF7C01C62ED42EB22E6093F102AA
:1024A000BC01CE0143960E940B1C66E274E0CE0193
:1024B00001960E94021CBE016F5F7F4FC7010E9400
:1024C000921A182FCE0101960E94FD1B112331F0A4
:1024D00061E084E493E00E94A22434C66DE174E0DC
:1024E000CE0101960E94021CBE016F5F7F4FC701A3
:1024F0000E94921A182FCE0101960E94FD1B1123F3
:1025000011F1E090DD02F090DE02CC2019F0F7012D
:10251000108203C081E0F7018083B7018CE291E073
:102520000E94A21EF7011182B7016F5F7F4F8AE1FF
:1025300090E00E94A21EF7011282B7016E5F7F4FEA
:1025400086E190E0FDC565E174E0CE0101960E9450
:10255000021CBE016F5F7F4FC7010E94921A182FA5
:10256000CE0101960E94FD1B112309F46BC060E0AF
:102570008091DD029091DE020E94CC0B6DE780918C
:10258000DD029091DE020E94B20B6BE48091DD02CD
:102590009091DE020E94960BE091DD02F091DE0246
:1025A0001686BF01625F7F4F84EA90E00E94A21E00
:1025B000E091DD02F091DE021586BF01635F7F4F7F
:1025C0008AE390E00E94A21EE091DD02F091DE021B
:1025D0001486BF01645F7F4F86E390E00E94A21ED5
:1025E000E091DD02F091DE02148EBF01645E7F4F48
:1025F0008CE090E00E94A21E63E48091DD02909145
:10260000DE020E94140DE091DD02F091DE0282E311
:1026100090E0918F808FBF01685E7F4F84E090E0F3
:102620000E94711EE091DD02F091DE0282E090E0F6
:10263000938F828FBF01665E7F4F82E190E00E94A0
:10264000711E80C561E174E0CE0101960E94021CFA
:10265000BE016F5F7F4FC7010E94921A182FCE01F3
:1026600001960E94FD1B1123E9F1E090DD02F0903C
:10267000DE026EE571E0CE010D960E94251C10E091
:10268000F70180811817F0F4FBE01F9FA0011124CF
:10269000405D5E4FB701CE0101960E943726BE0114
:1026A0006F5F7F4FCE010D960E947E1BCE0101967B
:1026B0000E94FD1B6DE571E0CE010D960E946F1B1F
:1026C0001F5FDECF6EE571E0CE010D960E94AD1A60
:1026D000882309F44FC567E074E0CE010D960E948F
:1026E000851B48C561E074E0CE0101960E94021C82
:1026F000BE016F5F7F4FC7010E94921A182FCE0153
:1027000001960E94FD1B112329F08DED92E00E949D
:10271000A41059C56DEF73E0CE0101960E94021C12
:10272000BE016F5F7F4FC7010E94921A182FCE0122
:1027300001960E94FD1B112319F00E9496282FC5B7
:1027400066EF73E0CE0101960E94021CBE016F5F2E
:102750007F4FC7010E94921A182FCE0101960E9446
:10276000FD1B112311F061E014C06EEE73E0CE0189
:1027700001960E94021CBE016F5F7F4FC7010E943D
:10278000921A182FCE0101960E94FD1B112379F099
:1027900060E08091DD029091DE020E94CC0B61E04E
:1027A0008091DF029091E0020E946711CBC468EE35
:1027B00073E0CE0101960E94021CBE016F5F7F4F45
:1027C000C7010E94921A182FCE0101960E94FD1B8C
:1027D000112339F0E091DD02F091DE0281E084877F
:1027E00018C061EE73E0CE0101960E94021CBE018A
:1027F0006F5F7F4FC7010E94921A182FCE0101967A
:102800000E94FD1B112359F0E091DD02F091DE02E0
:102810001486BF01645F7F4F86E390E091C46BED47
:1028200073E0CE0101960E94021CBE016F5F7F4FD4
:10283000C7010E94921A182FCE0101960E94FD1B1B
:10284000112339F0E091DD02F091DE0281E0848F06
:1028500018C064ED73E0CE0101960E94021CBE0117
:102860006F5F7F4FC7010E94921A182FCE01019609
:102870000E94FD1B112359F0E091DD02F091DE0270
:10288000148EBF01645E7F4F8CE090E059C46FEC02
:1028900073E0CE0101960E94021CBE016F5F7F4F64
:1028A000C7010E94921A182FCE0101960E94FD1BAB
:1028B0001123E1F0F70184819581059708F483C421
:1028C00064E070E0C7010E94811A982F9D7F9134C7
:1028D00029F0843519F08E3409F075C4682F809181
:1028E000DD029091DE020E94140D2CC46AEC73E0AC
:1028F000CE0101960E94021CBE016F5F7F4FC7018F
:102900000E94921A182FCE0101960E94FD1BF7011A
:102910001123D9F084819581059708F454C464E0AB
:1029200070E0C7010E94811A90ED980F81538330A7
:1029300008F049C4E091DD02F091DE029787BF0103
:10294000615F7F4F8CEB90E0FBC30481015066EC2C
:1029500073E0CE0101960E94021C23E0AE014F5F9E
:102960005F4FB7018DED92E00E94D70D182FCE0179
:1029700001960E94FD1B1123A1F0C7010E947D2436
:10298000882309F420C4C7010E94761A6F367105A6
:1029900008F419C48091DD029091DE020E94B20B0E
:1029A000D1C3F7010481015061EC73E0CE010196BF
:1029B0000E94021C24E0AE014F5F5F4FB7018DED16
:1029C00092E00E94D70D182FCE0101960E94FD1BA8
:1029D0001123B9F0C7010E947D24882309F4F3C3B1
:1029E000C7010E94761A9B01215031092E3531050D
:1029F00008F0E9C38091DD029091DE020E94960BFF
:102A0000A1C366E671E0CE0101960E94251CBE01BD
:102A10006F5F7F4FC7010E94921A082FCE01019667
:102A20000E94FD1B002309F46FC064E871E0CE0131
:102A30000D960E94251C0E946026BC01CE010D96B9
:102A40000E94F3326CE671E0CE010D960E946F1B7E
:102A5000E091DD02F091DE0264897589CE010D9668
:102A60000E94F33260E771E0CE010D960E946F1B69
:102A7000E091DD02F091DE0260897189CE010D9650
:102A80000E94F33264E771E0CE010D960E946F1B45
:102A9000E091DD02F091DE0262897389CE010D962C
:102AA0000E94F33268E771E0CE010D960E946F1B21
:102AB000E091DD02F091DE026789CE010D960E9461
:102AC00023336DE771E0CE010D960E946F1BE091FC
:102AD000DD02F091DE026689CE010D960E9423335D
:102AE000BE01635F7F4FCE0101960E940B1C40E048
:102AF00061E0CE0101960E94AD22CE0101960E94B6
:102B0000FD1BCE010D96D5C26AEB73E0CE01019696
:102B10000E94021CBE016F5F7F4FC7010E94921A84
:102B2000082FCE0101960E94FD1B002309F49EC0D0
:102B30000BE61EE020E030E0AE014F5F5F4F63EB3D
:102B400073E08DED92E00E949026882341F0CE0143
:102B500001960E94BD34F82EFF0CF80E02C0FF242F
:102B6000FA9465E08DED92E00E94AC0D0DE01EE060
:102B700020E030E0AE014F5F5F4F6CEA73E08DED17
:102B800092E00E949026882351F06DE371E0CE011F
:102B900001960E941D350E94BD34182F01C01FEF01
:102BA000C090DF02D090E002C6010E943211082FCF
:102BB000F601E2886DE373E0CE010D960E94021CDF
:102BC000E091DD02F091DE028385811106C065E3AC
:102BD00073E0CE010D960E94851B62E871E0CE0184
:102BE0000D960E946F1B013029F0023031F065E232
:102BF00073E005C069E173E002C06BE273E0CE01EF
:102C00000D960E94FE1A6EE173E0CE010D960E94B1
:102C1000FE1AE11003C06EE073E002C064E173E0ED
:102C2000CE010D960E94FE1A1F3F59F067E073E037
:102C3000CE010D960E94FE1A612FCE010D960E94C4
:102C40002333FFEFFF1659F06DEF72E0CE010D96C2
:102C50000E94FE1A6F2DCE010D960E94233340E094
:102C600061E0CE010D960E94AD2295C267EA73E045
:102C7000CE0101960E94021CBE016F5F7F4FC7010B
:102C80000E94921A882329F0CC2011F011E001C093
:102C90001B2DCE0101960E94FD1B112359F0E091DE
:102CA000DD02F091DE028281882309F48CC281E08A
:102CB000818318C061EA73E0CE0101960E94021C74
:102CC000BE016F5F7F4FC7010E94921A182FCE017D
:102CD00001960E94FD1B112359F0E091DD02F09155
:102CE000DE021182BF016F5F7F4F8AE190E028C250
:102CF000F701048101506BE973E0CE0101960E9457
:102D0000021C25E0AE014F5F5F4FB7018DED92E0F1
:102D10000E94D70D182FCE0101960E94FD1B112392
:102D2000F1F0C7010E947D24882309F44CC2C70139
:102D30000E94761A8B016630710510F005E010E0F4
:102D4000E091DD02F091DE020587BF01635F7F4FF6
:102D50008AE390E00E94A21E65E973E07BC0F70160
:102D6000048101506CE873E0CE0101960E94021CC0
:102D700028E0AE014F5F5F4FB7018DED92E00E94FA
:102D8000D70D182FCE0101960E94FD1B112329F1AA
:102D9000C7010E947D24882309F415C2C7010E943F
:102DA000761A8B016230710530F0613B744028F077
:102DB00000EB14E002C002E010E0E091DD02F091CF
:102DC000DE02138F028FBF01665E7F4F82E190E0CB
:102DD0000E94711E63E873E03DC0F7010481015059
:102DE0006AE773E0CE0101960E94021C28E0AE0162
:102DF0004F5F5F4FB7018DED92E00E94D70D182F06
:102E0000CE0101960E94FD1B112371F1C7010E94A2
:102E10007D24882309F4D7C1C7010E94761A8B014B
:102E20006233710530F06138704728F000E810E730
:102E300002C002E310E0E091DD02F091DE02118FAA
:102E4000008FBF01685E7F4F84E090E00E94711E9A
:102E500061E773E0CE0143960E94851BB801CE0165
:102E600043960E94F3326EC1F701048101506DE672
:102E700073E0CE0101960E94021C23E0AE014F5F79
:102E80005F4FB7018DED92E00E94D70D182FCE0154
:102E900001960E94FD1B112319F161E673E0CE013A
:102EA0000D960E94021CB701CE010D960E947E1B5A
:102EB0006FE471E0CE010D960E946F1B81E080935C
:102EC000F202BE01635F7F4FCE0101960E940B1C90
:102ED000BE016F5F7F4F8DED92E00E94B92557C113
:102EE00067E871E0CE0101960E94251C0CE022E00B
:102EF000AE014F5F5F4FB7018DED92E00E94D70D9D
:102F0000182FCE0101960E94FD1B112309F447C022
:102F1000C7010E947D24882309F455C10091DD0278
:102F20001091DE02F8018081823008F44CC1B701B3
:102F3000C8010E94840CC82E8FEF8C0D8D3F08F0C5
:102F400042C18BE0B82E2C2D30E0F8019081492F42
:102F500050E04150510924173507F4F42F5F3F4FDB
:102F6000B29E7001B39EF00C1124A701405D5E4F2C
:102F7000B801CE0101960E943726B7016B5D7E4FE6
:102F8000AE014F5F5F4FC8010E94A232CE01019691
:102F90000E94FD1BC394D7CF9150908348C06BE82B
:102FA00071E0CE0101960E94251C0CE022E0AE01EA
:102FB0004F5F5F4FB7018DED92E00E94D70D182F44
:102FC000CE0101960E94FD1B1123A9F1C7010E94A9
:102FD0007D24882309F4F7C00091DD021091DE0200
:102FE000F80180818F3009F4EEC0B701C8010E945A
:102FF000840C8F3F09F0E7C0B701CE0101960E9413
:103000000B1CF8016081FBE06F9FB0011124605D33
:103010007E4FAE014F5F5F4FC8010E94A232CE01CA
:1030200001960E94FD1BF80180818F5F8083B801AB
:103030008CE291E085C06AE871E0CE0101960E94C1
:10304000251C0DE023E0AE014F5F5F4FB7018DED12
:1030500092E00E94D70D182FCE0101960E94FD1B11
:10306000112351F1C7010E947D24882309F4ABC0CC
:103070000091DD021091DE02F8018081882309F4BD
:10308000A2C081E08283B8016E5F7F4F86E190E04D
:103090000E94A21EB701CE0101960E940B1CAE0138
:1030A0004F5F5F4F6EE170E0C8010E94A232CE0117
:1030B00001960E94FD1B46C06EE871E0CE010196AC
:1030C0000E94251C0DE023E0AE014F5F5F4FB7016A
:1030D0008DED92E00E94D70D182FCE0101960E942F
:1030E000FD1B112309F46FC0C7010E947D248823B2
:1030F00009F469C00091DD021091DE0281E0F8015F
:103100008383B8016D5F7F4F88E590E00E94A21E27
:10311000B701CE0101960E940B1CAE014F5F5F4FBD
:1031200060E670E0C8010E94A232CE0101960E94C2
:10313000FD1BF8011482B8016C5F7F4F8CE590E0B5
:103140000E94A21E11E0D1102AC06BE573E0CE01EF
:103150000D960E94021C111106C062E573E0CE01BB
:103160000D960E94851BBE016D5E7F4FCE010D96B0
:103170000E947E1BBE01635F7F4FCE0101960E94BD
:103180000B1C40E061E0CE0101960E94AD22CE0111
:1031900001960E94FD1BCE010D960E94FD1BCE01E3
:1031A00043960E94FD1B68960FB6F894DEBF0FBED3
:1031B000CDBFDF91CF911F910F91FF90EF90DF90E6
:1031C000CF90BF90089510E0BECF0895CF92DF92C8
:1031D000EF92FF920F931F93CF93DF936C017A01CD
:1031E0008B01C0E0D0E0CE15DF0589F0D8016D91EC
:1031F0008D01D601ED91FC910190F081E02DC60189
:103200000995892B11F47E0102C02196ECCFC701EC
:10321000DF91CF911F910F91FF90EF90DF90CF90B2
:103220000895089580E090E00895FC01538D448D49
:10323000252F30E0842F90E0821B930B541710F061
:10324000CF96089501970895FC01918D828D98176E
:1032500061F0828DDF01A80FB11D5D968C91928D7A
:103260009F5F9F73928F90E008958FEF9FEF089577
:10327000FC01918D828D981731F0828DE80FF11D40
:10328000858D90E008958FEF9FEF0895FC01918D5B
:10329000228D892F90E0805C9F4F821B91098F7354
:1032A0009927089580E492E00E94461921E0892B35
:1032B00009F420E0822F0895FC01848DDF01A80F1E
:1032C000B11DA35ABF4F2C91848D90E001968F734E
:1032D0009927848FA689B7892C93A089B1898C916D
:1032E00080648C93938D848D981306C00288F38933
:1032F000E02D80818F7D80830895EF92FF920F9360
:103300001F93CF93DF93EC0181E0888F9B8D8C8D91
:10331000981305C0E889F989808185FD24C0F62EBF
:103320000B8D10E00F5F1F4F0F731127E02E8C8D58
:10333000E8120CC00FB607FCFACFE889F989808142
:1033400085FFF5CFCE010E945C19F1CF8B8DFE0178
:10335000E80FF11DE35AFF4FF0820B8FEA89FB89DA
:103360008081806207C0EE89FF896083E889F989DE
:1033700080818064808381E090E0DF91CF911F9114
:103380000F91FF90EF900895CF93DF93EC01888D1C
:103390008823C9F0EA89FB89808185FD05C0A88959
:1033A000B9898C9186FD0FC00FB607FCF5CF8081DF
:1033B00085FFF2CFA889B9898C9185FFEDCFCE0129
:1033C0000E945C19E7CFDF91CF91089580E090E0F3
:1033D000892B29F00E94521981110C940000089544
:1033E000833081F028F4813099F08230A1F0089583
:1033F0008730A9F08830B9F08430D1F48091800012
:103400008F7D03C0809180008F7780938000089526
:1034100084B58F7702C084B58F7D84BD0895809177
:10342000B0008F7703C08091B0008F7D8093B00093
:10343000089508950E94703ACF93DF93EC0188813C
:103440009981009711F00E940E39198218821D820D
:103450001C821B821A82DF91CF9108950F931F93D4
:10346000CF93DF93EC0188819981009729F02A811D
:103470003B812617370788F48B016F5F7F4F0E94CF
:10348000A639009761F0998388831B830A832C8176
:103490003D81232B11F4FC01108281E001C080E00A
:1034A000DF91CF911F910F910895EF92FF920F93AB
:1034B0001F93CF93DF93EC017B018A01BA010E9435
:1034C0002E1A811104C0CE010E941C1A07C01D8350
:1034D0000C83B701888199810E949A3ACE01DF91CD
:1034E000CF911F910F91FF90EF900895FC01808183
:1034F0009181009711F00C94DB3460E070E0CB0117
:103500000895FC01248135816217730748F4808196
:103510009181009729F0FC01E60FF71F8081089543
:1035200080E00895FB0144815581FC0124813581AF
:103530002417350778F080819181009759F0FB01BD
:10354000608171816115710529F00E94A13A21E025
:10355000892B09F020E0822F0895FC012481358118
:10356000232B31F421E061157105A1F0FB0108C0A6
:10357000FC01808191816115710531F421E0FC012C
:103580008081882339F005C00E94913A21E0892B7F
:1035900009F020E0822F0895FC0124813581FB0190
:1035A000448155812417350721F5FC0180819181E3
:1035B000FB0160817181009719F061157105A1F41B
:1035C0006115710549F0232BB1F0FB01808190E07A
:1035D0009195819591090AC0009769F0232B59F0C4
:1035E000FC01808190E002C00E94913A21E0892B89
:1035F00019F020E001C021E0822F0895EF92FF92A0
:103600000F931F93CF93DF936115710511F480E041
:103610001EC08B01EC01CB010E9414350097B1F064
:103620002C813D817C01E20EF31EB701CE010E9488
:103630002E1A882361F3288139818C819D81B801FC
:10364000820F931F0E940D35FD82EC8281E0DF9195
:10365000CF911F910F91FF90EF900895EF92FF92FD
:103660000F931F93CF93DF93FC0124813581611564
:10367000710511F480E019C041155105A9F07B01D5
:10368000EC018A01020F131FB8010E942E1A882331
:1036900089F3288139818C819D81B701820F931F25
:1036A0000E949A3A1D830C8381E0DF91CF911F9194
:1036B0000F91FF90EF900895CF93DF9300D0CDB797
:1036C000DEB769831A8241E050E0BE016F5F7F4F31
:1036D0000E942E1B0F900F90DF91CF9108956115DE
:1036E000710551F0FB0101900020E9F73197AF011E
:1036F000461B570B0C942E1B80E00895FB01448160
:103700005581608171810C942E1BEF92FF920F9373
:103710001F93CF93DF93EC018B016115710551F07D
:10372000CB010E9414357C01BC01CE010E942E1AEF
:10373000811104C0CE010E941C1A07C0FD82EC82D8
:10374000B801888199810E940D35CE01DF91CF911A
:103750001F910F91FF90EF900895CF93DF93EC01AD
:103760006115710559F0FB0101900020E9F73197CF
:10377000AF01461B570B0E94551A02C00E941C1A2B
:10378000CE01DF91CF9108950F931F93CF93DF93D5
:103790008C01EB01FC01808191810097B1F068817F
:1037A00079816115710579F0428153812C813D81C8
:1037B0004217530740F00E949A3A8C819D81F8018C
:1037C0009583848313C00E940E3988819981F80102
:1037D000918380838A819B81938382838C819D8165
:1037E00095838483198218821B821A821D821C820F
:1037F000DF91CF911F910F910895FC0180819181FC
:103800000C940E39FC0111821082138212821582EF
:1038100014820C94851BFB01DC0111961C921E92F4
:1038200013961C921E92129715961C921E92149734
:103830008617970749F0608171816115710521F044
:10384000448155810C94551A0895FC01118210820F
:1038500013821282158214826115710551F0FB01E9
:1038600001900020E9F73197AF01461B570B0C94EC
:10387000551A0895BF92CF92DF92EF92FF920F9365
:103880001F93CF93DF937C016B018A01E901241719
:10389000350720F4812F8901C42FD82F6EE571E000
:1038A000C7010E94251CD60114968D919C911597F5
:1038B00008171907D0F48C179D0708F4EC01D601FE
:1038C000ED91FC911197EC0FFD1FB08010824D918E
:1038D0005C91BA01600F711FC7010E94AD1BD60138
:1038E000ED91FC91EC0FFD1FB082C701DF91CF91EC
:1038F0001F910F91FF90EF90DF90CF90BF900895B0
:10390000DC01ED91FC910190F081E02D09946115AD
:10391000710579F0FB0101900020E9F73197AF01C3
:10392000461B570BDC01ED91FC910280F381E02DE9
:10393000099480E090E008951F920F920FB60F92C5
:1039400011242F933F934F935F936F937F938F93A4
:103950009F93AF93BF93EF93FF9380E492E00E9415
:103960005C19FF91EF91BF91AF919F918F917F91E2
:103970006F915F914F913F912F910F900FBE0F90DC
:103980001F9018951F920F920FB60F9211242F932C
:103990008F939F93EF93FF93E0915002F091510228
:1039A0008081E0915602F091570282FD12C0908111
:1039B000809159028F5F8F7320915A02821751F0C4
:1039C000E0915902F0E0E05CFD4F958F8093590241
:1039D00001C08081FF91EF919F918F912F910F9066
:1039E0000FBE0F901F901895CF93DF93282F30E0D4
:1039F000F901EF58FB4F8491F901E35AFB4FD49141
:103A0000F901E75BFB4FC491CC2391F081110E9437
:103A1000F019EC2FF0E0EE0FFF1FE15CFB4FA591DA
:103A2000B491EC91ED2381E090E021F480E002C0BC
:103A300080E090E0DF91CF9108951F93CF93DF93C3
:103A4000282F30E0F901EF58FB4F8491F901E35A38
:103A5000FB4FD491F901E75BFB4FC491CC23C9F034
:103A6000162F81110E94F019EC2FF0E0EE0FFF1FCE
:103A7000EB5CFB4FA591B4918FB7F894111105C081
:103A80009C91ED2FE095E92302C0EC91ED2BEC9396
:103A90008FBFDF91CF911F910895CF93DF9390E077
:103AA000FC01E35AFB4F2491FC01E75BFB4F84913F
:103AB000882361F190E0880F991FFC01E55DFB4FC1
:103AC000C591D491FC01EB5CFB4FA591B4916111C0
:103AD00009C09FB7F8948881209582238883EC9150
:103AE0002E230BC0623061F49FB7F8943881822F87
:103AF000809583238883EC912E2B2C939FBF06C047
:103B00008FB7F894E8812E2B28838FBFDF91CF9158
:103B100008952FB7F8946091E7017091E8018091C2
:103B2000E9019091EA012FBF08950F931F93CF935E
:103B3000DF93EC010E94891D688779878A879B87BC
:103B4000E881F9810284F385E02DCE01099597FF84
:103B500017C00E94891D088519852A853B85DC01CF
:103B6000CB01801B910BA20BB30B0C811D812E810D
:103B70003F8180179107A207B30710F38FEF9FEFE4
:103B8000DF91CF911F910F9108951F920F920FB661
:103B90000F9211242F933F938F939F93AF93BF93D3
:103BA0008091E7019091E801A091E901B091EA01CB
:103BB0003091E60126E0230F2D3720F40296A11D57
:103BC000B11D05C029E8230F0396A11DB11D209347
:103BD000E6018093E7019093E801A093E901B09397
:103BE000EA018091E2019091E301A091E401B0919A
:103BF000E5010196A11DB11D8093E2019093E301BF
:103C0000A093E401B093E501BF91AF919F918F9193
:103C10003F912F910F900FBE0F901F9018951F92FC
:103C20000F920FB60F9211242F933F934F935F93F0
:103C30006F937F938F939F93AF93BF93EF93FF9374
:103C4000E0910201F09103010995FF91EF91BF917D
:103C5000AF919F918F917F916F915F914F913F9124
:103C60002F910F900FBE0F901F9018951F920F92DB
:103C70000FB60F9211242F933F934F935F936F933F
:103C80007F938F939F93AF93BF93EF93FF93E091B5
:103C90000001F09101010995FF91EF91BF91AF9162
:103CA0009F918F917F916F915F914F913F912F9154
:103CB0000F900FBE0F901F9018950F931F93CF93E7
:103CC000DF938C01EB010E94E1368883C8010196E5
:103CD0000E94E1368983CE01DF91CF911F910F9130
:103CE0000895EF92FF920F931F93CF93DF9300D02D
:103CF000CDB7DEB78C017B01FB0160819A8389839C
:103D0000CE0101960E94F40CF70161810F5F1F4FF5
:103D10001A830983CE0101960E94F40CC7010F900B
:103D20000F90DF91CF911F910F91FF90EF90089529
:103D3000CF93DF93EB010E94E1368883CE01DF91C0
:103D4000CF9108950F931F93CF93DF9300D0CDB7FA
:103D5000DEB78B01FB0160819A838983CE010196D6
:103D60000E94F40CC8010F900F90DF91CF911F912A
:103D70000F9108950F931F93CF93DF9300D000D03E
:103D800000D0CDB7DEB7FC0182818823B9F08B016A
:103D9000BF014EE150E0CE0101960E943726BE01E0
:103DA0006F5F7F4FC8010E94CC1A11E0811101C0E2
:103DB00010E0CE0101960E94FD1B01C010E0812F92
:103DC00026960FB6F894DEBF0FBECDBFDF91CF9120
:103DD0001F910F910895CF92DF92EF92FF920F9370
:103DE0001F93CF93DF936C01EB01042F0E94E13608
:103DF000888311E08823C9F0101788F4E12EF12C94
:103E0000C7018C0D9D1D811524E0920740F40E948E
:103E1000E136FE01EE0DFF1D80831F5FEBCF112306
:103E200021F0C10FD11D2197188281E0DF91CF9140
:103E30001F910F91FF90EF90DF90CF9008952F92F8
:103E40003F924F925F926F927F928F929F92AF922A
:103E5000BF92CF92DF92EF92FF920F931F93CF9377
:103E6000DF93CDB7DEB728970FB6F894DEBF0FBE4D
:103E7000CDBF60E070E00E94811A813351F40E944E
:103E8000AA2561E08091DF029091E0020E94EC108F
:103E9000F9C1823361F40E94AA2520E040E061E08C
:103EA0008091DF029091E0020E94AB10EBC183335E
:103EB00071F50E94AA250091DF021091E002C8016D
:103EC0000E943211843011F48CE40EC0823011F45F
:103ED00081E40AC0813049F4C8010E94BF118823DF
:103EE00011F08BE201C08FE58983D801ED91FC913F
:103EF0008385882311F089E201C08BE58A831B82C8
:103F0000BE016F5F7F4FF80182819381D6C08033FD
:103F100009F043C08091EA028823D9F10091DF02C1
:103F20001091E002D80152968C915297882309F49F
:103F30009CC15F968C915F97811197C190968C91EF
:103F40009097811192C196968C9181118EC1C80172
:103F50000E94DC10882309F488C10E9460266C014D
:103F6000D801ED90FC90C29708F00DC1F7011686BC
:103F7000B701625F7F4F84EA90E00E94A21E69E56C
:103F8000D80112968D919C9113970E94B20F0E94B6
:103F9000AA2581E08093EA0275C1873309F097C0B2
:103FA0000E94AA250091DF021091E002D8015296EA
:103FB0008C91882309F484C00E9460263C01F8019A
:103FC000828193810E94280D4C01D801ED91FC91D2
:103FD000B784B1E0BB1649F0E2E0BE120DC0C12CBF
:103FE000D12CE12C20E4F22E0FC0C12CD12C90E872
:103FF000E92E9FE3F92E08C081E7C82E8DE3D82E65
:1040000082E3E82E80E4F82EB30180E090E00E9485
:10401000C2352B013C01B40180E090E00E94C23522
:104020009B01AC01C301B2010E94233620E030E0C5
:1040300040E256E40E94AA37A70196010E94233667
:104040006B017C0120E030E040E451E40E94BD358A
:1040500087FF19C0F1E0BF1216C0A701960160E00A
:1040600070E080E491E40E943D3726E933E44BE8B8
:104070005EE30E9423369B01AC01C701B6010E949A
:104080003E376B017C0120E030E040E05FE3C70198
:10409000B6010E943E370E941C38DC01CB014AE089
:1040A000BE016F5F7F4F0E949335BE016F5F7F4FF0
:1040B000D80112968D919C9113970E94620DE2C0D7
:1040C0006DE2F801828193810E94B20FDBC08434DB
:1040D000B1F461E08091DD029091DE020E94CC0B90
:1040E00061E08091DF029091E0020E94671160E040
:1040F0008091DF029091E0020E94EC1012C08334A4
:1041000099F460E08091DD029091DE020E94CC0B78
:1041100021E040E060E08091DF029091E0020E94A7
:10412000AB100E94E225AEC0883399F40E94AA2504
:1041300061E08091DD029091DE020E94CC0B61E093
:104140008091DF029091E0020E94671141E069E2F4
:1041500015C0893309F096C00E94AA2560E08091BD
:10416000DD029091DE020E94CC0B61E08091DF02C3
:104170009091E0020E94671141E06BE58DED92E0C5
:104180000E947D0F7FC0B60180E090E00E94C235A2
:104190002B013C01F701668970E080E090E00E940D
:1041A000C2359B01AC01C301B2010E94233620E05D
:1041B00030E048EC52E40E94AA370E941C384B01C0
:1041C0005C01D70157966C9170E080E090E00E940E
:1041D000C2359B01AC01C301B2010E94233620E02D
:1041E00030E048EC52E40E94AA370E941C382B01B0
:1041F0003C016F3F734020F4E0E48E16910410F40C
:1042000068E2BECEF701D58AC48AB7016C5E7F4FE3
:1042100088EA90E00E94711ED801ED91FC91938A8A
:10422000828ABF016E5E7F4F80EB90E00E94711E1C
:10423000D801ED91FC91518A408ABF01605F7F4FA8
:104240008CEA90E00E94711ED801ED91FC9181E012
:104250008687BF01625F7F4F84EA90E00E94A21EC2
:104260006BE4F8018281938190CED801ED91FC91AD
:104270001686BF01625F7F4F84EA90E00E94A21E13
:1042800069E5EFCF28960FB6F894DEBF0FBECDBF1D
:10429000DF91CF911F910F91FF90EF90DF90CF9022
:1042A000BF90AF909F908F907F906F905F904F9056
:1042B0003F902F900895EF92FF920F931F93CF930B
:1042C000DF9300D000D000D0CDB7DEB77C0162E92B
:1042D00071E0CE0101960E94251C08E027E0AE01A6
:1042E0004F5F5F4FB7018DED92E00E94D70D182F01
:1042F000CE0101960E94FD1B812F26960FB6F894E1
:10430000DEBF0FBECDBFDF91CF911F910F91FF9008
:10431000EF9008951092FC021092E902809116032A
:1043200090911703DC01ED91FC910680F781E02D5F
:10433000099541E061EF74E08DED92E00E94350F48
:104340000E94891D61E08DED92E00E94AC0D41E07C
:1043500060EF74E08DED92E00E94350F80911603BE
:1043600090911703DC01ED91FC910680F781E02D1F
:104370000995109206031092EA028091FA028E3497
:1043800011F0823549F58091FB028F3429F5809137
:10439000FE02811121C08091FD0281111DC0E091BA
:1043A000DD02F091DE02858D8435B1F480818230AA
:1043B00098F081E08093FE028093FF020E94891DA5
:1043C00060930003709301038093020390930303AF
:1043D00080910503809304031092FD028EE4809384
:1043E000FA028093FB021092E1020E94891D609301
:1043F00008037093090380930A0390930B031092B0
:1044000007030895FF920F931F93CF93DF9300D07C
:1044100000D000D0CDB7DEB78C0164EE74E0CE01E1
:1044200001960E94021CBE016F5F7F4FC8010E946F
:10443000921AF82ECE0101960E94FD1BFF20E1F09A
:104440002CE030E04BE050E0B801CE0101960E9434
:104450003A1C60E070E0CE0101960E94811A182F8C
:10446000CE0101960E94FD1B123341F0133341F03F
:10447000103341F0163341F08EE407C084E405C0E8
:1044800082E503C089E401C085E426960FB6F8945E
:10449000DEBF0FBECDBFDF91CF911F910F91FF9077
:1044A0000895FF920F931F93CF93DF9300D000D016
:1044B00000D0CDB7DEB78C0168ED74E0CE01019677
:1044C0000E94021CBE016F5F7F4FC8010E94CC1A80
:1044D000F82ECE0101960E94FD1BFF2011F091E005
:1044E0002FC062ED74E0CE0101960E94021CBE0155
:1044F0006F5F7F4FC8010E94CC1AF82ECE01019643
:104500000E94FD1BF110EBCF67EC74E0CE01019629
:104510000E94021CBE016F5F7F4FC8010E94CC1A2F
:10452000F82ECE0101960E94FD1BF110D8CF6AE94A
:1045300071E0C8010E94AD1A91E0811101C090E0C4
:10454000892F26960FB6F894DEBF0FBECDBFDF9140
:10455000CF911F910F91FF900895EF92FF920F93CB
:104560001F93CF93DF93CDB7DEB762970FB6F89462
:10457000DEBF0FBECDBF7C01062F142F81E08093DC
:10458000E9028091160390911703DC01ED91FC91F3
:104590000680F781E02D0995B701CE010D960E94A6
:1045A0000B1C011126C0809105038F34B1F034F447
:1045B000833499F0863409F0E1C00FC0833521F0CF
:1045C000853509F0DBC009C061EA71E0CE010D96C6
:1045D0000E94AD1B68EA71E008C061EA71E0CE019B
:1045E0000D960E94AD1B6BEA71E0CE010D960E9404
:1045F0006F1B6FEA71E0CE0107960E94251C1230F6
:10460000B1F46091DD027091DE02FB0183818823A9
:1046100039F040E650E0CE0101960E9437261AC0DC
:104620006EE571E0CE0101960E94251C13C08091B9
:10463000F102882339F06CEB74E0CE0107960E94FA
:10464000FE1A13C06091DD027091DE02CE01019668
:104650000E94E20BBE016F5F7F4FCE0107960E9462
:104660007E1BCE0101960E94FD1B6FE471E0CE011E
:1046700007960E946F1B8091160390911703DC012F
:10468000ED91FC910680F781E02D0995BE01695FEF
:104690007F4FCE0101960E940B1CBE016F5F7F4FC2
:1046A0008DED92E00E94B925CE0101960E94FD1B7E
:1046B0008091160390911703DC01ED91FC91068027
:1046C000F781E02D09956AE08DED92E00E94AC0D36
:1046D000BE01635F7F4FCE0101960E940B1CBE019D
:1046E0006F5F7F4F8DED92E00E94B925CE0101965C
:1046F0000E94FD1B8091160390911703DC01ED9140
:10470000FC910680F781E02D09956AE08DED92E03D
:104710000E94AC0D8091160390911703DC01ED917E
:10472000FC910680F781E02D09958DED92E00E94C5
:10473000D10E00911603109117036AE1C8010E947F
:10474000801C6CE571E0C8010E94871C80911603F3
:1047500090911703DC01ED91FC910680F781E02D2B
:1047600009956AE08DED92E00E94AC0D1092F10285
:104770001092E902CE0107960E94FD1BCE010D9614
:104780000E94FD1B62960FB6F894DEBF0FBECDBF30
:10479000DF91CF911F910F91FF90EF900895CF93EC
:1047A000DF9300D000D000D0CDB7DEB79091FD02EE
:1047B000911119C0E091DD02F091DE02958D9134E6
:1047C00091F4809305036EE571E0CE0101960E949D
:1047D000251C40E060E0CE0101960E94AD22CE0192
:1047E00001960E94FD1B26960FB6F894DEBF0FBE01
:1047F000CDBFDF91CF9108950F931F93CF93DF9398
:10480000CDB7DEB76E970FB6F894DEBF0FBECDBF43
:104810008C0161EB74E0CE0101960E94021CBE0186
:104820006F5F7F4FC8010E94CC1A81114DC066EAAC
:1048300074E0CE0107960E94021CBE01695F7F4FA3
:10484000C8010E94CC1A811141C06BE974E0CE010D
:104850000D960E94021CBE01635F7F4FC8010E943B
:10486000CC1A811135C060E974E0CE0143960E94F4
:10487000021CBE016D5E7F4FC8010E94CC1A8111DF
:1048800015C065E874E0CE0149960E94021CBE0185
:10489000675E7F4FC8010E94CC1A11E0811101C0F0
:1048A00010E0CE0149960E94FD1B01C011E0CE012F
:1048B00043960E94FD1BCE010D960E94FD1BCE016A
:1048C00007960E94FD1B09C080E004C081E002C081
:1048D00011E0F1CF11E08111F2CFCE0101960E94DB
:1048E000FD1B812F6E960FB6F894DEBF0FBECDBFB5
:1048F000DF91CF911F910F910895EF92FF920F9347
:104900001F93CF938C01FC01E480F580C0E06C2FF5
:1049100070E06E157F0568F4C8010E94811A282F87
:10492000880F330B205331092A30310520F4CF5F33
:10493000EECF81E001C080E0CF911F910F91FF90F9
:10494000EF9008958F929F92AF92BF92CF92DF9295
:10495000EF92FF921F93CF93DF9300D000D000D04F
:10496000CDB7DEB7162F40E0BC018DED92E00E947E
:10497000350F0E94891D4B015C01112339F090E62F
:10498000C92E9AEED92EE12CF12C15C088EBC82E39
:104990008BE0D82EE12CF12C0EC080911603909163
:1049A0001703DC01ED91FC910084F185E02D099560
:1049B0001816190674F00E94891DDC01CB018819B4
:1049C0009909AA09BB098C159D05AE05BF0528F3F9
:1049D00023C06DED72E0CE0101960E94F20E6CEBE9
:1049E00071E0CE0101960E94AD1A81110DC06AE9F5
:1049F00071E0CE0101960E94AD1A811107C0CE016F
:104A000001960E94FD1BD7CF11E001C010E0CE013E
:104A100001960E94FD1B01C010E0812F26960FB663
:104A2000F894DEBF0FBECDBFDF91CF911F91FF90F5
:104A3000EF90DF90CF90BF90AF909F908F900895B0
:104A4000FC01A089B18982E08C93A485B5851C9274
:104A5000A685B78583E38C93108EA489B58986E0FB
:104A60008C93A289B3898C9180618C93A289B3893C
:104A70008C9188608C93A289B3898C9180688C9387
:104A80000288F389E02D80818F7D80830895809155
:104A9000F202811119C09091FA029E34B1F4909102
:104AA000FB029E3491F490910703992371F0909149
:104AB000060391110AC09091E902911106C09091EC
:104AC000190381E08927089580E008951F93CF930B
:104AD000DF9300D000D000D0CDB7DEB72091E70241
:104AE00021112EC0BC01CE0101960E940B1C60EC6E
:104AF00071E0CE0101960E94AD1A182FCE010196E9
:104B00000E94FD1B1123E1F080910D038230C0F063
:104B1000E0910C032E2F30E090E001972817390721
:104B20004CF4EF5FE0930C03F0E0E352FD4F40E004
:104B300061A902C041E06DE48DED92E00E947D0F1D
:104B400026960FB6F894DEBF0FBECDBFDF91CF9192
:104B50001F9108958DED92E00E94600F0E94891DC3
:104B60006093ED027093EE028093EF029093F00257
:104B700008950F931F93CF93DF93EC018B010E9455
:104B8000D10E6EE571E0C8010E94AD1A09ACDAAD34
:104B9000C02D81110EC0E881F981D80114964D9184
:104BA0005C9115976D917C910280F381E02DCE018F
:104BB00009956CE571E0CE01DF91CF911F910F91C6
:104BC0000C94871C0F931F93CF93DF93CDB7DEB761
:104BD0002C970FB6F894DEBF0FBECDBF6DEF74E01B
:104BE000CE0107960E94021C61E4CE0107960E9446
:104BF0005C1B69EF74E0CE0107960E94FE1A0DED72
:104C000012E0D801D9968D919C91DA97DC01ED9153
:104C1000FC910680F781E02D0995BE01695F7F4F09
:104C2000CE0101960E940B1CBE016F5F7F4FC80131
:104C30000E94B925CE0101960E94FD1BF80181ADAD
:104C400092ADDC01ED91FC910680F781E02D099594
:104C5000CE0107960E94FD1B2C960FB6F894DEBF7E
:104C60000FBECDBFDF91CF911F910F9108950F938C
:104C70001F93CF93DF93CDB7DEB72B970FB6F89482
:104C8000DEBF0FBECDBF8C01CA014115544030F4C8
:104C90004BE0BE016F5F7F4F0E94EB1EBE016F5F56
:104CA0007F4FC8010E94251CC8012B960FB6F894AF
:104CB000DEBF0FBECDBFDF91CF911F910F91089541
:104CC00085E480937C0080917A00806480937A00F0
:104CD00080917A0086FDFCCF809178002091790048
:104CE00090E0922B08950F931F93CF93DF93EC01E5
:104CF0008B016EE571E00E94251CC8010E94951D84
:104D000097FD08C08A30910529F0682FCE010E94D6
:104D10005C1BF3CFCE01DF91CF911F910F910895CE
:104D20004F925F926F927F928F929F92AF92BF92BB
:104D3000CF92DF92EF92FF920F931F93CF93DF9367
:104D400000D000D000D0CDB7DEB77C014B015A01B6
:104D500068010E94891D2B013C0141E0B401C7019B
:104D60000E94350F0E94891DDC01CB018419950931
:104D7000A609B709803A9F40A105B10558F5D701AA
:104D8000D9968D919C91DA97DC01ED91FC9100848C
:104D9000F185E02D0995892B29F3B701CE01019604
:104DA0000E94F20EBE016F5F7F4FC701F6010995A9
:104DB000182F882351F069817A81C5010E949A3A9F
:104DC000CE0101960E94FD1B06C0CE0101960E94F5
:104DD000FD1BC8CF10E0812F26960FB6F894DEBFDA
:104DE0000FBECDBFDF91CF911F910F91FF90EF903C
:104DF000DF90CF90BF90AF909F908F907F906F90FB
:104E00005F904F9008958F929F92AF92BF92CF92F2
:104E1000DF92EF92FF921F93CF93DF9300D000D0E9
:104E200000D0CDB7DEB77C01162F8DED92E00E9449
:104E3000D10EB70180911603909117030E94871C31
:104E40000E94891D4B015C01112339F090E6C92EA7
:104E50009AEED92EE12CF12C15C088EBC82E8BE0F0
:104E6000D82EE12CF12C0EC08091160390911703DF
:104E7000DC01ED91FC910084F185E02D0995181677
:104E8000190674F00E94891DDC01CB01881999096B
:104E9000AA09BB098C159D05AE05BF0528F323C0E3
:104EA0006DED72E0CE0101960E94F20E6CEB71E0A6
:104EB000CE0101960E94AD1A81110DC06AE971E020
:104EC000CE0101960E94AD1A811107C0CE01019654
:104ED0000E94FD1BD7CF11E001C010E0CE0101966A
:104EE0000E94FD1B01C010E0812F26960FB6F8949A
:104EF000DEBF0FBECDBFDF91CF911F91FF90EF902E
:104F0000DF90CF90BF90AF909F908F900895CF92F9
:104F1000DF92EF92FF920F931F93CF93DF93CDB762
:104F2000DEB72C970FB6F894DEBF0FBECDBF40E0C2
:104F300061E175E08DED92E00E94350F0E94891DC0
:104F40006B017C010E94891DDC01CB018C199D093C
:104F5000AE09BF0988389341A105B10508F043C0E7
:104F60008091160390911703DC01ED91FC91008470
:104F7000F185E02D0995892B29F360911603709135
:104F80001703CE0107960E94732666E075E0CE01F6
:104F900001960E94021C0BE02AE0AE014F5F5F4FBA
:104FA000BE01695F7F4F8DED92E00E94D70D182FF3
:104FB000CE0101960E94FD1B112351F060E070E0CC
:104FC000CE0107960E94811A833339F0813331F084
:104FD000CE0107960E94FD1BB5CF10E0CE010796CB
:104FE0000E94FD1B01C010E0812F2C960FB6F89493
:104FF000DEBF0FBECDBFDF91CF911F910F91FF900C
:10500000EF90DF90CF900895CF92DF92EF92FF92D2
:105010001F93CF93DF9300D000D000D0CDB7DEB781
:105020007C018DED92E00E94D10EB70180911603B4
:10503000909117030E94871C0E94891D6B017C01BF
:105040000E94891DDC01CB018C199D09AE09BF09A5
:1050500088389341A105B10590F580911603909190
:105060001703DC01ED91FC910084F185E02D099599
:10507000892B31F36091160370911703CE010196CD
:105080000E9473266CEB71E0CE0101960E94AD1A6E
:1050900081110DC06AE971E0CE0101960E94AD1A3E
:1050A000811107C0CE0101960E94FD1BC9CF11E0FE
:1050B00001C010E0CE0101960E94FD1B01C010E06E
:1050C000812F26960FB6F894DEBF0FBECDBFDF91BD
:1050D000CF911F91FF90EF90DF90CF900895EF92C6
:1050E000FF920F931F93CF93DF9300D0CDB7DEB71E
:1050F0008C017B01FB0160819A838983CE0101963B
:105100000E94F40CF70161810F5F1F4F1A8309831E
:10511000CE0101960E94F40CC7010F900F90DF9111
:10512000CF911F910F91FF90EF900895CF92DF9252
:10513000EF92FF920F931F93CF93DF93CDB7DEB71C
:1051400067970FB6F894DEBF0FBECDBF81E08093A6
:10515000F10265E275E0CE010E960E94021C4AE063
:105160008E010F5F1F4FB8018BE990E00E94493517
:10517000F80101900020E9F73197AF01401B510B76
:10518000B801CE010E960E942E1B60E275E0CE01A2
:105190000E960E94FE1A6E0184E1C80ED11C88E4AE
:1051A000E82E83E0F82EC7010E94E136F6018193D4
:1051B0006F01FFEFEF1AFF0A8CE4E81683E0F806B0
:1051C00091F76C897D898E899F892AE0A8010E94C8
:1051D0007135F80101900020E9F73197AF01401BCC
:1051E000510BB801CE010E960E942E1B40E061E0EB
:1051F000CE010E960E94AD22CE010E960E94FD1B9E
:1052000067960FB6F894DEBF0FBECDBFDF91CF918A
:105210001F910F91FF90EF90DF90CF900895CF9363
:10522000DF93CDB7DEB7EF970FB6F894DEBF0FBEB2
:10523000CDBF789484B5826084BD84B5816084BD1F
:1052400085B5826085BD85B5816085BD80916E0024
:10525000816080936E001092810080918100826055
:105260008093810080918100816080938100809192
:1052700080008160809380008091B1008460809381
:10528000B1008091B00081608093B00080917A007D
:10529000846080937A0080917A00826080937A00A3
:1052A00080917A008E7F80937A0080917A00806866
:1052B00080937A001092C10084B762E089E00E9476
:1052C0004D1D61E088E00E944D1D9E012F5F3F4F04
:1052D0005901B90180EA90E00E94981E89818823D3
:1052E00011F060E001C061E088E00E941D1D61E3F3
:1052F00073E08AE390E00E94981E809131038F3F13
:1053000041F41092310361E373E08AE390E00E947C
:10531000A21E60E373E086E390E00E94981E8091F5
:1053200030038F3F41F41092300360E373E086E373
:1053300090E00E94A21E68E273E08CE590E00E947B
:10534000981E809128038F3F41F41092280368E251
:1053500073E08CE590E00E94A21E67E273E088E5AE
:1053600090E00E94981E809127038F3F41F4109295
:10537000270367E273E088E590E00E94A21E6FE2D7
:1053800073E080E090E00E94981E80912F038F3F91
:1053900029F460E084E293E00E94CC0B6CE373E0BC
:1053A00084E090E00E945D1E80913C0390913D035B
:1053B000019661F482E390E090933D0380933C0377
:1053C0006CE373E084E090E00E94711E60E473E09F
:1053D0008CE090E00E94981E809140038F3F41F442
:1053E0001092400360E473E08CE090E00E94A21E03
:1053F0008EE090E00E94E136809341038F3F29F4D4
:1054000064E584E293E00E94140D64E273E08CE2B0
:1054100091E00E94981E80912403803140F0109208
:10542000240364E273E08CE291E00E94A21E66E233
:1054300073E086E190E00E94981E809126038F3FE2
:1054400041F41092260366E273E086E190E00E9448
:10545000A21E65E273E08AE190E00E94981E8091AE
:1054600025038F3F41F41092250365E273E08AE142
:1054700090E00E94A21E69E273E080E293E00E9445
:10548000981E809129038F3F41F41092290369E20D
:1054900073E080E293E00E94A21E6EE373E082E17B
:1054A00090E00E945D1E80913E0390913F03019623
:1054B00061F482E090E090933F0380933E036EE3BB
:1054C00073E082E190E00E94711E62E373E084EA7F
:1054D00090E00E94981E809132038F3F41F4109219
:1054E000320362E373E084EA90E00E94A21E6AE362
:1054F00073E084EB90E00E94981E80913A038F3F06
:1055000029F46BE484E293E00E94960B6BE373E072
:1055100088EB90E00E94981E80913B038F3F29F416
:105520006DE784E293E00E94B20B63E373E08CEBDF
:1055300090E00E94981E809133038F3F49F481E0F0
:105540008093330363E373E08CEB90E00E94A21E30
:1055500068E373E088EA90E00E945D1E64E373E014
:105560008CEA90E00E945D1E66E373E080EB90E0C1
:105570000E945D1E84E293E09093DE028093DD0240
:105580008BEE91E09093E0028093DF0280E492E062
:105590000E9420258091680081608093680080913E
:1055A000680082608093680080916C0081608093C5
:1055B0006C0080916C00826080936C00F89480E0B5
:1055C0000E94331281E60E943312789461E081E1F7
:1055D0000E944D1D61E086E00E944D1D61E087E064
:1055E0000E944D1D61E085E00E944D1DFF24F39453
:1055F0006E0159E1C50ED11C16E1212E1BE0312EA2
:1056000003E7802E0BE0902E8091CC01882379F166
:105610008091E90281112BC080911903811127C06B
:105620008EE9482E8EE0582E5FAA4EAA19AE18AE0B
:105630000EA91FA928AD39ADA50168E670E08DED72
:1056400092E00E949026882309F424C5F501019078
:105650000020E9F73197EA19FB09349708F41AC5D5
:105660008C818B7F813309F015C51092CC0180911C
:10567000CB01882309F43FC00E9447258823D9F134
:105680008091E902811137C080911903811133C0E3
:105690000E94891D0091DD011091DE012091DF0142
:1056A0003091E001DC01CB01801B910BA20BB30B0D
:1056B000893E9340A105B105F0F08DED92E00E9486
:1056C000280D3C011091DC011F5F1093DC010E944A
:1056D000891D6093DD017093DE018093DF0190935B
:1056E000E0018CE6681681E0780608F4A4C6109202
:1056F000CB011092DC018091D701882319F10E941F
:10570000891D0091D8011091D9012091DA013091C1
:10571000DB01DC01CB01801B910BA20BB30B8131B0
:105720009742A105B10570F01092D7010E9447255C
:10573000882341F08DED92E00E94280D8C36914037
:1057400008F4AEC48091D601811143C18091D50186
:1057500081111BC00E94891D60347F418105910524
:10576000A0F08DED92E00E94280D8C36914008F457
:105770009CC461E088E00E941D1DF092D501198251
:10578000B50180EA90E00E94A21E8091D4018111AF
:1057900008C00E94891D683B7B408105910508F087
:1057A0008FC48091D501882321F10E94891D209109
:1057B000CD013091CE01DC01CB01821B930BA109FD
:1057C000B109853F9140A105B10598F08091040190
:1057D0008F2580930401882311F061E001C060E00F
:1057E00081E10E941D1D0E94891D7093CE0160936E
:1057F000CD010E94891D683A71468105910508F422
:1058000046C461E08DED90E00E94A224882309F453
:1058100074C060E081ED90E00E94A224882309F426
:105820006CC060E085EC90E00E94A224882309F41B
:1058300064C060E089EB90E00E94A224882309F410
:105840005CC060E085EA90E00E94A224882309F40D
:1058500054C060E088E990E00E94A22460E08CE8F7
:1058600090E00E94A22460E085E890E00E94A224DB
:10587000F092180360E089E790E00E94A22441E8DA
:105880005BE05BAB4AAB1DAA1CAA0AA91BA92CA909
:105890003DA9A60161E770E08DED92E00E9490269F
:1058A000882359F1E091DD02F091DE0285818111BA
:1058B0000FC40E9496280091DD021091DE02F801CB
:1058C000F582B8016B5F7F4F80E293E00E94A21ED9
:1058D000F60101900020E9F73197EC19FD09E9ABD9
:1058E000BE016F5C7F4F84E293E00E94A21EA6017E
:1058F00068E273E0C8010E944E33B5018CE893E082
:105900000E94981E198180911803882309F4FFC30F
:105910008FEF810F8E3F08F0FAC36FEE70E0C60183
:105920000E94021C123019F46AEE70E004C01330B9
:1059300029F462EE70E0C6010E94851BF092F1022C
:10594000B601CE0101960E940B1C40E061E0CE0141
:1059500001960E94AD22CE0101960E94FD1BC60158
:105960000E94FD1B1A821982B5018CE893E00E9407
:105970006F28F0923E0260E08BEE91E00E9467118A
:1059800080916B00846080936B0080916B008860D5
:1059900080936B0030920301209202018091690094
:1059A000837F846080936900E99A909201018092DC
:1059B0000001809169008C7F816080936900E89A82
:1059C000F092D6011092040160E081E10E941D1D59
:1059D0005EC380910A02811186C0809111028111FB
:1059E00082C08091FD01882309F47DC0E091EB0124
:1059F000F091EC018685882309F475C080910B0233
:105A0000811171C00E94891D0091EF011091F00178
:105A10002091F1013091F201DC01CB01801B910B4F
:105A2000A20BB30B843F9140A105B10508F45BC004
:105A30008091F7018823B1F00E94891D00910C022A
:105A400010910D0220910E0230910F02DC01CB016A
:105A5000801B910BA20BB30B81339547A105B105B8
:105A600008F0B9C30E94891D6093EF017093F001A3
:105A70008093F1019093F2010E9460264091F7011A
:105A8000E091EB01F091EC0124893589442309F47C
:105A900044C3220F331F2817390708F051C312E0FF
:105AA00020E536E48091F801811388C32BAF3AAF2B
:105AB0000E94891D4090F3015090F4016090F5011F
:105AC0007090F601AB01BC014419550966097709CC
:105AD0002BAD3AADC901A0E0B0E084179507A60749
