:100000000C9473020C94EF260C94C8260C943D14A7
:100010000C944C140C949B020C9411140C949B02A1
:100020000C949B020C949B020C949B020C949B02DC
:100030000C949B020C949B020C949B020C949B02CC
:100040000C947E260C949B020C947B250C945525D5
:100050000C949B020C949B020C949B020C949B02AC
:100060000C949B020C949B0241542B434349440043
:1000700041542B444445543D310D0A004154265708
:100080000D0A0041542B434C54533D310D0A00419D
:10009000542B4353434C4B3D310D0A0041542B43E9
:1000A0004E4D493D322C312C302C302C300D0A0075
:1000B00041542B434D47463D310D0A0041542B43DB
:1000C0004C43433D310D0A0041542B434C49503DB4
:1000D000310D0A004D4158434544440043455252B6
:1000E0000055504453554343004154410041542B63
:1000F000444445543D310D0A002B4350494E3A20AB
:100100004E4F542052454144590D0043616C6C20C0
:1001100052656164790D0041542B434D4744413D84
:100120002244454C20414C4C220D0A0041542B46A0
:10013000545050573D223132333435363738392216
:100140000D0A0041542B465450554E3D22726168B1
:10015000756C6E726174686F646B636C220D0A005B
:1001600041542B465450534552563D220041542B86
:100170004654504349443D310D0A002B46545053D8
:10018000495A453A20312C302C0041542B465450CA
:1001900053495A450D0A0041542B46545047455483
:1001A0000041542B53415042523D312C310D0A0035
:1001B00041504E222C220041542B53415042523D7B
:1001C000332C312C2200436F6E54797065222C221F
:1001D00047505253220D0A0041542B534150425272
:1001E0003D332C312C22004F4B203A2000524555F4
:1001F00050440050524753495A4500444300535518
:10020000500050524755504400564D52303200561F
:100210004D4D3031002A2A2A2A4D2B002E616D7255
:10022000222C302C3130302C310D0041542B4352D4
:1002300045433D342C22002B43434C4B3A20004194
:10024000542B435245433D350D0041542B43434C01
:100250004B3F0037303431313936393539000A4EA9
:100260006574776F726B3A000A426174253A002018
:100270004F46460A00204F4E0A00204F4E0A004DBE
:100280006F746F723A00204F46460A0020322050A9
:10029000484153450A004155544F4F464600415589
:1002A000544F4F4E004552524F52203A20004F4B70
:1002B000203A200041542B435553443D312C220019
:1002C00042414C004155544F54494D45004155540D
:1002D0004F54494D45005354415254494D450053E4
:1002E00054415254494D45005354414745005354DD
:1002F000414745004E4354494D450041542B43432B
:100300004C4B3D2231372F31302F33302C005345A9
:100310005454494D450054494D453A0047455454BD
:10032000494D45004E434F464600414D4F4646001D
:10033000414D4F4E0041542B4342430041542B4307
:1003400053510053544154555300524553500044A7
:100350004E444F464600444E444F4E004259504F83
:100360004646004259504F4E004155544F4F464665
:10037000004155544F4F4E004449440052455345A7
:1003800054004E6F204E756D626572004E554D00E3
:1003900044454641554C5400434C454152414C4C18
:1003A00000574149540039353836313335393738FB
:1003B0000037333833363232363738003733383354
:1003C000363134323134003736393834333932301B
:1003D000310037303431313936393539003730343E
:1003E00031313936393539004E4F20414E5357455A
:1003F000520D00425553590D004E4F204341525269
:100400004945520D002B434C43433A20312C302CAC
:100410000041542B4348555000222C320041542BAC
:100420005654533D220000000000240027002A00FB
:1004300000000000250028002B0000000000230021
:100440002600290004040404040404040202020235
:100450000202030303030303010204081020408087
:100460000102040810200102040810200000000806
:10047000000201000003040700000000000000006B
:100480002B53415042523A20312C0041542B5341BE
:100490005042523D302C310D0A0041542B434F50F5
:1004A000533D320D0A00415426570D0A0041542B8A
:1004B0004353434C4B3D300D0A0041542B434357AB
:1004C000413D302C300D0A0049443A0041542B4341
:1004D00046554E3D312C310D0A0041542B434243C9
:1004E000000021331D3311241FBECFEFD8E0DEBF43
:1004F000CDBF12E0A0E0B1E0E4E3F0E702C0059078
:100500000D92A630B107D9F723E0A6E0B2E001C012
:100510001D92A736B207E1F712E0C2E7D2E004C0AD
:100520002197FE010E94AC34C137D107C9F70E9460
:100530002E2A0C940D380C9433144F925F926F92C4
:100540007F928F929F92AF92BF92CF92DF92EF9263
:10055000FF920F931F93CF93DF93CDB7DEB7A5978D
:100560000FB6F894DEBF0FBECDBF8091360388234F
:10057000B1F00E9442260091370310913803209178
:10058000390330913A03DC01CB01801B910BA20BA4
:10059000B30B813D9740A105B10508F00EC68091CF
:1005A0001903882371F10E94422600911C031091C7
:1005B0001D0320911E0330911F03AB01BC01401BA2
:1005C000510B620B730B20911A0330911B03E4E66D
:1005D000E29FC001E39F900D1124A0E0B0E0481716
:1005E00059076A077B0768F0E0910503F09106035D
:1005F00081A1811106C060E084E00E94D62510929E
:100600001903809120038E3409F052C08091210398
:100610008E3409F09FC080912E03811116C00E9474
:10062000422600912F031091300320913103309125
:100630003203DC01CB01801B910BA20BB30B893E73
:100640009340A105B10508F0BBC58091250388231F
:1006500009F480C0E0910303F091040312898091B2
:100660002E03882309F476C080912403813009F495
:10067000ABC50E944226C0902603D0902703E0908D
:100680002803F09029039B01AC012C193D094E0968
:100690005F0969017A01212F30E0A0E6BAEE0E94DD
:1006A000FE376C157D058E059F0508F48DC552C07B
:1006B000893419F0823509F04DC00E94422600911C
:1006C0001303109114032091150330911603AB010D
:1006D000BC01401B510B620B730B20911103309135
:1006E0001203E4E6E29FC001E39F900D1124A0E015
:1006F000B0E0481759076A077B0740F080912B0349
:100700008DA30E94711D8DA10E94E11F80910E0397
:10071000882301F10E944226E091090300910A0317
:1007200010910B0320910C0330910D03AB01BC0120
:10073000401B510B620B730B34E6E39FC001112485
:10074000092E000CAA0BBB0B84179507A607B70749
:1007500008F454C58FE4C82E92E5B92E29E4D22EB0
:100760008091330390913403DC01ED91FC9104807E
:10077000F581E02D09951816190614F00C94060C55
:1007800063E073E0CE014F960E94CF100BA10150A1
:1007900060E271E0CE0101960E94EF2426E0AE01F6
:1007A0004F5F5F4FBE01615E7F4F83E093E00E9429
:1007B000B40F182FCE0101960E94D824112321F0E6
:1007C0008091180381117CC50BA1015067E271E093
:1007D000CE0101960E94EF242CE0AE014F5F5F4FE7
:1007E000BE01615E7F4F83E093E00E94B40FE82E6C
:1007F000CE0101960E94D824EE2071F1BE01615E07
:100800007F4FCE010D960E94E6246EE271E0CE018C
:1008100007960E94EF24BE01635F7F4FCE010796CB
:100820000E944224BE01695F7F4FCE0101960E9463
:10083000E62441E0BE016F5F7F4F83E093E00E94BA
:100840001211CE0101960E94D824CE0107960E9473
:10085000D824CE010D96BFC267E371E0CE010196A8
:100860000E94EF2402E228E1AE014F5F5F4FBE011C
:10087000615E7F4F83E093E00E94B40F982ECE011B
:1008800001960E94D824BE01615E7F4FCE0199205F
:1008900009F461C201960E94E624CE0101960E94ED
:1008A0000E20F82ECE0101960E94D824BE01615E72
:1008B0007F4FCE0101960E94E624BE016F5F7F4FFD
:1008C00080910303909104030E940F0EA82ECE0185
:1008D00001960E94D824F11027C0BE01615E7F4FAF
:1008E000CE0101960E94E624BE016F5F7F4F80918A
:1008F0000303909104030E94C00D182F81110DC0B5
:10090000A1100AC0E0910303F091040311E080817B
:10091000882319F010E001C0192DCE0101960E9424
:10092000D824112309F4AFC163E073E0CE0101962E
:100930000E94CF10BE016F5F7F4FCE014F960E9485
:100940009F24CE0101960E94D8240F8D18A1011575
:10095000110541F4E0910303F091040380818823A1
:1009600071F03AC0F80180818823A1F3082E000CB1
:10097000990B0E94B636D8018D938D01F3CFF110FB
:100980002BC065E172E0CE0101960E94DD24BE011C
:100990006F5F7F4FCE014F960E945323182FCE01D9
:1009A00001960E94D824112309F417C22BA13CA15F
:1009B00044E050E0BE01615E7F4FCE0101960E948F
:1009C0000425BE016F5F7F4FCE014F960E949F248A
:1009D000CE0101960E94D8246EE371E0CE0101960B
:1009E0000E94EF24BE016F5F7F4FCE014F960E94A1
:1009F0005323182FCE0101960E94D8241123C1F051
:100A00002BA13CA141E050E0BE01615E7F4FCE01D1
:100A100001960E940425BE016F5F7F4FCE014F9665
:100A20000E949F24CE0101960E94D82411E001C0AB
:100A300010E0BE01615E7F4FCE01FF2009F418C1B6
:100A400049960E94E62481E0809317030D8D0150A2
:100A500062E072E0CE0101960E94DD2426E0AE0144
:100A60004F5F5F4FBE01675E7F4F83E093E00E9460
:100A7000B40FF82ECE0101960E94D824FF2009F46D
:100A8000B0C0809120038E3411F40E94711D1111A9
:100A900010C06EEF71E0CE0101960E94DD2440E0AF
:100AA00061E0CE0101960E94B91ECE0101960E941E
:100AB000D824898C9A8C8114910429F40E944F289F
:100AC000811112C40DC0F40180818823B9F3082E6E
:100AD000000C990B0E94AE36D4018D934D01F3CFDB
:100AE00060E471E0CE010D960E94EF2468ED71E0A4
:100AF000CE0107960E94DD2466EC71E0CE010796D8
:100B00000E94BF23BE01695F7F4FCE0101960E9404
:100B1000E624CE0101960E94D728082FCE01019627
:100B20000E94D824011102C000E042C067EB71E0CE
:100B3000CE0107960E94492460EB71E0CE01079632
:100B40000E94BF23BE01635F7F4FCE0107960E94C4
:100B500042246CE571E0CE0107960E943324BE0169
:100B6000695F7F4FCE0101960E94E624CE01019677
:100B70000E94D728082FCE0101960E94D824002376
:100B800099F261EA71E0CE0101960E94DD2461E0F4
:100B9000CE0101960E94B420082FCE0101960E943A
:100BA000D824002309F264E183E093E00E94890FD6
:100BB000CE0107960E94D824CE010D960E94D8241B
:100BC000002309F487C50CE0015009F483C562E3F2
:100BD00083E093E00E94890F0E944F288823A1F3AD
:100BE00083C30D8D015063EF71E0CE0101960E9429
:100BF000DD2427E0AE014F5F5F4FBE01675E7F4F90
:100C000083E093E00E94B40F082FCE0101960E946A
:100C1000D824011195C50D8D01506DEE71E0CE0106
:100C200001960E94DD2425E0AE014F5F5F4FBE01BB
:100C3000675E7F4F83E093E00E94B40FF82ECE01F1
:100C400001960E94D824F1107DC510921703CE01A1
:100C500049960E94D824F11070C0BE01615E7F4F9A
:100C6000CE0101960E94E6242A2D412F61E006C0A4
:100C700001960E94E6242A2D412F60E0CE010196C4
:100C80000E94611456C0BE01615E7F4FCE01019685
:100C90000E94E624BE016F5F7F4F80910303909115
:100CA00004030E94160E182FCE0101960E94D8242C
:100CB000112309F442C063E073E0CE0101960E9463
:100CC000CF10BE016F5F7F4FCE014F960E949F24D1
:100CD000CE0101960E94D8246FE072E0CE01019609
:100CE0000E94DD24BE016F5F7F4FCE014F960E94B0
:100CF0005323182FCE0101960E94D8241123E9F026
:100D0000E0910303F091040381E08483BF016C5FF1
:100D10007F4F8CE590E00E945B2769E072E0CE0196
:100D200001960E94DD2442E061E0CE0101960E941E
:100D3000B91ECE0101960E94D82467E171E0CE0170
:100D400001960E94DD2460E0CE0101960E94B4204D
:100D5000CE01019640C007960E94E6246BE071E048
:100D6000CE0101960E94DD24BE016F5F7F4FCE0150
:100D700007960E948D23182FCE0101960E94D82439
:100D8000CE0107960E94D824112321F081E08093A0
:100D9000350323C0BE01615E7F4FCE0107960E94DE
:100DA000E62469EF70E0CE0101960E94DD24BE01C9
:100DB0006F5F7F4FCE0107960E948D23182FCE01C3
:100DC00001960E94D824112321F00E94711D0E94D7
:100DD0004729CE0107960E94D82490912C03809138
:100DE0002003911119C18E3419F0823509F09AC18E
:100DF000909121039E3419F0993409F0FAC0BE0194
:100E0000615E7F4FCE0101960E94E62463E671E0A9
:100E1000CE0101960E946E23182FCE0101960E94EA
:100E2000D824112309F4CFC081E080931003B0923D
:100E30002003D0922103809122038F5F80932203AD
:100E4000853008F071C08130E9F46DEE70E0CE01BC
:100E500001960E94DD2440E0BE016F5F7F4F83E07A
:100E600093E00E941211CE0101960E94D824809135
:100E7000330390913403DC01ED91FC910284F385FE
:100E8000E02D09956FE571E0CE010D960E94EF24EB
:100E900063E073E0CE0101960E94CF10BE016F5F48
:100EA0007F4FCE010D960E949F24CE0101960E9495
:100EB000D82469E671E0CE0101960E94EF2405E195
:100EC0002BE0AE014F5F5F4FBE01635F7F4F83E05A
:100ED00093E00E94B40F182FCE0101960E94D824EF
:100EE0001123B1F20E9442266093130370931403FE
:100EF000809315039093160389899A890A9778F04D
:100F0000CE010D960E948F20882349F08091220304
:100F1000823028F080910703882309F44AC4CE0167
:100F20000D960E94D82406C080910703811102C04B
:100F30000E94711D80910703882309F439C10E9422
:100F400042266093130370931403809315039093C8
:100F500016031092070381E08093230380913303EB
:100F600090913403DC01ED91FC910284F385E02D36
:100F7000099569EE70E0CE0101960E94DD2441E002
:100F8000BE016F5F7F4F83E093E00E941211CE019C
:100F900001960E94D8248091330390913403DC01A0
:100FA000ED91FC910284F385E02D0995D092200308
:100FB000D092210361E080910303909104030E9489
:100FC0001D0D6DE4AAC0BE01615E7F4FCE0101968A
:100FD0000E94E624CE0101960E945D1E182FCE01CC
:100FE00001960E94D824112309F4E2C00E94711DC9
:100FF000DFC0893489F490912103993469F4BE01EA
:10100000615E7F4FCE0101960E94E624CE010196DB
:101010000E945D1E182FB1C08E3419F0823509F080
:1010200084C0109121031F3409F0C2C0BE01615E6B
:101030007F4FCE0101960E94E624CE0101960E94C8
:101040000E1E082FCE0101960E94D824023579F495
:101050000E94422660931303709314038093150338
:10106000909316030093200310932103A1C0BE01A7
:10107000615E7F4FCE0101960E94E624CE0101966B
:101080000E945D1E182F811113C0BE01615E7F4F4B
:10109000CE0107960E94E624CE0107960E940E1EFE
:1010A00011E0853409F010E0CE0107960E94D824A3
:1010B000CE0101960E94D824112349F080912B0380
:1010C0008DA30E94711D8DA10E94E11F71C0BE0100
:1010D000615E7F4FCE0101960E94E624CE0101960B
:1010E0000E940E1E182FCE0101960E94D82419349A
:1010F00009F05EC00E9442266093130370931403AC
:10110000809315039093160310932003C09221033C
:1011100081E08093230360912B0383E093E00E949E
:10112000671C46C0893409F466CF893409F040C091
:10113000809121038F34E1F5BE01615E7F4FCE01C6
:1011400001960E94E624CE0101960E945D1E182F92
:10115000811113C0BE01615E7F4FCE0107960E94D0
:10116000E624CE0107960E940E1E11E0853409F098
:1011700010E0CE0107960E94D824CE0101960E946D
:10118000D824111133CFCE014F960E94421D8823DF
:1011900079F0BE01615E7F4FCE0101960E94E62488
:1011A000CE0101960E94861CCE0101960E94D82491
:1011B000CE014F960E94D824D3CA10923603EFC9AD
:1011C00081E080932E0341CA80912A0380932B03F0
:1011D00010922503E0910303F0910403808D8E3477
:1011E00009F4B8CA81E080932C0383E093E00E9465
:1011F000AE1083E093E00E947E11ACCA809133036D
:1012000090913403DC01ED91FC910284F385E02D93
:1012100009956BE272E0CE0101960E94DD2440E068
:10122000BE016F5F7F4F83E093E00E941211CE01F9
:1012300001960E94D82462E771E0CE0101960E94D7
:10124000EF2440E0BE016F5F7F4F83E093E00E9498
:101250001211CE0101960E94D82460910F0383E001
:1012600093E06DA30E94AE108091330390913403FC
:10127000DC01ED91FC910190F081E02D6DA10995CB
:101280006CE172E0CE0101960E94DD2441E0BE01D6
:101290006F5F7F4F83E093E00E941211CE010196B1
:1012A0000E94D8248091330390913403DC01ED91A6
:1012B000FC910284F385E02D099510920E034ACA31
:1012C000BE01615E7F4FCE0101960E94E62440E0A0
:1012D00061E0CE0101960E94B91ECE0101960E94E6
:1012E000D8241092180370CABE01675E7F4FCE01EA
:1012F0000D960E94E6246DE671E0CE0101960E94F3
:10130000DD2461E0CE0101960E94B420082FCE01B9
:1013100001960E94D824002309F454C060E671E0CD
:10132000CE0107960E94DD24BE01635F7F4FCE0190
:1013300007960E9442246CE571E0CE0107960E9458
:101340003324BE01695F7F4FCE0101960E94E624DF
:1013500061E0CE0101960E94B420082FCE010196D3
:101360000E94D824002349F163E471E0CE01019684
:101370000E94DD2461E0CE0101960E94B420082F76
:10138000CE0101960E94D8240023B9F06CE271E0EE
:10139000CE0101960E94DD2461E0CE0101960E94FB
:1013A000B420082FCE0101960E94D824002329F0F2
:1013B000CE0107960E94D82405C0CE0107960E9450
:1013C000D82400E0CE010D960E94D824002309F411
:1013D00081C168E471E0CE0143960E94EF2467E981
:1013E00071E0CE010D960E94DD24BE01635F7F4F48
:1013F000CE0107960E94E6246EE471E0CE010796C6
:101400000E943324BE016D5E7F4FCE0107960E947D
:1014100042246CE571E0CE0107960E943324BE01A0
:10142000695F7F4FCE0101960E94E62461E0CE0104
:1014300001960E94B420982ECE0101960E94D824D5
:101440009920E9F0BE01635F7F4FCE0107960E94AD
:10145000882465E571E0CE0107960E943324BE0121
:10146000695F7F4FCE0101960E94E62460E0CE01C5
:1014700001960E94B420CE0101960E94D824CE018C
:1014800007960E94D824CE010D960E94D824CE0142
:1014900043960E94D824992009F41CC1E0910303CB
:1014A000F09104038285811164C00E9442262B01C1
:1014B0003C016AE871E0CE0101960E94DD2440E023
:1014C000BE016F5F7F4F83E093E00E941211CE0157
:1014D00001960E94D8240E944226DC01CB01841987
:1014E0009509A609B709803C944DA140B10508F0C3
:1014F000F1C08091330390913403DC01ED91FC91B4
:101500000480F581E02D0995892B29F3609133033F
:1015100070913403CE0107960E94D71B0B850150B2
:101520006BE771E0CE0101960E94DD242EE0AE0152
:101530004F5F5F4FBE01695F7F4F83E093E00E9482
:10154000B40F082FCE0101960E94D824CE01079631
:10155000002309F4BECF0E94E922AB01BC018091B7
:101560000303909104030E94ED0ECE0107960E94A2
:10157000D824E0910303F0910403468057806084EF
:1015800071846FE771E0CE0143960E94EF24BE01A3
:101590006D5E7F4FCE010D960E94E6246BE871E0F0
:1015A000CE010D960E943324B301A201CE010D9607
:1015B0000E94EF2367E671E0CE010D960E9433246E
:1015C00060E971E0CE0107960E94EF24BE016D5ED6
:1015D0007F4FCE0107960E94422463E971E0CE015D
:1015E00007960E9433240E9442262B013C01BE0133
:1015F000695F7F4FCE0101960E94E62440E0BE0164
:101600006F5F7F4F83E093E00E941211CE0101963D
:101610000E94D8240E944226DC01CB01841995093E
:10162000A609B709803C944DA140B10550F58091C1
:10163000330390913403DC01ED91FC910480F5813A
:10164000E02D0995892B31F36091330370913403B8
:10165000CE0101960E94D71BBE016F5F7F4FCE0166
:1016600007960E949F24CE0101960E94D824BE01B5
:10167000635F7F4FCE0107960E948D23882351F22E
:10168000E92CCE0107960E94D824CE010D960E9427
:10169000D824CE0143960E94D824EE20D9F081E0D0
:1016A00080931703111110C06BEF71E0CE0101960A
:1016B0000E94DD2440E061E0CE0101960E94B91E47
:1016C000CE0101960E94D8240E942C280E94CC278B
:1016D000FE2CBDCA0E942C28E0910303F091040364
:1016E00012861982BE016F5F7F4F84E893E00E94EB
:1016F0005B271A821982BE016F5F7F4F84E993E0F6
:101700000E94A52701E00983BE016F5F7F4F80E93A
:1017100093E00E945B2700931703111198CA60E6BB
:1017200071E0CE0101960E94EF2440E061E0CE011D
:1017300001960E94B91ECE0101960E94D82487CA44
:1017400001E001C002E0CE0149960E94E922AB010E
:10175000BC0180910303909104030E94ED0E67EE9B
:1017600071E0CE0107960E94DD24BE01675E7F4FC7
:10177000CE0107960E944224111111C0BE01695F7B
:101780007F4FCE0101960E94E62440E061E0CE0149
:1017900001960E94B91ECE0101960E94D824023003
:1017A00011F40E94CC27CE0107960E94D824F92C70
:1017B0004ECABE01635F7F4FCE0107960E94E624AA
:1017C000BE01695F7F4FCE0101960E94E624CE01E3
:1017D00001960E940E20182F81110DC0BE01695F75
:1017E0007F4F80910303909104030E94480E11E003
:1017F0008F3F09F410E0CE0101960E94D824109387
:101800000703CE0107960E94D82489CBA5960FB670
:10181000F894DEBF0FBECDBFDF91CF911F910F9126
:10182000FF90EF90DF90CF90BF90AF909F908F9000
:101830007F906F905F904F90089581E08093640255
:1018400008950E944226E3E0F3E064AB75AB86ABFB
:1018500097AB81E083AB0895FB018481958140972C
:1018600070F0CB0160E070E00E944223282F880FC7
:10187000330B2053310981E02A30310508F080E034
:1018800008956F927F928F929F92AF92BF92CF9264
:10189000DF92EF92FF920F931F93CF93DF93CDB719
:1018A000DEB76C013A01ADB6BEB6822F90E001966C
:1018B0004DB75EB7481B590B0FB6F8945EBF0FBE0D
:1018C0004DBF8DB79EB701964C01611494E0790627
:1018D00050F5FF24F394F20E31F1E1E0FE1202C064
:1018E000F40120C0C3010E94B137F4018083EE24CB
:1018F000E3948823C1F00E2D10E0EF1478F4C801B2
:10190000860D971D8115F4E09F0740F40E94B137C2
:10191000F401E00FF11F8083E394EBCF080D191D54
:10192000F80131971082B401C6010E94EF24C6016C
:101930000FB6F894BEBE0FBEADBEDF91CF911F9122
:101940000F91FF90EF90DF90CF90BF90AF909F905E
:101950008F907F906F9008958F929F92AF92BF92D9
:10196000CF92DF92EF92FF920F931F93CF93DF936B
:10197000CDB7DEB76B01ADB6BEB6FA01E480F58037
:10198000C70101962DB73EB7281B390B0FB6F89447
:101990003EBF0FBE2DBF0DB71EB70F5F1F4F892B68
:1019A00099F00115110581F0E114F10411F4F80129
:1019B0000AC0FA0160817181A701C8010E94E53661
:1019C000F801EE0DFF1D1082F80101900020E9F7EB
:1019D0003197E01BF10BC11424E0D206D8F4FF24A8
:1019E000F394FE0EC6018F0D911D8115944090F465
:1019F0004801C01AD10A882D801B8F1548F4C601F2
:101A0000880D991DF40161914F010E94B937F3CF00
:101A100081E001C080E00FB6F894BEBE0FBEADBE3F
:101A2000DF91CF911F910F91FF90EF90DF90CF90BA
:101A3000BF90AF909F908F900895CF93DF93EC016C
:101A4000662311F0188202C081E08883BE018CE217
:101A500091E00E945B271982BE016F5F7F4F8AE190
:101A600090E00E945B271A82BE016E5F7F4F86E185
:101A700090E0DF91CF910C945B27FC018385882354
:101A800011F061E001C060E082E10C94D625CF92B4
:101A9000DF92EF920F93CF93DF9300D0CDB7DEB7F5
:101AA0006C01FC01618BBC016F5E7F4F86E990E0A9
:101AB0002A8349830E945B27F60181892A81498113
:101AC000882341F1458726870787E08AB601635F4F
:101AD0007F4F88E990E00E945B27B601625F7F4FED
:101AE0008AE990E00E945B27B601615F7F4F8CE935
:101AF00090E00E945B27B601605F7F4F8EE990E027
:101B00000F900F90DF91CF910F91EF90DF90CF90DA
:101B10000C945B270F900F90DF91CF910F91EF9076
:101B2000DF90CF900895CF93DF93EC016B87BC01DA
:101B3000655F7F4F80E090E00E945B27CE01DF91E0
:101B4000CF910C943D0DCF93DF93EC01FB0180818D
:101B5000882369F08181882319F04EE150E002C0AA
:101B600040E351E02AE0CE010E94410C05C063E54C
:101B700072E0CE010E94DD24CE01DF91CF91089565
:101B8000DF92EF92FF920F931F93CF93DF9300D0DA
:101B900000D000D0CDB7DEB7FC012081222369F14F
:101BA0007B018C012AE040E351E0BC01CE010196AB
:101BB0000E94410CB701CE0101960E948D23D82EC0
:101BC000CE0101960E94D824D11019C0B701CE01D0
:101BD00001960E94E624F8018081882341F0BE012D
:101BE0006F5F7F4FC8010E947327182F01C010E05C
:101BF000CE0101960E94D82403C010E001C011E07C
:101C0000812F26960FB6F894DEBF0FBECDBFDF91B1
:101C1000CF911F910F91FF90EF90DF900895FC01FD
:101C2000208121110C94732780E008950F931F9356
:101C3000CF93DF9300D000D000D0CDB7DEB7FC014A
:101C400083818823C1F08B01BF012AE040E650E088
:101C5000CE0101960E94410CBE016F5F7F4FC8010B
:101C60000E948D2311E0811101C010E0CE01019688
:101C70000E94D82401C010E0812F26960FB6F89458
:101C8000DEBF0FBECDBFDF91CF911F910F910895A1
:101C9000CF92DF92EF92FF920F931F93CF93DF9338
:101CA00000D000D000D0CDB7DEB77C016B01FC01C5
:101CB0008081811106C0F7018481882309F443C023
:101CC00030C0CE0101960E94E624BE016F5F7F4FB7
:101CD000C7010E94C00D182FCE0101960E94D82482
:101CE000111133C011E0F7018081181720F7FBE0D4
:101CF0001F9FA0011124405D5E4F2AE0B701CE0175
:101D000001960E94410CB601CE0101960E948D23DE
:101D1000082FCE0101960E94D824011118C01F5F20
:101D2000E2CFB601CE0101960E94E624BE016F5FAC
:101D30007F4FC7010E94160E182FCE0101960E94F8
:101D4000D824111106C08FEF05C080E003C0812F99
:101D500001C08EEF26960FB6F894DEBF0FBECDBF42
:101D6000DF91CF911F910F91FF90EF90DF90CF9077
:101D70000895EF92FF920F931F93CF93DF931F92DB
:101D8000CDB7DEB77C01FC0100811181C8016983F8
:101D90000E94B1376981681719F0C8010E94B937EC
:101DA000C7010F90DF91CF911F910F91FF90EF909E
:101DB0000895CF93DF9300D0CDB7DEB7FC01608FDD
:101DC0008EE090E09A838983CE0101960E94B90E3D
:101DD0000F900F90DF91CF910895EF92FF920F93A4
:101DE0001F93CF93DF9300D0CDB7DEB721E0FC0186
:101DF000228746835783608771878C010A5F1F4F54
:101E000088E8E82E83E0F82EF80161918F01FA82CC
:101E1000E982CE0101960E94B90EFFEFEF1AFF0A88
:101E20008CE8E81683E0F80679F70F900F90DF91C1
:101E3000CF911F910F91FF90EF900895CF92DF9275
:101E4000EF92FF920F931F93CF93DF93CDB7DEB73F
:101E50002C970FB6F894DEBF0FBECDBF6C017B018F
:101E60008A016AE472E0CE0101960E94DD242AEE26
:101E70003FE040E050E0BE016F5F7F4FC6010E942F
:101E8000F41B882351F122E030E040E050E0BE0135
:101E90006F5F7F4FCE0107960E940425CE01079603
:101EA0000E94E922F7016083CE0107960E94D824A0
:101EB00025E030E043E050E0BE016F5F7F4FCE0190
:101EC00007960E940425CE0107960E94E922F80198
:101ED0006083CE0107960E94D824CE0101960E940D
:101EE000D8242C960FB6F894DEBF0FBECDBFDF917D
:101EF000CF911F910F91FF90EF90DF90CF900895B9
:101F0000FC01258D293421F421E025830C94671CE4
:101F100008958F929F92AF92BF92CF92DF92EF92ED
:101F2000FF92C62E0E9442264B015C0184E6C89EA9
:101F3000600111240D2C000CEE08FF080E944226BF
:101F4000DC01CB0188199909AA09BB098C159D05EB
:101F5000AE05BF0598F3FF90EF90DF90CF90BF9054
:101F6000AF909F908F900895EF92FF920F931F93E1
:101F7000CF93DF9300D000D000D0CDB7DEB77B0188
:101F8000122FBA01C7010E9453238823A9F0202FE2
:101F900030E0412F50E0B701CE0101960E940425A8
:101FA000BE016F5F7F4FC7010E949F24CE01019643
:101FB0000E94D82481E001C080E026960FB6F894F4
:101FC000DEBF0FBECDBFDF91CF911F910F91FF906C
:101FD000EF900895CF92DF92EF92FF920F931F93AD
:101FE000CF93DF9300D000D000D0CDB7DEB77C0117
:101FF0006B0167E372E0CE0101960E94DD2406E1E9
:1020000021E1AE014F5F5F4FB601C7010E94B40FDF
:10201000182FCE0101960E94D824812F26960FB644
:10202000F894DEBF0FBECDBFDF91CF911F910F910E
:10203000FF90EF90DF90CF900895CF92DF92EF92D4
:10204000FF920F93CF93DF9300D000D000D0CDB795
:10205000DEB76C017B01FB010481035060EA71E093
:10206000CE0101960E94EF2425E0AE014F5F5F4F45
:10207000B701C6010E94B40F082FCE0101960E943D
:10208000D824802F26960FB6F894DEBF0FBECDBFA2
:10209000DF91CF910F91FF90EF90DF90CF90089557
:1020A0008F929F92AF92BF92CF92DF92EF92FF9268
:1020B0000F93CF93DF93CDB7DEB72C970FB6F8947D
:1020C000DEBF0FBECDBF5C016B01FB01048101507F
:1020D0006EE871E0CE0107960E94EF24F60184813C
:1020E0009581892B69F0808091806F817885C4010A
:1020F0000E94F436009721F07C01E818F90803C02B
:10210000EE24EA94FE2C65EA71E0CE0101960E946D
:10211000EF2421E02E0DAE014F5F5F4FB601C501E8
:102120000E94B40F082FCE0101960E94D824CE0140
:1021300007960E94D824802F2C960FB6F894DEBF05
:102140000FBECDBFDF91CF910F91FF90EF90DF9049
:10215000CF90BF90AF909F908F900895CF93DF93D3
:10216000EC018E89811112C061E084E00E94D625C5
:1021700081E08E8B0E944226698F7A8F8B8F9C8F95
:1021800061E0CE01DF91CF910C94890F0E9442262D
:10219000698F7A8F8B8F9C8FDF91CF910895EF920B
:1021A000FF920F931F93CF93DF9300D000D000D006
:1021B000CDB7DEB78C017B016FE571E00E94EF24A3
:1021C000D701D0968D919C91D197DC01ED91FC9136
:1021D0000480F581E02D099518161906ACF4C701A5
:1021E0000E94AE10F70160A971A9CE0101967C0191
:1021F0000E94D71B0E151F0521F0B701C8010E94D0
:102200009F24C7010E94D824C80126960FB6F894CF
:10221000DEBF0FBECDBFDF91CF911F910F91FF9019
:10222000EF900895FF920F931F93CF93DF93EC01EC
:102230008B01F42E0E94AE106FE571E0C8010E9480
:102240006E2308A8D9A9C02D811114C0F8014481BA
:10225000558160817181E881F9810280F381E02DEF
:10226000CE01F11006C0DF91CF911F910F91FF9029
:1022700009940995CE01DF91CF911F910F91FF90A5
:102280000C944A250F931F93CF93DF9300D000D077
:1022900000D0CDB7DEB78C01DC01D0968D919C913A
:1022A000D197DC01ED91FC910284F385E02D099535
:1022B0006FE372E0CE0101960E94DD2441E0BE0191
:1022C0006F5F7F4FC8010E941211CE0101960E94DC
:1022D000D824F80180A991A9DC01ED91FC91028438
:1022E000F385E02D099526960FB6F894DEBF0FBE54
:1022F000CDBFDF91CF911F910F910895CF92DF92C3
:10230000FF920F931F93CF93DF93CDB7DEB7629702
:102310000FB6F894DEBF0FBECDBF8C0181E0D801AF
:102320001D968C93C8010E94AE10F80180A991A956
:10233000DC01ED91FC910284F385E02D09956BEAB7
:1023400071E0CE0107960E94EF24F801F1A0C08051
:10235000D180FF2059F16FE571E0CE010D960E940A
:10236000EF24D6018C91F816B8F4BBE0FB9EA001D7
:102370001124405D5E4F2AE0B601CE0101960E9415
:10238000410CBE016F5F7F4FCE010D960E949F24CE
:10239000CE0101960E94D824BE01635F7F4FCE011B
:1023A00007960E944224CE010D960EC0B601CE01C2
:1023B00001960E94A30DBE016F5F7F4FCE0107966D
:1023C0000E944224CE0101960E94D8246BE3CE01E4
:1023D00007960E942024BE01695F7F4FCE010196BF
:1023E0000E94E62441E0BE016F5F7F4FC8010E945A
:1023F0001211CE0101960E94D82461E0C8010E940A
:10240000890F6FE571E0CE0101960E94EF2441E053
:10241000BE016F5F7F4FC8010E941211CE0101966D
:102420000E94D82461E0F801808191810E941D0DF5
:102430000E944226D80150966D937D938D939C9374
:10244000539782E55D968C935D978FE45E968C93AF
:10245000CE0107960E94D82462960FB6F894DEBF8C
:102460000FBECDBFDF91CF911F910F91FF90DF90F5
:10247000CF900895EF92FF920F931F93CF93DF9326
:1024800000D0CDB7DEB7FC01A081B1818C91811164
:1024900003C0FF24F3947CC058968C9158978E34D7
:1024A000C1F382A98823A9F382A1811103C090A559
:1024B000961779F3958D9E3409F044C0968D9E341D
:1024C00009F040C0F3A4FF2009F462C081113AC0B2
:1024D000E62E8F0151968C918823B1F1AE014F5FAA
:1024E0005F4FBE016E5F7F4FCF010E941E0F8A813A
:1024F000D801ED91FC912585821730F197859817C9
:1025000018F1291309C0898196858917E8F0908907
:10251000981708F0BECF18C0821306C0998186852F
:10252000981708F0B6CF10C0891306C0998180892A
:10253000891708F0AECF08C0281730F4891708F4BF
:10254000A8CF02C0F12C24C0F80111A20190F081A3
:10255000E02D8289882359F00E944226F80163A366
:1025600074A385A396A3E7A281E082A311C0D8013A
:102570009896EC929897808D8E3409F48ACF81E0FA
:1025800099968C93C8010E94AE10C8010E947E11DA
:102590008F2D0F900F90DF91CF911F910F91FF9092
:1025A000EF9008950C94003C089561E081E10C9453
:1025B000D6250F931F93CF93DF93EC0141110EC0EB
:1025C00088A181110BC06623F9F062E38A819B81A7
:1025D000DF91CF911F910F910C94800F022F162F36
:1025E0001FA261E08DE00E94D6250E9442266DABBD
:1025F0007EAB8FAB98AF81E08CAB18A260E080E13E
:102600000E94D6251C8F0E8FDF91CF911F910F91C5
:102610000895FC01A081B1811C968C91978D88232F
:1026200021F0992321F081A10895892F089581E057
:1026300008951F93CF93DF93EC01162F1AA289A15F
:10264000882329F0CE010E94091381110FC08A81CD
:102650009B81112331F06EE4DF91CF911F910C9497
:10266000800F6EE40E943A128C8322C088A18111EF
:1026700019C060E08DE00E94D62560E08CE00E94E9
:10268000D6250E94D5120E9442266FA778AB89AB4F
:102690009AAB81E08DA788A361E080E10E94D625F6
:1026A0001D8F06C0112321F061E38A819B81D4CF65
:1026B000DF91CF911F9108951F93CF93DF93EC018A
:1026C00019A1112331F00E940913882311F081E030
:1026D0000BC0CE010E940913882321F0111104C000
:1026E00084E002C082E000C0DF91CF911F91089585
:1026F000CF93DF93FC0120A1211110C0EC010E94B7
:102700000913882359F089A1882341F081E08AA325
:102710000E9442266BA37CA38DA39EA3DF91CF9141
:1027200008951F93CF93DF93EC01162FE881F98171
:10273000838581110CC088A181111BC089A18823C8
:10274000C1F061E08DE00E94D6251AA212C08CA9CA
:1027500081110FC089A1882361F060E08DE00E94A3
:10276000D625112331F0CE01DF91CF911F910C942A
:102770007813DF91CF911F910895EF92FF920F93FD
:102780001F93CF93DF937B018A01E901F8948AE0DC
:102790000E94AD2531E0892B09F430E0F701308348
:1027A0008BE00E94AD2531E0892B09F030E0F80183
:1027B000308383E00E94AD2531E0892B09F430E0BD
:1027C00038837894DF91CF911F910F91FF90EF9014
:1027D00008950F931F93CF93DF9300D01F92CDB72F
:1027E000DEB78C019E012F5F3F4FAE014E5F5F4F02
:1027F000BE016D5F7F4F0E94BD139A81F80190A3C7
:10280000992311F061E001C060E080E10E94D625CB
:102810008A810F900F900F90DF91CF911F910F91B0
:1028200008951F920F920FB60F9211248F939F93CA
:1028300091E09093060280911E028F5F80931E02AA
:1028400080911E028E3240F080914002811102C0C0
:102850009093070210921E029F918F910F900FBECE
:102860000F901F9018951F920F920FB60F92112480
:102870000F900FBE0F901F9018951F920F920FB6DA
:102880000F9211248F9381E0809364028F910F90B7
:102890000FBE0F901F9018951F920F920FB60F92B8
:1028A00011248F9381E0809365028F910F900FBE6A
:1028B0000F901F901895E0E6F0E098E190838083F8
:1028C0000895AF92BF92DF92EF92FF920F931F9302
:1028D000CF93DF93CDB7DEB764970FB6F894DEBF22
:1028E0000FBECDBF7C01062FD42E122F609317038D
:1028F000BC01CE010D960E94E62461EA73E0CE0190
:1029000001960E94DD24BE016F5F7F4FC7010E94C8
:102910005323B82ECE0101960E94D824BB2019F073
:102920000E94AE295EC668E973E0CE0101960E945E
:10293000DD24BE016F5F7F4FC7010E945323B82E75
:10294000CE0101960E94D824BB2041F0602F8091D7
:102950000303909104030E941D0D43C660E973E0D8
:10296000CE0101960E94DD24BE016F5F7F4FC7013B
:102970000E945323B82ECE0101960E94D824BB207A
:1029800009F451C060E080910303909104030E9418
:10299000930DE0910303F0910403128ABF016E5E70
:1029A0007F4F8AE390E00E945B27E0910303F09160
:1029B00004031486BF01645F7F4F86E390E00E94AA
:1029C0005B27E0910303F0910403178ABF01695E5E
:1029D0007F4F8CE090E00E945B2763E480910303CB
:1029E000909104030E94D90EE0910303F091040337
:1029F00082E390E0948B838BBF016D5E7F4F84E018
:102A000090E00E942A27E0910303F091040382E002
:102A100090E0968B858BBF016B5E7F4F82E190E0EB
:102A20000E942A27DEC56CE873E0CE0101960E9461
:102A3000DD24BE016F5F7F4FC7010E945323B82E74
:102A4000CE0101960E94D824BB20F1F1E09003034F
:102A5000F09004036FE571E0CE0107960E94EF2429
:102A600010E0F70180811817F8F48BE0189FA0019F
:102A70001124405D5E4F2AE0B701CE0101960E940D
:102A8000410CBE016F5F7F4FCE0107960E9442242A
:102A9000CE0101960E94D8246EE571E0CE01079622
:102AA0000E9433241F5FDDCF6FE571E0CE010796F2
:102AB0000E946E23882309F4ACC562E873E0CE015E
:102AC00007960E944924A5C56CE773E0CE010196E4
:102AD0000E94DD24BE016F5F7F4FC7010E94532318
:102AE000B82ECE0101960E94D824BB2029F083E0A5
:102AF00093E00E94D212B6C568E773E0CE0101965A
:102B00000E94DD24BE016F5F7F4FC7010E945323E7
:102B1000B82ECE0101960E94D824BB2019F00E9445
:102B200066298CC561E773E0CE0101960E94DD2421
:102B3000BE016F5F7F4FC7010E945323B82ECE01A5
:102B400001960E94D824BB2011F061E014C069E610
:102B500073E0CE0101960E94DD24BE016F5F7F4FBE
:102B6000C7010E945323B82ECE0101960E94D8249B
:102B7000BB2079F060E080910303909104030E94F0
:102B8000930D61E080910503909106030E949113DB
:102B900028C563E673E0CE0101960E94DD24BE01E4
:102BA0006F5F7F4FC7010E945323B82ECE0101965D
:102BB0000E94D824BB2039F0E0910303F091040374
:102BC00081E0848718C06CE573E0CE0101960E9415
:102BD000DD24BE016F5F7F4FC7010E945323B82ED3
:102BE000CE0101960E94D824BB2059F0E091030346
:102BF000F09104031486BF01645F7F4F86E390E089
:102C0000EEC466E573E0CE0101960E94DD24BE01AC
:102C10006F5F7F4FC7010E945323B82ECE010196EC
:102C20000E94D824BB2039F0E0910303F091040303
:102C300081E0878B18C06FE473E0CE0101960E949B
:102C4000DD24BE016F5F7F4FC7010E945323B82E62
:102C5000CE0101960E94D824BB2059F0E0910303D5
:102C6000F0910403178ABF01695E7F4F8CE090E00A
:102C7000B6C46AE473E0CE0101960E94DD24BE0171
:102C80006F5F7F4FC7010E945323B82ECE0101967C
:102C90000E94D824BB20E1F0F7018481958105973B
:102CA00008F4E0C464E070E0C7010E944223982F5A
:102CB0009D7F913429F0843519F08E3409F0D2C407
:102CC000682F80910303909104030E94D90E89C458
:102CD00063E473E0CE0101960E94DD24BE016F5FC4
:102CE0007F4FC7010E945323B82ECE0101960E9448
:102CF000D824BB2009F4C0C06CE373E0C7010E9474
:102D000049242DE130E140E050E0B70183E093E059
:102D10000E94F41B882339F0C7010E94E922162F74
:102D2000110F160F01C01FEF65E083E093E00E94D2
:102D3000890F65E373E0C7010E94492420E530E173
:102D400040E050E0B70183E093E00E94F41B882349
:102D500049F16EE871E0CE0107960E94EF24F70179
:102D6000448155818B859C85481B590BBE01695F49
:102D70007F4FC7010E94F4229C0140E050E0B70160
:102D8000CE0101960E940425CE0101960E94E922FF
:102D9000062FCE0101960E94D824CE0107960E94EC
:102DA000D82401C00FEFA0900503B0900603C50121
:102DB0000E945C13F82EF501E0A06EE972E0CE01EE
:102DC00001960E94DD24E0910303F09104038385C2
:102DD000811106C066E972E0CE0101960E94492485
:102DE00062EB71E0CE0101960E943324F1E0FF1600
:102DF00031F082E0F81631F066E872E005C06AE76B
:102E000072E002C06CE872E0CE0101960E94BF231E
:102E10006FE772E0CE0101960E94BF23E11003C06C
:102E20006FE672E002C065E772E0CE0101960E9493
:102E3000BF230F3F59F068E672E0CE0101960E9471
:102E4000BF23602FCE0101960E9481341F3F59F0AD
:102E50006EE572E0CE0101960E94BF23612FCE0184
:102E600001960E94813440E061E0CE0101960E940B
:102E7000B91ECE010196E0C360E373E0CE01019676
:102E80000E94DD24BE016F5F7F4FC7010E94532364
:102E9000882321F0002319F011E001C010E0CE01D9
:102EA00001960E94D824112359F0E0910303F09178
:102EB00004038281882309F4D5C381E0818318C08B
:102EC0006AE273E0CE0101960E94DD24BE016F5FCD
:102ED0007F4FC7010E945323182FCE0101960E94F5
:102EE000D824112359F0E0910303F09104031182D7
:102EF000BF016F5F7F4F8AE190E071C364E273E0CE
:102F0000CE0101960E94DD24BE016F5F7F4FC70195
:102F10000E945323182FCE0101960E94D82411231A
:102F200061F0E12C00E020E040E060E080910303EC
:102F3000909104030E94470D54C36CE173E0CE01ED
:102F400001960E94DD24BE016F5F7F4FC7010E9482
:102F50005323182FCE0101960E94D8241123D9F0B3
:102F6000AE014D5E5F4FBE016C5E7F4F83E093E02C
:102F70000E941E0F66E173E0CE0107960E94DD24D9
:102F80006C89CE0107960E9481346B89CE01079629
:102F90000E9481343EC36EE073E0CE0101960E9430
:102FA000DD240BE027E0AE014F5F5F4FB70183E008
:102FB00093E00E94B40F182FCE0101960E94D824EE
:102FC0001123E9F16BEF72E0CE0107960E94DD2438
:102FD00022E030E040E050E0B701CE0101960E94CF
:102FE0000425BE016F5F7F4FCE0107960E944224E9
:102FF000CE0101960E94D82465EB71E0CE010796C0
:103000000E94332424E030E042E050E0B701CE01DA
:1030100001960E940425BE016F5F7F4FCE01079687
:103020000E944224CE0101960E94D82467EB71E0F1
:10303000CE0107960E943324CE01079689C264EF21
:1030400072E0CE0101960E94DD240FE026E0AE0181
:103050004F5F5F4FB70183E093E00E94B40F182FDA
:10306000CE0101960E94D824112309F487C064E0A0
:1030700070E0C7010E9442238D3209F0F3C222E0C2
:1030800030E040E050E0B701CE0107960E940425F1
:10309000CE0107960E94E922162F24E030E042E09C
:1030A00050E0B701CE0101960E940425BE016F5F7A
:1030B0007F4FCE0107960E949F24CE0101960E9469
:1030C000D824CE0107960E94E922B62E27E030E0F0
:1030D00045E050E0B701CE0101960E940425BE01F3
:1030E0006F5F7F4FCE0107960E949F24CE0101960D
:1030F0000E94D824CE0107960E94E922062F29E0DB
:1031000030E047E050E0B701CE0101960E9404256F
:10311000BE016F5F7F4FCE0107960E949F24CE01B4
:1031200001960E94D824CE0107960E94E922183108
:10313000F8F4EBE3EB15E0F00831D0F46C33C0F4B5
:10314000809103039091040310130AC0B61208C0C3
:10315000E12C00E020E040E060E00E94470D08C064
:10316000E62E2B2D412F61E00E94470D11E001C09A
:1031700010E0CE0107960E94D82434C2F7010481E2
:1031800001506EEE72E0CE0101960E94DD2425E032
:10319000AE014F5F5F4FB70183E093E00E94B40F31
:1031A000182FCE0101960E94D8241123F1F0C701F7
:1031B0000E948F20882309F455C2C7010E94E9228A
:1031C0008B016630710510F005E010E0E09103031B
:1031D000F0910403028BBF016E5E7F4F8AE390E0A3
:1031E0000E945B2768EE72E07BC0F701048101500A
:1031F0006FED72E0CE0101960E94DD2428E0AE0161
:103200004F5F5F4FB70183E093E00E94B40F182F28
:10321000CE0101960E94D824112329F1C7010E94F2
:103220008F20882309F41EC2C7010E94E9228B0166
:103230006230710530F0613B744028F000EB14E01F
:1032400002C002E010E0E0910303F0910403168B4A
:10325000058BBF016B5E7F4F82E190E00E942A27C1
:1032600066ED72E03DC0F701048101506DEC72E043
:10327000CE0101960E94DD2428E0AE014F5F5F4F32
:10328000B70183E093E00E94B40F182FCE0101969E
:103290000E94D824112371F1C7010E948F20882336
:1032A00009F4E0C1C7010E94E9228B016233710574
:1032B00030F06138704728F000E810E702C002E300
:1032C00010E0E0910303F0910403148B038BBF0122
:1032D0006D5E7F4F84E090E00E942A2764EC72E0EC
:1032E000CE010D960E944924B801CE010D960E9490
:1032F000513477C1F7010481015060EC72E0CE01D6
:1033000001960E94DD2423E0AE014F5F5F4FB701BD
:1033100083E093E00E94B40F182FCE0101960E9423
:10332000D824112321F164EB72E0CE0107960E94AC
:10333000DD24B701CE0107960E94422460E771E0C8
:10334000CE0107960E94332481E080931803BE01CA
:10335000695F7F4FCE0101960E94E62441E0BE01E5
:103360006F5F7F4F83E093E00E9412115FC16EEBAD
:1033700071E0CE0101960E94EF240CE022E0AE0144
:103380004F5F5F4FB70183E093E00E94B40F182FA7
:10339000CE0101960E94D824112309F448C0C70128
:1033A0000E948F20882309F45DC1009103031091CE
:1033B0000403F8018081823008F454C1B701C801C8
:1033C0000E94480EF82E8FEF8F0D8D3F08F04AC1F6
:1033D0008BE0E82E2F2D30E0F8019081492F50E04E
:1033E0004150510924173507FCF42F5F3F4FE29EEF
:1033F0005001E39EB00C1124A501405D5E4F2AE010
:10340000B801CE0101960E94410CB5016B5D7E4F63
:10341000AE014F5F5F4FC8010E94AC0CCE01019618
:103420000E94D824F394D6CF915090834FC062EC81
:1034300071E0CE0101960E94EF240CE022E0AE0183
:103440004F5F5F4FB70183E093E00E94B40F182FE6
:10345000CE0101960E94D8241123E1F1C7010E94F8
:103460008F20882309F4FEC061E0809103039091CE
:1034700004030E941D0D0091030310910403F80141
:1034800080818F3009F4EEC0B701C8010E94480E58
:103490008F3F09F0E7C0B701CE0101960E94E624F4
:1034A000F8016081FBE06F9FB0011124605D7E4FE9
:1034B000AE014F5F5F4FC8010E94AC0CCE01019678
:1034C0000E94D824F80180818F5F8083B8018CE24C
:1034D00091E085C061EC71E0CE0101960E94EF247D
:1034E0000DE023E0AE014F5F5F4FB70183E093E053
:1034F0000E94B40F182FCE0101960E94D8241123E8
:1035000051F1C7010E948F20882309F4ABC00091BC
:10351000030310910403F8018081882309F4A2C0F9
:1035200081E08283B8016E5F7F4F86E190E00E9468
:103530005B27B701CE0101960E94E624AE014F5FE2
:103540005F4F6EE170E0C8010E94AC0CCE010196A5
:103550000E94D82446C065EC71E0CE0101960E941D
:10356000EF240DE023E0AE014F5F5F4FB70183E032
:1035700093E00E94B40F182FCE0101960E94D82428
:10358000112309F46FC0C7010E948F20882309F41A
:1035900069C0009103031091040381E0F801838363
:1035A000B8016D5F7F4F88E590E00E945B27B7010F
:1035B000CE0101960E94E624AE014F5F5F4F60E6A8
:1035C00070E0C8010E94AC0CCE0101960E94D82484
:1035D000F8011482B8016C5F7F4F8CE590E00E9487
:1035E0005B2711E0D1102AC06EEA72E0CE01079687
:1035F0000E94DD24111106C065EA72E0CE01079633
:103600000E944924BE01635F7F4FCE0107960E944E
:103610004224BE01695F7F4FCE0101960E94E624DD
:1036200040E061E0CE0101960E94B91ECE010196F4
:103630000E94D824CE0107960E94D824CE010D9670
:103640000E94D82464960FB6F894DEBF0FBECDBF9B
:10365000DF91CF911F910F91FF90EF90DF90BF907E
:10366000AF90089510E0BECF83E093E00E94421136
:103670000E944226609313037093140380931503F2
:103680009093160308950F931F93CF93DF93CDB7B5
:10369000DEB72C970FB6F894DEBF0FBECDBF6DE13D
:1036A00074E0CE0107960E94DD2461E4CE01079606
:1036B0000E94202469E174E0CE0107960E94BF2396
:1036C00003E013E0D801D0968D919C91D197DC0155
:1036D000ED91FC910284F385E02D0995BE01695FAF
:1036E0007F4FCE0101960E94E62441E0BE016F5F4C
:1036F0007F4FC8010E941211CE0101960E94D8246A
:10370000F80180A991A9DC01ED91FC910284F38577
:10371000E02D0995CE0107960E94D8242C960FB66D
:10372000F894DEBF0FBECDBFDF91CF911F910F91F7
:103730000895FC01A089B18982E08C93A485B585A8
:103740001C92A685B78583E38C93108EA489B589D6
:1037500086E08C93A289B3898C9180618C93A28935
:10376000B3898C9188608C93A289B3898C9180688D
:103770008C930288F389E02D80818F7D808308956A
:1037800080911803811111C0909120039E3471F42F
:10379000909121039E3451F480912E03882331F0BF
:1037A00090912C0381E08927089580E008950F937C
:1037B0001F93CF93DF93EC018B016FE571E00E94C3
:1037C000EF24C8010E944E2697FD08C08A3091055B
:1037D00029F0682FCE010E942024F3CFCE01DF9183
:1037E000CF911F910F9108954F925F926F927F92A8
:1037F000AF92BF92CF92DF92FF920F931F93CF931E
:10380000DF9300D000D000D0CDB7DEB78C015B01D4
:1038100069010E9442262B013C01B501CE010196AF
:103820000E94E62441E0BE016F5F7F4FC8010E9405
:103830001211CE0101960E94D8240E944226DC017A
:10384000CB0184199509A609B709803A9F40A105C3
:10385000B10538F5D801D0968D919C91D197DC01B6
:10386000ED91FC910480F581E02D0995892B29F3D8
:10387000B801CE0101960E94CF10BE016F5F7F4F4D
:10388000C801F6010995F82E882399F2BE016F5FF1
:103890007F4FC5010E948824CE0101960E94D82442
:1038A00001C0F12C8F2D26960FB6F894DEBF0FBE07
:1038B000CDBFDF91CF911F910F91FF90DF90CF90FF
:1038C000BF90AF907F906F905F904F9008951F933F
:1038D000CF93DF93EC01162F88A999A9DC01ED9114
:1038E000FC910284F385E02D0995CE010E944211DE
:1038F0000E9442266F83788789879A8781E08B8729
:1039000018A71C87DF91CF911F910895CF93DF9364
:1039100060E070E00E944223813371F483E580937C
:103920002D030E94341B61E08091050390910603F2
:10393000DF91CF910C941913823381F48FE480933B
:103940002D030E94341B20E040E061E080910503DC
:1039500090910603DF91CF910C94D912833341F5F6
:1039600084E580932D030E94341BC0910503D09100
:103970000603CE010E945C13843011F46CE403C092
:10398000823039F461E48A819B81DF91CF910C947C
:10399000800F813009F073C0CE010E94E9132A81A3
:1039A0003B81882311F061E301C063E3C901EDCFDE
:1039B0008434C9F481E380932D0361E08091030393
:1039C000909104030E94930D61E080910503909112
:1039D00006030E94911360E0809105039091060315
:1039E0000E94191315C08334B9F482E380932D0328
:1039F00060E080910303909104030E94930D21E005
:103A000040E060E080910503909106030E94D91286
:103A1000DF91CF910C94431B8833A9F40E94341B8F
:103A200061E080910303909104030E94930D61E093
:103A300080910503909106030E94911381E0809389
:103A4000080368E316C08933D1F40E94341B60E098
:103A500080910303909104030E94930D61E0809193
:103A60000503909106030E94911381E0809308035F
:103A700069E383E093E0DF91CF910C94671CDF91C1
:103A8000CF910895EF92FF920F931F93CF93DF93FF
:103A900000D000D000D0CDB7DEB77C0169EC71E07A
:103AA000CE0101960E94EF2408E027E0AE014F5FAF
:103AB0005F4FB70183E093E00E94B40F182FCE014F
:103AC00001960E94D824812F26960FB6F894DEBF67
:103AD0000FBECDBFDF91CF911F910F91FF90EF905F
:103AE0000895CF93DF9300D000D000D0CDB7DEB7DC
:103AF00010922203109210038091330390913403AB
:103B0000DC01ED91FC910284F385E02D099561E1E2
:103B100074E0CE0101960E94DD2441E0BE016F5F9A
:103B20007F4F83E093E00E941211CE0101960E9424
:103B3000D8240E94422661E083E093E00E94890F2E
:103B40006FE571E0CE0101960E94EF2441E0BE01D5
:103B50006F5F7F4F83E093E00E941211CE010196C8
:103B60000E94D8248091330390913403DC01ED91BD
:103B7000FC910284F385E02D099510922C0380912D
:103B800020038E3411F0823549F5809121038F3462
:103B900029F580912403811121C080912303811193
:103BA0001DC0E0910303F0910403808D8435B1F4CE
:103BB0008081823098F081E08093240380932503F4
:103BC0000E94422660932603709327038093280364
:103BD0009093290380912B0380932A03109223034F
:103BE000109208038EE480932003809321031092A7
:103BF00007030E94422660932F0370933003809343
:103C000031039093320310922E0326960FB6F89448
:103C1000DEBF0FBECDBFDF91CF910895FF920F930E
:103C20001F93CF93DF9300D000D000D0CDB7DEB785
:103C30008C0165E074E0CE0101960E94DD24BE0196
:103C40006F5F7F4FC8010E945323F82ECE0101966B
:103C50000E94D824FF20E1F02CE030E04BE050E05F
:103C6000B801CE0101960E94042560E070E0CE010B
:103C700001960E944223182FCE0101960E94D8245B
:103C8000123341F0133341F0103341F0163341F059
:103C90008EE407C084E405C082E503C089E401C066
:103CA00085E426960FB6F894DEBF0FBECDBFDF9138
:103CB000CF911F910F91FF900895FF920F931F9343
:103CC000CF93DF9300D000D000D0CDB7DEB78C010A
:103CD00069EF73E0CE0101960E94DD24BE016F5FA3
:103CE0007F4FC8010E948D23F82ECE0101960E94BD
:103CF000D824FF2011F091E02FC063EF73E0CE01D4
:103D000001960E94DD24BE016F5F7F4FC8010E94B3
:103D10008D23F82ECE0101960E94D824F110EBCF0E
:103D200068EE73E0CE0101960E94DD24BE016F5F54
:103D30007F4FC8010E948D23F82ECE0101960E946C
:103D4000D824F110D8CF61ED71E0C8010E946E2334
:103D500091E0811101C090E0892F26960FB6F8946A
:103D6000DEBF0FBECDBFDF91CF911F910F91FF90AE
:103D70000895EF92FF920F931F93CF93DF93CDB7E8
:103D8000DEB762970FB6F894DEBF0FBECDBF7C01E1
:103D9000062F142F81E080931003809133039091BC
:103DA0003403DC01ED91FC910284F385E02D09954B
:103DB000B701CE010D960E94E624011126C0809124
:103DC0002B038F34B1F034F4833499F0863409F046
:103DD000E7C00FC0833521F0853509F0E1C009C087
:103DE00068ED71E0CE010D960E9471246FED71E0D7
:103DF00008C068ED71E0CE010D960E94712462EE5C
:103E000071E0CE010D960E94332466EE71E0CE0182
:103E100007960E94EF241230B9F460910303709169
:103E20000403FB018381882341F02AE040E650E04F
:103E3000CE0101960E94410C1AC06FE571E0CE01DF
:103E400001960E94EF2413C080911703882339F054
:103E50006DED73E0CE0107960E94BF2313C0609101
:103E6000030370910403CE0101960E94A30DBE01CD
:103E70006F5F7F4FCE0107960E944224CE010196CC
:103E80000E94D82460E771E0CE0107960E94332497
:103E90008091330390913403DC01ED91FC91028415
:103EA000F385E02D0995BE01695F7F4FCE01019634
:103EB0000E94E62441E0BE016F5F7F4F83E093E004
:103EC0000E941211CE0101960E94D82480913303E2
:103ED00090913403DC01ED91FC910284F385E02D97
:103EE00009956AE083E093E00E94890FBE01635F59
:103EF0007F4FCE0101960E94E62441E0BE016F5F34
:103F00007F4F83E093E00E941211CE0101960E9440
:103F1000D8248091330390913403DC01ED91FC911E
:103F20000284F385E02D09956AE083E093E00E9426
:103F3000890F8091330390913403DC01ED91FC9162
:103F40000284F385E02D099583E093E00E94AE1092
:103F50000091330310913403D801ED91FC9101904D
:103F6000F081E02D6AE1C8010995C8010E944A2547
:103F70008091330390913403DC01ED91FC91028434
:103F8000F385E02D09956AE083E093E00E94890FB4
:103F90001092170310921003CE0107960E94D824A6
:103FA000CE010D960E94D82462960FB6F894DEBF1B
:103FB0000FBECDBFDF91CF911F910F91FF90EF907A
:103FC0000895CF93DF9300D000D000D0CDB7DEB7F7
:103FD00090912303911119C0E0910303F091040320
:103FE000908D913491F480932B036FE571E0CE01B5
:103FF00001960E94EF2440E060E0CE0101960E940D
:10400000B91ECE0101960E94D82426960FB6F894C8
:10401000DEBF0FBECDBFDF91CF9108950F931F93E9
:10402000CF93DF93CDB7DEB76E970FB6F894DEBFB0
:104030000FBECDBF8C0162ED73E0CE0101960E94F0
:10404000DD24BE016F5F7F4FC8010E948D23811167
:104050004DC067EC73E0CE0107960E94DD24BE01DF
:10406000695F7F4FC8010E948D23811141C06CEBB5
:1040700073E0CE010D960E94DD24BE01635F7F4F89
:10408000C8010E948D23811135C061EB73E0CE0120
:1040900043960E94DD24BE016D5E7F4FC8010E94E1
:1040A0008D23811115C066EA73E0CE0149960E9406
:1040B000DD24BE01675E7F4FC8010E948D2311E0A1
:1040C000811101C010E0CE0149960E94D82401C0A0
:1040D00011E0CE0143960E94D824CE010D960E9495
:1040E000D824CE0107960E94D82409C080E004C0DD
:1040F00081E002C011E0F1CF11E08111F2CFCE01D9
:1041000001960E94D824812F6E960FB6F894DEBFD8
:104110000FBECDBFDF91CF911F910F910895EF9208
:10412000FF920F931F93CF938C01FC01E480F580E5
:10413000C0E06C2F70E06E157F0568F4C8010E9426
:104140004223282F880F330B205331092A303105A1
:1041500020F4CF5FEECF81E001C080E0CF911F91CE
:104160000F91FF90EF9008958F929F92AF92BF9220
:10417000CF92DF92EF92FF921F93CF93DF9300D005
:1041800000D000D0CDB7DEB7162FBC01CE0101960E
:104190000E94E62440E0BE016F5F7F4F83E093E022
:1041A0000E941211CE0101960E94D8240E9442263C
:1041B0004B015C01112339F090E6C92E9AEED92EFD
:1041C000E12CF12C15C088EBC82E8BE0D82EE12C09
:1041D000F12C0EC08091330390913403DC01ED91FA
:1041E000FC910480F581E02D09951816190674F0EC
:1041F0000E944226DC01CB0188199909AA09BB0952
:104200008C159D05AE05BF0528F323C063E073E060
:10421000CE0101960E94CF1063EF71E0CE010196AE
:104220000E946E2381110DC061ED71E0CE010196F7
:104230000E946E23811107C0CE0101960E94D824EE
:10424000D7CF11E001C010E0CE0101960E94D82422
:1042500001C010E0812F26960FB6F894DEBF0FBE86
:10426000CDBFDF91CF911F91FF90EF90DF90CF9066
:10427000BF90AF909F908F9008950895CF92DF9256
:10428000EF92FF920F931F93CF93DF936C017A010C
:104290008B01C0E0D0E0CE15DF0589F0D8016D912B
:1042A0008D01D601ED91FC910190F081E02DC601C8
:1042B0000995892B11F47E0102C02196ECCFC7012C
:1042C000DF91CF911F910F91FF90EF90DF90CF90F2
:1042D0000895FC01918D828D981761F0828DDF0128
:1042E000A80FB11D5D968C91928D9F5F9F73928FE9
:1042F00090E008958FEF9FEF0895FC01918D828DDE
:10430000981731F0828DE80FF11D858D90E00895AA
:104310008FEF9FEF0895FC01918D228D892F90E002
:10432000805C9F4F821B91098F739927089586E6C1
:1043300092E00E948B2121E0892B09F420E0822F5A
:104340000895FC01848DDF01A80FB11DA35ABF4F52
:104350002C91848D90E001968F739927848FA68984
:10436000B7892C93A089B1898C9180648C93938DAB
:10437000848D981306C00288F389E02D80818F7D9B
:1043800080830895EF92FF920F931F93CF93DF9353
:10439000EC0181E0888F9B8D8C8D981305C0E88996
:1043A000F989808185FD24C0F62E0B8D10E00F5F0A
:1043B0001F4F0F731127E02E8C8DE8120CC00FB623
:1043C00007FCFACFE889F989808185FFF5CFCE0116
:1043D0000E94A121F1CF8B8DFE01E80FF11DE35A60
:1043E000FF4FF0820B8FEA89FB898081806207C0D2
:1043F000EE89FF896083E889F98980818064808300
:1044000081E090E0DF91CF911F910F91FF90EF90AD
:104410000895CF93DF93EC01888D8823C9F0EA8952
:10442000FB89808185FD05C0A889B9898C9186FDAD
:104430000FC00FB607FCF5CF808185FFF2CFA889AA
:10444000B9898C9185FFEDCFCE010E94A121E7CFE4
:10445000DF91CF91089580E090E0892B29F00E94B0
:10446000972181110C9400000895833081F028F485
:10447000813099F08230A1F008958730A9F088301A
:10448000B9F08430D1F4809180008F7D03C0809199
:1044900080008F7780938000089584B58F7702C065
:1044A00084B58F7D84BD08958091B0008F7703C05F
:1044B0008091B0008F7D8093B000089508950E9490
:1044C000A936CF93DF93EC0188819981009711F091
:1044D0000E944735198218821D821C821B821A8213
:1044E000DF91CF9108950F931F93CF93DF93EC014A
:1044F00088819981009729F02A813B812617370707
:1045000088F48B016F5F7F4F0E94DF35009761F069
:10451000998388831B830A832C813D81232B11F48B
:10452000FC01108281E001C080E0DF91CF911F91FA
:104530000F910895EF92FF920F931F93CF93DF9304
:10454000FC01248135816115710511F480E019C0E9
:1045500041155105A9F07B01EC018A01020F131FDF
:10456000B8010E947322882389F3288139818C81C4
:104570009D81B701820F931F0E94D0361D830C834B
:1045800081E0DF91CF911F910F91FF90EF900895FF
:10459000EF92FF920F931F93CF93DF93EC017B0178
:1045A0008A01BA010E947322811104C0CE010E94C7
:1045B000612207C01D830C83B701888199810E9405
:1045C000D036CE01DF91CF911F910F91FF90EF90E8
:1045D0000895FC0180819181009711F00C940E37B1
:1045E00060E070E0CB010895AF92BF92CF92DF926E
:1045F000EF92FF920F931F93CF93DF937B018A017A
:10460000FB01448155814115510561F1FC01248173
:1046100035812115310531F12417350718F10217BD
:10462000130718F0890101501109FC01A080B18025
:10463000C501DFEFCFEF6501C00ED11EC816D90648
:10464000A0F0F701608171810E94F436009769F053
:104650009C012A193B090217130710F0D22FC32F10
:104660000196ECCF8FEF9FEF02C08D2F9C2FDF9133
:10467000CF911F910F91FF90EF90DF90CF90BF905F
:10468000AF900895FC01248135816217730748F4C7
:1046900080819181009729F0FC01E60FF71F80814E
:1046A000089580E00895FB0144815581FC01248137
:1046B00035812417350778F080819181009759F072
:1046C000FB01608171816115710529F00E94D73667
:1046D00021E0892B09F020E0822F0895FC0124813C
:1046E0003581232B31F421E061157105A1F0FB0127
:1046F00008C0FC01808191816115710531F421E0D0
:10470000FC018081882339F005C00E94C73621E072
:10471000892B09F020E0822F0895FC012481358146
:10472000FB01448155812417350721F5FC01808167
:104730009181FB0160817181009719F0611571050C
:10474000A1F46115710549F0232BB1F0FB018081C3
:1047500090E09195819591090AC0009769F0232B0B
:1047600059F0FC01808190E002C00E94C73621E030
:10477000892B19F020E001C021E0822F0895EF92EB
:10478000FF920F931F93CF93DF936115710511F47F
:1047900080E01EC08B01EC01CB010E943C370097EA
:1047A000B1F02C813D817C01E20EF31EB701CE01F8
:1047B0000E947322882361F3288139818C819D8135
:1047C000B801820F931F0E943537FD82EC8281E091
:1047D000DF91CF911F910F91FF90EF900895EF928D
:1047E000FF920F931F93CF93DF93CDB7DEB72D9733
:1047F0000FB6F894DEBF0FBECDBF7C01CB01BA016E
:104800002AE08E010F5F1F4FA8010E946537F80153
:1048100001900020E9F73197AF01401B510BB8011F
:10482000C7010E949A222D960FB6F894DEBF0FBEE4
:10483000CDBFDF91CF911F910F91FF90EF90089521
:10484000CF93DF9300D0CDB7DEB769831A8241E002
:1048500050E0BE016F5F7F4F0E949A220F900F9031
:10486000DF91CF9108956115710551F0FB01019021
:104870000020E9F73197AF01461B570B0C949A22A1
:1048800080E00895FB0144815581608171810C9421
:104890009A22EF92FF920F931F93CF93DF93EC0135
:1048A0008B016115710551F0CB010E943C377C01F1
:1048B000BC01CE010E947322811104C0CE010E946E
:1048C000612207C0FD82EC82B801888199810E9433
:1048D0003537CE01DF91CF911F910F91FF90EF906F
:1048E0000895CF93DF93EC016115710559F0FB0139
:1048F00001900020E9F73197AF01461B570B0E944A
:10490000C82202C00E946122CE01DF91CF9108959A
:10491000CF93DF93EC01FB018617970761F060816D
:1049200071816115710529F0448155810E94C82269
:1049300002C00E946122CE01DF91CF9108950F93B2
:104940001F93CF93DF938C01EB01FC018081918158
:104950000097B1F0688179816115710579F0428124
:1049600053812C813D814217530740F00E94D0367D
:104970008C819D81F8019583848313C00E94473503
:1049800088819981F801918380838A819B819383B7
:1049900082838C819D8195838483198218821B82F6
:1049A0001A821D821C82DF91CF911F910F91089571
:1049B000FC01808191810C944735FC0111821082A9
:1049C00013821282158214820C944924FC011182F4
:1049D000108213821282158214820C948824FC01A6
:1049E0001182108213821282158214826115710560
:1049F00051F0FB0101900020E9F73197AF01461B10
:104A0000570B0C94C8220895BF92CF92DF92EF9279
:104A1000FF920F931F93CF93DF937C016B018A0169
:104A2000E9012417350720F4812F8901C42FD82FDD
:104A30006FE571E0C7010E94EF24D60114968D91B5
:104A40009C91159708171907D0F48C179D0708F447
:104A5000EC01D601ED91FC911197EC0FFD1FB08098
:104A600010824D915C91BA01600F711FC7010E94C5
:104A70007124D601ED91FC91EC0FFD1FB082C701AE
:104A8000DF91CF911F910F91FF90EF90DF90CF902A
:104A9000BF900895DC01ED91FC910280F381E02D3F
:104AA00042E050E06DE571E009941F920F920FB65D
:104AB0000F9211242F933F934F935F936F937F93A4
:104AC0008F939F93AF93BF93EF93FF9386E692E00C
:104AD0000E94A121FF91EF91BF91AF919F918F9182
:104AE0007F916F915F914F913F912F910F900FBEEA
:104AF0000F901F9018951F920F920FB60F921124CE
:104B00002F938F939F93EF93FF93E0917602F09111
:104B100077028081E0917C02F0917D0282FD12C0DB
:104B2000908180917F028F5F8F7320918002821726
:104B300051F0E0917F02F0E0EA59FD4F958F8093AC
:104B40007F0201C08081FF91EF919F918F912F9102
:104B50000F900FBE0F901F901895CF93DF93282FC3
:104B600030E0F901E459FB4F8491F901E85AFB4F19
:104B7000D491F901EC5BFB4FC491CC2391F08111EE
:104B80000E943522EC2FF0E0EE0FFF1FE65CFB4F9A
:104B9000A591B491EC91ED2381E090E021F480E0C7
:104BA00002C080E090E0DF91CF9108951F93CF93F2
:104BB000DF93282F30E0F901E459FB4F8491F9018C
:104BC000E85AFB4FD491F901EC5BFB4FC491CC2325
:104BD000C9F0162F81110E943522EC2FF0E0EE0F64
:104BE000FF1FE05DFB4FA591B4918FB7F8941111B1
:104BF00005C09C91ED2FE095E92302C0EC91ED2BCF
:104C0000EC938FBFDF91CF911F910895CF93DF93E6
:104C100090E0FC01E85AFB4F2491FC01EC5BFB4F58
:104C20008491882361F190E0880F991FFC01EA5D6F
:104C3000FB4FC591D491FC01E05DFB4FA591B49170
:104C4000611109C09FB7F8948881209582238883D9
:104C5000EC912E230BC0623061F49FB7F894388139
:104C6000822F809583238883EC912E2B2C939FBFDA
:104C700006C08FB7F894E8812E2B28838FBFDF9171
:104C8000CF9108952FB7F89460915F0370916003FE
:104C900080916103909162032FBF08950F931F933A
:104CA000CF93DF93EC010E944226688779878A8739
:104CB0009B87E881F9810680F781E02DCE01099577
:104CC00097FF17C00E944226088519852A853B85D3
:104CD000DC01CB01801B910BA20BB30B0C811D815E
:104CE0002E813F8180179107A207B30710F38FEF42
:104CF0009FEFDF91CF911F910F9108951F920F9217
:104D00000FB60F9211242F933F938F939F93AF93DE
:104D1000BF9380915F0390916003A0916103B09174
:104D2000620330915E0326E0230F2D3720F40296B4
:104D3000A11DB11D05C029E8230F0396A11DB11DBA
:104D400020935E0380935F0390936003A0936103BD
:104D5000B093620380915A0390915B03A0915C032E
:104D6000B0915D030196A11DB11D80935A039093EC
:104D70005B03A0935C03B0935D03BF91AF919F91E0
:104D80008F913F912F910F900FBE0F901F9018950C
:104D90001F920F920FB60F9211242F933F934F93B0
:104DA0005F936F937F938F939F93AF93BF93EF9393
:104DB000FF93E0910201F09103010995FF91EF91BA
:104DC000BF91AF919F918F917F916F915F914F9123
:104DD0003F912F910F900FBE0F901F9018951F922B
:104DE0000F920FB60F9211242F933F934F935F931F
:104DF0006F937F938F939F93AF93BF93EF93FF93A3
:104E0000E0910001F09101010995FF91EF91BF91AF
:104E1000AF919F918F917F916F915F914F913F9152
:104E20002F910F900FBE0F901F9018950F931F9307
:104E3000CF93DF938C01EB010E94B1378883C801C7
:104E400001960E94B1378983CE01DF91CF911F91E6
:104E50000F910895EF92FF920F931F93CF93DF93DB
:104E600000D0CDB7DEB78C017B01FB0160819A8356
:104E70008983CE0101960E94B90EF70161810F5F0F
:104E80001F4F1A830983CE0101960E94B90EC701F4
:104E90000F900F90DF91CF911F910F91FF90EF90A6
:104EA0000895CF93DF93EB010E94B1378883CE0141
:104EB000DF91CF9108950F931F93CF93DF9300D08D
:104EC000CDB7DEB78B01FB0160819A838983CE0168
:104ED00001960E94B90EC8010F900F90DF91CF91FB
:104EE0001F910F9108950F931F93CF93DF9300D0DD
:104EF00000D000D0CDB7DEB7FC0182818823C1F09D
:104F00008B01BF012AE04EE150E0CE0101960E94E4
:104F1000410CBE016F5F7F4FC8010E948D2311E0DD
:104F2000811101C010E0CE0101960E94D82401C079
:104F300010E0812F26960FB6F894DEBF0FBECDBFCE
:104F4000DF91CF911F910F910895EF92FF920F93F0
:104F50001F93CF93DF9300D0CDB7DEB78C017B01D9
:104F6000FB0160819A838983CE0101960E94B90E6C
:104F7000F70161810F5F1F4F1A830983CE010196EC
:104F80000E94B90EC7010F900F90DF91CF911F9132
:104F90000F91FF90EF900895CF93DF9300D000D052
:104FA00000D0CDB7DEB76DEA74E0CE0101960E9465
:104FB000DD2460E0CE0101960E94B420CE0101966E
:104FC0000E94D82466EA74E0CE0101960E94DD2496
:104FD00060E0CE0101960E94B420CE0101960E94AD
:104FE000D8246AE974E0CE0101960E94DD2460E0D5
:104FF000CE0101960E94B420CE0101960E94D824D1
:1050000081E08983BE016F5F7F4F84E893E00E9457
:105010005B271A821982BE016F5F7F4F84E993E09C
:105020000E94A5271982BE016F5F7F4F80E993E040
:105030000E945B2764E683E093E00E94890F83E08F
:1050400093E00E94D21226960FB6F894DEBF0FBEF0
:10505000CDBFDF91CF9108951F93CF93DF9300D001
:1050600000D000D0CDB7DEB76BE874E0CE0101967A
:105070000E94DD2461E0CE0101960E94B420182F29
:10508000CE0101960E94D824812F26960FB6F8945F
:10509000DEBF0FBECDBFDF91CF911F910895CF929C
:1050A000DF92EF92FF920F931F93CF93DF93CDB7D1
:1050B000DEB72C970FB6F894DEBF0FBECDBF67EFFB
:1050C00071E0CE0101960E94EF2440E0BE016F5FC7
:1050D0007F4F83E093E00E941211CE0101960E945F
:1050E000D8240E9442266B017C010E944226DC01EA
:1050F000CB018C199D09AE09BF0988389341A105E0
:10510000B10508F043C08091330390913403DC0172
:10511000ED91FC910480F581E02D0995892B29F30F
:105120006091330370913403CE0107960E94D71B20
:1051300060E874E0CE0101960E94DD240BE02AE0D5
:10514000AE014F5F5F4FBE01695F7F4F83E093E029
:105150000E94B40F182FCE0101960E94D82411236B
:1051600051F060E070E0CE0107960E944223833345
:1051700039F0813331F0CE0107960E94D824B5CFA3
:1051800010E0CE0107960E94D82401C010E0812FC4
:105190002C960FB6F894DEBF0FBECDBFDF91CF9136
:1051A0001F910F91FF90EF90DF90CF900895CF92D5
:1051B000DF92EF92FF921F93CF93DF9300D000D046
:1051C00000D0CDB7DEB7BC01CE0101960E94E62427
:1051D00040E0BE016F5F7F4F83E093E00E941211B9
:1051E000CE0101960E94D8240E9442266B017C01C8
:1051F0000E944226DC01CB018C199D09AE09BF0932
:1052000088389341A105B10590F5809133039091C1
:105210003403DC01ED91FC910480F581E02D0995CA
:10522000892B31F36091330370913403CE010196E1
:105230000E94D71B63EF71E0CE0101960E946E239E
:1052400081110DC061ED71E0CE0101960E946E23C7
:10525000811107C0CE0101960E94D824C9CF11E068
:1052600001C010E0CE0101960E94D82401C010E0D8
:10527000812F26960FB6F894DEBF0FBECDBFDF910B
:10528000CF911F91FF90EF90DF90CF900895CF9333
:10529000DF9300D000D000D0CDB7DEB76CEC74E067
:1052A000CE0101960E94DD2460E0CE0101960E94AD
:1052B000B420CE0101960E94D82426960FB6F89409
:1052C000DEBF0FBECDBFDF91CF910895EF92FF9269
:1052D0000F931F93CF93DF93CDB7DEB72A970FB607
:1052E000F894DEBF0FBECDBF81E08093170368EC5A
:1052F00074E0CE0101960E94DD247E0187E0E80E75
:10530000F11C08E413E0C8010E94B137F701819352
:105310007F010F5F1F4F0C34F3E01F07A1F74F8190
:10532000588569857A85CE0101960E94EF2340E079
:1053300061E0CE0101960E94B91ECE0101960E9445
:10534000D8242A960FB6F894DEBF0FBECDBFDF91EA
:10535000CF911F910F91FF90EF900895CF93DF931E
:1053600000D000D000D0CDB7DEB76AEB74E0CE013C
:1053700001960E94DD2460E0CE0101960E94B420D7
:10538000CE0101960E94D82426960FB6F894DEBF6F
:105390000FBECDBFDF91CF9108950F931F93CF9391
:1053A000DF93CDB7DEB72C970FB6F894DEBF0FBEF4
:1053B000CDBF6AED74E0CE0107960E94DD2420E5A2
:1053C00030E140E050E0BE01695F7F4F83E093E051
:1053D0000E94F41B882381F16EE871E0CE010196F2
:1053E0000E94EF244B855C858D819E81481B590B63
:1053F000BE016F5F7F4FCE0107960E94F4228C01A1
:10540000CE0101960E94D824A80155279A012C5F4D
:105410003F4F4F5F5F4FBE01695F7F4FCE010196E7
:105420000E940425CE0101960E94E9228B01CE0143
:1054300001960E94D82402C000E010E0CE01079639
:105440000E94D824C8012C960FB6F894DEBF0FBE78
:10545000CDBFDF91CF911F910F910895CF93DF932F
:10546000CDB7DEB764970FB6F894DEBF0FBECDBFE1
:10547000789484B5826084BD84B5816084BD85B52F
:10548000826085BD85B5816085BD80916E0081603B
:1054900080936E00109281008091810082608093E1
:1054A00081008091810081608093810080918000E3
:1054B0008160809380008091B10084608093B1000E
:1054C0008091B00081608093B00080917A00846008
:1054D00080937A0080917A00826080937A00809134
:1054E0007A008E7F80937A0080917A008068809322
:1054F0007A001092C10084B762E089E00E9406261B
:1055000061E088E00E940626BE016F5F7F4F80EA5F
:1055100090E00E9451278981882311F060E001C04A
:1055200061E088E00E94D62563E573E08AE390E0BD
:105530000E945127809153038F3F41F410925303EF
:1055400063E573E08AE390E00E945B276DE473E01B
:1055500086E390E00E94512780914D038F3F41F4F4
:1055600010924D036DE473E086E390E00E945B27A8
:1055700065E473E08CE590E00E945127809145033B
:105580008F3F41F41092450365E473E08CE590E0B1
:105590000E945B2764E473E088E590E00E94512755
:1055A000809144038F3F41F41092440364E473E01C
:1055B00088E590E00E945B276CE473E080E090E077
:1055C0000E94512780914C038F3F29F460E081E4D1
:1055D00093E00E94930D81E493E00E943D0D64E509
:1055E00073E084E090E00E9416278091540390912C
:1055F0005503019661F482E390E090935503809304
:10560000540364E573E084E090E00E942A2768E593
:1056100073E08CE090E00E945127809158038F3F07
:1056200041F41092580368E573E08CE090E00E942A
:105630005B278EE090E00E94B137809359038F3F43
:1056400029F464E581E493E00E94D90E62E573E0F9
:1056500086E990E00E945127809152038F3F49F4E0
:10566000E12C00E020E040E060E081E493E00E9473
:10567000470D809152038823C1F06EE473E088E9FE
:1056800090E00E9451276FE473E08AE990E00E9465
:10569000512760E573E08CE990E00E94512761E5B5
:1056A00073E08EE990E00E94512761E473E08CE2A0
:1056B00091E00E94512780914103803140F0109287
:1056C000410361E473E08CE291E00E945B2763E4B4
:1056D00073E086E190E00E945127809143038F3F61
:1056E00041F41092430363E473E086E190E00E948A
:1056F0005B2762E473E08AE190E00E945127809189
:1057000042038F3F41F41092420362E473E08AE166
:1057100090E00E945B2766E473E080E293E00E94E1
:105720005127809146038F3F41F41092460366E46F
:1057300073E080E293E00E945B2766E573E082E11C
:1057400090E00E941627809156039091570301968E
:1057500061F482E090E0909357038093560366E5EE
:1057600073E082E190E00E942A2781E493E0909325
:105770000403809303038FE192E0909306038093E8
:10578000050386E692E00E94991B80916800816083
:1057900080936800809168008260809368008091A7
:1057A0006C00816080936C0080916C0082608093BB
:1057B0006C0080916C00806280936C00F89480E0B3
:1057C0000E945B1481E60E945B14789461E081E1A1
:1057D0000E94062661E086E00E94062661E087E0DE
:1057E0000E94062661E085E00E94062611E00AE09C
:1057F00043E0342E52E0252E80910702882309F4DD
:105800003FC00E94C01B8823D9F1809110038111F1
:1058100037C080913603811133C00E944226209107
:1058200018023091190240911A0250911B02DC01BA
:10583000CB01821B930BA40BB50B893E9340A105B2
:10584000B105F0F00E94CD297C0120911702BB2404
:10585000B394B20EB09217020E94422660931802CF
:105860007093190280931A0290931B024CE6E4167F
:1058700041E0F40608F458C610920702109217028D
:1058800080911202882309F10E944226809013021F
:1058900090901402A0901502B0901602DC01CB018A
:1058A00088199909AA09BB0981319742A105B10557
:1058B00060F0109212020E94C01B882331F00E94F7
:1058C000CD298C36914008F4C5C480911102811114
:1058D000EFC18091100281111BC00E9442266034EA
:1058E0007F4181059105A0F00E94CD298C36914021
:1058F00008F4B5C461E088E00E94D6251093100238
:105900001982BE016F5F7F4F80EA90E00E945B27A3
:1059100080910F02811108C00E944226683B7B40A3
:105920008105910508F0A8C480911002882321F117
:105930000E9442262091080230910902DC01CB012D
:10594000821B930BA109B109853F9140A105B105C7
:1059500098F080910401812780930401882311F03D
:1059600061E001C060E081E10E94D6250E944226EC
:1059700070930902609308020E944226683A7146B9
:105980008105910508F463C46BE171E0CE010196D5
:105990000E94EF2460E0CE0101960E94B420CE0167
:1059A00001960E94D82468EC70E0CE0101960E9416
:1059B000DD2460E0CE0101960E94B420F82ECE01D5
:1059C00001960E94D824FF2009F4F5C06CEB70E02A
:1059D000CE010D960E94DD2460E0CE010D960E945E
:1059E000B420882309F4E3C060EB70E0CE01079691
:1059F0000E94DD2460E0CE0107960E94B420F82EBC
:105A0000882381F06CE970E0CE0101960E94DD24CC
:105A100060E0CE0101960E94B420F82ECE010196DE
:105A20000E94D824CE0107960E94D824CE010D965C
:105A30000E94D824FF2009F4BEC06FE870E0CE01B8
:105A400001960E94DD2460E0CE0101960E94B42000
:105A5000CE0101960E94D82463E870E0CE01019641
:105A60000E94DD2460E0CE0101960E94B420CE01A8
:105A700001960E94D8246CE770E0CE0101960E9446
:105A8000DD2460E0CE0101960E94B420CE01019693
:105A90000E94D8241093350360E770E0CE01019690
:105AA0000E94DD2460E0CE0101960E94B420CE0168
:105AB00001960E94D82468E670E0CE010D960E94FF
:105AC000DD243CE2432E3CE0532E612C712CA301DB
:105AD0009201BE01635F7F4F83E093E00E94F41B5D
