:100000000C9465020C9453200C942C200C947B1AB5
:100010000C94E01A0C94B11A0C948D020C948D027D
:100020000C948D020C948D020C948D020C948D0214
:100030000C948D020C948D020C948D020C948D0204
:100040000C94E21F0C948D020C94DF1E0C94B91ECC
:100050000C948D020C948D020C948D020C948D02E4
:100060000C948D020C948D0241542B43434944005F
:1000700041542B444445543D310D0A004154265708
:100080000D0A0041542B434C54533D310D0A00419D
:10009000542B4353434C4B3D310D0A0041542B43E9
:1000A0004E4D493D322C312C302C302C300D0A0075
:1000B00041542B434D47463D310D0A0041542B43DB
:1000C0004C43433D310D0A0041542B434C49503DB4
:1000D000310D0A004D4158434544440043455252B6
:1000E0000055504453554343004154410041542B63
:1000F000444445543D310D0A002B4350494E3A20AB
:100100004E4F542052454144590D0043616C6C20C0
:1001100052656164790D0041542B434D4744413D84
:100120002244454C20414C4C220D0A0041542B46A0
:10013000545050573D223132333435363738392216
:100140000D0A0041542B465450554E3D22726168B1
:10015000756C6E726174686F646B636C220D0A005B
:1001600041542B465450534552563D220041542B86
:100170004654504349443D310D0A002B46545053D8
:10018000495A453A20312C302C0041542B465450CA
:1001900053495A450D0A0041542B46545047455483
:1001A0000041542B53415042523D312C310D0A0035
:1001B00041504E222C220041542B53415042523D7B
:1001C000332C312C2200436F6E54797065222C221F
:1001D00047505253220D0A0041542B534150425272
:1001E0003D332C312C22004F4B203A2000524555F4
:1001F00050440050524753495A4500444300535518
:10020000500050524755504400564D52303200561F
:100210004D4D3031002A2A2A2A4D2B002E616D7255
:10022000222C302C3130302C310D0041542B4352D4
:1002300045433D342C22000A4E6574776F726B3A49
:10024000000A426174253A00204F46460A00204FBA
:100250004E0A00204F4E0A004D6F746F723A002014
:100260004F46460A0020322050484153450A00417B
:1002700055544F4F4646004155544F4F4E0045523E
:10028000524F52203A20004F4B203A200041542B2D
:10029000435553443D312C220042414C00415554BA
:1002A0004F54494D45004155544F54494D45005315
:1002B00054415254494D45005354415254494D45BF
:1002C000005354414745005354414745004E435461
:1002D000494D450053455454494D45004E434F4602
:1002E0004600414D4F464600414D4F4E0041542B74
:1002F0004342430041542B435351005354415455FE
:1003000053004F56464F4646004F56464F4E0052FA
:1003100045535000444E444F464600444E444F4ED1
:10032000004259504F4646004259504F4E004155E9
:10033000544F4F4646004155544F4F4E0044494498
:10034000005245534554004E6F204E756D626572E4
:10035000004E554D0044454641554C5400434C45D4
:100360004152414C4C0057414954002B43434C4BA4
:100370003A200041542B435245433D350D00373060
:100380003431313936393539000000000024002776
:10039000002A0000000000250028002B00000000BB
:1003A00000230026002900040404040404040402B9
:1003B0000202020202030303030303010204081002
:1003C00020408001020408102001020408102000CF
:1003D0000000080002010000030407000000000004
:1003E00000000037303431313936393539004E4F5D
:1003F00020414E535745520D00425553590D004E62
:100400004F20434152524945520D002B434C434328
:100410003A20312C302C0041542B434855500022B7
:100420002C320041542B5654533D220041542B434F
:100430004357413D302C300D0A0049443A004154A5
:100440002B4346554E3D312C310D0A003935383697
:10045000313335393738003733383336323236377F
:1004600038003733383336313432313400373639A7
:10047000383433393230310037303431313936396C
:1004800035390041542B43434C4B3F002B534150D3
:1004900042523A20312C0041542B53415042523D9C
:1004A000302C310D0A0041542B434F50533D320D37
:1004B0000A00415426570D0A0041542B4353434C24
:1004C0004B3D300D0A004534E63311241FBECFEFFB
:1004D000D8E0DEBFCDBF12E0A0E0B1E0EAE3F2E792
:1004E00002C005900D92A030B107D9F723E0A0E03B
:1004F000B2E001C01D92A437B207E1F712E0C4E6F2
:10050000D2E004C02197FE010E94AF35C336D10767
:10051000C9F70E94592A0C9410390C94711A4F9201
:100520005F926F927F928F929F92AF92BF92CF9283
:10053000DF92EF92FF920F931F93CF93DF93CDB78C
:10054000DEB7A5970FB6F894DEBF0FBECDBF0E94F1
:10055000A61F0091160310911703209118033091E4
:100560001903DC01CB01801B910BA20BB30B80366E
:100570009A4EA105B10510F10E94A61F60931603C3
:1005800070931703809318039093190380911A03B3
:1005900091E0980F9C3318F490931A030FC08B537B
:1005A00080931A0380911B038F5F883118F4809326
:1005B0001B0304C010921B030E94082A80914B0366
:1005C0008823B1F00E94A61F00914C0310914D03A7
:1005D00020914E0330914F03DC01CB01801B910B26
:1005E000A20BB30B813D9740A105B10508F0FFC5F3
:1005F00080912E03882371F10E94A61F0091310380
:10060000109132032091330330913403AB01BC01CC
:10061000401B510B620B730B20912F033091300361
:10062000E4E6E29FC001E39F900D1124A0E0B0E05A
:10063000481759076A077B0768F0E0911403F091A7
:10064000150383A5811106C060E084E00E943A1F73
:1006500010922E03809135038E3409F052C08091A0
:1006600036038E3409F09FC080914303811116C078
:100670000E94A61F00914403109145032091460358
:1006800030914703DC01CB01801B910BA20BB30B14
:10069000893E9340A105B10508F0ACC580913A03AD
:1006A000882309F480C0E0911203F09113031289AA
:1006B00080914303882309F476C080913903813007
:1006C00009F49CC50E94A61FC0903B03D0903C0338
:1006D000E0903D03F0903E039B01AC012C193D09D5
:1006E0004E095F0969017A01212F30E0A0E6BAEED8
:1006F0000E9401396C157D058E059F0508F47EC5A5
:1007000052C0893419F0823509F04DC00E94A61FED
:10071000009128031091290320912A0330912B0383
:10072000AB01BC01401B510B620B730B20912603E4
:1007300030912703E4E6E29FC001E39F900D11246E
:10074000A0E0B0E0481759076A077B0740F08091A6
:1007500040038DA30E9446238DA10E94B62580915F
:100760002303882301F10E94A61FE0911E0300913C
:100770001F03109120032091210330912203AB012C
:10078000BC01401B510B620B730B34E6E39FC001AD
:100790001124092E000CAA0BBB0B84179507A60782
:1007A000B70708F445C58FE4C82E92E5B92E29E4B1
:1007B000D22E8091480390914903DC01ED91FC9188
:1007C0000480F581E02D09951816190614F00C9493
:1007D000200CCE014F960E9400260BA1015060E232
:1007E00071E0CE0101960E94531E26E0AE014F5FDC
:1007F0005F4FBE01615E7F4F82E193E00E9413165E
:10080000182FCE0101960E943C1E112321F08091E9
:100810002D0381116FC50BA1015067E271E0CE017C
:1008200001960E94531E2CE0AE014F5F5F4FBE0148
:10083000615E7F4F82E193E00E941316E82ECE01A5
:1008400001960E943C1EEE2071F1BE01615E7F4F59
:10085000CE010D960E944A1E6EE271E0CE0107960F
:100860000E94531EBE01635F7F4FCE0107960E9418
:10087000A61DBE01695F7F4FCE0101960E944A1EF0
:1008800041E0BE016F5F7F4F82E193E00E942E172F
:10089000CE0101960E943C1ECE0107960E943C1E8E
:1008A000CE010D96BBC267E371E0CE0101960E94B6
:1008B000531E02E228E1AE014F5F5F4FBE01615E51
:1008C0007F4F82E193E00E941316982ECE0101968D
:1008D0000E943C1EBE01615E7F4FCE01992009F44B
:1008E0005DC201960E944A1ECE0101960E946826B2
:1008F000F82ECE0101960E943C1EBE01615E7F4F24
:10090000CE0101960E944A1EBE016F5F7F4F80910B
:100910001203909113030E94D014A82ECE010196C9
:100920000E943C1EF11027C0BE01615E7F4FCE01C8
:1009300001960E944A1EBE016F5F7F4F8091120395
:10094000909113030E948114182F81110DC0A110E2
:100950000AC0E0911203F091130311E08081882313
:1009600019F010E001C0192DCE0101960E943C1E25
:10097000112309F4ADC1CE0101960E940026BE01EB
:100980006F5F7F4FCE014F960E94031ECE010196EE
:100990000E943C1E0F8D18A10115110541F4E09134
:1009A0001203F09113038081882371F03AC0F8019B
:1009B00080818823A1F3082E000C990B0E94B9377F
:1009C000D8018D938D01F3CFF1102BC065E172E05A
:1009D000CE0101960E94411EBE016F5F7F4FCE0186
:1009E0004F960E94B71C182FCE0101960E943C1E04
:1009F000112309F415C22BA13CA144E050E0BE0133
:100A0000615E7F4FCE0101960E94681EBE016F5F3E
:100A10007F4FCE014F960E94031ECE0101960E9489
:100A20003C1E6EE371E0CE0101960E94531EBE0192
:100A30006F5F7F4FCE014F960E94B71C182FCE01DB
:100A400001960E943C1E1123C1F02BA13CA141E064
:100A500050E0BE01615E7F4FCE0101960E94681E8C
:100A6000BE016F5F7F4FCE014F960E94031ECE01E5
:100A700001960E943C1E11E001C010E0BE01615EC3
:100A80007F4FCE01FF2009F418C149960E944A1EEB
:100A900081E080932C030D8D015062E072E0CE0165
:100AA00001960E94411E26E0AE014F5F5F4FBE01DE
:100AB000675E7F4F82E193E00E941316F82ECE010D
:100AC00001960E943C1EFF2009F4B0C080913503BE
:100AD0008E3411F40E944623111110C06EEF71E0A4
:100AE000CE0101960E94411E40E061E0CE010196D8
:100AF0000E948E24CE0101960E943C1E898C9A8C05
:100B00008114910429F40E941029811107C40DC099
:100B1000F40180818823B9F3082E000C990B0E9400
:100B2000B137D4018D934D01F3CF60E471E0CE0174
:100B30000D960E94531E68ED71E0CE0107960E944B
:100B4000411E66EC71E0CE0107960E94231DBE0196
:100B5000695F7F4FCE0101960E944A1ECE01019629
:100B60000E949829082FCE0101960E943C1E011177
:100B700002C000E042C067EB71E0CE0107960E9420
:100B8000AD1D60EB71E0CE0107960E94231DBE01F2
:100B9000635F7F4FCE0107960E94A61D6CE571E052
:100BA000CE0107960E94971DBE01695F7F4FCE015F
:100BB00001960E944A1ECE0101960E949829082F94
:100BC000CE0101960E943C1E002399F261EA71E079
:100BD000CE0101960E94411E61E0CE0101960E9465
:100BE000E926082FCE0101960E943C1E002309F23F
:100BF00064E182E193E00E94E815CE0107960E942D
:100C00003C1ECE010D960E943C1E002309F47CC5BB
:100C10000CE0015009F478C562E382E193E00E94A0
:100C2000E8150E9410298823A1F378C30D8D015087
:100C300063EF71E0CE0101960E94411E27E0AE01F4
:100C40004F5F5F4FBE01675E7F4F82E193E00E947E
:100C50001316082FCE0101960E943C1E01118AC571
:100C60000D8D01506DEE71E0CE0101960E94411E86
:100C700025E0AE014F5F5F4FBE01675E7F4F82E1AF
:100C800093E00E941316F82ECE0101960E943C1E9E
:100C9000F11072C510922C03CE0149960E943C1EA1
:100CA000F1106EC0BE01615E7F4FCE0101960E94C1
:100CB0004A1E2A2D412F61E006C001960E944A1E5D
:100CC0002A2D412F60E0CE0101960E94370C54C0BE
:100CD000BE01615E7F4FCE0101960E944A1EBE0199
:100CE0006F5F7F4F80911203909113030E94D7147E
:100CF000182FCE0101960E943C1E112309F440C01A
:100D0000CE0101960E940026BE016F5F7F4FCE018B
:100D10004F960E94031ECE0101960E943C1E6FE07A
:100D200072E0CE0101960E94411EBE016F5F7F4FAF
:100D3000CE014F960E94B71C182FCE0101960E943B
:100D40003C1E1123E9F0E0911203F091130381E0BE
:100D50008483BF016C5F7F4F8CE590E00E94BF20D1
:100D600069E072E0CE0101960E94411E42E061E01E
:100D7000CE0101960E948E24CE0101960E943C1E57
:100D800067E171E0CE0101960E94411E60E0CE0154
:100D900001960E94E926CE01019640C007960E9466
:100DA0004A1E6BE071E0CE0101960E94411EBE0119
:100DB0006F5F7F4FCE0107960E94F11C182FCE0166
:100DC00001960E943C1ECE0107960E943C1E1123F4
:100DD00021F081E080934A0323C0BE01615E7F4F12
:100DE000CE0107960E944A1E69EF70E0CE0101967F
:100DF0000E94411EBE016F5F7F4FCE0107960E9489
:100E0000F11C182FCE0101960E943C1E112321F0E7
:100E10000E9446230E947027CE0107960E943C1E26
:100E20009091410380913503911110C18E3419F0D6
:100E3000823509F091C1909136039E3419F09934AE
:100E400009F0F1C0BE01615E7F4FCE0101960E94A4
:100E50004A1E63E671E0CE0101960E94D21C182F53
:100E6000CE0101960E943C1E112309F4C8C081E006
:100E700080932503B0923503D092360380913703D7
:100E80008F5F80933703843008F0B2C08130E9F47B
:100E90006DEE70E0CE0101960E94411E40E0BE0161
:100EA0006F5F7F4F82E193E00E942E17CE01019683
:100EB0000E943C1E8091480390914903DC01ED9112
:100EC000FC910284F385E02D09956FE571E0CE0178
:100ED0000D960E94531ECE0101960E940026BE016F
:100EE0006F5F7F4FCE010D960E94031ECE010196CB
:100EF0000E943C1E69E671E0CE0101960E94531EDD
:100F000005E12BE0AE014F5F5F4FBE01635F7F4F96
:100F100082E193E00E941316182FCE0101960E94E1
:100F20003C1E1123C1F20E94A61F609328037093F8
:100F3000290380932A0390932B0389899A890A971E
:100F400078F0CE010D960E944326882349F08091C7
:100F50003703823028F080911C03882309F443C4AE
:100F600080911C03882309F440C00E94A61F60934F
:100F700028037093290380932A0390932B031092E4
:100F80001C0381E0809338038091480390914903CA
:100F9000DC01ED91FC910284F385E02D099569EE69
:100FA00070E0CE0101960E94411E41E0BE016F5FDC
:100FB0007F4F82E193E00E942E17CE0101960E949E
:100FC0003C1E8091480390914903DC01ED91FC9116
:100FD0000284F385E02D0995D0923503D092360333
:100FE0006DE482E193E00E941D22CE010D96F8C0CF
:100FF00080911C038111F6C00E944623F3C0BE01FC
:10100000615E7F4FCE0101960E944A1ECE0101967D
:101010000E943224182FCE0101960E943C1E1123FB
:1010200009F4E0C0E9CF893489F49091360399340A
:1010300069F4BE01615E7F4FCE0101960E944A1E97
:10104000CE0101960E943224182FB1C08E3419F0BF
:10105000823509F084C0109136031F3409F0C2C0F4
:10106000BE01615E7F4FCE0101960E944A1ECE01F5
:1010700001960E94E323082FCE0101960E943C1E98
:10108000023579F40E94A61F609328037093290308
:1010900080932A0390932B03009335031093360318
:1010A000A1C0BE01615E7F4FCE0101960E944A1E23
:1010B000CE0101960E943224182F811113C0BE0167
:1010C000615E7F4FCE0107960E944A1ECE010796B1
:1010D0000E94E32311E0853409F010E0CE01079669
:1010E0000E943C1ECE0101960E943C1E112349F035
:1010F000809140038DA30E9446238DA10E94B625B6
:1011000071C0BE01615E7F4FCE0101960E944A1EF2
:10111000CE0101960E94E323182FCE0101960E9472
:101120003C1E193409F05EC00E94A61F609328037C
:101130007093290380932A0390932B031093350314
:10114000C092360381E0809338036091400382E1CE
:1011500093E00E941D2246C0893409F466CF893489
:1011600009F040C0809136038F34E1F5BE01615E25
:101170007F4FCE0101960E944A1ECE0101960E9429
:101180003224182F811113C0BE01615E7F4FCE0142
:1011900007960E944A1ECE0107960E94E32311E0A3
:1011A000853409F010E0CE0107960E943C1ECE0166
:1011B00001960E943C1E11111FCFCE014F960E9436
:1011C0001723882379F0BE01615E7F4FCE0101961F
:1011D0000E944A1ECE0101960E943C22CE01019639
:1011E0000E943C1ECE014F960E943C1EE2CA109205
:1011F0004B03FEC981E08093430350CA80913F03B3
:101200008093400310923A03E0911203F09113038C
:10121000818D8E3409F4C7CA81E08093410382E155
:1012200093E00E940D1782E193E00E949A17BBCAD7
:101230008091480390914903DC01ED91FC91028477
:10124000F385E02D09956BE272E0CE0101960E94D4
:10125000411E40E0BE016F5F7F4F82E193E00E943C
:101260002E17CE0101960E943C1E62E771E0CE016E
:1012700001960E94531E40E0BE016F5F7F4F82E1E6
:1012800093E00E942E17CE0101960E943C1E6091B1
:10129000240382E193E06DA30E940D17809148031F
:1012A00090914903DC01ED91FC910190F081E02DDA
:1012B0006DA109956CE172E0CE0101960E94411E7C
:1012C00041E0BE016F5F7F4F82E193E00E942E17E5
:1012D000CE0101960E943C1E8091480390914903E3
:1012E000DC01ED91FC910284F385E02D09951092CB
:1012F000230359CABE01615E7F4FCE0101960E9451
:101300004A1E40E061E0CE0101960E948E24CE018B
:1013100001960E943C1E10922D037DCABE01675E9D
:101320007F4FCE010D960E944A1E6DE671E0CE0100
:1013300001960E94411E61E0CE0101960E94E926BD
:10134000082FCE0101960E943C1E002309F454C0D0
:1013500060E671E0CE0107960E94411EBE01635F08
:101360007F4FCE0107960E94A61D6CE571E0CE016D
:1013700007960E94971DBE01695F7F4FCE010196BF
:101380000E944A1E61E0CE0101960E94E926082FC4
:10139000CE0101960E943C1E002349F163E471E0F6
:1013A000CE0101960E94411E61E0CE0101960E948D
:1013B000E926082FCE0101960E943C1E0023B9F0B9
:1013C0006CE271E0CE0101960E94411E61E0CE0107
:1013D00001960E94E926082FCE0101960E943C1E2C
:1013E000002329F0CE0107960E943C1E05C0CE01C5
:1013F00007960E943C1E00E0CE010D960E943C1E06
:10140000002309F481C168E471E0CE0143960E9493
:10141000531E67E971E0CE010D960E94411EBE0188
:10142000635F7F4FCE0107960E944A1E6EE471E013
:10143000CE0107960E94971DBE016D5E7F4FCE01C3
:1014400007960E94A61D6CE571E0CE0107960E94EA
:10145000971DBE01695F7F4FCE0101960E944A1E13
:1014600061E0CE0101960E94E926982ECE010196F8
:101470000E943C1E9920E9F0BE01635F7F4FCE01C0
:1014800007960E94EC1D65E571E0CE0107960E946B
:10149000971DBE01695F7F4FCE0101960E944A1ED3
:1014A00060E0CE0101960E94E926CE0101960E94DD
:1014B0003C1ECE0107960E943C1ECE010D960E9456
:1014C0003C1ECE0143960E943C1E992009F41CC18B
:1014D000E0911203F09113038285811164C00E9490
:1014E000A61F2B013C016AE871E0CE0101960E9423
:1014F000411E40E0BE016F5F7F4F82E193E00E949A
:101500002E17CE0101960E943C1E0E94A61FDC01F0
:10151000CB0184199509A609B709803C944DA140D7
:10152000B10508F0F1C08091480390914903DC01B6
:10153000ED91FC910480F581E02D0995892B29F32B
:101540006091480370914903CE0107960E94E325FC
:101550000B8501506BE771E0CE0101960E94411EA0
:101560002EE0AE014F5F5F4FBE01695F7F4F82E1AA
:1015700093E00E941316082FCE0101960E943C1E94
:10158000CE010796002309F4BECF0E949B1CAB013D
:10159000BC0180911203909113030E94AE15CE01FD
:1015A00007960E943C1EE0911203F09113034680BF
:1015B0005780608471846FE771E0CE0143960E948A
:1015C000531EBE016D5E7F4FCE010D960E944A1ED6
:1015D0006BE871E0CE010D960E94971DB301A20148
:1015E000CE010D960E94531D67E671E0CE010D9667
:1015F0000E94971D60E971E0CE0107960E94531E7C
:10160000BE016D5E7F4FCE0107960E94A61D63E965
:1016100071E0CE0107960E94971D0E94A61F2B0124
:101620003C01BE01695F7F4FCE0101960E944A1EB8
:1016300040E0BE016F5F7F4F82E193E00E942E1772
:10164000CE0101960E943C1E0E94A61FDC01CB0128
:1016500084199509A609B709803C944DA140B105AC
:1016600050F58091480390914903DC01ED91FC9184
:101670000480F581E02D0995892B31F360914803B1
:1016800070914903CE0101960E94E325BE016F5F70
:101690007F4FCE0107960E94031ECE0101960E9445
:1016A0003C1EBE01635F7F4FCE0107960E94F11C76
:1016B000882351F2E92CCE0107960E943C1ECE01F0
:1016C0000D960E943C1ECE0143960E943C1EEE20C9
:1016D000D9F081E080932C03111110C06BEF71E001
:1016E000CE0101960E94411E40E061E0CE010196CC
:1016F0000E948E24CE0101960E943C1E0E94ED287D
:101700000E948D28FE2CC8CA0E94ED28E091120389
:10171000F091130312861982BE016F5F7F4F84E838
:1017200093E00E94BF201A821982BE016F5F7F4F33
:1017300084E993E00E94662801E00983BE016F5F9F
:101740007F4F80E993E00E94BF2000932C0311118A
:10175000A3CA60E671E0CE0101960E94531E40E0EC
:1017600061E0CE0101960E948E24CE0101960E9476
:101770003C1E92CA01E001C002E0CE0149960E94DF
:101780009B1CAB01BC0180911203909113030E943A
:10179000AE1567EE71E0CE0107960E94411EBE01B4
:1017A000675E7F4FCE0107960E94A61D111111C0E2
:1017B000BE01695F7F4FCE0101960E944A1E40E044
:1017C00061E0CE0101960E948E24CE0101960E9416
:1017D0003C1E023011F40E948D28CE0107960E9413
:1017E0003C1EF92C59CABE01635F7F4FCE0107969C
:1017F0000E944A1EBE01695F7F4FCE0101960E9482
:101800004A1ECE0101960E946826182F81110DC034
:10181000BE01695F7F4F80911203909113030E9474
:10182000091511E08F3F09F410E0CE0101960E94E6
:101830003C1E10931C03CE0107960E943C1E90CBC9
:10184000A5960FB6F894DEBF0FBECDBFDF91CF9146
:101850001F910F91FF90EF90DF90CF90BF90AF90CE
:101860009F908F907F906F905F904F9008955F92C0
:101870006F927F928F929F92AF92BF92CF92DF92A0
:10188000EF92FF920F931F93CF93DF93CDB7DEB705
:1018900063970FB6F894DEBF0FBECDBF7C01062F55
:1018A000D42E122F60932C03BC01CE010D960E9402
:1018B0004A1E66E673E0CE0101960E94411EBE01FB
:1018C0006F5F7F4FC7010E94B71CC82ECE010196E3
:1018D0000E943C1ECC2019F00E944728B1C66DE53D
:1018E00073E0CE0101960E94411EBE016F5F7F4FE3
:1018F000C7010E94B71CC82ECE0101960E943C1E53
:10190000CC2011F1E0901203F0901303002319F0A2
:10191000F701108203C081E0F7018083B7018CE2F8
:1019200091E00E94BF20F7011182B7016F5F7F4FE6
:101930008AE190E00E94BF20F7011282B7016E5F3A
:101940007F4F86E190E07AC665E573E0CE010196AF
:101950000E94411EBE016F5F7F4FC7010E94B71CEE
:10196000C82ECE0101960E943C1ECC2009F45DC019
:1019700060E080911203909113030E945414E0914F
:101980001203F0911303138ABF016D5E7F4F82E350
:1019900090E00E94BF20E0911203F0911303128A9D
:1019A000BF016E5E7F4F8AE390E00E94BF20E0910E
:1019B0001203F09113031486BF01645F7F4F86E327
:1019C00090E00E94BF20E0911203F0911303108E6B
:1019D000BF01685E7F4F8CE090E00E94BF2063E40F
:1019E00080911203909113030E949A15E0911203C3
:1019F000F091130382E390E0958B848BBF016C5EC2
:101A00007F4F84E090E00E948E20E0911203F091DD
:101A1000130382E090E0978B868BBF016A5E7F4F55
:101A200082E190E00E948E200BC661E573E0CE015A
:101A300001960E94411EBE016F5F7F4FC7010E9449
:101A4000B71CC82ECE0101960E943C1ECC20F1F19D
:101A5000E0901203F09013036FE571E0CE0107965A
:101A60000E94531E10E0F70180811817F8F4FBE084
:101A70001F9FA0011124405D5E4F2AE0B701CE01F7
:101A800001960E94D720BE016F5F7F4FCE0107965F
:101A90000E94A61DCE0101960E943C1E6EE571E0DB
:101AA000CE0107960E94971D1F5FDDCF6FE571E0A5
:101AB000CE0107960E94D21C882309F4D9C567E499
:101AC00073E0CE0107960E94AD1DD2C561E473E0BC
:101AD000CE0101960E94411EBE016F5F7F4FC7017C
:101AE0000E94B71CC82ECE0101960E943C1ECC203D
:101AF00029F082E193E00E94D218E9C56DE373E01A
:101B0000CE0101960E94411EBE016F5F7F4FC7014B
:101B10000E94B71CC82ECE0101960E943C1ECC200C
:101B200019F00E94FF27B9C566E373E0CE01019664
:101B30000E94411EBE016F5F7F4FC7010E94B71C0C
:101B4000C82ECE0101960E943C1ECC2011F061E00F
:101B500014C06EE273E0CE0101960E94411EBE01E8
:101B60006F5F7F4FC7010E94B71CC82ECE01019640
:101B70000E943C1ECC2079F060E08091120390918D
:101B800013030E94541461E0809114039091150393
:101B90000E94501955C568E273E0CE0101960E947B
:101BA000411EBE016F5F7F4FC7010E94B71CC82E48
:101BB000CE0101960E943C1ECC2039F0E091120328
:101BC000F091130381E0848718C061E273E0CE01D5
:101BD00001960E94411EBE016F5F7F4FC7010E94A8
:101BE000B71CC82ECE0101960E943C1ECC2059F095
:101BF000E0911203F09113031486BF01645F7F4FDD
:101C000086E390E01BC56BE173E0CE0101960E9474
:101C1000411EBE016F5F7F4FC7010E94B71CC82ED7
:101C2000CE0101960E943C1ECC2039F0E0911203B7
:101C3000F091130381E0808F18C064E173E0CE015E
:101C400001960E94411EBE016F5F7F4FC7010E9437
:101C5000B71CC82ECE0101960E943C1ECC2059F024
:101C6000E0911203F0911303108EBF01685E7F4F65
:101C70008CE090E0E3C46FE073E0CE0101960E9437
:101C8000411EBE016F5F7F4FC7010E94B71CC82E67
:101C9000CE0101960E943C1ECC20E1F0F701848128
:101CA0009581059708F413C564E070E0C7010E94B0
:101CB000A61C982F9D7F913429F0843519F08E341D
:101CC00009F005C5682F80911203909113030E94BB
:101CD0009A15B6C469E073E0CE0101960E94411ED8
:101CE000BE016F5F7F4FC7010E94B71CC82ECE0197
:101CF00001960E943C1ECC2039F0E0911203F09135
:101D0000130381E0838B18C062E073E0CE0101967B
:101D10000E94411EBE016F5F7F4FC7010E94B71C2A
:101D2000C82ECE0101960E943C1ECC2059F0E091B5
:101D30001203F0911303138ABF016D5E7F4F82E39C
:101D400090E07CC46BEF72E0CE0101960E94411ED0
:101D5000BE016F5F7F4FC7010E94B71CC82ECE0126
:101D600001960E943C1ECC2009F4E9C064EF72E0A9
:101D7000C7010E94AD1D49E456E160E070E0C70173
:101D80000E948F27882339F0C7010E949B1C162FC1
:101D9000110F160F01C01FEF65E082E193E00E9472
:101DA000E8156DEE72E0C7010E94AD1D4FEA56E1E5
:101DB00060E070E0C7010E948F27882309F455C0B6
:101DC0006EE871E0CE0107960E94531EF7018481F0
:101DD00095812B853C856C01C21AD30A21153105EA
:101DE00051F1009741F18217930728F1C816D906DF
:101DF00020F06C01F1E0CF1AD108F701608071800A
:101E00008F809884C30155245A940FEF5301AC0C72
:101E1000BD1CA816B90690F0B4010E94F7370097D0
:101E200069F0AC0146195709C416D50610F0542EB6
:101E3000052F0196EECF2FEF3FEF02C0252D302F5B
:101E400040E050E0B701CE0101960E94681ECE012D
:101E500001960E949B1C062FCE0101960E943C1EFB
:101E6000CE0107960E943C1E01C00FEFC0901403E4
:101E7000D0901503C6010E941B19F82EF601E2A4AA
:101E800067E772E0CE0101960E94411EE0911203C5
:101E9000F09113038385811106C06FE672E0CE01D5
:101EA00001960E94AD1D60EA71E0CE0101960E948C
:101EB000971DF1E0FF1631F022E0F21631F06FE5E8
:101EC00072E005C063E572E002C065E672E0CE0133
:101ED00001960E94231D68E572E0CE0101960E94E2
:101EE000231DE11003C068E472E002C06EE472E0FA
:101EF000CE0101960E94231D0F3F59F061E472E06C
:101F0000CE0101960E94231D602FCE0101960E94F2
:101F10001A341F3F59F067E372E0CE0101960E9428
:101F2000231D612FCE0101960E941A3440E061E02A
:101F3000CE0101960E948E24CE010196ACC368EEBC
:101F400072E0CE0101960E94411EBE016F5F7F4F7D
:101F5000C7010E94B71C882321F0002319F011E06B
:101F600001C010E0CE0101960E943C1E112359F0E1
:101F7000E0911203F09113038281882309F4A7C32F
:101F800081E0818318C062EE72E0CE0101960E946A
:101F9000411EBE016F5F7F4FC7010E94B71C182F03
:101FA000CE0101960E943C1E112359F0E0911203CC
:101FB000F09113031182BF016F5F7F4F8AE190E0C0
:101FC0003DC36CED72E0CE0101960E94411EBE0140
:101FD0006F5F7F4FC7010E94B71C182FCE0101967B
:101FE0000E943C1E112361F0E12C00E020E040E063
:101FF00060E080911203909113030E94081420C3A3
:1020000064ED72E0CE0101960E94411E0BE027E0D4
:10201000AE014F5F5F4FB70182E193E00E9413165C
:10202000182FCE0101960E943C1E1123F1F122E0EF
:1020300030E040E050E0B701CE0101960E94681EFA
:10204000CE0101960E949B1CCE0101966B8B0E94D3
:102050003C1E6B89683108F03AC360931B0324E08F
:1020600030E042E050E0B701CE0101960E94681EC8
:10207000CE0101960E949B1CCE0101966B8B0E94A3
:102080003C1E6B896C3308F022C324E030E042E050
:1020900050E0B701CE0101960E94681ECE01019664
:1020A0000E949B1C60931A0380C26DEC72E0CE010B
:1020B00001960E94411E0FE026E0AE014F5F5F4F88
:1020C000B70182E193E00E941316182FCE0101960A
:1020D0000E943C1E112309F487C064E070E0C70130
:1020E0000E94A61C8D3209F0F2C222E030E040E0EE
:1020F00050E0B701CE0107960E94681ECE010796F8
:102100000E949B1C162F24E030E042E050E0B70113
:10211000CE0101960E94681EBE016F5F7F4FCE0107
:1021200007960E94031ECE0101960E943C1ECE011E
:1021300007960E949B1CC62E27E030E045E050E049
:10214000B701CE0101960E94681EBE016F5F7F4FEE
:10215000CE0107960E94031ECE0101960E943C1EEE
:10216000CE0107960E949B1C062F29E030E047E035
:1021700050E0B701CE0101960E94681EBE016F5F5C
:102180007F4FCE0107960E94031ECE0101960E944A
:102190003C1ECE0107960E949B1C1831F8F48BE37D
:1021A0008C15E0F00831D0F46C33C0F48091120348
:1021B0009091130310130AC0C61208C0E12C00E06E
:1021C00020E040E060E00E94081408C0E62E2C2DBC
:1021D000412F61E00E94081411E001C010E0CE011F
:1021E00007960E943C1E2DC2F7010481015067EC46
:1021F00072E0CE0101960E94411E25E0AE014F5FC4
:102200005F4FB70182E193E00E941316182FCE01B1
:1022100001960E943C1E1123F1F0C7010E94432643
:10222000882309F454C2C7010E949B1C8B016630AD
:10223000710510F005E010E0E0911203F091130336
:10224000028BBF016E5E7F4F8AE390E00E94BF2049
:1022500061EC72E07BC0F7010481015068EB72E031
:10226000CE0101960E94411E28E0AE014F5F5F4FF4
:10227000B70182E193E00E941316182FCE01019658
:102280000E943C1E112329F1C7010E944326882386
:1022900009F41DC2C7010E949B1C8B0162307105AD
:1022A00030F0613B744028F000EB14E002C002E023
:1022B00010E0E0911203F0911303178B068BBF011E
:1022C0006A5E7F4F82E190E00E948E206FEA72E0AA
:1022D0003DC0F7010481015066EA72E0CE0101962B
:1022E0000E94411E28E0AE014F5F5F4FB70182E1BF
:1022F00093E00E941316182FCE0101960E943C1EF7
:10230000112371F1C7010E944326882309F4DFC11C
:10231000C7010E949B1C8B016233710530F061384C
:10232000704728F000E810E702C002E310E0E091F7
:102330001203F0911303158B048BBF016C5E7F4F6A
:1023400084E090E00E948E206DE972E0CE010D964F
:102350000E94AD1DB801CE010D960E94EA3370C1F6
:10236000F7010481015069E972E0CE0101960E94F3
:10237000411E23E0AE014F5F5F4FB70182E193E062
:102380000E941316182FCE0101960E943C1E1123A5
:1023900021F16DE872E0CE0107960E94411EB7015F
:1023A000CE0107960E94A61D60E771E0CE01079658
:1023B0000E94971D81E080932D03BE01695F7F4FCE
:1023C000CE0101960E944A1E41E0BE016F5F7F4F21
:1023D00082E193E00E942E1758C165EA71E0CE01B8
:1023E00001960E94531E0CE022E0AE014F5F5F4F4A
:1023F000B70182E193E00E941316182FCE010196D7
:102400000E943C1E112309F448C0C7010E944326C4
:10241000882309F45CC10091120310911303F801A1
:102420008081823008F453C1B701C8010E940915A8
:10243000F82E8FEF8F0D8D3F08F049C18BE0E82E0D
:102440002F2D30E0F8019081492F50E04150510983
:1024500024173507FCF42F5F3F4FE29E5001E39EA7
:10246000B00C1124A501405D5E4F2AE0B801CE01F9
:1024700001960E94D720B5016B5D7E4FAE014F5F84
:102480005F4FC8010E948D13CE0101960E943C1E31
:10249000F394D6CF9150908348C069EA71E0CE01A1
:1024A00001960E94531E0CE022E0AE014F5F5F4F89
:1024B000B70182E193E00E941316182FCE01019616
:1024C0000E943C1E1123A9F1C7010E9443268823C4
:1024D00009F4FDC00091120310911303F8018081EB
:1024E0008F3009F4F4C0B701C8010E9409158F3F6D
:1024F00009F0EDC0B701CE0101960E944A1EF80115
:102500006081FBE06F9FB0011124605D7E4FAE01E2
:102510004F5F5F4FC8010E948D13CE0101960E944C
:102520003C1EF80180818F5F8083B8018CE291E0CE
:1025300085C068EA71E0CE0101960E94531E0DE04D
:1025400023E0AE014F5F5F4FB70182E193E00E944D
:102550001316182FCE0101960E943C1E112351F133
:10256000C7010E944326882309F4B1C000911203D9
:1025700010911303F8018081882309F4A8C081E039
:102580008283B8016E5F7F4F86E190E00E94BF209A
:10259000B701CE0101960E944A1EAE014F5F5F4F08
:1025A0006EE170E0C8010E948D13CE0101960E9479
:1025B0003C1E46C06CEA71E0CE0101960E94531E9B
:1025C0000DE023E0AE014F5F5F4FB70182E193E082
:1025D0000E941316182FCE0101960E943C1E112353
:1025E00009F475C0C7010E944326882309F46FC00F
:1025F000009112031091130381E0F8018383B80165
:102600006D5F7F4F88E590E00E94BF20B701CE014B
:1026100001960E944A1EAE014F5F5F4F60E670E078
:10262000C8010E948D13CE0101960E943C1EF80144
:102630001482B8016C5F7F4F8CE590E00E94BF2050
:1026400011E0D1102AC067E872E0CE0107960E941F
:10265000411E111106C06EE772E0CE0107960E947E
:10266000AD1DBE01635F7F4FCE0107960E94A61D80
:10267000BE01695F7F4FCE0101960E944A1E40E075
:1026800061E0CE0101960E948E24CE0101960E9447
:102690003C1ECE0107960E943C1ECE010D960E9464
:1026A0003C1E63960FB6F894DEBF0FBECDBFDF9120
:1026B000CF911F910F91FF90EF90DF90CF90BF903F
:1026C000AF909F908F907F906F905F90089510E0F3
:1026D000B8CF81E080936E0208950E94A61FE2E1C8
:1026E000F3E062AF73AF84AF95AF81E081AF08953F
:1026F000FB0184819581409770F0CB0160E070E030
:102700000E94A61C282F880F330B2053310981E02B
:102710002A30310508F080E008958F929F92AF92A1
:10272000BF92CF92DF92EF92FF920F931F93CF93BE
:10273000DF93CDB7DEB76B01ADB6BEB6FA01E4806C
:10274000F580C70101962DB73EB7281B390B0FB690
:10275000F8943EBF0FBE2DBF0DB71EB70F5F1F4FC2
:10276000892B99F00115110581F0E114F10411F4A0
:10277000F8010AC0FA0160817181A701C8010E94B5
:10278000E837F801EE0DFF1D1082F80101900020DE
:10279000E9F73197E01BF10BC11424E0D206D8F41D
:1027A000FF24F394FE0EC6018F0D911D81159440F8
:1027B00090F44801C01AD10A882D801B8F1548F467
:1027C000C601880D991DF40161914F010E94BC382A
:1027D000F3CF81E001C080E00FB6F894BEBE0FBE1B
:1027E000ADBEDF91CF911F910F91FF90EF90DF90E1
:1027F000CF90BF90AF909F908F900895FC018385FC
:10280000882311F061E001C060E082E10C943A1F7E
:10281000CF92DF92EF920F93CF93DF9300D0CDB79B
:10282000DEB76C01FC01618BBC016F5E7F4F86E9F6
:1028300090E02A8349830E94BF20F60181892A8182
:102840004981882341F1458726870787E08AB601B9
:10285000635F7F4F88E990E00E94BF20B601625F0E
:102860007F4F8AE990E00E94BF20B601615F7F4FF1
:102870008CE990E00E94BF20B601605F7F4F8EE937
:1028800090E00F900F90DF91CF910F91EF90DF903C
:10289000CF900C94BF200F900F90DF91CF910F91AC
:1028A000EF90DF90CF900895CF93DF93EC016B878B
:1028B000BC01655F7F4F80E090E00E94BF20CE01A9
:1028C000DF91CF910C94FE13CF93DF93EC01FB01CA
:1028D0008081882369F08181882319F04EE150E0DE
:1028E00002C040E351E02AE0CE010E94D72005C09B
:1028F0006EE773E0CE010E94411ECE01DF91CF91C1
:102900000895DF92EF92FF920F931F93CF93DF937F
:1029100000D000D000D0CDB7DEB7FC01208122234B
:1029200069F17B018C012AE040E351E0BC01CE015A
:1029300001960E94D720B701CE0101960E94F11C9A
:10294000D82ECE0101960E943C1ED11019C0B701AD
:10295000CE0101960E944A1EF8018081882341F031
:10296000BE016F5F7F4FC8010E944221182F01C036
:1029700010E0CE0101960E943C1E03C010E001C091
:1029800011E0812F26960FB6F894DEBF0FBECDBFA3
:10299000DF91CF911F910F91FF90EF90DF900895FD
:1029A000FC01208121110C94422180E008950F93B5
:1029B0001F93CF93DF9300D000D000D0CDB7DEB708
:1029C000FC0183818823C1F08B01BF012AE040E62E
:1029D00050E0CE0101960E94D720BE016F5F7F4F6D
:1029E000C8010E94F11C11E0811101C010E0CE016C
:1029F00001960E943C1E01C010E0812F26960FB662
:102A0000F894DEBF0FBECDBFDF91CF911F910F9124
:102A10000895CF92DF92EF92FF920F931F93CF937F
:102A2000DF9300D000D000D0CDB7DEB77C016B01C2
:102A3000FC018081811106C0F7018481882309F49B
:102A400043C030C0CE0101960E944A1EBE016F5F96
:102A50007F4FC7010E948114182FCE0101960E945A
:102A60003C1E111133C011E0F7018081181720F7C7
:102A7000FBE01F9FA0011124405D5E4F2AE0B701DB
:102A8000CE0101960E94D720B601CE0101960E9488
:102A9000F11C082FCE0101960E943C1E011118C0A6
:102AA0001F5FE2CFB601CE0101960E944A1EBE0111
:102AB0006F5F7F4FC7010E94D714182FCE01019678
:102AC0000E943C1E111106C08FEF05C080E003C0BC
:102AD000812F01C08EEF26960FB6F894DEBF0FBE91
:102AE000CDBFDF91CF911F910F91FF90EF90DF90BD
:102AF000CF900895EF92FF920F931F93CF93DF93A0
:102B00001F92CDB7DEB77C01FC0100811181C801A5
:102B100069830E94B4386981681719F0C8010E945E
:102B2000BC38C7010F90DF91CF911F910F91FF909B
:102B3000EF900895CF93DF9300D0CDB7DEB7FC01BF
:102B4000618F8EE090E09A838983CE0101960E9486
:102B50007A150F900F90DF91CF910895EF92FF9229
:102B60000F931F93CF93DF9300D0CDB7DEB721E053
:102B7000FC01228746835783608771878C010A5F37
:102B80001F4F88E8E82E83E0F82EF80161918F014D
:102B9000FA82E982CE0101960E947A15FFEFEF1AC0
:102BA000FF0A8CE8E81683E0F80679F70F900F909B
:102BB000DF91CF911F910F91FF90EF900895FC014D
:102BC00023A1293421F421E023870C941D220895A8
:102BD0008F929F92AF92BF92CF92DF92EF92FF922D
:102BE000C62E0E94A61F4B015C0184E6C89E6001B0
:102BF00011240D2C000CEE08FF080E94A61FDC011A
:102C0000CB0188199909AA09BB098C159D05AE0548
:102C1000BF0598F3FF90EF90DF90CF90BF90AF90FB
:102C20009F908F900895EF92FF920F931F93CF93F1
:102C3000DF9300D000D000D0CDB7DEB77B01122FDC
:102C4000BA01C7010E94B71C8823A9F0202F30E0E9
:102C5000412F50E0B701CE0101960E94681EBE01CF
:102C60006F5F7F4FC7010E94031ECE0101960E9435
:102C70003C1E81E001C080E026960FB6F894DEBFCE
:102C80000FBECDBFDF91CF911F910F91FF90EF90BD
:102C90000895CF92DF92EF92FF920F93CF93DF933D
:102CA00000D000D000D0CDB7DEB76C017B01FB01B6
:102CB0000481035060EB71E0CE0101960E94531E27
:102CC00025E0AE014F5F5F4FB701C6010E941316AA
:102CD000082FCE0101960E943C1E802F26960FB62B
:102CE000F894DEBF0FBECDBFDF91CF910F91FF9063
:102CF000EF90DF90CF900895CF92DF92EF92FF9206
:102D00000F931F93CF93DF9300D000D000D0CDB7A7
:102D1000DEB77C016B016BE673E0CE0101960E9489
:102D2000411E06E121E1AE014F5F5F4FB601C701D1
:102D30000E941316182FCE0101960E943C1E812F6F
:102D400026960FB6F894DEBF0FBECDBFDF91CF91B0
:102D50001F910F91FF90EF90DF90CF9008958F9289
:102D60009F92AF92BF92CF92DF92EF92FF920F931A
:102D7000CF93DF93CDB7DEB72C970FB6F894DEBFB5
:102D80000FBECDBF5C016B01FB01048101506EE8F9
:102D900071E0CE0107960E94531EF6018481958151
:102DA000892B69F0808091806F817885C4010E94B1
:102DB000F737009721F07C01E818F90803C0EE24EA
:102DC000EA94FE2C65EB71E0CE0101960E94531E41
:102DD00021E02E0DAE014F5F5F4FB601C5010E948D
:102DE0001316082FCE0101960E943C1ECE010796B5
:102DF0000E943C1E802F2C960FB6F894DEBF0FBEAB
:102E0000CDBFDF91CF910F91FF90EF90DF90CF90EA
:102E1000BF90AF909F908F900895CF93DF93EC0178
:102E20008C8D811112C061E084E00E943A1F81E024
:102E30008C8F0E94A61F6F8F78A389A39AA361E04D
:102E4000CE01DF91CF910C94E8150E94A61F6F8FE1
:102E500078A389A39AA3DF91CF910895FF920F934E
:102E60001F93CF93DF93EC018B01F42E0E940D177B
:102E70006FE571E0C8010E94D21C0EA8DFA9C02D29
:102E8000811114C0F8014481558160817181E8810C
:102E9000F9810280F381E02DCE01F11006C0DF91AF
:102EA000CF911F910F91FF9009940995CE01DF9169
:102EB000CF911F910F91FF900C94AE1E0F931F9313
:102EC000CF93DF9300D000D000D0CDB7DEB78C0118
:102ED000DC01D6968D919C91D797DC01ED91FC9108
:102EE0000284F385E02D099563E773E0CE01019636
:102EF0000E94411E41E0BE016F5F7F4FC8010E94EA
:102F00002E17CE0101960E943C1EF80186A997A9B2
:102F1000DC01ED91FC910284F385E02D0995269664
:102F20000FB6F894DEBF0FBECDBFDF91CF911F91DA
:102F30000F910895CF92DF92FF920F931F93CF933B
:102F4000DF93CDB7DEB762970FB6F894DEBF0FBE42
:102F5000CDBF8C0181E0D80153968C93C8010E94AB
:102F60000D17F80186A997A9DC01ED91FC91028467
:102F7000F385E02D09956BEB71E0CE0107960E9479
:102F8000531EF801F7A0C080D180FF2059F16FE5F2
:102F900071E0CE010D960E94531ED6018C91F81659
:102FA000B8F4BBE0FB9EA0011124405D5E4F2AE017
:102FB000B601CE0101960E94D720BE016F5F7F4F00
:102FC000CE010D960E94031ECE0101960E943C1E6A
:102FD000BE01635F7F4FCE0107960E94A61DCE0102
:102FE0000D960EC0B601CE0101960E946414BE017A
:102FF0006F5F7F4FCE0107960E94A61DCE010196FE
:103000000E943C1E6BE3CE0107960E94841DBE0108
:10301000695F7F4FCE0101960E944A1E41E0BE01CA
:103020006F5F7F4FC8010E942E17CE0101960E944C
:103030003C1E61E0C8010E94E8156FE571E0CE0119
:1030400001960E94531E41E0BE016F5F7F4FC80191
:103050000E942E17CE0101960E943C1E0E94A61FC0
:10306000F801668B778B808F918F82E583A38FE445
:1030700084A3CE0107960E943C1E62960FB6F89478
:10308000DEBF0FBECDBFDF91CF911F910F91FF909B
:10309000DF90CF9008950F931F93CF93DF93FC01A0
:1030A000A081B1818C91811102C011E075C0599647
:1030B0008C9159978E34C9F380AD8823B1F380A5E4
:1030C000811103C096A5961781F393A19E3409F050
:1030D00062C094A19E3409F05EC011A9112309F4C5
:1030E0005BC0811158C051968C915197882391F102
:1030F00081851D962C911D97821760F11F969C91DA
:103100001F97981738F129130CC080851E969C9143
:103110001E978917F8F050969C915097981728F6AB
:1031200019C0821308C090851E968C911E9798171F
:1031300008F0BBCF0FC0891308C0908550968C91C2
:103140005097891708F0B1CF05C0281718F48917D0
:1031500008F4ABCF062FEF0117A252968C9152972D
:10316000882351F00E94A61F69A77AA78BA79CA766
:103170000DA781E088A710C06EA759968C918E3458
:1031800009F493CF81E087A7CF010E940D17CE01EC
:103190000E949A1701C010E0812FDF91CF911F91FB
:1031A0000F9108950C94003C089561E081E10C9426
:1031B0003A1F0F931F93CF93DF93EC0141110EC081
:1031C0008AA581110BC0662309F162E38A819B8184
:1031D000DF91CF911F910F910C94DF15022F162FC5
:1031E00019AA61E08DE00E943A1F0E94A61FFE010D
:1031F000FF96608371838283938381E08EAF1AA6EA
:1032000060E080E10E943A1F1EA308A7DF91CF91E2
:103210001F910F910895FC01A081B1811C968C91A2
:1032200091A5882321F0992321F083A50895892F62
:10323000089581E008951F93CF93DF93EC011BA5C0
:10324000112331F00E940B19882311F081E00BC08B
:10325000CE010E940B19882321F0111104C084E0D3
:1032600002C082E000C0DF91CF911F910895CF93FB
:10327000DF93FC0122A5211110C0EC010E940B1963
:10328000882359F08BA5882341F081E08CA70E9408
:10329000A61F6DA77EA78FA798ABDF91CF9108954A
:1032A0001F93CF93DF93EC01162FE881F98183857B
:1032B00081110CC08AA581111BC08BA58823C1F088
:1032C00061E08DE00E943A1F1CA612C08EAD8111F4
:1032D0000FC08BA5882361F060E08DE00E943A1F4B
:1032E000112331F0CE01DF91CF911F910C9437194A
:1032F000DF91CF911F910895EF92FF920F931F934B
:10330000CF93DF937B018A01E901F8948AE00E9460
:10331000111F31E0892B09F430E0F70130838BE095
:103320000E94111F31E0892B09F030E0F801308351
:1033300083E00E94111F31E0892B09F430E03883CB
:103340007894DF91CF911F910F91FF90EF900895A6
:103350000F931F93CF93DF9300D01F92CDB7DEB7AB
:103360008C019E012F5F3F4FAE014E5F5F4FBE014C
:103370006D5F7F4F0E947C199A81F80192A7992373
:1033800011F061E001C060E080E10E943A1F8A8193
:103390000F900F900F90DF91CF911F910F91089593
:1033A000EF92FF920F931F93CF93DF937B018A01DC
:1033B000E901F89486E00E94111F31E0892B09F49D
:1033C00030E0F701308387E00E94111F31E0892B44
:1033D00009F430E0F801308385E00E94111F31E0EC
:1033E000892B09F430E038837894DF91CF911F91D5
:1033F0000F91FF90EF900895CF93DF9300D01F922D
:10340000CDB7DEB79E012F5F3F4FAE014E5F5F4FDE
:10341000BE016D5F7F4F0E94D0198B81811108C062
:103420008A81811107C08981811106C083E005C0AE
:1034300080E003C081E001C082E00F900F900F9008
:10344000DF91CF9108951F93CF93DF93EC01162F57
:103450001CA68BA5882329F0CE010E940B1981118F
:103460000FC08A819B81112331F06EE4DF91CF91EF
:103470001F910C94DF156EE40E944B188C832DC0B5
:103480008AA5811124C0CE010E94FC19811106C0B9
:103490008A819B81112379F364E5E8CF60E08DE0B8
:1034A0000E943A1F60E08CE00E943A1F0E94D518EB
:1034B0000E94A61F69AF7AAF8BAF9CAF81E08FAB44
:1034C0008AA761E080E10E943A1F1FA306C0112372
:1034D00021F061E38A819B81C9CFDF91CF911F9158
:1034E00008951F920F920FB60F9211240F900FBEE6
:1034F0000F901F9018951F920F920FB60F921124E4
:103500002F933F934F935F936F937F938F939F93EB
:10351000AF93BF93EF93FF9389E00E94111F9091A7
:103520000102891304C081E080936E0209C091E01A
:10353000811101C090E09093010281E0809300022C
:10354000FF91EF91BF91AF919F918F917F916F917B
:103550005F914F913F912F910F900FBE0F901F9051
:1035600018951F920F920FB60F9211242F933F932D
:103570004F935F936F937F938F939F93AF93BF937B
:10358000EF93FF930E94A61F6093710270937202E3
:10359000809373029093740281E080937002FF9194
:1035A000EF91BF91AF919F918F917F916F915F91BB
:1035B0004F913F912F910F900FBE0F901F90189534
:1035C0001F920F920FB60F9211248F9381E0809378
:1035D0006F028F910F900FBE0F901F901895089556
:1035E000CF92DF92EF92FF920F931F93CF93DF93CF
:1035F0006C017A018B01C0E0D0E0CE15DF0589F0C7
:10360000D8016D918D01D601ED91FC910190F08171
:10361000E02DC6010995892B11F47E0102C0219687
:10362000ECCFC701DF91CF911F910F91FF90EF90E9
:10363000DF90CF900895FC01918D828D981761F0F5
:10364000828DDF01A80FB11D5D968C91928D9F5FD9
:103650009F73928F90E008958FEF9FEF0895FC0184
:10366000918D828D981731F0828DE80FF11D858D37
:1036700090E008958FEF9FEF0895FC01918D228DCA
:10368000892F90E0805C9F4F821B91098F7399274F
:10369000089585E792E00E943D1B21E0892B09F403
:1036A00020E0822F0895FC01848DDF01A80FB11D59
:1036B000A35ABF4F2C91848D90E001968F73992768
:1036C000848FA689B7892C93A089B1898C91806455
:1036D0008C93938D848D981306C00288F389E02D16
:1036E00080818F7D80830895EF92FF920F931F93C7
:1036F000CF93DF93EC0181E0888F9B8D8C8D9813A5
:1037000005C0E889F989808185FD24C0F62E0B8DDE
:1037100010E00F5F1F4F0F731127E02E8C8DE81202
:103720000CC00FB607FCFACFE889F989808185FFC4
:10373000F5CFCE010E94531BF1CF8B8DFE01E80F18
:10374000F11DE35AFF4FF0820B8FEA89FB898081DC
:10375000806207C0EE89FF896083E889F9898081EA
:103760008064808381E090E0DF91CF911F910F9181
:10377000FF90EF900895CF93DF93EC01888D88231D
:10378000C9F0EA89FB89808185FD05C0A889B989CE
:103790008C9186FD0FC00FB607FCF5CF808185FFA9
:1037A000F2CFA889B9898C9185FFEDCFCE010E9417
:1037B000531BE7CFDF91CF91089580E090E0892BF4
:1037C00029F00E94491B81110C9400000895833058
:1037D00081F028F4813099F08230A1F0089587308B
:1037E000A9F08830B9F08430D1F4809180008F7DC9
:1037F00003C0809180008F7780938000089584B506
:103800008F7702C084B58F7D84BD08958091B0000C
:103810008F7703C08091B0008F7D8093B0000895B2
:1038200008950E94AC37CF93DF93EC018881998192
:10383000009711F00E944A36198218821D821C825C
:103840001B821A82DF91CF9108950F931F93CF931C
:10385000DF93EC0188819981009729F02A813B81CF
:103860002617370788F48B016F5F7F4F0E94E2367F
:10387000009761F0998388831B830A832C813D81A3
:10388000232B11F4FC01108281E001C080E0DF9164
:10389000CF911F910F910895EF92FF920F931F9375
:1038A000CF93DF93FC01248135816115710511F4FB
:1038B00080E019C041155105A9F07B01EC018A0196
:1038C000020F131FB8010E94251C882389F3288149
:1038D00039818C819D81B701820F931F0E94D3375C
:1038E0001D830C8381E0DF91CF911F910F91FF9099
:1038F000EF900895EF92FF920F931F93CF93DF9372
:10390000EC017B018A01BA010E94251C811104C0CF
:10391000CE010E94131C07C01D830C83B701888150
:1039200099810E94D337CE01DF91CF911F910F91E2
:10393000FF90EF900895FC0180819181009711F034
:103940000C94113860E070E0CB010895FC012481F3
:1039500035816217730748F480819181009729F0BF
:10396000FC01E60FF71F8081089580E00895FB01B8
:1039700044815581FC01248135812417350778F075
:1039800080819181009759F0FB01608171816115FF
:10399000710529F00E94DA3721E0892B09F020E037
:1039A000822F0895FC0124813581232B31F421E0FD
:1039B00061157105A1F0FB0108C0FC0180819181B6
:1039C0006115710531F421E0FC018081882339F013
:1039D00005C00E94CA3721E0892B09F020E0822F20
:1039E0000895FC0124813581FB0144815581241710
:1039F000350721F5FC0180819181FB016081718196
:103A0000009719F061157105A1F46115710549F070
:103A1000232BB1F0FB01808190E091958195910974
:103A20000AC0009769F0232B59F0FC01808190E0D7
:103A300002C00E94CA3721E0892B19F020E001C0A2
:103A400021E0822F0895EF92FF920F931F93CF935F
:103A5000DF936115710511F480E01EC08B01EC014C
:103A6000CB010E943F380097B1F02C813D817C0151
:103A7000E20EF31EB701CE010E94251C882361F3DC
:103A8000288139818C819D81B801820F931F0E940A
:103A90003838FD82EC8281E0DF91CF911F910F9148
:103AA000FF90EF900895EF92FF920F931F93CF93A3
:103AB000DF93CDB7DEB72D970FB6F894DEBF0FBEFC
:103AC000CDBF7C01CB01BA012AE08E010F5F1F4FF1
:103AD000A8010E946838F80101900020E9F73197A9
:103AE000AF01401B510BB801C7010E944C1C2D9621
:103AF0000FB6F894DEBF0FBECDBFDF91CF911F91FF
:103B00000F91FF90EF900895CF93DF9300D0CDB742
:103B1000DEB769831A8241E050E0BE016F5F7F4FDC
:103B20000E944C1C0F900F90DF91CF91089561156A
:103B3000710551F0FB0101900020E9F73197AF01C9
:103B4000461B570B0C944C1C80E00895FB014481EC
:103B50005581608171810C944C1CEF92FF920F9300
:103B60001F93CF93DF93EC018B016115710551F029
:103B7000CB010E943F387C01BC01CE010E94251C74
:103B8000811104C0CE010E94131C07C0FD82EC828B
:103B9000B801888199810E943838CE01DF91CF9198
:103BA0001F910F91FF90EF900895CF93DF93EC0159
:103BB0006115710559F0FB0101900020E9F731977B
:103BC000AF01461B570B0E947A1C02C00E94131CB7
:103BD000CE01DF91CF910895CF93DF93EC01FB01EC
:103BE0008617970761F0608171816115710529F071
:103BF000448155810E947A1C02C00E94131CCE0190
:103C0000DF91CF9108950F931F93CF93DF938C0192
:103C1000EB01FC01808191810097B1F0688179818D
:103C20006115710579F0428153812C813D814217E4
:103C3000530740F00E94D3378C819D81F801958312
:103C4000848313C00E944A3688819981F801918348
:103C500080838A819B81938382838C819D819583DC
:103C60008483198218821B821A821D821C82DF9132
:103C7000CF911F910F910895FC01808191810C9447
:103C80004A36FC011182108213821282158214823C
:103C90000C94AD1DFC0111821082138212821582D8
:103CA00014820C94EC1DFC0111821082138212828A
:103CB000158214826115710551F0FB0101900020FD
:103CC000E9F73197AF01461B570B0C947A1C089506
:103CD000BF92CF92DF92EF92FF920F931F93CF93F9
:103CE000DF937C016B018A01E9012417350720F479
:103CF000812F8901C42FD82F6FE571E0C7010E9481
:103D0000531ED60114968D919C911597081719078B
:103D1000D0F48C179D0708F4EC01D601ED91FC91CD
:103D20001197EC0FFD1FB08010824D915C91BA018C
:103D3000600F711FC7010E94D51DD601ED91FC9146
:103D4000EC0FFD1FB082C701DF91CF911F910F9142
:103D5000FF90EF90DF90CF90BF900895DC01ED9140
:103D6000FC910280F381E02D42E050E06DE571E0CE
:103D700009941F920F920FB60F9211242F933F9325
:103D80004F935F936F937F938F939F93AF93BF9363
:103D9000EF93FF9385E792E00E94531BFF91EF9111
:103DA000BF91AF919F918F917F916F915F914F9153
:103DB0003F912F910F900FBE0F901F9018951F925B
:103DC0000F920FB60F9211242F938F939F93EF931F
:103DD000FF93E0918502F09186028081E0918B0251
:103DE000F0918C0282FD12C0908180918E028F5FD3
:103DF0008F7320918F02821751F0E0918E02F0E0D4
:103E0000EB58FD4F958F80938E0201C08081FF910A
:103E1000EF919F918F912F910F900FBE0F901F9058
:103E20001895CF93DF93282F30E0F901E153FC4F31
:103E30008491F901E554FC4FD491F901E955FC4F07
:103E4000C491CC2391F081110E94E71BEC2FF0E08C
:103E5000EE0FFF1FE356FC4FA591B491EC91ED23BB
:103E600081E090E021F480E002C080E090E0DF910A
:103E7000CF9108951F93CF93DF93282F30E0F9015E
:103E8000E153FC4F8491F901E554FC4FD491F901C1
:103E9000E955FC4FC491CC23C9F0162F81110E9423
:103EA000E71BEC2FF0E0EE0FFF1FED56FC4FA59146
:103EB000B4918FB7F894111105C09C91ED2FE09546
:103EC000E92302C0EC91ED2BEC938FBFDF91CF91F2
:103ED0001F910895CF93DF9390E0FC01E554FC4FD0
:103EE0002491FC01E955FC4F8491882361F190E015
:103EF000880F991FFC01E757FC4FC591D491FC0135
:103F0000ED56FC4FA591B491611109C09FB7F8948B
:103F10008881209582238883EC912E230BC0623008
:103F200061F49FB7F8943881822F8095832388832A
:103F3000EC912E2B2C939FBF06C08FB7F894E8818D
:103F40002E2B28838FBFDF91CF9108952FB7F89440
:103F500060911702709118028091190290911A02D3
:103F60002FBF08950F931F93CF93DF93EC010E940F
:103F7000A61F688779878A879B87E881F9810680F1
:103F8000F781E02DCE01099597FF17C00E94A61F6B
:103F9000088519852A853B85DC01CB01801B910BA7
:103FA000A20BB30B0C811D812E813F8180179107DD
:103FB000A207B30710F38FEF9FEFDF91CF911F910F
:103FC0000F9108951F920F920FB60F9211242F9305
:103FD0003F938F939F93AF93BF93809117029091DC
:103FE0001802A0911902B0911A023091160226E02F
:103FF000230F2D3720F40296A11DB11D05C029E81D
:10400000230F0396A11DB11D209316028093170262
:1040100090931802A0931902B0931A028091120291
:1040200090911302A0911402B09115020196A11D66
:10403000B11D8093120290931302A0931402B093C7
:104040001502BF91AF919F918F913F912F910F904A
:104050000FBE0F901F9018951F920F920FB60F92E0
:1040600011242F933F934F935F936F937F938F937D
:104070009F93AF93BF93EF93FF93E0910201F09171
:1040800003010995FF91EF91BF91AF919F918F919E
:104090007F916F915F914F913F912F910F900FBE44
:1040A0000F901F9018951F920F920FB60F92112428
:1040B0002F933F934F935F936F937F938F939F9330
:1040C000AF93BF93EF93FF93E0910001F091010153
:1040D0000995FF91EF91BF91AF919F918F917F9142
:1040E0006F915F914F913F912F910F900FBE0F9065
:1040F0001F9018950F931F93CF93DF938C01EB01C3
:104100000E94B4388883C80101960E94B43889831C
:10411000CE01DF91CF911F910F910895EF92FF9201
:104120000F931F93CF93DF9300D0CDB7DEB78C01F1
:104130007B01FB0160819A838983CE0101960E94F5
:104140007A15F70161810F5F1F4F1A830983CE0132
:1041500001960E947A15C7010F900F90DF91CF91C1
:104160001F910F91FF90EF900895CF93DF93EB0194
:104170000E94B4388883CE01DF91CF9108950F93C8
:104180001F93CF93DF9300D0CDB7DEB78B01FB0138
:1041900060819A838983CE0101960E947A15C801B5
:1041A0000F900F90DF91CF911F910F9108956F9213
:1041B0007F928F929F92AF92BF92CF92DF92EF92B7
:1041C000FF920F931F93CF93DF93CDB7DEB76C01B0
:1041D0003A01ADB6BEB6822F90E001964DB75EB7FC
:1041E000481B590B0FB6F8945EBF0FBE4DBF8DB77D
:1041F0009EB701964C01611494E0790650F5FF24B6
:10420000F394F20E31F1E1E0FE1202C0F40120C09D
:10421000C3010E94B438F4018083EE24E394882320
:10422000C1F00E2D10E0EF1478F4C801860D971D33
:104230008115F4E09F0740F40E94B438F401E00FC8
:10424000F11F8083E394EBCF080D191DF80131971E
:104250001082B401C6010E94531EC6010FB6F89425
:10426000BEBE0FBEADBEDF91CF911F910F91FF90EB
:10427000EF90DF90CF90BF90AF909F908F907F9006
:104280006F9008950F931F93CF93DF9300D000D0CA
:1042900000D0CDB7DEB7FC0182818823C1F08B014D
:1042A000BF012AE04EE150E0CE0101960E94D720E6
:1042B000BE016F5F7F4FC8010E94F11C11E08111A8
:1042C00001C010E0CE0101960E943C1E01C010E02A
:1042D000812F26960FB6F894DEBF0FBECDBFDF91BB
:1042E000CF911F910F91089582E193E00E945E1794
:1042F0000E94A61F609328037093290380932A03CA
:1043000090932B0308950F931F93CF93DF93CDB713
:10431000DEB72C970FB6F894DEBF0FBECDBF63E2B9
:1043200074E0CE0107960E94411E61E4CE0107961B
:104330000E94841D6FE174E0CE0107960E94231D48
:1043400002E113E0D801D6968D919C91D797DC01BC
:10435000ED91FC910284F385E02D0995BE01695F22
:104360007F4FCE0101960E944A1E41E0BE016F5F61
:104370007F4FC8010E942E17CE0101960E943C1E5D
:10438000F80186A997A9DC01ED91FC910284F385DF
:10439000E02D0995CE0107960E943C1E2C960FB683
:1043A000F894DEBF0FBECDBFDF91CF911F910F916B
:1043B0000895FC01A089B18982E08C93A485B5851C
:1043C0001C92A685B78583E38C93108EA489B5894A
:1043D00086E08C93A289B3898C9180618C93A289A9
:1043E000B3898C9188608C93A289B3898C91806801
:1043F0008C930288F389E02D80818F7D80830895DE
:1044000080912D03811111C0909135039E3471F478
:10441000909136039E3451F480914303882331F008
:104420009091410381E08927089580E00895E0E6B6
:10443000F0E088E18083108208951F93CF93DF938B
:10444000EC01162F8EA99FA9DC01ED91FC9102844D
:10445000F385E02D0995CE010E945E170E94A61FEC
:104460006D877E878F87988B81E0898B1EA71A8B3B
:10447000DF91CF911F910895CF93DF9360E070E0BB
:104480000E94A61C813371F483E5809342030E944D
:10449000742161E08091140390911503DF91CF9115
:1044A0000C94231A823381F48FE4809342030E9498
:1044B000742120E040E061E08091140390911503A5
:1044C000DF91CF910C94D918833341F584E5809323
:1044D00042030E947421C0911403D0911503CE01B0
:1044E0000E941B19843011F46CE403C0823039F44B
:1044F00061E48A819B81DF91CF910C94DF1581303B
:1045000009F092C0CE010E94A8192A813B8188231C
:1045100011F061E301C063E3C901EDCF8433E9F435
:1045200087E5809342030E947421C0911403D091C7
:104530001503CE010E94FC19811102C064E5D9CF98
:10454000813011F461E5D5CF823011F462E5D1CF2D
:10455000833009F069C065E4CCCF8434C9F481E3C9
:104560008093420361E080911203909113030E94B3
:10457000541461E080911403909115030E94501926
:1045800060E080911403909115030E94231A15C0D6
:104590008334B9F482E38093420360E08091120394
:1045A000909113030E94541421E040E060E0809158
:1045B0001403909115030E94D918DF91CF910C94A8
:1045C00083218833A9F40E94742161E08091120351
:1045D000909113030E94541461E080911403909110
:1045E00015030E94501981E080931D0368E316C0F3
:1045F0008933D1F40E94742160E08091120390917C
:1046000013030E94541461E08091140390911503E8
:104610000E94501981E080931D0369E382E193E0D9
:10462000DF91CF910C941D22DF91CF910895EF92ED
:10463000FF920F931F93CF93DF9300D000D000D051
:10464000CDB7DEB77C0162EC71E0CE0101960E942D
:10465000531E08E027E0AE014F5F5F4FB70182E1D4
:1046600093E00E941316182FCE0101960E943C1E63
:10467000812F26960FB6F894DEBF0FBECDBFDF9117
:10468000CF911F910F91FF90EF900895CF93DF93FB
:1046900000D000D000D0CDB7DEB710923703109213
:1046A00025038091480390914903DC01ED91FC9131
:1046B0000284F385E02D099567E174E0CE0101964F
:1046C0000E94411E41E0BE016F5F7F4F82E193E097
:1046D0000E942E17CE0101960E943C1E0E94A61F2A
:1046E00061E082E193E00E94E8156FE571E0CE01A0
:1046F00001960E94531E41E0BE016F5F7F4F82E131
:1047000093E00E942E17CE0101960E943C1E8091DC
:10471000480390914903DC01ED91FC910284F385FB
:10472000E02D099510924103809135038E3411F0EC
:10473000823549F5809136038F3429F5809139030C
:10474000811121C08091380381111DC0E0911203B5
:10475000F0911303818D8435B1F48081823098F01B
:1047600081E08093390380933A030E94A61F6093EF
:104770003B0370933C0380933D0390933E038091F1
:10478000400380933F031092380310921D038EE480
:10479000809335038093360310921C030E94A61F5A
:1047A00060934403709345038093460390934703BB
:1047B0001092430326960FB6F894DEBF0FBECDBF0E
:1047C000DF91CF910895FF920F931F93CF93DF93C3
:1047D00000D000D000D0CDB7DEB78C016BE074E024
:1047E000CE0101960E94411EBE016F5F7F4FC8013E
:1047F0000E94B71CF82ECE0101960E943C1EFF209D
:10480000E1F02CE030E04BE050E0B801CE01019641
:104810000E94681E60E070E0CE0101960E94A61C16
:10482000182FCE0101960E943C1E123341F0133323
:1048300041F0103341F0163341F08EE407C084E4B8
:1048400005C082E503C089E401C085E426960FB661
:10485000F894DEBF0FBECDBFDF91CF911F910F91B6
:10486000FF900895FF920F931F93CF93DF9300D093
:1048700000D000D0CDB7DEB78C016FEF73E0CE0172
:1048800001960E94411EBE016F5F7F4FC8010E94CA
:10489000F11CF82ECE0101960E943C1EFF2011F063
:1048A00091E02FC069EF73E0CE0101960E94411E96
:1048B000BE016F5F7F4FC8010E94F11CF82ECE0130
:1048C00001960E943C1EF110EBCF6EEE73E0CE011C
:1048D00001960E94411EBE016F5F7F4FC8010E947A
:1048E000F11CF82ECE0101960E943C1EF110D8CF8B
:1048F0006AEC71E0C8010E94D21C91E0811101C0F4
:1049000090E0892F26960FB6F894DEBF0FBECDBF7C
:10491000DF91CF911F910F91FF900895EF92FF9239
:104920000F931F93CF93DF93CDB7DEB762970FB688
:10493000F894DEBF0FBECDBF7C01062F142F81E09F
:10494000809325038091480390914903DC01ED9108
:10495000FC910284F385E02D0995B701CE010D96F7
:104960000E944A1E011126C0809140038F34B1F08D
:1049700034F4833499F0863409F0E7C00FC08335EE
:1049800021F0853509F0E1C009C061ED71E0CE018B
:104990000D960E94D51D68ED71E008C061ED71E0D3
:1049A000CE010D960E94D51D6BED71E0CE010D96E6
:1049B0000E94971D6FED71E0CE0107960E94531E75
:1049C0001230B9F46091120370911303FB018381DB
:1049D000882341F02AE040E650E0CE0101960E9493
:1049E000D7201AC06FE571E0CE0101960E94531ED8
:1049F00013C080912C03882339F063EE73E0CE015D
:104A000007960E94231D13C0609112037091130337
:104A1000CE0101960E946414BE016F5F7F4FCE01EC
:104A200007960E94A61DCE0101960E943C1E60E7DB
:104A300071E0CE0107960E94971D809148039091E6
:104A40004903DC01ED91FC910284F385E02D099589
:104A5000BE01695F7F4FCE0101960E944A1E41E070
:104A6000BE016F5F7F4F82E193E00E942E17CE015F
:104A700001960E943C1E8091480390914903DC01FD
:104A8000ED91FC910284F385E02D09956AE082E1C5
:104A900093E00E94E815BE01635F7F4FCE0101964F
:104AA0000E944A1E41E0BE016F5F7F4F82E193E0AA
:104AB0000E942E17CE0101960E943C1E8091480351
:104AC00090914903DC01ED91FC910284F385E02D86
:104AD00009956AE082E193E00E94E815809148031D
:104AE00090914903DC01ED91FC910284F385E02D66
:104AF000099582E193E00E940D17009148031091FF
:104B00004903D801ED91FC910190F081E02D6AE11B
:104B1000C8010995C8010E94AE1E8091480390917A
:104B20004903DC01ED91FC910284F385E02D0995A8
:104B30006AE082E193E00E94E81510922C03109243
:104B40002503CE0107960E943C1ECE010D960E94C1
:104B50003C1E62960FB6F894DEBF0FBECDBFDF914C
:104B6000CF911F910F91FF90EF900895CF93DF9316
:104B700000D000D000D0CDB7DEB7909138039111AE
:104B800019C0E0911203F0911303918D913491F4C7
:104B9000809340036FE571E0CE0101960E94531EA1
:104BA00040E060E0CE0101960E948E24CE01019685
:104BB0000E943C1E26960FB6F894DEBF0FBECDBFF6
:104BC000DF91CF9108950F931F93CF93DF93EC0163
:104BD0008B016FE571E00E94531EC8010E94B21F55
:104BE00097FD08C08A30910529F0682FCE010E94F8
:104BF000841DF3CFCE01DF91CF911F910F910895C6
:104C0000EF92FF920F931F93CF93DF9300D000D0CA
:104C100000D0CDB7DEB78C016FE571E00E94531E66
:104C20008091480390914903DC01ED91FC9104804F
:104C3000F581E02D099518161906BCF482E193E080
:104C40000E940D176091480370914903CE010196AF
:104C50007C010E94E3250E151F0521F0B701C80154
:104C60000E94031EC7010E943C1EC80126960FB673
:104C7000F894DEBF0FBECDBFDF91CF911F910F9192
:104C8000FF90EF900895EF92FF920F931F93CF93B1
:104C90008C01FC01E480F580C0E06C2F70E06E15A3
:104CA0007F0568F4C8010E94A61C282F880F330BCB
:104CB000205331092A30310520F4CF5FEECF81E057
:104CC00001C080E0CF911F910F91FF90EF90089568
:104CD0000F931F93CF93DF93CDB7DEB76E970FB6C9
:104CE000F894DEBF0FBECDBF8C0168E774E0CE0143
:104CF00001960E94411EBE016F5F7F4FC8010E9456
:104D0000F11C81114DC06DE674E0CE0107960E9442
:104D1000411EBE01695F7F4FC8010E94F11C8111D5
:104D200041C062E674E0CE010D960E94411EBE01B4
:104D3000635F7F4FC8010E94F11C811135C067E598
:104D400074E0CE0143960E94411EBE016D5E7F4F0E
:104D5000C8010E94F11C811115C06CE474E0CE0101
:104D600049960E94411EBE01675E7F4FC8010E94A6
:104D7000F11C11E0811101C010E0CE0149960E94A2
:104D80003C1E01C011E0CE0143960E943C1ECE01A4
:104D90000D960E943C1ECE0107960E943C1E09C043
:104DA00080E004C081E002C011E0F1CF11E0811188
:104DB000F2CFCE0101960E943C1E812F6E960FB657
:104DC000F894DEBF0FBECDBFDF91CF911F910F9141
:104DD00008958F929F92AF92BF92CF92DF92EF92FF
:104DE000FF921F93CF93DF9300D000D000D0CDB7B8
:104DF000DEB7162FBC01CE0101960E944A1E40E08C
:104E0000BE016F5F7F4F82E193E00E942E17CE01BB
:104E100001960E943C1E0E94A61F4B015C011123BB
:104E200039F090E6C92E9AEED92EE12CF12C15C05E
:104E300088EBC82E8BE0D82EE12CF12C0EC080918F
:104E4000480390914903DC01ED91FC910480F581C8
:104E5000E02D09951816190674F00E94A61FDC01B2
:104E6000CB0188199909AA09BB098C159D05AE05C6
:104E7000BF0528F321C0CE0101960E9400266CEEEA
:104E800071E0CE0101960E94D21C81110DC06AEC26
:104E900071E0CE0101960E94D21C811107C0CE01A3
:104EA00001960E943C1ED9CF11E001C010E0CE0156
:104EB00001960E943C1E01C010E0812F26960FB67D
:104EC000F894DEBF0FBECDBFDF91CF911F91FF9051
:104ED000EF90DF90CF90BF90AF909F908F9008950C
:104EE000CF93DF9300D000D000D0CDB7DEB76EE314
:104EF00074E0CE0101960E94411E60E0CE01019651
:104F00000E94E926CE0101960E943C1E26960FB60D
:104F1000F894DEBF0FBECDBFDF91CF9108958F9281
:104F20009F92AF92BF92CF92DF92EF92FF920F9338
:104F30001F93CF93DF9300D000D000D0CDB7DEB762
:104F40006C017A010E94A61F4B015C01B601CE01E3
:104F500001960E944A1E41E0BE016F5F7F4F82E1D1
:104F600093E00E942E17CE0101960E943C1E0E94E3
:104F7000A61F8B019C01081919092A093B09003A4F
:104F80001F402105310530F5809148039091490378
:104F9000DC01ED91FC910480F581E02D0995892BD0
:104FA00031F3CE0101960E940026BE016F5F7F4F54
:104FB00082E193E0F7010995182F8823A1F2BE0141
:104FC0006F5F7F4FC6010E94EC1DCE0101960E94CB
:104FD0003C1E01C010E0812F26960FB6F894DEBF6C
:104FE0000FBECDBFDF91CF911F910F91FF90EF903A
:104FF000DF90CF90BF90AF909F908F900895EF92E9
:10500000FF920F931F93CF93DF93CDB7DEB72A970D
:105010000FB6F894DEBF0FBECDBF81E080932C03A6
:105020006AE374E0CE0101960E94411E7E0187E092
:10503000E80EF11C08E413E0C8010E94B438F7013F
:1050400081937F010F5F1F4F0C34F3E01F07A1F71F
:105050004F81588569857A85CE0101960E94531D3E
:1050600040E061E0CE0101960E948E24CE010196BF
:105070000E943C1E2A960FB6F894DEBF0FBECDBF2D
:10508000DF91CF911F910F91FF90EF900895CF93F3
:10509000DF9300D000D000D0CDB7DEB76CE274E073
:1050A000CE0101960E94411E60E0CE0101960E9451
:1050B000E926CE0101960E943C1E26960FB6F89472
:1050C000DEBF0FBECDBFDF91CF910895EF92FF926B
:1050D0000F931F93CF93DF9300D0CDB7DEB78C0132
:1050E0007B01FB0160819A838983CE0101960E9436
:1050F0007A15F70161810F5F1F4F1A830983CE0173
:1051000001960E947A15C7010F900F90DF91CF9101
:105110001F910F91FF90EF900895CF93DF9300D0F0
:1051200000D000D0CDB7DEB769EB74E0CE010196B8
:105130000E94411E60E0CE0101960E94E926CE0148
:1051400001960E943C1E62EB74E0CE0101960E9423
:10515000411E60E0CE0101960E94E926CE01019633
:105160000E943C1E66EA74E0CE0101960E94411E38
:1051700060E0CE0101960E94E926CE0101960E94D0
:105180003C1E81E08983BE016F5F7F4F84E893E01E
:105190000E94BF201A821982BE016F5F7F4F84E98F
:1051A00093E00E9466281982BE016F5F7F4F80E9FD
:1051B00093E00E94BF2064E682E193E00E94E8153C
:1051C00082E193E00E94D21826960FB6F894DEBFD3
:1051D0000FBECDBFDF91CF9108951F93CF93DF9383
:1051E00000D000D000D0CDB7DEB767E974E0CE01C3
:1051F00001960E94411E61E0CE0101960E94E926BF
:10520000182FCE0101960E943C1E812F26960FB6C4
:10521000F894DEBF0FBECDBFDF91CF911F910895EF
:10522000CF92DF92EF92FF920F931F93CF93DF9372
:10523000CDB7DEB72C970FB6F894DEBF0FBECDBF4B
:1052400060EF71E0CE0101960E94531E40E0BE0166
:105250006F5F7F4F82E193E00E942E17CE0101968F
:105260000E943C1E0E94A61F6B017C010E94A61F8B
:10527000DC01CB018C199D09AE09BF098838934127
:10528000A105B10508F043C08091480390914903FE
:10529000DC01ED91FC910480F581E02D0995892BCD
:1052A00029F36091480370914903CE0107960E944B
:1052B000E3256CE874E0CE0101960E94411E0BE0EC
:1052C0002AE0AE014F5F5F4FBE01695F7F4F82E111
:1052D00093E00E941316182FCE0101960E943C1EE7
:1052E000112351F060E070E0CE0107960E94A61CE9
:1052F000833339F0813331F0CE0107960E943C1E92
:10530000B5CF10E0CE0107960E943C1E01C010E010
:10531000812F2C960FB6F894DEBF0FBECDBFDF9164
:10532000CF911F910F91FF90EF90DF90CF90089554
:10533000CF92DF92EF92FF921F93CF93DF9300D033
:1053400000D000D0CDB7DEB7BC01CE0101960E94DF
:105350004A1E40E0BE016F5F7F4F82E193E00E94F2
:105360002E17CE0101960E943C1E0E94A61F6B01C3
:105370007C010E94A61FDC01CB018C199D09AE099E
:10538000BF0988389341A105B10590F58091480384
:1053900090914903DC01ED91FC910480F581E02DB1
:1053A0000995892B31F36091480370914903CE012F
:1053B00001960E94E3256CEE71E0CE0101960E94F9
:1053C000D21C81110DC06AEC71E0CE0101960E94E1
:1053D000D21C811107C0CE0101960E943C1EC9CF8C
:1053E00011E001C010E0CE0101960E943C1E01C0F8
:1053F00010E0812F26960FB6F894DEBF0FBECDBF0A
:10540000DF91CF911F91FF90EF90DF90CF900895A3
:10541000CF93DF93CDB7DEB72C970FB6F894DEBFEE
:105420000FBECDBF63E874E0CE0107960E94411E17
:105430004CE756E160E070E0CE0107960E948F27AE
:10544000882351F122E030E040E050E0BE01695F86
:105450007F4FCE0101960E94681ECE0101960E94E8
:105460009B1C60931B03CE0101960E943C1E25E00D
:1054700030E043E050E0BE01695F7F4FCE0101960E
:105480000E94681ECE0101960E949B1C60931A0325
:10549000CE0101960E943C1ECE0107960E943C1E42
:1054A0002C960FB6F894DEBF0FBECDBFDF91CF9123
:1054B0000895CF93DF93CDB7DEB764970FB6F89416
:1054C000DEBF0FBECDBF789484B5826084BD84B545
:1054D000816084BD85B5826085BD85B5816085BDEF
:1054E00080916E00816080936E00109281008091A7
:1054F000810082608093810080918100816080932F
:105500008100809180008160809380008091B10053
:1055100084608093B1008091B00081608093B0007E
:1055200080917A00846080937A0080917A00826012
:1055300080937A0080917A008E7F80937A008091A8
:105540007A00806880937A001092C10084B761E08D
:1055500088E00E946A1F60E088E00E943A1F62E0D3
:1055600089E00E946A1F89E00E94111F892B39F48B
:105570001092010260E088E00E943A1F07C061E0DB
:1055800088E00E943A1F81E08093010280916800C8
:1055900081608093680080916800826080936800D9
:1055A00080916B00826080936B0080916C008160C1
:1055B00080936C0080916C00826080936C0080917D
:1055C0006C00806280936C0080916800846080939E
:1055D000680080916D00806280936D0080916D0005
:1055E000806480936D0080916D00806880936D0071
:1055F000F8940E941722789485E792E00E94D921BE
:1056000061E081E10E946A1F68E673E08AE390E04E
:105610000E94B520809168038F3F41F41092680387
:1056200068E673E08AE390E00E94BF2062E673E0E0
:1056300086E390E00E94B520809162038F3F41F4A1
:105640001092620362E673E086E390E00E94BF205E
:105650006AE573E08CE590E00E94B52080915A03E2
:105660008F3F41F410925A036AE573E08CE590E0B5
:105670000E94BF2069E573E088E590E00E94B520B4
:10568000809159038F3F41F41092590369E573E00B
:1056900088E590E00E94BF2061E673E080E090E042
:1056A0000E94B520809161038F3F29F460E086E578
:1056B00093E00E94541486E593E00E94FE136AE68C
:1056C00073E084E090E00E947A2080916A039091D8
:1056D0006B03019661F482E390E090936B038093F7
:1056E0006A036AE673E084E090E00E948E206EE632
:1056F00073E08CE090E00E94B52080916E038F3FB4
:1057000041F410926E036EE673E08CE090E00E942C
:10571000BF208EE090E00E94B43880936F038F3FEB
:1057200029F464E586E593E00E949A1567E673E044
:1057300086E990E00E94B520809167038F3F49F48D
:10574000E12C00E020E040E060E086E593E00E948C
:105750000814809167038823C1F063E673E088E949
:1057600090E00E94B52064E673E08AE990E00E9430
:10577000B52065E673E08CE990E00E94B52066E60E
:1057800073E08EE990E00E94B52066E573E08CE25C
:1057900091E00E94B52080915603803140F0109234
:1057A000560366E573E08CE291E00E94BF2068E555
:1057B00073E086E190E00E94B520809158038F3F0E
:1057C00041F41092580368E573E086E190E00E948E
:1057D000BF2067E573E08AE190E00E94B5208091E8
:1057E00057038F3F41F41092570367E573E08AE156
:1057F00090E00E94BF206BE573E080E293E00E949E
:10580000B52080915B038F3F41F410925B036BE501
:1058100073E080E293E00E94BF206CE673E082E1D7
:1058200090E00E947A2080916C0390916D03019624
:1058300061F482E090E090936D0380936C036CE6DA
:1058400073E082E190E00E948E2069E673E082E3DB
:1058500090E00E94B520809169038F3F41F410923F
:10586000690369E673E082E390E00E94BF2086E569
:1058700093E090931303809312038BE192E0909353
:1058800015038093140311E00AE043E0342E52E044
:10589000252E809111028823F9F00E94A61F809086
:1058A0000D0290900E02A0900F02B0901002DC0149
:1058B000CB0188199909AA09BB0981319742A10531
:1058C000B10550F01092110280910102811104C0C3
:1058D0000E940022811142C580910002882399F024
:1058E0001092000280910102812780930C028111A5
:1058F0000AC061E088E00E943A1F80910B0281118A
:1059000002C010930B0280910C028823D1F00E94F8
:1059100000228823B1F080912503811112C080916B
:105920004B0381110EC010920C020E94A61F6093BF
:105930000D0270930E0280930F0290931002109349
:10594000110280910A028111DBC18091090281114B
:1059500008C00E94A61F603D77408105910508F0B0
:1059600002C580910B02882321F10E94A61F20917D
:10597000020230910302DC01CB01821B930BA109CF
:10598000B109853F9140A105B10598F080910401CE
:10599000812780930401882311F061E001C060E059
:1059A00081E10E943A1F0E94A61F70930302609338
:1059B00002020E94A61F683A71468105910508F40B
:1059C000CAC46BE171E0CE0101960E94531E60E0F3
:1059D000CE0101960E94E926CE0101960E943C1E4E
:1059E00068EC70E0CE0101960E94411E60E0CE019D
:1059F00001960E94E926F82ECE0101960E943C1ED7
:105A0000FF2009F4F4C06CEB70E0CE010D960E940B
:105A1000411E60E0CE010D960E94E926882309F41C
:105A2000E2C060EB70E0CE0107960E94411E60E08C
:105A3000CE0107960E94E926F82E882381F06CE9B2
:105A400070E0CE0101960E94411E60E0CE010196F9
:105A50000E94E926F82ECE0101960E943C1ECE013E
:105A600007960E943C1ECE010D960E943C1EFF2010
:105A700009F4BDC06FE870E0CE0101960E94411E9E
:105A800060E0CE0101960E94E926CE0101960E94B7
:105A90003C1E63E870E0CE0101960E94411E60E06A
:105AA000CE0101960E94E926CE0101960E943C1E7D
:105AB0006CE770E0CE0101960E94411E60E0CE01CD
:105AC00001960E94E926CE0101960E943C1E0E948A
:105AD000082A10934A0360E770E0CE0101960E9405
