:100000000C9479020C9498270C9471270C94411449
:100010000C947F140C9450140C9415140C94A1029D
:100020000C94A1020C94A1020C94A1020C94A102C4
:100030000C94A1020C94A1020C94A1020C94A102B4
:100040000C9427270C94A1020C9424260C94FE25D2
:100050000C94A1020C94A1020C94A1020C94A10294
:100060000C94A1020C94A10241542B434349440037
:1000700041542B444445543D310D0A004154265708
:100080000D0A0041542B434C54533D310D0A00419D
:10009000542B4353434C4B3D310D0A0041542B43E9
:1000A0004E4D493D322C312C302C302C300D0A0075
:1000B00041542B434D47463D310D0A0041542B43DB
:1000C0004C43433D310D0A0041542B434C49503DB4
:1000D000310D0A004D4158434544440043455252B6
:1000E0000055504453554343004154410041542B63
:1000F000444445543D310D0A002B4350494E3A20AB
:100100004E4F542052454144590D0043616C6C20C0
:1001100052656164790D0041542B434D4744413D84
:100120002244454C20414C4C220D0A0041542B46A0
:10013000545050573D223132333435363738392216
:100140000D0A0041542B465450554E3D22726168B1
:10015000756C6E726174686F646B636C220D0A005B
:1001600041542B465450534552563D220041542B86
:100170004654504349443D310D0A002B46545053D8
:10018000495A453A20312C302C0041542B465450CA
:1001900053495A450D0A0041542B46545047455483
:1001A0000041542B53415042523D312C310D0A0035
:1001B00041504E222C220041542B53415042523D7B
:1001C000332C312C2200436F6E54797065222C221F
:1001D00047505253220D0A0041542B534150425272
:1001E0003D332C312C22004F4B203A2000524555F4
:1001F00050440050524753495A4500444300535518
:10020000500050524755504400564D52303200561F
:100210004D4D3031002A2A2A2A4D2B002E616D7255
:10022000222C302C3130302C310D0041542B4352D4
:1002300045433D342C22002B43434C4B3A20004194
:10024000542B435245433D350D0041542B43434C01
:100250004B3F0037303431313936393539000A4EA9
:100260006574776F726B3A000A426174253A002018
:100270004F46460A00204F4E0A00204F4E0A004DBE
:100280006F746F723A00204F46460A0020322050A9
:10029000484153450A004155544F4F464600415589
:1002A000544F4F4E004552524F52203A20004F4B70
:1002B000203A200041542B435553443D312C220019
:1002C00042414C004155544F54494D45004155540D
:1002D0004F54494D45005354415254494D450053E4
:1002E00054415254494D45005354414745005354DD
:1002F000414745004E4354494D450041542B43432B
:100300004C4B3D2231372F31302F33302C005345A9
:100310005454494D450054494D453A0047455454BD
:10032000494D45004E434F464600414D4F4646001D
:10033000414D4F4E0041542B4342430041542B4307
:10034000535100535441545553004F56464F46465F
:10035000004F56464F4E005245535000444E444FB6
:10036000464600444E444F4E004259504F464600C8
:100370004259504F4E004155544F4F46460041554B
:10038000544F4F4E00444944005245534554004E8B
:100390006F204E756D626572004E554D00444546A6
:1003A00041554C5400434C454152414C4C0057413F
:1003B0004954003935383631333539373800373319
:1003C0003833363232363738003733383336313413
:1003D000323134003736393834333932303100373E
:1003E00030343131393639353900373034313139FB
:1003F00036393539004E4F20414E535745520D0086
:10040000425553590D004E4F2043415252494552D7
:100410000D002B434C43433A20312C302C004154E7
:100420002B4348555000222C320041542B56545334
:100430003D220000000000240027002A00000000E8
:1004400000250028002B00000000002300260029C2
:10045000000404040404040404020202020202036D
:100460000303030303010204081020408001020477
:1004700008102001020408102000000008000201FA
:10048000000003040700000000000000002B53419F
:100490005042523A20312C0041542B534150425289
:1004A0003D302C310D0A0041542B434F50533D3207
:1004B0000D0A00415426570D0A0041542B43534363
:1004C0004C4B3D300D0A0041542B434357413D30C6
:1004D0002C300D0A0049443A0041542B4346554EF6
:1004E0003D312C310D0A0041542B434243009134DD
:1004F0008D3411241FBECFEFD8E0DEBFCDBF12E098
:10050000A0E0B1E0E6E7F3E702C005900D92A63067
:10051000B107D9F723E0A6E0B2E001C01D92A937E8
:10052000B207E1F712E0C8E7D2E004C02197FE016C
:100530000E944D36C737D107C9F70E94D72A0C94BD
:10054000AE390C9437144F925F926F927F928F92D4
:100550009F92AF92BF92CF92DF92EF92FF920F9352
:100560001F93CF93DF93CDB7DEB7A5970FB6F8945F
:10057000DEBF0FBECDBF809147038823B1F00E943C
:10058000EB26009148031091490320914A033091D2
:100590004B03DC01CB01801B910BA20BB30B813D04
:1005A0009740A105B10508F007C680912A0388236A
:1005B00071F10E94EB2600912D0310912E032091E2
:1005C0002F0330913003AB01BC01401B510B620B78
:1005D000730B20912B0330912C03E4E6E29FC001C2
:1005E000E39F900D1124A0E0B0E0481759076A0777
:1005F0007B0768F0E0911603F091170383A5811142
:1006000006C060E084E00E947F2610922A03809159
:1006100031038E3409F052C0809132038E3409F0D8
:100620009FC080913F03811116C00E94EB2600916C
:100630004003109141032091420330914303DC01B8
:10064000CB01801B910BA20BB30B893E9340A105FC
:10065000B10508F0B4C580913603882309F480C041
:10066000E0911403F0911503128980913F038823D0
:1006700009F476C080913503813009F4A4C50E9445
:10068000EB26C0903703D0903803E0903903F09008
:100690003A039B01AC012C193D094E095F09690120
:1006A0007A01212F30E0A0E6BAEE0E949F396C1546
:1006B0007D058E059F0508F486C552C0893419F062
:1006C000823509F04DC00E94EB2600912403109161
:1006D00025032091260330912703AB01BC01401B69
:1006E000510B620B730B2091220330912303E4E63C
:1006F000E29FC001E39F900D1124A0E0B0E04817F5
:1007000059076A077B0740F080913C038DA30E9444
:100710001A1E8DA10E948A2080911F03882301F157
:100720000E94EB26E0911A0300911B0310911C0319
:1007300020911D0330911E03AB01BC01401B510BE6
:10074000620B730B34E6E39FC0011124092E000CE9
:10075000AA0BBB0B84179507A607B70708F44DC56E
:100760008FE4C82E92E5B92E29E4D22E809144035D
:1007700090914503DC01ED91FC910480F581E02D21
:1007800009951816190614F00C94050C64E173E031
:10079000CE014F960E94AE100BA1015060E271E0B5
:1007A000CE0101960E94982526E0AE014F5F5F4F73
:1007B000BE01615E7F4F84E193E00E94930F182F8A
:1007C000CE0101960E948125112321F080912903F9
:1007D000811175C50BA1015067E271E0CE01019650
:1007E0000E9498252CE0AE014F5F5F4FBE01615E15
:1007F0007F4F84E193E00E94930FE82ECE01019693
:100800000E948125EE2071F1BE01615E7F4FCE0115
:100810000D960E948F256EE271E0CE0107960E9430
:100820009825BE01635F7F4FCE0107960E94EB249F
:10083000BE01695F7F4FCE0101960E948F2541E086
:10084000BE016F5F7F4F84E193E00E94F110CE0103
:1008500001960E948125CE0107960E948125CE0136
:100860000D96BFC267E371E0CE0101960E94982504
:1008700002E228E1AE014F5F5F4FBE01615E7F4F34
:1008800084E193E00E94930F982ECE0101960E947E
:100890008125BE01615E7F4FCE01992009F461C2BE
:1008A00001960E948F25CE0101960E94B720F82E56
:1008B000CE0101960E948125BE01615E7F4FCE016F
:1008C00001960E948F25BE016F5F7F4F80911403B8
:1008D000909115030E94EE0DA82ECE0101960E9464
:1008E0008125F11027C0BE01615E7F4FCE010196C8
:1008F0000E948F25BE016F5F7F4F809114039091FE
:1009000015030E949F0D182F81110DC0A1100AC060
:10091000E0911403F091150311E08081882319F010
:1009200010E001C0192DCE0101960E9481251123EE
:1009300009F4AFC164E173E0CE0101960E94AE10EC
:10094000BE016F5F7F4FCE014F960E944825CE01BA
:1009500001960E9481250F8D18A10115110541F402
:10096000E0911403F09115038081882371F03AC05F
:10097000F80180818823A1F3082E000C990B0E94B6
:100980005738D8018D938D01F3CFF1102BC065E15D
:1009900072E0CE0101960E948625BE016F5F7F4FF7
:1009A000CE014F960E94FC23182FCE0101960E9483
:1009B0008125112309F417C22BA13CA144E050E08A
:1009C000BE01615E7F4FCE0101960E94AD25BE0142
:1009D0006F5F7F4FCE014F960E944825CE01019652
:1009E0000E9481256EE371E0CE0101960E94982558
:1009F000BE016F5F7F4FCE014F960E94FC23182FE0
:100A0000CE0101960E9481251123C1F02BA13CA1AA
:100A100041E050E0BE01615E7F4FCE0101960E9431
:100A2000AD25BE016F5F7F4FCE014F960E944825D6
:100A3000CE0101960E94812511E001C010E0BE01A7
:100A4000615E7F4FCE01FF2009F418C149960E94D4
:100A50008F2581E0809328030D8D015062E072E0C4
:100A6000CE0101960E94862526E0AE014F5F5F4FC2
:100A7000BE01675E7F4F84E193E00E94930FF82EE2
:100A8000CE0101960E948125FF2009F4B0C080911B
:100A900031038E3411F40E941A1E111110C06EEF32
:100AA00071E0CE0101960E94862540E061E0CE0112
:100AB00001960E94621FCE0101960E948125898CB9
:100AC0009A8C8114910429F40E94F82881110BC496
:100AD0000DC0F40180818823B9F3082E000C990B16
:100AE0000E944F38D4018D934D01F3CF60E471E043
:100AF000CE010D960E94982568ED71E0CE01079613
:100B00000E94862566EC71E0CE0107960E9468245B
:100B1000BE01695F7F4FCE0101960E948F25CE01F5
:100B200001960E948029082FCE0101960E948125FE
:100B3000011102C000E042C067EB71E0CE010796F0
:100B40000E94F22460EB71E0CE0107960E946824B7
:100B5000BE01635F7F4FCE0107960E94EB246CE5D8
:100B600071E0CE0107960E94DC24BE01695F7F4FD1
:100B7000CE0101960E948F25CE0101960E94802908
:100B8000082FCE0101960E948125002399F261EA87
:100B900071E0CE0101960E94862561E0CE010196AA
:100BA0000E945D21082FCE0101960E94812500231D
:100BB00009F264E184E193E00E94680FCE01079698
:100BC0000E948125CE010D960E948125002309F403
:100BD00080C50CE0015009F47CC562E384E193E038
:100BE0000E94680F0E94F8288823A1F37CC30D8D12
:100BF000015063EF71E0CE0101960E94862527E047
:100C0000AE014F5F5F4FBE01675E7F4F84E193E0AF
:100C10000E94930F082FCE0101960E948125011199
:100C20008EC50D8D01506DEE71E0CE0101960E94D2
:100C3000862525E0AE014F5F5F4FBE01675E7F4FA7
:100C400084E193E00E94930FF82ECE0101960E945A
:100C50008125F11076C510922803CE0149960E9495
:100C60008125F11070C0BE01615E7F4FCE010196FB
:100C70000E948F252A2D412F61E006C001960E9417
:100C80008F252A2D412F60E0CE0101960E949414F9
:100C900056C0BE01615E7F4FCE0101960E948F2536
:100CA000BE016F5F7F4F80911403909115030E94E6
:100CB000F50D182FCE0101960E948125112309F40C
:100CC00042C064E173E0CE0101960E94AE10BE0105
:100CD0006F5F7F4FCE014F960E944825CE0101964F
:100CE0000E9481256FE072E0CE0101960E94862568
:100CF000BE016F5F7F4FCE014F960E94FC23182FDD
:100D0000CE0101960E9481251123E9F0E0911403A0
:100D1000F091150381E08483BF016C5F7F4F8CE508
:100D200090E00E94042869E072E0CE0101960E94E2
:100D3000862542E061E0CE0101960E94621FCE014D
:100D400001960E94812567E171E0CE0101960E9423
:100D5000862560E0CE0101960E945D21CE010196BC
:100D600040C007960E948F256BE071E0CE0101968E
:100D70000E948625BE016F5F7F4FCE0107960E94BD
:100D80003624182FCE0101960E948125CE010796A8
:100D90000E948125112321F081E08093460323C026
:100DA000BE01615E7F4FCE0107960E948F2569EFDD
:100DB00070E0CE0101960E948625BE016F5F7F4FD5
:100DC000CE0107960E943624182FCE0101960E946C
:100DD0008125112321F00E941A1E0E94F029CE01C4
:100DE00007960E94812590913D03809131039111D6
:100DF00012C18E3419F0823509F093C190913203FB
:100E00009E3419F0993409F0F3C0BE01615E7F4F42
:100E1000CE0101960E948F2563E671E0CE01019616
:100E20000E941724182FCE0101960E9481251123BC
:100E300009F4C8C081E080932103B0923103D092BD
:100E40003203809133038F5F80933303853008F042
:100E500071C08130E9F46DEE70E0CE0101960E9420
:100E6000862540E0BE016F5F7F4F84E193E00E94E2
:100E7000F110CE0101960E9481258091440390914A
:100E80004503DC01ED91FC910284F385E02D099589
:100E90006FE571E0CE010D960E94982564E173E044
:100EA000CE0101960E94AE10BE016F5F7F4FCE0152
:100EB0000D960E944825CE0101960E94812569E683
:100EC00071E0CE0101960E94982505E12BE0AE016C
:100ED0004F5F5F4FBE01635F7F4F84E193E00E94ED
:100EE000930F182FCE0101960E9481251123B1F294
:100EF0000E94EB26609324037093250380932603BE
:100F00009093270389899A890A9778F0CE010D96E4
:100F10000E943821882349F080913303823028F0E1
:100F200080911803882309F443C4CE010D960E94D2
:100F3000812506C080911803811102C00E941A1EEB
:100F400080911803882309F432C10E94EB26609334
:100F50002403709325038093260390932703109214
:100F6000180381E0809334038091440390914503FA
:100F7000DC01ED91FC910284F385E02D099569EE89
:100F800070E0CE0101960E94862541E0BE016F5FB0
:100F90007F4F84E193E00E94F110CE0101960E9400
:100FA00081258091440390914503DC01ED91FC91F2
:100FB0000284F385E02D0995D0923103D09232035B
:100FC0006DE4AAC0BE01615E7F4FCE0101960E9412
:100FD0008F25CE0101960E94061F182FCE01019683
:100FE0000E948125112309F4E2C00E941A1EDFC06D
:100FF000893489F490913203993469F4BE01615EB9
:101000007F4FCE0101960E948F25CE0101960E944E
:10101000061F182FB1C08E3419F0823509F084C034
:10102000109132031F3409F0C2C0BE01615E7F4FD0
:10103000CE0101960E948F25CE0101960E94B71E17
:10104000082FCE0101960E948125023579F40E9475
:10105000EB266093240370932503809326039093DB
:1010600027030093310310933203A1C0BE01615ED8
:101070007F4FCE0101960E948F25CE0101960E94DE
:10108000061F182F811113C0BE01615E7F4FCE0174
:1010900007960E948F25CE0107960E94B71E11E089
:1010A000853409F010E0CE0107960E948125CE011B
:1010B00001960E948125112349F080913C038DA364
:1010C0000E941A1E8DA10E948A2071C0BE01615E1D
:1010D0007F4FCE0101960E948F25CE0101960E947E
:1010E000B71E182FCE0101960E948125193409F0F0
:1010F0005EC00E94EB2660932403709325038093C7
:1011000026039093270310933103C092320381E0AA
:101110008093340360913C0384E193E00E94F11CCE
:1011200046C0893409F466CF893409F040C0809103
:1011300032038F34E1F5BE01615E7F4FCE0101962F
:101140000E948F25CE0101960E94061F182F811143
:1011500013C0BE01615E7F4FCE0107960E948F25AE
:10116000CE0107960E94B71E11E0853409F010E009
:10117000CE0107960E948125CE0101960E9481250D
:10118000111133CFCE014F960E94EB1D882379F0C9
:10119000BE01615E7F4FCE0101960E948F25CE0178
:1011A00001960E94101DCE0101960E948125CE015C
:1011B0004F960E948125DACA10924703F6C981E052
:1011C00080933F0348CA80913B0380933C03109275
:1011D0003603E0911403F0911503818D8E3409F4E8
:1011E000BFCA81E080933D0384E193E00E948D10AB
:1011F00084E193E00E945D11B3CA80914403909111
:101200004503DC01ED91FC910284F385E02D099505
:101210006BE272E0CE0101960E94862540E0BE019D
:101220006F5F7F4F84E193E00E94F110CE01019641
:101230000E94812562E771E0CE0101960E94982507
:1012400040E0BE016F5F7F4F84E193E00E94F110A8
:10125000CE0101960E9481256091200384E193E0F4
:101260006DA30E948D108091440390914503DC0191
:10127000ED91FC910190F081E02D6DA109956CE15B
:1012800072E0CE0101960E94862541E0BE016F5FAB
:101290007F4F84E193E00E94F110CE0101960E94FD
:1012A00081258091440390914503DC01ED91FC91EF
:1012B0000284F385E02D099510921F0351CABE01E7
:1012C000615E7F4FCE0101960E948F2540E061E074
:1012D000CE0101960E94621FCE0101960E948125D7
:1012E0001092290377CABE01675E7F4FCE010D962B
:1012F0000E948F256DE671E0CE0101960E94862541
:1013000061E0CE0101960E945D21082FCE01019679
:101310000E948125002309F454C060E671E0CE01EB
:1013200007960E948625BE01635F7F4FCE01079618
:101330000E94EB246CE571E0CE0107960E94DC244C
:10134000BE01695F7F4FCE0101960E948F2561E04B
:10135000CE0101960E945D21082FCE0101960E94C8
:101360008125002349F163E471E0CE0101960E94DA
:10137000862561E0CE0101960E945D21082FCE01F5
:1013800001960E9481250023B9F06CE271E0CE0144
:1013900001960E94862561E0CE0101960E945D21A2
:1013A000082FCE0101960E948125002329F0CE014D
:1013B00007960E94812505C0CE0107960E948125CF
:1013C00000E0CE010D960E948125002309F481C121
:1013D00068E471E0CE0143960E94982567E971E0C8
:1013E000CE010D960E948625BE01635F7F4FCE0120
:1013F00007960E948F256EE471E0CE0107960E9449
:10140000DC24BE016D5E7F4FCE0107960E94EB2467
:101410006CE571E0CE0107960E94DC24BE01695F95
:101420007F4FCE0101960E948F2561E0CE0101968B
:101430000E945D21982ECE0101960E94812599205F
:10144000E9F0BE01635F7F4FCE0107960E94312510
:1014500065E571E0CE0107960E94DC24BE01695F5C
:101460007F4FCE0101960E948F2560E0CE0101964C
:101470000E945D21CE0101960E948125CE01079632
:101480000E948125CE010D960E948125CE014396B2
:101490000E948125992009F41CC1E0911403F09168
:1014A00015038285811164C00E94EB262B013C014B
:1014B0006AE871E0CE0101960E94862540E0BE01F7
:1014C0006F5F7F4F84E193E00E94F110CE0101969F
:1014D0000E9481250E94EB26DC01CB01841995092D
:1014E000A609B709803C944DA140B10508F0F1C0B0
:1014F0008091440390914503DC01ED91FC910480BF
:10150000F581E02D0995892B29F3609144037091B1
:101510004503CE0107960E94611C0B8501506BE7C5
:1015200071E0CE0101960E9486252EE0AE014F5F4C
:101530005F4FBE01695F7F4F84E193E00E94930F8C
:10154000082FCE0101960E948125CE010796002327
:1015500009F4BECF0E949223AB01BC018091140319
:10156000909115030E94CC0ECE0107960E94812512
:10157000E0911403F09115034680578060847184D4
:101580006FE771E0CE0143960E949825BE016D5E23
:101590007F4FCE010D960E948F256BE871E0CE0142
:1015A0000D960E94DC24B301A201CE010D960E948B
:1015B000982467E671E0CE010D960E94DC2460E974
:1015C00071E0CE0107960E949825BE016D5E7F4FA7
:1015D000CE0107960E94EB2463E971E0CE010796E5
:1015E0000E94DC240E94EB262B013C01BE01695FB6
:1015F0007F4FCE0101960E948F2540E0BE016F5FB4
:101600007F4F84E193E00E94F110CE0101960E9489
:1016100081250E94EB26DC01CB0184199509A609DE
:10162000B709803C944DA140B10550F58091440329
:1016300090914503DC01ED91FC910480F581E02D52
:101640000995892B31F36091440370914503CE01D4
:1016500001960E94611CBE016F5F7F4FCE0107960D
:101660000E944825CE0101960E948125BE01635F3C
:101670007F4FCE0107960E943624882351F2E92C31
:10168000CE0107960E948125CE010D960E948125EC
:10169000CE0143960E948125EE20D9F081E080930F
:1016A0002803111110C06BEF71E0CE0101960E946A
:1016B000862540E061E0CE0101960E94621FCE01C6
:1016C00001960E9481250E94D5280E947528FE2C33
:1016D000C4CA0E94D528E0911403F0911503128624
:1016E0001982BE016F5F7F4F84E893E00E94042857
:1016F0001A821982BE016F5F7F4F84E993E00E94D6
:101700004E2801E00983BE016F5F7F4F80E993E0BF
:101710000E9404280093280311119FCA60E671E01B
:10172000CE0101960E94982540E061E0CE0101962D
:101730000E94621FCE0101960E9481258ECA01E09F
:1017400001C002E0CE0149960E949223AB01BC0188
:1017500080911403909115030E94CC0E67EE71E006
:10176000CE0107960E948625BE01675E7F4FCE019F
:1017700007960E94EB24111111C0BE01695F7F4FD3
:10178000CE0101960E948F2540E061E0CE010196D6
:101790000E94621FCE0101960E948125023011F441
:1017A0000E947528CE0107960E948125F92C55CA02
:1017B000BE01635F7F4FCE0107960E948F25BE0159
:1017C000695F7F4FCE0101960E948F25CE01019661
:1017D0000E94B720182F81110DC0BE01695F7F4F95
:1017E00080911403909115030E94270E11E08F3F02
:1017F00009F410E0CE0101960E9481251093180390
:10180000CE0107960E94812590CBA5960FB6F8943D
:10181000DEBF0FBECDBFDF91CF911F910F91FF9023
:10182000EF90DF90CF90BF90AF909F908F907F9080
:101830006F905F904F90089581E0809370020895BB
:101840000E94EB26E4E1F3E064AB75AB86AB97ABAB
:1018500081E083AB0895FB0184819581409770F00E
:10186000CB0160E070E00E94EB23282F880F330B40
:101870002053310981E02A30310508F080E00895D5
:101880006F927F928F929F92AF92BF92CF92DF9290
:10189000EF92FF920F931F93CF93DF93CDB7DEB7F5
:1018A0006C013A01ADB6BEB6822F90E001964DB7FD
:1018B0005EB7481B590B0FB6F8945EBF0FBE4DBF05
:1018C0008DB79EB701964C01611494E0790650F5EE
:1018D000FF24F394F20E31F1E1E0FE1202C0F401B4
:1018E00020C0C3010E945239F4018083EE24E394A6
:1018F0008823C1F00E2D10E0EF1478F4C801860D96
:10190000971D8115F4E09F0740F40E945239F401BD
:10191000E00FF11F8083E394EBCF080D191DF80150
:1019200031971082B401C6010E949825C6010FB6F6
:10193000F894BEBE0FBEADBEDF91CF911F910F9147
:10194000FF90EF90DF90CF90BF90AF909F908F90DF
:101950007F906F9008958F929F92AF92BF92CF9297
:10196000DF92EF92FF920F931F93CF93DF93CDB748
:10197000DEB76B01ADB6BEB6FA01E480F580C701F3
:1019800001962DB73EB7281B390B0FB6F8943EBF12
:101990000FBE2DBF0DB71EB70F5F1F4F892B99F0DC
:1019A0000115110581F0E114F10411F4F8010AC0E8
:1019B000FA0160817181A701C8010E948638F8018F
:1019C000EE0DFF1D1082F80101900020E9F731971C
:1019D000E01BF10BC11424E0D206D8F4FF24F394E9
:1019E000FE0EC6018F0D911D8115944090F44801A3
:1019F000C01AD10A882D801B8F1548F4C601880DA6
:101A0000991DF40161914F010E945A39F3CF81E091
:101A100001C080E00FB6F894BEBE0FBEADBEDF9130
:101A2000CF911F910F91FF90EF90DF90CF90BF90DB
:101A3000AF909F908F900895FC018385882311F0CB
:101A400061E001C060E082E10C947F26CF92DF92DA
:101A5000EF920F93CF93DF9300D0CDB7DEB76C0139
:101A6000FC01618BBC016F5E7F4F86E990E02A83A9
:101A700049830E940428F60181892A8149818823AB
:101A800041F1458726870787E08AB601635F7F4F6C
:101A900088E990E00E940428B601625F7F4F8AE9DE
:101AA00090E00E940428B601615F7F4F8CE990E0CE
:101AB0000E940428B601605F7F4F8EE990E00F908E
:101AC0000F90DF91CF910F91EF90DF90CF900C941A
:101AD00004280F900F90DF91CF910F91EF90DF903E
:101AE000CF900895CF93DF93EC016B87BC01655FC6
:101AF0007F4F80E090E00E940428CE01DF91CF91DB
:101B00000C941C0DCF93DF93EC01FB0180818823A3
:101B100069F08181882319F04EE150E002C040E372
:101B200051E02AE0CE010E94400C05C063E572E05E
:101B3000CE010E948625CE01DF91CF910895DF92DC
:101B4000EF92FF920F931F93CF93DF9300D000D0BB
:101B500000D0CDB7DEB7FC012081222369F17B01E3
:101B60008C012AE040E351E0BC01CE0101960E94C5
:101B7000400CB701CE0101960E943624D82ECE012A
:101B800001960E948125D11019C0B701CE0101969E
:101B90000E948F25F8018081882341F0BE016F5F8C
:101BA0007F4FC8010E941C28182F01C010E0CE01F1
:101BB00001960E94812503C010E001C011E0812F31
:101BC00026960FB6F894DEBF0FBECDBFDF91CF9142
:101BD0001F910F91FF90EF90DF900895FC012081FD
:101BE00021110C941C2880E008950F931F93CF932C
:101BF000DF9300D000D000D0CDB7DEB7FC018381E9
:101C00008823C1F08B01BF012AE040E650E0CE01FD
:101C100001960E94400CBE016F5F7F4FC8010E9479
:101C2000362411E0811101C010E0CE0101960E941E
:101C3000812501C010E0812F26960FB6F894DEBFF3
:101C40000FBECDBFDF91CF911F910F910895CF921D
:101C5000DF92EF92FF920F931F93CF93DF9300D009
:101C600000D000D0CDB7DEB77C016B01FC018081D4
:101C7000811106C0F7018481882309F443C030C074
:101C8000CE0101960E948F25BE016F5F7F4FC70175
:101C90000E949F0D182FCE0101960E9481251111DF
:101CA00033C011E0F7018081181720F7FBE01F9F78
:101CB000A0011124405D5E4F2AE0B701CE010196DC
:101CC0000E94400CB601CE0101960E943624082FD6
:101CD000CE0101960E948125011118C01F5FE2CF3D
:101CE000B601CE0101960E948F25BE016F5F7F4F26
:101CF000C7010E94F50D182FCE0101960E94812583
:101D0000111106C08FEF05C080E003C0812F01C014
:101D10008EEF26960FB6F894DEBF0FBECDBFDF91D3
:101D2000CF911F910F91FF90EF90DF90CF9008958A
:101D3000EF92FF920F931F93CF93DF931F92CDB734
:101D4000DEB77C01FC0100811181C80169830E941A
:101D500052396981681719F0C8010E945A39C701C0
:101D60000F90DF91CF911F910F91FF90EF90089509
:101D7000CF93DF9300D0CDB7DEB7FC01618F8EE04B
:101D800090E09A838983CE0101960E94980E0F906D
:101D90000F90DF91CF910895EF92FF920F931F93D1
:101DA000CF93DF9300D0CDB7DEB721E0FC012287CF
:101DB00046835783608771878C010A5F1F4F88E8CD
:101DC000E82E83E0F82EF80161918F01FA82E98212
:101DD000CE0101960E94980EFFEFEF1AFF0A8CE8E1
:101DE000E81683E0F80679F70F900F90DF91CF9116
:101DF0001F910F91FF90EF900895CF92DF92EF9295
:101E0000FF920F931F93CF93DF93CDB7DEB72C973D
:101E10000FB6F894DEBF0FBECDBF6C017B018A0107
:101E20006AE472E0CE0101960E94862529EC3FE02B
:101E300040E050E0BE016F5F7F4FC6010E947E1CF4
:101E4000882351F122E030E040E050E0BE016F5FB6
:101E50007F4FCE0107960E94AD25CE0107960E94C6
:101E60009223F7016083CE0107960E94812525E029
:101E700030E043E050E0BE016F5F7F4FCE01079638
:101E80000E94AD25CE0107960E949223F80160833F
:101E9000CE0107960E948125CE0101960E948125E0
:101EA0002C960FB6F894DEBF0FBECDBFDF91CF9159
:101EB0001F910F91FF90EF90DF90CF900895FC015C
:101EC000258D293421F421E025830C94F11C0895FB
:101ED0008F929F92AF92BF92CF92DF92EF92FF923A
:101EE000C62E0E94EB264B015C0184E6C89E600171
:101EF00011240D2C000CEE08FF080E94EB26DC01DB
:101F0000CB0188199909AA09BB098C159D05AE0555
:101F1000BF0598F3FF90EF90DF90CF90BF90AF9008
:101F20009F908F900895EF92FF920F931F93CF93FE
:101F3000DF9300D000D000D0CDB7DEB77B01122FE9
:101F4000BA01C7010E94FC238823A9F0202F30E0AA
:101F5000412F50E0B701CE0101960E94AD25BE0190
:101F60006F5F7F4FC7010E944825CE0101960E94F6
:101F7000812581E001C080E026960FB6F894DEBF8F
:101F80000FBECDBFDF91CF911F910F91FF90EF90CA
:101F90000895CF92DF92EF92FF920F931F93CF930A
:101FA000DF9300D000D000D0CDB7DEB77C016B014D
:101FB00067E372E0CE0101960E94862506E121E1E9
:101FC000AE014F5F5F4FB601C7010E94930F182FFC
:101FD000CE0101960E948125812F26960FB6F89496
:101FE000DEBF0FBECDBFDF91CF911F910F91FF904C
:101FF000EF90DF90CF900895CF92DF92EF92FF9213
:102000000F93CF93DF9300D000D000D0CDB7DEB7D1
:102010006C017B01FB010481035060EA71E0CE0199
:1020200001960E94982525E0AE014F5F5F4FB701F2
:10203000C6010E94930F082FCE0101960E948125B0
:10204000802F26960FB6F894DEBF0FBECDBFDF916E
:10205000CF910F91FF90EF90DF90CF9008958F92E6
:102060009F92AF92BF92CF92DF92EF92FF920F9327
:10207000CF93DF93CDB7DEB72C970FB6F894DEBFC2
:102080000FBECDBF5C016B01FB01048101506EE806
:1020900071E0CE0107960E949825F6018481958112
:1020A000892B69F0808091806F817885C4010E94BE
:1020B0009538009721F07C01E818F90803C0EE2458
:1020C000EA94FE2C65EA71E0CE0101960E94982503
:1020D00021E02E0DAE014F5F5F4FB601C5010E949A
:1020E000930F082FCE0101960E948125CE010796FD
:1020F0000E948125802F2C960FB6F894DEBF0FBE6C
:10210000CDBFDF91CF910F91FF90EF90DF90CF90F7
:10211000BF90AF909F908F900895CF93DF93EC0185
:102120008E89811112C061E084E00E947F2681E0E7
:102130008E8B0E94EB26698F7A8F8B8F9C8F61E04C
:10214000CE01DF91CF910C94680F0E94EB26698F2E
:102150007A8F8B8F9C8FDF91CF910895EF92FF92B2
:102160000F931F93CF93DF9300D000D000D0CDB753
:10217000DEB78C017B016FE571E00E949825D701E5
:10218000D0968D919C91D197DC01ED91FC910480CA
:10219000F581E02D099518161906ACF4C7010E94C7
:1021A0008D10F70160A971A9CE0101967C010E94F2
:1021B000611C0E151F0521F0B701C8010E944825BA
:1021C000C7010E948125C80126960FB6F894DEBF8C
:1021D0000FBECDBFDF91CF911F910F91FF90EF9078
:1021E0000895FF920F931F93CF93DF93EC018B0120
:1021F000F42E0E948D106FE571E0C8010E94172433
:1022000008A8D9A9C02D811114C0F80144815581B5
:1022100060817181E881F9810280F381E02DCE0136
:10222000F11006C0DF91CF911F910F91FF9009949B
:102230000995CE01DF91CF911F910F91FF900C94E2
:10224000F3250F931F93CF93DF9300D000D000D0DE
:10225000CDB7DEB78C01DC01D0968D919C91D197E2
:10226000DC01ED91FC910284F385E02D09956FE38B
:1022700072E0CE0101960E94862541E0BE016F5FAB
:102280007F4FC8010E94F110CE0101960E94812566
:10229000F80180A991A9DC01ED91FC910284F385FC
:1022A000E02D099526960FB6F894DEBF0FBECDBF80
:1022B000DF91CF911F910F910895CF92DF92FF92FE
:1022C0000F931F93CF93DF93CDB7DEB762970FB60F
:1022D000F894DEBF0FBECDBF8C0181E0D8011D9602
:1022E0008C93C8010E948D10F80180A991A9DC018E
:1022F000ED91FC910284F385E02D09956BEA71E084
:10230000CE0107960E949825F801F1A0C080D180E7
:10231000FF2059F16FE571E0CE010D960E949825DE
:10232000D6018C91F816B8F4BBE0FB9EA0011124F5
:10233000405D5E4F2AE0B601CE0101960E94400C3E
:10234000BE016F5F7F4FCE010D960E944825CE01E2
:1023500001960E948125BE01635F7F4FCE010796E3
:102360000E94EB24CE010D960EC0B601CE0101965F
:102370000E94820DBE016F5F7F4FCE0107960E94C3
:10238000EB24CE0101960E9481256BE3CE010796D6
:102390000E94C924BE01695F7F4FCE0101960E9451
:1023A0008F2541E0BE016F5F7F4FC8010E94F11091
:1023B000CE0101960E94812561E0C8010E94680F4C
:1023C0006FE571E0CE0101960E94982541E0BE01C3
:1023D0006F5F7F4FC8010E94F110CE0101960E94ED
:1023E00081250E94EB26F801608B718B828B938B89
:1023F00082E5858F8FE4868FCE0107960E94812526
:1024000062960FB6F894DEBF0FBECDBFDF91CF91BD
:102410001F910F91FF90DF90CF900895EF92FF9260
:102420000F931F93CF93DF9300D0CDB7DEB7FC019E
:10243000A081B1818C91811103C0FF24F3947CC0F1
:1024400059968C9159978E34C1F382A98823A9F3A8
:1024500082A1811103C090A5961779F3958D9E34C2
:1024600009F044C0968D9E3409F040C0F3A4FF20CB
:1024700009F462C081113AC0E62E8F0151968C9109
:102480008823B1F1AE014F5F5F4FBE016E5F7F4F9A
:10249000CF010E94FD0E8A81D801ED91FC91258526
:1024A000821730F19785981718F1291309C089818F
:1024B00096858917E8F09089981708F0BECF18C064
:1024C000821306C099818685981708F0B6CF10C090
:1024D000891306C099818089891708F0AECF08C09A
:1024E000281730F4891708F4A8CF02C0F12C24C0B3
:1024F000F80111A20190F081E02D8289882359F022
:102500000E94EB26F80163A374A385A396A3E7A218
:1025100081E082A311C0D8019896EC929897818DA2
:102520008E3409F48ACF81E099968C93C8010E9479
:102530008D10C8010E945D118F2D0F900F90DF91BB
:10254000CF911F910F91FF90EF9008950C94003C54
:10255000089561E081E10C947F260F931F93CF9340
:10256000DF93EC0141110EC08AA581110BC06623D7
:1025700009F162E38A819B81DF91CF911F910F91D5
:102580000C945F0F022F162F19AA61E08DE00E94B4
:102590007F260E94EB26FE01FF9660837183828373
:1025A000938381E08EAF1AA660E080E10E947F26CF
:1025B0001EA308A7DF91CF911F910F910895FC01F1
:1025C000A081B1811C968C9191A5882321F099233B
:1025D00021F083A50895892F089581E008951F9320
:1025E000CF93DF93EC011BA5112331F00E94DF1282
:1025F000882311F081E00BC0CE010E94DF128823F6
:1026000021F0111104C084E002C082E000C0DF911B
:10261000CF911F910895CF93DF93FC0122A5211143
:1026200010C0EC010E94DF12882359F08BA588238B
:1026300041F081E08CA70E94EB266DA77EA78FA7B3
:1026400098ABDF91CF9108951F93CF93DF93EC0167
:10265000162FE881F981838581110CC08AA581112B
:102660001BC08BA58823C1F061E08DE00E947F260E
:102670001CA612C08EAD81110FC08BA5882361F0FE
:1026800060E08DE00E947F26112331F0CE01DF91C2
:10269000CF911F910C940B13DF91CF911F9108954F
:1026A000EF92FF920F931F93CF93DF937B018A01E9
:1026B000E901F8948AE00E94562631E0892B09F45A
:1026C00030E0F70130838BE00E94562631E0892B01
:1026D00009F030E0F801308383E00E94562631E0B3
:1026E000892B09F430E038837894DF91CF911F91E2
:1026F0000F91FF90EF9008950F931F93CF93DF9367
:1027000000D01F92CDB7DEB78C019E012F5F3F4FE7
:10271000AE014E5F5F4FBE016D5F7F4F0E94501351
:102720009A81F80192A7992311F061E001C060E05D
:1027300080E10E947F268A810F900F900F90DF9199
:10274000CF911F910F9108950F931F93CF93DF9314
:10275000F89486E00E9456268C0187E00E94562657
:10276000EC0185E00E9456267894012B31F4CD2BA4
:1027700031F4892B31F483E005C080E003C081E0AF
:1027800001C082E0DF91CF911F910F9108951F93B7
:10279000CF93DF93EC01162F1CA68BA5882329F07D
:1027A000CE010E94DF1281110FC08A819B8111230B
:1027B00031F06EE4DF91CF911F910C945F0F6EE4C6
:1027C0000E940E128C832DC08AA5811124C0CE01D7
:1027D0000E94A413811106C08A819B81112379F381
:1027E00064E5E8CF60E08DE00E947F2660E08CE049
:1027F0000E947F260E94A9120E94EB2669AF7AAF41
:102800008BAF9CAF81E08FAB8AA761E080E10E9433
:102810007F261FA306C0112321F061E38A819B81DB
:10282000C9CFDF91CF911F9108951F920F920FB6DC
:102830000F9211248F939F9391E0909306028091C1
:102840001E028F5F80931E0280911E028E3240F026
:1028500080914A02811102C09093070210921E02D9
:102860009F918F910F900FBE0F901F9018951F9200
:102870000F920FB60F9211240F900FBE0F901F9062
:1028800018951F920F920FB60F9211248F9381E02B
:10289000809370028F910F900FBE0F901F9018952C
:1028A0001F920F920FB60F9211242F933F934F93C5
:1028B0005F936F937F938F939F93AF93BF93EF93A8
:1028C000FF9381E0809372020E94EB266093730273
:1028D000709374028093750290937602FF91EF914A
:1028E000BF91AF919F918F917F916F915F914F9128
:1028F0003F912F910F900FBE0F901F9018951F9230
:102900000F920FB60F9211248F9381E08093710282
:102910008F910F900FBE0F901F901895E0E6F0E09A
:1029200098E1908380830895AF92BF92DF92EF92F7
:10293000FF920F931F93CF93DF93CDB7DEB76497CA
:102940000FB6F894DEBF0FBECDBF7C01062FD42E8C
:10295000122F60932803BC01CE010D960E948F2593
:102960006EEA73E0CE0101960E948625BE016F5F7C
:102970007F4FC7010E94FC23B82ECE0101960E9412
:102980008125BB2019F00E94572AB5C665EA73E07D
:10299000CE0101960E948625BE016F5F7F4FC70161
:1029A0000E94FC23B82ECE0101960E948125BB20F7
:1029B00011F1E0901403F0901503002319F0F701D2
:1029C000108203C081E0F7018083B7018CE291E0BF
:1029D0000E940428F7011182B7016F5F7F4F8AE1DF
:1029E00090E00E940428F7011282B7016E5F7F4FCA
:1029F00086E190E07EC66DE973E0CE0101960E940B
:102A00008625BE016F5F7F4FC7010E94FC23B82E51
:102A1000CE0101960E948125BB2009F45DC060E0D3
:102A200080911403909115030E94720DE09114039C
:102A3000F0911503138ABF016D5E7F4F82E390E032
:102A40000E940428E0911403F0911503128ABF013B
:102A50006E5E7F4F8AE390E00E940428E0911403A9
:102A6000F09115031486BF01645F7F4F86E390E009
:102A70000E940428E0911403F0911503108EBF0109
:102A8000685E7F4F8CE090E00E94042863E48091B0
:102A90001403909115030E94B80EE0911403F09175
:102AA000150382E390E0958B848BBF016C5E7F4FB2
:102AB00084E090E00E94D327E0911403F091150385
:102AC00082E090E0978B868BBF016A5E7F4F82E148
:102AD00090E00E94D3270FC669E973E0CE0101960A
:102AE0000E948625BE016F5F7F4FC7010E94FC23B5
:102AF000B82ECE0101960E948125BB20F1F1E09015
:102B00001403F09015036FE571E0CE0107960E9463
:102B1000982510E0F70180811817F8F4FBE01F9F5B
:102B2000A0011124405D5E4F2AE0B701CE0101965D
:102B30000E94400CBE016F5F7F4FCE0107960E943E
:102B4000EB24CE0101960E9481256EE571E0CE0155
:102B500007960E94DC241F5FDDCF6FE571E0CE0198
:102B600007960E941724882309F4DDC56FE873E0F7
:102B7000CE0107960E94F224D6C569E873E0CE0123
:102B800001960E948625BE016F5F7F4FC7010E949C
:102B9000FC23B82ECE0101960E948125BB2029F08E
:102BA00084E193E00E94A612E7C565E873E0CE01D8
:102BB00001960E948625BE016F5F7F4FC7010E946C
:102BC000FC23B82ECE0101960E948125BB2019F06E
:102BD0000E940F2ABDC56EE773E0CE0101960E94E8
:102BE0008625BE016F5F7F4FC7010E94FC23B82E70
:102BF000CE0101960E948125BB2011F061E014C036
:102C000066E773E0CE0101960E948625BE016F5FE4
:102C10007F4FC7010E94FC23B82ECE0101960E946F
:102C20008125BB2079F060E0809114039091150319
:102C30000E94720D61E080911603909117030E942B
:102C4000241359C560E773E0CE0101960E948625E2
:102C5000BE016F5F7F4FC7010E94FC23B82ECE01DB
:102C600001960E948125BB2039F0E0911403F09178
:102C7000150381E0848718C069E673E0CE010196F0
:102C80000E948625BE016F5F7F4FC7010E94FC2313
:102C9000B82ECE0101960E948125BB2059F0E0910B
:102CA0001403F09115031486BF01645F7F4F86E320
:102CB00090E01FC563E673E0CE0101960E94862571
:102CC000BE016F5F7F4FC7010E94FC23B82ECE016B
:102CD00001960E948125BB2039F0E0911403F09108
:102CE000150381E0808F18C06CE573E0CE0101967A
:102CF0000E948625BE016F5F7F4FC7010E94FC23A3
:102D0000B82ECE0101960E948125BB2059F0E0919A
:102D10001403F0911503108EBF01685E7F4F8CE0A5
:102D200090E0E7C467E573E0CE0101960E94862536
:102D3000BE016F5F7F4FC7010E94FC23B82ECE01FA
:102D400001960E948125BB20E1F0F70184819581E5
:102D5000059708F411C564E070E0C7010E94EB23F9
:102D6000982F9D7F913429F0843519F08E3409F025
:102D700003C5682F80911403909115030E94B80E2B
:102D8000BAC461E573E0CE0101960E948625BE01BA
:102D90006F5F7F4FC7010E94FC23B82ECE010196C2
:102DA0000E948125BB2039F0E0911403F0911503B6
:102DB00081E0838B18C06AE473E0CE0101960E9423
:102DC0008625BE016F5F7F4FC7010E94FC23B82E8E
:102DD000CE0101960E948125BB2059F0E091140399
:102DE000F0911503138ABF016D5E7F4F82E390E07F
:102DF00080C463E473E0CE0101960E948625BE0183
:102E00006F5F7F4FC7010E94FC23B82ECE01019651
:102E10000E948125BB2009F4C0C06CE373E0C701A8
:102E20000E94F2242CEF3FE040E050E0B70184E143
:102E300093E00E947E1C882339F0C7010E949223F0
:102E4000162F110F160F01C01FEF65E084E193E00C
:102E50000E94680F65E373E0C7010E94F2242FE22D
:102E600030E140E050E0B70184E193E00E947E1C35
:102E7000882349F16EE871E0CE0107960E949825FB
:102E8000F701448155818B859C85481B590BBE01F8
:102E9000695F7F4FC7010E949D239C0140E050E085
:102EA000B701CE0101960E94AD25CE0101960E9488
:102EB0009223062FCE0101960E948125CE0107960E
:102EC0000E94812501C00FEFA0901603B090170358
:102ED000C5010E94EF12F82EF501E2A46EE972E03E
:102EE000CE0101960E948625E0911403F09115030E
:102EF0008385811106C066E972E0CE0101960E94C9
:102F0000F22462EB71E0CE0101960E94DC24F1E034
:102F1000FF1631F082E0F81631F066E872E005C085
:102F20006AE772E002C06CE872E0CE0101960E948E
:102F300068246FE772E0CE0101960E946824E110D8
:102F400003C06FE672E002C065E772E0CE01019651
:102F50000E9468240F3F59F068E672E0CE010196A6
:102F60000E946824602FCE0101960E9422361F3FE6
:102F700059F06EE572E0CE0101960E946824612F3F
:102F8000CE0101960E94223640E061E0CE0101961A
:102F90000E94621FCE010196D9C360E373E0CE01A7
:102FA00001960E948625BE016F5F7F4FC7010E9478
:102FB000FC23882321F0002319F011E001C010E068
:102FC000CE0101960E948125112359F0E09114034E
:102FD000F09115038281882309F4CEC381E08183B7
:102FE00018C06AE273E0CE0101960E948625BE01F8
:102FF0006F5F7F4FC7010E94FC23182FCE010196FF
:103000000E948125112359F0E0911403F0911503DA
:103010001182BF016F5F7F4F8AE190E06AC364E273
:1030200073E0CE0101960E948625BE016F5F7F4F3F
:10303000C7010E94FC23182FCE0101960E94812512
:10304000112361F0E12C00E020E040E060E080919D
:103050001403909115030E94260D4DC36CE173E09B
:10306000CE0101960E948625BE016F5F7F4FC7018A
:103070000E94FC23182FCE0101960E948125112366
:10308000D9F0AE014D5E5F4FBE016C5E7F4F84E1B3
:1030900093E00E94FD0E66E173E0CE0107960E9468
:1030A00086256C89CE0107960E9422366B89CE0157
:1030B00007960E94223637C36EE073E0CE01019678
:1030C0000E9486250BE027E0AE014F5F5F4FB701FE
:1030D00084E193E00E94930F182FCE0101960E9485
:1030E00081251123E9F16BEF72E0CE0107960E9472
:1030F000862522E030E040E050E0B701CE010196A5
:103100000E94AD25BE016F5F7F4FCE0107960E94E2
:10311000EB24CE0101960E94812565EB71E0CE0182
:1031200007960E94DC2424E030E042E050E0B70142
:10313000CE0101960E94AD25BE016F5F7F4FCE018B
:1031400007960E94EB24CE0101960E94812567EB31
:1031500071E0CE0107960E94DC24CE01079682C260
:1031600064EF72E0CE0101960E9486250FE026E012
:10317000AE014F5F5F4FB70184E193E00E94930F70
:10318000182FCE0101960E948125112309F487C0D2
:1031900064E070E0C7010E94EB238D3209F0ECC2BD
:1031A00022E030E040E050E0B701CE0107960E94F7
:1031B000AD25CE0107960E949223162F24E030E021
:1031C00042E050E0B701CE0101960E94AD25BE015C
:1031D0006F5F7F4FCE0107960E944825CE01019672
:1031E0000E948125CE0107960E949223B62E27E0E9
:1031F00030E045E050E0B701CE0101960E94AD25D8
:10320000BE016F5F7F4FCE0107960E944825CE0119
:1032100001960E948125CE0107960E949223062FD7
:1032200029E030E047E050E0B701CE0101960E946E
:10323000AD25BE016F5F7F4FCE0107960E944825E6
:10324000CE0101960E948125CE0107960E9492230D
:103250001831F8F4EBE3EB15E0F00831D0F46C33FF
:10326000C0F4809114039091150310130AC0B61294
:1032700008C0E12C00E020E040E060E00E94260D64
:1032800008C0E62E2B2D412F61E00E94260D11E093
:1032900001C010E0CE0107960E9481252DC2F701E2
:1032A000048101506EEE72E0CE0101960E948625E7
:1032B00025E0AE014F5F5F4FB70184E193E00E94CC
:1032C000930F182FCE0101960E9481251123F1F052
:1032D000C7010E943821882309F44EC2C7010E9409
:1032E00092238B016630710510F005E010E0E0914B
:1032F0001403F0911503028BBF016E5E7F4F8AE3CA
:1033000090E00E94042868EE72E07BC0F70104811F
:1033100001506FED72E0CE0101960E94862528E0F3
:10332000AE014F5F5F4FB70184E193E00E94930FBE
:10333000182FCE0101960E948125112329F1C70182
:103340000E943821882309F417C2C7010E949223E2
:103350008B016230710530F0613B744028F000EB66
:1033600014E002C002E010E0E0911403F0911503B4
:10337000178B068BBF016A5E7F4F82E190E00E944F
:10338000D32766ED72E03DC0F701048101506DEC7A
:1033900072E0CE0101960E94862528E0AE014F5FC3
:1033A0005F4FB70184E193E00E94930F182FCE0185
:1033B00001960E948125112371F1C7010E943821D5
:1033C000882309F4D9C1C7010E9492238B0162337B
:1033D000710530F06138704728F000E810E702C04E
:1033E00002E310E0E0911403F0911503158B048BB8
:1033F000BF016C5E7F4F84E090E00E94D32764ECB5
:1034000072E0CE010D960E94F224B801CE010D9615
:103410000E94F23570C1F7010481015060EC72E046
:10342000CE0101960E94862523E0AE014F5F5F4FDB
:10343000B70184E193E00E94930F182FCE0101960B
:103440000E948125112321F164EB72E0CE010796E1
:103450000E948625B701CE0107960E94EB2460E703
:1034600071E0CE0107960E94DC2481E0809329035D
:10347000BE01695F7F4FCE0101960E948F2541E01A
:10348000BE016F5F7F4F84E193E00E94F11058C14D
:103490006EEB71E0CE0101960E9498250CE022E0CF
:1034A000AE014F5F5F4FB70184E193E00E94930F3D
:1034B000182FCE0101960E948125112309F448C0DE
:1034C000C7010E943821882309F456C100911403D2
:1034D00010911503F8018081823008F44DC1B701C5
:1034E000C8010E94270EF82E8FEF8F0D8D3F08F038
:1034F00043C18BE0E82E2F2D30E0F8019081492F59
:1035000050E04150510924173507FCF42F5F3F4F1D
:10351000E29E5001E39EB00C1124A501405D5E4F78
:103520002AE0B801CE0101960E94400CB5016B5D06
:103530007E4FAE014F5F5F4FC8010E94AB0CCE01C2
:1035400001960E948125F394D6CF9150908348C074
:1035500062EC71E0CE0101960E9498250CE022E019
:10356000AE014F5F5F4FB70184E193E00E94930F7C
:10357000182FCE0101960E9481251123A9F1C701C0
:103580000E943821882309F4F7C000911403109198
:103590001503F80180818F3009F4EEC0B701C8012E
:1035A0000E94270E8F3F09F0E7C0B701CE010196B8
:1035B0000E948F25F8016081FBE06F9FB00111240C
:1035C000605D7E4FAE014F5F5F4FC8010E94AB0C44
:1035D000CE0101960E948125F80180818F5F808352
:1035E000B8018CE291E085C061EC71E0CE010196FA
:1035F0000E9498250DE023E0AE014F5F5F4FB701B9
:1036000084E193E00E94930F182FCE0101960E944F
:103610008125112351F1C7010E943821882309F423
:10362000ABC00091140310911503F8018081882329
:1036300009F4A2C081E08283B8016E5F7F4F86E10A
:1036400090E00E940428B701CE0101960E948F25C8
:10365000AE014F5F5F4F6EE170E0C8010E94AB0C9E
:10366000CE0101960E94812546C065EC71E0CE0135
:1036700001960E9498250DE023E0AE014F5F5F4F59
:10368000B70184E193E00E94930F182FCE010196B9
:103690000E948125112309F46FC0C7010E943821BF
:1036A000882309F469C0009114031091150381E087
:1036B000F8018383B8016D5F7F4F88E590E00E9439
:1036C0000428B701CE0101960E948F25AE014F5FFD
:1036D0005F4F60E670E0C8010E94AB0CCE0101961E
:1036E0000E948125F8011482B8016C5F7F4F8CE540
:1036F00090E00E94042811E0D1102AC06EEA72E026
:10370000CE0107960E948625111106C065EA72E077
:10371000CE0107960E94F224BE01635F7F4FCE0167
:1037200007960E94EB24BE01695F7F4FCE01019690
:103730000E948F2540E061E0CE0101960E94621F49
:10374000CE0101960E948125CE0107960E94812517
:10375000CE010D960E94812564960FB6F894DEBFC7
:103760000FBECDBFDF91CF911F910F91FF90EF90D2
:10377000DF90BF90AF90089510E0BECF84E193E05A
:103780000E9421110E94EB2660932403709325036D
:10379000809326039093270308950F931F93CF934D
:1037A000DF93CDB7DEB72C970FB6F894DEBF0FBE10
:1037B000CDBF6AE274E0CE0107960E94862561E4DF
:1037C000CE0107960E94C92466E274E0CE010796F6
:1037D0000E94682404E113E0D801D0968D919C9159
:1037E000D197DC01ED91FC910284F385E02D0995E0
:1037F000BE01695F7F4FCE0101960E948F2541E097
:10380000BE016F5F7F4FC8010E94F110CE0101968B
:103810000E948125F80180A991A9DC01ED91FC911C
:103820000284F385E02D0995CE0107960E9481253B
:103830002C960FB6F894DEBF0FBECDBFDF91CF91AF
:103840001F910F910895FC01A089B18982E08C93AA
:10385000A485B5851C92A685B78583E38C93108ECD
:10386000A489B58986E08C93A289B3898C91806103
:103870008C93A289B3898C9188608C93A289B38937
:103880008C9180688C930288F389E02D80818F7DF4
:103890008083089580912903811111C09091310393
:1038A0009E3471F4909132039E3451F480913F0321
:1038B000882331F090913D0381E08927089580E0CD
:1038C00008950F931F93CF93DF93EC018B016FE566
:1038D00071E00E949825C8010E94F72697FD08C054
:1038E0008A30910529F0682FCE010E94C924F3CFB8
:1038F000CE01DF91CF911F910F9108954F925F926A
:103900006F927F92AF92BF92CF92DF92FF920F930E
:103910001F93CF93DF9300D000D000D0CDB7DEB798
:103920008C015B0169010E94EB262B013C01B50172
:10393000CE0101960E948F2541E0BE016F5F7F4F4F
:10394000C8010E94F110CE0101960E9481250E94BB
:10395000EB26DC01CB0184199509A609B709803A49
:103960009F40A105B10538F5D801D0968D919C9165
:10397000D197DC01ED91FC910480F581E02D099552
:10398000892B29F3B801CE0101960E94AE10BE0129
:103990006F5F7F4FC801F6010995F82E882399F2D1
:1039A000BE016F5F7F4FC5010E943125CE01019698
:1039B0000E94812501C0F12C8F2D26960FB6F89418
:1039C000DEBF0FBECDBFDF91CF911F910F91FF9052
:1039D000DF90CF90BF90AF907F906F905F904F90AF
:1039E00008951F93CF93DF93EC01162F88A999A90F
:1039F000DC01ED91FC910284F385E02D0995CE0167
:103A00000E9421110E94EB266F83788789879A870D
:103A100081E08B8718A71C87DF91CF911F910895B4
:103A2000CF93DF9360E070E00E94EB23813371F469
:103A300083E580933E030E94BE1B61E080911603E4
:103A400090911703DF91CF910C94C713823381F4C7
:103A50008FE480933E030E94BE1B20E040E061E0C3
:103A60008091160390911703DF91CF910C94AD12C2
:103A7000833341F584E580933E030E94BE1BC091D1
:103A80001603D0911703CE010E94EF12843011F477
:103A90006CE403C0823039F461E48A819B81DF9158
:103AA000CF910C945F0F813009F092C0CE010E943B
:103AB0007C132A813B81882311F061E301C063E319
:103AC000C901EDCF8433E9F487E580933E030E947A
:103AD000BE1BC0911603D0911703CE010E94A41300
:103AE000811102C064E5D9CF813011F461E5D5CFF1
:103AF000823011F462E5D1CF833009F069C065E40A
:103B0000CCCF8434C9F481E380933E0361E080919B
:103B10001403909115030E94720D61E080911603C9
:103B2000909117030E94241360E0809116039091F6
:103B300017030E94C71315C08334B9F482E380933E
:103B40003E0360E080911403909115030E94720D72
:103B500021E040E060E080911603909117030E94FD
:103B6000AD12DF91CF910C94CD1B8833A9F40E9444
:103B7000BE1B61E080911403909115030E94720DA9
:103B800061E080911603909117030E94241381E055
:103B90008093190368E316C08933D1F40E94BE1BD9
:103BA00060E080911403909115030E94720D61E012
:103BB00080911603909117030E94241381E0809353
:103BC000190369E384E193E0DF91CF910C94F11C38
:103BD000DF91CF910895EF92FF920F931F93CF93B0
:103BE000DF9300D000D000D0CDB7DEB77C0169EC08
:103BF00071E0CE0101960E94982508E027E0AE0111
:103C00004F5F5F4FB70184E193E00E94930F182F3D
:103C1000CE0101960E948125812F26960FB6F89439
:103C2000DEBF0FBECDBFDF91CF911F910F91FF90EF
:103C3000EF900895CF93DF9300D000D000D0CDB7A0
:103C4000DEB71092330310922103809144039091C8
:103C50004503DC01ED91FC910284F385E02D09958B
:103C60006EE174E0CE0101960E94862541E0BE011E
:103C70006F5F7F4F84E193E00E94F110CE010196C7
:103C80000E9481250E94EB2661E084E193E00E947E
:103C9000680F6FE571E0CE0101960E94982541E022
:103CA000BE016F5F7F4F84E193E00E94F110CE016F
:103CB00001960E9481258091440390914503DC0187
:103CC000ED91FC910284F385E02D099510923D035E
:103CD000809131038E3411F0823549F580913203A1
:103CE0008F3429F580913503811121C080913403EF
:103CF00081111DC0E0911403F0911503818D84356D
:103D0000B1F48081823098F081E080933503809314
:103D100036030E94EB266093370370933803809339
:103D2000390390933A0380913C0380933B031092B4
:103D30003403109219038EE480933103809332038D
:103D4000109218030E94EB26609340037093410386
:103D5000809342039093430310923F0326960FB63D
:103D6000F894DEBF0FBECDBFDF91CF910895FF92D3
:103D70000F931F93CF93DF9300D000D000D0CDB727
:103D8000DEB78C0162E174E0CE0101960E948625C7
:103D9000BE016F5F7F4FC8010E94FC23F82ECE0149
:103DA00001960E948125FF20E1F02CE030E04BE0FD
:103DB00050E0B801CE0101960E94AD2560E070E0B0
:103DC000CE0101960E94EB23182FCE0101960E948E
:103DD0008125123341F0133341F0103341F0163393
:103DE00041F08EE407C084E405C082E503C089E4A5
:103DF00001C085E426960FB6F894DEBF0FBECDBF96
:103E0000DF91CF911F910F91FF900895FF920F9333
:103E10001F93CF93DF9300D000D000D0CDB7DEB793
:103E20008C0166E074E0CE0101960E948625BE01F9
:103E30006F5F7F4FC8010E943624F82ECE01019695
:103E40000E948125FF2011F091E02FC060E074E016
:103E5000CE0101960E948625BE016F5F7F4FC8018B
:103E60000E943624F82ECE0101960E948125F11081
:103E7000EBCF65EF73E0CE0101960E948625BE016F
:103E80006F5F7F4FC8010E943624F82ECE01019645
:103E90000E948125F110D8CF61ED71E0C8010E9428
:103EA000172491E0811101C090E0892F26960FB66A
:103EB000F894DEBF0FBECDBFDF91CF911F910F9160
:103EC000FF900895EF92FF920F931F93CF93DF938C
:103ED000CDB7DEB762970FB6F894DEBF0FBECDBF89
:103EE0007C01062F142F81E08093210380914403ED
:103EF00090914503DC01ED91FC910284F385E02D66
:103F00000995B701CE010D960E948F25011126C09B
:103F100080913C038F34B1F034F4833499F08634CB
:103F200009F0E7C00FC0833521F0853509F0E1C005
:103F300009C068ED71E0CE010D960E941A256FED63
:103F400071E008C068ED71E0CE010D960E941A255F
:103F500062EE71E0CE010D960E94DC2466EE71E007
:103F6000CE0107960E9498251230B9F4609114038F
:103F700070911503FB018381882341F02AE040E61C
:103F800050E0CE0101960E94400C1AC06FE571E02E
:103F9000CE0101960E94982513C0809128038823A2
:103FA00039F06AEE73E0CE0107960E94682413C0D0
:103FB0006091140370911503CE0101960E94820D49
:103FC000BE016F5F7F4FCE0107960E94EB24CE01AA
:103FD00001960E94812560E771E0CE0107960E945C
:103FE000DC248091440390914503DC01ED91FC9128
:103FF0000284F385E02D0995BE01695F7F4FCE01F4
:1040000001960E948F2541E0BE016F5F7F4F84E1E2
:1040100093E00E94F110CE0101960E9481258091CB
:10402000440390914503DC01ED91FC910284F385FA
:10403000E02D09956AE084E193E00E94680FBE01DB
:10404000635F7F4FCE0101960E948F2541E0BE0144
:104050006F5F7F4F84E193E00E94F110CE010196E3
:104060000E9481258091440390914503DC01ED91EC
:10407000FC910284F385E02D09956AE084E193E0E8
:104080000E94680F8091440390914503DC01ED91FB
:10409000FC910284F385E02D099584E193E00E9470
:1040A0008D100091440310914503D801ED91FC91CE
:1040B0000190F081E02D6AE1C8010995C8010E94D4
:1040C000F3258091440390914503DC01ED91FC912F
:1040D0000284F385E02D09956AE084E193E00E9473
:1040E000680F1092280310922103CE0107960E94B8
:1040F0008125CE010D960E94812562960FB6F89417
:10410000DEBF0FBECDBFDF91CF911F910F91FF900A
:10411000EF900895CF93DF9300D000D000D0CDB7BB
:10412000DEB790913403911119C0E0911403F0911E
:104130001503918D913491F480933C036FE571E008
:10414000CE0101960E94982540E060E0CE010196E4
:104150000E94621FCE0101960E94812526960FB60D
:10416000F894DEBF0FBECDBFDF91CF9108950F93BE
:104170001F93CF93DF93CDB7DEB76E970FB6F8944A
:10418000DEBF0FBECDBF8C016FED73E0CE01019697
:104190000E948625BE016F5F7F4FC8010E943624B2
:1041A00081114DC064ED73E0CE0107960E94862513
:1041B000BE01695F7F4FC8010E943624811141C052
:1041C00069EC73E0CE010D960E948625BE01635F07
:1041D0007F4FC8010E943624811135C06EEB73E019
:1041E000CE0143960E948625BE016D5E7F4FC801B9
:1041F0000E943624811115C063EB73E0CE0149960D
:104200000E948625BE01675E7F4FC8010E9436244A
:1042100011E0811101C010E0CE0149960E94812574
:1042200001C011E0CE0143960E948125CE010D967A
:104230000E948125CE0107960E94812509C080E059
:1042400004C081E002C011E0F1CF11E08111F2CF92
:10425000CE0101960E948125812F6E960FB6F894AB
:10426000DEBF0FBECDBFDF91CF911F910F9108959B
:10427000EF92FF920F931F93CF938C01FC01E48088
:10428000F580C0E06C2F70E06E157F0568F4C80102
:104290000E94EB23282F880F330B205331092A303B
:1042A000310520F4CF5FEECF81E001C080E0CF91F7
:1042B0001F910F91FF90EF9008958F929F92AF9270
:1042C000BF92CF92DF92EF92FF921F93CF93DF9333
:1042D00000D000D000D0CDB7DEB7162FBC01CE0184
:1042E00001960E948F2540E0BE016F5F7F4F84E101
:1042F00093E00E94F110CE0101960E9481250E9458
:10430000EB264B015C01112339F090E6C92E9AEEA1
:10431000D92EE12CF12C15C088EBC82E8BE0D82EBD
:10432000E12CF12C0EC08091440390914503DC01F7
:10433000ED91FC910480F581E02D09951816190680
:1043400074F00E94EB26DC01CB0188199909AA09B7
:10435000BB098C159D05AE05BF0528F323C064E19C
:1043600073E0CE0101960E94AE1063EF71E0CE01C2
:1043700001960E94172481110DC061ED71E0CE01FC
:1043800001960E941724811107C0CE0101960E9458
:104390008125D7CF11E001C010E0CE0101960E9427
:1043A000812501C010E0812F26960FB6F894DEBF5C
:1043B0000FBECDBFDF91CF911F91FF90EF90DF90A7
:1043C000CF90BF90AF909F908F9008950895CF9217
:1043D000DF92EF92FF920F931F93CF93DF936C01C5
:1043E0007A018B01C0E0D0E0CE15DF0589F0D8015D
:1043F0006D918D01D601ED91FC910190F081E02D40
:10440000C6010995892B11F47E0102C02196ECCFDB
:10441000C701DF91CF911F910F91FF90EF90DF9037
:10442000CF900895FC01918D828D981761F0828D57
:10443000DF01A80FB11D5D968C91928D9F5F9F73D8
:10444000928F90E008958FEF9FEF0895FC01918D7A
:10445000828D981731F0828DE80FF11D858D90E0E7
:1044600008958FEF9FEF0895FC01918D228D892F84
:1044700090E0805C9F4F821B91098F73992708956C
:1044800087E792E00E94342221E0892B09F420E0A2
:10449000822F0895FC01848DDF01A80FB11DA35A5E
:1044A000BF4F2C91848D90E001968F739927848F54
:1044B000A689B7892C93A089B1898C9180648C934B
:1044C000938D848D981306C00288F389E02D808136
:1044D0008F7D80830895EF92FF920F931F93CF9368
:1044E000DF93EC0181E0888F9B8D8C8D981305C044
:1044F000E889F989808185FD24C0F62E0B8D10E0B6
:104500000F5F1F4F0F731127E02E8C8DE8120CC028
:104510000FB607FCFACFE889F989808185FFF5CFCE
:10452000CE010E944A22F1CF8B8DFE01E80FF11DD2
:10453000E35AFF4FF0820B8FEA89FB89808180620A
:1045400007C0EE89FF896083E889F98980818064EA
:10455000808381E090E0DF91CF911F910F91FF90D8
:10456000EF900895CF93DF93EC01888D8823C9F0F5
:10457000EA89FB89808185FD05C0A889B9898C916C
:1045800086FD0FC00FB607FCF5CF808185FFF2CF07
:10459000A889B9898C9185FFEDCFCE010E944A226E
:1045A000E7CFDF91CF91089580E090E0892B29F04B
:1045B0000E94402281110C9400000895833081F004
:1045C00028F4813099F08230A1F008958730A9F065
:1045D0008830B9F08430D1F4809180008F7D03C0A1
:1045E000809180008F7780938000089584B58F77C5
:1045F00002C084B58F7D84BD08958091B0008F770F
:1046000003C08091B0008F7D8093B000089508951D
:104610000E944A38CF93DF93EC01888199810097FB
:1046200011F00E94E836198218821D821C821B82BA
:104630001A82DF91CF9108950F931F93CF93DF9349
:10464000EC0188819981009729F02A813B81261706
:10465000370788F48B016F5F7F4F0E948037009788
:1046600061F0998388831B830A832C813D81232BEE
:1046700011F4FC01108281E001C080E0DF91CF9154
:104680001F910F910895EF92FF920F931F93CF9375
:10469000DF93FC01248135816115710511F480E0FF
:1046A00019C041155105A9F07B01EC018A01020FE7
:1046B000131FB8010E941C23882389F328813981A4
:1046C0008C819D81B701820F931F0E9471381D83D9
:1046D0000C8381E0DF91CF911F910F91FF90EF90BC
:1046E0000895EF92FF920F931F93CF93DF93EC0106
:1046F0007B018A01BA010E941C23811104C0CE01F2
:104700000E940A2307C01D830C83B7018881998109
:104710000E947138CE01DF91CF911F910F91FF90D0
:10472000EF900895FC0180819181009711F00C9425
:10473000AF3860E070E0CB010895AF92BF92CF92A6
:10474000DF92EF92FF920F931F93CF93DF937B0142
:104750008A01FB01448155814115510561F1FC013C
:10476000248135812115310531F12417350718F1E0
:104770000217130718F0890101501109FC01A080EC
:10478000B180C501DFEFCFEF6501C00ED11EC816A5
:10479000D906A0F0F701608171810E9495380097D9
:1047A00069F09C012A193B090217130710F0D22F58
:1047B000C32F0196ECCF8FEF9FEF02C08D2F9C2F60
:1047C000DF91CF911F910F91FF90EF90DF90CF90ED
:1047D000BF90AF900895FC01248135816217730763
:1047E00048F480819181009729F0FC01E60FF71FC2
:1047F0008081089580E00895FB0144815581FC018A
:10480000248135812417350778F0808191810097C4
:1048100059F0FB01608171816115710529F00E94D9
:10482000783821E0892B09F020E0822F0895FC01DF
:1048300024813581232B31F421E061157105A1F02C
:10484000FB0108C0FC01808191816115710531F483
:1048500021E0FC018081882339F005C00E9468387E
:1048600021E0892B09F020E0822F0895FC012481AA
:104870003581FB01448155812417350721F5FC0161
:1048800080819181FB0160817181009719F0611530
:104890007105A1F46115710549F0232BB1F0FB01FD
:1048A000808190E09195819591090AC0009769F007
:1048B000232B59F0FC01808190E002C00E946838EF
:1048C00021E0892B19F020E001C021E0822F08951A
:1048D000EF92FF920F931F93CF93DF9361157105B2
:1048E00011F480E01EC08B01EC01CB010E94DD3889
:1048F0000097B1F02C813D817C01E20EF31EB701DF
:10490000CE010E941C23882361F3288139818C8188
:104910009D81B801820F931F0E94D638FD82EC82E0
:1049200081E0DF91CF911F910F91FF90EF9008955B
:10493000EF92FF920F931F93CF93DF93CDB7DEB724
:104940002D970FB6F894DEBF0FBECDBF7C01CB0113
:10495000BA012AE08E010F5F1F4FA8010E9406399D
:10496000F80101900020E9F73197AF01401B510B8E
:10497000B801C7010E9443232D960FB6F894DEBFFD
:104980000FBECDBFDF91CF911F910F91FF90EF90A0
:104990000895CF93DF9300D0CDB7DEB769831A8235
:1049A00041E050E0BE016F5F7F4F0E9443230F90B4
:1049B0000F90DF91CF9108956115710551F0FB01C2
:1049C00001900020E9F73197AF01461B570B0C947B
:1049D000432380E00895FB0144815581608171810A
:1049E0000C944323EF92FF920F931F93CF93DF9387
:1049F000EC018B016115710551F0CB010E94DD388E
:104A00007C01BC01CE010E941C23811104C0CE0197
:104A10000E940A2307C0FD82EC82B8018881998137
:104A20000E94D638CE01DF91CF911F910F91FF9058
:104A3000EF900895CF93DF93EC016115710559F064
:104A4000FB0101900020E9F73197AF01461B570B9E
:104A50000E94712302C00E940A23CE01DF91CF91F0
:104A60000895CF93DF93EC01FB018617970761F060
:104A7000608171816115710529F0448155810E9421
:104A8000712302C00E940A23CE01DF91CF910895C5
:104A90000F931F93CF93DF938C01EB01FC01808177
:104AA00091810097B1F0688179816115710579F084
:104AB000428153812C813D814217530740F00E946F
:104AC00071388C819D81F8019583848313C00E9485
:104AD000E83688819981F801918380838A819B815E
:104AE000938382838C819D8195838483198218822C
:104AF0001B821A821D821C82DF91CF911F910F9120
:104B00000895FC01808191810C94E836FC011182AA
:104B1000108213821282158214820C94F224FC01FA
:104B20001182108213821282158214820C94312514
:104B3000FC01118210821382128215821482611587
:104B4000710551F0FB0101900020E9F73197AF01A9
:104B5000461B570B0C9471230895BF92CF92DF929E
:104B6000EF92FF920F931F93CF93DF937C016B0122
:104B70008A01E9012417350720F4812F8901C42F08
:104B8000D82F6FE571E0C7010E949825D6011496D1
:104B90008D919C91159708171907D0F48C179D07D4
:104BA00008F4EC01D601ED91FC911197EC0FFD1F7B
:104BB000B08010824D915C91BA01600F711FC701E6
:104BC0000E941A25D601ED91FC91EC0FFD1FB082D9
:104BD000C701DF91CF911F910F91FF90EF90DF9070
:104BE000CF90BF900895DC01ED91FC910280F3819C
:104BF000E02D42E050E06DE571E009941F920F92C4
:104C00000FB60F9211242F933F934F935F936F939F
:104C10007F938F939F93AF93BF93EF93FF9387E718
:104C200092E00E944A22FF91EF91BF91AF919F9134
:104C30008F917F916F915F914F913F912F910F9045
:104C40000FBE0F901F9018951F920F920FB60F92E4
:104C500011242F938F939F93EF93FF93E0918702FB
:104C6000F09188028081E0918D02F0918E0282FDA8
:104C700012C09081809190028F5F8F73209191027A
:104C8000821751F0E0919002F0E0E958FD4F958FC6
:104C90008093900201C08081FF91EF919F918F914D
:104CA0002F910F900FBE0F901F901895CF93DF9309
:104CB000282F30E0F901E758FB4F8491F901EB59B7
:104CC000FB4FD491F901EF5AFB4FC491CC2391F0E3
:104CD00081110E94DE22EC2FF0E0EE0FFF1FE95B56
:104CE000FB4FA591B491EC91ED2381E090E021F48C
:104CF00080E002C080E090E0DF91CF9108951F93A3
:104D0000CF93DF93282F30E0F901E758FB4F8491D0
:104D1000F901EB59FB4FD491F901EF5AFB4FC491C4
:104D2000CC23C9F0162F81110E94DE22EC2FF0E077
:104D3000EE0FFF1FE35CFB4FA591B4918FB7F89482
:104D4000111105C09C91ED2FE095E92302C0EC9173
:104D5000ED2BEC938FBFDF91CF911F910895CF93EF
:104D6000DF9390E0FC01EB59FB4F2491FC01EF5ADB
:104D7000FB4F8491882361F190E0880F991FFC011B
:104D8000ED5CFB4FC591D491FC01E35CFB4FA59119
:104D9000B491611109C09FB7F8948881209582234E
:104DA0008883EC912E230BC0623061F49FB7F89496
:104DB0003881822F809583238883EC912E2B2C932E
:104DC0009FBF06C08FB7F894E8812E2B28838FBF32
:104DD000DF91CF9108952FB7F8946091710370918E
:104DE000720380917303909174032FBF08950F9302
:104DF0001F93CF93DF93EC010E94EB26688779879E
:104E00008A879B87E881F9810680F781E02DCE01B2
:104E1000099597FF17C00E94EB26088519852A85FA
:104E20003B85DC01CB01801B910BA20BB30B0C81EA
:104E30001D812E813F8180179107A207B30710F3D0
:104E40008FEF9FEFDF91CF911F910F9108951F92E8
:104E50000F920FB60F9211242F933F938F939F932E
:104E6000AF93BF938091710390917203A0917303EC
:104E7000B09174033091700326E0230F2D3720F496
:104E80000296A11DB11D05C029E8230F0396A11D9F
:104E9000B11D209370038093710390937203A093CC
:104EA0007303B093740380916C0390916D03A09190
:104EB0006E03B0916F030196A11DB11D80936C0329
:104EC00090936D03A0936E03B0936F03BF91AF9166
:104ED0009F918F913F912F910F900FBE0F901F9038
:104EE00018951F920F920FB60F9211242F933F9394
:104EF0004F935F936F937F938F939F93AF93BF93E2
:104F0000EF93FF93E0910201F09103010995FF9166
:104F1000EF91BF91AF919F918F917F916F915F9131
:104F20004F913F912F910F900FBE0F901F901895AA
:104F30001F920F920FB60F9211242F933F934F930E
:104F40005F936F937F938F939F93AF93BF93EF93F1
:104F5000FF93E0910001F09101010995FF91EF911C
:104F6000BF91AF919F918F917F916F915F914F9181
:104F70003F912F910F900FBE0F901F9018950F9398
:104F80001F93CF93DF938C01EB010E9452398883EA
:104F9000C80101960E9452398983CE01DF91CF91D9
:104FA0001F910F910895EF92FF920F931F93CF934C
:104FB000DF9300D0CDB7DEB78C017B01FB016081B0
:104FC0009A838983CE0101960E94980EF701618130
:104FD0000F5F1F4F1A830983CE0101960E94980E1E
:104FE000C7010F900F90DF91CF911F910F91FF900C
:104FF000EF900895CF93DF93EB010E94523988839D
:10500000CE01DF91CF9108950F931F93CF93DF933C
:1050100000D0CDB7DEB78B01FB0160819A83898315
:10502000CE0101960E94980EC8010F900F90DF915B
:10503000CF911F910F9108950F931F93CF93DF93FB
:1050400000D000D000D0CDB7DEB7FC01828188232C
:10505000C1F08B01BF012AE04EE150E0CE01019684
:105060000E94400CBE016F5F7F4FC8010E94362432
:1050700011E0811101C010E0CE0101960E9481254E
:1050800001C010E0812F26960FB6F894DEBF0FBE48
:10509000CDBFDF91CF911F910F910895EF92FF92B5
:1050A0000F931F93CF93DF9300D0CDB7DEB78C0162
:1050B0007B01FB0160819A838983CE0101960E9466
:1050C000980EF70161810F5F1F4F1A830983CE018C
:1050D00001960E94980EC7010F900F90DF91CF911B
:1050E0001F910F91FF90EF900895CF93DF9300D021
:1050F00000D000D0CDB7DEB76AEB74E0CE010196E8
:105100000E94862560E0CE0101960E945D21CE01BD
:1051100001960E94812563EB74E0CE0101960E9406
:10512000862560E0CE0101960E945D21CE010196A8
:105130000E94812567EA74E0CE0101960E948625CF
:1051400060E0CE0101960E945D21CE0101960E9491
:10515000812581E08983BE016F5F7F4F84E893E002
:105160000E9404281A821982BE016F5F7F4F84E972
:1051700093E00E944E281982BE016F5F7F4F80E945
:1051800093E00E94042864E684E193E00E94680FA3
:1051900084E193E00E94A61226960FB6F894DEBF33
:1051A0000FBECDBFDF91CF9108951F93CF93DF93B3
:1051B00000D000D000D0CDB7DEB768E974E0CE01F2
:1051C00001960E94862561E0CE0101960E945D2134
:1051D000182FCE0101960E948125812F26960FB6A9
:1051E000F894DEBF0FBECDBFDF91CF911F91089520
:1051F000CF92DF92EF92FF920F931F93CF93DF93A3
:10520000CDB7DEB72C970FB6F894DEBF0FBECDBF7B
:1052100067EF71E0CE0101960E94982540E0BE0143
:105220006F5F7F4F84E193E00E94F110CE01019601
:105230000E9481250E94EB266B017C010E94EB26D7
:10524000DC01CB018C199D09AE09BF098838934157
:10525000A105B10508F043C0809144039091450336
:10526000DC01ED91FC910480F581E02D0995892BFD
:1052700029F36091440370914503CE0107960E9483
:10528000611C6DE874E0CE0101960E9486250BE05A
:105290002AE0AE014F5F5F4FBE01695F7F4F84E13F
:1052A00093E00E94930F182FCE0101960E94812552
:1052B000112351F060E070E0CE0107960E94EB23CD
:1052C000833339F0813331F0CE0107960E94812576
:1052D000B5CF10E0CE0107960E94812501C010E0F5
:1052E000812F2C960FB6F894DEBF0FBECDBFDF9195
:1052F000CF911F910F91FF90EF90DF90CF90089585
:10530000CF92DF92EF92FF921F93CF93DF9300D063
:1053100000D000D0CDB7DEB7BC01CE0101960E940F
:105320008F2540E0BE016F5F7F4F84E193E00E94D4
:10533000F110CE0101960E9481250E94EB266B019F
:105340007C010E94EB26DC01CB018C199D09AE0982
:10535000BF0988389341A105B10590F580914403B8
:1053600090914503DC01ED91FC910480F581E02DE5
:105370000995892B31F36091440370914503CE0167
:1053800001960E94611C63EF71E0CE0101960E94BC
:10539000172481110DC061ED71E0CE0101960E94CC
:1053A0001724811107C0CE0101960E948125C9CF23
:1053B00011E001C010E0CE0101960E94812501C0DC
:1053C00010E0812F26960FB6F894DEBF0FBECDBF3A
:1053D000DF91CF911F91FF90EF90DF90CF900895D4
:1053E000CF93DF9300D000D000D0CDB7DEB769ED0A
:1053F00074E0CE0101960E94862560E0CE01019600
:105400000E945D21CE0101960E94812526960FB64D
:10541000F894DEBF0FBECDBFDF91CF910895EF921C
:10542000FF920F931F93CF93DF93CDB7DEB72A97E9
:105430000FB6F894DEBF0FBECDBF81E08093280386
:1054400065ED74E0CE0101960E9486257E0187E01D
:10545000E80EF11C08E413E0C8010E945239F7017C
:1054600081937F010F5F1F4F0C34F3E01F07A1F7FB
:105470004F81588569857A85CE0101960E949824CE
:1054800040E061E0CE0101960E94621FCE010196CC
:105490000E9481252A960FB6F894DEBF0FBECDBFBD
:1054A000DF91CF911F910F91FF90EF900895CF93CF
:1054B000DF9300D000D000D0CDB7DEB767EC74E04A
:1054C000CE0101960E94862560E0CE0101960E94E1
:1054D0005D21CE0101960E94812526960FB6F89493
:1054E000DEBF0FBECDBFDF91CF9108950F931F9305
:1054F000CF93DF93CDB7DEB72C970FB6F894DEBF0E
:105500000FBECDBF67EE74E0CE0107960E948625E0
:105510002FE230E140E050E0BE01695F7F4F84E15F
:1055200093E00E947E1C882381F16EE871E0CE0139
:1055300001960E9498254B855C858D819E81481B34
:10554000590BBE016F5F7F4FCE0107960E949D23CE
:105550008C01CE0101960E948125A80155279A0150
:105560002C5F3F4F4F5F5F4FBE01695F7F4FCE01A2
:1055700001960E94AD25CE0101960E9492238B01D7
:10558000CE0101960E94812502C000E010E0CE010C
:1055900007960E948125C8012C960FB6F894DEBFAD
:1055A0000FBECDBFDF91CF911F910F910895CF9383
:1055B000DF93CDB7DEB764970FB6F894DEBF0FBEAA
:1055C000CDBF789484B5826084BD84B5816084BD8C
:1055D00085B5826085BD85B5816085BD80916E0091
:1055E000816080936E0010928100809181008260C2
:1055F00080938100809181008160809381008091FF
:1056000080008160809380008091B10084608093ED
:10561000B1008091B00081608093B00080917A00E9
:10562000846080937A0080917A00826080937A000F
:1056300080917A008E7F80937A0080917A008068D2
:1056400080937A001092C10084B762E089E00E94E2
:10565000AF2661E088E00E94AF26BE016F5F7F4FFA
:1056600080EA90E00E94FA278981882311F060E0A7
:1056700001C061E088E00E947F2664E673E08AE36F
:1056800090E00E94FA27809164038F3F41F41092CA
:10569000640364E673E08AE390E00E9404286EE508
:1056A00073E086E390E00E94FA2780915E038F3FCB
:1056B00041F410925E036EE573E086E390E00E9491
:1056C000042866E573E08CE590E00E94FA2780915B
:1056D00056038F3F41F41092560366E573E08CE564
:1056E00090E00E94042865E573E088E590E00E9460
:1056F000FA27809155038F3F41F41092550365E5D9
:1057000073E088E590E00E9404286DE573E080E096
:1057100090E00E94FA2780915D038F3F29F460E0BA
:1057200082E593E00E94720D82E593E00E941C0DD9
:1057300066E673E084E090E00E94BF2780916603F4
:1057400090916703019661F482E390E09093670380
:105750008093660366E673E084E090E00E94D327BE
:105760006AE673E08CE090E00E94FA2780916A0379
:105770008F3F41F410926A036AE673E08CE090E098
:105780000E9404288EE090E00E94523980936B03BF
:105790008F3F29F464E582E593E00E94B80E63E64A
:1057A00073E086E990E00E94FA27809163038F3FBF
:1057B00049F4E12C00E020E040E060E082E593E085
:1057C0000E94260D809163038823C1F06FE573E08A
:1057D00088E990E00E94FA2760E673E08AE990E0A9
:1057E0000E94FA2761E673E08CE990E00E94FA27B4
:1057F00062E673E08EE990E00E94FA2762E573E0CA
:105800008CE291E00E94FA2780915203803140F0AF
:105810001092520362E573E08CE291E00E9404284A
:1058200064E573E086E190E00E94FA2780915403DA
:105830008F3F41F41092540364E573E086E190E0F9
:105840000E94042863E573E08AE190E00E94FA2751
:10585000809153038F3F41F41092530363E573E04B
:105860008AE190E00E94042867E573E080E293E01B
:105870000E94FA27809157038F3F41F410925703FB
:1058800067E573E080E293E00E94042868E673E035
:1058900082E190E00E94BF278091680390916903A4
:1058A000019661F482E090E090936903809368032D
:1058B00068E673E082E190E00E94D32765E673E03A
:1058C00082E390E00E94FA27809165038F3F41F4C4
:1058D0001092650365E673E082E390E00E9404287D
:1058E00082E593E090931503809314038FE192E097
:1058F000909317038093160387E792E00E94231C7E
:105900008091680081608093680080916800826067
:105910008093680080916C00816080936C0080911E
:105920006C00826080936C0080916C008062809338
:105930006C008091680084608093680080916D00A5
:10594000806280936D0080916D00806480936D0013
:1059500080916D00806880936D00F89480E00E94D3
:105960008E1481E60E948E14789461E081E10E9499
:10597000AF2611E052E0252E80910702882309F41A
:105980004CC00E944A1C882309F447C0809121031F
:10599000811143C08091470381113FC00E94EB26D3
:1059A0008090180290901902A0901A02B0901B02E9
:1059B000DC01CB0188199909AA09BB09893E9340EA
:1059C000A105B10550F10E94762A7C0120911702B1
:1059D00001E0020F009317020E94EB266093180269
:1059E0007093190280931A0290931B025CE6E516ED
:1059F00051E0F50670F4033080F00E94EB266093CE
:105A00001302709314028093150290931602109360
:105A1000120210920702109217028091120288233C
:105A200009F10E94EB268090130290901402A0903E
:105A30001502B0901602DC01CB0188199909AA0958
:105A4000BB0981319742A105B10560F010921202A5
:105A50000E944A1C882331F00E94762A8C3691409D
:105A600008F47AC5809111028111FBC18091100266
:105A700081111BC00E94EB2660347F418105910596
:105A8000A0F00E94762A8C36914008F46AC561E045
:105A900088E00E947F26109310021982BE016F5F7A
:105AA0007F4F80EA90E00E94042880910F028111CC
:105AB00008C00E94EB26683B7B408105910508F0F9
:105AC0005DC580911002882321F10E94EB26209170
:105AD000080230910902DC01CB01821B930BA10962
