:100000000C9463000C948B000C948B000C947B1567
:100010000C94F8100C94F8100C948B000C948B003A
:100020000C948B000C948B000C948B000C948B0024
:100030000C948B000C948B000C948B000C948B0014
:100040000C94AE100C948B000C94AB0F0C94850F99
:100050000C948B000C948B000C948B000C948B00F4
:100060000C948B000C948B000000000024002700EF
:100070002A0000000008000201000003040700003D
:1000800000000000000000000000250028002B00F8
:1000900000000000230026002900040404040404D6
:1000A0000404020202020202030303030303010227
:1000B00004081020408001020408102001020408F6
:1000C00010206F22302211241FBECFEFD8E0DEBFF8
:1000D000CDBF13E0A0E0B1E0E6E5F4E502C0059095
:1000E0000D92AC34B107D9F725E0ACE4B3E001C020
:1000F0001D92AE31B207E1F710E0C2E6D0E004C0D5
:100100002197FE010E94F224C136D107C9F70E944F
:10011000AE1B0C941E2A0C9471152F923F924F9295
:100120005F926F927F928F929F92AF92BF92CF9287
:10013000DF92EF92FF920F931F93CF93DF93CDB790
:10014000DEB76C970FB6F894DEBF0FBECDBF8091BF
:10015000AF04882301F10E947210E091B004009175
:10016000B1041091B2042091B3043091B404AB01F6
:10017000BC01401B510B620B730B24E6E29FC001D4
:100180001124092E000CAA0BBB0B481759076A074C
:100190007B0708F002C18091B5048E3421F580916F
:1001A000BD04811116C00E9472100091BE0410910E
:1001B000BF042091C0043091C104DC01CB01801B3D
:1001C000910BA20BB30B893E9340A105B10508F03A
:1001D000E7C08091B904882309F47DC083E994E0E5
:1001E0000E94FB1378C0893419F0823509F073C07E
:1001F0000E9472100091A7041091A8042091A904F4
:100200003091AA04AB01BC01401B510B620B730B74
:100210002091A5043091A604E4E6E29FC001E39F8B
:10022000900D1124A0E0B0E0481759076A077B073A
:1002300070F16091BA041091AB048091AC0481110B
:1002400024C06C8F0E94D4186C8D123038F4109337
:10025000AB0483E994E00E94A41419C0E0919304D4
:10026000F091940485A9813491F46BEA72E0CE0197
:1002700001960E94650F60E0CE0101960E94641A0B
:10028000CE0101960E94570F02C00E94D41880919F
:10029000A304882301F10E947210E0919E04009152
:1002A0009F041091A0042091A1043091A204AB01FD
:1002B000BC01401B510B620B730BA4E6EA9FC0010B
:1002C0001124092E000CAA0BBB0B84179507A60757
:1002D000B70708F469C011E004E9202E02E0302ECF
:1002E00081E7482E82E0582E8091C2049091C30489
:1002F000DC01ED91FC910480F581E02D0995181643
:10030000190614F00C94DE0B6BEA72E0CE014396F2
:100310000E94650FCE0101960E94B716BE016F5F65
:100320007F4FCE0143960E941E0FCE0101960E9480
:10033000570F2F89215061E371E0CE0101962C8F78
:100340000E94650F2C8D46E0BE016F5F7F4FCE018E
:1003500043960E943118082FCE0101960E94570F34
:10036000002309F4E5C28091AE04882309F4E0C2B9
:100370001092AE04BE016D5E7F4FCE0101960E94C9
:100380005C0F61E0CE0101960E94641ACE010196D5
:100390000E94570F6EE572E0BBC01092AF04FBCE17
:1003A00081E08093BD0415CF8091C2049091C30475
:1003B000DC01ED91FC910284F385E02D09956FE35A
:1003C00072E0CE0101960E94650F40E0BE016F5FB2
:1003D0007F4F83E994E00E94CB13CE0101960E94E7
:1003E000570F6BE472E0CE0101960E94650F40E06A
:1003F000BE016F5F7F4F83E994E00E94CB13CE0173
:1004000001960E94570F6091A40483E994E06C8FD9
:100410000E949E138091C2049091C304DC01ED916F
:10042000FC910190F081E02D6C8D09956FE472E0F4
:10043000CE0101960E94650F41E0BE016F5F7F4FC4
:1004400083E994E00E94CB13CE0101960E94570FDE
:100450008091C2049091C304DC01ED91FC9102846F
:10046000F385E02D09951092A30435CF61E471E086
:10047000CE0101960E94650F22E248E1BE016F5F46
:100480007F4FCE0143960E943118082FCE0101966E
:100490000E94570FBE016D5E7F4FCE01002311F405
:1004A0000C948A0A01960E945C0F68E974E0CE0100
:1004B00001960E94440EDD24D394811101C0D12CF9
:1004C000CE0101960E94570FD1109DC2BE016D5EF4
:1004D0007F4FCE0101960E945C0FE0909304F09054
:1004E0009404F7018081882309F4C9C2BE016F5FBB
:1004F0007F4FC70104960E94440E882309F4B0C2BE
:10050000CE0101960E94570F01117DC263EE71E08A
:10051000CE0101960E94650F41E0BE016F5F7F4FE3
:1005200083E994E00E94CB13CE0101960E94570FFD
:100530000091BB048091B50401110BC18E3419F0F8
:10054000823509F0B0C19091B6049E3419F0993407
:1005500009F0E3C0BE016D5E7F4FCE0101960E949F
:100560005C0F60E272E0CE0101960E94250EF82E2B
:10057000CE0101960E94570FFF2009F4D4C1E091EB
:100580009304F0919404138382E58093B50499E475
:10059000F92EF092B6048091B7048F5F8093B70470
:1005A000833008F07DC08130E9F466E272E0CE016C
:1005B00001960E94650F40E0BE016F5F7F4F83E9A7
:1005C00094E00E94CB13CE0101960E94570F8091B8
:1005D000C2049091C304DC01ED91FC910284F38587
:1005E000E02D09956BEA72E0CE0107960E94650F37
:1005F000CE0101960E94B716BE016F5F7F4FCE01FC
:1006000007960E941E0FCE0101960E94570F62E3CB
:1006100072E0CE0101960E94650F25E14BE0BE011C
:100620006F5F7F4FCE0107960E943118F82ECE01E2
:1006300001960E94570FFF20D9F20E94721060931A
:10064000A7047093A8048093A9049093AA048B85AF
:100650009C850A9710F1CE0107960E948C1B882377
:10066000E1F08091B7048230C0F0BE01695F7F4F36
:10067000CE0101960E945C0F68E974E0CE010196FC
:100680000E94440E882311F40C94CD0BCE010196E8
:100690000E94570F01110E94D418CE01079641C144
:1006A000833009F040C10E9472106093A7047093D8
:1006B000A8048093A9049093AA041093B80480918D
:1006C000C2049091C304DC01ED91FC910284F38596
:1006D000E02D09956BE372E0CE0101960E94650F53
:1006E00041E0BE016F5F7F4F83E994E00E94CB132E
:1006F000CE0101960E94570F8091C2049091C304CD
:10070000DC01ED91FC910284F385E02D0995F092D6
:10071000B504F092B6046DE4C1C08934D1F490916F
:10072000B6049934B1F4BE016D5E7F4FCE010196DF
:100730000E945C0FCE0101960E94D219082FCE01B3
:1007400001960E94570F002309F4D8C00E94D418C4
:10075000EAC08E3419F0823509F0A8C00091B604C1
:100760000F3409F0E0C0BE016D5E7F4FCE010196EF
:100770000E945C0FCE0101960E945E19F82ECE01F8
:1007800001960E94570FB4E4FB1203C01093AC040F
:10079000CAC0BE016D5E7F4FCE0101960E945C0F04
:1007A000CE0101960E945E19F82ECE0101960E949C
:1007B000570FE2E5FE120FC00E9472106093A7046B
:1007C0007093A8048093A9049093AA04F092B504AE
:1007D0000093B604A8C0BE016D5E7F4FCE010196A6
:1007E0000E945C0FCE0101960E94D219082F811140
:1007F00013C0BE016D5E7F4FCE0107960E945C0F55
:10080000CE0107960E945E1901E0853409F000E0F0
:10081000CE0107960E94570FCE0101960E94570FF6
:100820000023B1F00E94D418E0919304F091940455
:1008300085A9813409F077C06BEA72E0CE01019698
:100840000E94650F60E0CE0101960E94641A67C0A5
:10085000BE016D5E7F4FCE0101960E945C0FCE01FE
:1008600001960E945E19082FCE0101960E94570F33
:10087000093409F058C00E9472106093A704709365
:10088000A8048093A9049093AA040093B504FFE4FC
:10089000F093B6041093B8046091BA0483E994E02D
:1008A0000E94C11740C0893409F439CF8934D9F581
:1008B0008091B6048F34B9F5BE016D5E7F4FCE01D5
:1008C00001960E945C0FCE0101960E94D219082F5A
:1008D000811135CFBE016D5E7F4FCE0107960E941C
:1008E0005C0FCE0107960E945E1901E0853409F085
:1008F00000E0CE0107960E94570F21CFCE0143960C
:100900000E94AB18882379F0BE016D5E7F4FCE0147
:1009100001960E945C0FCE0101960E94DD17CE0168
:1009200001960E94570FCE0143960E94570FDCCCD0
:100930002F8923506CEB71E0CE0101962C8F0E9421
:10094000650F2C8D45E0BE016F5F7F4FCE01439652
:100950000E943118082FCE0101960E94570F0023E4
:1009600021F08091AD04811148C62F89215068E69D
:1009700072E0CE0101962C8F0E94650F2C8D4CE009
:10098000BE016F5F7F4FCE0143960E943118082F42
:10099000CE0101960E94570F002309F467CDBE01D6
:1009A0006D5E7F4FCE010D960E945C0F6BEA72E088
:1009B000CE0107960E94650F68E371E0CE010796AD
:1009C0000E94F00EBE01635F7F4FCE0107960E942A
:1009D000E90EBE01695F7F4FCE0101960E945C0F58
:1009E00041E0BE016F5F7F4F83E994E00E94CB132B
:1009F000CE0101960E94570FCE0107960E94570F15
:100A0000CE010D9693CDCE0101960E94B716BE0180
:100A10006F5F7F4FCE0143960E941E0FCE0101965D
:100A20000E94570FBE016D5E7F4FCE010D960E9452
:100A30005C0F2989215068E471E0CE0101962C8F6A
:100A40000E94650F2C8D48E0BE016F5F7F4FCE0185
:100A50000D960E943118082F882399F00D2D11C092
:100A6000D70198968C91882351F0BE016F5F7F4F1C
:100A7000C70182960E94440E01E0811141CD00E041
:100A80003FCDCE0101960E94570F002309F45AC0B2
:100A9000E0909304F0909404D11006C0F701108305
:100AA000B7E2CB2ED12C0BC0D7011C926BEA72E0BF
:100AB000C70104960E94F00EACE1CA2ED12C47016A
:100AC000BAE08B0E911C5701E2E2AE0EB11C6BEA4C
:100AD00072E0C4010E94F00EF6E08F0E911C8A14A1
:100AE0009B04A9F76FEFC6010E94CA292FEFC21A13
:100AF000D20A44E5C416D104A9F7F2E8CF2ED12CCE
:100B00006FEFC6010E94CA298FEFC81AD80AAEE853
:100B1000CA16D104A9F7B70188E190E00E94B71185
:100B2000F70110A6B701685D7F4F8EE790E00E9445
:100B3000B711D70199961C92B701675D7F4F8AE77D
:100B400090E0ADC42989215061E571E0CE010196A4
:100B50002C8F0E94650F2C8D44E0BE016F5F7F4F8C
:100B6000CE010D960E943118082FCE0101960E94E9
:100B7000570F002359F1CE010D960E948C1B88233C
:100B800009F403C4CE010D960E941A0E623371055A
:100B900030F06135710528F060E570E002C062E375
:100BA00070E0E0909304F09094047A8F698FBE0116
:100BB000675E7F4F88E090E00E948611B701665D16
:100BC0007F4F88E090E00E947211DFC32989215095
:100BD00066E571E0CE0101962C8F0E94650F2C8D89
:100BE00047E0BE016F5F7F4FCE010D960E94311826
:100BF000082FCE0101960E94570F002309F459C017
:100C0000E0919304F091940411ABBF016F5C7F4FAE
:100C100080E090E00E94B711E0919304F091940479
:100C200014AABF016C5C7F4F8CE090E00E94B7116A
:100C300063E480919304909194040E947812E09070
:100C40009304F0909404F70186A597A5823792400B
:100C500070F0D7019D965C924E929C97B701645DAF
:100C60007F4F80E190E00E948611F70110ABE09089
:100C70009304F0909404D7019C968D919C919D973C
:100C80008439924068F4F70137A626A6B701625D61
:100C90007F4F84E190E00E948611D701D0961C938B
:100CA000E0919304F091940482E390E093AB82ABE3
:100CB000EBC2298921506EE571E0CE0101962C8F9F
:100CC0000E94650F2C8D46E0BE016F5F7F4FCE0105
:100CD0000D960E943118082FCE0101960E94570FE1
:100CE000002331F0E0919304F091940411AB1EC005
:100CF0002989215065E671E0CE0101962C8F0E9472
:100D0000650F2C8D47E0BE016F5F7F4FCE010D96C2
:100D10000E943118082FCE0101960E94570F002320
:100D200099F0E0919304F091940411AABF016F5CD3
:100D30007F4F80E090E00E94B711809195049091E0
:100D400096040E94271521C3298921506DE671E080
:100D5000CE0101962C8F0E94650F2C8D45E0BE01BF
:100D60006F5F7F4FCE010D960E943118082FCE0184
:100D700001960E94570F002331F0E0919304F09107
:100D8000940414AB1EC02989215063E771E0CE01A1
:100D900001962C8F0E94650F2C8D46E0BE016F5F7F
:100DA0007F4FCE010D960E943118082FCE0101967B
:100DB0000E94570F002369F0E0919304F09194048E
:100DC00014AABF016C5C7F4F8CE090E00E94B711C9
:100DD000DCC2298921506AE771E0CE0101962C8F8F
:100DE0000E94650F2C8D45E0BE016F5F7F4FCE01E5
:100DF0000D960E943118082FCE0101960E94570FC0
:100E0000002311F063E41AC02989215060E871E0E1
:100E1000CE0101962C8F0E94650F2C8D45E0BE01FE
:100E20006F5F7F4FCE010D960E943118082FCE01C3
:100E300001960E94570F002341F061E480919304D2
:100E4000909194040E947812A0C22989215066E8EA
:100E500071E0CE0101962C8F0E94650F2C8D48E029
:100E6000BE016F5F7F4FCE010D960E943118082F93
:100E7000CE0101960E94570F002309F1CE010D9675
:100E80000E941A0EE0909304F09094046736B2E04A
:100E90007B0708F47AC2F70146A557A564177507C2
:100EA00008F073C275A764A7B701645D7F4F80E146
:100EB00090E00E948611D701D0961C9366C22989C2
:100EC00021506FE871E0CE0101962C8F0E94650FD2
:100ED0002C8D47E0BE016F5F7F4FCE010D960E94C3
:100EE0003118082FCE0101960E94570F002319F1E7
:100EF000CE010D960E941A0EE0909304F090940497
:100F0000F70144A555A54617570708F03EC2673CB0
:100F1000F2E07F0708F039C2D7019F967C936E9369
:100F20009E97B701625D7F4F84E190E00E94861139
:100F3000F70110AB2AC22989215067E971E0CE017F
:100F400001962C8F0E94650F2C8D46E0BE016F5FCD
:100F50007F4FCE010D960E943118082FCE010196C9
:100F60000E94570F002309F459C1E0919304F091B6
:100F700094047280A0919504B09196048D919C91F7
:100F8000DC0114960C91B181BB8F0E941916BC0133
:100F900080E090E00E94A32820E030E048EC52E49A
:100FA0000E9465254B015C010E94D7256B017C01E5
:100FB0006BEA72E0CE0107960E94650F6EE971E060
:100FC000CE0107960E94F00E711005C0EBE26E2E66
:100FD000E1E07E2E04C076E2672E71E0772EBE013E
:100FE000695F7F4FCE0101960E945C0FB301CE0175
:100FF00001960E941722BC01CE0107960E94070F9E
:10100000CE0101960E94570FBE01695F7F4FCE014E
:1010100001960E945C0F6FE971E0CE0101960E947B
:101020001722BC01CE0107960E94070FCE01019640
:101030000E94570F011105C06BE2662E61E0762E0B
:1010400004C056E2652E51E0752EBE01695F7F4FE8
:10105000CE0101960E945C0FB301CE0101960E9461
:101060001722BC01CE0107960E94070FCE01019600
:101070000E94570FBE01695F7F4FCE0101960E940B
:101080005C0F62EA71E0CE0101960E941722BC015A
:10109000CE0107960E94070FCE0101960E94570FBE
:1010A000EB8DE11105C04BE2642E41E0742E04C0CB
:1010B00036E2632E31E0732EBE01695F7F4FCE01B1
:1010C00001960E945C0FB301CE0101960E94172287
:1010D000BC01CE0107960E94070FCE0101960E9427
:1010E000570FE0919304F091940481A9BE01695FC8
:1010F0007F4F882339F0CE0101960E945C0F6EE588
:1011000071E006C0CE0101960E945C0F65E671E0B9
:10111000CE0101960E941722BC01CE0107960E94C3
:10112000070FCE0101960E94570FBE01695F7F4FE6
:10113000CE0101960E945C0F65EA71E0CE01019636
:101140000E941722BC01CE0107960E94070FCE0114
:1011500001960E94570FBE01695F7F4FCE01019635
:101160000E945C0FB601CE0101960E94A40EBC0144
:10117000CE0107960E94070FCE0101960E94570FDD
:10118000BE01695F7F4FCE0101960E945C0F6BEA42
:1011900071E0CE0101960E941722BC01CE01079694
:1011A0000E94070FCE0101960E94570FB60180E002
:1011B00090E00E94A3289B01AC01C501B4010E94EC
:1011C000F82420E030E048EC52E40E9404296B014E
:1011D0007C01BE01695F7F4FCE0101960E945C0FCA
:1011E000C701B6010E94D725CE0101960E94A40E28
:1011F000BC01CE0107960E94070FCE0101960E9406
:10120000570FBE01695F7F4FCE0101960E945C0FB0
:1012100061E0CE0101960E94641AAFC02989215075
:101220006DEA71E0CE0101962C8F0E94650F2C8D26
:1012300048E0BE016F5F7F4FCE010D960E943118CE
:10124000082FCE0101960E94570F002329F1CE01ED
:101250000D960E948C1B882309F497C0CE010D9631
:101260000E941A0E6233710538F0613EF1E07F078B
:1012700028F060EE71E002C062E370E0E091930458
:10128000F091940473AB62ABBF016E5C7F4F84E05E
:1012900090E00E94861179C02989215066EB71E0A7
:1012A000CE0101962C8F0E94650F2C8D43E0BE016C
:1012B0006F5F7F4FCE010D960E943118082FCE012F
:1012C00001960E94570F0023A9F06AEB71E0CE014E
:1012D00001960E94650F41E0BE016F5F7F4F83E979
:1012E00094E00E94CB13CE0101960E94570F1093F9
:1012F000AD044BC02989215061EC71E0CE0101960B
:101300002C8F0E94650F2C8D43E0BE016F5F7F4FD5
:10131000CE010D960E943118082FCE0101960E9431
:10132000570F002391F16BEA72E0CE0107960E94FD
:10133000650F65EC71E0CE0107960E94F00EBE01CC
:10134000635F7F4FCE0107960E94E90E69E372E06A
:10135000CE0107960E94DA0E1093AE04BE01695FBB
:101360007F4FCE0101960E945C0F41E0BE016F5F8E
:101370007F4F83E994E00E94CB13CE0101960E9437
:10138000570FCE0107960E94570F61ED71E0CE0115
:1013900001960E94650F2CE042E0BE016F5F7F4F17
:1013A000CE010D960E943118082FCE0101960E94A1
:1013B000570F002361F089899A890A9709F0A4C020
:1013C000CE010D960E948C1B81114CC19DC060EE18
:1013D00071E0CE0101960E94650F2CE042E0BE0153
:1013E0006F5F7F4FCE010D960E943118082FCE01FE
:1013F00001960E94570F002361F089899A890A9704
:1014000009F082C0CE010D960E948C1B81116BC029
:101410007BC02989215064ED71E0CE0101962C8FAB
:101420000E94650F2C8D44E0BE016F5F7F4FCE019F
:101430000D960E943118082FCE0101960E94570F79
:10144000002351F0E0919304F091940481A5882346
:1014500009F45AC010A71EC02989215069ED71E016
:10146000CE0101962C8F0E94650F2C8D45E0BE01A8
:101470006F5F7F4FCE010D960E943118082FCE016D
:1014800001960E94570F002369F0E0919304F091B8
:10149000940410A6BF01685D7F4F8EE790E00E9424
:1014A000B71132C06FED71E0CE0101960E94650F59
:1014B0002DE043E0BE016F5F7F4FCE010D960E948D
:1014C0003118082FCE0101960E94570F0023E1F03A
:1014D00089899A890A97C1F4CE010D960E948C1BC6
:1014E00081112CC111C0E0909304F0909404D701B5
:1014F0000C91053049F0BE01635F7F4FC7010E9428
:10150000EB128F3F09F4F6C0CE010D960E94570FE3
:101510000C94860207960E945C0F66EF71E0CE0184
:1015200007960E94250E811104C0CE0107960C94E7
:1015300096020E94D4188091C2049091C304DC01E9
:10154000ED91FC910284F385E02D099568E072E04D
:10155000CE0101960E94650F40E0BE016F5F7F4F94
:1015600083E994E00E94CB13CE0101960E94570FAD
:101570008091C2049091C304DC01ED91FC9102843E
:10158000F385E02D09950E9472106B017C010E9489
:101590007210DC01CB018C199D09AE09BF0944977B
:1015A000A105B105A0F364E172E0CE0101960E94AD
:1015B000650F40E0BE016F5F7F4F83E994E00E94BA
:1015C000CB13CE0101960E94570F8091C2049091D7
:1015D000C304DC01ED91FC910284F385E02D0995B3
:1015E0000E947210DC01CB018C199D09AE09BF0964
:1015F0004497A105B105A0F398CF1092AD04CE0198
:1016000043960E941A0E6B017C016CED72E0CE01D4
:1016100043960E94F00EBE016D5E7F4FCE01019693
:101620000E945C0FB601660F771F6C0D7D1DCE0109
:1016300001960E94A40EBC01CE0143960E94070FA2
:10164000CE0101960E94570FBE016D5E7F4FCE0105
:1016500001960E945C0F61E0CE0101960E94641A1F
:101660000C949402E0909304F0909404F70180812C
:10167000823008F449CFBE01635F7F4FC7010E94EB
:10168000EB12082F8FEF800F8E3F08F03DCF202FF9
:1016900030E02150310946E0429FC001439F900D48
:1016A00011240A966BEA72E08E0D9F1D0E94F00EC7
:1016B00026E0D22ED7018C910817C8F4802F90E035
:1016C000D89EB001D99E700D1124665F7F4F6E0DBC
:1016D0007F1D0197D89E9001D99E300D1124C9011C
:1016E0000A968E0D9F1D0E94070F0F5FE3CF81505A
:1016F0008C930DC001110FC0BE01635F7F4FC70106
:1017000004960E94070FF70180818F5F8083C701D5
:101710000E948C12F9CE0530B0F7202F30E0215016
:10172000310946E0429FC001439F900D11240A9663
:10173000BE01635F7F4F8E0D9F1DE3CFE09093044A
:10174000F0909404F7018081882309F4DDCE6701CD
:10175000F2E2CF0ED11CBE01635F7F4FC6010E9433
:10176000070FD70199961C93B701675D7F4F8AE7F2
:1017700090E00E94B711B601CE0101960E945C0F65
:10178000AE014F5F5F4F62E870E0C7010E94051233
:10179000CE0101960E94570FB7CEBE016F5F7F4FFB
:1017A00080919304909194040E94EB1201E08F3F8A
:1017B00011F40C94460300E00C9446036C960FB6AB
:1017C000F894DEBF0FBECDBFDF91CF911F910F9177
:1017D000FF90EF90DF90CF90BF90AF909F908F9051
:1017E0007F906F905F904F903F902F900895089555
:1017F000CF92DF92EF92FF920F931F93CF93DF93DD
:101800006C017A018B01C0E0D0E0CE15DF0589F0D4
:10181000D8016D918D01D601ED91FC910190F0817F
:10182000E02DC6010995892B11F47E0102C0219695
:10183000ECCFC701DF91CF911F910F91FF90EF90F7
:10184000DF90CF900895FC01918D828D981761F003
:10185000828DDF01A80FB11D5D968C91928D9F5FE7
:101860009F73928F90E008958FEF9FEF0895FC0192
:10187000918D828D981731F0828DE80FF11D858D45
:1018800090E008958FEF9FEF0895FC01918D228DD8
:10189000892F90E0805C9F4F821B91098F7399275D
:1018A000089586E993E00E94450C21E0892B09F414
:1018B00020E0822F0895FC01848DDF01A80FB11D67
:1018C000A35ABF4F2C91848D90E001968F73992776
:1018D000848FA689B7892C93A089B1898C91806463
:1018E0008C93938D848D981306C00288F389E02D24
:1018F00080818F7D80830895EF92FF920F931F93D5
:10190000CF93DF93EC0181E0888F9B8D8C8D9813B2
:1019100005C0E889F989808185FD24C0F62E0B8DEC
:1019200010E00F5F1F4F0F731127E02E8C8DE81210
:101930000CC00FB607FCFACFE889F989808185FFD2
:10194000F5CFCE010E945B0CF1CF8B8DFE01E80F2D
:10195000F11DE35AFF4FF0820B8FEA89FB898081EA
:10196000806207C0EE89FF896083E889F9898081F8
:101970008064808381E090E0DF91CF911F910F918F
:10198000FF90EF900895CF93DF93EC01888D88232B
:10199000C9F0EA89FB89808185FD05C0A889B989DC
:1019A0008C9186FD0FC00FB607FCF5CF808185FFB7
:1019B000F2CFA889B9898C9185FFEDCFCE010E9425
:1019C0005B0CE7CFDF91CF91089580E090E0892B09
:1019D00029F00E94510C81110C940000089583306D
:1019E00081F028F4813099F08230A1F00895873099
:1019F000A9F08830B9F08430D1F4809180008F7DD7
:101A000003C0809180008F7780938000089584B513
:101A10008F7702C084B58F7D84BD08958091B0001A
:101A20008F7703C08091B0008F7D8093B0000895C0
:101A300020913504309136042817390771F49091BC
:101A4000330480913404981741F0E0913304F0E0BE
:101A5000E35BFC4F808190E008958FEF9FEF089546
:101A600008951F93CF93DF93DC015C962D913C91F9
:101A70005D972115310539F481E090E013969C9330
:101A80008E9312973DC05196ED91FC9152975096CE
:101A90009C915097892F80951FB75E964C915E97C9
:101AA00041FB772770F941FD6095F89440817723D9
:101AB00011F0492B01C048234083E9012197F1F738
:101AC00048E0508160FF02C0592B01C05823508369
:101AD000E9012197F1F76695415099F7772321F0B5
:101AE00090818923808303C08081982B90831FBFBE
:101AF0005C968D919C915D970197F1F721E030E024
:101B0000C901DF91CF911F91089520913504309143
:101B100036042817390771F4809134042091330476
:101B200090E0805C9F4F821B910960E470E00E940E
:101B3000CA24089580E090E0089520913504309102
:101B4000360428173907B9F490913304809134048E
:101B5000981789F0E0913304F0E0E35BFC4F80815B
:101B60002091330430E02F5F3F4F2F7333272093B2
:101B7000330490E008958FEF9FEF08950E94FD27B2
:101B8000CF93DF93EC0188819981009711F00E9437
:101B90009B26198218821D821C821B821A82DF9169
:101BA000CF9108950F931F93CF93DF93EC0188811A
:101BB0009981009729F02A813B812617370788F4FD
:101BC0008B016F5F7F4F0E943327009761F09983ED
:101BD00088831B830A832C813D81232B11F4FC0114
:101BE000108281E001C080E0DF91CF911F910F91C1
:101BF0000895EF92FF920F931F93CF93DF93EC0121
:101C00007B018A01BA010E94D20D811104C0CE016C
:101C10000E94C00D07C01D830C83B7018881998184
:101C20000E941428CE01DF91CF911F910F91FF9058
:101C3000EF900895FC0180819181009711F00C9440
:101C4000382860E070E0CB010895FC0124813581E3
:101C5000232B31F421E061157105A1F0FB0108C0CF
:101C6000FC01808191816115710531F421E0FC0155
:101C70008081882339F005C00E940B2821E0892B40
:101C800009F020E0822F0895FC0124813581FB01B9
:101C9000448155812417350721F5FC01808191810C
:101CA000FB0160817181009719F061157105A1F444
:101CB0006115710549F0232BB1F0FB01808190E0A3
:101CC0009195819591090AC0009769F0232B59F0ED
:101CD000FC01808190E002C00E940B2821E0892B4A
:101CE00019F020E001C021E0822F0895EF92FF92C9
:101CF0000F931F93CF93DF93FC01248135816115EE
:101D0000710511F480E019C041155105A9F07B015E
:101D1000EC018A01020F131FB8010E94D20D882323
:101D200089F3288139818C819D81B701820F931FAE
:101D30000E9414281D830C8381E0DF91CF911F91B5
:101D40000F91FF90EF900895EF92FF920F931F93E2
:101D5000CF93DF93CDB7DEB727970FB6F894DEBFEA
:101D60000FBECDBF7C01CB014AE08E010F5F1F4F3C
:101D7000B8010E947428F80101900020E9F731971A
:101D8000AF01401B510BB801C7010E94760E8111B3
:101D900003C0C7010E94C00DC70127960FB6F89473
:101DA000DEBF0FBECDBFDF91CF911F910F91FF908E
:101DB000EF9008956115710551F0FB01019000202D
:101DC000E9F73197AF01461B570B0C94760E80E074
:101DD0000895FB0144815581608171810C94760ED8
:101DE000CF93DF93EC016115710559F0FB01019070
:101DF0000020E9F73197AF01461B570B0E94F90D00
:101E000002C00E94C00DCE01DF91CF910895CF9303
:101E1000DF93EC01FB018617970761F06081718108
:101E20006115710529F0448155810E94F90D02C0A8
:101E30000E94C00DCE01DF91CF9108950F931F93A3
:101E4000CF93DF938C01EB01FC018081918100979E
:101E5000B1F0688179816115710579F04281538112
:101E60002C813D814217530740F00E9414288C8139
:101E70009D81F8019583848313C00E949B268881ED
:101E80009981F801918380838A819B8193838283E6
:101E90008C819D8195838483198218821B821A828A
:101EA0001D821C82DF91CF911F910F910895FC013B
:101EB000808191810C949B26FC01118210821382F7
:101EC0001282158214820C94070FFC011182108279
:101ED00013821282158214826115710551F0FB0183
:101EE00001900020E9F73197AF01461B570B0C9486
:101EF000F90D0895DC01ED91FC910280F381E02D54
:101F000042E050E069EA72E009941F920F920FB626
:101F10000F9211242F933F934F935F936F937F936F
:101F20008F939F93AF93BF93EF93FF9386E993E0D3
:101F30000E945B0CFF91EF91BF91AF919F918F91A8
:101F40007F916F915F914F913F912F910F900FBEB5
:101F50000F901F9018951F920F920FB60F92112499
:101F60002F938F939F93EF93FF93E091A603F091AC
:101F7000A7038081E091AC03F091AD0382FD12C014
:101F800090818091AF038F5F8F732091B003821790
:101F900051F0E091AF03F0E0EA56FC4F958F80934B
:101FA000AF0301C08081FF91EF919F918F912F919D
:101FB0000F900FBE0F901F901895CF93DF93282F8F
:101FC00030E0F901EE58FF4F8491F901E255FF4FDF
:101FD000D491F901E656FF4FC491CC2391F08111C1
:101FE0000E94EF0CEC2FF0E0EE0FFF1FE057FF4FC9
:101FF000A591B491EC91ED2381E090E021F480E093
:1020000002C080E090E0DF91CF9108951F93CF93BD
:10201000DF93282F30E0F901EE58FF4F8491F9014A
:10202000E255FF4FD491F901E656FF4FC491CC23FE
:10203000C9F0162F81110E94EF0CEC2FF0E0EE0F8B
:10204000FF1FEA57FF4FA591B4918FB7F894111174
:1020500005C09C91ED2FE095E92302C0EC91ED2B9A
:10206000EC938FBFDF91CF911F910895CF93DF93B2
:1020700090E0FC01E255FF4F2491FC01E656FF4F32
:102080008491882361F190E0880F991FFC01E85941
:10209000FF4FC591D491FC01EA57FF4FA591B49130
:1020A000611109C09FB7F8948881209582238883A5
:1020B000EC912E230BC0623061F49FB7F894388105
:1020C000822F809583238883EC912E2B2C939FBFA6
:1020D00006C08FB7F894E8812E2B28838FBFDF913D
:1020E000CF9108952FB7F894609192037091930364
:1020F00080919403909195032FBF08950F931F93A0
:10210000CF93DF93EC010E947210688779878A87EA
:102110009B87E881F9810680F781E02DCE01099542
:1021200097FF17C00E947210088519852A853B8584
:10213000DC01CB01801B910BA20BB30B0C811D8129
:102140002E813F8180179107A207B30710F38FEF0D
:102150009FEFDF91CF911F910F9108951F920F92E2
:102160000FB60F9211242F933F938F939F93AF93AA
:10217000BF938091920390919303A0919403B091A7
:1021800095033091910326E0230F2D3720F402961A
:10219000A11DB11D05C029E8230F0396A11DB11D86
:1021A000209391038093920390939303A0939403BD
:1021B000B093950380918D0390918E03A0918F032E
:1021C000B09190030196A11DB11D80938D03909352
:1021D0008E03A0938F03B0939003BF91AF919F9113
:1021E0008F913F912F910F900FBE0F901F901895D8
:1021F0001F920F920FB60F9211242F933F934F937C
:102200005F936F937F938F939F93AF93BF93EF935E
:10221000FF93E0913504F0913604309709F451C0F2
:10222000968DA685B785858591FF04C09C918923ED
:1022300029F447C09C91892309F043C0A389B4893C
:102240009C918589809589238C93868997890197AC
:10225000F1F7608D718DA685B785558538E020E052
:10226000CB010197F1F7822F90E095958795282F64
:102270004C91452309F02068315091F7868D81FDFE
:1022800020958091340490E001968F7399273091C6
:102290003304381749F0A0913404B0E0A35BBC4F7D
:1022A0002C938093340403C0868D8160868F828D49
:1022B000938D0197F1F7A389B4899C918589892B26
:1022C0008C93FF91EF91BF91AF919F918F917F91EF
:1022D0006F915F914F913F912F910F900FBE0F9093
:1022E0001F9018950F931F93CF93DF938C01EB01F1
:1022F0000E94C2298883C80101960E94C22989834D
:10230000CE01DF91CF911F910F910895EF92FF922F
:102310000F931F93CF93DF9300D0CDB7DEB78C011F
:102320007B01FB0160819A838983CE0101960E9423
:102330003013F70161810F5F1F4F1A830983CE01AC
:1023400001960E943013C7010F900F90DF91CF913B
:102350001F910F91FF90EF900895CF93DF93EB01C2
:102360000E94C2298883CE01DF91CF9108950F93F7
:102370001F93CF93DF9300D0CDB7DEB78B01FB0166
:1023800060819A838983CE0101960E943013C8012F
:102390000F900F90DF91CF911F910F910895CF92E1
:1023A000DF92EF92FF920F931F93CF93DF937C0105
:1023B0008B016A010E94C229F8018083C1E0D0E04C
:1023C0008823C9F0CC15DD057CF4CE018E0D9F1D50
:1023D0008115F4E09F0744F40E94C229F801EC0F34
:1023E000FD1F80832196ECCF1C161D0624F4C00F20
:1023F000D11F2197188281E0DF91CF911F910F911A
:10240000FF90EF90DF90CF9008958F929F92AF92C0
:10241000BF92CF92DF92EF92FF920F931F93CF93D1
:10242000DF93CDB7DEB75B01CDB6DEB6FA01E4804F
:10243000F580C70101962DB73EB7281B390B0FB6A3
:10244000F8943EBF0FBE2DBF0DB71EB70F5F1F4FD5
:10245000892B99F00115110581F0E114F10411F4B3
:10246000F8010AC0FA0160817181A701C8010E94C8
:102470002928F801EE0DFF1D1082F80101900020BF
:10248000E9F73197E01BF10BA11424E0B206E8F460
:102490007F013FEFE31AF30AC5018E0D9F1D8115E1
:1024A000944098F4812C912C8E149F0464F4F801CC
:1024B00061918F01C4018A0D9B1D0E94CA29FFEF03
:1024C0008F1A9F0AF1CF81E001C080E00FB6F89427
:1024D000DEBE0FBECDBEDF91CF911F910F91FF9059
:1024E000EF90DF90CF90BF90AF909F908F90089526
:1024F000CF93DF9300D0CDB7DEB7FC0165AB8EE0A4
:1025000090E09A838983CE0101960E9430130F9048
:102510000F90DF91CF910895EF92FF920F931F9349
:10252000CF93DF9300D000D000D0CDB7DEB78C01C1
:10253000BC0188E190E00E94B711F80180818823F6
:10254000E9F1B8016C5F7F4FCE0101960E945C0FEC
:10255000AE014F5F5F4F6CE170E0C8010E94051251
:10256000CE0101960E94570FFF24F39486E0E82ED7
:10257000F8018081F81610F58F2D90E00197E89E04
:10258000B001E99E700D1124665F7F4F600F711FCF
:10259000CE0101960E945C0FFBE0FF9EB00111246A
:1025A000645E7F4FAE014F5F5F4FC8010E9405120E
:1025B000CE0101960E94570FF394DACF26960FB6FC
:1025C000F894DEBF0FBECDBFDF91CF911F910F9169
:1025D000FF90EF900895CF92DF92EF92FF920F93CA
:1025E0001F93CF93DF93FC01E080EE2069F16B0134
:1025F0008C0180A5882331F0CF0182960E94440E81
:10260000811124C0B601C80104960E94440E8111B4
:102610001DC0C0E0F12CF1E0EF1AF108D6E02C2F3C
:1026200030E02E153F0584F4D29FC001D39F900D5A
:1026300011240A96B601800F911F0E94440ECF5FAD
:10264000882369F38C2F03C08FEF01C080E0DF91F6
:10265000CF911F910F91FF90EF90DF90CF90089551
:10266000EF92FF920F931F93CF93DF931F92CDB7FB
:10267000DEB77C01FC0100811181C80169830E94E1
:10268000C2296981681719F0C8010E94CA29C701C7
:102690000F90DF91CF911F910F91FF90EF900895D0
:1026A000FC0121A5233571F421E024836C3411F45D
:1026B0006EE423C06F3411F461E31FC0643409F584
:1026C00063E51BC02F3479F421E0FC0124836C34D2
:1026D00011F460E512C06F3411F462E30EC064348B
:1026E00081F46FE40AC024E5FC0121A721E02483E2
:1026F0006C3419F06F3419F463E30C94C11764342B
:10270000D9F20895CF93DF93EC01DB01ED91FC91B9
:102710008081882351F080A5BF01811103C06C5FC7
:102720007F4F05C06E5D7F4F02C06B5F7F4FCE0154
:102730000E945C0FCE01DF91CF9108950F931F93FC
:10274000CF93DF93EC018C8D81111AC081E08C8FC7
:102750000E9472106E8F7F8F88A399A30E947210BF
:102760000E8D1F8D28A139A1DC01CB01801B910B9F
:10277000A20BB30B85369105A105B10578F306C010
:102780000E9472106E8F7F8F88A399A3DF91CF91E3
:102790001F910F910895FF920F931F93CF93DF9393
:1027A000EC018B01F42E0E949E136BEA72E0C801CB
:1027B0000E94250E0FA4D8A9C02D811114C0F801C4
:1027C0004481558160817181E881F9810280F381C2
:1027D000E02DCE01F11006C0DF91CF911F910F9136
:1027E000FF9009940995CE01DF91CF911F910F9130
:1027F000FF900C947A0FCF92DF92EF92FF920F939B
:102800001F93CF93DF93CDB7DEB72C970FB6F89415
:10281000DEBF0FBECDBFDC0196961C929697ED9160
:10282000FC9125A92D7F213409F07FC08C010E94E5
:102830009E13F80187A590A9DC01ED91FC9102841B
:10284000F385E02D09956BEA72E0CE0107960E94B0
:10285000650F6CEA72E0CE0107960E94F00EB80197
:10286000CE0101960E948213BE016F5F7F4FCE01A1
:1028700007960E94E90ECE0101960E94570F63EB66
:1028800072E0CE0107960E94DA0EBE01695F7F4FAB
:10289000CE0101960E945C0F41E0BE016F5F7F4F49
:1028A000C8010E94CB13CE0101960E94570F0E94CF
:1028B00072100E94A3286B017C010E9472100E947A
:1028C000A328A70196010E94F82420E030E048ECFC
:1028D00052E40E949E2887FDF0CF6BEA72E0CE01A1
:1028E00001960E94650F41E0BE016F5F7F4FC801F6
:1028F0000E94CB13CE0101960E94570FD801ED9193
:10290000FC9181E083830E947210F801648B758BC7
:10291000868B978B82E582A38FE483A3808D8F5F64
:10292000808FCE0107960E94570F2C960FB6F89411
:10293000DEBF0FBECDBFDF91CF911F910F91FF90F2
:10294000EF90DF90CF9008950F931F93CF93DF9375
:10295000FC0181A98823A9F082A18E34A1F483A16E
:102960008E3489F412A5112379F0062FEF0181E04E
:1029700080A7CF010E949E130FA3CE010E94FB13DC
:1029800003C011E001C010E0812FDF91CF911F91B2
:102990000F9108951F93CF93DF93EC0141110FC066
:1029A000EA81FB81818181110AC06623D9F06FE43D
:1029B0008C819D81DF91CF911F910C945013162F24
:1029C0001D8E1FA660E083E10E9406100E94721017
:1029D0006CAF7DAF8EAF9FAF81E08BAFEA81FB81A3
:1029E0001182188FDF91CF911F9108951F93CF937C
:1029F000DF93EC01EA81FB81818181111AC0162FDE
:102A00001D8E81A9811104C061E083E10E9406103E
:102A100060E082E10E9406100E9472106EAB7FABF4
:102A200088AF99AF81E08DABEA81FB818183198FFB
:102A30000AC0662341F06FE48C819D81DF91CF91C4
:102A40001F910C945013DF91CF911F910895DC01D9
:102A50001296ED91FC91139721A9211107C0818154
:102A600081110EC08281811107C00895FC0183ADE0
:102A7000811106C061E001C060E083E10C940610A2
:102A80000895EF92FF920F931F93CF93DF937B01F3
:102A90008A01E901FC01E95BFF4F1082F89489E0AB
:102AA0000E94DD0F31E0892B09F030E0F70130831F
:102AB0008AE00E94DD0F31E0892B09F030E0F80157
:102AC00030838BE00E94DD0F31E0892B09F030E08C
:102AD00038837894DF91CF911F910F91FF90EF9001
:102AE00008951F920F920FB60F9211240F900FBEF0
:102AF0000F901F9018951F920F920FB60F921124EE
:102B00008F9381E0809384048F910F900FBE0F907C
:102B10001F9018951F93CF93DF93FC018585882321
:102B200099F08481811110C011E01587A281B381D1
:102B300012968C91882339F0EF0161E081E10E94C7
:102B400006101C8301C01482DF91CF911F9108955C
:102B5000EF92FF920F931F93CF93DF9300D01F92BA
:102B6000CDB7DEB78C019E012F5F3F4FAE014E5FA8
:102B70005F4FBE016D5F7F4F0E9441159981D80163
:102B80001296ED91FC91139792835C968C915C97D1
:102B9000992339F0811117C08D919C910E948A155B
:102BA00012C0882381F0F801E080F180D7011496EB
:102BB0008C91882341F060E081E10E940610F701CA
:102BC000148281E085873B8199812A81332329F012
:102BD000822F222319F0892F01C080E0D80112969C
:102BE000ED91FC91139781835A963C935A975B968B
:102BF0002C935B975C969C9321A921110AC0992381
:102C000021F0811106C060E001C061E083E10E9413
:102C10000610D8011296ED91FC91139781810F90C7
:102C20000F900F90DF91CF911F910F91FF90EF9038
:102C30000895CF92DF92EF92FF92CF93DF93EC0152
:102C400061E08FE00E94061081E08A870E94A4164E
:102C50000E94A416BC01990F880B990B0E94A5280D
:102C60006B017C0160E08FE00E9406101A860E94D2
:102C700072106E837F8388879987A7019601C701A9
:102C8000B6010E94F92420E030E040E850E40E94C0
:102C9000042920E030E040E85AE30E94042920E0C3
:102CA00030E048EC52E40E9404290E94D725CB0171
:102CB000DF91CF91FF90EF90DF90CF9008950F9329
:102CC0001F93CF93DF9300D000D000D0CDB7DEB7F5
:102CD0000E94721003E914E0D80154966D937D931D
:102CE0008D939C9357979F968D919C91D097DC01E3
:102CF000ED91FC910284F385E02D099565EB72E07E
:102D0000CE0101960E94650F41E0BE016F5F7F4FCB
:102D1000C8010E94CB13CE0101960E94570FF80103
:102D200087A590A9DC01ED91FC910284F385E02D4B
:102D3000099526960FB6F894DEBF0FBECDBFDF9182
:102D4000CF911F910F91089582E480937C00809130
:102D50007A00806480937A0080917A0086FDFCCFAF
:102D6000809178002091790090E0922B0895CF9285
:102D7000DF92EF92FF920F931F93CF93DF93CDB724
:102D8000DEB728970FB6F894DEBF0FBECDBF7C012B
:102D90006BEA72E00E94650F8091C2049091C304B7
:102DA000DC01ED91FC910480F581E02D0995181668
:102DB00019066CF583E994E00E949E13C090C2044A
:102DC000D090C3046BEA72E08E010F5F1F4FC80101
:102DD0000E94650FC6010E947E1097FD0EC08A30CA
:102DE000910559F08F83188641E050E0BE01695F7C
:102DF0007F4FC8010E94760EEDCFE016F10621F05C
:102E0000B801C7010E941E0FC8010E94570FC701D9
:102E100028960FB6F894DEBF0FBECDBFDF91CF91DD
:102E20001F910F91FF90EF90DF90CF900895CF9278
:102E3000DF92EF92FF921F93CF93DF93CDB7DEB770
:102E400062970FB6F894DEBF0FBECDBFBC01CE01B6
:102E500001960E945C0F40E0BE016F5F7F4F83E9E7
:102E600094E00E94CB13CE0101960E94570F0E945E
:102E700072106B017C016BEA72E0CE010D960E942C
:102E8000650F0E947210DC01CB018C199D09AE09FF
:102E9000BF09883B9B40A105B10508F05CC080914B
:102EA000C2049091C304DC01ED91FC910480F58192
:102EB000E02D09951816190624F7CE0101960E94F7
:102EC000B716BE016F5F7F4FCE010D960E941E0F99
:102ED000CE0101960E94570F6BEC72E0CE01019675
:102EE0000E94650FBE01635F7F4FCE0107960E946F
:102EF0005C0FBE016F5F7F4FCE0107960E94440EAC
:102F0000182FCE0107960E94570FCE0101960E94FE
:102F1000570F111122C06FEC72E0CE0101960E9492
:102F2000650FBE01635F7F4FCE0107960E945C0F65
:102F3000BE016F5F7F4FCE0107960E94440E182F8F
:102F4000CE0107960E94570FCE0101960E94570F9F
:102F5000112309F496CF10E001C011E0CE010D96C7
:102F60000E94570F812F62960FB6F894DEBF0FBEF6
:102F7000CDBFDF91CF911F91FF90EF90DF90CF9069
:102F800008951F93CF93DF93EC01162F8FA598A977
:102F9000DC01ED91FC910284F385E02D09950E94FE
:102FA00072106C877D878E879F8781E0888B1FA337
:102FB000198BDF91CF911F910895CF93DF93EC018F
:102FC00069E473E00E94250E882371F083E5809305
:102FD000BC040E945F1661E0809195049091960474
:102FE000DF91CF910C94F61461EF72E0CE010E9454
:102FF000250E882379F08FE48093BC040E945F162D
:1030000040E061E08091950490919604DF91CF912A
:103010000C94CA146EEF72E0CE010E94250E882334
:10302000E9F084E58093BC040E945F16C09195048A
:10303000D0919604CE010E94A8152C813D81882351
:1030400011F064E406C08C8D811102C06CE401C0F3
:103050006FE4C901DF91CF910C945013DF91CF91B0
:103060000895BF92CF92DF92EF92FF920F931F933A
:10307000CF93DF9300D000D000D0CDB7DEB7FC01F6
:10308000C42EDB0114964D915C9115978481958136
:103090008417950708F44EC080819181009709F448
:1030A00049C06D917C916115710509F443C0022FEF
:1030B0007F010E941B28892BE9F510E0D12C0C150B
:1030C0001D0528F49C2D8D2D6801092F182F6BEA02
:1030D00072E0CE0101960E94650FF701848195810F
:1030E000C816D906D8F48017910708F48C01D701C7
:1030F000ED91FC911197E00FF11FB08010826D915E
:103100007C916C0D7D1DCE0101960E94F00EF701A1
:1031100020813181F901E00FF11FB082BE016F5FA4
:103120007F4FC7010E941E0FCE0101960E94570FCC
:1031300081E001C080E026960FB6F894DEBF0FBE96
:10314000CDBFDF91CF911F910F91FF90EF90DF9056
:10315000CF90BF9008950F931F93CF93DF9300D02C
:1031600000D000D0CDB7DEB78C0166ED72E0CE01A5
:1031700001960E94650F28E047E0BE016F5F7F4F18
:10318000C8010E943118182FCE0101960E94570FD6
:10319000812F26960FB6F894DEBF0FBECDBFDF910C
:1031A000CF911F910F910895CF92DF92EF92FF92EE
:1031B000CF93DF9300D000D000D0CDB7DEB7109210
:1031C000B7048091C2049091C304DC01ED91FC919D
:1031D0000284F385E02D09956EED72E0CE01019633
:1031E0000E94650F41E0BE016F5F7F4F83E994E06D
:1031F0000E94CB13CE0101960E94570F0E947210BD
:103200000E94A3286B017C010E9472100E94A328D7
:10321000A70196010E94F82420E030E048EC52E437
:103220000E949E2887FDF0CF6BEA72E0CE010196E6
:103230000E94650F41E0BE016F5F7F4F83E994E01C
:103240000E94CB13CE0101960E94570F8091C204B9
:103250009091C304DC01ED91FC910284F385E02D93
:1032600009951092BB041092AC041092AB04E0914B
:103270009304F091940413821092B804109297046E
:103280008EE48093B5048093B6040E94721060931C
:10329000BE047093BF048093C0049093C104109245
:1032A000BD0426960FB6F894DEBF0FBECDBFDF91EA
:1032B000CF91FF90EF90DF90CF900895FF920F9302
:1032C0001F93CF93DF9300D000D000D0CDB7DEB7EF
:1032D0008C0166EE72E0CE0101960E94650F2CE033
:1032E0004BE0BE016F5F7F4FC8010E943118F82E7E
:1032F000CE0101960E94570FF11041C063EF72E0BA
:10330000CE0101960E94650F2CE04BE0BE016F5F7D
:103310007F4FC8010E943118F82ECE0101960E94FD
:10332000570FF1102EC060E073E0CE0101960E94AD
:10333000650F2CE04BE0BE016F5F7F4FC8010E941C
:103340003118F82ECE0101960E94570FF1101BC0C4
:103350006DE073E0CE0101960E94650F2CE04BE01A
:10336000BE016F5F7F4FC8010E943118182FCE0138
:1033700001960E94570F111108C08EE407C084E423
:1033800005C082E503C089E401C085E426960FB636
:10339000F894DEBF0FBECDBFDF91CF911F910F918B
:1033A000FF900895FF920F931F93CF93DF93CDB7B4
:1033B000DEB72C970FB6F894DEBF0FBECDBF8C01E1
:1033C0006AE173E0CE0101960E94650FB801CE015B
:1033D00007960E945C0FBE016F5F7F4FCE0107967C
:1033E0000E94440EF82ECE0107960E94570FCE0180
:1033F00001960E94570FFF2011F081E059C066E24C
:1034000073E0CE0101960E94650FB801CE010796C8
:103410000E945C0FBE016F5F7F4FCE0107960E9436
:10342000440EF82ECE0107960E94570FCE0101964A
:103430000E94570FF110E1CF6CE273E0CE010796C6
:103440000E94650FB801CE0101960E945C0FBE017B
:10345000695F7F4FCE0101960E94440EF82ECE0187
:1034600001960E94570FCE0107960E94570FF11048
:10347000C4CF6FEC72E0CE0107960E94650FB801D1
:10348000CE0101960E945C0FBE01695F7F4FCE01A5
:1034900001960E94440E182FCE0101960E94570FEC
:1034A000CE0107960E94570F81E0111101C080E004
:1034B0002C960FB6F894DEBF0FBECDBFDF91CF9133
:1034C0001F910F91FF900895CF92DF92EF92FF929C
:1034D0000F931F93CF93DF93CDB7DEB762970FB6ED
:1034E000F894DEBF0FBECDBF8C01F62E8091C204D2
:1034F0009091C304DC01ED91FC910284F385E02DF1
:1035000009956BEA72E0CE010D960E94650FF110ED
:1035100020C08091BA04833531F0853569F08F344D
:1035200009F0E7C009C067E373E0CE010D960E9481
:10353000F00E60E771E008C067E373E0CE010D961E
:103540000E94F00E66E771E0CE010D960E94DA0E41
:1035500005C0B801CE010D960E94070F6BEA72E01C
:10356000CE0107960E94650F6EE373E0CE010796C9
:103570000E94F00E63E974E0CE0101960E9482136E
:10358000BE016F5F7F4FCE0107960E94E90ECE010C
:1035900001960E94570F69E372E0CE0107960E94E0
:1035A000DA0E8091C2049091C304DC01ED91FC918C
:1035B0000284F385E02D0995BE01695F7F4FCE013E
:1035C00001960E945C0F41E0BE016F5F7F4F83E96F
:1035D00094E00E94CB13CE0101960E94570F809178
:1035E000C2049091C304DC01ED91FC910284F38547
:1035F000E02D09950E9472106B017C010E947210EF
:10360000DC01CB018C199D09AE09BF09883E9340AE
:10361000A105B10598F3BE01635F7F4FCE0101960E
:103620000E945C0F41E0BE016F5F7F4F83E994E031
:103630000E94CB13CE0101960E94570F8091C204C5
:103640009091C304DC01ED91FC910284F385E02D9F
:1036500009950E9472106B017C010E947210DC01BE
:10366000CB018C199D09AE09BF09883E9340A10585
:10367000B10598F38091C2049091C304DC01ED91EF
:10368000FC910284F385E02D099583E994E00E9482
:103690009E130091C2041091C304D801ED91FC91D6
:1036A0000190F081E02D6AE1C8010995C8010E94EE
:1036B0007A0F8091C2049091C304DC01ED91FC91DA
:1036C0000284F385E02D09950E9472106B017C0144
:1036D0000E947210DC01CB018C199D09AE09BF0953
:1036E000883E9340A105B10598F3CE0107960E944C
:1036F000570FCE010D960E94570F62960FB6F894A1
:10370000DEBF0FBECDBFDF91CF911F910F91FF9014
:10371000EF90DF90CF900895FC016481758190E077
:10372000292F30E026173707A8F440815181411531
:10373000510529F0DA01A20FB31F2C9101C020E03E
:10374000022E000C330B205331092A30310520F4AE
:103750009F5FE6CF81E0089580E00895CF93DF93E7
:10376000CDB7DEB76A970FB6F894DEBF0FBECDBFF8
:10377000789484B5826084BD84B5816084BD85B54C
:10378000826085BD85B5816085BD80916E00816058
:1037900080936E00109281008091810082608093FE
:1037A0008100809181008160809381008091800000
:1037B0008160809380008091B10084608093B1002B
:1037C0008091B00081608093B00080917A00846025
:1037D00080937A0080917A00826080937A00809151
:1037E0007A008E7F80937A0080917A00806880933F
:1037F0007A001092C100E091A603F091A70382E045
:103800008083E091A203F091A3031082E091A403CE
:10381000F091A50383E380831092AE03E091AA03A5
:10382000F091AB0386E08083E091A803F091A903B7
:10383000808180618083E091A803F091A903808159
:1038400088608083E091A803F091A903808180685B
:103850008083E091A803F091A90380818F7D80830C
:103860006EE075E088E090E00E94721180910E0594
:1038700090910F05019689F482E390E09A8F898FE9
:10388000BE01675E7F4F88E090E00E9486116EE087
:1038900075E088E090E00E94721165E175E080E0DB
:1038A00090E00E94AD11809115058F3F49F481E0B1
:1038B0008093150565E175E080E090E00E94B71106
:1038C00066E175E084E090E00E9472118091160537
:1038D00090911705019661F482E390E090931705AB
:1038E0008093160566E175E084E090E00E94861101
:1038F00068E175E08CE090E00E94AD1180911805C0
:103900008F3F41F41092180568E175E08CE090E07B
:103910000E94B7118EE090E00E94C22980931905A1
:103920008F3F29F463E484EE94E00E94781260E112
:1039300075E080E190E00E947211809110059091F5
:103940001105019679F481E792E090931105809337
:10395000100560E175E080E190E00E94861181E051
:103960008093140562E175E084E190E00E94721199
:103970008091120590911305019679F484E992E003
:10398000909313058093120562E175E084E190E065
:103990000E94861181E08093140564EE74E088E152
:1039A00090E00E94AD118091E40481508E3F08F0B8
:1039B00055C04CE050E0BE016F5F7F4F8CE190E05E
:1039C0000E94CF11BE016F5F7F4FCE010D960E9406
:1039D000650FBE01635F7F4F88EE94E00E941E0F6B
:1039E000CE010D960E94570F11E006E08091E4048D
:1039F000181708F049C0C12ED12CEBE01E9FC00162
:103A000011244C968115F4E09F073CF44BE050E004
:103A1000BE016F5F7F4F0E94CF11BE016F5F7F4F6E
:103A2000CE010D960E94650F0FB6F894DEBF0FBE53
:103A3000CDBF21E0C21AD1080C9DC0010D9D900D93
:103A40001124BE01635F7F4F82519B4F0E941E0F66
:103A5000CE010D960E94570F1F5FC8CF1092E4044D
:103A60006BEA72E088EE94E00E94F00E00E010E055
:103A70006BEA72E0C80182519B4F0E94F00E0A5F10
:103A80001F4F08311105A1F76CE075E08EE790E05B
:103A90000E94AD1180910C058F3F41F410920C05EE
:103AA0006CE075E08EE790E00E94B7116DE075E084
:103AB0008AE790E00E94AD1180910D058130E1F41C
:103AC0004CE050E0BE016F5F7F4F82E890E00E94C3
:103AD000CF11BE016F5F7F4FCE010D960E94650F23
:103AE000BE01635F7F4F86E095E00E941E0FCE010E
:103AF0000D960E94570F0AC08F3F41F41982BE01F4
:103B00006F5F7F4F8AE790E00E94B71184EE94E0E8
:103B100090939404809393048DE394E0909396049F
:103B20008093950484E6F82E80914C0381118CC01B
:103B30000E947210683A71468105910508F493C39A
:103B400000E06FE672E0CE0101960E94650FCE01A3
:103B500001960E941717182FCE0101960E94570F49
:103B6000112309F44BC064E772E0CE0101960E9474
:103B7000650FCE0101960E941717182FCE010196EE
:103B80000E94570F1123D1F160E872E0CE014396F5
:103B90000E94650FCE0143960E941717882351F1AA
:103BA0006CE872E0CE010D960E94650FCE010D9675
:103BB0000E941717182F882379F068E972E0CE0168
:103BC00001960E94650FCE0101960E941717182FCB
:103BD000CE0101960E94570FCE010D960E94570FFD
:103BE000CE0143960E94570F112341F081E080934C
:103BF000C4040CC0CE0143960E94570F8091C404A8
:103C0000811104C0011102C001E09BCF11E01093AB
:103C100084048DE394E00E94271580916800816000
:103C20008093680080916B00826080936B0080912C
:103C30006B00846080936B0080916B008860809340
:103C40006B0010934C030FC30E948D008091900471
:103C5000882369F080919104811109C062E4809108
:103C60008504909186040E94A41480939104E091AD
:103C70008704F09188048381811149C080918F0469
:103C8000811145C00E947210E0918A0400918B045A
:103C900010918C0420918D0430918E04AB01BC01F5
:103CA000401B510B620B730BF4E6EF9FC001112414
:103CB000092E000CAA0BBB0B481759076A077B0794
:103CC00030F185E894E00E9419168C01E091870498
:103CD000F091880480A9882389F060E081E10E9446
:103CE000061010928904109292041092900410927F
:103CF0009104E0918704F091880410AA80918904CE
:103D00008111F3C20D3221E0120708F0AFC2809199
:103D10007204811133C18091780481112FC1809187
:103D20008404882309F42AC19E012F5F3F4FAE010E
:103D3000435F5F4FBE016D5E7F4F8DE394E00E9455
:103D40004115E0913F04F0914004818199818823DD
:103D500009F4A6C08B8991112DC0811142C02D8517
:103D600021113FC01092660440E060E08DE394E0D2
:103D70000E94CA1463E480914104909142040E941D
:103D8000A41480934904E0913F04F091400412820E
:103D900000913D0410913E04F8018481882309F4C8
:103DA000D2C060E081E10E940610F801148281E037
:103DB0008587C9C0209159042223B9F0811115C00B
:103DC0002D85211114C00E947210609367047093B6
:103DD00068048093690490936A0481E08093660488
:103DE000B2C02091590421110DC0811104C020914D
:103DF0005704211107C02D85211130C0309158047E
:103E0000332361F10E94721060936D0470936E040D
:103E100080936F0490937004DD24D394D0926C044B
:103E20008981811190C080915904882309F48BC045
:103E3000E0913F04F0914004128200913D04109102
:103E40003E04F8018481882309F47DC060E081E1AB
:103E50000E940610F8011482D58675C0992309F4D2
:103E600072C0882309F46FC0222309F46CC08091CA
:103E70005904882341F090915704992321F090919F
:103E80005804911160C010926C0481115CC081E0F3
:103E9000828380913D0490913E040E948A1553C014
:103EA000992369F18B898823D9F08D858823C1F006
:103EB00081E08183828380913D0490913E040E9441
:103EC0008A1580915A04811110925A0463E58091F9
:103ED0004104909142040E94A41480934A0433C088
:103EE0008091590481112FC011E0128380913D040B
:103EF00090913E040E948A1510937E041AC080910E
:103F00005904882301F1128200913D0410913E046E
:103F1000F8018481882341F060E081E10E9406106D
:103F2000F801148281E0858781E080937E041092FD
:103F30005A040E94721060937F04709380048093EF
:103F40008104909382048B89809357048D8580939C
:103F50005804898180935904E0913F04F091400412
:103F600091A991110BC0882329F08181811106C08C
:103F700060E001C061E083E10E94061080917E0450
:103F80008823B9F10E947210E091830400917F04AC
:103F9000109180042091810430918204AB01BC0116
:103FA000401B510B620B730BF4E6EF9FC001112411
:103FB000092E000CAA0BBB0B481759076A077B0791
:103FC000C0F010927E04E0913F04F09140048281A1
:103FD000882309F4C0C181A9882309F4AFC182A94B
:103FE00093A9892B09F09CC160E08DE394E00E94C5
:103FF000F61480916604882301F10E947210E0910A
:104000006B04009167041091680420916904309159
:104010006A04AB01BC01401B510B620B730B24E61D
:10402000E29FC0011124092E000CAA0BBB0B8417C0
:104030009507A607B70708F49BC180916C048823F5
:1040400001F10E947210E091710400916D041091D1
:104050006E0420916F0430917004AB01BC01401BD1
:10406000510B620B730BF4E6EF9FC0011124092E74
:10407000000CAA0BBB0B84179507A607B70708F41B
:1040800089C180915A04882321F10E947210E09125
:104090003F04F091400422A933A980905B049090E2
:1040A0005C04A0905D04B0905E042B013C014818B4
:1040B00059086A087B08A8EEB3E00E940F2A46164A
:1040C00057066806790628F060E08DE394E00E94C8
:1040D000F61480915F04882331F10E9472100091E0
:1040E0006004109161042091620430916304AB017B
:1040F000BC01401B510B620B730B20916404309187
:104100006504F29EC001F39E900D1124A0E0B0E082
:10411000481759076A077B0730F040E060E08DE3FD
:1041200094E00E94CA14809172048823D1F10E9405
:104130007210E0917704009173041091740420913F
:10414000750430917604AB01BC01401B510B620B2E
:10415000730B24E6E29FC0011124092E000CAA0B68
:10416000BB0B84179507A607B707D8F461E082E177
:104170000E9406101092720480915604882309F45C
:1041800021C1109256048DE394E00E94A815882363
:1041900009F410C164E480914104909142040E94AA
:1041A000501380917804882309F445C00E9472104E
:1041B000E0917D040091790410917A0420917B04B0
:1041C00030917C04AB01BC01401B510B620B730BA3
:1041D000F4E6EF9FC0011124092E000CAA0BBB0BC3
:1041E00084179507A607B70730F5E0913F04F091D3
:1041F000400481A9811116C18281882309F412C16A
:10420000109278048DE394E00E94A81580915704E1
:10421000209155048111F6C0809158048111F2C09B
:10422000222349F01092550464E480914104909156
:1042300042040E94501300E010E0C801835C9B4FD1
:104240006C01FC018681811109C067858091410460
:10425000909142040E94A414F60186830F5F1F4FC1
:104260000930110551F70E94E50C5ECCE0918704FE
:10427000F091880484A595A58017910708F447CD8F
:10428000DD24D394D09292048281882339F061E0B6
:1042900081E10E940610D092890402C01092890424
:1042A00080918904811133CD80919004E09187043D
:1042B000F091880481110DC084A595A50F978017F2
:1042C000910708F424CD1092910481E0809390042A
:1042D0001ECD84A595A505970817190708F417CDD5
:1042E000109290041092910412CD80919004882332
:1042F00021F01092900410929104E0918704F091C3
:10430000880486A597A50817190708F400CD60E072
:1043100081E10E9406101092890410929204F7CC59
:1043200081E080935A040E94721060935B04709342
:104330005C0480935D0490935E045BCE84A981113C
:1043400058CE67E480914104909142040E94A414E5
:10435000809347044ECE84A981114BCE6CE48091AA
:104360004104909142040E94A4148093480441CED9
:104370001092660440E060E08DE394E00E94CA146D
:1043800065E580914104909142040E94A4148093B9
:10439000450453CE40E060E08DE394E00E94CA14EF
:1043A00066E480914104909142040E94A414809399
:1043B000460467CE41E060E08DE394E00E94CA14B9
:1043C0006CE4E9CE8DE394E00E94A815882351F0B7
:1043D00063E580914104909142040E94A41480936B
:1043E0004A04DFCE41E060E08DE394E00E94CA140D
:1043F0006EE480914104909142040E94A414809341
:104400004304CFCE8091410490914204222321F0B5
:10441000109255046CE40DCF60E50E94A4148093C3
:10442000440409CF61E083E10E940610E9CECF93F6
:10443000DF93EC016115710561F0FB010190002033
:10444000E9F73197AF01461B570B0E94760E811199
:1044500003C0CE010E94C00DCE01DF91CF9108951F
:1044600087E394E00E94570F88E994E00E94570F79
:104470008AE191E09093C6048093C504809135044D
:1044800090913604855C944071F4E091D804F091E9
:10449000D90490818091DA048095892380831092D9
:1044A00036041092350486E095E00E94570F8EEE98
:1044B00094E0892B81F080E095E00E94570F8AEF0D
:1044C00094E00E94570F84EF94E00E94570F8EEE05
:1044D00094E00E94570F88EE94E00C94570FCF930E
:1044E000DF93109299031092980388EE93E0A0E076
:1044F000B0E080939A0390939B03A0939C03B093A6
:104500009D038AE091E0909397038093960385EC56
:1045100090E09093A3038093A20384EC90E09093A7
:10452000A5038093A40380EC90E09093A70380936D
:10453000A60381EC90E09093A9038093A80382ECFA
:1045400090E09093AB038093AA0386EC90E0909365
:10455000AD038093AC031092AF031092B00310929E
:10456000B1031092B2036BEA72E088EE94E00E940D
:10457000650FC0E0D0E06BEA72E0CE0182519B4F44
:104580000E94650F2696C831D105A9F76BEA72E043
:1045900086E095E00E94650F1092E40410921405E5
:1045A0001092E5041092E6041092C8041092C70419
:1045B00088EE93E0A0E0B0E08093C9049093CA0431
:1045C000A093CB04B093CC048AE191E09093C6040D
:1045D0008093C5041092DC041092DB041092DE0478
:1045E0001092DD041092E0041092DF041092E204B5
:1045F0001092E1046091E3046E7F6D7F6093E304A9
:104600006695617081E0682786E00E94061061E08F
:1046100086E00E943610E4EBF0E0E491E093D504EC
:10462000E0EAF0E0E491F0E0EE0FFF1FEA57FF4F01
:10463000859194919093D7048093D60460E085E0AF
:104640000E9436108091E30481FD04C061E085E0A2
:104650000E94061085E08093D104E3EBF0E0E49142
:10466000E093D204EFE9F0E0E491F0E0EE0FFF1FF9
:10467000E057FF4F859194919093D4048093D30495
:104680006BEA72E088E994E00E94650F85EC94E0A3
:104690009093C3048093C2041092E0041092DF044C
:1046A0001092DE041092DD041092DC041092DB0400
:1046B00085E690E09093E2048093E1049091D10428
:1046C000963108F057C021E230E03093DC042093AB
:1046D000DB0423E630E03093DE042093DD0422E4A3
:1046E00030E03093E0042093DF042091680098309C
:1046F00050F031E09E3008F430E081E001C0880FD6
:104700003A95EAF701C084E0822B809368009830E4
:1047100038F09E3040F0963148F020E030E008C09C
:104720002DE630E005C02BE630E002C02CE630E09C
:104730003093D9042093D804983030F481E001C03C
:10474000880F9A95EAF70EC0292F30E09E3018F4B2
:104750002850310902C02E50310981E001C0880F74
:104760002A95EAF78093DA048091E1049091E204BB
:104770000197F1F78091DF049091E004892B49F1D2
:10478000E0913504F091360484E0E53CF80709F146
:10479000309739F0A389B4899C91858980958923C4
:1047A0008C938091E3048E7F8093E3041092340411
:1047B0001092330485EC94E0909336048093350492
:1047C000E091D804F091D90490818091DA04892B8A
:1047D000808360EC72E088E994E00E94F00EC3E907
:1047E000D4E01092C40488EC8093B0041092AF041B
:1047F00061E083E00E9436101092AF0485E0809360
:104800009E041092A3041092AC041092AB048EE4A8
:104810008093BA041092B9041092970424E432E011
:104820003093A6042093A5041092B7048093B50496
:104830008093B6041092B8041092BB0481E0809378
:10484000BD0461E08FE00E94361061E081E10E94CA
:10485000361060E081E10E940610109289041092E7
:1048600092048AEF80938A0410928F04109291042C
:1048700010929004D0938604C093850484EE94E053
:104880009093880480938704D0934204C09341049A
:104890009093400480933F0485E894E090933E0415
:1048A00080933D0461E082E10E94361061E082E184
:1048B0000E94061061E083E10E94361061E083E10E
:1048C0000E94061062E089E00E94361062E08AE0F1
:1048D0000E94361062E08BE00E9436101092550460
:1048E000109256041092840410925A0488E592E0C3
:1048F000909365048093640410925F0482E3809334
:104900006B041092660496E49093710410926C0408
:1049100094E1909377041092720490937D04109226
:1049200078048093830410927E04109257041092AE
:10493000580410925904E3E4F4E091E089E08E0F0A
:1049400091938E13FDCF8EE480934C0480E5809389
:104950004D0485E580934E0486E480934F0487E4FC
:10496000809350048CE48093510483E48093520438
:1049700083E5809353048FE4809354048DE394E0A3
:104980000E9427156BEA72E087E394E0DF91CF91F4
:104990000C94650F97FB072E16F4009407D077FD53
:1049A00009D00E94DE2407FC05D03EF49095819545
:1049B0009F4F0895709561957F4F0895AA1BBB1B6B
:1049C00051E107C0AA1FBB1FA617B70710F0A61B0F
:1049D000B70B881F991F5A95A9F780959095BC0130
:1049E000CD010895EE0FFF1F0590F491E02D09947D
:1049F0005058BB27AA270E9410250C9488290E9492
:104A00007A2938F00E94812920F039F49F3F19F467
:104A100026F40C9477290EF4E095E7FB0C947129A9
:104A2000E92F0E94992958F3BA1762077307840780
:104A3000950720F079F4A6F50C94BB290EF4E095C7
:104A40000B2EBA2FA02D0B01B90190010C01CA0148
:104A5000A0011124FF27591B99F0593F50F4503EF3
:104A600068F11A16F040A22F232F342F4427585FE5
:104A7000F3CF469537952795A795F0405395C9F7FD
:104A80007EF41F16BA0B620B730B840BBAF09150B5
:104A9000A1F0FF0FBB1F661F771F881FC2F70EC054
:104AA000BA0F621F731F841F48F487957795679527
:104AB000B795F7959E3F08F0B0CF9395880F08F013
:104AC0009927EE0F9795879508950E9479250C9464
:104AD00088290E94812958F00E947A2940F029F4FF
:104AE0005F3F29F00C94712951110C94BC290C944E
:104AF00077290E94992968F39923B1F3552391F3FB
:104B0000951B550BBB27AA2762177307840738F03C
:104B10009F5F5F4F220F331F441FAA1FA9F335D099
:104B20000E2E3AF0E0E832D091505040E695001C4D
:104B3000CAF72BD0FE2F29D0660F771F881FBB1F07
:104B4000261737074807AB07B0E809F0BB0B802DE5
:104B5000BF01FF2793585F4F3AF09E3F510578F011
:104B60000C9471290C94BC295F3FE4F3983ED4F374
:104B7000869577956795B795F7959F5FC9F7880FE5
:104B8000911D9695879597F90895E1E0660F771F37
:104B9000881FBB1F621773078407BA0720F0621BC8
:104BA000730B840BBA0BEE1F88F7E09508950E94F3
:104BB000A12988F09F5798F0B92F9927B751B0F0E5
:104BC000E1F0660F771F881F991F1AF0BA95C9F791
:104BD00014C0B13091F00E94BB29B1E008950C944B
:104BE000BB29672F782F8827B85F39F0B93FCCF3FE
:104BF000869577956795B395D9F73EF4909580950E
:104C0000709561957F4F8F4F9F4F0895CF93DF939E
:104C10008230910510F482E090E0E0911C05F09163
:104C20001D0520E030E0C0E0D0E0309711F1408178
:104C3000518148175907C0F04817590761F482811C
:104C40009381209719F09B838A832BC090931D0535
:104C500080931C0526C02115310519F04217530712
:104C600018F49A01BE01DF01EF010280F381E02D0B
:104C7000DCCF2115310509F1281B390B2430310512
:104C800090F412968D919C9113976115710521F006
:104C9000FB019383828304C090931D0580931C05C0
:104CA000FD01329644C0FD01E20FF31F8193919301
:104CB000225031092D933C933AC020911A0530912E
:104CC0001B05232B41F42091020130910301309305
:104CD0001B0520931A052091000130910101211537
:104CE000310541F42DB73EB74091040150910501C3
:104CF000241B350BE0911A05F0911B05E217F30711
:104D0000A0F42E1B3F0B2817390778F0AC014E5F3B
:104D10005F4F2417350748F04E0F5F1F50931B0558
:104D200040931A058193919302C0E0E0F0E0CF0137
:104D3000DF91CF9108950F931F93CF93DF93009747
:104D400009F48CC0FC0132971382128200911C0579
:104D500010911D050115110581F420813181820F0B
:104D6000931F20911A0530911B052817390779F5F3
:104D7000F0931B05E0931A0571C0D80140E050E0A4
:104D8000AE17BF0750F412962D913C911397AD01C9
:104D90002115310509F1D901F3CF9D01DA013383E2
:104DA000228360817181860F971F8217930769F4B0
:104DB000EC0128813981260F371F2E5F3F4F318349
:104DC00020838A819B8193838283452B29F4F093EE
:104DD0001D05E0931C0542C01396FC93EE931297B9
:104DE000ED01499159919E01240F351FE217F307F8
:104DF00071F480819181840F951F029611969C9386
:104E00008E938281938113969C938E931297E0E008
:104E1000F0E0D80112968D919C911397009719F0AC
:104E2000F8018C01F6CF8D919C9198012E5F3F4F38
:104E3000820F931F20911A0530911B0528173907FF
:104E400069F4309729F410921D0510921C0502C0D8
:104E50001382128210931B0500931A05DF91CF91E4
:104E60001F910F910895A0E0B0E0E9E3F7E20C9400
:104E7000DC29EC01009721F4CB010E940626B8C082
:104E8000FC01E60FF71F9C0122503109E217F307DE
:104E900008F4ACC0D9010D911C91119706171707A2
:104EA000B0F00530110508F49FC0C80104978617BB
:104EB000970708F499C002501109061B170B0193BC
:104EC00011936D937C93CF010E949B268DC05B0153
:104ED000A01AB10A4C01800E911EA0911C05B09140
:104EE0001D0540E050E0E12CF12C109709F44AC078
:104EF000A815B905D1F56D907C901197630182E0FA
:104F0000C80ED11CCA14DB0480F1A3014A195B0945
:104F10006A0182E0C80ED11C1296BC9012971396BB
:104F2000AC91B5E0CB16D10440F0B282A38351839B
:104F30004083D9016D937C930AC00E5F1F4FC3015C
:104F4000800F911FF90191838083EB2DFA2FE114DB
:104F5000F10431F0D7011396FC93EE93129744C0FD
:104F6000F0931D05E0931C053FC08D919C91119716
:104F70004817590708F4AC017D0112960D90BC91B9
:104F8000A02DB3CF80911A0590911B058815990526
:104F9000E1F446175707C8F4809100019091010190
:104FA000009741F48DB79EB74091040150910501DF
:104FB000841B950BE817F907C8F4F0931B05E093E1
:104FC0001A05F901718360830FC0CB010E94062688
:104FD0007C01009759F0A801BE010E940228CE0171
:104FE0000E949B26C70104C0CE0102C080E090E071
:104FF000CDB7DEB7EEE00C94F82981E090E0F894AC
:105000000C941E2AFB01DC0102C001900D9241505C
:105010005040D8F70895FB01DC018D910190801973
:105020000110D9F3990B0895FB01DC0101900D9259
:105030000020E1F70895FB01DC014150504030F0C1
:105040008D910190801919F40020B9F7881B990BF4
:105050000895FB01DC014150504048F001900D9251
:105060000020C9F701C01D9241505040E0F708955B
:105070001F93FC0199278827BC01E89411911032F5
:10508000E9F3193010F01E30C8F31B3251F01D3215
:1050900049F4689406C00E945F28610F711D811D4C
:1050A000911D119110531A30B0F33EF490958095F4
:1050B000709561957F4F8F4F9F4F1F910895592F86
:1050C000482F372F262F660F771F881F991F660FCF
:1050D000771F881F991F620F731F841F951F660F0C
:1050E000771F881F991F0895BB27FB015527AA2703
:1050F000880F991FAA1FA41710F0A41B8395505165
:10510000B9F7A05DAA3308F0A95DA193009779F7DC
:10511000B111B1931192CB010C948E28DC01FC01EA
:10512000672F71917723E1F7329704C07C916D93DB
:1051300070836291AE17BF07C8F308950E94E028FC
:1051400008F481E00895E89409C097FB3EF4909537
:105150008095709561957F4F8F4F9F4F9923A9F050
:10516000F92F96E9BB279395F695879577956795DF
:10517000B795F111F8CFFAF4BB0F11F460FF1BC023
:105180006F5F7F4F8F4F9F4F16C0882311F096E9B6
:1051900011C0772321F09EE8872F762F05C0662364
:1051A00071F096E8862F70E060E02AF09A95660F1D
:1051B000771F881FDAF7880F9695879597F90895D6
:1051C000990F0008550FAA0BE0E8FEEF1616170618
:1051D000E807F907C0F012161306E407F50798F080
:1051E000621B730B840B950B39F40A2661F0232B99
:1051F000242B252B21F408950A2609F4A140A69515
:105200008FEF811D811D08950E9417290C94882914
:105210000E947A2938F00E94812920F0952311F00C
:105220000C9471290C94772911240C94BC290E94A8
:10523000992970F3959FC1F3950F50E0551F629F18
:10524000F001729FBB27F00DB11D639FAA27F00DDF
:10525000B11DAA1F649F6627B00DA11D661F829F06
:105260002227B00DA11D621F739FB00DA11D621FEB
:10527000839FA00D611D221F749F3327A00D611D08
:10528000231F849F600D211D822F762F6A2F1124EA
:105290009F5750409AF0F1F088234AF0EE0FFF1F1D
:1052A000BB1F661F771F881F91505040A9F79E3F74
:1052B000510580F00C9471290C94BC295F3FE4F3F4
:1052C000983ED4F3869577956795B795F795E795CA
:1052D0009F5FC1F7FE2B880F911D9695879597F9D3
:1052E000089597F99F6780E870E060E008959FEF68
:1052F00080EC089500240A9416161706180609066D
:10530000089500240A94121613061406050608953B
:10531000092E0394000C11F4882352F0BB0F40F4C3
:10532000BF2B11F460FF04C06F5F7F4F8F4F9F4F03
:10533000089557FD9058440F551F59F05F3F71F085
:105340004795880F97FB991F61F09F3F79F08795EC
:105350000895121613061406551FF2CF4695F1DF75
:1053600008C0161617061806991FF1CF8695710505
:10537000610508940895E894BB2766277727CB0139
:1053800097F90895F999FECF92BD81BDF89A9927B2
:1053900080B50895262FF999FECF1FBA92BD81BD21
:1053A00020BD0FB6F894FA9AF99A0FBE01960895A7
:1053B0002F923F924F925F926F927F928F929F9225
:1053C000AF92BF92CF92DF92EF92FF920F931F9313
:1053D000CF93DF93CDB7DEB7CA1BDB0B0FB6F894C4
:1053E000DEBF0FBECDBF09942A88398848885F8404
:1053F0006E847D848C849B84AA84B984C884DF8075
:10540000EE80FD800C811B81AA81B981CE0FD11D58
:105410000FB6F894DEBF0FBECDBFED010895A29F79
:10542000B001B39FC001A39F700D811D1124911D78
:10543000B29F700D811D1124911D089510E0C2E6E8
:10544000D0E004C0FE010E94F2242196C336D107A9
:06545000C9F7F894FFCF3C
:1054560000001E058000000000007C0CF80B450CC7
:10546600230C370CC30C00000000310DF80B850D22
:105476009D0D180D300D204F4E0A00204F46460A4E
:10548600002B435553443A0041542B434D47523D5C
:10549600002B434D47523A00434C454152414C4C38
:1054A6000054454D500044454641554C5400415525
:1054B600544F4F4E004155544F4F464600444E44BC
:1054C6004F4E00444E444F4646005245535043000B
:1054D60052455350410042415453544152540042A4
:1054E600415453544F500053544154555300414373
:1054F6003A004D3A000A4241543A002E00415554B2
:105506004F54494D45004E45540041542B43535189
:105516000042414C0041542B435553443D312C220B
:10552600004D2D00414D4F4E00414D4F4646004126
:105536004D2B0041542B434D4744413D2244454C9D
:1055460020414C4C22002B4350494E3A204E4F549A
:105556002052454144590D0041542B4346554E3D7A
:10556600300D0A0041542B4346554E3D310D0A007D
:1055760052494E470D0041542B444445543D310D8C
:105586000A002B434C49503A202200415441004125
:10559600542B435245433D342C2200433A5C002EA3
:1055A600616D72222C302C3130302C310D0041547B
:1055B6002B435553443D30002B434D54493A00414B
:1055C600540D0A0041542B434C49503D310D0A00FD
:1055D60041542B434C43433D310D0A0041542B4368
:1055E6004D47463D310D0A0041542B434E4D493D32
:1055F600322C312C302C302C300D0A004154442BE7
:105606003931003B0041542B435245433D350D0093
:1056160037303431313936393539004F4B0D004585
:1056260052524F520D002B44544D463A20004154DD
:105636002B43485550002B434C43433A20312C30E2
:105646002C32002B434C43433A20312C302C330070
:105656002B434C43433A20312C302C30002B434C07
:1056660043433A20312C302C36004E4F20434152D2
:10567600524945520D00425553590D004E4F204197
:105686004E535745520D004D4F544F522000415432
:0C5696002B434D47533D222B39310000BF
:00000001FF
