:100000000C9479020C946F210C9448210C945C148C
:100010000C946B140C94A1020C9430140C94A10257
:100020000C94A1020C94A1020C94A1020C94A102C4
:100030000C94A1020C94A1020C94A1020C94A102B4
:100040000C94FE200C94A1020C94FB1F0C94D51F61
:100050000C94A1020C94A1020C94A1020C94A10294
:100060000C94A1020C94A10241542B434349440037
:1000700041542B444445543D310D0A004154265708
:100080000D0A0041542B434C54533D310D0A00419D
:10009000542B4353434C4B3D310D0A0041542B43E9
:1000A0004E4D493D322C312C302C302C300D0A0075
:1000B00041542B434D47463D310D0A0041542B43DB
:1000C0004C43433D310D0A0041542B434C49503DB4
:1000D000310D0A004D4158434544440043455252B6
:1000E0000055504453554343004154410041542B63
:1000F000444445543D310D0A002B4350494E3A20AB
:100100004E4F542052454144590D0043616C6C20C0
:1001100052656164790D0041542B434D4744413D84
:100120002244454C20414C4C220D0A0041542B46A0
:10013000545050573D223132333435363738392216
:100140000D0A0041542B465450554E3D22726168B1
:10015000756C6E726174686F646B636C220D0A005B
:1001600041542B465450534552563D220041542B86
:100170004654504349443D310D0A002B46545053D8
:10018000495A453A20312C302C0041542B465450CA
:1001900053495A450D0A0041542B46545047455483
:1001A0000041542B53415042523D312C310D0A0035
:1001B00041504E222C220041542B53415042523D7B
:1001C000332C312C2200436F6E54797065222C221F
:1001D00047505253220D0A0041542B534150425272
:1001E0003D332C312C22004F4B203A2000524555F4
:1001F00050440050524753495A4500444300535518
:10020000500050524755504400564D52303200561F
:100210004D4D3031002A2A2A2A4D2B002E616D7255
:10022000222C302C3130302C310D0041542B4352D4
:1002300045433D342C22002B43434C4B3A20004194
:10024000542B435245433D350D0041542B43434C01
:100250004B3F0037303431313936393539000A4EA9
:100260006574776F726B3A000A426174253A002018
:100270004F46460A00204F4E0A00204F4E0A004DBE
:100280006F746F723A00204F46460A0020322050A9
:10029000484153450A004155544F4F464600415589
:1002A000544F4F4E004552524F52203A20004F4B70
:1002B000203A200041542B435553443D312C220019
:1002C00042414C004155544F54494D45004155540D
:1002D0004F54494D45005354415254494D450053E4
:1002E00054415254494D45005354414745005354DD
:1002F000414745004E4354494D450041542B43432B
:100300004C4B3D2231372F31302F33302C005345A9
:100310005454494D450054494D453A0047455454BD
:10032000494D45004E434F464600414D4F4646001D
:10033000414D4F4E0041542B4342430041542B4307
:10034000535100535441545553004F56464F46465F
:10035000004F56464F4E005245535000444E444FB6
:10036000464600444E444F4E004259504F464600C8
:100370004259504F4E004155544F4F46460041554B
:10038000544F4F4E00444944005245534554004E8B
:100390006F204E756D626572004E554D00444546A6
:1003A00041554C5400434C454152414C4C0057413F
:1003B00049540000000000240027002A000000002B
:1003C00000250028002B0000000000230026002943
:1003D00000040404040404040402020202020203EE
:1003E00003030303030102040810204080010204F8
:1003F000081020010204081020000000080002017B
:100400000000030407000000000000000039353838
:1004100036313335393738003733383336323236C0
:1004200037380037333833363134323134003736E9
:1004300039383433393230310037303431313936AC
:100440003935390037303431313936393539004EA4
:100450004F20414E535745520D00425553590D0000
:100460004E4F20434152524945520D002B434C43BD
:10047000433A20312C302C0041542B434855500036
:10048000222C320041542B5654533D22002B534111
:100490005042523A20312C0041542B534150425289
:1004A0003D302C310D0A0041542B434F50533D3207
:1004B0000D0A00415426570D0A0041542B43534363
:1004C0004C4B3D300D0A0041542B434357413D30C6
:1004D0002C300D0A0049443A0041542B4346554EF6
:1004E0003D312C310D0A0041542B43424300E2348C
:1004F000833411241FBECFEFD8E0DEBFCDBF23E091
:10050000A8E0B2E001C01D92AD37B207E1F712E0FA
:10051000A0E0B1E0E8E6F3E702C005900D92A83054
:10052000B107D9F712E0C8E7D2E004C02197FE0175
:100530000E944537C737D107C9F70E94DC2B0C94BE
:10054000A7390C9452144F925F926F927F928F92C0
:100550009F92AF92BF92CF92DF92EF92FF920F9352
:100560001F93CF93DF93CDB7DEB7A5970FB6F8945F
:10057000DEBF0FBECDBF809154038823B1F00E942F
:10058000C2200091550310915603209157033091DA
:100590005803DC01CB01801B910BA20BB30B813DF7
:1005A0009740A105B10508F007C68091370388235D
:1005B00071F10E94C22000913A0310913B032091F7
:1005C0003C0330913D03AB01BC01401B510B620B5E
:1005D000730B2091380330913903E4E6E29FC001A8
:1005E000E39F900D1124A0E0B0E0481759076A0777
:1005F0007B0768F0E0912303F091240387A5811124
:1006000006C060E084E00E9456201092370380917B
:100610003E038E3409F052C080913F038E3409F0BE
:100620009FC080914C03811116C00E94C22000918E
:100630004D0310914E0320914F0330915003DC0184
:10064000CB01801B910BA20BB30B893E9340A105FC
:10065000B10508F0B4C580914303882309F480C034
:10066000E0912103F0912203128980914C038823A9
:1006700009F476C080914203813009F4A4C50E9438
:10068000C220C0904403D0904503E0904603F09010
:1006900047039B01AC012C193D094E095F09690113
:1006A0007A01212F30E0A0E6BAEE0E9436376C15B1
:1006B0007D058E059F0508F486C552C0893419F062
:1006C000823509F04DC00E94C22000913103109183
:1006D00032032091330330913403AB01BC01401B42
:1006E000510B620B730B20912F0330913003E4E622
:1006F000E29FC001E39F900D1124A0E0B0E04817F5
:1007000059076A077B0740F0809149038DA30E9437
:1007100049238DA10E94B92580912C03882301F1E2
:100720000E94C220E0912703009128031091290321
:1007300020912A0330912B03AB01BC01401B510BCC
:10074000620B730B34E6E39FC0011124092E000CE9
:10075000AA0BBB0B84179507A607B70708F44DC56E
:100760008FE4C82E92E5B92E29E4D22E8091510350
:1007700090915203DC01ED91FC910084F185E02D14
:1007800009951816190614F00C94050C61E273E033
:10079000CE014F960E949D100BA1015062E271E0C4
:1007A000CE0101960E946F1F26E0AE014F5F5F4FA2
:1007B000BE01615E7F4F81E293E00E94820F182F9D
:1007C000CE0101960E94581F112321F0809136031B
:1007D000811175C50BA1015069E271E0CE0101964E
:1007E0000E946F1F2CE0AE014F5F5F4FBE01615E44
:1007F0007F4F81E293E00E94820FE82ECE010196A6
:100800000E94581FEE2071F1BE01615E7F4FCE0144
:100810000D960E94661F60E371E0CE0107960E946C
:100820006F1FBE01635F7F4FCE0107960E94C21EFD
:10083000BE01695F7F4FCE0101960E94661F41E0B5
:10084000BE016F5F7F4F81E293E00E94E010CE0116
:1008500001960E94581FCE0107960E94581FCE0194
:100860000D96BFC269E371E0CE0101960E946F1F31
:1008700002E228E1AE014F5F5F4FBE01615E7F4F34
:1008800081E293E00E94820F982ECE0101960E9491
:10089000581FBE01615E7F4FCE01992009F461C2ED
:1008A00001960E94661FCE0101960E94E625F82E51
:1008B000CE0101960E94581FBE01615E7F4FCE019E
:1008C00001960E94661FBE016F5F7F4F80912103DA
:1008D000909122030E94DD0DA82ECE0101960E9468
:1008E000581FF11027C0BE01615E7F4FCE010196F7
:1008F0000E94661FBE016F5F7F4F80912103909120
:1009000022030E948E0D182F81110DC0A1100AC064
:10091000E0912103F091220311E08081882319F0F6
:1009200010E001C0192DCE0101960E94581F11231D
:1009300009F4AFC161E273E0CE0101960E949D10FF
:10094000BE016F5F7F4FCE014F960E941F1FCE01E9
:1009500001960E94581F0F8D18A10115110541F431
:10096000E0912103F09122038081882371F03AC045
:10097000F80180818823A1F3082E000C990B0E94B6
:100980004F39D8018D938D01F3CFF1102BC065E164
:1009900072E0CE0101960E945D1FBE016F5F7F4F26
:1009A000CE014F960E94D31D182FCE0101960E94B2
:1009B000581F112309F417C22BA13CA144E050E0B9
:1009C000BE01615E7F4FCE0101960E94841FBE0171
:1009D0006F5F7F4FCE014F960E941F1FCE01019681
:1009E0000E94581F60E471E0CE0101960E946F1FC3
:1009F000BE016F5F7F4FCE014F960E94D31D182F0F
:100A0000CE0101960E94581F1123C1F02BA13CA1D9
:100A100041E050E0BE01615E7F4FCE0101960E9431
:100A2000841FBE016F5F7F4FCE014F960E941F1F34
:100A3000CE0101960E94581F11E001C010E0BE01D6
:100A4000615E7F4FCE01FF2009F418C149960E94D4
:100A5000661F81E0809335030D8D015062E072E0E6
:100A6000CE0101960E945D1F26E0AE014F5F5F4FF1
:100A7000BE01675E7F4F81E293E00E94820FF82EF5
:100A8000CE0101960E94581FFF2009F4B0C080914A
:100A90003E038E3411F40E944923111110C06EEFF1
:100AA00071E0CE0101960E945D1F40E061E0CE0141
:100AB00001960E949124CE0101960E94581F898CB4
:100AC0009A8C8114910429F40E94FD2981110BC490
:100AD0000DC0F40180818823B9F3082E000C990B16
:100AE0000E944739D4018D934D01F3CF62E471E048
:100AF000CE010D960E946F1F68ED71E0CE01079642
:100B00000E945D1F66EC71E0CE0107960E943F1EB9
:100B1000BE01695F7F4FCE0101960E94661FCE0124
:100B200001960E94852A082FCE0101960E94581F27
:100B3000011102C000E042C067EB71E0CE010796F0
:100B40000E94C91E60EB71E0CE0107960E943F1E15
:100B5000BE01635F7F4FCE0107960E94C21E6EE505
:100B600071E0CE0107960E94B31EBE01695F7F4F00
:100B7000CE0101960E94661FCE0101960E94852A31
:100B8000082FCE0101960E94581F002399F261EAB6
:100B900071E0CE0101960E945D1F61E0CE010196D9
:100BA0000E948C26082FCE0101960E94581F002318
:100BB00009F264E181E293E00E94570FCE010796AB
:100BC0000E94581FCE010D960E94581F002309F461
:100BD00080C50CE0015009F47CC562E381E293E03A
:100BE0000E94570F0E94FD298823A1F37CC30D8D1D
:100BF000015063EF71E0CE0101960E945D1F27E076
:100C0000AE014F5F5F4FBE01675E7F4F81E293E0B1
:100C10000E94820F082FCE0101960E94581F0111D9
:100C20008EC50D8D01506DEE71E0CE0101960E94D2
:100C30005D1F25E0AE014F5F5F4FBE01675E7F4FD6
:100C400081E293E00E94820FF82ECE0101960E946D
:100C5000581FF11076C510923503CE0149960E94B7
:100C6000581FF11070C0BE01615E7F4FCE0101962A
:100C70000E94661F2A2D412F61E006C001960E9446
:100C8000661F2A2D412F60E0CE0101960E9480143C
:100C900056C0BE01615E7F4FCE0101960E94661F65
:100CA000BE016F5F7F4F80912103909122030E94CC
:100CB000E40D182FCE0101960E94581F112309F44C
:100CC00042C061E273E0CE0101960E949D10BE0118
:100CD0006F5F7F4FCE014F960E941F1FCE0101967E
:100CE0000E94581F6FE072E0CE0101960E945D1FC6
:100CF000BE016F5F7F4FCE014F960E94D31D182F0C
:100D0000CE0101960E94581F1123E9F0E0912103C2
:100D1000F091220381E08483BF016C5F7F4F8CE5FB
:100D200090E00E94DB2169E072E0CE0101960E9412
:100D30005D1F42E061E0CE0101960E949124CE0148
:100D400001960E94581F67E171E0CE0101960E9452
:100D50005D1F60E0CE0101960E948C26CE010196B7
:100D600040C007960E94661F6BE071E0CE010196BD
:100D70000E945D1FBE016F5F7F4FCE0107960E94EC
:100D80000D1E182FCE0101960E94581FCE01079606
:100D90000E94581F112321F081E08093530323C048
:100DA000BE01615E7F4FCE0107960E94661F69EF0C
:100DB00070E0CE0101960E945D1FBE016F5F7F4F04
:100DC000CE0107960E940D1E182FCE0101960E949B
:100DD000581F112321F00E9449230E94F52ACE01B9
:100DE00007960E94581F90914A0380913E039111EB
:100DF00012C18E3419F0823509F093C190913F03EE
:100E00009E3419F0993409F0F3C0BE01615E7F4F42
:100E1000CE0101960E94661F65E671E0CE01019643
:100E20000E94EE1D182FCE0101960E94581F11231B
:100E300009F4C8C081E080932E03B0923E03D092A3
:100E40003F03809140038F5F80934003853008F01B
:100E500071C08130E9F46DEE70E0CE0101960E9420
:100E60005D1F40E0BE016F5F7F4F81E293E00E9413
:100E7000E010CE0101960E94581F8091510390917D
:100E80005203DC01ED91FC910680F781E02D09957C
:100E900061E671E0CE010D960E946F1F61E273E082
:100EA000CE0101960E949D10BE016F5F7F4FCE0163
:100EB0000D960E941F1FCE0101960E94581F6BE6DF
:100EC00071E0CE0101960E946F1F05E12BE0AE019B
:100ED0004F5F5F4FBE01635F7F4F81E293E00E94EF
:100EE000820F182FCE0101960E94581F1123B1F2D4
:100EF0000E94C220609331037093320380933303C6
:100F00009093340389899A890A9778F0CE010D96D7
:100F10000E946726882349F080914003823028F0A0
:100F200080912503882309F443C4CE010D960E94C5
:100F3000581F06C080912503811102C00E944923D9
:100F400080912503882309F432C10E94C220609356
:100F500031037093320380933303909334031092E0
:100F6000250381E0809341038091510390915203C6
:100F7000DC01ED91FC910680F781E02D099569EE89
:100F800070E0CE0101960E945D1F41E0BE016F5FDF
:100F90007F4F81E293E00E94E010CE0101960E9413
:100FA000581F8091510390915203DC01ED91FC9107
:100FB0000680F781E02D0995D0923E03D0923F0341
:100FC0006DE4AAC0BE01615E7F4FCE0101960E9412
:100FD000661FCE0101960E943524182FCE0101967E
:100FE0000E94581F112309F4E2C00E944923DFC068
:100FF000893489F490913F03993469F4BE01615EAC
:101000007F4FCE0101960E94661FCE0101960E947D
:101010003524182FB1C08E3419F0823509F084C000
:1010200010913F031F3409F0C2C0BE01615E7F4FC3
:10103000CE0101960E94661FCE0101960E94E62312
:10104000082FCE0101960E94581F023579F40E94A4
:10105000C2206093310370933203809333039093E3
:10106000340300933E0310933F03A1C0BE01615EB1
:101070007F4FCE0101960E94661FCE0101960E940D
:101080003524182F811113C0BE01615E7F4FCE0140
:1010900007960E94661FCE0107960E94E62311E084
:1010A000853409F010E0CE0107960E94581FCE014A
:1010B00001960E94581F112349F0809149038DA386
:1010C0000E9449238DA10E94B92571C0BE01615EB5
:1010D0007F4FCE0101960E94661FCE0101960E94AD
:1010E000E623182FCE0101960E94581F193409F0EB
:1010F0005EC00E94C22060933103709332038093DC
:1011000033039093340310933E03C0923F0381E076
:10111000809341036091490381E293E00E94EB27B1
:1011200046C0893409F466CF893409F040C0809103
:101130003F038F34E1F5BE01615E7F4FCE01019622
:101140000E94661FCE0101960E943524182F81113E
:1011500013C0BE01615E7F4FCE0107960E94661FDD
:10116000CE0107960E94E62311E0853409F010E0D5
:10117000CE0107960E94581FCE0101960E94581F6B
:10118000111133CFCE014F960E941A23882379F094
:10119000BE01615E7F4FCE0101960E94661FCE01A7
:1011A00001960E942522CE0101960E94581FCE0171
:1011B0004F960E94581FDACA10925403F6C981E074
:1011C00080934C0348CA809148038093490310924E
:1011D0004303E0912103F0912203818D8E3409F4C1
:1011E000BFCA81E080934A0381E293E00E947C10B1
:1011F00081E293E00E944C11B3CA80915103909117
:101200005203DC01ED91FC910680F781E02D0995F8
:101210006BE272E0CE0101960E945D1F40E0BE01CC
:101220006F5F7F4F81E293E00E94E010CE01019654
:101230000E94581F64E771E0CE0101960E946F1F63
:1012400040E0BE016F5F7F4F81E293E00E94E010BB
:10125000CE0101960E94581F60912D0381E293E018
:101260006DA30E947C108091510390915203DC0188
:10127000ED91FC910190F081E02D6DA109956CE15B
:1012800072E0CE0101960E945D1F41E0BE016F5FDA
:101290007F4F81E293E00E94E010CE0101960E9410
:1012A000581F8091510390915203DC01ED91FC9104
:1012B0000680F781E02D099510922C0351CABE01DA
:1012C000615E7F4FCE0101960E94661F40E061E0A3
:1012D000CE0101960E949124CE0101960E94581FD2
:1012E0001092360377CABE01675E7F4FCE010D961E
:1012F0000E94661F6DE671E0CE0101960E945D1F9F
:1013000061E0CE0101960E948C26082FCE01019645
:101310000E94581F002309F454C060E671E0CE011A
:1013200007960E945D1FBE01635F7F4FCE01079647
:101330000E94C21E6EE571E0CE0107960E94B31EA8
:10134000BE01695F7F4FCE0101960E94661F61E07A
:10135000CE0101960E948C26082FCE0101960E9494
:10136000581F002349F163E471E0CE0101960E9409
:101370005D1F61E0CE0101960E948C26082FCE01F0
:1013800001960E94581F0023B9F06CE271E0CE0173
:1013900001960E945D1F61E0CE0101960E948C269D
:1013A000082FCE0101960E94581F002329F0CE017C
:1013B00007960E94581F05C0CE0107960E94581F2D
:1013C00000E0CE010D960E94581F002309F481C150
:1013D0006AE471E0CE0143960E946F1F67E971E0F5
:1013E000CE010D960E945D1FBE01635F7F4FCE014F
:1013F00007960E94661F60E571E0CE0107960E9485
:10140000B31EBE016D5E7F4FCE0107960E94C21EC5
:101410006EE571E0CE0107960E94B31EBE01695FC2
:101420007F4FCE0101960E94661F61E0CE010196BA
:101430000E948C26982ECE0101960E94581F99205A
:10144000E9F0BE01635F7F4FCE0107960E94081F3F
:1014500067E571E0CE0107960E94B31EBE01695F89
:101460007F4FCE0101960E94661F60E0CE0101967B
:101470000E948C26CE0101960E94581FCE0107962D
:101480000E94581FCE010D960E94581FCE01439610
:101490000E94581F992009F41CC1E0912103F0918A
:1014A00022038285811164C00E94C2202B013C016D
:1014B0006AE871E0CE0101960E945D1F40E0BE0126
:1014C0006F5F7F4F81E293E00E94E010CE010196B2
:1014D0000E94581F0E94C220DC01CB01841995098B
:1014E000A609B709803C944DA140B10508F0F1C0B0
:1014F0008091510390915203DC01ED91FC910084A5
:10150000F185E02D0995892B29F3609151037091A4
:101510005203CE0107960E945B270B8501506BE7B3
:1015200071E0CE0101960E945D1F2EE0AE014F5F7B
:101530005F4FBE01695F7F4F81E293E00E94820F9F
:10154000082FCE0101960E94581FCE010796002356
:1015500009F4BECF0E94691DAB01BC01809121033B
:10156000909122030E94BB0ECE0107960E94581F45
:10157000E0912103F09122034680578060847184BA
:1015800061E871E0CE0143960E946F1FBE016D5E5F
:101590007F4FCE010D960E94661F6DE871E0CE016F
:1015A0000D960E94B31EB301A201CE010D960E94BA
:1015B0006F1E69E671E0CE010D960E94B31E62E9CE
:1015C00071E0CE0107960E946F1FBE016D5E7F4FD6
:1015D000CE0107960E94C21E65E971E0CE01079612
:1015E0000E94B31E0E94C2202B013C01BE01695F14
:1015F0007F4FCE0101960E94661F40E0BE016F5FE3
:101600007F4F81E293E00E94E010CE0101960E949C
:10161000581F0E94C220DC01CB0184199509A6093C
:10162000B709803C944DA140B10550F5809151031C
:1016300090915203DC01ED91FC910084F185E02D45
:101640000995892B31F36091510370915203CE01BA
:1016500001960E945B27BE016F5F7F4FCE01079608
:101660000E941F1FCE0101960E94581FBE01635F9A
:101670007F4FCE0107960E940D1E882351F2E92C60
:10168000CE0107960E94581FCE010D960E94581F4A
:10169000CE0143960E94581FEE20D9F081E080933E
:1016A0003503111110C06BEF71E0CE0101960E945D
:1016B0005D1F40E061E0CE0101960E949124CE01C1
:1016C00001960E94581F0E94DA290E947A29FE2C56
:1016D000C4CA0E94DA29E0912103F0912203128604
:1016E0001982BE016F5F7F4F84E893E00E94DB2187
:1016F0001A821982BE016F5F7F4F84E993E00E94D6
:10170000532901E00983BE016F5F7F4F80E993E0B9
:101710000E94DB210093350311119FCA62E671E03C
:10172000CE0101960E946F1F40E061E0CE0101965C
:101730000E949124CE0101960E94581F8ECA01E09A
:1017400001C002E0CE0149960E94691DAB01BC01B7
:1017500080912103909122030E94BB0E67EE71E0FD
:10176000CE0107960E945D1FBE01675E7F4FCE01CE
:1017700007960E94C21E111111C0BE01695F7F4F02
:10178000CE0101960E94661F40E061E0CE01019605
:101790000E949124CE0101960E94581F023011F43C
:1017A0000E947A29CE0107960E94581FF92C55CA2B
:1017B000BE01635F7F4FCE0107960E94661FBE0188
:1017C000695F7F4FCE0101960E94661FCE01019690
:1017D0000E94E625182F81110DC0BE01695F7F4F61
:1017E00080912103909122030E94160E11E08F3FF9
:1017F00009F410E0CE0101960E94581F10932503B2
:10180000CE0107960E94581F90CBA5960FB6F8946C
:10181000DEBF0FBECDBFDF91CF911F910F91FF9023
:10182000EF90DF90CF90BF90AF909F908F907F9080
:101830006F905F904F90089581E0809381020895AA
:101840000E94C220E1E2F3E064AB75AB86AB97ABDC
:1018500081E083AB0895FB0184819581409770F00E
:10186000CB0160E070E00E94C21D282F880F330B6F
:101870002053310981E02A30310508F080E00895D5
:101880006F927F928F929F92AF92BF92CF92DF9290
:10189000EF92FF920F931F93CF93DF93CDB7DEB7F5
:1018A0006C013A01ADB6BEB6822F90E001964DB7FD
:1018B0005EB7481B590B0FB6F8945EBF0FBE4DBF05
:1018C0008DB79EB701964C01611494E0790650F5EE
:1018D000FF24F394F20E31F1E1E0FE1202C0F401B4
:1018E00020C0C3010E94E936F4018083EE24E39412
:1018F0008823C1F00E2D10E0EF1478F4C801860D96
:10190000971D8115F4E09F0740F40E94E936F40129
:10191000E00FF11F8083E394EBCF080D191DF80150
:1019200031971082B401C6010E946F1FC6010FB625
:10193000F894BEBE0FBEADBEDF91CF911F910F9147
:10194000FF90EF90DF90CF90BF90AF909F908F90DF
:101950007F906F9008958F929F92AF92BF92CF9297
:10196000DF92EF92FF920F931F93CF93DF93CDB748
:10197000DEB76B01ADB6BEB6FA01E480F580C701F3
:1019800001962DB73EB7281B390B0FB6F8943EBF12
:101990000FBE2DBF0DB71EB70F5F1F4F892B99F0DC
:1019A0000115110581F0E114F10411F4F8010AC0E8
:1019B000FA0160817181A701C8010E947E39F80196
:1019C000EE0DFF1D1082F80101900020E9F731971C
:1019D000E01BF10BC11424E0D206D8F4FF24F394E9
:1019E000FE0EC6018F0D911D8115944090F44801A3
:1019F000C01AD10A882D801B8F1548F4C601880DA6
:101A0000991DF40161914F010E94F136F3CF81E0FD
:101A100001C080E00FB6F894BEBE0FBEADBEDF9130
:101A2000CF911F910F91FF90EF90DF90CF90BF90DB
:101A3000AF909F908F900895CF92DF92EF920F9387
:101A4000CF93DF9300D0CDB7DEB76C01FC01618B83
:101A5000BC016F5E7F4F86E990E02A8349830E9434
:101A6000DB21F60181892A814981882341F145875B
:101A700026870787E08AB601635F7F4F88E990E099
:101A80000E94DB21B601625F7F4F8AE990E00E94ED
:101A9000DB21B601615F7F4F8CE990E00E94DB2182
:101AA000B601605F7F4F8EE990E00F900F90DF915D
:101AB000CF910F91EF90DF90CF900C94DB210F909E
:101AC0000F90DF91CF910F91EF90DF90CF9008951D
:101AD000FC016387BC01655F7F4F80E090E00C9460
:101AE000DB21CF93DF93EC01FB018081882369F038
:101AF0008181882319F04EE150E002C040E351E0BB
:101B00002AE0CE010E94400C05C063E572E0CE01E0
:101B10000E945D1FCE01DF91CF910895DF92EF9279
:101B2000FF920F931F93CF93DF9300D000D000D08C
:101B3000CDB7DEB7FC012081222369F17B018C0146
:101B40002AE040E351E0BC01CE0101960E94400C26
:101B5000B701CE0101960E940D1ED82ECE0101962E
:101B60000E94581FD11019C0B701CE0101960E94E2
:101B7000661FF8018081882341F0BE016F5F7F4FAF
:101B8000C8010E94F321182F01C010E0CE01019678
:101B90000E94581F03C010E001C011E0812F26965B
:101BA0000FB6F894DEBF0FBECDBFDF91CF911F916E
:101BB0000F91FF90EF90DF900895FC01208121119B
:101BC0000C94F32180E008950F931F93CF93DF933C
:101BD00000D000D000D0CDB7DEB7FC0183818823D0
:101BE000C1F08B01BF012AE040E650E0CE01019632
:101BF0000E94400CBE016F5F7F4FC8010E940D1E06
:101C000011E0811101C010E0CE0101960E94581F21
:101C100001C010E0812F26960FB6F894DEBF0FBEEC
:101C2000CDBFDF91CF911F910F910895CF92DF9299
:101C3000EF92FF920F931F93CF93DF9300D000D0CA
:101C400000D0CDB7DEB77C016B01FC018081811132
:101C500006C0F7018481882309F443C030C0CE0157
:101C600001960E94661FBE016F5F7F4FC7010E94F1
:101C70008E0D182FCE0101960E94581F111133C0EE
:101C800011E0F7018081181720F7FBE01F9FA001EA
:101C90001124405D5E4F2AE0B701CE0101960E94FB
:101CA000400CB601CE0101960E940D1E082FCE01F8
:101CB00001960E94581F011118C01F5FE2CFB601A4
:101CC000CE0101960E94661FBE016F5F7F4FC70164
:101CD0000E94E40D182FCE0101960E94581F111189
:101CE00006C08FEF05C080E003C0812F01C08EEFDA
:101CF00026960FB6F894DEBF0FBECDBFDF91CF9111
:101D00001F910F91FF90EF90DF90CF900895EF9289
:101D1000FF920F931F93CF93DF931F92CDB7DEB740
:101D20007C01FC0100811181C80169830E94E936B0
:101D30006981681719F0C8010E94F136C7010F9038
:101D4000DF91CF911F910F91FF90EF900895CF9366
:101D5000DF9300D0CDB7DEB7FC01618F8EE090E05D
:101D60009A838983CE0101960E94870E0F900F906F
:101D7000DF91CF910895EF92FF920F931F93CF932E
:101D8000DF9300D0CDB7DEB721E0FC012287468388
:101D90005783608771878C010A5F1F4F88E8E82EA0
:101DA00083E0F82EF80161918F01FA82E982CE0179
:101DB00001960E94870EFFEFEF1AFF0A8CE8E816E3
:101DC00083E0F80679F70F900F90DF91CF911F9184
:101DD0000F91FF90EF900895CF92DF92EF92FF92D4
:101DE0000F931F93CF93DF93CDB7DEB72C970FB62A
:101DF000F894DEBF0FBECDBF6C017B018A016AE49F
:101E000072E0CE0101960E945D1F28EB3FE040E0AA
:101E100050E0BE016F5F7F4FC6010E947827882384
:101E200051F122E030E040E050E0BE016F5F7F4FB3
:101E3000CE0107960E94841FCE0107960E94691D5D
:101E4000F7016083CE0107960E94581F25E030E01D
:101E500043E050E0BE016F5F7F4FCE0107960E94C6
:101E6000841FCE0107960E94691DF8016083CE0190
:101E700007960E94581FCE0101960E94581F2C966B
:101E80000FB6F894DEBF0FBECDBFDF91CF911F918B
:101E90000F91FF90EF90DF90CF900895FC01258D7A
:101EA000293421F421E025830C94EB2708958F92A7
:101EB0009F92AF92BF92CF92DF92EF92FF92C62E87
:101EC0000E94C2204B015C0184E6C89E600111247F
:101ED0000D2C000CEE08FF080E94C220DC01CB0193
:101EE00088199909AA09BB098C159D05AE05BF057E
:101EF00098F3FF90EF90DF90CF90BF90AF909F90BE
:101F00008F900895EF92FF920F931F93CF93DF93DB
:101F100000D000D000D0CDB7DEB77B01122FBA01C0
:101F2000C7010E94D31D8823A9F0202F30E0412F44
:101F300050E0B701CE0101960E94841FBE016F5F81
:101F40007F4FC7010E941F1FCE0101960E94581F9C
:101F500081E001C080E026960FB6F894DEBF0FBE88
:101F6000CDBFDF91CF911F910F91FF90EF9008951A
:101F7000CF92DF92EF92FF920F931F93CF93DF9355
:101F800000D000D000D0CDB7DEB77C016B0167E395
:101F900072E0CE0101960E945D1F06E121E1AE01D3
:101FA0004F5F5F4FB601C7010E94820F182FCE010D
:101FB00001960E94581F812F26960FB6F894DEBF17
:101FC0000FBECDBFDF91CF911F910F91FF90EF908A
:101FD000DF90CF900895CF92DF92EF92FF920F9310
:101FE000CF93DF9300D000D000D0CDB7DEB76C0127
:101FF0007B01FB010481035062EA71E0CE0101968E
:102000000E946F1F25E0AE014F5F5F4FB701C60111
:102010000E94820F082FCE0101960E94581F802F28
:1020200026960FB6F894DEBF0FBECDBFDF91CF91DD
:102030000F91FF90EF90DF90CF9008958F929F9235
:10204000AF92BF92CF92DF92EF92FF920F93CF9316
:10205000DF93CDB7DEB72C970FB6F894DEBF0FBE77
:10206000CDBF5C016B01FB010481015060E971E0AF
:10207000CE0107960E946F1FF60184819581892BFE
:1020800069F0808091806F817885C4010E948D39CC
:10209000009721F07C01E818F90803C0EE24EA94C7
:1020A000FE2C67EA71E0CE0101960E946F1F21E0CD
:1020B0002E0DAE014F5F5F4FB601C5010E94820F2A
:1020C000082FCE0101960E94581FCE0107960E944C
:1020D000581F802F2C960FB6F894DEBF0FBECDBFD1
:1020E000DF91CF910F91FF90EF90DF90CF90BF9055
:1020F000AF909F908F900895CF93DF93EC018E89DE
:10210000811112C061E084E00E94562081E08E8B34
:102110000E94C220698F7A8F8B8F9C8F61E0CE01E5
:10212000DF91CF910C94570F0E94C220698F7A8F54
:102130008B8F9C8FDF91CF910895EF92FF920F9339
:102140001F93CF93DF9300D000D000D0CDB7DEB780
:102150008C017B0161E671E00E946F1FD701D09670
:102160008D919C91D197DC01ED91FC910084F185DA
:10217000E02D099518161906ACF4C7010E947C10D1
:10218000F70160A971A9CE0101967C010E945B272D
:102190000E151F0521F0B701C8010E941F1FC701BE
:1021A0000E94581FC80126960FB6F894DEBF0FBED6
:1021B000CDBFDF91CF911F910F91FF90EF900895C8
:1021C000FF920F931F93CF93DF93EC018B01F42EBB
:1021D0000E947C1061E671E0C8010E94EE1D08A813
:1021E000D9A9C02D811114C0F801448155816081A5
:1021F0007181E881F9810280F381E02DCE01F11037
:1022000006C0DF91CF911F910F91FF90099409951E
:10221000CE01DF91CF911F910F91FF900C94CA1FB7
:102220000F931F93CF93DF9300D000D000D0CDB792
:10223000DEB78C01DC01D0968D919C91D197DC01A9
:10224000ED91FC910680F781E02D09956FE372E036
:10225000CE0101960E945D1F41E0BE016F5F7F4F7E
:10226000C8010E94E010CE0101960E94581FF8019B
:1022700080A991A9DC01ED91FC910680F781E02D08
:10228000099526960FB6F894DEBF0FBECDBFDF913D
:10229000CF911F910F910895CF92DF92FF920F93EC
:1022A0001F93CF93DF93CDB7DEB762970FB6F89445
:1022B000DEBF0FBECDBF8C0181E0D8011D968C938F
:1022C000C8010E947C10F80180A991A9DC01ED9160
:1022D000FC910680F781E02D09956DEA71E0CE0151
:1022E00007960E946F1FF801F1A0C080D180FF20E7
:1022F00059F161E671E0CE010D960E946F1FD60183
:102300008C91F816B8F4BBE0FB9EA0011124405D4F
:102310005E4F2AE0B601CE0101960E94400CBE013C
:102320006F5F7F4FCE010D960E941F1FCE01019659
:102330000E94581FBE01635F7F4FCE0107960E9427
:10234000C21ECE010D960EC0B601CE0101960E94AE
:10235000710DBE016F5F7F4FCE0107960E94C21EB6
:10236000CE0101960E94581F6BE3CE0107960E9492
:10237000A01EBE01695F7F4FCE0101960E94661FBD
:1023800041E0BE016F5F7F4FC8010E94E010CE01A7
:1023900001960E94581F61E0C8010E94570F61E634
:1023A00071E0CE0101960E946F1F41E0BE016F5F98
:1023B0007F4FC8010E94E010CE0101960E94581F75
:1023C0000E94C220F801608B718B828B938B82E517
:1023D000858F8FE4868FCE0107960E94581F6296E4
:1023E0000FB6F894DEBF0FBECDBFDF91CF911F9126
:1023F0000F91FF90DF90CF900895EF92FF920F938F
:102400001F93CF93DF9300D0CDB7DEB7FC01A0813F
:10241000B1818C91811103C0FF24F3947CC0599643
:102420008C9159978E34C1F382A98823A9F382A194
:10243000811103C090A5961779F3958D9E3409F00C
:1024400044C0968D9E3409F040C0F3A4FF2009F4E7
:1024500062C081113AC0E62E8F0151968C9188237B
:10246000B1F1AE014F5F5F4FBE016E5F7F4FCF0195
:102470000E94EC0E8A81D801ED91FC91258582178E
:1024800030F19785981718F1291309C0898196852D
:102490008917E8F09089981708F0BECF18C082130A
:1024A00006C099818685981708F0B6CF10C08913A9
:1024B00006C099818089891708F0AECF08C0281717
:1024C00030F4891708F4A8CF02C0F12C24C0F80119
:1024D00011A20190F081E02D8289882359F00E9499
:1024E000C220F80163A374A385A396A3E7A281E0A9
:1024F00082A311C0D8019896EC929897818D8E3462
:1025000009F48ACF81E099968C93C8010E947C10CF
:10251000C8010E944C118F2D0F900F90DF91CF9129
:102520001F910F91FF90EF9008950C94003C089537
:1025300061E081E10C9456200F931F93CF93DF93BA
:10254000EC0141110EC08EA581110BC0662319F15B
:1025500062E38A819B81DF91CF911F910F910C944F
:102560004E0F022F162F1DAA61E08DE00E9456200B
:102570000E94C220FE01ED5BFF4F60837183828366
:102580009383319781E080831EA660E080E10E9402
:1025900056201AA70CA7DF91CF911F910F91089594
:1025A000FC01A081B1811C968C9195A5882321F016
:1025B000992321F087A50895892F089581E0089532
:1025C0001F93CF93DF93EC011FA5112331F00E94DD
:1025D000D012882311F081E00BC0CE010E94D012EE
:1025E000882321F0111104C084E002C082E000C001
:1025F000DF91CF911F910895CF93DF93FC0126A522
:10260000211110C0EC010E94D012882359F08FA52F
:10261000882341F081E088AB0E94C22069AB7AAB8D
:102620008BAB9CABDF91CF9108951F93CF93DF933A
:10263000EC01162FE881F981838581110CC08EA5EC
:1026400081111EC08FA58823D9F061E08DE00E9422
:10265000562018AA15C0FE01EE5BFF4F8081811144
:102660000FC08FA5882361F060E08DE00E945620A6
:10267000112331F0CE01DF91CF911F910C94FC1208
:10268000DF91CF911F910895EF92FF920F931F93C7
:10269000CF93DF937B018A01E901F8948AE00E94DD
:1026A0002D2031E0892B09F430E0F70130838BE0F5
:1026B0000E942D2031E0892B09F030E0F8013083B1
:1026C00083E00E942D2031E0892B09F430E038832B
:1026D0007894DF91CF911F910F91FF90EF90089523
:1026E0000F931F93CF93DF9300D01F92CDB7DEB728
:1026F0008C019E012F5F3F4FAE014E5F5F4FBE01C9
:102700006D5F7F4F0E9444139A81F80196A7992329
:1027100011F061E001C060E080E10E9456208A81F2
:102720000F900F900F90DF91CF911F910F9108950F
:102730000F931F93CF93DF93F89486E00E942D2090
:102740008C0187E00E942D20EC0185E00E942D2065
:102750007894012B31F4CD2B31F4892B31F483E0C3
:1027600005C080E003C081E001C082E0DF91CF912D
:102770001F910F910895CF93DF93F89483E10E9406
:102780002D20EC0182E10E942D207894CD2B21F4A4
:10279000892B21F482E003C080E001C081E0DF9159
:1027A000CF9108951F93CF93DF93EC01162F18AAB2
:1027B0008FA5882329F0CE010E94D01281110FC06D
:1027C0008A819B81112331F06EE4DF91CF911F91BB
:1027D0000C944E0F6EE40E94FD118C833DC08EA5BB
:1027E000811134C0CE010E949813811106C08A81E4
:1027F0009B81112379F364E5E8CFCE010E94BB13DE
:10280000823049F48A819B8166E51111DECF0E94F6
:10281000FD118D8B21C060E08DE00E94562060E0AC
:102820008CE00E9456200E9498120E94C220FE0155
:10283000FD96608371838283938381E08BAF8EA743
:1028400061E080E10E9456201BA706C0112321F001
:1028500061E38A819B81B9CFDF91CF911F91089568
:102860001F920F920FB60F9211248F939F9391E0B6
:1028700090930802809120028F5F809320028091C4
:1028800020028E3240F080915902811102C0909353
:102890000902109220029F918F910F900FBE0F900E
:1028A0001F9018951F920F920FB60F9211240F9040
:1028B0000FBE0F901F9018951F920F920FB60F9298
:1028C00011248F9381E0809381028F910F900FBE2E
:1028D0000F901F9018951F920F920FB60F92112410
:1028E0008F9381E0809382028F910F900FBE0F90A3
:1028F0001F901895E0E6F0E098E1908380830895BA
:10290000AF92BF92DF92EF92FF920F931F93CF93FC
:10291000DF93CDB7DEB764970FB6F894DEBF0FBE76
:10292000CDBF7C01062FD42E122F60933503BC013E
:10293000CE010D960E94661F6EEA73E0CE010196ED
:102940000E945D1FBE016F5F7F4FC7010E94D31DB4
:10295000B82ECE0101960E94581FBB2019F00E948C
:102960005C2BB5C665EA73E0CE0101960E945D1F3F
:10297000BE016F5F7F4FC7010E94D31DB82ECE01ED
:1029800001960E94581FBB2011F1E0902103F090A6
:102990002203002319F0F701108203C081E0F70140
:1029A0008083B7018CE291E00E94DB21F701118264
:1029B000B7016F5F7F4F8AE190E00E94DB21F70152
:1029C0001282B7016E5F7F4F86E190E07EC66DE9AF
:1029D00073E0CE0101960E945D1FBE016F5F7F4FC5
:1029E000C7010E94D31DB82ECE0101960E94581F28
:1029F000BB2009F45DC060E0809121039091220327
:102A00000E94680DE0912103F0912203138ABF0117
:102A10006D5E7F4F82E390E00E94DB21E091210315
:102A2000F0912203128ABF016E5E7F4F8AE390E02D
:102A30000E94DB21E0912103F09122031486BF0163
:102A4000645F7F4F86E390E00E94DB21E0912103E9
:102A5000F0912203108EBF01685E7F4F8CE090E002
:102A60000E94DB2163E480912103909122030E9464
:102A7000A70EE0912103F091220382E390E0958B71
:102A8000848BBF016C5E7F4F84E090E00E94AA219E
:102A9000E0912103F091220382E090E0978B868BF6
:102AA000BF016A5E7F4F82E190E00E94AA210FC6BB
:102AB00069E973E0CE0101960E945D1FBE016F5F60
:102AC0007F4FC7010E94D31DB82ECE0101960E94F0
:102AD000581FBB20F1F1E0902103F090220361E642
:102AE00071E0CE0107960E946F1F10E0F701808110
:102AF0001817F8F4FBE01F9FA0011124405D5E4F02
:102B00002AE0B701CE0101960E94400CBE016F5F22
:102B10007F4FCE0107960E94C21ECE0101960E94F1
:102B2000581F60E671E0CE0107960E94B31E1F5F3A
:102B3000DDCF61E671E0CE0107960E94EE1D88238D
:102B400009F4DDC56FE873E0CE0107960E94C91E47
:102B5000D6C569E873E0CE0101960E945D1FBE01F3
:102B60006F5F7F4FC7010E94D31DB82ECE01019623
:102B70000E94581FBB2029F081E293E00E94951229
:102B8000E7C565E873E0CE0101960E945D1FBE01B6
:102B90006F5F7F4FC7010E94D31DB82ECE010196F3
:102BA0000E94581FBB2019F00E94142BBDC56EE770
:102BB00073E0CE0101960E945D1FBE016F5F7F4FE3
:102BC000C7010E94D31DB82ECE0101960E94581F46
:102BD000BB2011F061E014C066E773E0CE010196FE
:102BE0000E945D1FBE016F5F7F4FC7010E94D31D12
:102BF000B82ECE0101960E94581FBB2079F060E0EC
:102C000080912103909122030E94680D61E08091E0
:102C10002303909124030E94151359C560E773E0C4
:102C2000CE0101960E945D1FBE016F5F7F4FC701FD
:102C30000E94D31DB82ECE0101960E94581FBB20C2
:102C400039F0E0912103F091220381E0848718C0DC
:102C500069E673E0CE0101960E945D1FBE016F5FC1
:102C60007F4FC7010E94D31DB82ECE0101960E944E
:102C7000581FBB2059F0E0912103F09122031486E4
:102C8000BF01645F7F4F86E390E01FC563E673E09A
:102C9000CE0101960E945D1FBE016F5F7F4FC7018D
:102CA0000E94D31DB82ECE0101960E94581FBB2052
:102CB00039F0E0912103F091220381E0808F18C068
:102CC0006CE573E0CE0101960E945D1FBE016F5F4F
:102CD0007F4FC7010E94D31DB82ECE0101960E94DE
:102CE000581FBB2059F0E0912103F0912203108E70
:102CF000BF01685E7F4F8CE090E0E7C467E573E05A
:102D0000CE0101960E945D1FBE016F5F7F4FC7011C
:102D10000E94D31DB82ECE0101960E94581FBB20E1
:102D2000E1F0F70184819581059708F411C564E00D
:102D300070E0C7010E94C21D982F9D7F913429F039
:102D4000843519F08E3409F003C5682F8091210372
:102D5000909122030E94A70EBAC461E573E0CE01F0
:102D600001960E945D1FBE016F5F7F4FC7010E94E9
:102D7000D31DB82ECE0101960E94581FBB2039F0FA
:102D8000E0912103F091220381E0838B18C06AE473
:102D900073E0CE0101960E945D1FBE016F5F7F4F01
:102DA000C7010E94D31DB82ECE0101960E94581F64
:102DB000BB2059F0E0912103F0912203138ABF0157
:102DC0006D5E7F4F82E390E080C463E473E0CE01E8
:102DD00001960E945D1FBE016F5F7F4FC7010E9479
:102DE000D31DB82ECE0101960E94581FBB2009F4B6
:102DF000C0C06CE373E0C7010E94C91E2BEE3FE028
:102E000040E050E0B70181E293E00E9478278823F8
:102E100039F0C7010E94691D162F110F160F01C04E
:102E20001FEF65E081E293E00E94570F65E373E0D6
:102E3000C7010E94C91E2EE130E140E050E0B70119
:102E400081E293E00E947827882349F160E971E0EC
:102E5000CE0107960E946F1FF701448155818B8533
:102E60009C85481B590BBE01695F7F4FC7010E94BB
:102E7000741D9C0140E050E0B701CE0101960E9414
:102E8000841FCE0101960E94691D062FCE01019676
:102E90000E94581FCE0107960E94581F01C00FEFD5
:102EA000A0902303B0902403C5010E94E012F82EE5
:102EB000F501E6A46EE972E0CE0101960E945D1F65
:102EC000E0912103F09122038385811106C066E918
:102ED00072E0CE0101960E94C91E64EB71E0CE0142
:102EE00001960E94B31EF1E0FF1631F082E0F81661
:102EF00031F066E872E005C06AE772E002C06CE893
:102F000072E0CE0101960E943F1E6FE772E0CE0193
:102F100001960E943F1EE11003C06FE672E002C0FE
:102F200065E772E0CE0101960E943F1E0F3F59F007
:102F300068E672E0CE0101960E943F1E602FCE012E
:102F400001960E94B7341F3F59F06EE572E0CE0142
:102F500001960E943F1E612FCE0101960E94B73458
:102F600040E061E0CE0101960E949124CE010196DD
:102F7000D9C360E373E0CE0101960E945D1FBE01DC
:102F80006F5F7F4FC7010E94D31D882321F000236C
:102F900019F011E001C010E0CE0101960E94581F07
:102FA000112359F0E0912103F091220382818823BB
:102FB00009F4CEC381E0818318C06AE273E0CE01D8
:102FC00001960E945D1FBE016F5F7F4FC7010E9487
:102FD000D31D182FCE0101960E94581F112359F0BE
:102FE000E0912103F09122031182BF016F5F7F4FB7
:102FF0008AE190E06AC364E273E0CE0101960E9428
:103000005D1FBE016F5F7F4FC7010E94D31D182F48
:10301000CE0101960E94581F112361F0E12C00E0BF
:1030200020E040E060E080912103909122030E9423
:103030001C0D4DC36CE173E0CE0101960E945D1F33
:10304000BE016F5F7F4FC7010E94D31D182FCE01B5
:1030500001960E94581F1123D9F0AE014D5E5F4FBB
:10306000BE016C5E7F4F81E293E00E94EC0E66E150
:1030700073E0CE0107960E945D1F6C89CE01079612
:103080000E94B7346B89CE0107960E94B73437C3CC
:103090006EE073E0CE0101960E945D1F0BE027E019
:1030A000AE014F5F5F4FB70181E293E00E94820F54
:1030B000182FCE0101960E94581F1123E9F16BEFE2
:1030C00072E0CE0107960E945D1F22E030E040E0F2
:1030D00050E0B701CE0101960E94841FBE016F5FD0
:1030E0007F4FCE0107960E94C21ECE0101960E941C
:1030F000581F67EB71E0CE0107960E94B31E24E0D3
:1031000030E042E050E0B701CE0101960E94841FFA
:10311000BE016F5F7F4FCE0107960E94C21ECE0197
:1031200001960E94581F69EB71E0CE0107960E943C
:10313000B31ECE01079682C264EF72E0CE01019603
:103140000E945D1F0FE026E0AE014F5F5F4FB701A9
:1031500081E293E00E94820F182FCE0101960E9417
:10316000581F112309F487C064E070E0C7010E9472
:10317000C21D8D3209F0ECC222E030E040E050E0A8
:10318000B701CE0107960E94841FCE0107960E94C8
:10319000691D162F24E030E042E050E0B701CE0177
:1031A00001960E94841FBE016F5F7F4FCE0107967C
:1031B0000E941F1FCE0101960E94581FCE01079644
:1031C0000E94691DB62E27E030E045E050E0B701CF
:1031D000CE0101960E94841FBE016F5F7F4FCE011A
:1031E00007960E941F1FCE0101960E94581FCE0114
:1031F00007960E94691D062F29E030E047E050E065
:10320000B701CE0101960E94841FBE016F5F7F4F00
:10321000CE0107960E941F1FCE0101960E94581FE3
:10322000CE0107960E94691D1831F8F4EBE3EB1507
:10323000E0F00831D0F46C33C0F480912103909118
:10324000220310130AC0B61208C0E12C00E020E0EF
:1032500040E060E00E941C0D08C0E62E2B2D412F9F
:1032600061E00E941C0D11E001C010E0CE01079644
:103270000E94581F2DC2F701048101506EEE72E0CA
:10328000CE0101960E945D1F25E0AE014F5F5F4FAA
:10329000B70181E293E00E94820F182FCE010196C0
:1032A0000E94581F1123F1F0C7010E94672688234E
:1032B00009F44EC2C7010E94691D8B016630710579
:1032C00010F005E010E0E0912103F0912203028B61
:1032D000BF016E5E7F4F8AE390E00E94DB2168EEC3
:1032E00072E07BC0F701048101506FED72E0CE0106
:1032F00001960E945D1F28E0AE014F5F5F4FB7014E
:1033000081E293E00E94820F182FCE0101960E9465
:10331000581F112329F1C7010E946726882309F449
:1033200017C2C7010E94691D8B016230710530F020
:10333000613B744028F000EB14E002C002E010E0B2
:10334000E0912103F0912203178B068BBF016A5E87
:103350007F4F82E190E00E94AA2166ED72E03DC0BD
:10336000F701048101506DEC72E0CE0101960E94DC
:103370005D1F28E0AE014F5F5F4FB70181E293E030
:103380000E94820F182FCE0101960E94581F112310
:1033900071F1C7010E946726882309F4D9C1C701CA
:1033A0000E94691D8B016233710530F061387047EE
:1033B00028F000E810E702C002E310E0E0912103EA
:1033C000F0912203158B048BBF016C5E7F4F84E06C
:1033D00090E00E94AA2164EC72E0CE010D960E945A
:1033E000C91EB801CE010D960E94873470C1F70145
:1033F0000481015060EC72E0CE0101960E945D1FD5
:1034000023E0AE014F5F5F4FB70181E293E00E947E
:10341000820F182FCE0101960E94581F112321F10F
:1034200064EB72E0CE0107960E945D1FB701CE01EA
:1034300007960E94C21E62E771E0CE0107960E94C5
:10344000B31E81E080933603BE01695F7F4FCE01DA
:1034500001960E94661F41E0BE016F5F7F4F81E2CF
:1034600093E00E94E01058C160EC71E0CE0101963B
:103470000E946F1F0CE022E0AE014F5F5F4FB7016B
:1034800081E293E00E94820F182FCE0101960E94E4
:10349000581F112309F448C0C7010E9467268823DA
:1034A00009F456C10091210310912203F801808193
:1034B000823008F44DC1B701C8010E94160EF82EE3
:1034C0008FEF8F0D8D3F08F043C18BE0E82E2F2D3D
:1034D00030E0F8019081492F50E041505109241704
:1034E0003507FCF42F5F3F4FE29E5001E39EB00C86
:1034F0001124A501405D5E4F2AE0B801CE0101967E
:103500000E94400CB5016B5D7E4FAE014F5F5F4F77
:10351000C8010E94AB0CCE0101960E94581FF39483
:10352000D6CF9150908348C064EC71E0CE010196F3
:103530000E946F1F0CE022E0AE014F5F5F4FB701AA
:1035400081E293E00E94820F182FCE0101960E9423
:10355000581F1123A9F1C7010E946726882309F487
:10356000F7C00091210310912203F80180818F3070
:1035700009F4EEC0B701C8010E94160E8F3F09F092
:10358000E7C0B701CE0101960E94661FF801608175
:10359000FBE06F9FB0011124605D7E4FAE014F5F75
:1035A0005F4FC8010E94AB0CCE0101960E94581FCC
:1035B000F80180818F5F8083B8018CE291E085C043
:1035C00063EC71E0CE0101960E946F1F0DE023E0D5
:1035D000AE014F5F5F4FB70181E293E00E94820F1F
:1035E000182FCE0101960E94581F112351F1C701D7
:1035F0000E946726882309F4ABC000912103109133
:103600002203F8018081882309F4A2C081E082832B
:10361000B8016E5F7F4F86E190E00E94DB21B70129
:10362000CE0101960E94661FAE014F5F5F4F6EE1B3
:1036300070E0C8010E94AB0CCE0101960E94581F99
:1036400046C067EC71E0CE0101960E946F1F0DE04D
:1036500023E0AE014F5F5F4FB70181E293E00E942C
:10366000820F182FCE0101960E94581F112309F4D2
:103670006FC0C7010E946726882309F469C00091C2
:1036800021031091220381E0F8018383B8016D5F6B
:103690007F4F88E590E00E94DB21B701CE010196C3
:1036A0000E94661FAE014F5F5F4F60E670E0C80189
:1036B0000E94AB0CCE0101960E94581FF8011482A3
:1036C000B8016C5F7F4F8CE590E00E94DB2111E038
:1036D000D1102AC06EEA72E0CE0107960E945D1FEB
:1036E000111106C065EA72E0CE0107960E94C91E5C
:1036F000BE01635F7F4FCE0107960E94C21EBE01CE
:10370000695F7F4FCE0101960E94661F40E061E035
:10371000CE0101960E949124CE0101960E94581F6D
:10372000CE0107960E94581FCE010D960E94581F89
:1037300064960FB6F894DEBF0FBECDBFDF91CF9178
:103740001F910F91FF90EF90DF90BF90AF90089581
:1037500010E0BECF0895CF92DF92EF92FF920F93C9
:103760001F93CF93DF936C017A018B01C0E0D0E00F
:10377000CE15DF0589F0D8016D918D01D601ED914F
:10378000FC910190F081E02DC6010995892B11F47F
:103790007E0102C02196ECCFC701DF91CF911F912E
:1037A0000F91FF90EF90DF90CF900895FC01538D23
:1037B000448D252F30E0842F90E0821B930B54170B
:1037C00010F0CF96089501970895FC01918D828D98
:1037D000981761F0828DDF01A80FB11D5D968C9165
:1037E000928D9F5F9F73928F90E008958FEF9FEF70
:1037F0000895FC01918D828D981731F0828DE80F2C
:10380000F11D858D90E008958FEF9FEF0895FC01E5
:10381000918D228D892F90E0805C9F4F821B9109B2
:103820008F739927089584E892E00E94071C21E095
:10383000892B09F420E0822F0895FC01848DDF019B
:10384000A80FB11DA35ABF4F2C91848D90E0019613
:103850008F739927848FA689B7892C93A089B18902
:103860008C9180648C93938D848D981306C002880C
:10387000F389E02D80818F7D80830895EF92FF9200
:103880000F931F93CF93DF93EC0181E0888F9B8D83
:103890008C8D981305C0E889F989808185FD24C045
:1038A000F62E0B8D10E00F5F1F4F0F731127E02EC8
:1038B0008C8DE8120CC00FB607FCFACFE889F989A5
:1038C000808185FFF5CFCE010E941D1CF1CF8B8D2D
:1038D000FE01E80FF11DE35AFF4FF0820B8FEA89DA
:1038E000FB898081806207C0EE89FF896083E88957
:1038F000F98980818064808381E090E0DF91CF91BD
:103900001F910F91FF90EF900895CF93DF93EC01FB
:10391000888D8823C9F0EA89FB89808185FD05C0EF
:10392000A889B9898C9186FD0FC00FB607FCF5CF29
:10393000808185FFF2CFA889B9898C9185FFEDCF71
:10394000CE010E941D1CE7CFDF91CF91089580E04A
:1039500090E0892B29F00E94131C81110C94000027
:103960000895833081F028F4813099F08230A1F0FD
:1039700008958730A9F08830B9F08430D1F480916F
:1039800080008F7D03C0809180008F7780938000BE
:10399000089584B58F7702C084B58F7D84BD089566
:1039A0008091B0008F7703C08091B0008F7D8093AD
:1039B000B00008950895089580E090E008950E9471
:1039C0004239CF93DF93EC0188819981009711F000
:1039D0000E94E037198218821D821C821B821A8283
:1039E000DF91CF9108950F931F93CF93DF93EC0155
:1039F00088819981009729F02A813B812617370712
:103A000088F48B016F5F7F4F0E947838009761F0D8
:103A1000998388831B830A832C813D81232B11F496
:103A2000FC01108281E001C080E0DF91CF911F9105
:103A30000F910895EF92FF920F931F93CF93DF930F
:103A4000FC01248135816115710511F480E019C0F4
:103A500041155105A9F07B01EC018A01020F131FEA
:103A6000B8010E94F31C882389F3288139818C8155
:103A70009D81B701820F931F0E9469391D830C83BA
:103A800081E0DF91CF911F910F91FF90EF9008950A
:103A9000EF92FF920F931F93CF93DF93EC017B0183
:103AA0008A01BA010E94F31C811104C0CE010E9458
:103AB000E11C07C01D830C83B701888199810E9496
:103AC0006939CE01DF91CF911F910F91FF90EF9057
:103AD0000895FC0180819181009711F00C94463685
:103AE00060E070E0CB010895AF92BF92CF92DF9279
:103AF000EF92FF920F931F93CF93DF937B018A0185
:103B0000FB01448155814115510561F1FC0124817E
:103B100035812115310531F12417350718F10217C8
:103B2000130718F0890101501109FC01A080B18030
:103B3000C501DFEFCFEF6501C00ED11EC816D90653
:103B4000A0F0F701608171810E948D39009769F0C2
:103B50009C012A193B090217130710F0D22FC32F1B
:103B60000196ECCF8FEF9FEF02C08D2F9C2FDF913E
:103B7000CF911F910F91FF90EF90DF90CF90BF906A
:103B8000AF900895FC01248135816217730748F4D2
:103B900080819181009729F0FC01E60FF71F808159
:103BA000089580E00895FB0144815581FC01248142
:103BB00035812417350778F080819181009759F07D
:103BC000FB01608171816115710529F00E947039D6
:103BD00021E0892B09F020E0822F0895FC01248147
:103BE0003581232B31F421E061157105A1F0FB0132
:103BF00008C0FC01808191816115710531F421E0DB
:103C0000FC018081882339F005C00E94603921E0E1
:103C1000892B09F020E0822F0895FC012481358151
:103C2000FB01448155812417350721F5FC01808172
:103C30009181FB0160817181009719F06115710517
:103C4000A1F46115710549F0232BB1F0FB018081CE
:103C500090E09195819591090AC0009769F0232B16
:103C600059F0FC01808190E002C00E94603921E09F
:103C7000892B19F020E001C021E0822F0895EF92F6
:103C8000FF920F931F93CF93DF936115710511F48A
:103C900080E01EC08B01EC01CB010E9474360097BE
:103CA000B1F02C813D817C01E20EF31EB701CE0103
:103CB0000E94F31C882361F3288139818C819D81C6
:103CC000B801820F931F0E946D36FD82EC8281E065
:103CD000DF91CF911F910F91FF90EF900895EF9298
:103CE000FF920F931F93CF93DF93CDB7DEB72D973E
:103CF0000FB6F894DEBF0FBECDBF7C01CB01BA0179
:103D00002AE08E010F5F1F4FA8010E949D36F80127
:103D100001900020E9F73197AF01401B510BB8012A
:103D2000C7010E941A1D2D960FB6F894DEBF0FBE74
:103D3000CDBFDF91CF911F910F91FF90EF9008952C
:103D4000CF93DF9300D0CDB7DEB769831A8241E00D
:103D500050E0BE016F5F7F4F0E941A1D0F900F90C1
:103D6000DF91CF9108956115710551F0FB0101902C
:103D70000020E9F73197AF01461B570B0C941A1D31
:103D800080E00895FB0144815581608171810C942C
:103D90001A1DEF92FF920F931F93CF93DF93EC01C5
:103DA0008B016115710551F0CB010E9474367C01C5
:103DB000BC01CE010E94F31C811104C0CE010E94FF
:103DC000E11C07C0FD82EC82B801888199810E94C4
:103DD0006D36CE01DF91CF911F910F91FF90EF9043
:103DE0000895CF93DF93EC016115710559F0FB0144
:103DF00001900020E9F73197AF01461B570B0E9455
:103E0000481D02C00E94E11CCE01DF91CF910895B0
:103E1000CF93DF93EC01FB018617970761F0608178
:103E200071816115710529F0448155810E94481DF9
:103E300002C00E94E11CCE01DF91CF9108950F9343
:103E40001F93CF93DF938C01EB01FC018081918163
:103E50000097B1F0688179816115710579F042812F
:103E600053812C813D814217530740F00E946939EC
:103E70008C819D81F8019583848313C00E94E03773
:103E800088819981F801918380838A819B819383C2
:103E900082838C819D8195838483198218821B8201
:103EA0001A821D821C82DF91CF911F910F9108957C
:103EB000FC01808191810C94E037FC011182108219
:103EC00013821282158214820C94C91EFC01118285
:103ED000108213821282158214820C94081FFC0136
:103EE000118210821382128215821482611571056B
:103EF00051F0FB0101900020E9F73197AF01461B1B
:103F0000570B0C94481D0895BF92CF92DF92EF9209
:103F1000FF920F931F93CF93DF937C016B018A0174
:103F2000E9012417350720F4812F8901C42FD82FE8
:103F300061E671E0C7010E946F1FD60114968D9152
:103F40009C91159708171907D0F48C179D0708F452
:103F5000EC01D601ED91FC911197EC0FFD1FB080A3
:103F600010824D915C91BA01600F711FC7010E94D0
:103F7000F11ED601ED91FC91EC0FFD1FB082C7013F
:103F8000DF91CF911F910F91FF90EF90DF90CF9035
:103F9000BF900895DC01ED91FC910280F381E02D4A
:103FA00042E050E06FE571E009941F920F920FB666
:103FB0000F9211242F933F934F935F936F937F93AF
:103FC0008F939F93AF93BF93EF93FF9384E892E017
:103FD0000E941D1CFF91EF91BF91AF919F918F9116
:103FE0007F916F915F914F913F912F910F900FBEF5
:103FF0000F901F9018951F920F920FB60F921124D9
:104000002F938F939F93EF93FF93E0919402F091FE
:1040100095028081E0919A02F0919B0282FD12C08C
:10402000908180919D028F5F8F7320919E028217F5
:1040300051F0E0919D02F0E0EC57FD4F958F809399
:104040009D0201C08081FF91EF919F918F912F91EF
:104050000F900FBE0F901F901895CF93DF93282FCE
:1040600030E0F901E750FC4F8491F901EB51FC4F2E
:10407000D491F901EF52FC4FC491CC2391F08111FE
:104080000E94B11CEC2FF0E0EE0FFF1FE953FC4F34
:10409000A591B491EC91ED2381E090E021F480E0D2
:1040A00002C080E090E0DF91CF9108951F93CF93FD
:1040B000DF93282F30E0F901E750FC4F8491F9019C
:1040C000EB51FC4FD491F901EF52FC4FC491CC233A
:1040D000C9F0162F81110E94B11CEC2FF0E0EE0FF9
:1040E000FF1FE354FC4FA591B4918FB7F8941111C1
:1040F00005C09C91ED2FE095E92302C0EC91ED2BDA
:10410000EC938FBFDF91CF911F910895CF93DF93F1
:1041100090E0FC01EB51FC4F2491FC01EF52FC4F6D
:104120008491882361F190E0880F991FFC01ED5480
:10413000FC4FC591D491FC01E354FC4FA591B4917F
:10414000611109C09FB7F8948881209582238883E4
:10415000EC912E230BC0623061F49FB7F894388144
:10416000822F809583238883EC912E2B2C939FBFE5
:1041700006C08FB7F894E8812E2B28838FBFDF917C
:10418000CF9108952FB7F89460912602709127027D
:1041900080912802909129022FBF08950F931F93B9
:1041A000CF93DF93EC010E94C220688779878A87CA
:1041B0009B87E881F9810284F385E02DCE01099582
:1041C00097FF17C00E94C220088519852A853B8564
:1041D000DC01CB01801B910BA20BB30B0C811D8169
:1041E0002E813F8180179107A207B30710F38FEF4D
:1041F0009FEFDF91CF911F910F9108951F920F9222
:104200000FB60F9211242F933F938F939F93AF93E9
:10421000BF938091260290912702A0912802B0912D
:1042200029023091250226E0230F2D3720F4029633
:10423000A11DB11D05C029E8230F0396A11DB11DC5
:10424000209325028093260290932702A0932802B0
:10425000B09329028091210290912202A091230221
:10426000B09124020196A11DB11D8093210290936B
:104270002202A0932302B0932402BF91AF919F9199
:104280008F913F912F910F900FBE0F901F90189517
:104290001F920F920FB60F9211242F933F934F93BB
:1042A0005F936F937F938F939F93AF93BF93EF939E
:1042B000FF93E0910201F09103010995FF91EF91C5
:1042C000BF91AF919F918F917F916F915F914F912E
:1042D0003F912F910F900FBE0F901F9018951F9236
:1042E0000F920FB60F9211242F933F934F935F932A
:1042F0006F937F938F939F93AF93BF93EF93FF93AE
:10430000E0910001F09101010995FF91EF91BF91BA
:10431000AF919F918F917F916F915F914F913F915D
:104320002F910F900FBE0F901F9018950F931F9312
:10433000CF93DF938C01EB010E94E9368883C8019B
:1043400001960E94E9368983CE01DF91CF911F91BA
:104350000F910895EF92FF920F931F93CF93DF93E6
:1043600000D0CDB7DEB78C017B01FB0160819A8361
:104370008983CE0101960E94870EF70161810F5F4C
:104380001F4F1A830983CE0101960E94870EC70131
:104390000F900F90DF91CF911F910F91FF90EF90B1
:1043A0000895CF93DF93EB010E94E9368883CE0115
:1043B000DF91CF9108950F931F93CF93DF9300D098
:1043C000CDB7DEB78B01FB0160819A838983CE0173
:1043D00001960E94870EC8010F900F90DF91CF9138
:1043E0001F910F9108950F931F93CF93DF9300D0E8
:1043F00000D000D0CDB7DEB7FC0182818823C1F0A8
:104400008B01BF012AE04EE150E0CE0101960E94EF
:10441000400CBE016F5F7F4FC8010E940D1E11E06E
:10442000811101C010E0CE0101960E94581F01C009
:1044300010E0812F26960FB6F894DEBF0FBECDBFD9
:10444000DF91CF911F910F910895CF93DF9360E09B
:1044500070E00E94C21D813371F483E580934B03A9
:104460000E94EE2861E08091230390912403DF9164
:10447000CF910C94D213823381F48FE480934B0359
:104480000E94EE2820E040E061E0809123039091BB
:104490002403DF91CF910C949C12833341F584E582
:1044A00080934B030E94EE28C0912303D0912403F4
:1044B000CE010E94E012843011F46CE403C082301B
:1044C00039F461E48A819B81DF91CF910C944E0F86
:1044D000813009F0ACC0CE010E9470132A813B816B
:1044E000882311F061E301C063E3C901EDCF843398
:1044F000E9F487E580934B030E94EE28C0912303E3
:10450000D0912403CE010E949813811102C064E56A
:10451000D9CF813011F461E5D5CF823011F462E555
:10452000D1CF833009F083C065E4CCCF8533C1F4AB
:1045300086E580934B030E94EE28C0912303D0911F
:104540002403CE010E94BB13823011F466E5BACF7A
:10455000813011F468E5B6CF811169C067E5B2CF4B
:104560008434C9F481E380934B0361E0809121039B
:10457000909122030E94680D61E080912303909145
:1045800024030E94151360E080912303909124037B
:104590000E94D21315C08334B9F482E380934B0395
:1045A00060E080912103909122030E94680D21E038
:1045B00040E060E080912303909124030E949C12CC
:1045C000DF91CF910C94FD288833A9F40E94EE2846
:1045D00061E080912103909122030E94680D61E0C7
:1045E00080912303909124030E94151381E080930E
:1045F000260368E316C08933D1F40E94EE2860E0F8
:1046000080912103909122030E94680D61E08091C6
:104610002303909124030E94151381E080932603C5
:1046200069E381E293E0DF91CF910C94EB27DF9176
:10463000CF910895EF92FF920F931F93CF93DF9343
:1046400000D000D000D0CDB7DEB77C016BEC71E0BC
:10465000CE0101960E946F1F08E027E0AE014F5F78
:104660005F4FB70181E293E00E94820F182FCE01C5
:1046700001960E94581F812F26960FB6F894DEBF30
:104680000FBECDBFDF91CF911F910F91FF90EF90A3
:104690000895CF93DF9300D000D000D0CDB7DEB720
:1046A0001092400310922E03809151039091520377
:1046B000DC01ED91FC910680F781E02D099568E71A
:1046C00074E0CE0101960E945D1F41E0BE016F5F64
:1046D0007F4F81E293E00E94E010CE0101960E949C
:1046E000581F0E94C22061E081E293E00E94570FB0
:1046F00061E671E0CE0101960E946F1F41E0BE01AC
:104700006F5F7F4F81E293E00E94E010CE0101963F
:104710000E94581F8091510390915203DC01ED914A
:10472000FC910680F781E02D099510924A03809153
:104730003E038E3411F0823549F580913F038F346A
:1047400029F580914203811121C08091410381119B
:104750001DC0E0912103F0912203818D8435B1F4D5
:104760008081823098F081E08093420380934303FC
:104770000E94C220609344037093450380934603D4
:10478000909347038091490380934803109241031B
:10479000109226038EE480933E0380933F03109291
:1047A00025030E94C22060934D0370934E038093B3
:1047B0004F039093500310924C0326960FB6F89433
:1047C000DEBF0FBECDBFDF91CF910895FF920F9353
:1047D0001F93CF93DF9300D000D000D0CDB7DEB7CA
:1047E0008C016CE674E0CE0101960E945D1FBE0153
:1047F0006F5F7F4FC8010E94D31DF82ECE01019636
:104800000E94581FFF20E1F02CE030E04BE050E028
:10481000B801CE0101960E94841F60E070E0CE01D5
:1048200001960E94C21D182FCE0101960E94581FAA
:10483000123341F0133341F0103341F0163341F09D
:104840008EE407C084E405C082E503C089E401C0AA
:1048500085E426960FB6F894DEBF0FBECDBFDF917C
:10486000CF911F910F91FF900895FF920F931F9387
:10487000CF93DF9300D000D000D0CDB7DEB78C014E
:1048800060E674E0CE0101960E945D1FBE016F5F7D
:104890007F4FC8010E940D1EF82ECE0101960E9486
:1048A000581FFF2011F091E02FC06AE574E0CE019F
:1048B00001960E945D1FBE016F5F7F4FC8010E947D
:1048C0000D1EF82ECE0101960E94581FF110EBCF5D
:1048D0006FE474E0CE0101960E945D1FBE016F5F20
:1048E0007F4FC8010E940D1EF82ECE0101960E9436
:1048F000581FF110D8CF63ED71E0C8010E94EE1D82
:1049000091E0811101C090E0892F26960FB6F894AE
:10491000DEBF0FBECDBFDF91CF911F910F91FF90F2
:104920000895EF92FF920F931F93CF93DF93CDB72C
:10493000DEB762970FB6F894DEBF0FBECDBF7C0125
:10494000062F142F81E080932E03809151039091C4
:104950005203DC01ED91FC910680F781E02D099571
:10496000B701CE010D960E94661F011126C08091ED
:1049700049038F34B1F034F4833499F0863409F06C
:10498000E7C00FC0833521F0853509F0E1C009C0CB
:104990006AED71E0CE010D960E94F11E61EE71E0AC
:1049A00008C06AED71E0CE010D960E94F11E64EE22
:1049B00071E0CE010D960E94B31E68EE71E0CE014B
:1049C00007960E946F1F1230B9F460912103709115
:1049D0002203FB018381882341F02AE040E650E076
:1049E000CE0101960E94400C1AC061E671E0CE0132
:1049F00001960E946F1F13C080913503882339F000
:104A000064E474E0CE0107960E943F1E13C06091DB
:104A1000210370912203CE0101960E94710DBE0107
:104A20006F5F7F4FCE0107960E94C21ECE01019696
:104A30000E94581F62E771E0CE0107960E94B31EE4
:104A40008091510390915203DC01ED91FC9106801D
:104A5000F781E02D0995BE01695F7F4FCE01019678
:104A60000E94661F41E0BE016F5F7F4F81E293E0CD
:104A70000E94E010CE0101960E94581F80915103C0
:104A800090915203DC01ED91FC910680F781E02DBD
:104A900009956AE081E293E00E94570FBE01635FCF
:104AA0007F4FCE0101960E94661F41E0BE016F5FFD
:104AB0007F4F81E293E00E94E010CE0101960E94B8
:104AC000581F8091510390915203DC01ED91FC91AC
:104AD0000680F781E02D09956AE081E293E00E946B
:104AE000570F8091510390915203DC01ED91FC919D
:104AF0000680F781E02D099581E293E00E947C1009
:104B00000091510310915203D801ED91FC91019055
:104B1000F081E02D6AE1C8010995C8010E94CA1F11
:104B20008091510390915203DC01ED91FC9106803C
:104B3000F781E02D09956AE081E293E00E94570F2A
:104B40001092350310922E03CE0107960E94581F33
:104B5000CE010D960E94581F62960FB6F894DEBFE4
:104B60000FBECDBFDF91CF911F910F91FF90EF90BE
:104B70000895CF93DF9300D000D000D0CDB7DEB73B
:104B800090914103911119C0E0912103F09122030A
:104B9000918D913491F48093490361E671E0CE01E7
:104BA00001960E946F1F40E060E0CE0101960E94D6
:104BB0009124CE0101960E94581F26960FB6F894B4
:104BC000DEBF0FBECDBFDF91CF9108950F931F932E
:104BD000CF93DF93CDB7DEB76E970FB6F894DEBFF5
:104BE0000FBECDBF8C0169E374E0CE0101960E9437
:104BF0005D1FBE016F5F7F4FC8010E940D1E8111B6
:104C00004DC06EE274E0CE0107960E945D1FBE01AA
:104C1000695F7F4FC8010E940D1E811141C063E290
:104C200074E0CE010D960E945D1FBE01635F7F4F51
:104C3000C8010E940D1E811135C068E174E0CE01EB
:104C400043960E945D1FBE016D5E7F4FC8010E94AA
:104C50000D1E811115C06DE074E0CE0149960E94D1
:104C60005D1FBE01675E7F4FC8010E940D1E11E0EF
:104C7000811101C010E0CE0149960E94581F01C069
:104C800011E0CE0143960E94581FCE010D960E945E
:104C9000581FCE0107960E94581F09C080E004C02B
:104CA00081E002C011E0F1CF11E08111F2CFCE011D
:104CB00001960E94581F812F6E960FB6F894DEBFA2
:104CC0000FBECDBFDF91CF911F910F910895EF924D
:104CD000FF920F931F93CF938C01FC01E480F5802A
:104CE000C0E06C2F70E06E157F0568F4C8010E946B
:104CF000C21D282F880F330B205331092A3031056C
:104D000020F4CF5FEECF81E001C080E0CF911F9112
:104D10000F91FF90EF9008958F929F92AF92BF9264
:104D2000CF92DF92EF92FF921F93CF93DF9300D049
:104D300000D000D0CDB7DEB7162FBC01CE01019652
:104D40000E94661F40E0BE016F5F7F4F81E293E0EB
:104D50000E94E010CE0101960E94581F0E94C220BE
:104D60004B015C01112339F090E6C92E9AEED92E41
:104D7000E12CF12C15C088EBC82E8BE0D82EE12C4D
:104D8000F12C0EC08091510390915203DC01ED9102
:104D9000FC910084F185E02D09951816190674F030
:104DA0000E94C220DC01CB0188199909AA09BB091C
:104DB0008C159D05AE05BF0528F323C061E273E0A5
:104DC000CE0101960E949D1065EF71E0CE01019623
:104DD0000E94EE1D81110DC063ED71E0CE010196C0
:104DE0000E94EE1D811107C0CE0101960E94581F3E
:104DF000D7CF11E001C010E0CE0101960E94581FEC
:104E000001C010E0812F26960FB6F894DEBF0FBECA
:104E1000CDBFDF91CF911F91FF90EF90DF90CF90AA
:104E2000BF90AF909F908F900895FC01A089B189A9
:104E300082E08C93A485B5851C92A685B78583E313
:104E40008C93108EA489B58986E08C93A289B3894E
:104E50008C9180618C93A289B3898C9188608C93AA
:104E6000A289B3898C9180688C930288F389E02DA4
:104E700080818F7D8083089580913603811119C0D0
:104E800090913E039E34B1F490913F039E3491F48F
:104E900090914C03992371F090914A0391110AC0AB
:104EA00090912E03911106C09091540381E08927BF
:104EB000089580E008950F931F93CF93DF93EC0143
:104EC0008B0161E671E00E946F1FC8010E94CE2035
:104ED00097FD08C08A30910529F0682FCE010E9405
:104EE000A01EF3CFCE01DF91CF911F910F910895B6
:104EF0004F925F926F927F92AF92BF92CF92DF926A
:104F0000FF920F931F93CF93DF9300D000D000D078
:104F1000CDB7DEB78C015B0169010E94C2202B0175
:104F20003C01B501CE0101960E94661F41E0BE0121
:104F30006F5F7F4FC8010E94E010CE0101960E9472
:104F4000581F0E94C220DC01CB0184199509A609D3
:104F5000B709803A9F40A105B10538F5D801D09630
:104F60008D919C91D197DC01ED91FC910084F185AC
:104F7000E02D0995892B29F3B801CE0101960E94F5
:104F80009D10BE016F5F7F4FC801F6010995F82E95
:104F9000882399F2BE016F5F7F4FC5010E94081FF1
:104FA000CE0101960E94581F01C0F12C8F2D26962C
:104FB0000FB6F894DEBF0FBECDBFDF91CF911F912A
:104FC0000F91FF90DF90CF90BF90AF907F906F9048
:104FD0005F904F9008951F93CF93DF93EC01162FAE
:104FE00088A999A9DC01ED91FC910680F781E02D5B
:104FF0000995CE010E9410110E94C2206F8378870C
:1050000089879A8781E08B8718A71C87DF91CF91CA
:105010001F910895CF93DF93C0917E02D0918002BB
:1050200080917D02C81305C090917F02D91709F4C1
:10503000AAC090915802992309F477C0C11114C0F5
:10504000882309F452C020E041E060E08AE292E067
:105050000E949C1269E480912C0290912D020E9482
:10506000FD1180933A0241C0C33021F58330E8F549
:10507000E0912A02F0912B028389882389F020E0B5
:1050800041E060E08AE292E00E949C1268E4809134
:105090002C0290912D020E94FD1180933C0225C0AC
:1050A00065E480912C0290912D020E94FD11809365
:1050B0003D021BC0C13061F48230B8F064E48091DD
:1050C0002C0290912D020E94FD1180933B020DC095
:1050D000C23059F4823048F46AE580912C029091F4
:1050E0002D020E94FD1180933E0280917F02D8170D
:1050F00009F445C0D230A1F4823008F040C020E06D
:1051000041E060E08AE292E00E949C1266E58091B4
:105110002C0290912D020E94FD1180933F022FC01E
:10512000D1112DC0882359F121C0C33059F48330E7
:1051300048F465E480912C0290912D020E94FD11AB
:1051400080933D02D1111BC080917F028823B9F06A
:10515000CC23A9F0E0912A02F0912B0283858823C9
:1051600029F08AE292E00E94FC1209C067E5809172
:105170002C0290912D020E94FD1180934002D09349
:105180007F02C0937D02DF91CF910895CF93DF938B
:105190008AE292E00E949813D82F8AE292E00E945D
:1051A000BB13C82F80917D02D81721F080917E0219
:1051B000D81741F080917F02C81741F0809180029A
:1051C000C81304C00E940A2881E001C080E0D09387
:1051D0007E02C0938002DF91CF91089581E293E037
:1051E0000E9410110E94C220609331037093320319
:1051F000809333039093340308950F931F93CF93B9
:10520000DF93CDB7DEB72C970FB6F894DEBF0FBE95
:10521000CDBF64E874E0CE0107960E945D1F61E493
:10522000CE0107960E94A01E60E874E0CE010796AA
:105230000E943F1E01E213E0D801D0968D919C910F
:10524000D197DC01ED91FC910680F781E02D099565
:10525000BE01695F7F4FCE0101960E94661F41E04B
:10526000BE016F5F7F4FC8010E94E010CE01019622
:105270000E94581FF80180A991A9DC01ED91FC91D1
:105280000680F781E02D0995CE0107960E94581FF0
:105290002C960FB6F894DEBF0FBECDBFDF91CF9135
:1052A0001F910F910895EF92FF920F931F93CF9349
:1052B000DF9300D0CDB7DEB78C017B01FB016081AD
:1052C0009A838983CE0101960E94870EF70161813E
:1052D0000F5F1F4F1A830983CE0101960E94870E2C
:1052E000C7010F900F90DF91CF911F910F91FF9009
:1052F000EF900895CF93DF9300D000D000D0CDB7CA
:10530000DEB76AEB74E0CE0101960E945D1F60E09B
:10531000CE0101960E948C26CE0101960E94581F54
:1053200063EB74E0CE0101960E945D1F60E0CE0148
:1053300001960E948C26CE0101960E94581F67EAB2
:1053400074E0CE0101960E945D1F60E0CE010196DF
:105350000E948C26CE0101960E94581F81E089830D
:10536000BE016F5F7F4F84E893E00E94DB211A82C9
:105370001982BE016F5F7F4F84E993E00E94532939
:105380001982BE016F5F7F4F80E993E00E94DB21AD
:1053900064E681E293E00E94570F81E293E00E946D
:1053A000951226960FB6F894DEBF0FBECDBFDF91E3
:1053B000CF9108951F93CF93DF9300D000D000D0FA
:1053C000CDB7DEB768E974E0CE0101960E945D1F9B
:1053D00061E0CE0101960E948C26182FCE01019625
:1053E0000E94581F812F26960FB6F894DEBF0FBE7D
:1053F000CDBFDF91CF911F910895CF92DF92EF92B1
:10540000FF920F931F93CF93DF93CDB7DEB72C9707
:105410000FB6F894DEBF0FBECDBF69EF71E0CE01CD
:1054200001960E946F1F40E0BE016F5F7F4F81E2D7
:1054300093E00E94E010CE0101960E94581F0E9446
:10544000C2206B017C010E94C220DC01CB018C19BF
:105450009D09AE09BF0988389341A105B10508F03F
:1054600043C08091510390915203DC01ED91FC9176
:105470000084F185E02D0995892B29F36091510372
:1054800070915203CE0107960E945B276DE874E08D
:10549000CE0101960E945D1F0BE02AE0AE014F5F36
:1054A0005F4FBE01695F7F4F81E293E00E94820FF0
:1054B000182FCE0101960E94581F112351F060E071
:1054C00070E0CE0107960E94C21D833339F081330C
:1054D00031F0CE0107960E94581FB5CF10E0CE01E3
:1054E00007960E94581F01C010E0812F2C960FB61E
:1054F000F894DEBF0FBECDBFDF91CF911F910F910A
:10550000FF90EF90DF90CF900895CF92DF92EF92CF
:10551000FF921F93CF93DF9300D000D000D0CDB780
:10552000DEB7BC01CE0101960E94661F40E0BE01BD
:105530006F5F7F4F81E293E00E94E010CE01019601
:105540000E94581F0E94C2206B017C010E94C22051
:10555000DC01CB018C199D09AE09BF098838934144
:10556000A105B10590F58091510390915203DC01A2
:10557000ED91FC910084F185E02D0995892B31F3A3
:105580006091510370915203CE0101960E945B27F6
:1055900065EF71E0CE0101960E94EE1D81110DC0F4
:1055A00063ED71E0CE0101960E94EE1D811107C0EE
:1055B000CE0101960E94581FC9CF11E001C010E032
:1055C000CE0101960E94581F01C010E0812F26963F
:1055D0000FB6F894DEBF0FBECDBFDF91CF911F9104
:1055E000FF90EF90DF90CF900895CF93DF9300D09E
:1055F00000D000D0CDB7DEB769ED74E0CE010196E2
:105600000E945D1F60E0CE0101960E948C26CE01B3
:1056100001960E94581F26960FB6F894DEBF0FBE63
:10562000CDBFDF91CF910895EF92FF920F931F931B
:10563000CF93DF93CDB7DEB72A970FB6F894DEBFCE
:105640000FBECDBF81E08093350365ED74E0CE01E0
:1056500001960E945D1F7E0187E0E80EF11C08E4C0
:1056600013E0C8010E94E936F70181937F010F5FC3
:105670001F4F0C34F3E01F07A1F74F815885698550
:105680007A85CE0101960E946F1E40E061E0CE0156
:1056900001960E949124CE0101960E94581F2A96DD
:1056A0000FB6F894DEBF0FBECDBFDF91CF911F9133
:1056B0000F91FF90EF900895CF93DF9300D000D02B
:1056C00000D0CDB7DEB767EC74E0CE0101960E9442
:1056D0005D1F60E0CE0101960E948C26CE010196EE
:1056E0000E94581F26960FB6F894DEBF0FBECDBF9E
:1056F000DF91CF9108950F931F93CF93DF93CDB791
:10570000DEB72C970FB6F894DEBF0FBECDBF67EEA5
:1057100074E0CE0107960E945D1F2EE130E140E06B
:1057200050E0BE01695F7F4F81E293E00E947827DD
:10573000882381F160E971E0CE0101960E946F1F1C
:105740004B855C858D819E81481B590BBE016F5F27
:105750007F4FCE0107960E94741D8C01CE010196E9
:105760000E94581FA80155279A012C5F3F4F4F5F99
:105770005F4FBE01695F7F4FCE0101960E94841F7B
:10578000CE0101960E94691D8B01CE0101960E94F7
:10579000581F02C000E010E0CE0107960E94581F7B
:1057A000C8012C960FB6F894DEBF0FBECDBFDF91B7
:1057B000CF911F910F910895CF93DF93CDB7DEB7AF
:1057C00063970FB6F894DEBF0FBECDBF789484B553
:1057D000826084BD84B5816084BD85B5826085BDED
:1057E00085B5816085BD80916E00816080936E007B
:1057F000109281008091810082608093810080916D
:10580000810081608093810080918000816080931D
:1058100080008091B10084608093B1008091B000DD
:1058200081608093B00080917A00846080937A00D8
:1058300080917A00826080937A0080917A008E7FD6
:1058400080937A0080917A00806880937A00109229
:10585000C10084B762E089E00E94862061E088E0B0
:105860000E948620BE016F5F7F4F80EA90E00E9419
:10587000D1218981882311F060E001C061E088E0D6
:105880000E94562061E773E08AE390E00E94D121F4
:10589000809171038F3F41F41092710361E773E0CF
:1058A0008AE390E00E94DB216BE673E086E390E000
:1058B0000E94D12180916B038F3F41F410926B03C2
:1058C0006BE673E086E390E00E94DB2163E673E021
:1058D0008CE590E00E94D121809163038F3F41F4D9
:1058E0001092630363E673E08CE590E00E94DB2195
:1058F00062E673E088E590E00E94D1218091620326
:105900008F3F41F41092620362E673E088E590E015
:105910000E94DB216AE673E080E090E00E94D121E2
:1059200080916A038F3F29F460E08FE593E00E9445
:10593000680D63E773E084E090E00E949621809117
:10594000730390917403019661F482E390E0909365
:1059500074038093730363E773E084E090E00E9434
:10596000AA2167E773E08CE090E00E94D12180914A
:1059700077038F3F41F41092770367E773E08CE081
:1059800090E00E94DB218EE090E00E94E936809357
:1059900078038F3F29F464E58FE593E00E94A70E1A
:1059A00060E773E086E990E00E94D1218091700366
:1059B0008F3F49F4E12C00E020E040E060E08FE51B
:1059C00093E00E941C0D809170038823C1F06CE667
:1059D00073E088E990E00E94D1216DE673E08AE9E6
:1059E00090E00E94D1216EE673E08CE990E00E9485
:1059F000D1216FE673E08EE990E00E94D1216FE53E
:105A000073E08CE291E00E94D12180915F038031AC
:105A100040F010925F036FE573E08CE291E00E942A
:105A2000DB2161E673E086E190E00E94D121809164
:105A300061038F3F41F41092610361E673E086E1F8
:105A400090E00E94DB2160E673E08AE190E00E9432
:105A5000D121809160038F3F41F41092600360E692
:105A600073E08AE190E00E94DB2164E673E080E26B
:105A700093E00E94D121809164038F3F41F4109202
:105A8000640364E673E080E293E00E94DB2165E753
:105A900073E082E190E00E949621809175039091DD
:105AA0007603019661F482E090E090937603809310
:105AB000750365E773E082E190E00E94AA2162E746
:105AC00073E082E390E00E94D121809172038F3FC6
:105AD00041F41092720362E773E082E390E00E9467
