:100000000C9462020C94B3200C948C200C948513F5
:100010000C94EA130C94BB130C948A020C948A027D
:100020000C948A020C948A020C948A020C948A0220
:100030000C948A020C948A020C948A020C948A0210
:100040000C9442200C948A020C943F1F0C94191FAC
:100050000C948A020C948A020C948A020C948A02F0
:100060000C948A020C948A0241542B434349440065
:1000700041542B444445543D310D0A004154265708
:100080000D0A0041542B434C54533D310D0A00419D
:10009000542B4353434C4B3D310D0A0041542B43E9
:1000A0004E4D493D322C312C302C302C300D0A0075
:1000B00041542B434D47463D310D0A0041542B43DB
:1000C0004C43433D310D0A0041542B434C49503DB4
:1000D000310D0A004D4158434544440043455252B6
:1000E0000055504453554343004154410041542B63
:1000F000444445543D310D0A002B4350494E3A20AB
:100100004E4F542052454144590D0043616C6C20C0
:1001100052656164790D0041542B434D4744413D84
:100120002244454C20414C4C220D0A0041542B46A0
:10013000545050573D223132333435363738392216
:100140000D0A0041542B465450554E3D22726168B1
:10015000756C6E726174686F646B636C220D0A005B
:1001600041542B465450534552563D220041542B86
:100170004654504349443D310D0A002B46545053D8
:10018000495A453A20312C302C0041542B465450CA
:1001900053495A450D0A0041542B46545047455483
:1001A0000041542B53415042523D312C310D0A0035
:1001B00041504E222C220041542B53415042523D7B
:1001C000332C312C2200436F6E54797065222C221F
:1001D00047505253220D0A0041542B534150425272
:1001E0003D332C312C22004F4B203A2000524555F4
:1001F00050440050524753495A4500444300535518
:10020000500050524755504400564D52303200561F
:100210004D4D3031002E616D72222C302C3130303A
:100220002C310D0041542B435245433D342C2200C8
:100230002B43434C4B3A200041542B435245433D02
:10024000350D0037303431313936393539000A4E01
:100250006574776F726B3A000A426174253A002028
:100260004F46460A00204F4E0A00204F4E0A004DCE
:100270006F746F723A00204F46460A0020322050B9
:10028000484153450A004155544F4F464600415599
:10029000544F4F4E004552524F52203A20004F4B80
:1002A000203A200041542B435553443D312C220029
:1002B00042414C004155544F54494D45004155541D
:1002C0004F54494D45005354415254494D450053F4
:1002D00054415254494D45005354414745005354ED
:1002E000414745004E4354494D45005345545449F8
:1002F0004D45004E434F464600414D4F4646004156
:100300004D4F4E0041542B4342430041542B435325
:100310005100535441545553004F56464F464600E2
:100320004F56464F4E005245535000444E444F46A0
:100330004600444E444F4E004259504F46460042FC
:1003400059504F4E004155544F4F46460041555469
:100350004F4F4E00444944005245534554004E6FA0
:10036000204E756D626572004E554D004445464104
:10037000554C5400434C454152414C4C0057414967
:10038000540000000000240027002A0000000000A4
:10039000250028002B000000000023002600290073
:1003A000040404040404040402020202020203031B
:1003B0000303030301020408102040800102040823
:1003C00010200102040810200000000800020100B3
:1003D0000003040700000000000000003730343143
:1003E000313936393539004E4F20414E5357455239
:1003F0000D00425553590D004E4F20434152524972
:1004000045520D002B434C43433A20312C302C00F5
:1004100041542B4348555000222C320041542B5656
:1004200054533D220041542B434357413D302C301F
:100430000D0A0049443A0041542B4346554E3D3184
:100440002C310D0A0039353836313335393738001B
:10045000373338333632323637380037333833367D
:10046000313432313400373639383433393230317F
:1004700000373034313139363935390041542B4366
:10048000434C4B3F002B53415042523A20312C00F9
:1004900041542B53415042523D302C310D0A004102
:1004A000542B434F50533D320D0A00415426570DF3
:1004B0000A0041542B4353434C4B3D300D0A00007E
:1004C0006C340D3411241FBECFEFD8E0DEBFCDBF9A
:1004D00012E0A0E0B1E0E8E9F2E702C005900D9279
:1004E000A030B107D9F723E0A0E0B2E001C01D922F
:1004F000AA37B207E1F712E0C1E6D2E004C02197C3
:10050000FE010E94DE35C036D107C9F70E94682A75
:100510000C943F390C947B134F925F926F927F92B1
:100520008F929F92AF92BF92CF92DF92EF92FF9203
:100530000F931F93CF93DF93CDB7DEB7A5970FB679
:10054000F894DEBF0FBECDBF0E94062000911C03B1
:1005500010911D0320911E0330911F03DC01CB017C
:10056000801B910BA20BB30B80369A4EA105B105EF
:1005700010F10E94062060931C0370931D0380936A
:100580001E0390931F038091200391E0980F9C33EA
:1005900018F4909320030FC08B5380932003809115
:1005A00021038F5F883118F48093210304C01092D7
:1005B00021030E94172A809151038823B1F00E94E1
:1005C000062000915203109153032091540330915F
:1005D0005503DC01CB01801B910BA20BB30B813DBA
:1005E0009740A105B10508F0B8C580913403882370
:1005F00071F10E9406200091370310913803209179
:10060000390330913A03AB01BC01401B510B620B23
:10061000730B2091350330913603E4E6E29FC0016D
:10062000E39F900D1124A0E0B0E0481759076A0736
:100630007B0768F0E0911A03F0911B0387A58111F5
:1006400006C060E084E00E949A1F109234038091FB
:100650003B038E3409F052C080913C038E3409F084
:100660009FC080914903811116C00E94062000910D
:100670004A0310914B0320914C0330914D03DC0150
:10068000CB01801B910BA20BB30B893E9340A105BC
:10069000B10508F065C580914003882309F480C046
:1006A000E0911803F091190312898091490388237E
:1006B00009F476C080913F03813009F455C50E944A
:1006C0000620C0904103D0904203E0904303F09095
:1006D00044039B01AC012C193D094E095F096901D6
:1006E0007A01212F30E0A0E6BAEE0E9430396C1575
:1006F0007D058E059F0508F437C552C0893419F071
:10070000823509F04DC00E94062000912E03109101
:100710002F032091300330913103AB01BC01401B0A
:10072000510B620B730B20912C0330912D03E4E6E7
:10073000E29FC001E39F900D1124A0E0B0E04817B4
:1007400059076A077B0740F0809146038DA30E94FA
:1007500055238DA10E94C52580912903882301F18D
:100760000E940620E09124030091250310912603A6
:100770002091270330912803AB01BC01401B510B92
:10078000620B730B34E6E39FC0011124092E000CA9
:10079000AA0BBB0B84179507A607B70708F4FEC47E
:1007A0008FE4C82E92E5B92E29E4D22E80914E0313
:1007B00090914F03DC01ED91FC910480F581E02DD7
:1007C0000995181619060CF0F1C7CE014F960E9434
:1007D0000F260BA1015060E271E0CE0101960E944C
:1007E000B31E26E0AE014F5F5F4FBE01615E7F4FDB
:1007F00088E193E00E94F10E182FCE0101960E942D
:100800009C1E112321F080913303811129C50BA176
:10081000015067E271E0CE0101960E94B31E2CE008
:10082000AE014F5F5F4FBE01615E7F4F88E193E095
:100830000E94F10EE82ECE0101960E949C1EEE2031
:1008400071F1BE01615E7F4FCE010D960E94AA1E1E
:100850006EE271E0CE0107960E94B31EBE01635F97
:100860007F4FCE0107960E94061EBE01695F7F4F33
:10087000CE0101960E94AA1E41E0BE016F5F7F4F2C
:1008800088E193E00E940C10CE0101960E949C1E0C
:10089000CE0107960E949C1ECE010D967EC267E394
:1008A00071E0CE0101960E94B31E02E228E1AE0182
:1008B0004F5F5F4FBE01615E7F4F88E193E00E9412
:1008C000F10E782ECE0101960E949C1EBE01615E43
:1008D0007F4FCE01772009F420C201960E94AA1E04
:1008E000CE0101960E947726082FCE0101960E9424
:1008F0009C1EBE01615E7F4FCE0101960E94AA1E22
:10090000BE016F5F7F4F80911803909119030E9481
:10091000AE0DA82ECE0101960E949C1E01111BC097
:10092000BE01615E7F4FCE0101960E94AA1EBE01EC
:100930006F5F7F4F80911803909119030E945F0DA4
:10094000182F811101C01A2DCE0101960E949C1E04
:10095000112309F47CC1CE0101960E940F26BE012D
:100960006F5F7F4FCE014F960E94631ECE010196AE
:100970000E949C1E6EE371E0CE0101960E94B31EA0
:10098000BE016F5F7F4FCE014F960E94171D182F3B
:10099000CE0101960E949C1E1123C1F02BA13CA107
:1009A00041E050E0BE01615E7F4FCE0101960E94A2
:1009B000C81EBE016F5F7F4FCE014F960E94631E1F
:1009C000CE0101960E949C1E11E001C010E08F8CA8
:1009D00098A08114910419F401110EC029C1F401E9
:1009E00080818823C9F3082E000C990B0E94E837F8
:1009F000D4018D934D01F3CFBE01615E7F4FCE01D7
:100A000049960E94AA1E81E0809332030D8D015009
:100A100062E072E0CE0101960E94A11E26E0AE01C6
:100A20004F5F5F4FBE01675E7F4F88E193E00E949A
:100A3000F10EF82ECE0101960E949C1EFF2009F4B3
:100A4000B0C080913B038E3411F40E9455231111E4
:100A500010C06EEF71E0CE0101960E94A11E40E031
:100A600061E0CE0101960E949D24CE0101960E9474
:100A70009C1E898C9A8C8114910429F40E941F2950
:100A8000811102C40DC0F40180818823B9F3082EBE
:100A9000000C990B0E94E037D4018D934D01F3CFE8
:100AA00060E471E0CE010D960E94B31E68ED71E026
:100AB000CE0107960E94A11E66EC71E0CE0107965A
:100AC0000E94831DBE01695F7F4FCE0101960E9487
:100AD000AA1ECE0101960E94A729082FCE010196D9
:100AE0000E949C1E011102C000E042C067EB71E051
:100AF000CE0107960E940D1E60EB71E0CE010796B5
:100B00000E94831DBE01635F7F4FCE0107960E9446
:100B1000061E6CE571E0CE0107960E94F71DBE012E
:100B2000695F7F4FCE0101960E94AA1ECE010196F9
:100B30000E94A729082FCE0101960E949C1E002327
:100B400099F261EA71E0CE0101960E94A11E61E076
:100B5000CE0101960E94F826082FCE0101960E9430
:100B60009C1E002309F264E188E193E00E94C60E16
:100B7000CE0107960E949C1ECE010D960E949C1EDF
:100B8000002309F477C50CE0015009F473C562E352
:100B900088E193E00E94C60E0E941F298823A1F3DA
:100BA00073C30D8D015063EF71E0CE0101960E9479
:100BB000A11E27E0AE014F5F5F4FBE01675E7F4F12
:100BC00088E193E00E94F10E082FCE0101960E9469
:100BD0009C1E011185C50D8D01506DEE71E0CE0199
:100BE00001960E94A11E25E0AE014F5F5F4FBE013E
:100BF000675E7F4F88E193E00E94F10EF82ECE01F0
:100C000001960E949C1EF1106DC510923203CE0118
:100C100049960E949C1EF11072C0BE01615E7F4F1A
:100C2000CE0101960E94AA1E2A2D412F61E00AC022
:100C3000BE01615E7F4FCE0101960E94AA1E2A2D41
:100C4000412F60E0CE0101960E941D1454C0BE01E8
:100C5000615E7F4FCE0101960E94AA1EBE016F5FAA
:100C60007F4F80911803909119030E94B50D182FA2
:100C7000CE0101960E949C1E112309F440C0CE01B2
:100C800001960E940F26BE016F5F7F4FCE014F96E7
:100C90000E94631ECE0101960E949C1E6FE072E0CE
:100CA000CE0101960E94A11EBE016F5F7F4FCE0153
:100CB0004F960E94171D182FCE0101960E949C1E70
:100CC0001123E9F0E0911803F091190381E0848386
:100CD000BF016C5F7F4F8CE590E00E941F2169E0AF
:100CE00072E0CE0101960E94A11E42E061E0CE01B9
:100CF00001960E949D24CE0101960E949C1E67E1F0
:100D000071E0CE0101960E94A11E60E0CE01019625
:100D10000E94F826CE01019640C007960E94AA1EA6
:100D20006BE071E0CE0101960E94A11EBE016F5FD3
:100D30007F4FCE0107960E94511D182FCE010196BC
:100D40000E949C1ECE0107960E949C1E112321F03A
:100D500081E08093500323C0BE01615E7F4FCE01CE
:100D600007960E94AA1E69EF70E0CE0101960E94CC
:100D7000A11EBE016F5F7F4FCE0107960E94511DDD
:100D8000182FCE0101960E949C1E112321F00E9473
:100D900055230E947F27CE0107960E949C1E9091AA
:100DA000470380913B03911107C18E3419F08235BE
:100DB00009F088C190913C039E3419F0993409F0F0
:100DC000E8C0BE01615E7F4FCE0101960E94AA1E5F
:100DD00063E671E0CE0101960E94321D182FCE010C
:100DE00001960E949C1E112309F4BDC011E01093CE
:100DF0002B03B0923B03D0923C0380913D038F5F65
:100E000080933D03843008F06DC08130E9F46DEECD
:100E100070E0CE0101960E94A11E40E0BE016F5F0E
:100E20007F4F88E193E00E940C10CE0101960E9452
:100E30009C1E80914E0390914F03DC01ED91FC913B
:100E40000284F385E02D09956FE571E0CE010D96E2
:100E50000E94B31ECE0101960E940F26BE016F5F55
:100E60007F4FCE010D960E94631ECE0101960E9417
:100E70009C1E69E671E0CE0101960E94B31E05E159
:100E80002BE0AE014F5F5F4FBE01635F7F4F88E194
:100E900093E00E94F10E182FCE0101960E949C1E35
:100EA0001123C1F20E94062060932E0370932F033A
:100EB000809330039093310389899A890A9778F057
:100EC000CE010D960E945226882349F080913D0361
:100ED000823028F080912203882309F43AC4CE019D
:100EE0000D9634C180912203882309F44FC00E94DB
:100EF000062060932E0370932F038093300390930A
:100F000031031092220310933E0380914E0390917F
:100F10004F03DC01ED91FC910284F385E02D0995EE
:100F200069EE70E0CE0101960E94A11E41E0BE0173
:100F30006F5F7F4F88E193E00E940C10CE01019615
:100F40000E949C1E80914E0390914F03DC01ED9115
:100F5000FC910284F385E02D0995D0923B03D09259
:100F60003C036DE4AAC0BE01615E7F4FCE010196D5
:100F70000E94AA1ECE0101960E944124182FCE0184
:100F800001960E949C1E112309F4E2C00E94552381
:100F9000DFC0893489F490913C03993469F4BE012F
:100FA000615E7F4FCE0101960E94AA1ECE0101967E
:100FB0000E944124182FB1C08E3419F0823509F0F7
:100FC00084C010913C031F3409F0C2C0BE01615EB1
:100FD0007F4FCE0101960E94AA1ECE0101960E946B
:100FE000F223082FCE0101960E949C1E023579F44F
:100FF0000E94062060932E0370932F03809330038A
:101000009093310300933B0310933C03A1C0BE01B6
:10101000615E7F4FCE0101960E94AA1ECE0101960D
:101020000E944124182F811113C0BE01615E7F4FC1
:10103000CE0107960E94AA1ECE0107960E94F223B7
:1010400011E0853409F010E0CE0107960E949C1E45
:10105000CE0101960E949C1E112349F08091460307
:101060008DA30E9455238DA10E94C52571C0BE018C
:10107000615E7F4FCE0101960E94AA1ECE010196AD
:101080000E94F223182FCE0101960E949C1E193453
:1010900009F05EC00E94062060932E0370932F0318
:1010A000809330039093310310933B03C0923C0331
:1010B00081E080933E036091460388E193E00E94C3
:1010C000122246C0893409F466CF893409F040C041
:1010D00080913C038F34E1F5BE01615E7F4FCE010C
:1010E00001960E94AA1ECE0101960E944124182F4B
:1010F000811113C0BE01615E7F4FCE0107960E9431
:10110000AA1ECE0107960E94F22311E0853409F051
:1011100010E0CE0107960E949C1ECE0101960E940F
:101120009C1E111133CFCE014F960E942623882397
:1011300079F0BE01615E7F4FCE0101960E94AA1E2A
:10114000CE0101960E943122CE0101960E949C1E82
:10115000CE014F960E949C1E29CB1092510345CA86
:1011600081E08093490397CA8091450380934603A9
:1011700010924003E0911803F0911903818D8E3491
:1011800009F40ECB81E08093470388E193E00E944D
:10119000EB0F88E193E00E94781002CB80914E0320
:1011A00090914F03DC01ED91FC910284F385E02DD9
:1011B000099564E272E0CE0101960E94A11E40E012
:1011C000BE016F5F7F4F88E193E00E940C10CE015B
:1011D00001960E949C1E62E771E0CE0101960E947A
:1011E000B31E40E0BE016F5F7F4F88E193E00E9435
:1011F0000C10CE0101960E949C1E60912A0388E18A
:1012000093E06DA30E94EB0F80914E0390914F03EA
:10121000DC01ED91FC910190F081E02D6DA109952B
:1012200065E172E0CE0101960E94A11E41E0BE017F
:101230006F5F7F4F88E193E00E940C10CE01019612
:101240000E949C1E80914E0390914F03DC01ED9112
:10125000FC910284F385E02D099510922903A0CA20
:10126000BE01615E7F4FCE0101960E94AA1E40E042
:1012700061E0CE0101960E949D24CE0101960E945C
:101280009C1E10923303C3CABE01675E7F4FCE011E
:101290000D960E94AA1E6DE671E0CE0101960E9495
:1012A000A11E61E0CE0101960E94F826082FCE0112
:1012B00001960E949C1E002309F454C060E671E070
:1012C000CE0107960E94A11EBE01635F7F4FCE0133
:1012D00007960E94061E6CE571E0CE0107960E94FB
:1012E000F71DBE01695F7F4FCE0101960E94AA1EC5
:1012F00061E0CE0101960E94F826082FCE010196EA
:101300000E949C1E002349F163E471E0CE01019626
:101310000E94A11E61E0CE0101960E94F826082FCE
:10132000CE0101960E949C1E0023B9F06CE271E090
:10133000CE0101960E94A11E61E0CE0101960E949D
:10134000F826082FCE0101960E949C1E002329F04A
:10135000CE0107960E949C1E05C0CE0107960E94F2
:101360009C1E00E0CE010D960E949C1E002309F4F5
:1013700081C168E471E0CE0143960E94B31E67E923
:1013800071E0CE010D960E94A11EBE01635F7F4FEA
:10139000CE0107960E94AA1E6EE471E0CE01079668
:1013A0000E94F71DBE016D5E7F4FCE0107960E9421
:1013B000061E6CE571E0CE0107960E94F71DBE0186
:1013C000695F7F4FCE0101960E94AA1E61E0CE01A7
:1013D00001960E94F826982ECE0101960E949C1E2E
:1013E0009920E9F0BE01635F7F4FCE0107960E940E
:1013F0004C1E65E571E0CE0107960E94F71DBE0107
:10140000695F7F4FCE0101960E94AA1E60E0CE0167
:1014100001960E94F826CE0101960E949C1ECE01E4
:1014200007960E949C1ECE010D960E949C1ECE0126
:1014300043960E949C1E992009F41CC1E091180358
:10144000F09119038285811164C00E9406202B014E
:101450003C016AE871E0CE0101960E94A11E40E0C5
:10146000BE016F5F7F4F88E193E00E940C10CE01B8
:1014700001960E949C1E0E940620DC01CB0184196B
:101480009509A609B709803C944DA140B10508F023
:10149000F1C080914E0390914F03DC01ED91FC91DE
:1014A0000480F581E02D0995892B29F360914E0385
:1014B00070914F03CE0107960E94F2250B850150D3
:1014C0006BE771E0CE0101960E94A11E2EE0AE01F5
:1014D0004F5F5F4FBE01695F7F4F88E193E00E94DD
:1014E000F10E082FCE0101960E949C1ECE01079698
:1014F000002309F4BECF0E94FB1CAB01BC0180910C
:101500001803909119030E948C0ECE0107960E9439
:101510009C1EE0911803F091190346805780608467
:1015200071846FE771E0CE0143960E94B31EBE0145
:101530006D5E7F4FCE010D960E94AA1E6BE871E092
:10154000CE010D960E94F71DB301A201CE010D96AA
:101550000E94B31D67E671E0CE010D960E94F71D53
:1015600060E971E0CE0107960E94B31EBE016D5E78
:101570007F4FCE0107960E94061E63E971E0CE01FF
:1015800007960E94F71D0E9406202B013C01BE0118
:10159000695F7F4FCE0101960E94AA1E40E0BE0106
:1015A0006F5F7F4F88E193E00E940C10CE0101969F
:1015B0000E949C1E0E940620DC01CB018419950923
:1015C000A609B709803C944DA140B10550F5809122
:1015D0004E0390914F03DC01ED91FC910480F58165
:1015E000E02D0995892B31F360914E0370914F03E3
:1015F000CE0101960E94F225BE016F5F7F4FCE01A2
:1016000007960E94631ECE0101960E949C1EBE0199
:10161000635F7F4FCE0107960E94511D882351F2D0
:10162000E92CCE0107960E949C1ECE010D960E94C9
:101630009C1ECE0143960E949C1EEE20D9F081E0B4
:1016400080933203111110C06BEF71E0CE0101964F
:101650000E94A11E40E061E0CE0101960E949D24FF
:10166000CE0101960E949C1E0E94FC280E949C288C
:10167000FE2CCDCA0E94FC28E0911803F0911903BA
:1016800012861982BE016F5F7F4F84E893E00E944B
:101690001F211A821982BE016F5F7F4F84E993E098
:1016A0000E94752801E00983BE016F5F7F4F80E9CA
:1016B00093E00E941F21009332031111A8CA60E633
:1016C00071E0CE0101960E94B31E40E061E0CE01C0
:1016D00001960E949D24CE0101960E949C1E97CAED
:1016E00001E001C002E0CE0149960E94FB1CAB0163
:1016F000BC0180911803909119030E948C0E67EE33
:1017000071E0CE0107960E94A11EBE01675E7F4F69
:10171000CE0107960E94061E111111C0BE01695F1D
:101720007F4FCE0101960E94AA1E40E061E0CE01EB
:1017300001960E949D24CE0101960E949C1E0230BB
:1017400011F40E949C28CE0107960E949C1EF72C43
:101750005ECABE01635F7F4FCE0107960E94AA1E3C
:10176000BE01695F7F4FCE0101960E94AA1ECE0185
:1017700001960E947726182F81110DC0BE01695F66
:101780007F4F80911803909119030E94E70D11E09B
:101790008F3F09F410E0CE0101960E949C1E109329
:1017A0002203CE0107960E949C1E99CBA5960FB6E8
:1017B000F894DEBF0FBECDBFDF91CF911F910F9187
:1017C000FF90EF90DF90CF90BF90AF909F908F9061
:1017D0007F906F905F904F90089581E080937402A6
:1017E00008950E940620E8E1F3E062AF73AF84AF92
:1017F00095AF81E081AF0895FB0184819581409789
:1018000070F0CB0160E070E00E94061D282F880F69
:10181000330B2053310981E02A30310508F080E094
:1018200008956F927F928F929F92AF92BF92CF92C4
:10183000DF92EF92FF920F931F93CF93DF93CDB779
:10184000DEB76C013A01ADB6BEB6822F90E00196CC
:101850004DB75EB7481B590B0FB6F8945EBF0FBE6D
:101860004DBF8DB79EB701964C01611494E0790687
:1018700050F5FF24F394F20E31F1E1E0FE1202C0C4
:10188000F40120C0C3010E94E338F4018083EE24F8
:10189000E3948823C1F00E2D10E0EF1478F4C80112
:1018A000860D971D8115F4E09F0740F40E94E338F0
:1018B000F401E00FF11F8083E394EBCF080D191DB5
:1018C000F80131971082B401C6010E94B31EC6010F
:1018D0000FB6F894BEBE0FBEADBEDF91CF911F9183
:1018E0000F91FF90EF90DF90CF90BF90AF909F90BF
:1018F0008F907F906F9008958F929F92AF92BF923A
:10190000CF92DF92EF92FF920F931F93CF93DF93CB
:10191000CDB7DEB76B01ADB6BEB6FA01E480F58097
:10192000C70101962DB73EB7281B390B0FB6F894A7
:101930003EBF0FBE2DBF0DB71EB70F5F1F4F892BC8
:1019400099F00115110581F0E114F10411F4F80189
:101950000AC0FA0160817181A701C8010E9417388D
:10196000F801EE0DFF1D1082F80101900020E9F74B
:101970003197E01BF10BC11424E0D206D8F4FF2408
:10198000F394FE0EC6018F0D911D8115944090F4C5
:101990004801C01AD10A882D801B8F1548F4C60152
:1019A000880D991DF40161914F010E94EB38F3CF2E
:1019B00081E001C080E00FB6F894BEBE0FBEADBEA0
:1019C000DF91CF911F910F91FF90EF90DF90CF901B
:1019D000BF90AF909F908F900895CF92DF92EF923B
:1019E0000F93CF93DF9300D0CDB7DEB76C01FC012E
:1019F000618BBC016F5E7F4F86E990E02A8349834B
:101A00000E941F21F60181892A814981882341F1A1
:101A1000458726870787E08AB601635F7F4F88E99D
:101A200090E00E941F21B601625F7F4F8AE990E03B
:101A30000E941F21B601615F7F4F8CE990E00E94F8
:101A40001F21B601605F7F4F8EE990E00F900F90ED
:101A5000DF91CF910F91EF90DF90CF900C941F21E9
:101A60000F900F90DF91CF910F91EF90DF90CF907B
:101A70000895FC016387BC01655F7F4F80E090E0C3
:101A80000C941F21CF93DF93EC01FB01808188230D
:101A900069F08181882319F04EE150E002C040E3F3
:101AA00051E02AE0CE010E94110C05C063E472E00F
:101AB000CE010E94A11ECE01DF91CF910895DF9249
:101AC000EF92FF920F931F93CF93DF9300D000D03C
:101AD00000D0CDB7DEB7FC012081222369F17B0164
:101AE0008C012AE040E351E0BC01CE0101960E9446
:101AF000110CB701CE0101960E94511DD82ECE01C6
:101B000001960E949C1ED11019C0B701CE0101960A
:101B10000E94AA1EF8018081882341F0BE016F5FF8
:101B20007F4FC8010E943721182F01C010E0CE015D
:101B300001960E949C1E03C010E001C011E0812F9D
:101B400026960FB6F894DEBF0FBECDBFDF91CF91C2
:101B50001F910F91FF90EF90DF900895FC0120817D
:101B600021110C94372180E008950F931F93CF9398
:101B7000DF9300D000D000D0CDB7DEB7FC01838169
:101B80008823C1F08B01BF012AE040E650E0CE017E
:101B900001960E94110CBE016F5F7F4FC8010E9429
:101BA000511D11E0811101C010E0CE0101960E948B
:101BB0009C1E01C010E0812F26960FB6F894DEBF60
:101BC0000FBECDBFDF91CF911F910F910895CF929E
:101BD000DF92EF92FF920F931F93CF93DF9300D08A
:101BE00000D000D0CDB7DEB77C016B01FC01808155
:101BF000811106C0F7018481882309F443C030C0F5
:101C0000CE0101960E94AA1EBE016F5F7F4FC701E1
:101C10000E945F0D182FCE0101960E949C1E11118B
:101C200033C011E0F7018081181720F7FBE01F9FF8
:101C3000A0011124405D5E4F2AE0B701CE0101965C
:101C40000E94110CB601CE0101960E94511D082F71
:101C5000CE0101960E949C1E011118C01F5FE2CFA9
:101C6000B601CE0101960E94AA1EBE016F5F7F4F92
:101C7000C7010E94B50D182FCE0101960E949C1E2F
:101C8000111106C08FEF05C080E003C0812F01C095
:101C90008EEF26960FB6F894DEBF0FBECDBFDF9154
:101CA000CF911F910F91FF90EF90DF90CF9008950B
:101CB000EF92FF920F931F93CF93DF931F92CDB7B5
:101CC000DEB77C01FC0100811181C80169830E949B
:101CD000E3386981681719F0C8010E94EB38C70121
:101CE0000F90DF91CF911F910F91FF90EF9008958A
:101CF000CF93DF9300D0CDB7DEB7FC01618F8EE0CC
:101D000090E09A838983CE0101960E94580E0F902D
:101D10000F90DF91CF910895EF92FF920F931F9351
:101D2000CF93DF9300D0CDB7DEB721E0FC0122874F
:101D300046835783608771878C010A5F1F4F88E84D
:101D4000E82E83E0F82EF80161918F01FA82E98292
:101D5000CE0101960E94580EFFEFEF1AFF0A8CE8A1
:101D6000E81683E0F80679F70F900F90DF91CF9196
:101D70001F910F91FF90EF900895FC0123A129344A
:101D800021F421E023870C94122208958F929F92D0
:101D9000AF92BF92CF92DF92EF92FF92C62E0E9437
:101DA00006204B015C0184E6C89E600111240D2CC5
:101DB000000CEE08FF080E940620DC01CB01881908
:101DC0009909AA09BB098C159D05AE05BF0598F3B5
:101DD000FF90EF90DF90CF90BF90AF909F908F904B
:101DE0000895EF92FF920F931F93CF93DF9300D04C
:101DF00000D000D0CDB7DEB77B01122FBA01C701EA
:101E00000E94171D8823A9F0202F30E0412F50E0B9
:101E1000B701CE0101960E94C81EBE016F5F7F4FC1
:101E2000C7010E94631ECE0101960E949C1E81E0A4
:101E300001C080E026960FB6F894DEBF0FBECDBF7E
:101E4000DF91CF911F910F91FF90EF900895CF9266
:101E5000DF92EF92FF920F93CF93DF9300D000D0E9
:101E600000D0CDB7DEB76C017B01FB0104810350CC
:101E700060EA71E0CE0101960E94B31E25E0AE013A
:101E80004F5F5F4FB701C6010E94F10E082FCE01D0
:101E900001960E949C1E802F26960FB6F894DEBFF6
:101EA0000FBECDBFDF91CF910F91FF90EF90DF90EC
:101EB000CF900895CF92DF92EF92FF920F931F93EE
:101EC000CF93DF9300D000D000D0CDB7DEB77C0138
:101ED0006B0160E372E0CE0101960E94A11E06E153
:101EE00021E1AE014F5F5F4FB601C7010E94F10EC5
:101EF000182FCE0101960E949C1E812F26960FB6A8
:101F0000F894DEBF0FBECDBFDF91CF911F910F912F
:101F1000FF90EF90DF90CF9008958F929F92AF92B5
:101F2000BF92CF92DF92EF92FF920F93CF93DF9306
:101F3000CDB7DEB72C970FB6F894DEBF0FBECDBF7E
:101F40005C016B01FB01048101506EE871E0CE0180
:101F500007960E94B31EF60184819581892B69F052
:101F6000808091806F817885C4010E942638009717
:101F700021F07C01E818F90803C0EE24EA94FE2C55
:101F800065EA71E0CE0101960E94B31E21E02E0D9C
:101F9000AE014F5F5F4FB601C5010E94F10E082FE1
:101FA000CE0101960E949C1ECE0107960E949C1EA7
:101FB000802F2C960FB6F894DEBF0FBECDBFDF91F9
:101FC000CF910F91FF90EF90DF90CF90BF90AF90A7
:101FD0009F908F900895CF93DF93EC018C8D8111AA
:101FE00012C061E084E00E949A1F81E08C8F0E9401
:101FF00006206F8F78A389A39AA361E0CE01DF91B9
:10200000CF910C94C60E0E9406206F8F78A389A3EF
:102010009AA3DF91CF910895FF920F931F93CF93CF
:10202000DF93EC018B01F42E0E94EB0F6FE571E062
:10203000C8010E94321D0EA8DFA9C02D811114C055
:10204000F8014481558160817181E881F9810280C4
:10205000F381E02DCE01F11006C0DF91CF911F91E9
:102060000F91FF9009940995CE01DF91CF911F91B7
:102070000F91FF900C940E1F0F931F93CF93DF933C
:1020800000D000D000D0CDB7DEB78C01DC01D696F1
:102090008D919C91D797DC01ED91FC910284F385A1
:1020A000E02D099568E372E0CE0101960E94A11E21
:1020B00041E0BE016F5F7F4FC8010E940C10CE014E
:1020C00001960E949C1EF80186A997A9DC01ED915A
:1020D000FC910284F385E02D099526960FB6F894BD
:1020E000DEBF0FBECDBFDF91CF911F910F9108953D
:1020F000CF92DF92FF920F931F93CF93DF93CDB7D1
:10210000DEB762970FB6F894DEBF0FBECDBF8C016D
:1021100081E0D80153968C93C8010E94EB0FF8011F
:1021200086A997A9DC01ED91FC910284F385E02D4D
:1021300009956BEA71E0CE0107960E94B31EF80183
:10214000F7A0C080D180FF2059F16FE571E0CE018A
:102150000D960E94B31ED6018C91F816B8F4BBE020
:10216000FB9EA0011124405D5E4F2AE0B601CE0126
:1021700001960E94110CBE016F5F7F4FCE010D963C
:102180000E94631ECE0101960E949C1EBE01635FE9
:102190007F4FCE0107960E94061ECE010D960EC0FF
:1021A000B601CE0101960E94420DBE016F5F7F4FC6
:1021B000CE0107960E94061ECE0101960E949C1E2B
:1021C0006BE3CE0107960E94E41DBE01695F7F4F5D
:1021D000CE0101960E94AA1E41E0BE016F5F7F4FB3
:1021E000C8010E940C10CE0101960E949C1E61E065
:1021F000C8010E94C60E6FE571E0CE0101960E94F3
:10220000B31E41E0BE016F5F7F4FC8010E940C10FA
:10221000CE0101960E949C1E0E940620F801668B4A
:10222000778B808F918F82E583A38FE484A3CE0187
:1022300007960E949C1E62960FB6F894DEBF0FBEF2
:10224000CDBFDF91CF911F910F91FF90DF90CF9085
:1022500008950F931F93CF93DF93FC01A081B18169
:102260008C91811102C011E075C059968C915997DB
:102270008E34C9F380AD8823B1F380A5811103C0EA
:1022800096A5961781F393A19E3409F062C094A19C
:102290009E3409F05EC011A9112309F45BC08111BD
:1022A00058C051968C915197882391F181851D9644
:1022B0002C911D97821760F11F969C911F9798177C
:1022C00038F129130CC080851E969C911E978917A2
:1022D000F8F050969C915097981728F619C08213E1
:1022E00008C090851E968C911E97981708F0BBCF5A
:1022F0000FC0891308C0908550968C91509789170C
:1023000008F0B1CF05C0281718F4891708F4ABCF2F
:10231000062FEF0117A252968C915297882351F005
:102320000E94062069A77AA78BA79CA70DA781E02A
:1023300088A710C06EA759968C918E3409F493CF5C
:1023400081E087A7CF010E94EB0FCE010E94781099
:1023500001C010E0812FDF91CF911F910F9108955F
:102360000C94003C089561E081E10C949A1F0F9356
:102370001F93CF93DF93EC0141110EC08EA5811105
:102380000BC0662319F162E38A819B81DF91CF91B3
:102390001F910F910C94BD0E022F162F1DAA61E004
:1023A0008DE00E949A1F0E940620FE01ED5BFF4F08
:1023B0006083718382839383319781E080831EA63B
:1023C00060E080E10E949A1F1AA70CA7DF91CF91CD
:1023D0001F910F910895FC01A081B1811C968C91F1
:1023E00095A5882321F0992321F087A50895892FA9
:1023F000089581E008951F93CF93DF93EC011FA50B
:10240000112331F00E94EB11882311F081E00BC001
:10241000CE010E94EB11882321F0111104C084E049
:1024200002C082E000C0DF91CF911F910895CF9349
:10243000DF93FC0126A5211110C0EC010E94EB11D5
:10244000882359F08FA5882341F081E088AB0E9452
:10245000062069AB7AAB8BAB9CABDF91CF91089533
:102460001F93CF93DF93EC01162FE881F9818385C9
:1024700081110CC08EA581111EC08FA58823D9F0B3
:1024800061E08DE00E949A1F18AA15C0FE01EE5B64
:10249000FF4F808181110FC08FA5882361F060E01C
:1024A0008DE00E949A1F112331F0CE01DF91CF9170
:1024B0001F910C941712DF91CF911F910895EF9205
:1024C000FF920F931F93CF93DF937B018A01E90162
:1024D000F8948AE00E94711F31E0892B09F430E002
:1024E000F70130838BE00E94711F31E0892B09F0E6
:1024F00030E0F801308383E00E94711F31E0892BC6
:1025000009F430E038837894DF91CF911F910F91D7
:10251000FF90EF9008950F931F93CF93DF9300D018
:102520001F92CDB7DEB78C019E012F5F3F4FAE01EA
:102530004E5F5F4FBE016D5F7F4F0E945F129A81B9
:10254000F80196A7992311F061E001C060E080E1F5
:102550000E949A1F8A810F900F900F90DF91CF9168
:102560001F910F910895EF92FF920F931F93CF93B6
:10257000DF937B018A01E901F89486E00E94711FD4
:1025800031E0892B09F430E0F701308387E00E94C5
:10259000711F31E0892B09F430E0F801308385E0C8
:1025A0000E94711F31E0892B09F430E03883789460
:1025B000DF91CF911F910F91FF90EF900895CF93EE
:1025C000DF9300D01F92CDB7DEB79E012F5F3F4F44
:1025D000AE014E5F5F4FBE016D5F7F4F0E94B31231
:1025E0008B81811108C08A81811107C08981811185
:1025F00006C083E005C080E003C081E001C082E046
:102600000F900F900F90DF91CF910895CF93DF93AC
:10261000F89483E10E94711FEC0182E10E94711F16
:102620007894CD2B21F4892B21F482E003C080E043
:1026300001C081E0DF91CF9108951F93CF93DF9385
:10264000EC01162F18AA8FA5882329F0CE010E942D
:10265000EB1181110FC08A819B81112331F06EE44F
:10266000DF91CF911F910C94BD0E6EE40E94291151
:102670008C833DC08EA5811134C0CE010E94DF1233
:10268000811106C08A819B81112379F364E5E8CF2B
:10269000CE010E940613823049F48A819B8166E54F
:1026A0001111DECF0E9429118D8B21C060E08DE0D9
:1026B0000E949A1F60E08CE00E949A1F0E94B31152
:1026C0000E940620FE01FD966083718382839383BE
:1026D00081E08BAF8EA761E080E10E949A1F1BA76B
:1026E00006C0112321F061E38A819B81B9CFDF917C
:1026F000CF911F9108951F920F920FB60F92112440
:102700000F900FBE0F901F9018951F920F920FB64B
:102710000F9211242F933F934F935F936F937F9367
:102720008F939F93AF93BF93EF93FF9389E00E94A2
:10273000711F90910102891304C081E0809374029B
:1027400009C091E0811101C090E09093010281E005
:1027500080930002FF91EF91BF91AF919F918F9174
:102760007F916F915F914F913F912F910F900FBE8D
:102770000F901F9018951F920F920FB60F92112471
:102780002F933F934F935F936F937F938F939F9379
:10279000AF93BF93EF93FF930E940620609377025D
:1027A000709378028093790290937A0281E080930B
:1027B0007602FF91EF91BF91AF919F918F917F91A1
:1027C0006F915F914F913F912F910F900FBE0F909E
:1027D0001F9018951F920F920FB60F9211242F93EE
:1027E0003F934F935F936F937F938F939F93AF9399
:1027F000BF93CF93EF93FF93C1E0C09375020E9404
:102800000620609377027093780280937902909308
:102810007A02C0937602FF91EF91CF91BF91AF9171
:102820009F918F917F916F915F914F913F912F91E8
:102830000F900FBE0F901F9018955F926F927F922E
:102840008F929F92AF92BF92CF92DF92EF92FF92C0
:102850000F931F93CF93DF93CDB7DEB763970FB678
:10286000F894DEBF0FBECDBF7C01062FD42E122FF1
:1028700060933203BC01CE010D960E94AA1E6DE743
:1028800073E0CE0101960E94A11EBE016F5F7F4FD3
:10289000C7010E94171DC82ECE0101960E949C1EE2
:1028A000CC2019F00E945628B1C664E773E0CE012F
:1028B00001960E94A11EBE016F5F7F4FC7010E945B
:1028C000171DC82ECE0101960E949C1ECC2011F12E
:1028D000E0901803F0901903002319F0F70110821B
:1028E00003C081E0F7018083B7018CE291E00E9490
:1028F0001F21F7011182B7016F5F7F4F8AE190E0DE
:102900000E941F21F7011282B7016E5F7F4F86E19F
:1029100090E07AC66CE673E0CE0101960E94A11E9B
:10292000BE016F5F7F4FC7010E94171DC82ECE01E9
:1029300001960E949C1ECC2009F45DC060E080914D
:102940001803909119030E94390DE0911803F0913A
:102950001903138ABF016D5E7F4F82E390E00E94EE
:102960001F21E0911803F0911903128ABF016E5ED6
:102970007F4F8AE390E00E941F21E0911803F091BD
:1029800019031486BF01645F7F4F86E390E00E94C5
:102990001F21E0911803F0911903108EBF01685EAA
:1029A0007F4F8CE090E00E941F2163E48091180328
:1029B000909119030E94780EE0911803F091190389
:1029C00082E390E0958B848BBF016C5E7F4F84E047
:1029D00090E00E94EE20E0911803F091190382E04C
:1029E00090E0978B868BBF016A5E7F4F82E190E01B
:1029F0000E94EE200BC668E673E0CE0101960E94AD
:102A0000A11EBE016F5F7F4FC7010E94171DC82E18
:102A1000CE0101960E949C1ECC20F1F1E09018039B
:102A2000F09019036FE571E0CE0107960E94B31E86
:102A300010E0F70180811817F8F4FBE01F9FA00158
:102A40001124405D5E4F2AE0B701CE0101960E943D
:102A5000110CBE016F5F7F4FCE0107960E94061ECC
:102A6000CE0101960E949C1E6EE571E0CE01079694
:102A70000E94F71D1F5FDDCF6FE571E0CE01079665
:102A80000E94321D882309F4D9C56EE573E0CE019A
:102A900007960E940D1ED2C568E573E0CE0101962F
:102AA0000E94A11EBE016F5F7F4FC7010E94171DCC
:102AB000C82ECE0101960E949C1ECC2029F088E1F0
:102AC00093E00E94B011E9C564E573E0CE01019680
:102AD0000E94A11EBE016F5F7F4FC7010E94171D9C
:102AE000C82ECE0101960E949C1ECC2019F00E9497
:102AF0000E28B9C56DE473E0CE0101960E94A11EB7
:102B0000BE016F5F7F4FC7010E94171DC82ECE0107
:102B100001960E949C1ECC2011F061E014C065E477
:102B200073E0CE0101960E94A11EBE016F5F7F4F30
:102B3000C7010E94171DC82ECE0101960E949C1E3F
:102B4000CC2079F060E080911803909119030E94E5
:102B5000390D61E080911A0390911B030E9430129D
:102B600055C56FE373E0CE0101960E94A11EBE0120
:102B70006F5F7F4FC7010E94171DC82ECE010196BF
:102B80000E949C1ECC2039F0E0911803F0911903AB
:102B900081E0848718C068E373E0CE0101960E944B
:102BA000A11EBE016F5F7F4FC7010E94171DC82E77
:102BB000CE0101960E949C1ECC2059F0E091180392
:102BC000F09119031486BF01645F7F4F86E390E0A4
:102BD0001BC562E373E0CE0101960E94A11EBE01F7
:102BE0006F5F7F4FC7010E94171DC82ECE0101964F
:102BF0000E949C1ECC2039F0E0911803F09119033B
:102C000081E0808F18C06BE273E0CE0101960E94D4
:102C1000A11EBE016F5F7F4FC7010E94171DC82E06
:102C2000CE0101960E949C1ECC2059F0E091180321
:102C3000F0911903108EBF01685E7F4F8CE090E029
:102C4000E3C466E273E0CE0101960E94A11EBE01BC
:102C50006F5F7F4FC7010E94171DC82ECE010196DE
:102C60000E949C1ECC20E1F0F7018481958105979C
:102C700008F413C564E070E0C7010E94061D982F98
:102C80009D7F913429F0843519F08E3409F005C503
:102C9000682F80911803909119030E94780EB6C492
:102CA00060E273E0CE0101960E94A11EBE016F5F3B
:102CB0007F4FC7010E94171DC82ECE0101960E94AA
:102CC0009C1ECC2039F0E0911803F091190381E0AB
:102CD000838B18C069E173E0CE0101960E94A11EAA
:102CE000BE016F5F7F4FC7010E94171DC82ECE0126
:102CF00001960E949C1ECC2059F0E0911803F0919F
:102D00001903138ABF016D5E7F4F82E390E07CC49C
:102D100062E173E0CE0101960E94A11EBE016F5FC9
:102D20007F4FC7010E94171DC82ECE0101960E9439
:102D30009C1ECC2009F4E9C06BE073E0C7010E943F
:102D40000D1E47E25FE060E070E0C7010E949E2731
:102D5000882339F0C7010E94FB1C162F110F160F94
:102D600001C01FEF65E088E193E00E94C60E64E0B9
:102D700073E0C7010E940D1E4DE85FE060E070E067
:102D8000C7010E949E27882309F455C06EE871E0B0
:102D9000CE0107960E94B31EF701848195812B8591
:102DA0003C856C01C21AD30A2115310551F10097F7
:102DB00041F18217930728F1C816D90620F06C015B
:102DC000F1E0CF1AD108F701608071808F8098847C
:102DD000C30155245A940FEF5301AC0CBD1CA81627
:102DE000B90690F0B4010E942638009769F0AC0152
:102DF00046195709C416D50610F0542E052F019612
:102E0000EECF2FEF3FEF02C0252D302F40E050E0F6
:102E1000B701CE0101960E94C81ECE0101960E9404
:102E2000FB1C062FCE0101960E949C1ECE01079628
:102E30000E949C1E01C00FEFC0901A03D0901B038C
:102E4000C6010E94FB11F82EF601E6A46EE872E0BE
:102E5000CE0101960E94A11EE0911803F091190382
:102E60008385811106C066E872E0CE0101960E945A
:102E70000D1E62EB71E0CE0101960E94F71DF1E09C
:102E8000FF1631F022E0F21631F066E772E005C07D
:102E90006AE672E002C06CE772E0CE0101960E9421
:102EA000831D6FE672E0CE0101960E94831DE11042
:102EB00003C06FE572E002C065E672E0CE010196E4
:102EC0000E94831D0F3F59F068E572E0CE01019624
:102ED0000E94831D602FCE0101960E9441341F3F46
:102EE00059F06EE472E0CE0101960E94831D612FBD
:102EF000CE0101960E94413440E061E0CE0101968E
:102F00000E949D24CE010196ACC36FEF72E0CE010A
:102F100001960E94A11EBE016F5F7F4FC7010E94F4
:102F2000171D882321F0002319F011E001C010E0E3
:102F3000CE0101960E949C1E112359F0E0911803C6
:102F4000F09119038281882309F4A7C381E081836A
:102F500018C069EF72E0CE0101960E94A11EBE0169
:102F60006F5F7F4FC7010E94171D182FCE0101967A
:102F70000E949C1E112359F0E0911803F09119034F
:102F80001182BF016F5F7F4F8AE190E03DC363EF25
:102F900072E0CE0101960E94A11EBE016F5F7F4FBD
:102FA000C7010E94171D182FCE0101960E949C1E7A
:102FB000112361F0E12C00E020E040E060E080912E
:102FC0001803909119030E94ED0C20C36BEE72E080
:102FD000CE0101960E94A11E0BE027E0AE014F5FDB
:102FE0005F4FB70188E193E00E94F10E182FCE01E8
:102FF00001960E949C1E1123F1F122E030E040E096
:1030000050E0B701CE0101960E94C81ECE01019684
:103010000E94FB1CCE0101966B8B0E949C1E6B894B
:10302000683108F03AC36093210324E030E042E0C5
:1030300050E0B701CE0101960E94C81ECE01019654
:103040000E94FB1CCE0101966B8B0E949C1E6B891B
:103050006C3308F022C324E030E042E050E0B701D6
:10306000CE0101960E94C81ECE0101960E94FB1C53
:103070006093200380C264EE72E0CE0101960E944C
:10308000A11E0FE026E0AE014F5F5F4FB70188E160
:1030900093E00E94F10E182FCE0101960E949C1E13
:1030A000112309F487C064E070E0C7010E94061D87
:1030B0008D3209F0F2C222E030E040E050E0B7018A
:1030C000CE0107960E94C81ECE0107960E94FB1CE7
:1030D000162F24E030E042E050E0B701CE01019627
:1030E0000E94C81EBE016F5F7F4FCE0107960E94EF
:1030F000631ECE0101960E949C1ECE0107960E947F
:10310000FB1CC62E27E030E045E050E0B701CE01C1
:1031100001960E94C81EBE016F5F7F4FCE010796C9
:103120000E94631ECE0101960E949C1ECE0107964E
:103130000E94FB1C062F29E030E047E050E0B70179
:10314000CE0101960E94C81EBE016F5F7F4FCE0167
:1031500007960E94631ECE0101960E949C1ECE011E
:1031600007960E94FB1C1831F8F48BE38C15E0F0F5
:103170000831D0F46C33C0F4809118039091190396
:1031800010130AC0C61208C0E12C00E020E040E0A5
:1031900060E00E94ED0C08C0E62E2C2D412F61E06E
:1031A0000E94ED0C11E001C010E0CE0107960E94D4
:1031B0009C1E2DC2F701048101506EED72E0CE011C
:1031C00001960E94A11E25E0AE014F5F5F4FB7013F
:1031D00088E193E00E94F10E182FCE0101960E9423
:1031E0009C1E1123F1F0C7010E945226882309F486
:1031F00054C2C7010E94FB1C8B016630710510F0A0
:1032000005E010E0E0911803F0911903028BBF0173
:103210006E5E7F4F8AE390E00E941F2168ED72E0AE
:103220007BC0F701048101506FEC72E0CE01019682
:103230000E94A11E28E0AE014F5F5F4FB70188E1F9
:1032400093E00E94F10E182FCE0101960E949C1E61
:10325000112329F1C7010E945226882309F41DC2B7
:10326000C7010E94FB1C8B016230710530F0613B8D
:10327000744028F000EB14E002C002E010E0E0919E
:103280001803F0911903178B068BBF016A5E7F4FFD
:1032900082E190E00E94EE2066EC72E03DC0F70112
:1032A000048101506DEB72E0CE0101960E94A11ED7
:1032B00028E0AE014F5F5F4FB70188E193E00E94C5
:1032C000F10E182FCE0101960E949C1E112371F160
:1032D000C7010E945226882309F4DFC1C7010E945A
:1032E000FB1C8B016233710530F06138704728F0A8
:1032F00000E810E702C002E310E0E0911803F0914B
:103300001903158B048BBF016C5E7F4F84E090E046
:103310000E94EE2064EB72E0CE010D960E940D1E1D
:10332000B801CE010D960E94113470C1F7010481DD
:10333000015060EB72E0CE0101960E94A11E23E0D5
:10334000AE014F5F5F4FB70188E193E00E94F10E3D
:10335000182FCE0101960E949C1E112321F164EAD0
:1033600072E0CE0107960E94A11EB701CE0107961A
:103370000E94061E60E771E0CE0107960E94F71DCD
:1033800081E080933303BE01695F7F4FCE010196D8
:103390000E94AA1E41E0BE016F5F7F4F88E193E06B
:1033A0000E940C1058C167EB71E0CE0101960E949B
:1033B000B31E0CE022E0AE014F5F5F4FB70188E122
:1033C00093E00E94F10E182FCE0101960E949C1EE0
:1033D000112309F448C0C7010E945226882309F42A
:1033E0005CC10091180310911903F80180818230AB
:1033F00008F453C1B701C8010E94E70DF82E8FEF02
:103400008F0D8D3F08F049C18BE0E82E2F2D30E065
:10341000F8019081492F50E0415051092417350798
:10342000FCF42F5F3F4FE29E5001E39EB00C11244D
:10343000A501405D5E4F2AE0B801CE0101960E94D1
:10344000110CB5016B5D7E4FAE014F5F5F4FC80140
:103450000E947C0CCE0101960E949C1EF394D6CF54
:103460009150908348C06BEB71E0CE0101960E94B1
:10347000B31E0CE022E0AE014F5F5F4FB70188E161
:1034800093E00E94F10E182FCE0101960E949C1E1F
:103490001123A9F1C7010E945226882309F4FDC017
:1034A0000091180310911903F80180818F3009F4FD
:1034B000F4C0B701C8010E94E70D8F3F09F0EDC0CD
:1034C000B701CE0101960E94AA1EF8016081FBE0BF
:1034D0006F9FB0011124605D7E4FAE014F5F5F4F63
:1034E000C8010E947C0CCE0101960E949C1EF8012E
:1034F00080818F5F8083B8018CE291E085C06AEBA8
:1035000071E0CE0101960E94B31E0DE023E0AE01F2
:103510004F5F5F4FB70188E193E00E94F10E182FD3
:10352000CE0101960E949C1E112351F1C7010E94F9
:103530005226882309F4B1C0009118031091190391
:10354000F8018081882309F4A8C081E08283B80152
:103550006E5F7F4F86E190E00E941F21B701CE0190
:1035600001960E94AA1EAE014F5F5F4F6EE170E0B0
:10357000C8010E947C0CCE0101960E949C1E46C090
:103580006EEB71E0CE0101960E94B31E0DE023E0C8
:10359000AE014F5F5F4FB70188E193E00E94F10EEB
:1035A000182FCE0101960E949C1E112309F475C0AC
:1035B000C7010E945226882309F46FC000911803A6
:1035C0001091190381E0F8018383B8016D5F7F4F8B
:1035D00088E590E00E941F21B701CE0101960E946C
:1035E000AA1EAE014F5F5F4F60E670E0C8010E9407
:1035F0007C0CCE0101960E949C1EF8011482B80139
:103600006C5F7F4F8CE590E00E941F2111E0D1108C
:103610002AC06EE972E0CE0107960E94A11E111128
:1036200006C065E972E0CE0107960E940D1EBE013C
:10363000635F7F4FCE0107960E94061EBE01695F41
:103640007F4FCE0101960E94AA1E40E061E0CE01AC
:1036500001960E949D24CE0101960E949C1ECE01DF
:1036600007960E949C1ECE010D960E949C1E63969A
:103670000FB6F894DEBF0FBECDBFDF91CF911F9183
:103680000F91FF90EF90DF90CF90BF90AF909F9001
:103690008F907F906F905F90089510E0B8CF08955D
:1036A000CF92DF92EF92FF920F931F93CF93DF930E
:1036B0006C017A018B01C0E0D0E0CE15DF0589F006
:1036C000D8016D918D01D601ED91FC910190F081B1
:1036D000E02DC6010995892B11F47E0102C02196C7
:1036E000ECCFC701DF91CF911F910F91FF90EF9029
:1036F000DF90CF900895FC01918D828D981761F035
:10370000828DDF01A80FB11D5D968C91928D9F5F18
:103710009F73928F90E008958FEF9FEF0895FC01C3
:10372000918D828D981731F0828DE80FF11D858D76
:1037300090E008958FEF9FEF0895FC01918D228D09
:10374000892F90E0805C9F4F821B91098F7399278E
:1037500008958BE792E00E949D1B21E0892B09F4DC
:1037600020E0822F0895FC01848DDF01A80FB11D98
:10377000A35ABF4F2C91848D90E001968F739927A7
:10378000848FA689B7892C93A089B1898C91806494
:103790008C93938D848D981306C00288F389E02D55
:1037A00080818F7D80830895EF92FF920F931F9306
:1037B000CF93DF93EC0181E0888F9B8D8C8D9813E4
:1037C00005C0E889F989808185FD24C0F62E0B8D1E
:1037D00010E00F5F1F4F0F731127E02E8C8DE81242
:1037E0000CC00FB607FCFACFE889F989808185FF04
:1037F000F5CFCE010E94B31BF1CF8B8DFE01E80FF8
:10380000F11DE35AFF4FF0820B8FEA89FB8980811B
:10381000806207C0EE89FF896083E889F989808129
:103820008064808381E090E0DF91CF911F910F91C0
:10383000FF90EF900895CF93DF93EC01888D88235C
:10384000C9F0EA89FB89808185FD05C0A889B9890D
:103850008C9186FD0FC00FB607FCF5CF808185FFE8
:10386000F2CFA889B9898C9185FFEDCFCE010E9456
:10387000B31BE7CFDF91CF91089580E090E0892BD3
:1038800029F00E94A91B81110C9400000895833037
:1038900081F028F4813099F08230A1F008958730CA
:1038A000A9F08830B9F08430D1F4809180008F7D08
:1038B00003C0809180008F7780938000089584B545
:1038C0008F7702C084B58F7D84BD08958091B0004C
:1038D0008F7703C08091B0008F7D8093B0000895F2
:1038E00008950E94DB37CF93DF93EC0188819981A3
:1038F000009711F00E947936198218821D821C826D
:103900001B821A82DF91CF9108950F931F93CF935B
:10391000DF93EC0188819981009729F02A813B810E
:103920002617370788F48B016F5F7F4F0E9411378E
:10393000009761F0998388831B830A832C813D81E2
:10394000232B11F4FC01108281E001C080E0DF91A3
:10395000CF911F910F910895EF92FF920F931F93B4
:10396000CF93DF93FC01248135816115710511F43A
:1039700080E019C041155105A9F07B01EC018A01D5
:10398000020F131FB8010E94851C882389F3288128
:1039900039818C819D81B701820F931F0E9402386B
:1039A0001D830C8381E0DF91CF911F910F91FF90D8
:1039B000EF900895EF92FF920F931F93CF93DF93B1
:1039C000EC017B018A01BA010E94851C811104C0AF
:1039D000CE010E94731C07C01D830C83B701888130
:1039E00099810E940238CE01DF91CF911F910F91F2
:1039F000FF90EF900895FC0180819181009711F074
:103A00000C94403860E070E0CB010895FC01248103
:103A100035816217730748F480819181009729F0FE
:103A2000FC01E60FF71F8081089580E00895FB01F7
:103A300044815581FC01248135812417350778F0B4
:103A400080819181009759F0FB016081718161153E
:103A5000710529F00E94093821E0892B09F020E046
:103A6000822F0895FC0124813581232B31F421E03C
:103A700061157105A1F0FB0108C0FC0180819181F5
:103A80006115710531F421E0FC018081882339F052
:103A900005C00E94F93721E0892B09F020E0822F30
:103AA0000895FC0124813581FB014481558124174F
:103AB000350721F5FC0180819181FB0160817181D5
:103AC000009719F061157105A1F46115710549F0B0
:103AD000232BB1F0FB01808190E0919581959109B4
:103AE0000AC0009769F0232B59F0FC01808190E017
:103AF00002C00E94F93721E0892B19F020E001C0B3
:103B000021E0822F0895EF92FF920F931F93CF939E
:103B1000DF936115710511F480E01EC08B01EC018B
:103B2000CB010E946E380097B1F02C813D817C0161
:103B3000E20EF31EB701CE010E94851C882361F3BB
:103B4000288139818C819D81B801820F931F0E9449
:103B50006738FD82EC8281E0DF91CF911F910F9158
:103B6000FF90EF900895EF92FF920F931F93CF93E2
:103B7000DF93CDB7DEB72D970FB6F894DEBF0FBE3B
:103B8000CDBF7C01CB01BA012AE08E010F5F1F4F30
:103B9000A8010E949738F80101900020E9F73197B9
:103BA000AF01401B510BB801C7010E94AC1C2D9600
:103BB0000FB6F894DEBF0FBECDBFDF91CF911F913E
:103BC0000F91FF90EF900895CF93DF9300D0CDB782
:103BD000DEB769831A8241E050E0BE016F5F7F4F1C
:103BE0000E94AC1C0F900F90DF91CF91089561154A
:103BF000710551F0FB0101900020E9F73197AF0109
:103C0000461B570B0C94AC1C80E00895FB014481CB
:103C10005581608171810C94AC1CEF92FF920F93DF
:103C20001F93CF93DF93EC018B016115710551F068
:103C3000CB010E946E387C01BC01CE010E94851C24
:103C4000811104C0CE010E94731C07C0FD82EC826A
:103C5000B801888199810E946738CE01DF91CF91A8
:103C60001F910F91FF90EF900895CF93DF93EC0198
:103C70006115710559F0FB0101900020E9F73197BA
:103C8000AF01461B570B0E94DA1C02C00E94731C36
:103C9000CE01DF91CF910895CF93DF93EC01FB012B
:103CA0008617970761F0608171816115710529F0B0
:103CB000448155810E94DA1C02C00E94731CCE010F
:103CC000DF91CF9108950F931F93CF93DF938C01D2
:103CD000EB01FC01808191810097B1F068817981CD
:103CE0006115710579F0428153812C813D81421724
:103CF000530740F00E9402388C819D81F801958322
:103D0000848313C00E94793688819981F801918358
:103D100080838A819B81938382838C819D8195831B
:103D20008483198218821B821A821D821C82DF9171
:103D3000CF911F910F910895FC01808191810C9486
:103D40007936FC011182108213821282158214824C
:103D50000C940D1EFC0111821082138212821582B6
:103D600014820C944C1EFC01118210821382128268
:103D7000158214826115710551F0FB01019000203C
:103D8000E9F73197AF01461B570B0C94DA1C0895E5
:103D9000BF92CF92DF92EF92FF920F931F93CF9338
:103DA000DF937C016B018A01E9012417350720F4B8
:103DB000812F8901C42FD82F6FE571E0C7010E94C0
:103DC000B31ED60114968D919C911597081719076B
:103DD000D0F48C179D0708F4EC01D601ED91FC910D
:103DE0001197EC0FFD1FB08010824D915C91BA01CC
:103DF000600F711FC7010E94351ED601ED91FC9125
:103E0000EC0FFD1FB082C701DF91CF911F910F9181
:103E1000FF90EF90DF90CF90BF900895DC01ED917F
:103E2000FC910280F381E02D42E050E06DE571E00D
:103E300009941F920F920FB60F9211242F933F9364
:103E40004F935F936F937F938F939F93AF93BF93A2
:103E5000EF93FF938BE792E00E94B31BFF91EF91EA
:103E6000BF91AF919F918F917F916F915F914F9192
:103E70003F912F910F900FBE0F901F9018951F929A
:103E80000F920FB60F9211242F938F939F93EF935E
:103E9000FF93E0918B02F0918C028081E09191027E
:103EA000F091920282FD12C09081809194028F5F06
:103EB0008F7320919502821751F0E0919402F0E007
:103EC000E558FD4F958F8093940201C08081FF914A
:103ED000EF919F918F912F910F900FBE0F901F9098
:103EE0001895CF93DF93282F30E0F901E853FC4F6A
:103EF0008491F901EC54FC4FD491F901E056FC4F48
:103F0000C491CC2391F081110E94471CEC2FF0E06A
:103F1000EE0FFF1FEA56FC4FA591B491EC91ED23F3
:103F200081E090E021F480E002C080E090E0DF9149
:103F3000CF9108951F93CF93DF93282F30E0F9019D
:103F4000E853FC4F8491F901EC54FC4FD491F901F2
:103F5000E056FC4FC491CC23C9F0162F81110E946A
:103F6000471CEC2FF0E0EE0FFF1FE457FC4FA5912C
:103F7000B4918FB7F894111105C09C91ED2FE09585
:103F8000E92302C0EC91ED2BEC938FBFDF91CF9131
:103F90001F910895CF93DF9390E0FC01EC54FC4F08
:103FA0002491FC01E056FC4F8491882361F190E05C
:103FB000880F991FFC01EE57FC4FC591D491FC016D
:103FC000E457FC4FA591B491611109C09FB7F894D3
:103FD0008881209582238883EC912E230BC0623048
:103FE00061F49FB7F8943881822F8095832388836A
:103FF000EC912E2B2C939FBF06C08FB7F894E881CD
:104000002E2B28838FBFDF91CF9108952FB7F8947F
:1040100060911702709118028091190290911A0212
:104020002FBF08950F931F93CF93DF93EC010E944E
:104030000620688779878A879B87E881F9810680CF
:10404000F781E02DCE01099597FF17C00E94062049
:10405000088519852A853B85DC01CB01801B910BE6
:10406000A20BB30B0C811D812E813F81801791071C
:10407000A207B30710F38FEF9FEFDF91CF911F914E
:104080000F9108951F920F920FB60F9211242F9344
:104090003F938F939F93AF93BF938091170290911B
:1040A0001802A0911902B0911A023091160226E06E
:1040B000230F2D3720F40296A11DB11D05C029E85C
:1040C000230F0396A11DB11D2093160280931702A2
:1040D00090931802A0931902B0931A0280911202D1
:1040E00090911302A0911402B09115020196A11DA6
:1040F000B11D8093120290931302A0931402B09307
:104100001502BF91AF919F918F913F912F910F9089
:104110000FBE0F901F9018951F920F920FB60F921F
:1041200011242F933F934F935F936F937F938F93BC
:104130009F93AF93BF93EF93FF93E0910201F091B0
:1041400003010995FF91EF91BF91AF919F918F91DD
:104150007F916F915F914F913F912F910F900FBE83
:104160000F901F9018951F920F920FB60F92112467
:104170002F933F934F935F936F937F938F939F936F
:10418000AF93BF93EF93FF93E0910001F091010192
:104190000995FF91EF91BF91AF919F918F917F9181
:1041A0006F915F914F913F912F910F900FBE0F90A4
:1041B0001F9018950F931F93CF93DF938C01EB0102
:1041C0000E94E3388883C80101960E94E3388983FE
:1041D000CE01DF91CF911F910F910895EF92FF9241
:1041E0000F931F93CF93DF9300D0CDB7DEB78C0131
:1041F0007B01FB0160819A838983CE0101960E9435
:10420000580EF70161810F5F1F4F1A830983CE019A
:1042100001960E94580EC7010F900F90DF91CF9129
:104220001F910F91FF90EF900895CF93DF93EB01D3
:104230000E94E3388883CE01DF91CF9108950F93D8
:104240001F93CF93DF9300D0CDB7DEB78B01FB0177
:1042500060819A838983CE0101960E94580EC8011D
:104260000F900F90DF91CF911F910F9108950F93B1
:104270001F93CF93DF9300D000D000D0CDB7DEB72F
:10428000FC0182818823C1F08B01BF012AE04EE14D
:1042900050E0CE0101960E94110CBE016F5F7F4F6E
:1042A000C8010E94511D11E0811101C010E0CE0132
:1042B00001960E949C1E01C010E0812F26960FB629
:1042C000F894DEBF0FBECDBFDF91CF911F910F914C
:1042D000089588E193E00E943C100E9406206093BC
:1042E0002E0370932F03809330039093310308952E
:1042F0000F931F93CF93DF93CDB7DEB72C970FB6F5
:10430000F894DEBF0FBECDBF6CE174E0CE0107961E
:104310000E94A11E61E4CE0107960E94E41D68E19F
:1043200074E0CE0107960E94831D08E113E0D801D6
:10433000D6968D919C91D797DC01ED91FC910284EA
:10434000F385E02D0995BE01695F7F4FCE0101968F
:104350000E94AA1E41E0BE016F5F7F4FC8010E940C
:104360000C10CE0101960E949C1EF80186A997A907
:10437000DC01ED91FC910284F385E02D0995CE01DD
:1043800007960E949C1E2C960FB6F894DEBF0FBEB7
:10439000CDBFDF91CF911F910F910895FC01A089AE
:1043A000B18982E08C93A485B5851C92A685B785DA
:1043B00083E38C93108EA489B58986E08C93A289BF
:1043C000B3898C9180618C93A289B3898C91886028
:1043D0008C93A289B3898C9180688C930288F3892D
:1043E000E02D80818F7D808308958091330381113A
:1043F00011C090913B039E3471F490913C039E3424
:1044000051F480914903882331F09091470381E072
:104410008927089580E00895E0E6F0E088E1808350
:10442000108208951F93CF93DF93EC01162F8EA96E
:104430009FA9DC01ED91FC910284F385E02D0995A3
:10444000CE010E943C100E9406206D877E878F87D8
:10445000988B81E0898B1EA71A8BDF91CF911F91DA
:104460000895CF93DF9360E070E00E94061D8133D2
:1044700071F483E5809348030E94692161E0809193
:104480001A0390911B03DF91CF910C941D1382337B
:1044900081F48FE4809348030E94692120E040E08A
:1044A00061E080911A0390911B03DF91CF910C94EE
:1044B000B711833341F584E5809348030E94692155
:1044C000C0911A03D0911B03CE010E94FB118430CE
:1044D00011F46CE403C0823039F461E48A819B8179
:1044E000DF91CF910C94BD0E813009F0ACC0CE01AC
:1044F0000E948B122A813B81882311F061E301C065
:1045000063E3C901EDCF8433E9F487E58093480381
:104510000E946921C0911A03D0911B03CE010E9411
:10452000DF12811102C064E5D9CF813011F461E559
:10453000D5CF823011F462E5D1CF833009F083C04A
:1045400065E4CCCF8533C1F486E5809348030E94AF
:104550006921C0911A03D0911B03CE010E9406135A
:10456000823011F466E5BACF813011F468E5B6CF38
:10457000811169C067E5B2CF8434C9F481E38093C7
:10458000480361E080911803909119030E94390D4E
:1045900061E080911A0390911B030E94301260E049
:1045A00080911A0390911B030E941D1315C0833440
:1045B000B9F482E38093480360E0809118039091FE
:1045C00019030E94390D21E040E060E080911A0358
:1045D00090911B030E94B711DF91CF910C94782129
:1045E0008833A9F40E94692161E0809118039091B9
:1045F00019030E94390D61E080911A0390911B0309
:104600000E94301281E08093230368E316C089334F
:10461000D1F40E94692160E0809118039091190300
:104620000E94390D61E080911A0390911B030E9452
:10463000301281E08093230369E388E193E0DF9106
:10464000CF910C941222DF91CF910895EF92FF92B7
:104650000F931F93CF93DF9300D000D000D0CDB73E
:10466000DEB77C0162EC71E0CE0101960E94B31EC0
:1046700008E027E0AE014F5F5F4FB70188E193E0AC
:104680000E94F10E182FCE0101960E949C1E812FD0
:1046900026960FB6F894DEBF0FBECDBFDF91CF9147
:1046A0001F910F91FF90EF900895CF93DF9300D06B
:1046B00000D000D0CDB7DEB710923D0310922B038F
:1046C00080914E0390914F03DC01ED91FC910284A7
:1046D000F385E02D099560E174E0CE0101960E941A
:1046E000A11E41E0BE016F5F7F4F88E193E00E9411
:1046F0000C10CE0101960E949C1E0E94062061E0D3
:1047000088E193E00E94C60E6FE571E0CE0101964C
:104710000E94B31E41E0BE016F5F7F4F88E193E0CE
:104720000E940C10CE0101960E949C1E80914E03A7
:1047300090914F03DC01ED91FC910284F385E02D13
:1047400009951092470380913B038E3411F0823516
:1047500049F580913C038F3429F580913F03811105
:1047600021C080913E0381111DC0E0911803F0919A
:104770001903818D8435B1F48081823098F081E015
:1047800080933F03809340030E940620609341037F
:1047900070934203809343039093440380914603B4
:1047A0008093450310923E03109223038EE480937E
:1047B0003B0380933C03109222030E9406206093E7
:1047C0004A0370934B0380934C0390934D031092D4
:1047D000490326960FB6F894DEBF0FBECDBFDF911A
:1047E000CF910895FF920F931F93CF93DF9300D043
:1047F00000D000D0CDB7DEB78C0164E074E0CE010C
:1048000001960E94A11EBE016F5F7F4FC8010E94EA
:10481000171DF82ECE0101960E949C1EFF20E1F08C
:104820002CE030E04BE050E0B801CE0101960E9450
:10483000C81E60E070E0CE0101960E94061D182F90
:10484000CE0101960E949C1E123341F0133341F0B9
:10485000103341F0163341F08EE407C084E405C004
:1048600082E503C089E401C085E426960FB6F8947A
:10487000DEBF0FBECDBFDF91CF911F910F91FF9093
:104880000895FF920F931F93CF93DF9300D000D032
:1048900000D0CDB7DEB78C0168EF73E0CE01019692
:1048A0000E94A11EBE016F5F7F4FC8010E94511D73
:1048B000F82ECE0101960E949C1EFF2011F091E07F
:1048C0002FC062EF73E0CE0101960E94A11EBE01CF
:1048D0006F5F7F4FC8010E94511DF82ECE010196D7
:1048E0000E949C1EF110EBCF67EE73E0CE010196A3
:1048F0000E94A11EBE016F5F7F4FC8010E94511D23
:10490000F82ECE0101960E949C1EF110D8CF6AECC1
:1049100071E0C8010E94321D91E0811101C090E058
:10492000892F26960FB6F894DEBF0FBECDBFDF915C
:10493000CF911F910F91FF900895EF92FF920F93E7
:104940001F93CF93DF93CDB7DEB762970FB6F8947E
:10495000DEBF0FBECDBF7C01062F142F81E08093F8
:104960002B0380914E0390914F03DC01ED91FC915C
:104970000284F385E02D0995B701CE010D960E94C2
:10498000AA1E011126C0809146038F34B1F034F481
:10499000833499F0863409F0E7C00FC0833521F0E5
:1049A000853509F0E1C009C061ED71E0CE010D96D9
:1049B0000E94351E68ED71E008C061ED71E0CE0126
:1049C0000D960E94351E6BED71E0CE010D960E9492
:1049D000F71D6FED71E0CE0107960E94B31E1230F5
:1049E000B9F46091180370911903FB018381882346
:1049F00041F02AE040E650E0CE0101960E94110C01
:104A00001AC06FE571E0CE0101960E94B31E13C07B
:104A100080913203882339F06CED73E0CE01079664
:104A20000E94831D13C06091180370911903CE0179
:104A300001960E94420DBE016F5F7F4FCE01079627
:104A40000E94061ECE0101960E949C1E60E771E046
:104A5000CE0107960E94F71D80914E0390914F035F
:104A6000DC01ED91FC910284F385E02D0995BE01F6
:104A7000695F7F4FCE0101960E94AA1E41E0BE01F0
:104A80006F5F7F4F88E193E00E940C10CE0101968A
:104A90000E949C1E80914E0390914F03DC01ED918A
:104AA000FC910284F385E02D09956AE088E193E0AA
:104AB0000E94C60EBE01635F7F4FCE0101960E9429
:104AC000AA1E41E0BE016F5F7F4F88E193E00E9424
:104AD0000C10CE0101960E949C1E80914E03909175
:104AE0004F03DC01ED91FC910284F385E02D0995E3
:104AF0006AE088E193E00E94C60E80914E03909197
:104B00004F03DC01ED91FC910284F385E02D0995C2
:104B100088E193E00E94EB0F00914E0310914F0348
:104B2000D801ED91FC910190F081E02D6AE1C8017E
:104B30000995C8010E940E1F80914E0390914F036A
:104B4000DC01ED91FC910284F385E02D09956AE08A
:104B500088E193E00E94C60E1092320310922B035C
:104B6000CE0107960E949C1ECE010D960E949C1EAF
:104B700062960FB6F894DEBF0FBECDBFDF91CF9126
:104B80001F910F91FF90EF900895CF93DF9300D086
:104B900000D000D0CDB7DEB790913E03911119C07F
:104BA000E0911803F0911903918D913491F4809361
:104BB00046036FE571E0CE0101960E94B31E40E00E
:104BC00060E0CE0101960E949D24CE0101960E94D4
:104BD0009C1E26960FB6F894DEBF0FBECDBFDF91A8
:104BE000CF9108950F931F93CF93DF93EC018B0127
:104BF0006FE571E00E94B31EC8010E94122097FD6C
:104C000008C08A30910529F0682FCE010E94E41D6A
:104C1000F3CFCE01DF91CF911F910F910895EF92C5
:104C2000FF920F931F93CF93DF9300D000D000D05B
:104C3000CDB7DEB78C016FE571E00E94B31E8091A5
:104C40004E0390914F03DC01ED91FC910480F581BE
:104C5000E02D099518161906BCF488E193E00E942E
:104C6000EB0F60914E0370914F03CE0101967C01D2
:104C70000E94F2250E151F0521F0B701C8010E9400
:104C8000631EC7010E949C1EC80126960FB6F894A9
:104C9000DEBF0FBECDBFDF91CF911F910F91FF906F
:104CA000EF900895EF92FF920F931F93CF938C0193
:104CB000FC01E480F580C0E06C2F70E06E157F058C
:104CC00068F4C8010E94061D282F880F330B20535B
:104CD00031092A30310520F4CF5FEECF81E001C0E9
:104CE00080E0CF911F910F91FF90EF9008950F9367
:104CF0001F93CF93DF93CDB7DEB76E970FB6F894BF
:104D0000DEBF0FBECDBF8C0161E774E0CE0101961E
:104D10000E94A11EBE016F5F7F4FC8010E94511DFE
:104D200081114DC066E674E0CE0107960E94A11E77
:104D3000BE01695F7F4FC8010E94511D811141C0B2
:104D40006BE574E0CE010D960E94A11EBE01635F6B
:104D50007F4FC8010E94511D811135C060E574E08C
:104D6000CE0143960E94A11EBE016D5E7F4FC80119
:104D70000E94511D811115C065E474E0CE01499671
:104D80000E94A11EBE01675E7F4FC8010E94511D97
:104D900011E0811101C010E0CE0149960E949C1ED5
:104DA00001C011E0CE0143960E949C1ECE010D96DB
:104DB0000E949C1ECE0107960E949C1E09C080E0A6
:104DC00004C081E002C011E0F1CF11E08111F2CF07
:104DD000CE0101960E949C1E812F6E960FB6F8940C
:104DE000DEBF0FBECDBFDF91CF911F910F91089510
:104DF0008F929F92AF92BF92CF92DF92EF92FF92EB
:104E00001F93CF93DF9300D000D000D0CDB7DEB793
:104E1000162FBC01CE0101960E94AA1E40E0BE01E1
:104E20006F5F7F4F88E193E00E940C10CE010196E6
:104E30000E949C1E0E9406204B015C01112339F048
:104E400090E6C92E9AEED92EE12CF12C15C088EBF4
:104E5000C82E8BE0D82EE12CF12C0EC080914E0391
:104E600090914F03DC01ED91FC910480F581E02DE0
:104E700009951816190674F00E940620DC01CB0172
:104E800088199909AA09BB098C159D05AE05BF05AE
:104E900028F321C0CE0101960E940F266CEE71E02E
:104EA000CE0101960E94321D81110DC06AEC71E0A5
:104EB000CE0101960E94321D811107C0CE010196DC
:104EC0000E949C1ED9CF11E001C010E0CE010196D6
:104ED0000E949C1E01C010E0812F26960FB6F89408
:104EE000DEBF0FBECDBFDF91CF911F91FF90EF903E
:104EF000DF90CF90BF90AF909F908F900895CF9309
:104F0000DF9300D000D000D0CDB7DEB767E374E008
:104F1000CE0101960E94A11E60E0CE0101960E9482
:104F2000F826CE0101960E949C1E26960FB6F89494
:104F3000DEBF0FBECDBFDF91CF9108958F929F92BC
:104F4000AF92BF92CF92DF92EF92FF920F931F9397
:104F5000CF93DF9300D000D000D0CDB7DEB76C0187
:104F60007A010E9406204B015C01B601CE01019638
:104F70000E94AA1E41E0BE016F5F7F4F88E193E06F
:104F80000E940C10CE0101960E949C1E0E940620D9
:104F90008B019C01081919092A093B09003A1F4095
:104FA0002105310530F580914E0390914F03DC01CE
:104FB000ED91FC910480F581E02D0995892B31F369
:104FC000CE0101960E940F26BE016F5F7F4F88E1E0
:104FD00093E0F7010995182F8823A1F2BE016F5FB6
:104FE0007F4FC6010E944C1ECE0101960E949C1E5E
:104FF00001C010E0812F26960FB6F894DEBF0FBED9
:10500000CDBFDF91CF911F910F91FF90EF90DF9077
:10501000CF90BF90AF909F908F900895EF92FF92A6
:105020000F931F93CF93DF93CDB7DEB72A970FB6B9
:10503000F894DEBF0FBECDBF81E08093320363E3FF
:1050400074E0CE0101960E94A11E7E0187E0E80E69
:10505000F11C08E413E0C8010E94E338F7018193D2
:105060007F010F5F1F4F0C34F3E01F07A1F74F8143
:10507000588569857A85CE0101960E94B31D40E06E
:1050800061E0CE0101960E949D24CE0101960E940E
:105090009C1E2A960FB6F894DEBF0FBECDBFDF91DF
:1050A000CF911F910F91FF90EF900895CF93DF93D1
:1050B00000D000D000D0CDB7DEB765E274E0CE01FD
:1050C00001960E94A11E60E0CE0101960E94F82682
:1050D000CE0101960E949C1E26960FB6F894DEBF64
:1050E0000FBECDBFDF91CF910895EF92FF920F9346
:1050F0001F93CF93DF9300D0CDB7DEB78C017B0138
:10510000FB0160819A838983CE0101960E94580E2B
:10511000F70161810F5F1F4F1A830983CE0101964A
:105120000E94580EC7010F900F90DF91CF911F91F1
:105130000F91FF90EF900895CF93DF9300D000D0B0
:1051400000D0CDB7DEB762EB74E0CE0101960E94CD
:10515000A11E60E0CE0101960E94F826CE010196C4
:105160000E949C1E6BEA74E0CE0101960E94A11E73
:1051700060E0CE0101960E94F826CE0101960E94C1
:105180009C1E6FE974E0CE0101960E94A11E60E0B2
:10519000CE0101960E94F826CE0101960E949C1E27
:1051A00081E08983BE016F5F7F4F84E893E00E94B6
:1051B0001F211A821982BE016F5F7F4F84E993E03D
:1051C0000E9475281982BE016F5F7F4F80E993E0CE
:1051D0000E941F2164E688E193E00E94C60E88E1E8
:1051E00093E00E94B01126960FB6F894DEBF0FBE72
:1051F000CDBFDF91CF9108951F93CF93DF9300D060
:1052000000D000D0CDB7DEB760E974E0CE010196E2
:105210000E94A11E61E0CE0101960E94F826182F7F
:10522000CE0101960E949C1E812F26960FB6F894FF
:10523000DEBF0FBECDBFDF91CF911F910895CF92FA
:10524000DF92EF92FF920F931F93CF93DF93CDB72F
:10525000DEB72C970FB6F894DEBF0FBECDBF60EF60
:1052600071E0CE0101960E94B31E40E0BE016F5F67
:105270007F4F88E193E00E940C10CE0101960E94BE
:105280009C1E0E9406206B017C010E940620DC010E
:10529000CB018C199D09AE09BF0988389341A1053E
:1052A000B10508F043C080914E0390914F03DC019B
:1052B000ED91FC910480F581E02D0995892B29F36E
:1052C00060914E0370914F03CE0107960E94F22524
:1052D00065E874E0CE0101960E94A11E0BE02AE071
:1052E000AE014F5F5F4FBE01695F7F4F88E193E082
:1052F0000E94F10E182FCE0101960E949C1E1123D0
:1053000051F060E070E0CE0107960E94061D8333E5
:1053100039F0813331F0CE0107960E949C1EB5CF43
:1053200010E0CE0107960E949C1E01C010E0812F64
:105330002C960FB6F894DEBF0FBECDBFDF91CF9194
:105340001F910F91FF90EF90DF90CF900895CF9233
:10535000DF92EF92FF921F93CF93DF9300D000D0A4
:1053600000D0CDB7DEB7BC01CE0101960E94AA1EC7
:1053700040E0BE016F5F7F4F88E193E00E940C1018
:10538000CE0101960E949C1E0E9406206B017C01AA
:105390000E940620DC01CB018C199D09AE09BF09D2
:1053A00088389341A105B10590F580914E03909105
:1053B0004F03DC01ED91FC910480F581E02D09950E
:1053C000892B31F360914E0370914F03CE0101960A
:1053D0000E94F2256CEE71E0CE0101960E94321D12
:1053E00081110DC06AEC71E0CE0101960E94321D60
:1053F000811107C0CE0101960E949C1EC9CF11E009
:1054000001C010E0CE0101960E949C1E01C010E078
:10541000812F26960FB6F894DEBF0FBECDBFDF9169
:10542000CF911F91FF90EF90DF90CF900895CF9391
:10543000DF93CDB7DEB72C970FB6F894DEBF0FBE63
:10544000CDBF6CE774E0CE0107960E94A11E4AE52D
:105450005FE060E070E0CE0107960E949E278823FF
:1054600051F122E030E040E050E0BE01695F7F4F43
:10547000CE0101960E94C81ECE0101960E94FB1C1F
:1054800060932103CE0101960E949C1E25E030E02E
:1054900043E050E0BE01695F7F4FCE0101960E945C
:1054A000C81ECE0101960E94FB1C60932003CE0112
:1054B00001960E949C1ECE0107960E949C1E2C966F
:1054C0000FB6F894DEBF0FBECDBFDF91CF91089528
:1054D000CF93DF93CDB7DEB763970FB6F894DEBFF7
:1054E0000FBECDBF789484B5826084BD84B58160E1
:1054F00084BD85B5826085BD85B5816085BD80919F
:105500006E00816080936E00109281008091810016
:10551000826080938100809181008160809381000E
:10552000809180008160809380008091B1008460D0
:105530008093B1008091B00081608093B000809131
:105540007A00846080937A0080917A0082608093F0
:105550007A0080917A008E7F80937A0080917A0021
:10556000806880937A001092C10084B761E088E07F
:105570000E94CA1F60E088E00E949A1F62E089E0F2
:105580000E94CA1F89E00E94711F892B39F4109272
:10559000010260E088E00E949A1F07C061E088E095
:1055A0000E949A1F81E080930102809168008160CF
:1055B0008093680080916800826080936800809189
:1055C0006B00826080936B0080916C00816080939F
:1055D0006C0080916C00826080936C0080916C0004
:1055E000806280936C008091680084608093680082
:1055F00080916D00806280936D0080916D00806469
:1056000080936D0080916D00806880936D00809123
:105610006C00806180936C00F8940E940C22789456
:105620008BE792E00E94CE2161E081E10E94CA1FD7
:105630006EE673E08AE390E00E94152180916E038C
:105640008F3F41F410926E036EE673E08AE390E0C0
:105650000E941F2168E673E086E390E00E94152116
:10566000809168038F3F41F41092680368E673E00D
:1056700086E390E00E941F2160E673E08CE590E0F5
:105680000E941521809160038F3F41F410926003C6
:1056900060E673E08CE590E00E941F216FE573E007
:1056A00088E590E00E94152180915F038F3F41F4CF
:1056B00010925F036FE573E088E590E00E941F2180
:1056C00067E673E080E090E00E9415218091670317
:1056D0008F3F29F460E08CE593E00E94390D60E78C
:1056E00073E084E090E00E94DA2080917003909152
:1056F0007103019661F482E390E0909371038093CB
:10570000700360E773E084E090E00E94EE2064E7BD
:1057100073E08CE090E00E941521809174038F3F2C
:1057200041F41092740364E773E08CE090E00E940F
:105730001F218EE090E00E94E338809375038F3F35
:1057400029F464E58CE593E00E94780E6DE673E041
:1057500086E990E00E94152180916D038F3F49F406
:10576000E12C00E020E040E060E08CE593E00E9466
:10577000ED0C80916D038823C1F069E673E088E940
:1057800090E00E9415216AE673E08AE990E00E94A9
:1057900015216BE673E08CE990E00E9415216CE620
:1057A00073E08EE990E00E9415216CE573E08CE2D5
:1057B00091E00E94152180915C03803140F01092AD
:1057C0005C036CE573E08CE291E00E941F216EE5C2
:1057D00073E086E190E00E94152180915E038F3F87
:1057E00041F410925E036EE573E086E190E00E9462
:1057F0001F216DE573E08AE190E00E941521809100
:105800005D038F3F41F410925D036DE573E08AE123
:1058100090E00E941F2161E673E080E293E00E9425
:105820001521809161038F3F41F41092610361E67D
:1058300073E080E293E00E941F2162E773E082E15F
:1058400090E00E94DA208091720390917303019698
:1058500061F482E090E0909373038093720362E7B7
:1058600073E082E190E00E94EE206FE673E082E355
:1058700090E00E94152180916F038F3F41F41092B8
:105880006F036FE673E082E390E00E941F218CE5D6
:1058900093E090931903809318038BE192E0909327
:1058A0001B0380931A0311E03AE0332E42E0242ECA
:1058B000809111028823F9F00E94062080900D0249
:1058C00090900E02A0900F02B0901002DC01CB016C
:1058D00088199909AA09BB0981319742A105B10527
:1058E00050F01092110280910102811104C00E94B7
:1058F000F521811186C580910002882399F01092CC
:10590000000280910102812780930C0281110AC05C
:1059100061E088E00E949A1F80910B02811102C011
:1059200010930B0280910C028823D1F00E94F52184
:105930008823B1F080912B03811112C08091510313
:1059400081110EC010920C020E94062060930D027D
:1059500070930E0280930F02909310021093110225
:1059600080910A028111D9C180910902811108C078
:105970000E940620603D77408105910508F046C5EC
:1059800080910B02882321F10E94062020910202BF
:1059900030910302DC01CB01821B930BA109B109F9
:1059A000853F9140A105B10598F0809104018127C0
:1059B00080930401882311F061E001C060E081E17F
:1059C0000E949A1F0E9406207093030260930202B5
:1059D0000E940620683A71468105910508F40EC5BB
:1059E0006BE171E0CE0101960E94B31E60E0CE0132
:1059F00001960E94F826CE0101960E949C1E68EC3A
:105A000070E0CE0101960E94A11E60E0CE010196D9
:105A10000E94F826082FCE0101960E949C1E0023AA
:105A200009F4F4C06CEB70E0CE010D960E94A11E4B
:105A300060E0CE010D960E94F826882309F4E2C0AA
:105A400060EB70E0CE0107960E94A11E60E0CE01DF
:105A500007960E94F826082F882381F06CE970E0F1
:105A6000CE0101960E94A11E60E0CE0101960E9427
:105A7000F826082FCE0101960E949C1ECE010796A3
:105A80000E949C1ECE010D960E949C1E002309F4CC
:105A9000BDC06FE870E0CE0101960E94A11E60E0DB
:105AA000CE0101960E94F826CE0101960E949C1E0E
:105AB00063E870E0CE0101960E94A11E60E0CE0175
:105AC00001960E94F826CE0101960E949C1E6CE76A
:105AD00070E0CE0101960E94A11E60E0CE01019609
