:100000000C9454020C94CB250C94A4250C94A612A9
:100010000C94B5120C947C020C947A120C947C0211
:100020000C947C020C947C020C947C020C947C0258
:100030000C947C020C947C020C947C020C947C0248
:100040000C945A250C947C020C9457240C94312463
:100050000C947C020C947C020C947C020C947C0228
:100060000C947C020C947C0241542B434349440081
:1000700041542B444445543D310D0A004154265708
:100080000D0A0041542B434C54533D310D0A00419D
:10009000542B4353434C4B3D310D0A0041542B43E9
:1000A0004E4D493D322C312C302C302C300D0A0075
:1000B00041542B434D47463D310D0A0041542B43DB
:1000C0004C43433D310D0A0041542B434C49503DB4
:1000D000310D0A004D4158434544440043455252B6
:1000E0000055504453554343004154410041542B63
:1000F000444445543D310D0A002B4350494E3A20AB
:100100004E4F542052454144590D0043616C6C20C0
:1001100052656164790D0041542B434D4744413D84
:100120002244454C20414C4C220D0A0041542B46A0
:10013000545050573D223132333435363738392216
:100140000D0A0041542B465450554E3D22726168B1
:10015000756C6E726174686F646B636C220D0A005B
:1001600041542B465450534552563D220041542B86
:100170004654504349443D310D0A002B46545053D8
:10018000495A453A20312C302C0041542B465450CA
:1001900053495A450D0A0041542B46545047455483
:1001A0000041542B53415042523D312C310D0A0035
:1001B00041504E222C220041542B53415042523D7B
:1001C000332C312C2200436F6E54797065222C221F
:1001D00047505253220D0A0041542B534150425272
:1001E0003D332C312C22004F4B203A2000524555F4
:1001F00050440050524753495A4500444300535518
:10020000500050524755504400564D52303200561F
:100210004D4D3031002A2A2A2A4D2B002E616D7255
:10022000222C302C3130302C310D0041542B4352D4
:1002300045433D342C220041542B435245433D3528
:100240000D00373034313139363935390041542BCE
:10025000434F50533D320D0A00415426570D0A00BA
:1002600041542B4353434C4B3D300D0A000A4E651D
:1002700074776F726B3A000A426174253A00204F1E
:1002800046460A00204F4E0A00204F4E0A004D6F8E
:10029000746F723A00204F46460A002032205048C0
:1002A0004153450A004155544F4F4646004155546D
:1002B0004F4F4E004552524F52203A20004F4B2094
:1002C0003A200041542B435553443D312C220042E7
:1002D000414C004155544F54494D45004155544FF0
:1002E00054494D45005354415254494D45005354CF
:1002F000415254494D4500535441474500535441E0
:10030000474500414D4F464600414D4F4E00415438
:100310002B4342430041542B435351005354415407
:10032000555300554E4452004F56520052455350BB
:1003300000444E444F464600444E444F4E004259FE
:10034000504F4646004259504F4E004155544F4F72
:100350004646004155544F4F4E00444944005245D3
:10036000534554004E6F204E756D626572004E55B8
:100370004D0044454641554C5400434C4541524183
:100380004C4C0057414954003935383631333539F2
:100390003738003733383336323236373800373370
:1003A0003833363134323134003736393834333932
:1003B0003230310037303431313936393539003760
:1003C000303431313936393539004E4F20414E53B2
:1003D0005745520D00425553590D004E4F20434191
:1003E00052524945520D002B434C43433A20312C85
:1003F000302C0041542B4348555000222C320041F0
:10040000542B5654533D22000000000024002700C6
:100410002A0000000000250028002B00000000003A
:100420002300260029000404040404040404020236
:100430000202020203030303030301020408102063
:10044000408001020408102001020408102000006E
:100450000008000201000003040700000000000083
:10046000000041542B434357413D302C300D0A00CE
:1004700049443A0041542B4346554E3D312C310DF1
:100480000A002B53415042523A20312C0041542B48
:1004900053415042523D302C310D0A0041542B4300
:1004A000424300000C34083411241FBECFEFD8E0C3
:1004B000DEBFCDBF12E0A0E0B1E0E8EAF5E702C0A0
:1004C00005900D92A831B107D9F723E0A8E1B2E079
:1004D00001C01D92AC38B207E1F712E0C3E5D2E0EB
:1004E00004C02197FE010E94A135C235D107C9F78A
:1004F0000E94532A0C94C73A0C949C124F925F921C
:100500006F927F928F929F92AF92BF92CF92DF9223
:10051000EF92FF920F931F93CF93DF93CDB7DEB788
:10052000A5970FB6F894DEBF0FBECDBF80915703DD
:100530008823B1F00E941E250091580310915903A1
:1005400020915A0330915B03DC01CB01801B910B9E
:10055000A20BB30B813D9740A105B10508F0FFC583
:1005600080913A03882371F10E941E2500913D037A
:1005700010913E0320913F0330914003AB01BC0139
:10058000401B510B620B730B20913B0330913C03DA
:10059000E4E6E29FC001E39F900D1124A0E0B0E0EB
:1005A000481759076A077B0768F0E0912503F09127
:1005B000260387A5811106C060E084E00E94B22472
:1005C00010923A03809141038E3409F052C0809119
:1005D00042038E3409F09FC080914F03811116C0F1
:1005E0000E941E2500915003109151032091520347
:1005F00030915303DC01CB01801B910BA20BB30B99
:10060000893E9340A105B10508F0ACC58091460331
:10061000882309F480C0E0912303F0912403158519
:1006200080914F03882309F476C08091450381307F
:1006300009F49CC50E941E25C0904703D090480332
:10064000E0904903F0904A039B01AC012C193D094D
:100650004E095F0969017A01212F30E0A0E6BAEE68
:100660000E94B83A6C157D058E059F0508F47EC57D
:1006700052C0893419F0823509F04DC00E941E2500
:1006800000913403109135032091360330913703E4
:10069000AB01BC01401B510B620B730B2091320369
:1006A00030913303E4E6E29FC001E39F900D1124F3
:1006B000A0E0B0E0481759076A077B0740F0809137
:1006C0004C038DA30E94B71C8DA10E94291F80910D
:1006D0002E03882301F10E941E25E0912903009139
:1006E0002A0310912B0320912C0330912D03AB0191
:1006F000BC01401B510B620B730B34E6E39FC0013E
:100700001124092E000CAA0BBB0B84179507A60712
:10071000B70708F445C58FE4C82E92E5B92E29E441
:10072000D22E8091540390915503DC01ED91FC9100
:100730000480F581E02D09951816190614F00C9423
:10074000D80BCE014F960E9417270BA1015060E2F3
:1007500071E0CE0101960E94CB2326E0AE014F5FEF
:100760005F4FBE01615E7F4F83E293E00E94E40E23
:10077000182FCE0101960E94B423112321F08091FD
:10078000390381116FC50BA1015067E271E0CE0101
:1007900001960E94CB232CE0AE014F5F5F4FBE015C
:1007A000615E7F4F83E293E00E94E40EE82ECE016B
:1007B00001960E94B423EE2071F1BE01615E7F4F6D
:1007C000CE010D960E94C2236EE271E0CE01079623
:1007D0000E94CB23BE01635F7F4FCE0107960E942C
:1007E0001E23BE01695F7F4FCE0101960E94C22386
:1007F00041E0BE016F5F7F4F83E293E00E94CC0F28
:10080000CE0101960E94B423CE0107960E94B42324
:10081000CE010D96BBC267E371E0CE0101960E9446
:10082000CB2302E228E1AE014F5F5F4FBE01615E64
:100830007F4F83E293E00E94E40E982ECE01019652
:100840000E94B423BE01615E7F4FCE01992009F45E
:100850005DC201960E94C223CE0101960E94561FDE
:10086000F82ECE0101960E94B423BE01615E7F4F37
:10087000CE0101960E94C223BE016F5F7F4F80911F
:100880002303909124030E948E0DA82ECE01019681
:100890000E94B423F11027C0BE01615E7F4FCE01DC
:1008A00001960E94C223BE016F5F7F4F8091230398
:1008B000909124030E943F0D182F81110DC0A110AB
:1008C0000AC0E0912303F091240311E08081882382
:1008D00019F010E001C0192DCE0101960E94B42339
:1008E000112309F4ADC1CE0101960E941727BE0164
:1008F0006F5F7F4FCE014F960E947B23CE01019602
:100900000E94B4230F8D18A10115110541F4E09147
:100910002303F09124038081882371F03AC0F80109
:1009200080818823A1F3082E000C990B0E94513876
:10093000D8018D938D01F3CFF1102BC065E172E0EA
:10094000CE0101960E94B923BE016F5F7F4FCE0199
:100950004F960E942F22182FCE0101960E94B42399
:10096000112309F415C22BA13CA144E050E0BE01C3
:10097000615E7F4FCE0101960E94E023BE016F5F52
:100980007F4FCE014F960E947B23CE0101960E949D
:10099000B4236EE371E0CE0101960E94CB23BE0129
:1009A0006F5F7F4FCE014F960E942F22182FCE01EE
:1009B00001960E94B4231123C1F02BA13CA141E078
:1009C00050E0BE01615E7F4FCE0101960E94E023A0
:1009D000BE016F5F7F4FCE014F960E947B23CE01F9
:1009E00001960E94B42311E001C010E0BE01615ED7
:1009F0007F4FCE01FF2009F418C149960E94C223FF
:100A000081E0809338030D8D015062E072E0CE01E9
:100A100001960E94B92326E0AE014F5F5F4FBE01F1
:100A2000675E7F4F83E293E00E94E40EF82ECE01D2
:100A300001960E94B423FF2009F4B0C080914103C5
:100A40008E3411F40E94B71C111110C06EEF71E0CA
:100A5000CE0101960E94B92340E061E0CE010196EB
:100A60000E94011ECE0101960E94B423898C9A8CAB
:100A70008114910429F40E94FD28811107C40DC03E
:100A8000F40180818823B9F3082E000C990B0E9491
:100A90004938D4018D934D01F3CF60E471E0CE016C
:100AA0000D960E94CB2368ED71E0CE0107960E945F
:100AB000B92366EC71E0CE0107960E949B22BE012D
:100AC000695F7F4FCE0101960E94C223CE0101963D
:100AD0000E948529082FCE0101960E94B42301119E
:100AE00002C000E042C067EB71E0CE0107960E94B1
:100AF000252360EB71E0CE0107960E949B22BE0188
:100B0000635F7F4FCE0107960E941E236CE571E064
:100B1000CE0107960E940F23BE01695F7F4FCE0171
:100B200001960E94C223CE0101960E948529082FBA
:100B3000CE0101960E94B423002399F261EA71E08C
:100B4000CE0101960E94B92361E0CE0101960E9478
:100B50005A27082FCE0101960E94B423002309F2E0
:100B600064E183E293E00E94B90ECE0107960E94F1
:100B7000B423CE010D960E94B423002309F47CC552
:100B80000CE0015009F478C562E383E293E00E942F
:100B9000B90E0E94FD288823A1F378C30D8D015062
:100BA00063EF71E0CE0101960E94B92327E0AE0108
:100BB0004F5F5F4FBE01675E7F4F83E293E00E940D
:100BC000E40E082FCE0101960E94B42301118AC5BC
:100BD0000D8D01506DEE71E0CE0101960E94B9239A
:100BE00025E0AE014F5F5F4FBE01675E7F4F83E23E
:100BF00093E00E94E40EF82ECE0101960E94B423E9
:100C0000F11072C510923803CE0149960E94B423A8
:100C1000F1106EC0BE01615E7F4FCE0101960E9451
:100C2000C2232A2D412F61E006C001960E94C223F3
:100C30002A2D412F60E0CE0101960E94CA1254C0B5
:100C4000BE01615E7F4FCE0101960E94C223BE01AC
:100C50006F5F7F4F80912303909124030E94950D35
:100C6000182FCE0101960E94B423112309F440C02D
:100C7000CE0101960E941727BE016F5F7F4FCE0104
:100C80004F960E947B23CE0101960E94B4236FE011
:100C900072E0CE0101960E94B923BE016F5F7F4FC3
:100CA000CE014F960E942F22182FCE0101960E944E
:100CB000B4231123E9F0E0912303F091240381E0B0
:100CC0008483BF016C5F7F4F8CE590E00E945826C3
:100CD00069E072E0CE0101960E94B92342E061E032
:100CE000CE0101960E94011ECE0101960E94B423FE
:100CF00067E171E0CE0101960E94B92360E0CE0168
:100D000001960E945A27CE01019640C007960E9484
:100D1000C2236BE071E0CE0101960E94B923BE01AF
:100D20006F5F7F4FCE0107960E946922182FCE0178
:100D300001960E94B423CE0107960E94B42311238A
:100D400021F081E08093560323C0BE01615E7F4F96
:100D5000CE0107960E94C22369EF70E0CE01019692
:100D60000E94B923BE016F5F7F4FCE0107960E949C
:100D70006922182FCE0101960E94B423112321F07D
:100D80000E94B71C0E94E127CE0107960E94B4235F
:100D900090914D0380914103911110C18E3419F04F
:100DA000823509F091C1909142039E3419F0993433
:100DB00009F0F1C0BE01615E7F4FCE0101960E9435
:100DC000C22363E671E0CE0101960E944A22182FE9
:100DD000CE0101960E94B423112309F4C6C081E01C
:100DE00080933003B0924103D09242038091430339
:100DF0008F5F80934303853008F06FC08130E9F442
:100E00006DEE70E0CE0101960E94B92340E0BE0174
:100E10006F5F7F4F83E293E00E94CC0FCE0101967B
:100E20000E94B4238091540390915503DC01ED910D
:100E3000FC910284F385E02D09956FE571E0CE0108
:100E40000D960E94CB23CE0101960E941727BE016A
:100E50006F5F7F4FCE010D960E947B23CE010196DE
:100E60000E94B42369E671E0CE0101960E94CB2373
:100E700005E12BE0AE014F5F5F4FBE01635F7F4F27
:100E800083E293E00E94E40E182FCE0101960E94A7
:100E9000B4231123C1F20E941E2560933403709382
:100EA0003503809336039093370389899A890A978B
:100EB00078F0CE010D960E94D71F882349F08091CB
:100EC0004303823028F080912703882309F443C428
:100ED000CE010D960E94B42306C080912703811194
:100EE00002C00E94B71C80912703882309F432C1F5
:100EF0000E941E256093340370933503809336035C
:100F0000909337031092270381E0809344038091EC
:100F1000540390915503DC01ED91FC910284F3851B
:100F2000E02D099569EE70E0CE0101960E94B9238B
:100F300041E0BE016F5F7F4F83E293E00E94CC0FE0
:100F4000CE0101960E94B4238091540390915503E1
:100F5000DC01ED91FC910284F385E02D0995D0929E
:100F60004103D09242036DE4AAC0BE01615E7F4F8F
:100F7000CE0101960E94C223CE0101960E94A51DBA
:100F8000182FCE0101960E94B423112309F4E2C068
:100F90000E94B71CDFC0893489F4909142039934D0
:100FA00069F4BE01615E7F4FCE0101960E94C223AB
:100FB000CE0101960E94A51D182FB1C08E3419F0E4
:100FC000823509F084C0109142031F3409F0C2C079
:100FD000BE01615E7F4FCE0101960E94C223CE0109
:100FE00001960E94561D082FCE0101960E94B4233F
:100FF000023579F40E941E25609334037093350303
:101000008093360390933703009341031093420378
:10101000A1C0BE01615E7F4FCE0101960E94C22336
:10102000CE0101960E94A51D182F811113C0BE018B
:10103000615E7F4FCE0107960E94C223CE010796C4
:101040000E94561D11E0853409F010E0CE0107968C
:101050000E94B423CE0101960E94B423112349F0CB
:1010600080914C038DA30E94B71C8DA10E94291F63
:1010700071C0BE01615E7F4FCE0101960E94C22306
:10108000CE0101960E94561D182FCE0101960E9496
:10109000B423193409F05EC00E941E256093340306
:1010A0007093350380933603909337031093410375
:1010B000C092420381E08093440360914C0383E239
:1010C00093E00E94921A46C0893409F466CF8934AD
:1010D00009F040C0809142038F34E1F5BE01615EAA
:1010E0007F4FCE0101960E94C223CE0101960E943D
:1010F000A51D182F811113C0BE01615E7F4FCE0167
:1011000007960E94C223CE0107960E94561D11E049
:10111000853409F010E0CE0107960E94B423CE0179
:1011200001960E94B423111133CFCE014F960E9435
:10113000881C882379F0BE01615E7F4FCE01019645
:101140000E94C223CE0101960E94C41ACE010196CC
:101150000E94B423CE014F960E94B423E2CA10929B
:101160005703FEC981E080934F0350CA80914B031F
:1011700080934C0310924603E0912303F0912403E3
:10118000848D8E3409F4C7CA81E080934D0383E2D5
:1011900093E00E94AB0F83E293E00E943810BBCA39
:1011A0008091540390915503DC01ED91FC910284F0
:1011B000F385E02D09956BE272E0CE0101960E9465
:1011C000B92340E0BE016F5F7F4F83E293E00E944E
:1011D000CC0FCE0101960E94B42362E771E0CE01EC
:1011E00001960E94CB2340E0BE016F5F7F4F83E2F8
:1011F00093E00E94CC0FCE0101960E94B42360912F
:101200002F0383E293E06DA30E94AB0F8091540300
:1012100090915503DC01ED91FC910190F081E02D5E
:101220006DA109956CE172E0CE0101960E94B9238F
:1012300041E0BE016F5F7F4F83E293E00E94CC0FDD
:10124000CE0101960E94B4238091540390915503DE
:10125000DC01ED91FC910284F385E02D099510925B
:101260002E0359CABE01615E7F4FCE0101960E94D6
:10127000C22340E061E0CE0101960E94011ECE0132
:1012800001960E94B423109239037DCABE01675EA5
:101290007F4FCE010D960E94C2236DE671E0CE0114
:1012A00001960E94B92361E0CE0101960E945A275F
:1012B000082FCE0101960E94B423002309F454C0E4
:1012C00060E671E0CE0107960E94B923BE01635F1C
:1012D0007F4FCE0107960E941E236CE571E0CE0180
:1012E00007960E940F23BE01695F7F4FCE010196D2
:1012F0000E94C22361E0CE0101960E945A27082F66
:10130000CE0101960E94B423002349F163E471E009
:10131000CE0101960E94B92361E0CE0101960E94A0
:101320005A27082FCE0101960E94B4230023B9F05A
:101330006CE271E0CE0101960E94B92361E0CE011A
:1013400001960E945A27082FCE0101960E94B423CD
:10135000002329F0CE0107960E94B42305C0CE01D8
:1013600007960E94B42300E0CE010D960E94B4239C
:10137000002309F481C168E471E0CE0143960E9424
:10138000CB2367E971E0CE010D960E94B923BE011F
:10139000635F7F4FCE0107960E94C2236EE471E027
:1013A000CE0107960E940F23BE016D5E7F4FCE01D6
:1013B00007960E941E236CE571E0CE0107960E94FD
:1013C0000F23BE01695F7F4FCE0101960E94C223A9
:1013D00061E0CE0101960E945A27982ECE01019617
:1013E0000E94B4239920E9F0BE01635F7F4FCE01D4
:1013F00007960E94642365E571E0CE0107960E947E
:101400000F23BE01695F7F4FCE0101960E94C22368
:1014100060E0CE0101960E945A27CE0101960E94FB
:10142000B423CE0107960E94B423CE010D960E94EC
:10143000B423CE0143960E94B423992009F41CC121
:10144000E0912303F09124038285811164C00E94FE
:101450001E252B013C016AE871E0CE0101960E9435
:10146000B92340E0BE016F5F7F4F83E293E00E94AB
:10147000CC0FCE0101960E94B4230E941E25DC01F0
:10148000CB0184199509A609B709803C944DA14068
:10149000B10508F0F1C08091540390915503DC012F
:1014A000ED91FC910480F581E02D0995892B29F3BC
:1014B0006091540370915503CE0107960E94FC1F62
:1014C0000B8501506BE771E0CE0101960E94B923B4
:1014D0002EE0AE014F5F5F4FBE01695F7F4F83E239
:1014E00093E00E94E40E082FCE0101960E94B423DF
:1014F000CE010796002309F4BECF0E94C521AB019F
:10150000BC0180912303909124030E947F0ECE01A1
:1015100007960E94B423E0912303F09124034680B0
:101520005780608471846FE771E0CE0143960E941A
:10153000CB23BE016D5E7F4FCE010D960E94C2236C
:101540006BE871E0CE010D960E940F23B301A2015A
:10155000CE010D960E94CB2267E671E0CE010D967A
:101560000E940F2362EB71E0CE0107960E94CB230D
:10157000BE016D5E7F4FCE0107960E941E2360E97B
:1015800071E0CE0107960E940F230E941E252B01B9
:101590003C01BE01695F7F4FCE0101960E94C223CC
:1015A00040E0BE016F5F7F4F83E293E00E94CC0F6B
:1015B000CE0101960E94B4230E941E25DC01CB01BE
:1015C00084199509A609B709803C944DA140B1053D
:1015D00050F58091540390915503DC01ED91FC91FD
:1015E0000480F581E02D0995892B31F36091540336
:1015F00070915503CE0101960E94FC1FBE016F5FE2
:101600007F4FCE0107960E947B23CE0101960E9458
:10161000B423BE01635F7F4FCE0107960E9469220B
:10162000882351F2E92CCE0107960E94B423CE0103
:101630000D960E94B423CE0143960E94B423EE205F
:10164000D9F081E080933803111110C06BEF71E085
:10165000CE0101960E94B92340E061E0CE010196DF
:101660000E94011ECE0101960E94B4230E94DA2836
:101670000E948719FE2CC8CA0E94DA28E091230331
:10168000F091240312861982BE016F5F7F4F84E8B8
:1016900093E00E9458261A821982BE016F5F7F4F25
:1016A00084E993E00E94601901E00983BE016F5F45
:1016B0007F4F80E993E00E94582600933803111170
:1016C000A3CA60E671E0CE0101960E94CB2340E000
:1016D00061E0CE0101960E94011ECE0101960E949A
:1016E000B42392CA01E001C002E0CE0149960E94F3
:1016F000C521AB01BC0180912303909124030E947A
:101700007F0E67EE71E0CE0107960E94B923BE01FD
:10171000675E7F4FCE0107960E941E23111111C0F4
:10172000BE01695F7F4FCE0101960E94C22340E057
:1017300061E0CE0101960E94011ECE0101960E9439
:10174000B423023011F40E948719CE0107960E943B
:10175000B423F92C59CABE01635F7F4FCE010796AF
:101760000E94C223BE01695F7F4FCE0101960E9495
:10177000C223CE0101960E94561F182F81110DC061
:10178000BE01695F7F4F80912303909124030E94E3
:10179000C70D11E08F3F09F410E0CE0101960E94C1
:1017A000B42310932703CE0107960E94B42390CB55
:1017B000A5960FB6F894DEBF0FBECDBFDF91CF91D7
:1017C0001F910F91FF90EF90DF90CF90BF90AF905F
:1017D0009F908F907F906F905F904F90089581E0E1
:1017E000809384020895CF92DF92EF92FF92CF937D
:1017F000DF93EC016B897C8980E090E00E944C399A
:101800006B017C018D89682F70E080E090E00E9480
:101810004C399B01AC01C701B6010E94AD3920E0F3
:1018200030E048EC52E40E94A7350E9419367A8BCA
:10183000698BBE016F5E7F4F80EB90E00E9419269E
:101840006B897C8980E090E00E944C396B017C01BF
:101850008E89682F70E080E090E00E944C399B01F7
:10186000AC01C701B6010E94AD3920E030E048EC80
:1018700052E40E94A7350E941936788B6F87BE010B
:10188000615F7F4F8CEA90E0DF91CF91FF90EF9006
:10189000DF90CF900C9419260E941E25E3E2F3E01E
:1018A00065AB76AB87AB90AF81E084AB0895FB016D
:1018B00084819581409770F0CB0160E070E00E94D8
:1018C0001E22282F880F330B2053310981E02A3044
:1018D000310508F080E008958F929F92AF92BF92F9
:1018E000CF92DF92EF92FF920F931F93CF93DF93EC
:1018F000CDB7DEB76B01ADB6BEB6FA01E480F580B8
:10190000C70101962DB73EB7281B390B0FB6F894C7
:101910003EBF0FBE2DBF0DB71EB70F5F1F4F892BE8
:1019200099F00115110581F0E114F10411F4F801A9
:101930000AC0FA0160817181A701C8010E94803844
:10194000F801EE0DFF1D1082F80101900020E9F76B
:101950003197E01BF10BC11424E0D206D8F4FF2428
:10196000F394FE0EC6018F0D911D8115944090F4E5
:101970004801C01AD10A882D801B8F1548F4C60172
:10198000880D991DF40161914F010E94733AF3CFC4
:1019900081E001C080E00FB6F894BEBE0FBEADBEC0
:1019A000DF91CF911F910F91FF90EF90DF90CF903B
:1019B000BF90AF909F908F9008951F93CF93DF9328
:1019C0002FEF260F233680F4EC016D8BBC016B5E8C
:1019D0007F4F84EB90E00E9458261E85112331F042
:1019E000CE010E94F30B03C010E001C011E0812F73
:1019F000DF91CF911F9108951F93CF93DF936536A9
:101A000080F0EC016E8BBC016A5E7F4F88EB90E04A
:101A10000E9458261E85112331F0CE010E94F30B3F
:101A200003C010E001C011E0812FDF91CF911F9121
:101A30000895FC016387BC01655F7F4F80E090E003
:101A40000C945826CF93DF93EC01FB01808188230F
:101A500069F08181882319F04EE150E002C040E333
:101A600051E02AE0CE010E94702605C062E472E0D7
:101A7000CE010E94B923CE01DF91CF910895DF926C
:101A8000EF92FF920F931F93CF93DF9300D000D07C
:101A900000D0CDB7DEB7FC012081222369F17B01A4
:101AA0008C012AE040E351E0BC01CE0101960E9486
:101AB0007026B701CE0101960E946922D82ECE0170
:101AC00001960E94B423D11019C0B701CE0101962E
:101AD0000E94C223F8018081882341F0BE016F5F1C
:101AE0007F4FC8010E94E526182F01C010E0CE01EB
:101AF00001960E94B42303C010E001C011E0812FC1
:101B000026960FB6F894DEBF0FBECDBFDF91CF9102
:101B10001F910F91FF90EF90DF900895FC012081BD
:101B200021110C94E52680E008950F931F93CF9325
:101B3000DF9300D000D000D0CDB7DEB7FC018381A9
:101B40008823C1F08B01BF012AE040E650E0CE01BE
:101B500001960E947026BE016F5F7F4FC8010E94F0
:101B6000692211E0811101C010E0CE0101960E94AE
:101B7000B42301C010E0812F26960FB6F894DEBF83
:101B80000FBECDBFDF91CF911F910F910895CF92DE
:101B9000DF92EF92FF920F931F93CF93DF9300D0CA
:101BA00000D000D0CDB7DEB77C016B01FC01808195
:101BB000811106C0F7018481882309F443C030C035
:101BC000CE0101960E94C223BE016F5F7F4FC70105
:101BD0000E943F0D182FCE0101960E94B4231111CF
:101BE00033C011E0F7018081181720F7FBE01F9F39
:101BF000A0011124405D5E4F2AE0B701CE0101969D
:101C00000E947026B601CE0101960E946922082F1B
:101C1000CE0101960E94B423011118C01F5FE2CFCC
:101C2000B601CE0101960E94C223BE016F5F7F4FB5
:101C3000C7010E94950D182FCE0101960E94B42372
:101C4000111106C08FEF05C080E003C0812F01C0D5
:101C50008EEF26960FB6F894DEBF0FBECDBFDF9194
:101C6000CF911F910F91FF90EF90DF90CF9008954B
:101C7000FC01808191810C946B3A0F931F93CF9359
:101C8000DF931F92CDB7DEB78C0169830E94380EB7
:101C90006981681729F0F801808191810E94733A67
:101CA000C8010F90DF91CF911F910F910895CF93AD
:101CB000DF9300D0CDB7DEB7FC01668784EA90E001
:101CC0009A838983CE0101960E943D0E0F900F905A
:101CD000DF91CF910895CF93DF9300D0CDB7DEB7DA
:101CE000FC01648F8EE090E09A838983CE01019697
:101CF0000E943D0E0F900F90DF91CF910895EF92CB
:101D0000FF920F931F93CF93DF9300D0CDB7DEB731
:101D100021E0FC01228746835783608771878C010D
:101D20000A5F1F4F88E8E82E83E0F82EF8016191E2
:101D30008F01FA82E982CE0101960E943D0EFFEFEB
:101D4000EF1AFF0A8CE8E81683E0F80679F70F909F
:101D50000F90DF91CF911F910F91FF90EF90089519
:101D6000FC01268D293421F421E025830C94921A5C
:101D700008958F929F92AF92BF92CF92DF92EF928F
:101D8000FF92C62E0E941E254B015C0184E6C89E70
:101D9000600111240D2C000CEE08FF080E941E2586
:101DA000DC01CB0188199909AA09BB098C159D058D
:101DB000AE05BF0598F3FF90EF90DF90CF90BF90F6
:101DC000AF909F908F900895EF92FF920F931F9383
:101DD000CF93DF9300D000D000D0CDB7DEB77B012A
:101DE000122FBA01C7010E942F228823A9F0202FA9
:101DF00030E0412F50E0B701CE0101960E94E02370
:101E0000BE016F5F7F4FC7010E947B23CE01019609
:101E10000E94B42381E001C080E026960FB6F894BA
:101E2000DEBF0FBECDBFDF91CF911F910F91FF900D
:101E3000EF900895CF92DF92EF92FF920F93CF939E
:101E4000DF9300D000D000D0CDB7DEB76C017B01AE
:101E5000FB01048103506DE971E0CE0101960E94FF
:101E6000CB2325E0AE014F5F5F4FB701C6010E9453
:101E7000E40E082FCE0101960E94B423802F2696EF
:101E80000FB6F894DEBF0FBECDBFDF91CF910F919B
:101E9000FF90EF90DF90CF9008958F929F92AF9236
:101EA000BF92CF92DF92EF92FF920F93CF93DF9387
:101EB000CDB7DEB72C970FB6F894DEBF0FBECDBFFF
:101EC0005C016B01FB01048101506EE871E0CE0101
:101ED00007960E94CB23F60184819581892B69F0B6
:101EE000808091806F817885C4010E948F3800972F
:101EF00021F07C01E818F90803C0EE24EA94FE2CD6
:101F000062EA71E0CE0101960E94CB2321E02E0D02
:101F1000AE014F5F5F4FB601C5010E94E40E082F6E
:101F2000CE0101960E94B423CE0107960E94B423ED
:101F3000802F2C960FB6F894DEBF0FBECDBFDF9179
:101F4000CF910F91FF90EF90DF90CF90BF90AF9027
:101F50009F908F900895CF93DF93EC018F8981112B
:101F600012C061E084E00E94B22481E08F8B0E9465
:101F70001E256A8F7B8F8C8F9D8F61E0CE01DF9154
:101F8000CF910C94B90E0E941E256A8F7B8F8C8F87
:101F90009D8FDF91CF910895FF920F931F93CF9361
:101FA000DF93EC018B01F42E0E94AB0F6FE571E023
:101FB000C8010E944A2209A8DAA9C02D811114C0C3
:101FC000F8014481558160817181E881F981028045
:101FD000F381E02DCE01F11006C0DF91CF911F916A
:101FE0000F91FF9009940995CE01DF91CF911F9138
:101FF0000F91FF900C9426240F931F93CF93DF93A0
:1020000000D000D000D0CDB7DEB78C01DC01D19676
:102010008D919C91D297DC01ED91FC910284F38526
:10202000E02D099567E372E0CE0101960E94B92385
:1020300041E0BE016F5F7F4FC8010E94CC0FCE010F
:1020400001960E94B423F80181A992A9DC01ED91C7
:10205000FC910284F385E02D099526960FB6F8943D
:10206000DEBF0FBECDBFDF91CF911F910F910895BD
:10207000CF92DF92FF920F931F93CF93DF93CDB751
:10208000DEB762970FB6F894DEBF0FBECDBF8C01EE
:1020900081E0D8011D968C93C8010E94AB0FF80116
:1020A00081A992A9DC01ED91FC910284F385E02DD8
:1020B000099568EA71E0CE0107960E94CB23F801EA
:1020C000F2A0C080D180FF2059F16FE571E0CE0110
:1020D0000D960E94CB23D6018C91F816B8F4BBE084
:1020E000FB9EA0011124405D5E4F2AE0B601CE01A7
:1020F00001960E947026BE016F5F7F4FCE010D9644
:102100000E947B23CE0101960E94B423BE01635F2F
:102110007F4FCE0107960E941E23CE010D960EC062
:10212000B601CE0101960E94220DBE016F5F7F4F66
:10213000CE0107960E941E23CE0101960E94B42371
:102140006BE3CE0107960E94FC22BE01695F7F4FC0
:10215000CE0101960E94C22341E0BE016F5F7F4F16
:10216000C8010E94CC0FCE0101960E94B42361E009
:10217000C8010E94B90E6FE571E0CE0101960E9480
:10218000CB2341E0BE016F5F7F4FC8010E94CC0F9F
:10219000CE0101960E94B4230E941E25F801618B96
:1021A000728B838B948B82E5868F8FE4878FCE0131
:1021B00007960E94B42362960FB6F894DEBF0FBE56
:1021C000CDBFDF91CF911F910F91FF90DF90CF9006
:1021D00008950F931F93CF93DF93EC01E881F9816A
:1021E0008081811102C011E034C0848D8E34D9F316
:1021F0008BA98823C1F38BA1811103C099A59617E0
:1022000091F39E8D9E3421F59F8D9E3409F51CA57A
:102210001123F9F081111CC0062F1AA2858588238D
:1022200051F00E941E256CA37DA38EA39FA308A737
:1022300081E08BA30EC069A7848D8E34A1F281E06A
:102240008AA7CE010E94AB0FCE010E94381001C0B8
:1022500010E0812FDF91CF911F910F9108950C9481
:10226000003C089561E081E10C94B2240F931F9328
:10227000CF93DF93EC0141110EC08EA581110BC0ED
:10228000662321F162E38A819B81DF91CF911F91C7
:102290000F910C94B00E022F162F1DAA61E08DE055
:1022A0000E94B2240E941E25FE01ED5BFF4F608359
:1022B000718382839383319781E080831EA660E0DF
:1022C00080E10E94B2241AA70CA719A6DF91CF9132
:1022D0001F910F910895FC01A081B1811C968C91F2
:1022E00095A5882321F0992321F087A50895892FAA
:1022F000089581E008951F93CF93DF93EC01162F8B
:1023000018AA8FA5882329F0CE010E946B11811194
:102310000FC08A819B81112331F06EE4DF91CF9150
:102320001F910C94B00E6EE40E94E9108C8326C0BD
:102330008EA581111DC060E08DE00E94B22460E096
:102340008CE00E94B2240E9432110E941E25FE01E0
:10235000FD96608371838283938381E08BAF18A69F
:102360008EA761E080E10E94B22419A61BA706C0D7
:10237000112321F061E38A819B81D0CFDF91CF913E
:102380001F9108951F93CF93DF93EC011FA5112395
:1023900031F00E946B11882311F081E00BC0CE0157
:1023A0000E946B11882321F0111104C084E002C047
:1023B00082E000C0DF91CF911F910895CF93DF930A
:1023C000FC0126A5211110C0EC010E946B1188238D
:1023D00059F08FA5882341F081E088AB0E941E252B
:1023E00069AB7AAB8BAB9CABDF91CF9108951F9318
:1023F000CF93DF93EC01162FE881F981838581115A
:102400000CC08EA581111EC08FA58823D9F061E074
:102410008DE00E94B22418AA15C0FE01EE5BFF4FAA
:10242000808181110FC08FA5882361F060E08DE06D
:102430000E94B224112331F0CE01DF91CF911F9180
:102440000C94DE11DF91CF911F910895EF92FF92CE
:102450000F931F93CF93DF937B018A01E901F894D7
:102460008AE00E94892431E0892B09F430E0F701E9
:1024700030838BE00E94892431E0892B09F030E021
:10248000F801308383E00E94892431E0892B09F42C
:1024900030E038837894DF91CF911F910F91FF90B6
:1024A000EF9008950F931F93CF93DF9300D01F9267
:1024B000CDB7DEB78C019E012F5F3F4FAE014E5F5F
:1024C0005F4FBE016D5F7F4F0E9426129A81F80117
:1024D00096A7992311F061E001C060E080E10E94BD
:1024E000B2248A810F900F900F90DF91CF911F91AE
:1024F0000F9108951F920F920FB60F9211248F9390
:102500009F9391E090931802809130028F5F8093A7
:102510003002809130028E3240F080916002811151
:1025200002C090931902109230029F918F910F90E8
:102530000FBE0F901F9018951F920F920FB60F921B
:1025400011240F900FBE0F901F9018951F920F929D
:102550000FB60F9211248F9381E0809384028F91A4
:102560000F900FBE0F901F9018951F920F920FB6ED
:102570000F9211248F9381E0809385028F910F90A9
:102580000FBE0F901F901895E0E6F0E098E1908361
:1025900080830895AF92BF92DF92EF92FF920F93E4
:1025A0001F93CF93DF93CDB7DEB762970FB6F89442
:1025B000DEBF0FBECDBF7C01B62ED42EA22E6093FF
:1025C0003803BC01CE010D960E94C22363E873E07C
:1025D000CE0101960E94B923BE016F5F7F4FC701F4
:1025E0000E942F22182FCE0101960E94B42311239E
:1025F00019F00E94BB2821C66AE773E0CE0101965C
:102600000E94B923BE016F5F7F4FC7010E942F2236
:10261000182FCE0101960E94B423112311F1E090EE
:102620002303F0902403BB2019F0F701108203C0AC
:1026300081E0F7018083B7018CE291E00E94582687
:10264000F7011182B7016F5F7F4F8AE190E00E942E
:102650005826F7011282B7016E5F7F4F86E190E046
:10266000EAC562E773E0CE0101960E94B923BE017C
:102670006F5F7F4FC7010E942F22182FCE01019656
:102680000E94B423112309F466C060E08091230303
:10269000909124030E94190D6DE78091230390917E
:1026A00024030E94FC0C6BE480912303909124038B
:1026B0000E94DD0C60E080912303909124030E942E
:1026C000570EE0912303F09124031586BF01635F49
:1026D0007F4F8AE390E00E945826E0912303F09117
:1026E00024031486BF01645F7F4F86E390E00E945D
:1026F0005826E0912303F0912403138EBF01655EF9
:102700007F4F8CE090E00E94582663E48091230381
:10271000909124030E946B0EE0912303F091240317
:1027200082E390E0908F878BBF01695E7F4F84E0EA
:1027300090E00E941926E0912303F091240382E0A7
:1027400090E0928F818FBF01675E7F4F82E190E0C2
:102750000E94192672C56EE673E0CE0101960E94B2
:10276000B923BE016F5F7F4FC7010E942F22182F30
:10277000CE0101960E94B4231123F1F1E0902303CE
:10278000F09024036FE571E0CE0107960E94CB2301
:1027900010E0F70180811817F8F4FBE01F9FA001FB
:1027A0001124405D5E4F2AE0B701CE0101960E94E0
:1027B0007026BE016F5F7F4FCE0107960E941E23D9
:1027C000CE0101960E94B4236EE571E0CE0107961A
:1027D0000E940F231F5FDDCF6FE571E0CE010796EA
:1027E0000E944A22882309F440C564E673E0CE01C2
:1027F00007960E94252339C56EE573E0CE01019648
:102800000E94B923BE016F5F7F4FC7010E942F2234
:10281000182FCE0101960E94B423112329F083E2E0
:1028200093E00E942F114AC56AE573E0CE0101963C
:102830000E94B923BE016F5F7F4FC7010E942F2204
:10284000182FCE0101960E94B423112319F00E9483
:10285000702820C563E573E0CE0101960E94B9237C
:10286000BE016F5F7F4FC7010E942F22182FCE013C
:1028700001960E94B423112311F061E014C06BE4AF
:1028800073E0CE0101960E94B923BE016F5F7F4FB6
:10289000C7010E942F22182FCE0101960E94B42357
:1028A000112379F060E080912303909124030E942A
:1028B000190D61E080912503909126030E94F71184
:1028C000BCC465E473E0CE0101960E94B923BE0149
:1028D0006F5F7F4FC7010E942F22182FCE010196F4
:1028E0000E94B423112339F0E0912303F0912403D3
:1028F00081E0848718C06EE373E0CE0101960E94E8
:10290000B923BE016F5F7F4FC7010E942F22182F8E
:10291000CE0101960E94B423112359F0E0912303C4
:10292000F09124031486BF01645F7F4F86E390E03B
:1029300082C468E373E0CE0101960E94B923BE0110
:102940006F5F7F4FC7010E942F22182FCE01019683
:102950000E94B423112339F0E0912303F091240362
:1029600081E0838F18C061E373E0CE0101960E947D
:10297000B923BE016F5F7F4FC7010E942F22182F1E
:10298000CE0101960E94B423112359F0E091230354
:10299000F0912403138EBF01655E7F4F8CE090E0C1
:1029A0004AC46CE273E0CE0101960E94B923BE01D5
:1029B0006F5F7F4FC7010E942F22182FCE01019613
:1029C0000E94B423F7011123D9F0848195810597E2
:1029D00008F474C464E070E0C7010E941E22982FBE
:1029E0009D7F913429F0843519F08E3409F066C446
:1029F000682F80912303909124030E946B0E1DC4C5
:102A00000481015068E273E0CE0101960E94B9236F
:102A100023E0AE014F5F5F4FB70183E293E00E9476
:102A2000E40E182FCE0101960E94B4231123A1F0C9
:102A3000C7010E94D71F882309F440C4C7010E9420
:102A4000C5216F36710508F439C480912303909134
:102A500024030E94FC0CF1C3F7010481015063E2DE
:102A600073E0CE0101960E94B92324E0AE014F5FCE
:102A70005F4FB70183E293E00E94E40E182FCE016E
:102A800001960E94B4231123B9F0C7010E94D71FF9
:102A9000882309F413C4C7010E94C5219B0121505A
:102AA00031092E35310508F009C480912303909136
:102AB00024030E94DD0CC1C36FEA71E0CE010196D0
:102AC0000E94CB23BE016F5F7F4FC7010E942F2260
:102AD000082FCE0101960E94B423002309F46FC091
:102AE0006DEC71E0CE0107960E94CB230E94B11AD3
:102AF000BC01CE0107960E94463565EB71E0CE0120
:102B000007960E940F23E0912303F0912403638929
:102B10007489CE0107960E94463569EB71E0CE01BB
:102B200007960E940F23E0912303F0912403678509
:102B30007089CE0107960E9446356DEB71E0CE019B
:102B400007960E940F23E0912303F09124036189EB
:102B50007289CE0107960E94463561EC71E0CE0184
:102B600007960E940F23E0912303F09124036689C6
:102B7000CE0107960E94763566EC71E0CE0107968D
:102B80000E940F23E0912303F09124036589CE0175
:102B900007960E947635BE01695F7F4FCE01019690
:102BA0000E94C22340E061E0CE0101960E94011E16
:102BB000CE0101960E94B423CE010796F5C26CE1C6
:102BC00073E0CE0101960E94B923BE016F5F7F4F73
:102BD000C7010E942F22082FCE0101960E94B42324
:102BE000002309F4BCC065E173E0C7010E942523FE
:102BF0004AE15FE060E070E0C7010E94002888239E
:102C000039F0C7010E94C521162F110F160F01C000
:102C10001FEF65E083E293E00E94B90E6EE073E07F
:102C2000C7010E9425234DE45FE060E070E0C7012A
:102C30000E940028882349F16EE871E0CE010796D2
:102C40000E94CB23F701448155818B859C85481BCD
:102C5000590BBE01695F7F4FC7010E94D0219C01C3
:102C600040E050E0B701CE0101960E94E023CE0182
:102C700001960E94C521062FCE0101960E94B42321
:102C8000CE0107960E94B42301C00FEFA090250348
:102C9000B0902603C5010E94C211F82EF501E6A4EA
:102CA0006DEA72E0CE0101960E94B923E091230300
:102CB000F09124038385811106C065EA72E0CE019C
:102CC00001960E9425236BEC71E0CE0101960E94D3
:102CD0000F23F1E0FF1631F082E0F81631F065E9DC
:102CE00072E005C069E872E002C06BE972E0CE01F3
:102CF00001960E949B226EE872E0CE0101960E942E
:102D00009B22E11003C06EE772E002C064E872E04B
:102D1000CE0101960E949B220F3F59F067E772E0B7
:102D2000CE0101960E949B22602FCE0101960E9447
:102D300076351F3F59F06DE672E0CE0101960E9494
:102D40009B22612FCE0101960E94763540E061E022
:102D5000CE0101960E94011ECE01019699C269E042
:102D600073E0CE0101960E94B923BE016F5F7F4FD1
:102D7000C7010E942F22882329F0BB2011F011E007
:102D800001C01A2DCE0101960E94B423112359F0DF
:102D9000E0912303F09124038281882309F48EC2F9
:102DA00081E0818318C063E073E0CE0101960E9448
:102DB000B923BE016F5F7F4FC7010E942F22182FDA
:102DC000CE0101960E94B423112359F0E091230310
:102DD000F09124031182BF016F5F7F4F8AE190E081
:102DE0002AC2F701048101506DEF72E0CE01019615
:102DF0000E94B92325E0AE014F5F5F4FB70183E228
:102E000093E00E94E40E182FCE0101960E94B42395
:102E10001123F1F0C7010E94D71F882309F44EC285
:102E2000C7010E94C5218B016630710510F005E0D5
:102E300010E0E0912303F09124030587BF01635F55
:102E40007F4F8AE390E00E94582667EF72E07BC0D4
:102E5000F701048101506EEE72E0CE0101960E94EE
:102E6000B92328E0AE014F5F5F4FB70183E293E0E3
:102E70000E94E40E182FCE0101960E94B423112364
:102E800029F1C7010E94D71F882309F417C2C7017F
:102E90000E94C5218B016230710530F0613B7440A6
:102EA00028F000EB14E002C002E010E0E091230300
:102EB000F0912403128F018FBF01675E7F4F82E183
:102EC00090E00E94192665EE72E03DC0F701048192
:102ED00001506CED72E0CE0101960E94B92328E00A
:102EE000AE014F5F5F4FB70183E293E00E94E40EB3
:102EF000182FCE0101960E94B423112371F1C7014E
:102F00000E94D71F882309F4D9C1C7010E94C52197
:102F10008B016233710530F06138704728F000E8AA
:102F200010E702C002E310E0E0912303F0912403D4
:102F3000108F078BBF01695E7F4F84E090E00E9495
:102F4000192663ED72E0CE010D960E942523B8018B
:102F5000CE010D960E94463570C1F70104810150E3
:102F60006FEC72E0CE0101960E94B92323E0AE011E
:102F70004F5F5F4FB70183E293E00E94E40E182F8A
:102F8000CE0101960E94B423112321F163EC72E07B
:102F9000CE0107960E94B923B701CE0107960E9481
:102FA0001E2360E771E0CE0107960E940F2381E0A7
:102FB00080933903BE01695F7F4FCE0101960E9465
:102FC000C22341E0BE016F5F7F4F83E293E00E9426
:102FD000CC0F58C160ED71E0CE0101960E94CB2369
:102FE0000CE022E0AE014F5F5F4FB70183E293E058
:102FF0000E94E40E182FCE0101960E94B4231123E3
:1030000009F448C0C7010E94D71F882309F456C19C
:103010000091230310912403F8018081823008F489
:103020004DC1B701C8010E94C70DF82E8FEF8F0D5B
:103030008D3F08F043C18BE0E82E2F2D30E0F801E2
:103040009081492F50E04150510924173507FCF475
:103050002F5F3F4FE29E5001E39EB00C1124A5016B
:10306000405D5E4F2AE0B801CE0101960E947026B5
:10307000B5016B5D7E4FAE014F5F5F4FC8010E948F
:103080006C0CCE0101960E94B423F394D6CF9150DC
:10309000908348C064ED71E0CE0101960E94CB237D
:1030A0000CE022E0AE014F5F5F4FB70183E293E097
:1030B0000E94E40E182FCE0101960E94B423112322
:1030C000A9F1C7010E94D71F882309F4F7C0009116
:1030D000230310912403F80180818F3009F4EEC09E
:1030E000B701C8010E94C70D8F3F09F0E7C0B701C3
:1030F000CE0101960E94C223F8016081FBE06F9F20
:10310000B0011124605D7E4FAE014F5F5F4FC8017B
:103110000E946C0CCE0101960E94B423F8018081BC
:103120008F5F8083B8018CE291E085C063ED71E030
:10313000CE0101960E94CB230DE023E0AE014F5F4C
:103140005F4FB70183E293E00E94E40E182FCE0197
:1031500001960E94B423112351F1C7010E94D71F89
:10316000882309F4ABC00091230310912403F801D4
:103170008081882309F4A2C081E08283B8016E5F58
:103180007F4F86E190E00E945826B701CE0101965C
:103190000E94C223AE014F5F5F4F6EE170E0C80135
:1031A0000E946C0CCE0101960E94B42346C067EDCC
:1031B00071E0CE0101960E94CB230DE023E0AE0129
:1031C0004F5F5F4FB70183E293E00E94E40E182F38
:1031D000CE0101960E94B423112309F46FC0C701E8
:1031E0000E94D71F882309F469C00091230310911E
:1031F000240381E0F8018383B8016D5F7F4F88E588
:1032000090E00E945826B701CE0101960E94C22389
:10321000AE014F5F5F4F60E670E0C8010E946C0C2A
:10322000CE0101960E94B423F8011482B8016C5FAC
:103230007F4F8CE590E00E94582611E0D1102AC003
:103240006DEB72E0CE0107960E94B923111106C002
:1032500064EB72E0CE0107960E942523BE01635FF6
:103260007F4FCE0107960E941E23BE01695F7F4FEC
:10327000CE0101960E94C22340E061E0CE0101969A
:103280000E94011ECE0101960E94B423CE01079632
:103290000E94B423CE010D960E94B42362960FB60D
:1032A000F894DEBF0FBECDBFDF91CF911F910F917C
:1032B000FF90EF90DF90BF90AF90089510E0BECFE9
:1032C000EF92FF920F931F93CF93DF9300D0CDB770
:1032D000DEB78C017B01FB0160819A838983CE017B
:1032E00001960E943D0EF70161810F5F1F4F1A8307
:1032F0000983CE0101960E943D0EC7010F900F90E9
:10330000DF91CF911F910F91FF90EF900895CF9390
:10331000DF9300D000D000D0CDB7DEB760E672E01A
:10332000CE0101960E94B92360E0CE0101960E9471
:103330005A27CE0101960E94B42369E572E0CE01BE
:1033400001960E94B92360E0CE0101960E945A279F
:10335000CE0101960E94B4236DE472E0CE01019685
:103360000E94B92360E0CE0101960E945A27CE0147
:1033700001960E94B42381E08983BE016F5F7F4F75
:1033800084E893E00E9458261A821982BE016F5F7A
:103390007F4F84E993E00E9460191982BE016F5F3C
:1033A0007F4F80E993E00E94582664E683E293E031
:1033B0000E94B90E83E293E00E942F1126960FB669
:1033C000F894DEBF0FBECDBFDF91CF91089583E2A9
:1033D00093E00E94FC0F0E941E25609334037093BB
:1033E0003503809336039093370308950F931F930B
:1033F000CF93DF93CDB7DEB72C970FB6F894DEBF2F
:103400000FBECDBF6FEF73E0CE0107960E94B923C8
:1034100061E4CE0107960E94FC226BEF73E0CE01BF
:1034200007960E949B2203E213E0D801D1968D916A
:103430009C91D297DC01ED91FC910284F385E02D03
:103440000995BE01695F7F4FCE0101960E94C2239C
:1034500041E0BE016F5F7F4FC8010E94CC0FCE01DB
:1034600001960E94B423F80181A992A9DC01ED9193
:10347000FC910284F385E02D0995CE0107960E9408
:10348000B4232C960FB6F894DEBF0FBECDBFDF91EC
:10349000CF911F910F910895FC01A089B18982E01D
:1034A0008C93A485B5851C92A685B78583E38C9300
:1034B000108EA489B58986E08C93A289B3898C91FA
:1034C00080618C93A289B3898C9188608C93A28946
:1034D000B3898C9180688C930288F389E02D808178
:1034E0008F7D8083089580913903811119C0909157
:1034F00041039E34B1F4909142039E3491F4909133
:103500004F03992371F090914D0391110AC090914E
:103510003003911106C09091570381E089270895E7
:1035200080E008951F93CF93DF93EC01162F89A9B4
:103530009AA9DC01ED91FC910284F385E02D0995B7
:10354000CE010E94FC0F0E941E256F837887898719
:103550009A8781E08B8719A71C87DF91CF911F91F4
:10356000089585E480937C0080917A008064809344
:103570007A0080917A0086FDFCCF809178002091BE
:10358000790090E0922B08954F925F926F927F9214
:103590008F929F92AF92BF92CF92DF92EF92FF9263
:1035A0000F931F93CF93DF9360E070E00E941E2281
:1035B0008133E1F483E580934E030E94E71961E0D3
:1035C0008091250390912603DF91CF911F910F9158
:1035D000FF90EF90DF90CF90BF90AF909F908F9033
:1035E0007F906F905F904F900C947B118233F1F439
:1035F0008FE480934E030E94E71920E040E061E0F1
:103600008091250390912603DF91CF911F910F9117
:10361000FF90EF90DF90CF90BF90AF909F908F90F2
:103620007F906F905F904F900C9436118333B1F57B
:1036300084E580934E030E94E719C0912503D09141
:103640002603CE010E94C211843011F46CE403C041
:103650008230A9F461E48A819B81DF91CF911F912F
:103660000F91FF90EF90DF90CF90BF90AF909F9021
:103670008F907F906F905F904F900C94B00E813040
:1036800009F035C1CE010E9452122A813B81882364
:1036900011F061E301C063E3C901DFCF803309F0BA
:1036A00063C080913103882309F45AC0C091250377
:1036B000D09126038EA5882309F4DAC08BAD811141
:1036C000D7C08CAD8111D4C0FE01EE5BFF4F80816D
:1036D0008111CEC0CE010E946B118111D0C0C8C033
:1036E000B70180E090E00E944C392B013C01F801C9
:1036F000658970E080E090E00E944C399B01AC014C
:10370000C301B2010E94AD3920E030E048EC52E440
:103710000E94A7350E9419364B015C01F8016689A9
:1037200070E080E090E00E944C399B01AC01C30145
:10373000B2010E94AD3920E030E048EC52E40E9432
:10374000A7350E9419362B013C016F3F734008F4E6
:10375000A2C067E38A819B810E94B00E0E94E71994
:1037600081E080933103C3C08434C9F481E3809342
:103770004E0361E080912303909124030E94190D70
:1037800061E080912503909126030E94F71160E08B
:1037900080912503909126030E947B1115C08334EC
:1037A00029F582E380934E0360E08091230390919A
:1037B00024030E94190D21E040E060E08091250380
:1037C000909126030E943611DF91CF911F910F91A6
:1037D000FF90EF90DF90CF90BF90AF909F908F9031
:1037E0007F906F905F904F900C94F6198833A9F4F6
:1037F0000E94E71961E080912303909124030E94C5
:10380000190D61E080912503909126030E94F71124
:1038100081E08093280368E317C0893309F067C00B
:103820000E94E71960E080912303909124030E9495
:10383000190D61E080912503909126030E94F711F4
:1038400081E08093280369E383E293E0DF91CF91E5
:103850001F910F91FF90EF90DF90CF90BF90AF90AE
:103860009F908F907F906F905F904F900C94921AE2
:1038700060E0888199810E94570E69E56BCF0E94B4
:10388000B11A7C0108811981803A910508F028CF8E
:1038900060E0C801F0CF80E88816910408F459CFA1
:1038A000F801F48AE38AB8016D5E7F4F88EA90E000
:1038B0000E941926E881F981928A818ABF016F5E90
:1038C0007F4F80EB90E00E941926E881F981508AB1
:1038D0004786BF01615F7F4F8CEA90E00E94192606
:1038E00061E0888199810E94570E6BE433CFDF91AC
:1038F000CF911F910F91FF90EF90DF90CF90BF90ED
:10390000AF909F908F907F906F905F904F900895B1
:10391000EF92FF920F931F93CF93DF9300D000D0CD
:1039200000D0CDB7DEB77C016BED71E0CE01019622
:103930000E94CB2308E027E0AE014F5F5F4FB70145
:1039400083E293E00E94E40E182FCE0101960E94BC
:10395000B423812F26960FB6F894DEBF0FBECDBFDD
:10396000DF91CF911F910F91FF90EF900895CF932A
:10397000DF9300D000D000D0CDB7DEB71092430364
:10398000109230038091540390915503DC01ED9126
:10399000FC910284F385E02D099563EF73E0CE017D
:1039A00001960E94B92341E0BE016F5F7F4F83E221
:1039B00093E00E94CC0FCE0101960E94B4230E9496
:1039C0001E2561E083E293E00E94B90E6FE571E08D
:1039D000CE0101960E94CB2341E0BE016F5F7F4F75
:1039E00083E293E00E94CC0FCE0101960E94B423A3
:1039F0008091540390915503DC01ED91FC91028478
:103A0000F385E02D099510924D03109231038091BA
:103A100041038E3411F0823549F5809142038F3491
:103A200029F580914503811121C0809144038111C2
:103A30001DC0E0912303F0912403848D8435B1F4FB
:103A40008081823098F081E0809345038093460323
:103A50000E941E2560934703709348038093490397
:103A600090934A0380914C0380934B03109244033C
:103A7000109228038EE480934103809342031092B6
:103A800027030E941E256093500370935103809377
:103A900052039093530310924F0326960FB6F89457
:103AA000DEBF0FBECDBFDF91CF910895FF920F9380
:103AB0001F93CF93DF9300D000D000D0CDB7DEB7F7
:103AC0008C0167EE73E0CE0101960E94B923BE011E
:103AD0006F5F7F4FC8010E942F22F82ECE01019602
:103AE0000E94B423FF20E1F02CE030E04BE050E0F6
:103AF000B801CE0101960E94E02360E070E0CE01A3
:103B000001960E941E22182FCE0101960E94B42316
:103B1000123341F0133341F0103341F0163341F0CA
:103B20008EE407C084E405C082E503C089E401C0D7
:103B300085E426960FB6F894DEBF0FBECDBFDF91A9
:103B4000CF911F910F91FF900895FF920F931F93B4
:103B5000CF93DF9300D000D000D0CDB7DEB78C017B
:103B60006BED73E0CE0101960E94B923BE016F5F39
:103B70007F4FC8010E946922F82ECE0101960E9453
:103B8000B423FF2011F091E02FC065ED73E0CE016A
:103B900001960E94B923BE016F5F7F4FC8010E944A
:103BA0006922F82ECE0101960E94B423F110EBCFCA
:103BB0006AEC73E0CE0101960E94B923BE016F5FEB
:103BC0007F4FC8010E946922F82ECE0101960E9403
:103BD000B423F110D8CF63EE71E0C8010E944A22ED
:103BE00091E0811101C090E0892F26960FB6F894DC
:103BF000DEBF0FBECDBFDF91CF911F910F91FF9020
:103C00000895EF92FF920F931F93CF93DF93CDB759
:103C1000DEB762970FB6F894DEBF0FBECDBF7C0152
:103C2000062F142F81E080933003809154039091EC
:103C30005503DC01ED91FC910284F385E02D09959B
:103C4000B701CE010D960E94C223011126C08091BA
:103C50004C038F34B1F034F4833499F0863409F096
:103C6000E7C00FC0833521F0853509F0E1C009C0F8
:103C70006AEE71E0CE010D960E944D2361EF71E076
:103C800008C06AEE71E0CE010D960E944D2364EFEC
:103C900071E0CE010D960E940F2368EF71E0CE0116
:103CA00007960E94CB231230B9F4609123037091E0
:103CB0002403FB018381882341F02AE040E650E0A1
:103CC000CE0101960E9470261AC06FE571E0CE0108
:103CD00001960E94CB2313C080913803882339F0CA
:103CE0006FEB73E0CE0107960E949B2213C0609198
:103CF000230370912403CE0101960E94220DBE0180
:103D00006F5F7F4FCE0107960E941E23CE01019662
:103D10000E94B42360E771E0CE0107960E940F2352
:103D20008091540390915503DC01ED91FC91028444
:103D3000F385E02D0995BE01695F7F4FCE010196A5
:103D40000E94C22341E0BE016F5F7F4F83E293E098
:103D50000E94CC0FCE0101960E94B423809154039F
:103D600090915503DC01ED91FC910284F385E02DE7
:103D700009956AE083E293E00E94B90EBE01635F99
:103D80007F4FCE0101960E94C22341E0BE016F5FCA
:103D90007F4F83E293E00E94CC0FCE0101960E94F8
:103DA000B4238091540390915503DC01ED91FC9173
:103DB0000284F385E02D09956AE083E293E00E9496
:103DC000B90E8091540390915503DC01ED91FC9163
:103DD0000284F385E02D099583E293E00E94AB0F06
:103DE0000091540310915503D801ED91FC9101907D
:103DF000F081E02D6AE1C8010995C8010E942624DE
:103E00008091540390915503DC01ED91FC91028463
:103E1000F385E02D09956AE083E293E00E94B90EF4
:103E20001092380310923003CE0107960E94B423FB
:103E3000CE010D960E94B42362960FB6F894DEBFB1
:103E40000FBECDBFDF91CF911F910F91FF90EF90EB
:103E50000895CF93DF9300D000D000D0CDB7DEB768
:103E600090914403911119C0E0912303F091240330
:103E7000948D913491F480934C036FE571E0CE0101
:103E800001960E94CB2340E060E0CE0101960E94A3
:103E9000011ECE0101960E94B42326960FB6F89417
:103EA000DEBF0FBECDBFDF91CF9108950F931F935B
:103EB000CF93DF93CDB7DEB76E970FB6F894DEBF22
:103EC0000FBECDBF8C0164EB73E0CE0101960E9462
:103ED000B923BE016F5F7F4FC8010E946922811123
:103EE0004DC069EA73E0CE0107960E94B923BE0176
:103EF000695F7F4FC8010E946922811141C06EE94C
:103F000073E0CE010D960E94B923BE01635F7F4F1F
:103F1000C8010E946922811135C063E973E0CE01B6
:103F200043960E94B923BE016D5E7F4FC8010E9477
:103F30006922811115C068E873E0CE0149960E949C
:103F4000B923BE01675E7F4FC8010E94692211E05C
:103F5000811101C010E0CE0149960E94B42301C036
:103F600011E0CE0143960E94B423CE010D960E942B
:103F7000B423CE0107960E94B42309C080E004C098
:103F800081E002C011E0F1CF11E08111F2CFCE014A
:103F900001960E94B423812F6E960FB6F894DEBF6F
:103FA0000FBECDBFDF91CF911F910F910895EF927A
:103FB000FF920F931F93CF938C01FC01E480F58057
:103FC000C0E06C2F70E06E157F0568F4C8010E9498
:103FD0001E22282F880F330B205331092A30310538
:103FE00020F4CF5FEECF81E001C080E0CF911F9140
:103FF0000F91FF90EF9008950F931F93CF93DF934E
:10400000EC018B016FE571E00E94CB23C8010E9497
:104010002A2597FD08C08A30910529F0682FCE0126
:104020000E94FC22F3CFCE01DF91CF911F910F911F
:1040300008950895CF92DF92EF92FF920F931F930E
:10404000CF93DF936C017A018B01C0E0D0E0CE15F5
:10405000DF0589F0D8016D918D01D601ED91FC91BC
:104060000190F081E02DC6010995892B11F47E01A4
:1040700002C02196ECCFC701DF91CF911F910F9124
:10408000FF90EF90DF90CF900895FC01918D828D8D
:10409000981761F0828DDF01A80FB11D5D968C919C
:1040A000928D9F5F9F73928F90E008958FEF9FEFA7
:1040B0000895FC01918D828D981731F0828DE80F63
:1040C000F11D858D90E008958FEF9FEF0895FC011D
:1040D000918D228D892F90E0805C9F4F821B9109EA
:1040E0008F739927089586E892E00E94672021E067
:1040F000892B09F420E0822F0895FC01848DDF01D3
:10410000A80FB11DA35ABF4F2C91848D90E001964A
:104110008F739927848FA689B7892C93A089B18939
:104120008C9180648C93938D848D981306C0028843
:10413000F389E02D80818F7D80830895EF92FF9237
:104140000F931F93CF93DF93EC0181E0888F9B8DBA
:104150008C8D981305C0E889F989808185FD24C07C
:10416000F62E0B8D10E00F5F1F4F0F731127E02EFF
:104170008C8DE8120CC00FB607FCFACFE889F989DC
:10418000808185FFF5CFCE010E947D20F1CF8B8D00
:10419000FE01E80FF11DE35AFF4FF0820B8FEA8911
:1041A000FB898081806207C0EE89FF896083E8898E
:1041B000F98980818064808381E090E0DF91CF91F4
:1041C0001F910F91FF90EF900895CF93DF93EC0133
:1041D000888D8823C9F0EA89FB89808185FD05C027
:1041E000A889B9898C9186FD0FC00FB607FCF5CF61
:1041F000808185FFF2CFA889B9898C9185FFEDCFA9
:10420000CE010E947D20E7CFDF91CF91089580E01D
:1042100090E0892B29F00E94732081110C940000FA
:104220000895833081F028F4813099F08230A1F034
:1042300008958730A9F08830B9F08430D1F48091A6
:1042400080008F7D03C0809180008F7780938000F5
:10425000089584B58F7702C084B58F7D84BD08959D
:104260008091B0008F7703C08091B0008F7D8093E4
:10427000B000089508950E944438CF93DF93EC0175
:1042800088819981009711F00E94E2361982188284
:104290001D821C821B821A82DF91CF9108950F9399
:1042A0001F93CF93DF93EC0188819981009729F0C8
:1042B0002A813B812617370788F48B016F5F7F4F78
:1042C0000E947A37009761F0998388831B830A8361
:1042D0002C813D81232B11F4FC01108281E001C06F
:1042E00080E0DF91CF911F910F910895EF92FF929F
:1042F0000F931F93CF93DF93FC01248135816115C8
:10430000710511F480E019C041155105A9F07B0138
:10431000EC018A01020F131FB8010E944F2188236C
:1043200089F3288139818C819D81B701820F931F88
:104330000E946B381D830C8381E0DF91CF911F9128
:104340000F91FF90EF900895EF92FF920F931F93BC
:10435000CF93DF93EC017B018A01BA010E944F21C8
:10436000811104C0CE010E943D2107C01D830C8332
:10437000B701888199810E946B38CE01DF91CF917E
:104380001F910F91FF90EF900895FC018081918122
:10439000009711F00C94A93860E070E0CB0108950B
:1043A000AF92BF92CF92DF92EF92FF920F931F9343
:1043B000CF93DF937B018A01FB0144815581411535
:1043C000510561F1FC01248135812115310531F15F
:1043D0002417350718F10217130718F08901015047
:1043E0001109FC01A080B180C501DFEFCFEF6501AD
:1043F000C00ED11EC816D906A0F0F70160817181E8
:104400000E948F38009769F09C012A193B09021716
:10441000130710F0D22FC32F0196ECCF8FEF9FEF31
:1044200002C08D2F9C2FDF91CF911F910F91FF9094
:10443000EF90DF90CF90BF90AF900895FC01248162
:1044400035816217730748F480819181009729F0C4
:10445000FC01E60FF71F8081089580E00895FB01BD
:1044600044815581FC01248135812417350778F07A
:1044700080819181009759F0FB0160817181611504
:10448000710529F00E94723821E0892B09F020E0A3
:10449000822F0895FC0124813581232B31F421E002
:1044A00061157105A1F0FB0108C0FC0180819181BB
:1044B0006115710531F421E0FC018081882339F018
:1044C00005C00E94623821E0892B09F020E0822F8C
:1044D0000895FC0124813581FB0144815581241715
:1044E000350721F5FC0180819181FB01608171819B
:1044F000009719F061157105A1F46115710549F076
:10450000232BB1F0FB01808190E091958195910979
:104510000AC0009769F0232B59F0FC01808190E0DC
:1045200002C00E94623821E0892B19F020E001C00E
:1045300021E0822F0895EF92FF920F931F93CF9364
:10454000DF936115710511F480E01EC08B01EC0151
:10455000CB010E94D7380097B1F02C813D817C01BE
:10456000E20EF31EB701CE010E944F21882361F3B2
:10457000288139818C819D81B801820F931F0E940F
:10458000D038FD82EC8281E0DF91CF911F910F91B5
:10459000FF90EF900895EF92FF920F931F93CF93A8
:1045A000DF93CDB7DEB72D970FB6F894DEBF0FBE01
:1045B000CDBF7C01CB01BA012AE08E010F5F1F4FF6
:1045C000A8010E940039F80101900020E9F7319715
:1045D000AF01401B510BB801C7010E9476212D96F7
:1045E0000FB6F894DEBF0FBECDBFDF91CF911F9104
:1045F0000F91FF90EF900895CF93DF9300D0CDB748
:10460000DEB769831A8241E050E0BE016F5F7F4FE1
:104610000E9476210F900F90DF91CF910895611540
:10462000710551F0FB0101900020E9F73197AF01CE
:10463000461B570B0C94762180E00895FB014481C2
:104640005581608171810C947621EF92FF920F93D6
:104650001F93CF93DF93EC018B016115710551F02E
:10466000CB010E94D7387C01BC01CE010E944F21B2
:10467000811104C0CE010E943D2107C0FD82EC8261
:10468000B801888199810E94D038CE01DF91CF9105
:104690001F910F91FF90EF900895CF93DF93EC015E
:1046A0006115710559F0FB0101900020E9F7319780
:1046B000AF01461B570B0E94A42102C00E943D215E
:1046C000CE01DF91CF910895CF93DF93EC01FB01F1
:1046D0008617970761F0608171816115710529F076
:1046E000448155810E94A42102C00E943D21CE0137
:1046F000DF91CF9108950F931F93CF93DF938C0198
:10470000EB01FC01808191810097B1F06881798192
:104710006115710579F0428153812C813D814217E9
:10472000530740F00E946B388C819D81F80195837E
:10473000848313C00E94E23688819981F8019183B5
:1047400080838A819B81938382838C819D819583E1
:104750008483198218821B821A821D821C82DF9137
:10476000CF911F910F910895FC01808191810C944C
:10477000E236FC01118210821382128215821482A9
:104780000C942523FC01118210821382128215825F
:1047900014820C946423FC01118210821382128211
:1047A000158214826115710551F0FB010190002002
:1047B000E9F73197AF01461B570B0C94A4210895DC
:1047C000BF92CF92DF92EF92FF920F931F93CF93FE
:1047D000DF937C016B018A01E9012417350720F47E
:1047E000812F8901C42FD82F6FE571E0C7010E9486
:1047F000CB23D60114968D919C9115970817190714
:10480000D0F48C179D0708F4EC01D601ED91FC91D2
:104810001197EC0FFD1FB08010824D915C91BA0191
:10482000600F711FC7010E944D23D601ED91FC91CD
:10483000EC0FFD1FB082C701DF91CF911F910F9147
:10484000FF90EF90DF90CF90BF900895DC01ED9145
:10485000FC910280F381E02D42E050E06DE571E0D3
:1048600009941F920F920FB60F9211242F933F932A
:104870004F935F936F937F938F939F93AF93BF9368
:10488000EF93FF9386E892E00E947D20FF91EF91E5
:10489000BF91AF919F918F917F916F915F914F9158
:1048A0003F912F910F900FBE0F901F9018951F9260
:1048B0000F920FB60F9211242F938F939F93EF9324
:1048C000FF93E0919602F09197028081E0919C0223
:1048D000F0919D0282FD12C0908180919F028F5FB6
:1048E0008F732091A002821751F0E0919F02F0E0B7
:1048F000EA57FD4F958F80939F0201C08081FF9101
:10490000EF919F918F912F910F900FBE0F901F905D
:104910001895CF93DF93282F30E0F901E25BFB4F2E
:104920008491F901E65CFB4FD491F901EA5DFB4FFC
:10493000C491CC2391F081110E941121EC2FF0E061
:10494000EE0FFF1FE45EFB4FA591B491EC91ED23B8
:1049500081E090E021F480E002C080E090E0DF910F
:10496000CF9108951F93CF93DF93282F30E0F90163
:10497000E25BFB4F8491F901E65CFB4FD491F901B6
:10498000EA5DFB4FC491CC23C9F0162F81110E9420
:104990001121EC2FF0E0EE0FFF1FEE5EFB4FA59113
:1049A000B4918FB7F894111105C09C91ED2FE0954B
:1049B000E92302C0EC91ED2BEC938FBFDF91CF91F7
:1049C0001F910895CF93DF9390E0FC01E65CFB4FCD
:1049D0002491FC01EA5DFB4F8491882361F190E012
:1049E000880F991FFC01E85FFB4FC591D491FC0132
:1049F000EE5EFB4FA591B491611109C09FB7F89489
:104A00008881209582238883EC912E230BC062300D
:104A100061F49FB7F8943881822F8095832388832F
:104A2000EC912E2B2C939FBF06C08FB7F894E88192
:104A30002E2B28838FBFDF91CF9108952FB7F89445
:104A40006091840370918503809186039091870320
:104A50002FBF08950F931F93CF93DF93EC010E9414
:104A60001E25688779878A879B87E881F981068078
:104A7000F781E02DCE01099597FF17C00E941E25F2
:104A8000088519852A853B85DC01CB01801B910BAC
:104A9000A20BB30B0C811D812E813F8180179107E2
:104AA000A207B30710F38FEF9FEFDF91CF911F9114
:104AB0000F9108951F920F920FB60F9211242F930A
:104AC0003F938F939F93AF93BF9380918403909173
:104AD0008503A0918603B09187033091830326E07C
:104AE000230F2D3720F40296A11DB11D05C029E822
:104AF000230F0396A11DB11D20938303809384038C
:104B000090938503A0938603B093870380917F03DE
:104B100090918003A0918103B09182030196A11D21
:104B2000B11D80937F0390938003A0938103B09382
:104B30008203BF91AF919F918F913F912F910F90E1
:104B40000FBE0F901F9018951F920F920FB60F92E5
:104B500011242F933F934F935F936F937F938F9382
:104B60009F93AF93BF93EF93FF93E0910201F09176
:104B700003010995FF91EF91BF91AF919F918F91A3
:104B80007F916F915F914F913F912F910F900FBE49
:104B90000F901F9018951F920F920FB60F9211242D
:104BA0002F933F934F935F936F937F938F939F9335
:104BB000AF93BF93EF93FF93E0910001F091010158
:104BC0000995FF91EF91BF91AF919F918F917F9147
:104BD0006F915F914F913F912F910F900FBE0F906A
:104BE0001F901895EF92FF920F931F93CF93DF932F
:104BF00000D0CDB7DEB78C017B019A838983CE01CB
:104C000001960E94380EF70180830F5F1F4F1A83B1
:104C10000983CE0101960E94380EF7018183C701F6
:104C20000F900F90DF91CF911F910F91FF90EF9018
:104C30000895EF92FF920F931F93CF93DF9300D0CD
:104C4000CDB7DEB78C017B01FB0160819A8389833C
:104C5000CE0101960E943D0EF70161810F5F1F4F4B
:104C60001A830983CE0101960E943D0EC7010F9061
:104C70000F90DF91CF911F910F91FF90EF900895CA
:104C80000F931F93CF93DF9300D0CDB7DEB78B0187
:104C90009A838983CE0101960E94380EF8018083A1
:104CA000C8010F900F90DF91CF911F910F91089540
:104CB0000F931F93CF93DF9300D0CDB7DEB78B0157
:104CC000FB0160819A838983CE0101960E943D0E8B
:104CD000C8010F900F90DF91CF911F910F91089510
:104CE0006F927F928F929F92AF92BF92CF92DF92FC
:104CF000EF92FF920F931F93CF93DF9300D0CDB726
:104D0000DEB76C013A01ADB6BEB6822F90E00196D7
:104D10004DB75EB7481B590B0FB6F8945EBF0FBE78
:104D20004DBF8DB79EB701964C01611494E0790692
:104D300088F5FF24F394F20E69F1E1E0FE1202C05F
:104D4000F40127C07A826982CE0101960E94380E52
:104D5000F4018083EE24E3948823E1F00E2D10E02B
:104D6000EF1498F4C801860D971D8115F4E09F0794
:104D700060F49A838983CE0101960E94380EF40173
:104D8000E00FF11F8083E394E7CF080D191DF801B0
:104D900031971082B401C6010E94CB23C6010FB621
:104DA000F894BEBE0FBEADBE0F900F90DF91CF91B5
:104DB0001F910F91FF90EF90DF90CF90BF90AF9039
:104DC0009F908F907F906F9008950F931F93CF9334
:104DD000DF9300D000D000D0CDB7DEB7FC018281D8
:104DE0008823C1F08B01BF012AE04EE150E0CE01E3
:104DF00001960E947026BE016F5F7F4FC8010E941E
:104E0000692211E0811101C010E0CE0101960E94DB
:104E1000B42301C010E0812F26960FB6F894DEBFB0
:104E20000FBECDBFDF91CF911F910F910895EF92EB
:104E3000FF920F931F93CF93DF9300D000D000D049
:104E4000CDB7DEB78C016FE571E00E94CB23809176
:104E5000540390915503DC01ED91FC910480F581A0
:104E6000E02D099518161906BCF483E293E00E9420
:104E7000AB0F6091540370915503CE0101967C01F4
:104E80000E94FC1F0E151F0521F0B701C8010E94EA
:104E90007B23C7010E94B423C80126960FB6F8945D
:104EA000DEBF0FBECDBFDF91CF911F910F91FF905D
:104EB000EF9008958F929F92AF92BF92CF92DF9220
:104EC000EF92FF921F93CF93DF9300D000D000D0DA
:104ED000CDB7DEB7162FBC01CE0101960E94C223CA
:104EE00040E0BE016F5F7F4F83E293E00E94CC0FF2
:104EF000CE0101960E94B4230E941E254B015C0145
:104F0000112339F090E6C92E9AEED92EE12CF12C1E
:104F100015C088EBC82E8BE0D82EE12CF12C0EC0EA
:104F20008091540390915503DC01ED91FC91048034
:104F3000F581E02D09951816190674F00E941E25BA
:104F4000DC01CB0188199909AA09BB098C159D05BB
:104F5000AE05BF0528F321C0CE0101960E94172798
:104F600065E072E0CE0101960E944A2281110DC0D7
:104F700063EE71E0CE0101960E944A22811107C0C2
:104F8000CE0101960E94B423D9CF11E001C010E0F8
:104F9000CE0101960E94B42301C010E0812F269615
:104FA0000FB6F894DEBF0FBECDBFDF91CF911F913A
:104FB000FF90EF90DF90CF90BF90AF909F908F9039
:104FC0000895CF93DF9300D000D000D0CDB7DEB7E7
:104FD00064E774E0CE0101960E94B92360E0CE013F
:104FE00001960E945A27CE0101960E94B42326966C
:104FF0000FB6F894DEBF0FBECDBFDF91CF910895FD
:105000008F929F92AF92BF92CF92DF92EF92FF92D8
:105010000F931F93CF93DF9300D000D000D0CDB774
:10502000DEB76C017A010E941E254B015C01B601BE
:10503000CE0101960E94C22341E0BE016F5F7F4F07
:1050400083E293E00E94CC0FCE0101960E94B4232C
:105050000E941E258B019C01081919092A093B0988
:10506000003A1F402105310530F58091540390919D
:105070005503DC01ED91FC910480F581E02D09954B
:10508000892B31F3CE0101960E941727BE016F5F75
:105090007F4F83E293E0F7010995182F8823A1F24F
:1050A000BE016F5F7F4FC6010E946423CE0101964F
:1050B0000E94B42301C010E0812F26960FB6F89409
:1050C000DEBF0FBECDBFDF91CF911F910F91FF903B
:1050D000EF90DF90CF90BF90AF909F908F9008950A
:1050E000EF92FF920F931F93CF93DF93CDB7DEB76D
:1050F0002C970FB6F894DEBF0FBECDBF81E0809332
:10510000380360E774E0CE0101960E94B9237E0166
:1051100087E0E80EF11C08E413E01C870B87CE0142
:105120000B960E94380EF70181937F010F5F1F4F8E
:105130000C34F3E01F0789F74F81588569857A851C
:10514000CE0101960E94CB2240E061E0CE010196A3
:105150000E94011ECE0101960E94B4232C960FB628
:10516000F894DEBF0FBECDBFDF91CF911F910F919D
:10517000FF90EF900895CF93DF9300D000D000D040
:10518000CDB7DEB762E674E0CE0101960E94B92386
:1051900060E0CE0101960E945A27CE0101960E943E
:1051A000B42326960FB6F894DEBF0FBECDBFDF91B5
:1051B000CF9108951F93CF93DF9300D000D000D0FC
:1051C000CDB7DEB76DE874E0CE0101960E94B92339
:1051D00061E0CE0101960E945A27182FCE01019658
:1051E0000E94B423812F26960FB6F894DEBF0FBE1F
:1051F000CDBFDF91CF911F910895CF92DF92EF92B3
:10520000FF920F931F93CF93DF93CDB7DEB72C9709
:105210000FB6F894DEBF0FBECDBF69E072E0CE01DD
:1052200001960E94CB2340E0BE016F5F7F4F83E277
:1052300093E00E94CC0FCE0101960E94B4230E94FD
:105240001E256B017C010E941E25DC01CB018C19FF
:105250009D09AE09BF0988389341A105B10508F041
:1052600043C08091540390915503DC01ED91FC9172
:105270000480F581E02D0995892B29F36091540371
:1052800070915503CE0107960E94FC1F62E874E0FE
:10529000CE0101960E94B9230BE02AE0AE014F5FD8
:1052A0005F4FBE01695F7F4F83E293E00E94E40E8F
:1052B000182FCE0101960E94B423112351F060E013
:1052C00070E0CE0107960E941E22833339F08133AD
:1052D00031F0CE0107960E94B423B5CF10E0CE0185
:1052E00007960E94B42301C010E0812F2C960FB6C0
:1052F000F894DEBF0FBECDBFDF91CF911F910F910C
:10530000FF90EF90DF90CF900895CF92DF92EF92D1
:10531000FF921F93CF93DF9300D000D000D0CDB782
:10532000DEB7BC01CE0101960E94C22340E0BE015F
:105330006F5F7F4F83E293E00E94CC0FCE01019616
:105340000E94B4230E941E256B017C010E941E2531
:10535000DC01CB018C199D09AE09BF098838934146
:10536000A105B10590F58091540390915503DC019E
:10537000ED91FC910480F581E02D0995892B31F3A5
:105380006091540370915503CE0101960E94FC1F59
:1053900065E072E0CE0101960E944A2281110DC0A3
:1053A00063EE71E0CE0101960E944A22811107C08E
:1053B000CE0101960E94B423C9CF11E001C010E0D4
:1053C000CE0101960E94B42301C010E0812F2696E1
:1053D0000FB6F894DEBF0FBECDBFDF91CF911F9106
:1053E000FF90EF90DF90CF9008950F931F93CF938E
:1053F000DF93CDB7DEB72C970FB6F894DEBF0FBEA4
:10540000CDBF6CE974E0CE0107960E94B9234DE44C
:105410005FE060E070E0CE0107960E9400288823DC
:1054200081F16EE871E0CE0101960E94CB234B859D
:105430005C858D819E81481B590BBE016F5F7F4F3C
:10544000CE0107960E94D0218C01CE0101960E94C8
:10545000B423A80155279A012C5F3F4F4F5F5F4F40
:10546000BE01695F7F4FCE0101960E94E023CE010D
:1054700001960E94C5218B01CE0101960E94B423A2
:1054800002C000E010E0CE0107960E94B423C801DC
:105490002C960FB6F894DEBF0FBECDBFDF91CF9133
:1054A0001F910F910895CF93DF93CDB7DEB7659726
:1054B0000FB6F894DEBF0FBECDBF789484B582607E
:1054C00084BD84B5816084BD85B5826085BD85B5A8
:1054D000816085BD80916E00816080936E00109226
:1054E00081008091810082608093810080918100A1
:1054F0008160809381008091800081608093800032
:105500008091B10084608093B1008091B00081608F
:105510008093B00080917A00846080937A008091BB
:105520007A00826080937A0080917A008E7F8093E7
:105530007A0080917A00806880937A001092C1008E
:1055400084B762E089E00E94E22461E088E00E9482
:10555000E224BE016F5F7F4F80EA90E00E94402608
:105560008981882311F060E001C061E088E00E9439
:10557000B2246FE673E08AE390E00E9440268091B7
:105580006F038F3F41F410926F036FE673E08AE37D
:1055900090E00E9458266EE673E086E390E00E9459
:1055A000402680916E038F3F41F410926E036EE6A9
:1055B00073E086E390E00E94582666E673E08CE58F
:1055C00090E00E944026809166038F3F41F4109244
:1055D000660366E673E08CE590E00E94582665E677
:1055E00073E088E590E00E944026809165038F3F3C
:1055F00041F41092650365E673E088E590E00E944F
:1056000058266DE673E080E090E00E94402680918D
:105610006D038F3F29F460E082E693E00E94190D4C
:1056200069E773E084E090E00E94F22580917903BD
:1056300090917A03019661F482E390E090937A036B
:105640008093790369E773E084E090E00E94192673
:105650006DE773E08CE090E00E94402680917D032E
:105660008F3F41F410927D036DE773E08CE090E092
:105670000E9458268EE090E09A838983CE0101969D
:105680000E94380E80937E038F3F29F464E582E602
:1056900093E00E946B0E62E673E08CE291E00E9460
:1056A000402680916203803140F01092620362E6EE
:1056B00073E08CE291E00E94582664E673E086E194
:1056C00090E00E944026809164038F3F41F4109245
:1056D000640364E673E086E190E00E94582663E686
:1056E00073E08AE190E00E944026809163038F3F3F
:1056F00041F41092630363E673E08AE190E00E9454
:10570000582667E673E080E293E00E94402680918D
:1057100067038F3F41F41092670367E673E080E20E
:1057200093E00E9458266BE773E082E190E00E94CC
:10573000F22580917B0390917C03019661F482E0D5
:1057400090E090937C0380937B036BE773E082E1AE
:1057500090E00E94192681E08093700360E082E669
:1057600093E00E94570E67E773E084EB90E00E949D
:105770004026809177038F3F29F46BE482E693E023
:105780000E94DD0C68E773E088EB90E00E94402601
:10579000809178038F3F29F46DE782E693E00E94C1
:1057A000FC0C65E773E088EA90E00E94F22561E76F
:1057B00073E08CEA90E00E94F22563E773E080EBEF
:1057C00090E00E94F22582E693E090932403809378
:1057D000230381E392E0909326038093250386E8D8
:1057E00092E00E944C1A809168008160809368006A
:1057F0008091680082608093680080916C00816075
:1058000080936C0080916C00826080936C0080912A
:105810006C00806280936C00F89480E00E94C41257
:1058200081E60E94C412789461E081E10E94E22442
:1058300061E086E00E94E22461E087E00E94E224C9
:1058400061E085E00E94E22411E080911902882342
:10585000E9F10E94731A8823C9F180913003811104
:1058600035C080915703811131C00E941E25C09020
:105870002A02D0902B02E0902C02F0902D02DC0145
:10588000CB018C199D09AE09BF09893E9340A10542
:10589000B105E0F00E94F5297C01009129020F5F1B
:1058A000009329020E941E2560932A0270932B0206
:1058B00080932C0290932D024CE6E41641E0F4060E
:1058C00008F41FC710921902109229028091240235
:1058D000882309F10E941E25C0902502D09026023F
:1058E000E0902702F0902802DC01CB018C199D0981
:1058F000AE09BF0981319742A105B10560F0109250
:1059000024020E94731A882331F00E94F5298C36F4
:10591000914008F43AC5809123028111EAC1809137
:10592000220281111BC00E941E2560347F41810527
:105930009105A0F00E94F5298C36914008F42AC503
:1059400061E088E00E94B224109322021982BE0115
:105950006F5F7F4F80EA90E00E945826809121027D
:10596000811108C00E941E25683B7B40810591057E
:1059700008F01DC580912202882321F10E941E2576
:1059800020911A0230911B02DC01CB01821B930B88
:10599000A109B109853F9140A105B10598F0809119
:1059A0000401812780930401882311F061E001C084
:1059B00060E081E10E94B2240E941E2570931B02C8
:1059C00060931A020E941E25683A7146810591056E
:1059D00008F4D8C46BE171E0CE0101960E94CB239C
:1059E00060E0CE0101960E945A27CE0101960E94E6
:1059F000B42368EC70E0CE0101960E94B92360E008
:105A0000CE0101960E945A27082FCE0101960E94CE
:105A1000B423002309F4F2C06CEB70E0CE010D96C4
:105A20000E94B92360E0CE010D960E945A27882378
:105A300009F4E0C060EB70E0CE0107960E94B92344
:105A400060E0CE0107960E945A27082F882381F034
:105A50006CE970E0CE0101960E94B92360E0CE01AE
:105A600001960E945A27082FCE0101960E94B42366
:105A7000CE0107960E94B423CE010D960E94B42356
:105A8000002309F4BBC06FE870E0CE0101960E94CC
:105A9000B92360E0CE0101960E945A27CE010196FB
:105AA0000E94B42363E870E0CE0101960E94B923FE
:105AB00060E0CE0101960E945A27CE0101960E9415
:105AC000B4236CE770E0CE0101960E94B92360E038
:105AD000CE0101960E945A27CE0101960E94B4235E
